{
  "contractName": "AccessModule",
  "abi": [
    {
      "anonymous": false,
      "inputs": [
        {
          "indexed": true,
          "internalType": "address",
          "name": "previousOwner",
          "type": "address"
        },
        {
          "indexed": true,
          "internalType": "address",
          "name": "newOwner",
          "type": "address"
        }
      ],
      "name": "OwnershipTransferred",
      "type": "event"
    },
    {
      "anonymous": false,
      "inputs": [
        {
          "indexed": false,
          "internalType": "address",
          "name": "account",
          "type": "address"
        }
      ],
      "name": "Paused",
      "type": "event"
    },
    {
      "anonymous": false,
      "inputs": [
        {
          "indexed": true,
          "internalType": "address",
          "name": "account",
          "type": "address"
        }
      ],
      "name": "PauserAdded",
      "type": "event"
    },
    {
      "anonymous": false,
      "inputs": [
        {
          "indexed": true,
          "internalType": "address",
          "name": "account",
          "type": "address"
        }
      ],
      "name": "PauserRemoved",
      "type": "event"
    },
    {
      "anonymous": false,
      "inputs": [
        {
          "indexed": false,
          "internalType": "address",
          "name": "newPool",
          "type": "address"
        }
      ],
      "name": "PoolAddressChanged",
      "type": "event"
    },
    {
      "anonymous": false,
      "inputs": [
        {
          "indexed": false,
          "internalType": "address",
          "name": "account",
          "type": "address"
        }
      ],
      "name": "Unpaused",
      "type": "event"
    },
    {
      "anonymous": false,
      "inputs": [
        {
          "indexed": true,
          "internalType": "address",
          "name": "account",
          "type": "address"
        }
      ],
      "name": "WhitelistAdminAdded",
      "type": "event"
    },
    {
      "anonymous": false,
      "inputs": [
        {
          "indexed": true,
          "internalType": "address",
          "name": "account",
          "type": "address"
        }
      ],
      "name": "WhitelistAdminRemoved",
      "type": "event"
    },
    {
      "anonymous": false,
      "inputs": [],
      "name": "WhitelistDisabled",
      "type": "event"
    },
    {
      "anonymous": false,
      "inputs": [],
      "name": "WhitelistEnabled",
      "type": "event"
    },
    {
      "anonymous": false,
      "inputs": [
        {
          "indexed": true,
          "internalType": "address",
          "name": "account",
          "type": "address"
        }
      ],
      "name": "WhitelistedAdded",
      "type": "event"
    },
    {
      "anonymous": false,
      "inputs": [
        {
          "indexed": true,
          "internalType": "address",
          "name": "account",
          "type": "address"
        }
      ],
      "name": "WhitelistedRemoved",
      "type": "event"
    },
    {
      "constant": false,
      "inputs": [
        {
          "internalType": "address",
          "name": "account",
          "type": "address"
        }
      ],
      "name": "addPauser",
      "outputs": [],
      "payable": false,
      "stateMutability": "nonpayable",
      "type": "function"
    },
    {
      "constant": false,
      "inputs": [
        {
          "internalType": "address",
          "name": "account",
          "type": "address"
        }
      ],
      "name": "addWhitelistAdmin",
      "outputs": [],
      "payable": false,
      "stateMutability": "nonpayable",
      "type": "function"
    },
    {
      "constant": false,
      "inputs": [
        {
          "internalType": "address",
          "name": "account",
          "type": "address"
        }
      ],
      "name": "addWhitelisted",
      "outputs": [],
      "payable": false,
      "stateMutability": "nonpayable",
      "type": "function"
    },
    {
      "constant": true,
      "inputs": [
        {
          "internalType": "string",
          "name": "module",
          "type": "string"
        }
      ],
      "name": "getModuleAddress",
      "outputs": [
        {
          "internalType": "address",
          "name": "",
          "type": "address"
        }
      ],
      "payable": false,
      "stateMutability": "view",
      "type": "function"
    },
    {
      "constant": true,
      "inputs": [],
      "name": "isOwner",
      "outputs": [
        {
          "internalType": "bool",
          "name": "",
          "type": "bool"
        }
      ],
      "payable": false,
      "stateMutability": "view",
      "type": "function"
    },
    {
      "constant": true,
      "inputs": [
        {
          "internalType": "address",
          "name": "account",
          "type": "address"
        }
      ],
      "name": "isPauser",
      "outputs": [
        {
          "internalType": "bool",
          "name": "",
          "type": "bool"
        }
      ],
      "payable": false,
      "stateMutability": "view",
      "type": "function"
    },
    {
      "constant": true,
      "inputs": [
        {
          "internalType": "address",
          "name": "account",
          "type": "address"
        }
      ],
      "name": "isWhitelistAdmin",
      "outputs": [
        {
          "internalType": "bool",
          "name": "",
          "type": "bool"
        }
      ],
      "payable": false,
      "stateMutability": "view",
      "type": "function"
    },
    {
      "constant": true,
      "inputs": [
        {
          "internalType": "address",
          "name": "account",
          "type": "address"
        }
      ],
      "name": "isWhitelisted",
      "outputs": [
        {
          "internalType": "bool",
          "name": "",
          "type": "bool"
        }
      ],
      "payable": false,
      "stateMutability": "view",
      "type": "function"
    },
    {
      "constant": true,
      "inputs": [],
      "name": "owner",
      "outputs": [
        {
          "internalType": "address",
          "name": "",
          "type": "address"
        }
      ],
      "payable": false,
      "stateMutability": "view",
      "type": "function"
    },
    {
      "constant": false,
      "inputs": [],
      "name": "pause",
      "outputs": [],
      "payable": false,
      "stateMutability": "nonpayable",
      "type": "function"
    },
    {
      "constant": true,
      "inputs": [],
      "name": "paused",
      "outputs": [
        {
          "internalType": "bool",
          "name": "",
          "type": "bool"
        }
      ],
      "payable": false,
      "stateMutability": "view",
      "type": "function"
    },
    {
      "constant": true,
      "inputs": [],
      "name": "pool",
      "outputs": [
        {
          "internalType": "address",
          "name": "",
          "type": "address"
        }
      ],
      "payable": false,
      "stateMutability": "view",
      "type": "function"
    },
    {
      "constant": false,
      "inputs": [
        {
          "internalType": "address",
          "name": "account",
          "type": "address"
        }
      ],
      "name": "removeWhitelisted",
      "outputs": [],
      "payable": false,
      "stateMutability": "nonpayable",
      "type": "function"
    },
    {
      "constant": false,
      "inputs": [],
      "name": "renounceOwnership",
      "outputs": [],
      "payable": false,
      "stateMutability": "nonpayable",
      "type": "function"
    },
    {
      "constant": false,
      "inputs": [],
      "name": "renouncePauser",
      "outputs": [],
      "payable": false,
      "stateMutability": "nonpayable",
      "type": "function"
    },
    {
      "constant": false,
      "inputs": [],
      "name": "renounceWhitelistAdmin",
      "outputs": [],
      "payable": false,
      "stateMutability": "nonpayable",
      "type": "function"
    },
    {
      "constant": false,
      "inputs": [],
      "name": "renounceWhitelisted",
      "outputs": [],
      "payable": false,
      "stateMutability": "nonpayable",
      "type": "function"
    },
    {
      "constant": false,
      "inputs": [
        {
          "internalType": "address",
          "name": "_pool",
          "type": "address"
        }
      ],
      "name": "setPool",
      "outputs": [],
      "payable": false,
      "stateMutability": "nonpayable",
      "type": "function"
    },
    {
      "constant": false,
      "inputs": [
        {
          "internalType": "address",
          "name": "newOwner",
          "type": "address"
        }
      ],
      "name": "transferOwnership",
      "outputs": [],
      "payable": false,
      "stateMutability": "nonpayable",
      "type": "function"
    },
    {
      "constant": false,
      "inputs": [],
      "name": "unpause",
      "outputs": [],
      "payable": false,
      "stateMutability": "nonpayable",
      "type": "function"
    },
    {
      "constant": true,
      "inputs": [],
      "name": "whitelistEnabled",
      "outputs": [
        {
          "internalType": "bool",
          "name": "",
          "type": "bool"
        }
      ],
      "payable": false,
      "stateMutability": "view",
      "type": "function"
    },
    {
      "constant": false,
      "inputs": [],
      "name": "initialize",
      "outputs": [],
      "payable": false,
      "stateMutability": "nonpayable",
      "type": "function"
    },
    {
      "constant": false,
      "inputs": [
        {
          "internalType": "address",
          "name": "_pool",
          "type": "address"
        }
      ],
      "name": "initialize",
      "outputs": [],
      "payable": false,
      "stateMutability": "nonpayable",
      "type": "function"
    },
    {
      "constant": false,
      "inputs": [],
      "name": "enableWhitelist",
      "outputs": [],
      "payable": false,
      "stateMutability": "nonpayable",
      "type": "function"
    },
    {
      "constant": false,
      "inputs": [],
      "name": "disableWhitelist",
      "outputs": [],
      "payable": false,
      "stateMutability": "nonpayable",
      "type": "function"
    },
    {
      "constant": true,
      "inputs": [
        {
          "internalType": "enum IAccessModule.Operation",
          "name": "operation",
          "type": "uint8"
        },
        {
          "internalType": "address",
          "name": "sender",
          "type": "address"
        }
      ],
      "name": "isOperationAllowed",
      "outputs": [
        {
          "internalType": "bool",
          "name": "",
          "type": "bool"
        }
      ],
      "payable": false,
      "stateMutability": "view",
      "type": "function"
    }
  ],
  "bytecode": "0x6080604052611b64806100136000396000f3fe608060405234801561001057600080fd5b50600436106101ae5760003560e01c80637362d9c8116100ee578063bb5f747b11610097578063d6b0f48411610071578063d6b0f484146104c3578063d6cd9473146104cb578063f2fde38b146104d3578063ff62486614610506576101ae565b8063bb5f747b14610455578063c4d66de814610488578063cdfb2b4e146104bb576101ae565b80638456cb59116100c85780638456cb591461043d5780638da5cb5b146104455780638f32d59b1461044d576101ae565b80637362d9c8146103cf5780638129fc1c1461040257806382dc1ec41461040a576101ae565b806346fbf68e1161015b5780635c975abb116101355780635c975abb146103115780636ef8d66d14610319578063715018a61461032157806371dc760f14610329576101ae565b806346fbf68e146102ce5780634c5a628c1461030157806351fb012d14610309576101ae565b80633af32abf1161018c5780633af32abf1461024c5780633f4ba83a146102935780634437152a1461029b576101ae565b806310154bad146101b357806316f0115b146101e8578063291d954914610219575b600080fd5b6101e6600480360360208110156101c957600080fd5b503573ffffffffffffffffffffffffffffffffffffffff16610542565b005b6101f0610599565b6040805173ffffffffffffffffffffffffffffffffffffffff9092168252519081900360200190f35b6101e66004803603602081101561022f57600080fd5b503573ffffffffffffffffffffffffffffffffffffffff166105b5565b61027f6004803603602081101561026257600080fd5b503573ffffffffffffffffffffffffffffffffffffffff16610604565b604080519115158252519081900360200190f35b6101e661061e565b6101e6600480360360208110156102b157600080fd5b503573ffffffffffffffffffffffffffffffffffffffff1661071d565b61027f600480360360208110156102e457600080fd5b503573ffffffffffffffffffffffffffffffffffffffff16610841565b6101e6610854565b61027f610866565b61027f610870565b6101e6610879565b6101e6610889565b6101f06004803603602081101561033f57600080fd5b81019060208101813564010000000081111561035a57600080fd5b82018360208201111561036c57600080fd5b8035906020019184600183028401116401000000008311171561038e57600080fd5b91908080601f016020809104026020016040519081016040528093929190818152602001838380828437600092019190915250929550610951945050505050565b6101e6600480360360208110156103e557600080fd5b503573ffffffffffffffffffffffffffffffffffffffff16610bfb565b6101e6610c4a565b6101e66004803603602081101561042057600080fd5b503573ffffffffffffffffffffffffffffffffffffffff16610cfb565b6101e6610d4a565b6101f0610e1e565b61027f610e3a565b61027f6004803603602081101561046b57600080fd5b503573ffffffffffffffffffffffffffffffffffffffff16610e7a565b6101e66004803603602081101561049e57600080fd5b503573ffffffffffffffffffffffffffffffffffffffff16610e8d565b6101e6610f59565b6101e6610fd8565b6101e6611054565b6101e6600480360360208110156104e957600080fd5b503573ffffffffffffffffffffffffffffffffffffffff16611064565b61027f6004803603604081101561051c57600080fd5b50803560ff16906020013573ffffffffffffffffffffffffffffffffffffffff166110c6565b61055261054d611132565b610e7a565b61058d5760405162461bcd60e51b8152600401808060200182810382526040815260200180611ace6040913960400191505060405180910390fd5b61059681611136565b50565b60665473ffffffffffffffffffffffffffffffffffffffff1681565b6105c061054d611132565b6105fb5760405162461bcd60e51b8152600401808060200182810382526040815260200180611ace6040913960400191505060405180910390fd5b6105968161118c565b60006106186101008363ffffffff6111e216565b92915050565b61062e610629611132565b610841565b6106695760405162461bcd60e51b81526004018080602001828103825260308152602001806119e56030913960400191505060405180910390fd5b609a5460ff166106c0576040805162461bcd60e51b815260206004820152601460248201527f5061757361626c653a206e6f7420706175736564000000000000000000000000604482015290519081900360640190fd5b609a805460ff191690557f5db9ee0a495bf2e6ff9c91a7834c1ba4fdd244a5e8aa4e537bd38aeae4b073aa6106f3611132565b6040805173ffffffffffffffffffffffffffffffffffffffff9092168252519081900360200190a1565b610725610e3a565b610776576040805162461bcd60e51b815260206004820181905260248201527f4f776e61626c653a2063616c6c6572206973206e6f7420746865206f776e6572604482015290519081900360640190fd5b73ffffffffffffffffffffffffffffffffffffffff81166107c85760405162461bcd60e51b8152600401808060200182810382526022815260200180611a3b6022913960400191505060405180910390fd5b6066805473ffffffffffffffffffffffffffffffffffffffff83167fffffffffffffffffffffffff0000000000000000000000000000000000000000909116811790915560408051918252517f5b36800c27524690807962bd42525a44e68b3f860e8f9e0204f27e777d2f46059181900360200190a150565b600061061860678363ffffffff6111e216565b61086461085f611132565b611263565b565b6101335460ff1681565b609a5460ff1690565b610864610884611132565b6112b8565b610891610e3a565b6108e2576040805162461bcd60e51b815260206004820181905260248201527f4f776e61626c653a2063616c6c6572206973206e6f7420746865206f776e6572604482015290519081900360640190fd5b60335460405160009173ffffffffffffffffffffffffffffffffffffffff16907f8be0079c531659141344cd1fd0a4f28419497f9722a3daafe3b4186f6b6457e0908390a3603380547fffffffffffffffffffffffff0000000000000000000000000000000000000000169055565b60665460009073ffffffffffffffffffffffffffffffffffffffff166109be576040805162461bcd60e51b815260206004820152600f60248201527f4d6f64756c653a206e6f20706f6f6c0000000000000000000000000000000000604482015290519081900360640190fd5b60665460405160206024820181815285516044840152855160009460609473ffffffffffffffffffffffffffffffffffffffff909116938893928392606401918501908083838b5b83811015610a1e578181015183820152602001610a06565b50505050905090810190601f168015610a4b5780820380516001836020036101000a031916815260200191505b50604080517fffffffffffffffffffffffffffffffffffffffffffffffffffffffffffffffe08184030181529181526020820180517bffffffffffffffffffffffffffffffffffffffffffffffffffffffff167f693ec85e00000000000000000000000000000000000000000000000000000000178152905182519295509350839250908083835b60208310610b1057805182527fffffffffffffffffffffffffffffffffffffffffffffffffffffffffffffffe09092019160209182019101610ad3565b6001836020036101000a038019825116818451168082178552505050505050905001915050600060405180830381855afa9150503d8060008114610b70576040519150601f19603f3d011682016040523d82523d6000602084013e610b75565b606091505b509150915081610b86578060208201fd5b6000818060200190516020811015610b9d57600080fd5b5051905073ffffffffffffffffffffffffffffffffffffffff8116610bf35760405162461bcd60e51b8152600401808060200182810382526022815260200180611b0e6022913960400191505060405180910390fd5b949350505050565b610c0661054d611132565b610c415760405162461bcd60e51b8152600401808060200182810382526040815260200180611ace6040913960400191505060405180910390fd5b6105968161130d565b600054610100900460ff1680610c635750610c63611362565b80610c71575060005460ff16155b610cac5760405162461bcd60e51b815260040180806020018281038252602e815260200180611aa0602e913960400191505060405180910390fd5b600054610100900460ff16158015610cd7576000805460ff1961ff0019909116610100171660011790555b610ce7610ce2611132565b611368565b8015610596576000805461ff001916905550565b610d06610629611132565b610d415760405162461bcd60e51b81526004018080602001828103825260308152602001806119e56030913960400191505060405180910390fd5b6105968161147e565b610d55610629611132565b610d905760405162461bcd60e51b81526004018080602001828103825260308152602001806119e56030913960400191505060405180910390fd5b609a5460ff1615610de8576040805162461bcd60e51b815260206004820152601060248201527f5061757361626c653a2070617573656400000000000000000000000000000000604482015290519081900360640190fd5b609a805460ff191660011790557f62e78cea01bee320cd4e420270b5ea74000d11b0c9f74754ebdbfc544b05a2586106f3611132565b60335473ffffffffffffffffffffffffffffffffffffffff1690565b60335460009073ffffffffffffffffffffffffffffffffffffffff16610e5e611132565b73ffffffffffffffffffffffffffffffffffffffff1614905090565b600061061860cd8363ffffffff6111e216565b600054610100900460ff1680610ea65750610ea6611362565b80610eb4575060005460ff16155b610eef5760405162461bcd60e51b815260040180806020018281038252602e815260200180611aa0602e913960400191505060405180910390fd5b600054610100900460ff16158015610f1a576000805460ff1961ff0019909116610100171660011790555b610f23826114d3565b610f33610f2e611132565b611571565b610f43610f3e611132565b611626565b8015610f55576000805461ff00191690555b5050565b610f6461054d611132565b610f9f5760405162461bcd60e51b8152600401808060200182810382526040815260200180611ace6040913960400191505060405180910390fd5b610133805460ff191660011790556040517fe5e5846f783279948f6ec5faad38318cde86fe5be7ea845ede56d62f16c3743490600090a1565b610fe361054d611132565b61101e5760405162461bcd60e51b8152600401808060200182810382526040815260200180611ace6040913960400191505060405180910390fd5b610133805460ff191690556040517f212c6e1d3045c9581ef0adf2504dbb1d137f52f38162ccf77a16c69d14eba5c390600090a1565b61086461105f611132565b61118c565b61106c610e3a565b6110bd576040805162461bcd60e51b815260206004820181905260248201527f4f776e61626c653a2063616c6c6572206973206e6f7420746865206f776e6572604482015290519081900360640190fd5b610596816116bc565b60006110d0610870565b156110dd57506000610618565b6101335460ff166110f057506001610618565b60078360098111156110fe57fe5b14806111155750600983600981111561111357fe5b145b1561112257506001610618565b61112b82610604565b9392505050565b3390565b6111486101008263ffffffff61179c16565b60405173ffffffffffffffffffffffffffffffffffffffff8216907fee1504a83b6d4a361f4c1dc78ab59bfa30d6a3b6612c403e86bb01ef2984295f90600090a250565b61119e6101008263ffffffff61182a16565b60405173ffffffffffffffffffffffffffffffffffffffff8216907f270d9b30cf5b0793bbfd54c9d5b94aeb49462b8148399000265144a8722da6b690600090a250565b600073ffffffffffffffffffffffffffffffffffffffff82166112365760405162461bcd60e51b8152600401808060200182810382526022815260200180611a7e6022913960400191505060405180910390fd5b5073ffffffffffffffffffffffffffffffffffffffff166000908152602091909152604090205460ff1690565b61127460cd8263ffffffff61182a16565b60405173ffffffffffffffffffffffffffffffffffffffff8216907f0a8eb35e5ca14b3d6f28e4abf2f128dbab231a58b56e89beb5d636115001e16590600090a250565b6112c960678263ffffffff61182a16565b60405173ffffffffffffffffffffffffffffffffffffffff8216907fcd265ebaf09df2871cc7bd4133404a235ba12eff2041bb89d9c714a2621c7c7e90600090a250565b61131e60cd8263ffffffff61179c16565b60405173ffffffffffffffffffffffffffffffffffffffff8216907f22380c05984257a1cb900161c713dd71d39e74820f1aea43bd3f1bdd2096129990600090a250565b303b1590565b600054610100900460ff16806113815750611381611362565b8061138f575060005460ff16155b6113ca5760405162461bcd60e51b815260040180806020018281038252602e815260200180611aa0602e913960400191505060405180910390fd5b600054610100900460ff161580156113f5576000805460ff1961ff0019909116610100171660011790555b603380547fffffffffffffffffffffffff00000000000000000000000000000000000000001673ffffffffffffffffffffffffffffffffffffffff84811691909117918290556040519116906000907f8be0079c531659141344cd1fd0a4f28419497f9722a3daafe3b4186f6b6457e0908290a38015610f55576000805461ff00191690555050565b61148f60678263ffffffff61179c16565b60405173ffffffffffffffffffffffffffffffffffffffff8216907f6719d08c1888103bea251a4ed56406bd0c3e69723c8a1686e017e7bbe159b6f890600090a250565b600054610100900460ff16806114ec57506114ec611362565b806114fa575060005460ff16155b6115355760405162461bcd60e51b815260040180806020018281038252602e815260200180611aa0602e913960400191505060405180910390fd5b600054610100900460ff16158015611560576000805460ff1961ff0019909116610100171660011790555b611568610c4a565b610f438261071d565b600054610100900460ff168061158a575061158a611362565b80611598575060005460ff16155b6115d35760405162461bcd60e51b815260040180806020018281038252602e815260200180611aa0602e913960400191505060405180910390fd5b600054610100900460ff161580156115fe576000805460ff1961ff0019909116610100171660011790555b6116078261189e565b609a805460ff191690558015610f55576000805461ff00191690555050565b600054610100900460ff168061163f575061163f611362565b8061164d575060005460ff16155b6116885760405162461bcd60e51b815260040180806020018281038252602e815260200180611aa0602e913960400191505060405180910390fd5b600054610100900460ff161580156116b3576000805460ff1961ff0019909116610100171660011790555b610f4382611941565b73ffffffffffffffffffffffffffffffffffffffff811661170e5760405162461bcd60e51b8152600401808060200182810382526026815260200180611a156026913960400191505060405180910390fd5b60335460405173ffffffffffffffffffffffffffffffffffffffff8084169216907f8be0079c531659141344cd1fd0a4f28419497f9722a3daafe3b4186f6b6457e090600090a3603380547fffffffffffffffffffffffff00000000000000000000000000000000000000001673ffffffffffffffffffffffffffffffffffffffff92909216919091179055565b6117a682826111e2565b156117f8576040805162461bcd60e51b815260206004820152601f60248201527f526f6c65733a206163636f756e7420616c72656164792068617320726f6c6500604482015290519081900360640190fd5b73ffffffffffffffffffffffffffffffffffffffff16600090815260209190915260409020805460ff19166001179055565b61183482826111e2565b61186f5760405162461bcd60e51b8152600401808060200182810382526021815260200180611a5d6021913960400191505060405180910390fd5b73ffffffffffffffffffffffffffffffffffffffff16600090815260209190915260409020805460ff19169055565b600054610100900460ff16806118b757506118b7611362565b806118c5575060005460ff16155b6119005760405162461bcd60e51b815260040180806020018281038252602e815260200180611aa0602e913960400191505060405180910390fd5b600054610100900460ff1615801561192b576000805460ff1961ff0019909116610100171660011790555b61193482610841565b610f4357610f438261147e565b600054610100900460ff168061195a575061195a611362565b80611968575060005460ff16155b6119a35760405162461bcd60e51b815260040180806020018281038252602e815260200180611aa0602e913960400191505060405180910390fd5b600054610100900460ff161580156119ce576000805460ff1961ff0019909116610100171660011790555b6119d782610e7a565b610f4357610f438261130d56fe506175736572526f6c653a2063616c6c657220646f6573206e6f742068617665207468652050617573657220726f6c654f776e61626c653a206e6577206f776e657220697320746865207a65726f20616464726573734d6f64756c653a20706f6f6c20616464726573732063616e2774206265207a65726f526f6c65733a206163636f756e7420646f6573206e6f74206861766520726f6c65526f6c65733a206163636f756e7420697320746865207a65726f2061646472657373436f6e747261637420696e7374616e63652068617320616c7265616479206265656e20696e697469616c697a656457686974656c69737441646d696e526f6c653a2063616c6c657220646f6573206e6f742068617665207468652057686974656c69737441646d696e20726f6c654d6f64756c653a20726571756573746564206d6f64756c65206e6f7420666f756e64a265627a7a723158204a9dac4c296fd02eec5b6dc5e79c919c1d67f99413db4770a8840c56d20f57a764736f6c63430005110032",
  "source": "pragma solidity ^0.5.12;\n\nimport \"@openzeppelin/contracts-ethereum-package/contracts/lifecycle/Pausable.sol\";\nimport \"@openzeppelin/contracts-ethereum-package/contracts/access/roles/WhitelistedRole.sol\";\nimport \"../../common/Module.sol\";\nimport \"../../interfaces/access/IAccessModule.sol\";\n\ncontract AccessModule is Module, IAccessModule, Pausable, WhitelistedRole {\n    event WhitelistEnabled();\n    event WhitelistDisabled();\n\n    bool public whitelistEnabled;\n\n    function initialize(address _pool) public initializer {\n        Module.initialize(_pool);\n        Pausable.initialize(_msgSender());\n        WhitelistedRole.initialize(_msgSender());\n        // enableWhitelist(); //whitelist is disabled by default for testnet, will be enabled by default for mainnet\n    }\n\n    function enableWhitelist() public onlyWhitelistAdmin {\n        whitelistEnabled = true;\n        emit WhitelistEnabled();\n    }\n    \n    function disableWhitelist() public onlyWhitelistAdmin {\n        whitelistEnabled = false;\n        emit WhitelistDisabled();\n    }\n\n    function isOperationAllowed(Operation operation, address sender) public view returns(bool) {\n        if (paused()) return false;\n        if (!whitelistEnabled) {\n            return true;\n        } else if (\n            // This operations are allowed even if sender is not whitelisted\n            (operation == Operation.Repay) ||               // allowed to prevent unnecessary defaults and interest payments\n            (operation == Operation.WithdrawUnlockedPledge) // allowed because repay() calls withdrawUnlockedPledge() after full repay\n        ) {\n            return true;   \n        } else {\n            return isWhitelisted(sender);\n        }\n    }\n}\n",
  "sourcePath": "/Users/ilya/Documents/Akropolis/dca-strategy-bot/contracts/modules/access/AccessModule.sol",
  "compiler": {
    "name": "solc",
    "version": "0.5.17+commit.d19bba13.Emscripten.clang"
  },
  "schemaVersion": "3.2.3",
  "updatedAt": "2020-08-09T16:13:08.793Z",
  "devdoc": {
    "methods": {
      "isOwner()": {
        "details": "Returns true if the caller is the current owner."
      },
      "owner()": {
        "details": "Returns the address of the current owner."
      },
      "pause()": {
        "details": "Called by a pauser to pause, triggers stopped state."
      },
      "paused()": {
        "details": "Returns true if the contract is paused, and false otherwise."
      },
      "renounceOwnership()": {
        "details": "Leaves the contract without owner. It will not be possible to call `onlyOwner` functions anymore. Can only be called by the current owner.     * > Note: Renouncing ownership will leave the contract without an owner, thereby removing any functionality that is only available to the owner."
      },
      "transferOwnership(address)": {
        "details": "Transfers ownership of the contract to a new account (`newOwner`). Can only be called by the current owner."
      },
      "unpause()": {
        "details": "Called by a pauser to unpause, returns to normal state."
      }
    }
  },
  "userdoc": {
    "methods": {}
  }
}