{
  "contractName": "CompoundProtocol_DAI",
  "abi": [
    {
      "anonymous": false,
      "inputs": [
        {
          "indexed": true,
          "internalType": "address",
          "name": "account",
          "type": "address"
        }
      ],
      "name": "DefiOperatorAdded",
      "type": "event"
    },
    {
      "anonymous": false,
      "inputs": [
        {
          "indexed": true,
          "internalType": "address",
          "name": "account",
          "type": "address"
        }
      ],
      "name": "DefiOperatorRemoved",
      "type": "event"
    },
    {
      "anonymous": false,
      "inputs": [
        {
          "indexed": true,
          "internalType": "address",
          "name": "previousOwner",
          "type": "address"
        },
        {
          "indexed": true,
          "internalType": "address",
          "name": "newOwner",
          "type": "address"
        }
      ],
      "name": "OwnershipTransferred",
      "type": "event"
    },
    {
      "anonymous": false,
      "inputs": [
        {
          "indexed": false,
          "internalType": "address",
          "name": "newPool",
          "type": "address"
        }
      ],
      "name": "PoolAddressChanged",
      "type": "event"
    },
    {
      "anonymous": false,
      "inputs": [
        {
          "indexed": true,
          "internalType": "address",
          "name": "token",
          "type": "address"
        },
        {
          "indexed": false,
          "internalType": "uint256",
          "name": "amount",
          "type": "uint256"
        }
      ],
      "name": "RewardTokenClaimed",
      "type": "event"
    },
    {
      "constant": false,
      "inputs": [
        {
          "internalType": "address",
          "name": "account",
          "type": "address"
        }
      ],
      "name": "addDefiOperator",
      "outputs": [],
      "payable": false,
      "stateMutability": "nonpayable",
      "type": "function"
    },
    {
      "constant": false,
      "inputs": [
        {
          "internalType": "address",
          "name": "token",
          "type": "address"
        }
      ],
      "name": "balanceOf",
      "outputs": [
        {
          "internalType": "uint256",
          "name": "",
          "type": "uint256"
        }
      ],
      "payable": false,
      "stateMutability": "nonpayable",
      "type": "function"
    },
    {
      "constant": false,
      "inputs": [],
      "name": "balanceOfAll",
      "outputs": [
        {
          "internalType": "uint256[]",
          "name": "",
          "type": "uint256[]"
        }
      ],
      "payable": false,
      "stateMutability": "nonpayable",
      "type": "function"
    },
    {
      "constant": true,
      "inputs": [
        {
          "internalType": "address",
          "name": "token",
          "type": "address"
        }
      ],
      "name": "canSwapToToken",
      "outputs": [
        {
          "internalType": "bool",
          "name": "",
          "type": "bool"
        }
      ],
      "payable": false,
      "stateMutability": "view",
      "type": "function"
    },
    {
      "constant": false,
      "inputs": [],
      "name": "claimRewards",
      "outputs": [
        {
          "internalType": "address[]",
          "name": "tokens",
          "type": "address[]"
        },
        {
          "internalType": "uint256[]",
          "name": "amounts",
          "type": "uint256[]"
        }
      ],
      "payable": false,
      "stateMutability": "nonpayable",
      "type": "function"
    },
    {
      "constant": true,
      "inputs": [
        {
          "internalType": "string",
          "name": "module",
          "type": "string"
        }
      ],
      "name": "getModuleAddress",
      "outputs": [
        {
          "internalType": "address",
          "name": "",
          "type": "address"
        }
      ],
      "payable": false,
      "stateMutability": "view",
      "type": "function"
    },
    {
      "constant": false,
      "inputs": [
        {
          "internalType": "address",
          "name": "token",
          "type": "address"
        },
        {
          "internalType": "uint256",
          "name": "amount",
          "type": "uint256"
        }
      ],
      "name": "handleDeposit",
      "outputs": [],
      "payable": false,
      "stateMutability": "nonpayable",
      "type": "function"
    },
    {
      "constant": false,
      "inputs": [
        {
          "internalType": "address[]",
          "name": "tokens",
          "type": "address[]"
        },
        {
          "internalType": "uint256[]",
          "name": "amounts",
          "type": "uint256[]"
        }
      ],
      "name": "handleDeposit",
      "outputs": [],
      "payable": false,
      "stateMutability": "nonpayable",
      "type": "function"
    },
    {
      "constant": true,
      "inputs": [
        {
          "internalType": "address",
          "name": "account",
          "type": "address"
        }
      ],
      "name": "isDefiOperator",
      "outputs": [
        {
          "internalType": "bool",
          "name": "",
          "type": "bool"
        }
      ],
      "payable": false,
      "stateMutability": "view",
      "type": "function"
    },
    {
      "constant": true,
      "inputs": [],
      "name": "isOwner",
      "outputs": [
        {
          "internalType": "bool",
          "name": "",
          "type": "bool"
        }
      ],
      "payable": false,
      "stateMutability": "view",
      "type": "function"
    },
    {
      "constant": true,
      "inputs": [
        {
          "internalType": "address",
          "name": "token",
          "type": "address"
        }
      ],
      "name": "isSupportedRewardToken",
      "outputs": [
        {
          "internalType": "bool",
          "name": "",
          "type": "bool"
        }
      ],
      "payable": false,
      "stateMutability": "view",
      "type": "function"
    },
    {
      "constant": false,
      "inputs": [],
      "name": "normalizedBalance",
      "outputs": [
        {
          "internalType": "uint256",
          "name": "",
          "type": "uint256"
        }
      ],
      "payable": false,
      "stateMutability": "nonpayable",
      "type": "function"
    },
    {
      "constant": true,
      "inputs": [],
      "name": "owner",
      "outputs": [
        {
          "internalType": "address",
          "name": "",
          "type": "address"
        }
      ],
      "payable": false,
      "stateMutability": "view",
      "type": "function"
    },
    {
      "constant": true,
      "inputs": [],
      "name": "pool",
      "outputs": [
        {
          "internalType": "address",
          "name": "",
          "type": "address"
        }
      ],
      "payable": false,
      "stateMutability": "view",
      "type": "function"
    },
    {
      "constant": false,
      "inputs": [],
      "name": "renounceDefiOperator",
      "outputs": [],
      "payable": false,
      "stateMutability": "nonpayable",
      "type": "function"
    },
    {
      "constant": false,
      "inputs": [],
      "name": "renounceOwnership",
      "outputs": [],
      "payable": false,
      "stateMutability": "nonpayable",
      "type": "function"
    },
    {
      "constant": false,
      "inputs": [
        {
          "internalType": "address",
          "name": "_pool",
          "type": "address"
        }
      ],
      "name": "setPool",
      "outputs": [],
      "payable": false,
      "stateMutability": "nonpayable",
      "type": "function"
    },
    {
      "constant": true,
      "inputs": [],
      "name": "supportedRewardTokens",
      "outputs": [
        {
          "internalType": "address[]",
          "name": "",
          "type": "address[]"
        }
      ],
      "payable": false,
      "stateMutability": "view",
      "type": "function"
    },
    {
      "constant": true,
      "inputs": [],
      "name": "supportedTokens",
      "outputs": [
        {
          "internalType": "address[]",
          "name": "",
          "type": "address[]"
        }
      ],
      "payable": false,
      "stateMutability": "view",
      "type": "function"
    },
    {
      "constant": true,
      "inputs": [],
      "name": "supportedTokensCount",
      "outputs": [
        {
          "internalType": "uint256",
          "name": "",
          "type": "uint256"
        }
      ],
      "payable": false,
      "stateMutability": "view",
      "type": "function"
    },
    {
      "constant": false,
      "inputs": [
        {
          "internalType": "address",
          "name": "newOwner",
          "type": "address"
        }
      ],
      "name": "transferOwnership",
      "outputs": [],
      "payable": false,
      "stateMutability": "nonpayable",
      "type": "function"
    },
    {
      "constant": false,
      "inputs": [
        {
          "internalType": "address",
          "name": "beneficiary",
          "type": "address"
        },
        {
          "internalType": "uint256[]",
          "name": "amounts",
          "type": "uint256[]"
        }
      ],
      "name": "withdraw",
      "outputs": [],
      "payable": false,
      "stateMutability": "nonpayable",
      "type": "function"
    },
    {
      "constant": false,
      "inputs": [
        {
          "internalType": "address",
          "name": "beneficiary",
          "type": "address"
        },
        {
          "internalType": "address",
          "name": "token",
          "type": "address"
        },
        {
          "internalType": "uint256",
          "name": "amount",
          "type": "uint256"
        }
      ],
      "name": "withdraw",
      "outputs": [],
      "payable": false,
      "stateMutability": "nonpayable",
      "type": "function"
    },
    {
      "constant": false,
      "inputs": [
        {
          "internalType": "address",
          "name": "token",
          "type": "address"
        },
        {
          "internalType": "address",
          "name": "user",
          "type": "address"
        },
        {
          "internalType": "uint256",
          "name": "amount",
          "type": "uint256"
        }
      ],
      "name": "withdrawReward",
      "outputs": [],
      "payable": false,
      "stateMutability": "nonpayable",
      "type": "function"
    },
    {
      "constant": false,
      "inputs": [],
      "name": "initialize",
      "outputs": [],
      "payable": false,
      "stateMutability": "nonpayable",
      "type": "function"
    },
    {
      "constant": false,
      "inputs": [
        {
          "internalType": "address",
          "name": "_pool",
          "type": "address"
        }
      ],
      "name": "initialize",
      "outputs": [],
      "payable": false,
      "stateMutability": "nonpayable",
      "type": "function"
    },
    {
      "constant": false,
      "inputs": [
        {
          "internalType": "address",
          "name": "_pool",
          "type": "address"
        },
        {
          "internalType": "address",
          "name": "_token",
          "type": "address"
        },
        {
          "internalType": "address",
          "name": "_cToken",
          "type": "address"
        },
        {
          "internalType": "address",
          "name": "_comptroller",
          "type": "address"
        }
      ],
      "name": "initialize",
      "outputs": [],
      "payable": false,
      "stateMutability": "nonpayable",
      "type": "function"
    }
  ],
  "bytecode": "0x6080604052612b08806100136000396000f3fe608060405234801561001057600080fd5b50600436106101b95760003560e01c80638da5cb5b116100f9578063d9180a0011610097578063f2fde38b11610071578063f2fde38b14610721578063f64f329e14610747578063f7384d501461076d578063f8c8765e14610793576101b9565b8063d9180a00146106db578063d9caed12146106e3578063e49fba6b14610719576101b9565b8063b002249d116100d3578063b002249d14610651578063b9c3da0f14610659578063c4d66de81461068f578063c662ff24146106b5576101b9565b80638da5cb5b146106075780638f32d59b1461060f5780639b8617801461062b576101b9565b8063628cb95e11610166578063715018a611610140578063715018a61461049e57806371dc760f146104a65780638129fc1c1461054c5780638293744b14610554576101b9565b8063628cb95e146103375780636c6874d91461035157806370a0823114610478576101b9565b806343cdf1f71161019757806343cdf1f7146102db5780634437152a146102e557806359e8dc971461030b576101b9565b806316f0115b146101be578063208e509f146101e2578063372500ab1461023a575b600080fd5b6101c66107d1565b604080516001600160a01b039092168252519081900360200190f35b6101ea6107e0565b60408051602080825283518183015283519192839290830191858101910280838360005b8381101561022657818101518382015260200161020e565b505050509050019250505060405180910390f35b610242610838565b604051808060200180602001838103835285818151815260200191508051906020019060200280838360005b8381101561028657818101518382015260200161026e565b50505050905001838103825284818151815260200191508051906020019060200280838360005b838110156102c55781810151838201526020016102ad565b5050505090500194505050505060405180910390f35b6102e3610af0565b005b6102e3600480360360208110156102fb57600080fd5b50356001600160a01b0316610b02565b6102e36004803603604081101561032157600080fd5b506001600160a01b038135169060200135610c0c565b61033f610d35565b60408051918252519081900360200190f35b6102e36004803603604081101561036757600080fd5b81019060208101813564010000000081111561038257600080fd5b82018360208201111561039457600080fd5b803590602001918460208302840111640100000000831117156103b657600080fd5b919080806020026020016040519081016040528093929190818152602001838360200280828437600092019190915250929594936020810193503591505064010000000081111561040657600080fd5b82018360208201111561041857600080fd5b8035906020019184602083028401116401000000008311171561043a57600080fd5b919080806020026020016040519081016040528093929190818152602001838360200280828437600092019190915250929550610d5b945050505050565b61033f6004803603602081101561048e57600080fd5b50356001600160a01b0316610e24565b6102e3610ede565b6101c6600480360360208110156104bc57600080fd5b8101906020810181356401000000008111156104d757600080fd5b8201836020820111156104e957600080fd5b8035906020019184600183028401116401000000008311171561050b57600080fd5b91908080601f016020809104026020016040519081016040528093929190818152602001838380828437600092019190915250929550610f99945050505050565b6102e361121c565b6102e36004803603604081101561056a57600080fd5b6001600160a01b03823516919081019060408101602082013564010000000081111561059557600080fd5b8201836020820111156105a757600080fd5b803590602001918460208302840111640100000000831117156105c957600080fd5b9190808060200260200160405190810160405280939291908181526020018383602002808284376000920191909152509295506112ce945050505050565b6101c6611417565b610617611426565b604080519115158252519081900360200190f35b6106176004803603602081101561064157600080fd5b50356001600160a01b031661144c565b6101ea611460565b6102e36004803603606081101561066f57600080fd5b506001600160a01b038135811691602081013590911690604001356114bc565b6102e3600480360360208110156106a557600080fd5b50356001600160a01b03166115b7565b6102e3600480360360208110156106cb57600080fd5b50356001600160a01b0316611672565b6101ea6116c1565b6102e3600480360360608110156106f957600080fd5b506001600160a01b03813581169160208101359091169060400135611700565b61033f611842565b6102e36004803603602081101561073757600080fd5b50356001600160a01b0316611847565b6106176004803603602081101561075d57600080fd5b50356001600160a01b03166118a9565b6106176004803603602081101561078357600080fd5b50356001600160a01b03166118c2565b6102e3600480360360808110156107a957600080fd5b506001600160a01b0381358116916020810135821691604082013581169160600135166118d6565b6066546001600160a01b031681565b604080516001808252818301909252606091829190602080830190803883390190505060695490915061081b906001600160a01b0316610e24565b8160008151811061082857fe5b6020908102919091010152905090565b60608061084b610846611988565b6118a9565b6108865760405162461bcd60e51b815260040180806020018281038252603c815260200180612a38603c913960400191505060405180910390fd5b61088e61198c565b60606108986116c1565b9050606081516040519080825280602002602001820160405280156108c7578160200160208202803883390190505b5090506000805b83518110156109e95760008482815181106108e557fe5b602002602001015190506000816001600160a01b03166370a08231306040518263ffffffff1660e01b815260040180826001600160a01b03166001600160a01b0316815260200191505060206040518083038186803b15801561094757600080fd5b505afa15801561095b573d6000803e3d6000fd5b505050506040513d602081101561097157600080fd5b50516001600160a01b0383166000908152606860205260409020549091508111156109df576001600160a01b0382166000908152606860205260409020546001909401936109c690829063ffffffff611a0516565b8584815181106109d257fe5b6020026020010181815250505b50506001016108ce565b5080604051908082528060200260200182016040528015610a14578160200160208202803883390190505b50945080604051908082528060200260200182016040528015610a41578160200160208202803883390190505b5093506000805b8451811015610ae7576000848281518110610a5f57fe5b60200260200101511115610adf57848181518110610a7957fe5b6020026020010151878381518110610a8d57fe5b60200260200101906001600160a01b031690816001600160a01b031681525050838181518110610ab957fe5b6020026020010151868381518110610acd57fe5b60209081029190910101526001909101905b600101610a48565b50505050509091565b610b00610afb611988565b611a4e565b565b610b0a611426565b610b5b576040805162461bcd60e51b815260206004820181905260248201527f4f776e61626c653a2063616c6c6572206973206e6f7420746865206f776e6572604482015290519081900360640190fd5b6001600160a01b038116610ba05760405162461bcd60e51b81526004018080602001828103825260228152602001806129046022913960400191505060405180910390fd5b606680546001600160a01b0383167fffffffffffffffffffffffff0000000000000000000000000000000000000000909116811790915560408051918252517f5b36800c27524690807962bd42525a44e68b3f860e8f9e0204f27e777d2f46059181900360200190a150565b610c17610846611988565b610c525760405162461bcd60e51b815260040180806020018281038252603c815260200180612a38603c913960400191505060405180910390fd5b6069546001600160a01b03838116911614610c9e5760405162461bcd60e51b81526004018080602001828103825260258152602001806128b96025913960400191505060405180910390fd5b606a54604080517fa0712d680000000000000000000000000000000000000000000000000000000081526004810184905290516001600160a01b039092169163a0712d68916024808201926020929091908290030181600087803b158015610d0557600080fd5b505af1158015610d19573d6000803e3d6000fd5b505050506040513d6020811015610d2f57600080fd5b50505050565b606954600090610d56906001600160a01b0316610d5181610e24565b611a96565b905090565b610d66610846611988565b610da15760405162461bcd60e51b815260040180806020018281038252603c815260200180612a38603c913960400191505060405180910390fd5b81516001148015610db3575080516001145b610dee5760405162461bcd60e51b81526004018080602001828103825260328152602001806129266032913960400191505060405180910390fd5b610e2082600081518110610dfe57fe5b602002602001015182600081518110610e1357fe5b6020026020010151610c0c565b5050565b6069546000906001600160a01b03838116911614610e4457506000610ed9565b606a54604080517f3af9e66900000000000000000000000000000000000000000000000000000000815230600482015290516001600160a01b0390921691633af9e669916024808201926020929091908290030181600087803b158015610eaa57600080fd5b505af1158015610ebe573d6000803e3d6000fd5b505050506040513d6020811015610ed457600080fd5b505190505b919050565b610ee6611426565b610f37576040805162461bcd60e51b815260206004820181905260248201527f4f776e61626c653a2063616c6c6572206973206e6f7420746865206f776e6572604482015290519081900360640190fd5b6033546040516000916001600160a01b0316907f8be0079c531659141344cd1fd0a4f28419497f9722a3daafe3b4186f6b6457e0908390a3603380547fffffffffffffffffffffffff0000000000000000000000000000000000000000169055565b6066546000906001600160a01b0316610ff9576040805162461bcd60e51b815260206004820152600f60248201527f4d6f64756c653a206e6f20706f6f6c0000000000000000000000000000000000604482015290519081900360640190fd5b6066546040516020602482018181528551604484015285516000946060946001600160a01b03909116938893928392606401918501908083838b5b8381101561104c578181015183820152602001611034565b50505050905090810190601f1680156110795780820380516001836020036101000a031916815260200191505b50604080517fffffffffffffffffffffffffffffffffffffffffffffffffffffffffffffffe08184030181529181526020820180517bffffffffffffffffffffffffffffffffffffffffffffffffffffffff167f693ec85e00000000000000000000000000000000000000000000000000000000178152905182519295509350839250908083835b6020831061113e57805182527fffffffffffffffffffffffffffffffffffffffffffffffffffffffffffffffe09092019160209182019101611101565b6001836020036101000a038019825116818451168082178552505050505050905001915050600060405180830381855afa9150503d806000811461119e576040519150601f19603f3d011682016040523d82523d6000602084013e6111a3565b606091505b5091509150816111b4578060208201fd5b60008180602001905160208110156111cb57600080fd5b505190506001600160a01b0381166112145760405162461bcd60e51b8152600401808060200182810382526022815260200180612a166022913960400191505060405180910390fd5b949350505050565b600054610100900460ff16806112355750611235611bb7565b80611243575060005460ff16155b61127e5760405162461bcd60e51b815260040180806020018281038252602e8152602001806129e8602e913960400191505060405180910390fd5b600054610100900460ff161580156112a9576000805460ff1961ff0019909116610100171660011790555b6112b96112b4611988565b611bbd565b80156112cb576000805461ff00191690555b50565b6112d9610846611988565b6113145760405162461bcd60e51b815260040180806020018281038252603c815260200180612a38603c913960400191505060405180910390fd5b80516001146113545760405162461bcd60e51b815260040180806020018281038252602c815260200180612979602c913960400191505060405180910390fd5b606a5481516001600160a01b039091169063852a12e390839060009061137657fe5b60200260200101516040518263ffffffff1660e01b815260040180828152602001915050602060405180830381600087803b1580156113b457600080fd5b505af11580156113c8573d6000803e3d6000fd5b505050506040513d60208110156113de57600080fd5b50508051610e2090839083906000906113f357fe5b60209081029190910101516069546001600160a01b0316919063ffffffff611cc616565b6033546001600160a01b031690565b6033546000906001600160a01b031661143d611988565b6001600160a01b031614905090565b6069546001600160a01b0390811691161490565b60408051600180825281830190925260609182919060208083019080388339505060695482519293506001600160a01b03169183915060009061149f57fe5b6001600160a01b0390921660209283029190910190910152905090565b6114c7610846611988565b6115025760405162461bcd60e51b815260040180806020018281038252603c815260200180612a38603c913960400191505060405180910390fd5b61150b836118c2565b61155c576040805162461bcd60e51b815260206004820152601e60248201527f50726f746f636f6c426173653a206e6f742072657761726420746f6b656e0000604482015290519081900360640190fd5b6001600160a01b038316600090815260686020526040902054611585908263ffffffff611a0516565b6001600160a01b0384166000818152606860205260409020919091556115b290838363ffffffff611cc616565b505050565b600054610100900460ff16806115d057506115d0611bb7565b806115de575060005460ff16155b6116195760405162461bcd60e51b815260040180806020018281038252602e8152602001806129e8602e913960400191505060405180910390fd5b600054610100900460ff16158015611644576000805460ff1961ff0019909116610100171660011790555b61164d82611d46565b61165d611658611988565b611de4565b8015610e20576000805461ff00191690555050565b61167d610846611988565b6116b85760405162461bcd60e51b815260040180806020018281038252603c815260200180612a38603c913960400191505060405180910390fd5b6112cb81611e83565b604080516001808252818301909252606091829190602080830190803883395050606c5482519293506001600160a01b03169183915060009061149f57fe5b61170b610846611988565b6117465760405162461bcd60e51b815260040180806020018281038252603c815260200180612a38603c913960400191505060405180910390fd5b6069546001600160a01b038381169116146117925760405162461bcd60e51b81526004018080602001828103825260258152602001806128b96025913960400191505060405180910390fd5b606a54604080517f852a12e30000000000000000000000000000000000000000000000000000000081526004810184905290516001600160a01b039092169163852a12e3916024808201926020929091908290030181600087803b1580156117f957600080fd5b505af115801561180d573d6000803e3d6000fd5b505050506040513d602081101561182357600080fd5b50506069546115b2906001600160a01b0316848363ffffffff611cc616565b600190565b61184f611426565b6118a0576040805162461bcd60e51b815260206004820181905260248201527f4f776e61626c653a2063616c6c6572206973206e6f7420746865206f776e6572604482015290519081900360640190fd5b6112cb81611ecb565b60006118bc60678363ffffffff611f8416565b92915050565b606c546001600160a01b0390811691161490565b600054610100900460ff16806118ef57506118ef611bb7565b806118fd575060005460ff16155b6119385760405162461bcd60e51b815260040180806020018281038252602e8152602001806129e8602e913960400191505060405180910390fd5b600054610100900460ff16158015611963576000805460ff1961ff0019909116610100171660011790555b61196f85858585611feb565b8015611981576000805461ff00191690555b5050505050565b3390565b606b54604080517fe9af029200000000000000000000000000000000000000000000000000000000815230600482015290516001600160a01b039092169163e9af02929160248082019260009290919082900301818387803b1580156119f157600080fd5b505af1158015610d2f573d6000803e3d6000fd5b6000611a4783836040518060400160405280601e81526020017f536166654d6174683a207375627472616374696f6e206f766572666c6f7700008152506122d0565b9392505050565b611a5f60678263ffffffff61236716565b6040516001600160a01b038216907f626bf7c6846fdc6e3f94a7c861b91118b5c0506bc3dc892b70f7d42bd619118790600090a250565b60695460009074010000000000000000000000000000000000000000900460ff1660121415611ac65750806118bc565b60695460127401000000000000000000000000000000000000000090910460ff161115611b4257606954611b3b90839074010000000000000000000000000000000000000000900460ff167fffffffffffffffffffffffffffffffffffffffffffffffffffffffffffffffee01600a0a6123ce565b90506118bc565b60695460127401000000000000000000000000000000000000000090910460ff1611156118bc57606954611b3b90839074010000000000000000000000000000000000000000900460ff167fffffffffffffffffffffffffffffffffffffffffffffffffffffffffffffffee01600a0a612410565b303b1590565b600054610100900460ff1680611bd65750611bd6611bb7565b80611be4575060005460ff16155b611c1f5760405162461bcd60e51b815260040180806020018281038252602e8152602001806129e8602e913960400191505060405180910390fd5b600054610100900460ff16158015611c4a576000805460ff1961ff0019909116610100171660011790555b603380547fffffffffffffffffffffffff0000000000000000000000000000000000000000166001600160a01b0384811691909117918290556040519116906000907f8be0079c531659141344cd1fd0a4f28419497f9722a3daafe3b4186f6b6457e0908290a38015610e20576000805461ff00191690555050565b604080516001600160a01b038416602482015260448082018490528251808303909101815260649091019091526020810180517bffffffffffffffffffffffffffffffffffffffffffffffffffffffff167fa9059cbb000000000000000000000000000000000000000000000000000000001790526115b2908490612469565b600054610100900460ff1680611d5f5750611d5f611bb7565b80611d6d575060005460ff16155b611da85760405162461bcd60e51b815260040180806020018281038252602e8152602001806129e8602e913960400191505060405180910390fd5b600054610100900460ff16158015611dd3576000805460ff1961ff0019909116610100171660011790555b611ddb61121c565b61165d82610b02565b600054610100900460ff1680611dfd5750611dfd611bb7565b80611e0b575060005460ff16155b611e465760405162461bcd60e51b815260040180806020018281038252602e8152602001806129e8602e913960400191505060405180910390fd5b600054610100900460ff16158015611e71576000805460ff1961ff0019909116610100171660011790555b611e7a826118a9565b61165d5761165d825b611e9460678263ffffffff61263f16565b6040516001600160a01b038216907fd2a1587d372a888fc8427f6f206845b51ddf76976073d43f23e512ad1f22483590600090a250565b6001600160a01b038116611f105760405162461bcd60e51b81526004018080602001828103825260268152602001806128de6026913960400191505060405180910390fd5b6033546040516001600160a01b038084169216907f8be0079c531659141344cd1fd0a4f28419497f9722a3daafe3b4186f6b6457e090600090a3603380547fffffffffffffffffffffffff0000000000000000000000000000000000000000166001600160a01b0392909216919091179055565b60006001600160a01b038216611fcb5760405162461bcd60e51b81526004018080602001828103825260228152602001806129c66022913960400191505060405180910390fd5b506001600160a01b03166000908152602091909152604090205460ff1690565b600054610100900460ff16806120045750612004611bb7565b80612012575060005460ff16155b61204d5760405162461bcd60e51b815260040180806020018281038252602e8152602001806129e8602e913960400191505060405180910390fd5b600054610100900460ff16158015612078576000805460ff1961ff0019909116610100171660011790555b612081856115b7565b606980546001600160a01b038087167fffffffffffffffffffffffff00000000000000000000000000000000000000009283168117909355606a805491871691909216179055604080517f313ce567000000000000000000000000000000000000000000000000000000008152905163313ce56791600480820192602092909190829003018186803b15801561211657600080fd5b505afa15801561212a573d6000803e3d6000fd5b505050506040513d602081101561214057600080fd5b50516069805460ff90921674010000000000000000000000000000000000000000027fffffffffffffffffffffff00ffffffffffffffffffffffffffffffffffffffff90921691909117908190556121c8906001600160a01b0316847fffffffffffffffffffffffffffffffffffffffffffffffffffffffffffffffff63ffffffff6126c016565b606b80547fffffffffffffffffffffffff0000000000000000000000000000000000000000166001600160a01b038481169190911791829055604080517f9d1b5a0a00000000000000000000000000000000000000000000000000000000815290519290911691639d1b5a0a91600480820192602092909190829003018186803b15801561225557600080fd5b505afa158015612269573d6000803e3d6000fd5b505050506040513d602081101561227f57600080fd5b5051606c80547fffffffffffffffffffffffff0000000000000000000000000000000000000000166001600160a01b039092169190911790558015611981576000805461ff00191690555050505050565b6000818484111561235f5760405162461bcd60e51b81526004018080602001828103825283818151815260200191508051906020019080838360005b8381101561232457818101518382015260200161230c565b50505050905090810190601f1680156123515780820380516001836020036101000a031916815260200191505b509250505060405180910390fd5b505050900390565b6123718282611f84565b6123ac5760405162461bcd60e51b81526004018080602001828103825260218152602001806129586021913960400191505060405180910390fd5b6001600160a01b0316600090815260209190915260409020805460ff19169055565b6000611a4783836040518060400160405280601a81526020017f536166654d6174683a206469766973696f6e206279207a65726f00000000000081525061281a565b60008261241f575060006118bc565b8282028284828161242c57fe5b0414611a475760405162461bcd60e51b81526004018080602001828103825260218152602001806129a56021913960400191505060405180910390fd5b61247b826001600160a01b031661287f565b6124cc576040805162461bcd60e51b815260206004820152601f60248201527f5361666545524332303a2063616c6c20746f206e6f6e2d636f6e747261637400604482015290519081900360640190fd5b60006060836001600160a01b0316836040518082805190602001908083835b6020831061252857805182527fffffffffffffffffffffffffffffffffffffffffffffffffffffffffffffffe090920191602091820191016124eb565b6001836020036101000a0380198251168184511680821785525050505050509050019150506000604051808303816000865af19150503d806000811461258a576040519150601f19603f3d011682016040523d82523d6000602084013e61258f565b606091505b5091509150816125e6576040805162461bcd60e51b815260206004820181905260248201527f5361666545524332303a206c6f772d6c6576656c2063616c6c206661696c6564604482015290519081900360640190fd5b805115610d2f5780806020019051602081101561260257600080fd5b5051610d2f5760405162461bcd60e51b815260040180806020018281038252602a815260200180612a74602a913960400191505060405180910390fd5b6126498282611f84565b1561269b576040805162461bcd60e51b815260206004820152601f60248201527f526f6c65733a206163636f756e7420616c72656164792068617320726f6c6500604482015290519081900360640190fd5b6001600160a01b0316600090815260209190915260409020805460ff19166001179055565b80158061275f5750604080517fdd62ed3e0000000000000000000000000000000000000000000000000000000081523060048201526001600160a01b03848116602483015291519185169163dd62ed3e91604480820192602092909190829003018186803b15801561273157600080fd5b505afa158015612745573d6000803e3d6000fd5b505050506040513d602081101561275b57600080fd5b5051155b61279a5760405162461bcd60e51b8152600401808060200182810382526036815260200180612a9e6036913960400191505060405180910390fd5b604080516001600160a01b038416602482015260448082018490528251808303909101815260649091019091526020810180517bffffffffffffffffffffffffffffffffffffffffffffffffffffffff167f095ea7b3000000000000000000000000000000000000000000000000000000001790526115b2908490612469565b600081836128695760405162461bcd60e51b815260206004820181815283516024840152835190928392604490910191908501908083836000831561232457818101518382015260200161230c565b50600083858161287557fe5b0495945050505050565b6000813f7fc5d2460186f7233c927e7db2dcc703c0e500b653ca82273b7bfad8045d85a47081811480159061121457505015159291505056fe436f6d706f756e6450726f746f636f6c3a20746f6b656e206e6f7420737570706f727465644f776e61626c653a206e6577206f776e657220697320746865207a65726f20616464726573734d6f64756c653a20706f6f6c20616464726573732063616e2774206265207a65726f436f6d706f756e6450726f746f636f6c3a2077726f6e6720636f756e74206f6620746f6b656e73206f7220616d6f756e7473526f6c65733a206163636f756e7420646f6573206e6f74206861766520726f6c65436f6d706f756e6450726f746f636f6c3a2077726f6e6720616d6f756e7473206172726179206c656e677468536166654d6174683a206d756c7469706c69636174696f6e206f766572666c6f77526f6c65733a206163636f756e7420697320746865207a65726f2061646472657373436f6e747261637420696e7374616e63652068617320616c7265616479206265656e20696e697469616c697a65644d6f64756c653a20726571756573746564206d6f64756c65206e6f7420666f756e64446566694f70657261746f72526f6c653a2063616c6c657220646f6573206e6f7420686176652074686520446566694f70657261746f7220726f6c655361666545524332303a204552433230206f7065726174696f6e20646964206e6f7420737563636565645361666545524332303a20617070726f76652066726f6d206e6f6e2d7a65726f20746f206e6f6e2d7a65726f20616c6c6f77616e6365a265627a7a72315820ff996893ad7c1441f11822dee62833e4736be4a6aae4d80599093a2ace10192164736f6c63430005110032",
  "source": "pragma solidity ^0.5.12;\n\nimport \"../modules/defi/CompoundProtocol.sol\";\n\ncontract CompoundProtocol_DAI is CompoundProtocol {\n    function initialize(address _pool, address _token, address _cToken, address _comptroller) public initializer {\n        CompoundProtocol.initialize(\n            _pool, \n            _token,\n            _cToken,\n            _comptroller\n        );\n    }    \n}\n",
  "sourcePath": "/Users/ilya/Documents/Akropolis/dca-strategy-bot/contracts/deploy/CompoundProtocol_DAI.sol",
  "compiler": {
    "name": "solc",
    "version": "0.5.17+commit.d19bba13.Emscripten.clang"
  },
  "schemaVersion": "3.2.3",
  "updatedAt": "2020-08-10T19:11:23.987Z",
  "devdoc": {
    "methods": {
      "isOwner()": {
        "details": "Returns true if the caller is the current owner."
      },
      "owner()": {
        "details": "Returns the address of the current owner."
      },
      "renounceOwnership()": {
        "details": "Leaves the contract without owner. It will not be possible to call `onlyOwner` functions anymore. Can only be called by the current owner.     * > Note: Renouncing ownership will leave the contract without an owner, thereby removing any functionality that is only available to the owner."
      },
      "transferOwnership(address)": {
        "details": "Transfers ownership of the contract to a new account (`newOwner`). Can only be called by the current owner."
      }
    }
  },
  "userdoc": {
    "methods": {}
  }
}