{
  "contractName": "ComptrollerStub",
  "abi": [
    {
      "anonymous": false,
      "inputs": [
        {
          "indexed": true,
          "internalType": "address",
          "name": "previousOwner",
          "type": "address"
        },
        {
          "indexed": true,
          "internalType": "address",
          "name": "newOwner",
          "type": "address"
        }
      ],
      "name": "OwnershipTransferred",
      "type": "event"
    },
    {
      "constant": true,
      "inputs": [],
      "name": "ANNUAL_SECONDS",
      "outputs": [
        {
          "internalType": "uint256",
          "name": "",
          "type": "uint256"
        }
      ],
      "payable": false,
      "stateMutability": "view",
      "type": "function"
    },
    {
      "constant": true,
      "inputs": [],
      "name": "baseCTokenToCompRatio",
      "outputs": [
        {
          "internalType": "uint256",
          "name": "",
          "type": "uint256"
        }
      ],
      "payable": false,
      "stateMutability": "view",
      "type": "function"
    },
    {
      "constant": true,
      "inputs": [],
      "name": "isOwner",
      "outputs": [
        {
          "internalType": "bool",
          "name": "",
          "type": "bool"
        }
      ],
      "payable": false,
      "stateMutability": "view",
      "type": "function"
    },
    {
      "constant": true,
      "inputs": [],
      "name": "owner",
      "outputs": [
        {
          "internalType": "address",
          "name": "",
          "type": "address"
        }
      ],
      "payable": false,
      "stateMutability": "view",
      "type": "function"
    },
    {
      "constant": false,
      "inputs": [],
      "name": "renounceOwnership",
      "outputs": [],
      "payable": false,
      "stateMutability": "nonpayable",
      "type": "function"
    },
    {
      "constant": true,
      "inputs": [],
      "name": "targetAPY",
      "outputs": [
        {
          "internalType": "uint256",
          "name": "",
          "type": "uint256"
        }
      ],
      "payable": false,
      "stateMutability": "view",
      "type": "function"
    },
    {
      "constant": false,
      "inputs": [
        {
          "internalType": "address",
          "name": "newOwner",
          "type": "address"
        }
      ],
      "name": "transferOwnership",
      "outputs": [],
      "payable": false,
      "stateMutability": "nonpayable",
      "type": "function"
    },
    {
      "constant": false,
      "inputs": [],
      "name": "initialize",
      "outputs": [],
      "payable": false,
      "stateMutability": "nonpayable",
      "type": "function"
    },
    {
      "constant": false,
      "inputs": [
        {
          "internalType": "address",
          "name": "_comp",
          "type": "address"
        }
      ],
      "name": "initialize",
      "outputs": [],
      "payable": false,
      "stateMutability": "nonpayable",
      "type": "function"
    },
    {
      "constant": false,
      "inputs": [
        {
          "internalType": "address",
          "name": "holder",
          "type": "address"
        }
      ],
      "name": "claimComp",
      "outputs": [],
      "payable": false,
      "stateMutability": "nonpayable",
      "type": "function"
    },
    {
      "constant": false,
      "inputs": [
        {
          "internalType": "address[]",
          "name": "_cTokens",
          "type": "address[]"
        }
      ],
      "name": "setSupportedCTokens",
      "outputs": [],
      "payable": false,
      "stateMutability": "nonpayable",
      "type": "function"
    },
    {
      "constant": false,
      "inputs": [
        {
          "internalType": "uint256",
          "name": "_targetAPY",
          "type": "uint256"
        }
      ],
      "name": "setTargetAPY",
      "outputs": [],
      "payable": false,
      "stateMutability": "nonpayable",
      "type": "function"
    },
    {
      "constant": false,
      "inputs": [
        {
          "internalType": "uint256",
          "name": "_baseCTokenToCompRatio",
          "type": "uint256"
        }
      ],
      "name": "setBaseCTokenToCompRatio",
      "outputs": [],
      "payable": false,
      "stateMutability": "nonpayable",
      "type": "function"
    },
    {
      "constant": true,
      "inputs": [],
      "name": "getCompAddress",
      "outputs": [
        {
          "internalType": "address",
          "name": "",
          "type": "address"
        }
      ],
      "payable": false,
      "stateMutability": "view",
      "type": "function"
    },
    {
      "constant": true,
      "inputs": [],
      "name": "supportedCTokens",
      "outputs": [
        {
          "internalType": "address[]",
          "name": "",
          "type": "address[]"
        }
      ],
      "payable": false,
      "stateMutability": "view",
      "type": "function"
    }
  ],
  "bytecode": "0x6080604052611294806100136000396000f3fe608060405234801561001057600080fd5b50600436106100f55760003560e01c80639ff99bc811610097578063e6d012e411610066578063e6d012e4146102ce578063e9af0292146102d6578063f2fde38b14610309578063f5f8aa951461033c576100f5565b80639ff99bc8146101d6578063c05e20f5146101f0578063c4d66de8146101f8578063e6209c881461022b576100f5565b80638da5cb5b116100d35780638da5cb5b146101645780638f32d59b1461019557806399c9c3cd146101b15780639d1b5a0a146101ce576100f5565b806345c1ecd0146100fa578063715018a6146101525780638129fc1c1461015c575b600080fd5b610102610359565b60408051602080825283518183015283519192839290830191858101910280838360005b8381101561013e578181015183820152602001610126565b505050509050019250505060405180910390f35b61015a6103c9565b005b61015a610491565b61016c610561565b6040805173ffffffffffffffffffffffffffffffffffffffff9092168252519081900360200190f35b61019d61057d565b604080519115158252519081900360200190f35b61015a600480360360208110156101c757600080fd5b50356105bd565b61016c6105c2565b6101de6105de565b60408051918252519081900360200190f35b6101de6105e4565b61015a6004803603602081101561020e57600080fd5b503573ffffffffffffffffffffffffffffffffffffffff166105ec565b61015a6004803603602081101561024157600080fd5b81019060208101813564010000000081111561025c57600080fd5b82018360208201111561026e57600080fd5b8035906020019184602083028401116401000000008311171561029057600080fd5b919080806020026020016040519081016040528093929190818152602001838360200280828437600092019190915250929550610712945050505050565b6101de610725565b61015a600480360360208110156102ec57600080fd5b503573ffffffffffffffffffffffffffffffffffffffff1661072b565b61015a6004803603602081101561031f57600080fd5b503573ffffffffffffffffffffffffffffffffffffffff1661078e565b61015a6004803603602081101561035257600080fd5b50356107f0565b606060688054806020026020016040519081016040528092919081815260200182805480156103be57602002820191906000526020600020905b815473ffffffffffffffffffffffffffffffffffffffff168152600190910190602001808311610393575b505050505090505b90565b6103d161057d565b610422576040805162461bcd60e51b815260206004820181905260248201527f4f776e61626c653a2063616c6c6572206973206e6f7420746865206f776e6572604482015290519081900360640190fd5b60335460405160009173ffffffffffffffffffffffffffffffffffffffff16907f8be0079c531659141344cd1fd0a4f28419497f9722a3daafe3b4186f6b6457e0908390a3603380547fffffffffffffffffffffffff0000000000000000000000000000000000000000169055565b600054610100900460ff16806104aa57506104aa6107f5565b806104b8575060005460ff16155b6104f35760405162461bcd60e51b815260040180806020018281038252602e815260200180611208602e913960400191505060405180910390fd5b600054610100900460ff1615801561053c57600080547fffffffffffffffffffffffffffffffffffffffffffffffffffffffffffffff0061ff0019909116610100171660011790555b61054c6105476107fb565b6107ff565b801561055e576000805461ff00191690555b50565b60335473ffffffffffffffffffffffffffffffffffffffff1690565b60335460009073ffffffffffffffffffffffffffffffffffffffff166105a16107fb565b73ffffffffffffffffffffffffffffffffffffffff1614905090565b606a55565b60665473ffffffffffffffffffffffffffffffffffffffff1690565b606a5481565b6301e187e081565b600054610100900460ff168061060557506106056107f5565b80610613575060005460ff16155b61064e5760405162461bcd60e51b815260040180806020018281038252602e815260200180611208602e913960400191505060405180910390fd5b600054610100900460ff1615801561069757600080547fffffffffffffffffffffffffffffffffffffffffffffffffffffffffffffff0061ff0019909116610100171660011790555b61069f610491565b606680547fffffffffffffffffffffffff00000000000000000000000000000000000000001673ffffffffffffffffffffffffffffffffffffffff8416179055600a670de0b6b3a76400000460695569d3c21bcecceda1000000606a55801561070e576000805461ff00191690555b5050565b805161070e9060689060208401906110fa565b60695481565b73ffffffffffffffffffffffffffffffffffffffff811660009081526067602052604090206001810154158015906107665750428160010154105b1561077a576107758282610933565b610784565b6107848282610a2d565b4260019091015550565b61079661057d565b6107e7576040805162461bcd60e51b815260206004820181905260248201527f4f776e61626c653a2063616c6c6572206973206e6f7420746865206f776e6572604482015290519081900360640190fd5b61055e81610b25565b606955565b303b1590565b3390565b600054610100900460ff168061081857506108186107f5565b80610826575060005460ff16155b6108615760405162461bcd60e51b815260040180806020018281038252602e815260200180611208602e913960400191505060405180910390fd5b600054610100900460ff161580156108aa57600080547fffffffffffffffffffffffffffffffffffffffffffffffffffffffffffffff0061ff0019909116610100171660011790555b603380547fffffffffffffffffffffffff00000000000000000000000000000000000000001673ffffffffffffffffffffffffffffffffffffffff84811691909117918290556040519116906000907f8be0079c531659141344cd1fd0a4f28419497f9722a3daafe3b4186f6b6457e0908290a3801561070e576000805461ff00191690555050565b600061094c826001015442610c0590919063ffffffff16565b90506000805b6068548110156109fc5760006068828154811061096b57fe5b600091825260208083209091015473ffffffffffffffffffffffffffffffffffffffff1680835290879052604090912054606a5460695492935090916109f0916109e3916109d7906301e187e09082906109cb888d63ffffffff610c5016565b9063ffffffff610c5016565b9063ffffffff610ca916565b859063ffffffff610ceb16565b93505050600101610952565b50606654610a279073ffffffffffffffffffffffffffffffffffffffff16858363ffffffff610d4516565b50505050565b60005b606854811015610b2057600060688281548110610a4957fe5b60009182526020918290200154604080517f70a0823100000000000000000000000000000000000000000000000000000000815273ffffffffffffffffffffffffffffffffffffffff8881166004830152915191909216935083926370a082319260248082019391829003018186803b158015610ac557600080fd5b505afa158015610ad9573d6000803e3d6000fd5b505050506040513d6020811015610aef57600080fd5b505173ffffffffffffffffffffffffffffffffffffffff909116600090815260208490526040902055600101610a30565b505050565b73ffffffffffffffffffffffffffffffffffffffff8116610b775760405162461bcd60e51b81526004018080602001828103825260268152602001806111c16026913960400191505060405180910390fd5b60335460405173ffffffffffffffffffffffffffffffffffffffff8084169216907f8be0079c531659141344cd1fd0a4f28419497f9722a3daafe3b4186f6b6457e090600090a3603380547fffffffffffffffffffffffff00000000000000000000000000000000000000001673ffffffffffffffffffffffffffffffffffffffff92909216919091179055565b6000610c4783836040518060400160405280601e81526020017f536166654d6174683a207375627472616374696f6e206f766572666c6f770000815250610dd2565b90505b92915050565b600082610c5f57506000610c4a565b82820282848281610c6c57fe5b0414610c475760405162461bcd60e51b81526004018080602001828103825260218152602001806111e76021913960400191505060405180910390fd5b6000610c4783836040518060400160405280601a81526020017f536166654d6174683a206469766973696f6e206279207a65726f000000000000815250610e69565b600082820183811015610c47576040805162461bcd60e51b815260206004820152601b60248201527f536166654d6174683a206164646974696f6e206f766572666c6f770000000000604482015290519081900360640190fd5b6040805173ffffffffffffffffffffffffffffffffffffffff8416602482015260448082018490528251808303909101815260649091019091526020810180517bffffffffffffffffffffffffffffffffffffffffffffffffffffffff167fa9059cbb00000000000000000000000000000000000000000000000000000000179052610b20908490610ece565b60008184841115610e615760405162461bcd60e51b81526004018080602001828103825283818151815260200191508051906020019080838360005b83811015610e26578181015183820152602001610e0e565b50505050905090810190601f168015610e535780820380516001836020036101000a031916815260200191505b509250505060405180910390fd5b505050900390565b60008183610eb85760405162461bcd60e51b8152602060048201818152835160248401528351909283926044909101919085019080838360008315610e26578181015183820152602001610e0e565b506000838581610ec457fe5b0495945050505050565b610eed8273ffffffffffffffffffffffffffffffffffffffff166110be565b610f3e576040805162461bcd60e51b815260206004820152601f60248201527f5361666545524332303a2063616c6c20746f206e6f6e2d636f6e747261637400604482015290519081900360640190fd5b600060608373ffffffffffffffffffffffffffffffffffffffff16836040518082805190602001908083835b60208310610fa757805182527fffffffffffffffffffffffffffffffffffffffffffffffffffffffffffffffe09092019160209182019101610f6a565b6001836020036101000a0380198251168184511680821785525050505050509050019150506000604051808303816000865af19150503d8060008114611009576040519150601f19603f3d011682016040523d82523d6000602084013e61100e565b606091505b509150915081611065576040805162461bcd60e51b815260206004820181905260248201527f5361666545524332303a206c6f772d6c6576656c2063616c6c206661696c6564604482015290519081900360640190fd5b805115610a275780806020019051602081101561108157600080fd5b5051610a275760405162461bcd60e51b815260040180806020018281038252602a815260200180611236602a913960400191505060405180910390fd5b6000813f7fc5d2460186f7233c927e7db2dcc703c0e500b653ca82273b7bfad8045d85a4708181148015906110f257508115155b949350505050565b828054828255906000526020600020908101928215611174579160200282015b8281111561117457825182547fffffffffffffffffffffffff00000000000000000000000000000000000000001673ffffffffffffffffffffffffffffffffffffffff90911617825560209092019160019091019061111a565b50611180929150611184565b5090565b6103c691905b808211156111805780547fffffffffffffffffffffffff000000000000000000000000000000000000000016815560010161118a56fe4f776e61626c653a206e6577206f776e657220697320746865207a65726f2061646472657373536166654d6174683a206d756c7469706c69636174696f6e206f766572666c6f77436f6e747261637420696e7374616e63652068617320616c7265616479206265656e20696e697469616c697a65645361666545524332303a204552433230206f7065726174696f6e20646964206e6f742073756363656564a265627a7a72315820d7e431daac292a193018db59ebbee0718e1aa2b828612fad4bc94bbf0fa4abaf64736f6c63430005110032",
  "source": "pragma solidity ^0.5.12;\n\nimport \"@openzeppelin/contracts-ethereum-package/contracts/token/ERC20/IERC20.sol\";\nimport \"@openzeppelin/contracts-ethereum-package/contracts/math/SafeMath.sol\";\nimport \"@openzeppelin/contracts-ethereum-package/contracts/token/ERC20/SafeERC20.sol\";\nimport \"../interfaces/defi/IComptroller.sol\";\nimport \"../common/Base.sol\";\n\n/**\n * @notice Simple token which everyone can mint\n */\ncontract ComptrollerStub is Base, IComptroller {\n    uint256 public constant ANNUAL_SECONDS = 365*24*60*60+(24*60*60/4);  // Seconds in a year + 1/4 day to compensate leap years\n    uint256 constant EXP = 1e18;\n\n    using SafeMath for uint256;\n    using SafeERC20 for IERC20;\n\n    struct AddressInfo{\n        mapping(address=>uint256) cBalances;\n        uint256 lastUpdate;\n    }\n\n    IERC20 comp;\n    mapping(address=>AddressInfo) cHolders;\n    address[] cTokens;\n    uint256 public targetAPY;\n    uint256 public baseCTokenToCompRatio;\n\n    function initialize(address _comp) public initializer {\n        Base.initialize();\n        comp = IERC20(_comp);\n        targetAPY = EXP/10; //10%\n        baseCTokenToCompRatio = 1000000 * EXP;\n    }\n\n    function claimComp(address holder) public {\n        AddressInfo storage ai = cHolders[holder];\n        if(ai.lastUpdate != 0 && ai.lastUpdate < now) {\n            sendComp(holder, ai);\n        }else {\n            updateTokenBalances(holder, ai);\n        }\n        ai.lastUpdate = now;\n    }\n\n    function updateTokenBalances(address holder, AddressInfo storage ai) private {\n        for(uint256 i=0; i < cTokens.length; i++) {\n            address token = cTokens[i];\n            ai.cBalances[token] = IERC20(token).balanceOf(holder);\n        }\n    }\n    function sendComp(address holder, AddressInfo storage ai) private {\n        uint256 period = now.sub(ai.lastUpdate);\n        uint256 compAmount;\n        for(uint256 i=0; i < cTokens.length; i++) {\n            address token = cTokens[i];\n            uint256 prevBalance = ai.cBalances[token];\n            // uint256 compAmount += prevBalance\n            //     .mul(period).div(ANNUAL_SECONDS)\n            //     .mul(targetAPY).div(EXP)\n            //     .mul(EXP).div(baseCTokenToCompRatio);\n            compAmount = compAmount.add(prevBalance.mul(period).mul(targetAPY).div(ANNUAL_SECONDS).div(baseCTokenToCompRatio));\n        }\n        comp.safeTransfer(holder, compAmount);\n    }\n\n\n    function setSupportedCTokens(address[] memory _cTokens) public {\n        cTokens = _cTokens;\n    }\n\n    function setTargetAPY(uint256 _targetAPY) public {\n        targetAPY = _targetAPY;\n    }\n\n    function setBaseCTokenToCompRatio(uint256 _baseCTokenToCompRatio) public {\n        baseCTokenToCompRatio = _baseCTokenToCompRatio;\n    }\n\n    function getCompAddress() public view returns (address) {\n        return address(comp);\n    }\n\n    function supportedCTokens() public view returns (address[] memory) {\n        return cTokens;\n    }\n}\n\n",
  "sourcePath": "/Users/ilya/Documents/Akropolis/dca-strategy-bot/contracts/test/ComptrollerStub.sol",
  "compiler": {
    "name": "solc",
    "version": "0.5.17+commit.d19bba13.Emscripten.clang"
  },
  "schemaVersion": "3.2.3",
  "updatedAt": "2020-08-07T11:30:43.148Z",
  "devdoc": {
    "methods": {
      "isOwner()": {
        "details": "Returns true if the caller is the current owner."
      },
      "owner()": {
        "details": "Returns the address of the current owner."
      },
      "renounceOwnership()": {
        "details": "Leaves the contract without owner. It will not be possible to call `onlyOwner` functions anymore. Can only be called by the current owner.     * > Note: Renouncing ownership will leave the contract without an owner, thereby removing any functionality that is only available to the owner."
      },
      "transferOwnership(address)": {
        "details": "Transfers ownership of the contract to a new account (`newOwner`). Can only be called by the current owner."
      }
    }
  },
  "userdoc": {
    "methods": {},
    "notice": "Simple token which everyone can mint"
  }
}