{
  "contractName": "CurveFiSwapStub_Y",
  "abi": [
    {
      "anonymous": false,
      "inputs": [
        {
          "indexed": true,
          "internalType": "address",
          "name": "previousOwner",
          "type": "address"
        },
        {
          "indexed": true,
          "internalType": "address",
          "name": "newOwner",
          "type": "address"
        }
      ],
      "name": "OwnershipTransferred",
      "type": "event"
    },
    {
      "constant": true,
      "inputs": [],
      "name": "N_COINS",
      "outputs": [
        {
          "internalType": "uint256",
          "name": "",
          "type": "uint256"
        }
      ],
      "payable": false,
      "stateMutability": "view",
      "type": "function"
    },
    {
      "constant": true,
      "inputs": [],
      "name": "isOwner",
      "outputs": [
        {
          "internalType": "bool",
          "name": "",
          "type": "bool"
        }
      ],
      "payable": false,
      "stateMutability": "view",
      "type": "function"
    },
    {
      "constant": true,
      "inputs": [],
      "name": "owner",
      "outputs": [
        {
          "internalType": "address",
          "name": "",
          "type": "address"
        }
      ],
      "payable": false,
      "stateMutability": "view",
      "type": "function"
    },
    {
      "constant": false,
      "inputs": [],
      "name": "renounceOwnership",
      "outputs": [],
      "payable": false,
      "stateMutability": "nonpayable",
      "type": "function"
    },
    {
      "constant": true,
      "inputs": [],
      "name": "token",
      "outputs": [
        {
          "internalType": "contract CurveFiTokenStub_Y",
          "name": "",
          "type": "address"
        }
      ],
      "payable": false,
      "stateMutability": "view",
      "type": "function"
    },
    {
      "constant": false,
      "inputs": [
        {
          "internalType": "address",
          "name": "newOwner",
          "type": "address"
        }
      ],
      "name": "transferOwnership",
      "outputs": [],
      "payable": false,
      "stateMutability": "nonpayable",
      "type": "function"
    },
    {
      "constant": false,
      "inputs": [
        {
          "internalType": "address[4]",
          "name": "__coins",
          "type": "address[4]"
        }
      ],
      "name": "initialize",
      "outputs": [],
      "payable": false,
      "stateMutability": "nonpayable",
      "type": "function"
    },
    {
      "constant": false,
      "inputs": [],
      "name": "initialize",
      "outputs": [],
      "payable": false,
      "stateMutability": "nonpayable",
      "type": "function"
    },
    {
      "constant": false,
      "inputs": [
        {
          "internalType": "address",
          "name": "sender",
          "type": "address"
        }
      ],
      "name": "initialize",
      "outputs": [],
      "payable": false,
      "stateMutability": "nonpayable",
      "type": "function"
    },
    {
      "constant": false,
      "inputs": [
        {
          "internalType": "uint256[4]",
          "name": "amounts",
          "type": "uint256[4]"
        },
        {
          "internalType": "uint256",
          "name": "min_mint_amount",
          "type": "uint256"
        }
      ],
      "name": "add_liquidity",
      "outputs": [],
      "payable": false,
      "stateMutability": "nonpayable",
      "type": "function"
    },
    {
      "constant": false,
      "inputs": [
        {
          "internalType": "uint256",
          "name": "_amount",
          "type": "uint256"
        },
        {
          "internalType": "uint256[4]",
          "name": "min_amounts",
          "type": "uint256[4]"
        }
      ],
      "name": "remove_liquidity",
      "outputs": [],
      "payable": false,
      "stateMutability": "nonpayable",
      "type": "function"
    },
    {
      "constant": false,
      "inputs": [
        {
          "internalType": "uint256[4]",
          "name": "amounts",
          "type": "uint256[4]"
        },
        {
          "internalType": "uint256",
          "name": "max_burn_amount",
          "type": "uint256"
        }
      ],
      "name": "remove_liquidity_imbalance",
      "outputs": [],
      "payable": false,
      "stateMutability": "nonpayable",
      "type": "function"
    },
    {
      "constant": true,
      "inputs": [
        {
          "internalType": "uint256[4]",
          "name": "amounts",
          "type": "uint256[4]"
        },
        {
          "internalType": "bool",
          "name": "deposit",
          "type": "bool"
        }
      ],
      "name": "calc_token_amount",
      "outputs": [
        {
          "internalType": "uint256",
          "name": "",
          "type": "uint256"
        }
      ],
      "payable": false,
      "stateMutability": "view",
      "type": "function"
    },
    {
      "constant": true,
      "inputs": [
        {
          "internalType": "int128",
          "name": "i",
          "type": "int128"
        }
      ],
      "name": "balances",
      "outputs": [
        {
          "internalType": "uint256",
          "name": "",
          "type": "uint256"
        }
      ],
      "payable": false,
      "stateMutability": "view",
      "type": "function"
    },
    {
      "constant": true,
      "inputs": [],
      "name": "A",
      "outputs": [
        {
          "internalType": "uint256",
          "name": "",
          "type": "uint256"
        }
      ],
      "payable": false,
      "stateMutability": "view",
      "type": "function"
    },
    {
      "constant": true,
      "inputs": [],
      "name": "fee",
      "outputs": [
        {
          "internalType": "uint256",
          "name": "",
          "type": "uint256"
        }
      ],
      "payable": false,
      "stateMutability": "view",
      "type": "function"
    },
    {
      "constant": true,
      "inputs": [
        {
          "internalType": "int128",
          "name": "i",
          "type": "int128"
        }
      ],
      "name": "coins",
      "outputs": [
        {
          "internalType": "address",
          "name": "",
          "type": "address"
        }
      ],
      "payable": false,
      "stateMutability": "view",
      "type": "function"
    }
  ],
  "bytecode": "0x6080604052613798806100136000396000f3fe608060405234801561001057600080fd5b506004361061011b5760003560e01c80638129fc1c116100b2578063cf701ff711610081578063f2fde38b11610066578063f2fde38b146103b8578063f446c1d0146103b0578063fc0c546a146103eb5761011b565b8063cf701ff71461035c578063ddca3f43146103b05761011b565b80638129fc1c146102fd5780638da5cb5b146103055780638f32d59b1461030d578063c4d66de8146103295761011b565b806329357750116100ee57806329357750146102455780632be610db1461024d578063715018a61461029f5780637d49d875146102a75761011b565b8063029b2f3414610120578063065a80d81461017657806318a7bd76146101a857806323746eb8146101fc575b600080fd5b610174600480360360a081101561013657600080fd5b810190808060800190600480602002604051908101604052809291908260046020028082843760009201919091525091945050903591506103f39050565b005b6101966004803603602081101561018c57600080fd5b5035600f0b6106fb565b60408051918252519081900360200190f35b610174600480360360a08110156101be57600080fd5b810190808060800190600480602002604051908101604052809291908260046020028082843760009201919091525091945050903591506107af9050565b61021c6004803603602081101561021257600080fd5b5035600f0b6109a0565b6040805173ffffffffffffffffffffffffffffffffffffffff9092168252519081900360200190f35b6101966109d0565b6101746004803603608081101561026357600080fd5b81019080806080019060048060200260405190810160405280929190826004602002808284376000920191909152509194506109d59350505050565b610174610af9565b610174600480360360a08110156102bd57600080fd5b604080516080818101909252833593928301929160a08301919060208401906004908390839080828437600092019190915250919450610bc19350505050565b610174610ec5565b61021c610f95565b610315610fb2565b604080519115158252519081900360200190f35b6101746004803603602081101561033f57600080fd5b503573ffffffffffffffffffffffffffffffffffffffff16610ff2565b610196600480360360a081101561037257600080fd5b810190808060800190600480602002604051908101604052809291908260046020028082843760009201919091525091945050503515159050611126565b61019661120b565b610174600480360360208110156103ce57600080fd5b503573ffffffffffffffffffffffffffffffffffffffff16611210565b61021c611272565b6000805b6004811015610565576067816004811061040d57fe5b015473ffffffffffffffffffffffffffffffffffffffff166323b872dd61043261128e565b3087856004811061043f57fe5b60200201516040518463ffffffff1660e01b8152600401808473ffffffffffffffffffffffffffffffffffffffff1673ffffffffffffffffffffffffffffffffffffffff1681526020018373ffffffffffffffffffffffffffffffffffffffff1673ffffffffffffffffffffffffffffffffffffffff1681526020018281526020019350505050602060405180830381600087803b1580156104e057600080fd5b505af11580156104f4573d6000803e3d6000fd5b505050506040513d602081101561050a57600080fd5b5061055b905061054e6067836004811061052057fe5b015473ffffffffffffffffffffffffffffffffffffffff1686846004811061054457fe5b6020020151611292565b839063ffffffff61135916565b91506001016103f7565b506000806105748560006113ba565b9150915080156105955761058e838363ffffffff61135916565b92506105a8565b6105a5838363ffffffff61163816565b92505b838310156105e75760405162461bcd60e51b81526004018080602001828103825260328152602001806137326032913960400191505060405180910390fd5b60665473ffffffffffffffffffffffffffffffffffffffff166340c10f1961060d61128e565b856040518363ffffffff1660e01b8152600401808373ffffffffffffffffffffffffffffffffffffffff1673ffffffffffffffffffffffffffffffffffffffff16815260200182815260200192505050602060405180830381600087803b15801561067757600080fd5b505af115801561068b573d6000803e3d6000fd5b505050506040513d60208110156106a157600080fd5b50516106f4576040805162461bcd60e51b815260206004820152601c60248201527f4375727665466953776170537475623a204d696e74206661696c656400000000604482015290519081900360640190fd5b5050505050565b6000606782600f0b6004811061070d57fe5b0154604080517f70a08231000000000000000000000000000000000000000000000000000000008152306004820152905173ffffffffffffffffffffffffffffffffffffffff909216916370a0823191602480820192602092909190829003018186803b15801561077d57600080fd5b505afa158015610791573d6000803e3d6000fd5b505050506040513d60208110156107a757600080fd5b505192915050565b60006107bc836000611126565b905060005b60048110156108aa57606781600481106107d757fe5b015473ffffffffffffffffffffffffffffffffffffffff1663a9059cbb6107fc61128e565b86846004811061080857fe5b60200201516040518363ffffffff1660e01b8152600401808373ffffffffffffffffffffffffffffffffffffffff1673ffffffffffffffffffffffffffffffffffffffff16815260200182815260200192505050602060405180830381600087803b15801561087657600080fd5b505af115801561088a573d6000803e3d6000fd5b505050506040513d60208110156108a057600080fd5b50506001016107c1565b508115806108b85750818111155b6108f35760405162461bcd60e51b81526004018080602001828103825260328152602001806136846032913960400191505060405180910390fd5b60665473ffffffffffffffffffffffffffffffffffffffff166379cc679061091961128e565b836040518363ffffffff1660e01b8152600401808373ffffffffffffffffffffffffffffffffffffffff1673ffffffffffffffffffffffffffffffffffffffff16815260200182815260200192505050600060405180830381600087803b15801561098357600080fd5b505af1158015610997573d6000803e3d6000fd5b50505050505050565b6000606782600f0b600481106109b257fe5b015473ffffffffffffffffffffffffffffffffffffffff1692915050565b600481565b600054610100900460ff16806109ee57506109ee61167a565b806109fc575060005460ff16155b610a375760405162461bcd60e51b815260040180806020018281038252602e815260200180613704602e913960400191505060405180910390fd5b600054610100900460ff16158015610a8057600080547fffffffffffffffffffffffffffffffffffffffffffffffffffffffffffffff0061ff0019909116610100171660011790555b610a88610ec5565b610a95606783600461198b565b50610a9e611680565b606680547fffffffffffffffffffffffff00000000000000000000000000000000000000001673ffffffffffffffffffffffffffffffffffffffff929092169190911790558015610af5576000805461ff00191690555b5050565b610b01610fb2565b610b52576040805162461bcd60e51b815260206004820181905260248201527f4f776e61626c653a2063616c6c6572206973206e6f7420746865206f776e6572604482015290519081900360640190fd5b60335460405160009173ffffffffffffffffffffffffffffffffffffffff16907f8be0079c531659141344cd1fd0a4f28419497f9722a3daafe3b4186f6b6457e0908390a3603380547fffffffffffffffffffffffff0000000000000000000000000000000000000000169055565b606654604080517f18160ddd000000000000000000000000000000000000000000000000000000008152905160009273ffffffffffffffffffffffffffffffffffffffff16916318160ddd916004808301926020929190829003018186803b158015610c2c57600080fd5b505afa158015610c40573d6000803e3d6000fd5b505050506040513d6020811015610c5657600080fd5b505160408051600480825260a08201909252919250606091906020820160808038833901905050905060005b6004811015610e16576000610c96826106fb565b9050610cb884610cac888463ffffffff61171416565b9063ffffffff61176d16565b838381518110610cc457fe5b602002602001018181525050848260048110610cdc57fe5b6020020151838381518110610ced57fe5b60200260200101511015610d325760405162461bcd60e51b815260040180806020018281038252602d8152602001806136d7602d913960400191505060405180910390fd5b60678260048110610d3f57fe5b015473ffffffffffffffffffffffffffffffffffffffff1663a9059cbb610d6461128e565b858581518110610d7057fe5b60200260200101516040518363ffffffff1660e01b8152600401808373ffffffffffffffffffffffffffffffffffffffff1673ffffffffffffffffffffffffffffffffffffffff16815260200182815260200192505050602060405180830381600087803b158015610de157600080fd5b505af1158015610df5573d6000803e3d6000fd5b505050506040513d6020811015610e0b57600080fd5b505050600101610c82565b5060665473ffffffffffffffffffffffffffffffffffffffff166379cc6790610e3d61128e565b866040518363ffffffff1660e01b8152600401808373ffffffffffffffffffffffffffffffffffffffff1673ffffffffffffffffffffffffffffffffffffffff16815260200182815260200192505050600060405180830381600087803b158015610ea757600080fd5b505af1158015610ebb573d6000803e3d6000fd5b5050505050505050565b600054610100900460ff1680610ede5750610ede61167a565b80610eec575060005460ff16155b610f275760405162461bcd60e51b815260040180806020018281038252602e815260200180613704602e913960400191505060405180910390fd5b600054610100900460ff16158015610f7057600080547fffffffffffffffffffffffffffffffffffffffffffffffffffffffffffffff0061ff0019909116610100171660011790555b610f80610f7b61128e565b610ff2565b8015610f92576000805461ff00191690555b50565b60335473ffffffffffffffffffffffffffffffffffffffff165b90565b60335460009073ffffffffffffffffffffffffffffffffffffffff16610fd661128e565b73ffffffffffffffffffffffffffffffffffffffff1614905090565b600054610100900460ff168061100b575061100b61167a565b80611019575060005460ff16155b6110545760405162461bcd60e51b815260040180806020018281038252602e815260200180613704602e913960400191505060405180910390fd5b600054610100900460ff1615801561109d57600080547fffffffffffffffffffffffffffffffffffffffffffffffffffffffffffffff0061ff0019909116610100171660011790555b603380547fffffffffffffffffffffffff00000000000000000000000000000000000000001673ffffffffffffffffffffffffffffffffffffffff84811691909117918290556040519116906000907f8be0079c531659141344cd1fd0a4f28419497f9722a3daafe3b4186f6b6457e0908290a38015610af5576000805461ff00191690555050565b600080600061113585856113ba565b90925090506000805b60048110156111cf576000611152826106fb565b905087826004811061116057fe5b60200201518110156111a35760405162461bcd60e51b81526004018080602001828103825260228152602001806136626022913960400191505060405180910390fd5b6111c48883600481106111b257fe5b6020020151849063ffffffff61135916565b92505060010161113e565b5081156111ed576111e6818463ffffffff61163816565b9050611200565b6111fd818463ffffffff61135916565b90505b925050505b92915050565b600090565b611218610fb2565b611269576040805162461bcd60e51b815260206004820181905260248201527f4f776e61626c653a2063616c6c6572206973206e6f7420746865206f776e6572604482015290519081900360640190fd5b610f92816117af565b60665473ffffffffffffffffffffffffffffffffffffffff1681565b3390565b6000808373ffffffffffffffffffffffffffffffffffffffff1663313ce5676040518163ffffffff1660e01b815260040160206040518083038186803b1580156112db57600080fd5b505afa1580156112ef573d6000803e3d6000fd5b505050506040513d602081101561130557600080fd5b50519050601260ff82161015611329578060120360ff16600a0a8302915050611205565b60128160ff161115611350576012810360ff16600a0a838161134757fe5b04915050611205565b82915050611205565b6000828201838110156113b3576040805162461bcd60e51b815260206004820152601b60248201527f536166654d6174683a206164646974696f6e206f766572666c6f770000000000604482015290519081900360640190fd5b9392505050565b60408051600480825260a0820190925260009182918291606091906020820160808038833901905050905060005b6004811015611442576113fa816106fb565b82828151811061140657fe5b60200260200101818152505061143882828151811061142157fe5b60200260200101518461135990919063ffffffff16565b92506001016113e8565b5061145482600463ffffffff61176d16565b91506000805b60048110156115ee5760008484838151811061147257fe5b60200260200101510390506000881561149f5789836004811061149157fe5b6020020151820190506114b5565b8983600481106114ab57fe5b6020020151820390505b60006114eb670de0b6b3a7640000610cac66b1a2bc2ec500008e88600481106114da57fe5b60200201519063ffffffff61171416565b90506000836114fc5750600061156b565b8a1561152c57838c866004811061150f57fe5b602002015166b1a2bc2ec50000028161152457fe5b05905061156b565b838c866004811061153957fe5b60200201517fffffffffffffffffffffffffffffffffffffffffffffffffff4e5d43d13b0000028161156757fe5b0590505b60008113801561157a57508181135b156115825750805b6000811280156115b3575081817fffffffffffffffffffffffffffffffffffffffffffffffffffffffffffffffff02135b156115de57817fffffffffffffffffffffffffffffffffffffffffffffffffffffffffffffffff0290505b949094019350505060010161145a565b5060008112156116265760019350807fffffffffffffffffffffffffffffffffffffffffffffffffffffffffffffffff02945061162e565b600093508094505b5050509250929050565b60006113b383836040518060400160405280601e81526020017f536166654d6174683a207375627472616374696f6e206f766572666c6f77000081525061188f565b303b1590565b60008060405161168f90611a08565b604051809103906000f0801580156116ab573d6000803e3d6000fd5b5090508073ffffffffffffffffffffffffffffffffffffffff16638129fc1c6040518163ffffffff1660e01b8152600401600060405180830381600087803b1580156116f657600080fd5b505af115801561170a573d6000803e3d6000fd5b5092935050505090565b60008261172357506000611205565b8282028284828161173057fe5b04146113b35760405162461bcd60e51b81526004018080602001828103825260218152602001806136b66021913960400191505060405180910390fd5b60006113b383836040518060400160405280601a81526020017f536166654d6174683a206469766973696f6e206279207a65726f000000000000815250611926565b73ffffffffffffffffffffffffffffffffffffffff81166118015760405162461bcd60e51b815260040180806020018281038252602681526020018061363c6026913960400191505060405180910390fd5b60335460405173ffffffffffffffffffffffffffffffffffffffff8084169216907f8be0079c531659141344cd1fd0a4f28419497f9722a3daafe3b4186f6b6457e090600090a3603380547fffffffffffffffffffffffff00000000000000000000000000000000000000001673ffffffffffffffffffffffffffffffffffffffff92909216919091179055565b6000818484111561191e5760405162461bcd60e51b81526004018080602001828103825283818151815260200191508051906020019080838360005b838110156118e35781810151838201526020016118cb565b50505050905090810190601f1680156119105780820380516001836020036101000a031916815260200191505b509250505060405180910390fd5b505050900390565b600081836119755760405162461bcd60e51b81526020600482018181528351602484015283519092839260449091019190850190808383600083156118e35781810151838201526020016118cb565b50600083858161198157fe5b0495945050505050565b82600481019282156119f8579160200282015b828111156119f857825182547fffffffffffffffffffffffff00000000000000000000000000000000000000001673ffffffffffffffffffffffffffffffffffffffff90911617825560209092019160019091019061199e565b50611a04929150611a15565b5090565b611bea80611a5283390190565b610faf91905b80821115611a045780547fffffffffffffffffffffffff0000000000000000000000000000000000000000168155600101611a1b56fe6080604052611bd7806100136000396000f3fe608060405234801561001057600080fd5b50600436106101985760003560e01c80638129fc1c116100e3578063a457c2d71161008c578063c4d66de811610066578063c4d66de8146105b3578063dd62ed3e146105d9578063f2fde38b1461060757610198565b8063a457c2d714610535578063a9059cbb14610561578063aa271e1a1461058d57610198565b806395d89b41116100bd57806395d89b41146104ff578063983b2d5614610507578063986502751461052d57610198565b80638129fc1c146104cb5780638da5cb5b146104d35780638f32d59b146104f757610198565b8063395093511161014557806370a082311161011f57806370a0823114610471578063715018a61461049757806379cc67901461049f57610198565b806339509351146103fc57806340c10f191461042857806342966c681461045457610198565b806318160ddd1161017657806318160ddd1461038e57806323b872dd146103a8578063313ce567146103de57610198565b806306fdde031461019d578063095ea7b31461021a5780631624f6c61461025a575b600080fd5b6101a561062d565b6040805160208082528351818301528351919283929083019185019080838360005b838110156101df5781810151838201526020016101c7565b50505050905090810190601f16801561020c5780820380516001836020036101000a031916815260200191505b509250505060405180910390f35b6102466004803603604081101561023057600080fd5b506001600160a01b0381351690602001356106e2565b604080519115158252519081900360200190f35b61038c6004803603606081101561027057600080fd5b81019060208101813564010000000081111561028b57600080fd5b82018360208201111561029d57600080fd5b803590602001918460018302840111640100000000831117156102bf57600080fd5b91908080601f016020809104026020016040519081016040528093929190818152602001838380828437600092019190915250929594936020810193503591505064010000000081111561031257600080fd5b82018360208201111561032457600080fd5b8035906020019184600183028401116401000000008311171561034657600080fd5b91908080601f0160208091040260200160405190810160405280939291908181526020018383808284376000920191909152509295505050903560ff1691506106ff9050565b005b6103966107db565b60408051918252519081900360200190f35b610246600480360360608110156103be57600080fd5b506001600160a01b038135811691602081013590911690604001356107e1565b6103e661086e565b6040805160ff9092168252519081900360200190f35b6102466004803603604081101561041257600080fd5b506001600160a01b038135169060200135610877565b6102466004803603604081101561043e57600080fd5b506001600160a01b0381351690602001356108cb565b61038c6004803603602081101561046a57600080fd5b5035610922565b6103966004803603602081101561048757600080fd5b50356001600160a01b0316610936565b61038c610951565b61038c600480360360408110156104b557600080fd5b506001600160a01b038135169060200135610a0c565b61038c610a1a565b6104db610b42565b604080516001600160a01b039092168252519081900360200190f35b610246610b51565b6101a5610b77565b61038c6004803603602081101561051d57600080fd5b50356001600160a01b0316610bf6565b61038c610c45565b6102466004803603604081101561054b57600080fd5b506001600160a01b038135169060200135610c57565b6102466004803603604081101561057757600080fd5b506001600160a01b038135169060200135610cc5565b610246600480360360208110156105a357600080fd5b50356001600160a01b0316610cd9565b61038c600480360360208110156105c957600080fd5b50356001600160a01b0316610cf2565b610396600480360360408110156105ef57600080fd5b506001600160a01b0381358116916020013516610d9d565b61038c6004803603602081101561061d57600080fd5b50356001600160a01b0316610dc8565b609b8054604080516020601f60027fffffffffffffffffffffffffffffffffffffffffffffffffffffffffffffffff6101006001881615020190951694909404938401819004810282018101909252828152606093909290918301828280156106d75780601f106106ac576101008083540402835291602001916106d7565b820191906000526020600020905b8154815290600101906020018083116106ba57829003601f168201915b505050505090505b90565b60006106f66106ef610e2a565b8484610e2e565b50600192915050565b600054610100900460ff16806107185750610718610f1a565b80610726575060005460ff16155b6107615760405162461bcd60e51b815260040180806020018281038252602e815260200180611ac2602e913960400191505060405180910390fd5b600054610100900460ff1615801561078c576000805460ff1961ff0019909116610100171660011790555b835161079f90609b9060208701906118db565b5082516107b390609c9060208601906118db565b50609d805460ff191660ff841617905580156107d5576000805461ff00191690555b50505050565b60685490565b60006107ee848484610f20565b610864846107fa610e2a565b61085f85604051806060016040528060288152602001611a78602891396001600160a01b038a16600090815260676020526040812090610838610e2a565b6001600160a01b03168152602081019190915260400160002054919063ffffffff61107e16565b610e2e565b5060019392505050565b609d5460ff1690565b60006106f6610884610e2a565b8461085f8560676000610895610e2a565b6001600160a01b03908116825260208083019390935260409182016000908120918c16815292529020549063ffffffff61111516565b60006108dd6108d8610e2a565b610cd9565b6109185760405162461bcd60e51b8152600401808060200182810382526030815260200180611a276030913960400191505060405180910390fd5b6106f68383611176565b61093361092d610e2a565b82611268565b50565b6001600160a01b031660009081526066602052604090205490565b610959610b51565b6109aa576040805162461bcd60e51b815260206004820181905260248201527f4f776e61626c653a2063616c6c6572206973206e6f7420746865206f776e6572604482015290519081900360640190fd5b6033546040516000916001600160a01b0316907f8be0079c531659141344cd1fd0a4f28419497f9722a3daafe3b4186f6b6457e0908390a3603380547fffffffffffffffffffffffff0000000000000000000000000000000000000000169055565b610a168282611364565b5050565b600054610100900460ff1680610a335750610a33610f1a565b80610a41575060005460ff16155b610a7c5760405162461bcd60e51b815260040180806020018281038252602e815260200180611ac2602e913960400191505060405180910390fd5b600054610100900460ff16158015610aa7576000805460ff1961ff0019909116610100171660011790555b610aaf6113b8565b610ab830610cf2565b610b2e6040518060400160405280601f81526020017f43757276652e666920794441492f79555344432f79555344542f7954555344008152506040518060400160405280601681526020017f794441492b79555344432b79555344542b79545553440000000000000000000081525060126106ff565b8015610933576000805461ff001916905550565b6033546001600160a01b031690565b6033546000906001600160a01b0316610b68610e2a565b6001600160a01b031614905090565b609c8054604080516020601f60027fffffffffffffffffffffffffffffffffffffffffffffffffffffffffffffffff6101006001881615020190951694909404938401819004810282018101909252828152606093909290918301828280156106d75780601f106106ac576101008083540402835291602001916106d7565b610c016108d8610e2a565b610c3c5760405162461bcd60e51b8152600401808060200182810382526030815260200180611a276030913960400191505060405180910390fd5b61093381611455565b610c55610c50610e2a565b61149d565b565b60006106f6610c64610e2a565b8461085f85604051806060016040528060258152602001611b7e6025913960676000610c8e610e2a565b6001600160a01b03908116825260208083019390935260409182016000908120918d1681529252902054919063ffffffff61107e16565b60006106f6610cd2610e2a565b8484610f20565b6000610cec60d08363ffffffff6114e516565b92915050565b600054610100900460ff1680610d0b5750610d0b610f1a565b80610d19575060005460ff16155b610d545760405162461bcd60e51b815260040180806020018281038252602e815260200180611ac2602e913960400191505060405180910390fd5b600054610100900460ff16158015610d7f576000805460ff1961ff0019909116610100171660011790555b610d888261154c565b8015610a16576000805461ff00191690555050565b6001600160a01b03918216600090815260676020908152604080832093909416825291909152205490565b610dd0610b51565b610e21576040805162461bcd60e51b815260206004820181905260248201527f4f776e61626c653a2063616c6c6572206973206e6f7420746865206f776e6572604482015290519081900360640190fd5b610933816115ef565b3390565b6001600160a01b038316610e735760405162461bcd60e51b8152600401808060200182810382526024815260200180611b5a6024913960400191505060405180910390fd5b6001600160a01b038216610eb85760405162461bcd60e51b81526004018080602001828103825260228152602001806119df6022913960400191505060405180910390fd5b6001600160a01b03808416600081815260676020908152604080832094871680845294825291829020859055815185815291517f8c5be1e5ebec7d5bd14f71427d1e84f3dd0314c0f7b2291e5b200ac8c7c3b9259281900390910190a3505050565b303b1590565b6001600160a01b038316610f655760405162461bcd60e51b8152600401808060200182810382526025815260200180611b356025913960400191505060405180910390fd5b6001600160a01b038216610faa5760405162461bcd60e51b81526004018080602001828103825260238152602001806119746023913960400191505060405180910390fd5b610fed81604051806060016040528060268152602001611a01602691396001600160a01b038616600090815260666020526040902054919063ffffffff61107e16565b6001600160a01b038085166000908152606660205260408082209390935590841681522054611022908263ffffffff61111516565b6001600160a01b0380841660008181526066602090815260409182902094909455805185815290519193928716927fddf252ad1be2c89b69c2b068fc378daa952ba7f163c4a11628f55a4df523b3ef92918290030190a3505050565b6000818484111561110d5760405162461bcd60e51b81526004018080602001828103825283818151815260200191508051906020019080838360005b838110156110d25781810151838201526020016110ba565b50505050905090810190601f1680156110ff5780820380516001836020036101000a031916815260200191505b509250505060405180910390fd5b505050900390565b60008282018381101561116f576040805162461bcd60e51b815260206004820152601b60248201527f536166654d6174683a206164646974696f6e206f766572666c6f770000000000604482015290519081900360640190fd5b9392505050565b6001600160a01b0382166111d1576040805162461bcd60e51b815260206004820152601f60248201527f45524332303a206d696e7420746f20746865207a65726f206164647265737300604482015290519081900360640190fd5b6068546111e4908263ffffffff61111516565b6068556001600160a01b038216600090815260666020526040902054611210908263ffffffff61111516565b6001600160a01b03831660008181526066602090815260408083209490945583518581529351929391927fddf252ad1be2c89b69c2b068fc378daa952ba7f163c4a11628f55a4df523b3ef9281900390910190a35050565b6001600160a01b0382166112ad5760405162461bcd60e51b8152600401808060200182810382526021815260200180611b146021913960400191505060405180910390fd5b6112f081604051806060016040528060228152602001611997602291396001600160a01b038516600090815260666020526040902054919063ffffffff61107e16565b6001600160a01b03831660009081526066602052604090205560685461131c908263ffffffff6116a816565b6068556040805182815290516000916001600160a01b038516917fddf252ad1be2c89b69c2b068fc378daa952ba7f163c4a11628f55a4df523b3ef9181900360200190a35050565b61136e8282611268565b610a168261137a610e2a565b61085f84604051806060016040528060248152602001611af0602491396001600160a01b038816600090815260676020526040812090610838610e2a565b600054610100900460ff16806113d157506113d1610f1a565b806113df575060005460ff16155b61141a5760405162461bcd60e51b815260040180806020018281038252602e815260200180611ac2602e913960400191505060405180910390fd5b600054610100900460ff16158015611445576000805460ff1961ff0019909116610100171660011790555b610b2e611450610e2a565b6116ea565b61146660d08263ffffffff6117f316565b6040516001600160a01b038216907f6ae172837ea30b801fbfcdd4108aa1d5bf8ff775444fd70256b44e6bf3dfc3f690600090a250565b6114ae60d08263ffffffff61187416565b6040516001600160a01b038216907fe94479a9f7e1952cc78f2d6baab678adc1b772d936c6583def489e524cb6669290600090a250565b60006001600160a01b03821661152c5760405162461bcd60e51b8152600401808060200182810382526022815260200180611aa06022913960400191505060405180910390fd5b506001600160a01b03166000908152602091909152604090205460ff1690565b600054610100900460ff16806115655750611565610f1a565b80611573575060005460ff16155b6115ae5760405162461bcd60e51b815260040180806020018281038252602e815260200180611ac2602e913960400191505060405180910390fd5b600054610100900460ff161580156115d9576000805460ff1961ff0019909116610100171660011790555b6115e282610cd9565b610d8857610d8882611455565b6001600160a01b0381166116345760405162461bcd60e51b81526004018080602001828103825260268152602001806119b96026913960400191505060405180910390fd5b6033546040516001600160a01b038084169216907f8be0079c531659141344cd1fd0a4f28419497f9722a3daafe3b4186f6b6457e090600090a3603380547fffffffffffffffffffffffff0000000000000000000000000000000000000000166001600160a01b0392909216919091179055565b600061116f83836040518060400160405280601e81526020017f536166654d6174683a207375627472616374696f6e206f766572666c6f77000081525061107e565b600054610100900460ff16806117035750611703610f1a565b80611711575060005460ff16155b61174c5760405162461bcd60e51b815260040180806020018281038252602e815260200180611ac2602e913960400191505060405180910390fd5b600054610100900460ff16158015611777576000805460ff1961ff0019909116610100171660011790555b603380547fffffffffffffffffffffffff0000000000000000000000000000000000000000166001600160a01b0384811691909117918290556040519116906000907f8be0079c531659141344cd1fd0a4f28419497f9722a3daafe3b4186f6b6457e0908290a38015610a16576000805461ff00191690555050565b6117fd82826114e5565b1561184f576040805162461bcd60e51b815260206004820152601f60248201527f526f6c65733a206163636f756e7420616c72656164792068617320726f6c6500604482015290519081900360640190fd5b6001600160a01b0316600090815260209190915260409020805460ff19166001179055565b61187e82826114e5565b6118b95760405162461bcd60e51b8152600401808060200182810382526021815260200180611a576021913960400191505060405180910390fd5b6001600160a01b0316600090815260209190915260409020805460ff19169055565b828054600181600116156101000203166002900490600052602060002090601f016020900481019282601f1061191c57805160ff1916838001178555611949565b82800160010185558215611949579182015b8281111561194957825182559160200191906001019061192e565b50611955929150611959565b5090565b6106df91905b80821115611955576000815560010161195f56fe45524332303a207472616e7366657220746f20746865207a65726f206164647265737345524332303a206275726e20616d6f756e7420657863656564732062616c616e63654f776e61626c653a206e6577206f776e657220697320746865207a65726f206164647265737345524332303a20617070726f766520746f20746865207a65726f206164647265737345524332303a207472616e7366657220616d6f756e7420657863656564732062616c616e63654d696e746572526f6c653a2063616c6c657220646f6573206e6f74206861766520746865204d696e74657220726f6c65526f6c65733a206163636f756e7420646f6573206e6f74206861766520726f6c6545524332303a207472616e7366657220616d6f756e74206578636565647320616c6c6f77616e6365526f6c65733a206163636f756e7420697320746865207a65726f2061646472657373436f6e747261637420696e7374616e63652068617320616c7265616479206265656e20696e697469616c697a656445524332303a206275726e20616d6f756e74206578636565647320616c6c6f77616e636545524332303a206275726e2066726f6d20746865207a65726f206164647265737345524332303a207472616e736665722066726f6d20746865207a65726f206164647265737345524332303a20617070726f76652066726f6d20746865207a65726f206164647265737345524332303a2064656372656173656420616c6c6f77616e63652062656c6f77207a65726fa265627a7a72315820e400a2c258e637c3bdcd547f6febc0945df465010b621b69baa120d0f2b9084464736f6c634300051100324f776e61626c653a206e6577206f776e657220697320746865207a65726f20616464726573734375727665466953776170537475623a204e6f7420656e6f75676820737570706c794375727665466953776170537475623a20416c6c6f776564206275726e20616d6f756e74206973206e6f7420656e6f756768536166654d6174683a206d756c7469706c69636174696f6e206f766572666c6f774375727665466953776170537475623a2052657175657374656420616d6f756e7420697320746f6f2068696768436f6e747261637420696e7374616e63652068617320616c7265616479206265656e20696e697469616c697a65644375727665466953776170537475623a20526571756573746564206d696e7420616d6f756e7420697320746f6f2068696768a265627a7a72315820e942efaec98c62154ea273d605021c8f018aa1d90e50b938e595c97fff2cf86164736f6c63430005110032",
  "source": "pragma solidity ^0.5.12;\n\nimport \"@openzeppelin/contracts-ethereum-package/contracts/token/ERC20/IERC20.sol\";\nimport \"@openzeppelin/contracts-ethereum-package/contracts/token/ERC20/ERC20Detailed.sol\";\nimport \"@openzeppelin/contracts-ethereum-package/contracts/token/ERC20/ERC20Mintable.sol\";\nimport \"@openzeppelin/contracts-ethereum-package/contracts/token/ERC20/ERC20Burnable.sol\";\nimport \"@openzeppelin/contracts-ethereum-package/contracts/math/SafeMath.sol\";\nimport \"../interfaces/defi/IYErc20.sol\";\nimport \"../interfaces/defi/ICurveFiSwap.sol\";\nimport \"../interfaces/defi/ICurveFiSwap_Y.sol\";\nimport \"../common/Base.sol\";\nimport \"./CurveFiTokenStub_Y.sol\";\n\ncontract CurveFiSwapStub_Y is Base, ICurveFiSwap, ICurveFiSwap_Y {\n    using SafeMath for uint256;\n    uint256 public constant N_COINS = 4;\n    uint256 constant MAX_EXCHANGE_FEE = 0.05*1e18;\n\n    CurveFiTokenStub_Y public token;\n    address[N_COINS] _coins;\n\n    function initialize(address[N_COINS] memory __coins) public initializer {\n        Base.initialize();\n        _coins = __coins;\n        token = deployToken();\n    }\n\n    function add_liquidity (uint256[N_COINS] memory amounts, uint256 min_mint_amount) public {\n        uint256 fullAmount;\n        for (uint256 i=0; i < N_COINS; i++){\n            IERC20(_coins[i]).transferFrom(_msgSender(), address(this), amounts[i]);\n            fullAmount = fullAmount.add(normalizeAmount(_coins[i], amounts[i]));\n        }\n        (uint256 fee, bool bonus) = calculateExchangeFee(amounts, false);\n        if (bonus) {\n            fullAmount = fullAmount.add(fee);\n        } else {\n            fullAmount = fullAmount.sub(fee);\n        }\n        require(fullAmount >= min_mint_amount, \"CurveFiSwapStub: Requested mint amount is too high\");\n        require(token.mint(_msgSender(), fullAmount), \"CurveFiSwapStub: Mint failed\");\n    }\n\n    function remove_liquidity (uint256 _amount, uint256[N_COINS] memory min_amounts) public {\n        uint256 totalSupply = token.totalSupply();\n        uint256[] memory amounts = new uint256[](_coins.length);\n        for (uint256 i=0; i < _coins.length; i++){\n            uint256 balance = balances(int128(i));\n            amounts[i] = _amount.mul(balance).div(totalSupply);\n            require(amounts[i] >= min_amounts[i], \"CurveFiSwapStub: Requested amount is too high\");\n            IERC20(_coins[i]).transfer(_msgSender(), amounts[i]);\n        }\n        token.burnFrom(_msgSender(), _amount);\n    }\n\n    function remove_liquidity_imbalance(uint256[N_COINS] memory amounts, uint256 max_burn_amount) public {\n        uint256 fullAmount = calc_token_amount(amounts, false);\n        for (uint256 i=0; i < _coins.length; i++){\n            IERC20(_coins[i]).transfer(_msgSender(), amounts[i]);\n        }\n        require(max_burn_amount == 0 || fullAmount <= max_burn_amount, \"CurveFiSwapStub: Allowed burn amount is not enough\");\n        token.burnFrom(_msgSender(), fullAmount);\n    }\n\n    function calc_token_amount(uint256[N_COINS] memory amounts, bool deposit) public view returns(uint256) {\n        (uint256 fee, bool bonus) = calculateExchangeFee(amounts, deposit);\n        uint256 fullAmount;\n        for (uint256 i=0; i < _coins.length; i++){\n            uint256 balance = balances(int128(i));\n            require(balance >= amounts[i], \"CurveFiSwapStub: Not enough supply\");\n            fullAmount = fullAmount.add(amounts[i]);\n        }\n        if (bonus) {\n            fullAmount = fullAmount.sub(fee);\n        } else {\n            fullAmount = fullAmount.add(fee);\n        }\n        return fullAmount;\n    }\n\n    function balances(int128 i) public view returns(uint256) {\n        return IERC20(_coins[uint256(i)]).balanceOf(address(this));\n    }\n\n    function A() public view returns(uint256) {\n        this;\n        return 0;\n    }\n\n    function fee() public view returns(uint256) {\n        this;\n        return 0;\n    }\n\n    function coins(int128 i) public view returns (address) {\n        return _coins[uint256(i)];\n    }\n\n    function deployToken() internal returns(CurveFiTokenStub_Y){ \n        CurveFiTokenStub_Y tkn = new CurveFiTokenStub_Y();\n        tkn.initialize();\n        return tkn;\n    }    \n\n    function calculateExchangeFee(uint256[N_COINS] memory diff, bool deposit) internal view returns(uint256 fullFee, bool bonus){\n        uint256 averageAmount = 0;\n        uint256[] memory _balances = new uint256[](_coins.length);\n        for (uint256 i=0; i < _coins.length; i++){\n            _balances[i] = balances(int128(i));\n            averageAmount = averageAmount.add(_balances[i]);\n        }\n        averageAmount = averageAmount.div(_coins.length);\n        int256 totalFee;\n        for (uint256 i=0; i < _coins.length; i++){\n            int256 oldDiff = int256(_balances[i]) - int256(averageAmount);\n            int256 newDiff;\n            if (deposit) {\n                newDiff = oldDiff + int256(diff[i]);\n            } else {\n                newDiff = oldDiff - int256(diff[i]);\n            }\n             \n\n            uint256 maxFee = diff[i].mul(MAX_EXCHANGE_FEE).div(1e18);\n            int256 _fee;\n            if (oldDiff == 0) {\n                _fee = 0;\n            } else {\n                if (deposit){\n                    _fee = int256(MAX_EXCHANGE_FEE)*int256(diff[i]) / oldDiff;\n                } else {\n                    _fee = -1*int256(MAX_EXCHANGE_FEE)*int256(diff[i]) / oldDiff;\n                }\n            }\n            if (_fee > 0 && _fee > int256(maxFee)) _fee = int256(maxFee);\n            if (_fee < 0 && -1*_fee > int256(maxFee)) _fee = -1*int256(maxFee);\n            totalFee += _fee;\n        }\n        if (totalFee < 0){\n            bonus = true;\n            fullFee = uint256(-1*totalFee);\n        } else {\n            bonus = false;\n            fullFee = uint256(totalFee);\n        }\n    }\n\n    function normalizeAmount(address coin, uint256 amount) internal view returns(uint256){\n        uint8 decimals = ERC20Detailed(coin).decimals();\n        if (decimals < 18) {\n            return amount * uint256(10)**(18-decimals);\n        } else if (decimals > 18) {\n            return amount / uint256(10)**(decimals-18);\n        } else {\n            return amount;\n        }\n    }\n}",
  "sourcePath": "/Users/ilya/Documents/Akropolis/dca-strategy-bot/contracts/test/CurveFiSwapStub_Y.sol",
  "compiler": {
    "name": "solc",
    "version": "0.5.17+commit.d19bba13.Emscripten.clang"
  },
  "schemaVersion": "3.2.3",
  "updatedAt": "2020-08-07T11:30:43.225Z",
  "devdoc": {
    "methods": {
      "initialize(address)": {
        "details": "Initializes the contract setting the deployer as the initial owner."
      },
      "isOwner()": {
        "details": "Returns true if the caller is the current owner."
      },
      "owner()": {
        "details": "Returns the address of the current owner."
      },
      "renounceOwnership()": {
        "details": "Leaves the contract without owner. It will not be possible to call `onlyOwner` functions anymore. Can only be called by the current owner.     * > Note: Renouncing ownership will leave the contract without an owner, thereby removing any functionality that is only available to the owner."
      },
      "transferOwnership(address)": {
        "details": "Transfers ownership of the contract to a new account (`newOwner`). Can only be called by the current owner."
      }
    }
  },
  "userdoc": {
    "methods": {}
  }
}