{
  "contractName": "CurveFiTokenStub_SBTC",
  "abi": [
    {
      "anonymous": false,
      "inputs": [
        {
          "indexed": true,
          "internalType": "address",
          "name": "owner",
          "type": "address"
        },
        {
          "indexed": true,
          "internalType": "address",
          "name": "spender",
          "type": "address"
        },
        {
          "indexed": false,
          "internalType": "uint256",
          "name": "value",
          "type": "uint256"
        }
      ],
      "name": "Approval",
      "type": "event"
    },
    {
      "anonymous": false,
      "inputs": [
        {
          "indexed": true,
          "internalType": "address",
          "name": "account",
          "type": "address"
        }
      ],
      "name": "MinterAdded",
      "type": "event"
    },
    {
      "anonymous": false,
      "inputs": [
        {
          "indexed": true,
          "internalType": "address",
          "name": "account",
          "type": "address"
        }
      ],
      "name": "MinterRemoved",
      "type": "event"
    },
    {
      "anonymous": false,
      "inputs": [
        {
          "indexed": true,
          "internalType": "address",
          "name": "previousOwner",
          "type": "address"
        },
        {
          "indexed": true,
          "internalType": "address",
          "name": "newOwner",
          "type": "address"
        }
      ],
      "name": "OwnershipTransferred",
      "type": "event"
    },
    {
      "anonymous": false,
      "inputs": [
        {
          "indexed": true,
          "internalType": "address",
          "name": "from",
          "type": "address"
        },
        {
          "indexed": true,
          "internalType": "address",
          "name": "to",
          "type": "address"
        },
        {
          "indexed": false,
          "internalType": "uint256",
          "name": "value",
          "type": "uint256"
        }
      ],
      "name": "Transfer",
      "type": "event"
    },
    {
      "constant": false,
      "inputs": [
        {
          "internalType": "address",
          "name": "account",
          "type": "address"
        }
      ],
      "name": "addMinter",
      "outputs": [],
      "payable": false,
      "stateMutability": "nonpayable",
      "type": "function"
    },
    {
      "constant": true,
      "inputs": [
        {
          "internalType": "address",
          "name": "owner",
          "type": "address"
        },
        {
          "internalType": "address",
          "name": "spender",
          "type": "address"
        }
      ],
      "name": "allowance",
      "outputs": [
        {
          "internalType": "uint256",
          "name": "",
          "type": "uint256"
        }
      ],
      "payable": false,
      "stateMutability": "view",
      "type": "function"
    },
    {
      "constant": false,
      "inputs": [
        {
          "internalType": "address",
          "name": "spender",
          "type": "address"
        },
        {
          "internalType": "uint256",
          "name": "amount",
          "type": "uint256"
        }
      ],
      "name": "approve",
      "outputs": [
        {
          "internalType": "bool",
          "name": "",
          "type": "bool"
        }
      ],
      "payable": false,
      "stateMutability": "nonpayable",
      "type": "function"
    },
    {
      "constant": true,
      "inputs": [
        {
          "internalType": "address",
          "name": "account",
          "type": "address"
        }
      ],
      "name": "balanceOf",
      "outputs": [
        {
          "internalType": "uint256",
          "name": "",
          "type": "uint256"
        }
      ],
      "payable": false,
      "stateMutability": "view",
      "type": "function"
    },
    {
      "constant": false,
      "inputs": [
        {
          "internalType": "uint256",
          "name": "amount",
          "type": "uint256"
        }
      ],
      "name": "burn",
      "outputs": [],
      "payable": false,
      "stateMutability": "nonpayable",
      "type": "function"
    },
    {
      "constant": false,
      "inputs": [
        {
          "internalType": "address",
          "name": "account",
          "type": "address"
        },
        {
          "internalType": "uint256",
          "name": "amount",
          "type": "uint256"
        }
      ],
      "name": "burnFrom",
      "outputs": [],
      "payable": false,
      "stateMutability": "nonpayable",
      "type": "function"
    },
    {
      "constant": true,
      "inputs": [],
      "name": "decimals",
      "outputs": [
        {
          "internalType": "uint8",
          "name": "",
          "type": "uint8"
        }
      ],
      "payable": false,
      "stateMutability": "view",
      "type": "function"
    },
    {
      "constant": false,
      "inputs": [
        {
          "internalType": "address",
          "name": "spender",
          "type": "address"
        },
        {
          "internalType": "uint256",
          "name": "subtractedValue",
          "type": "uint256"
        }
      ],
      "name": "decreaseAllowance",
      "outputs": [
        {
          "internalType": "bool",
          "name": "",
          "type": "bool"
        }
      ],
      "payable": false,
      "stateMutability": "nonpayable",
      "type": "function"
    },
    {
      "constant": false,
      "inputs": [
        {
          "internalType": "address",
          "name": "spender",
          "type": "address"
        },
        {
          "internalType": "uint256",
          "name": "addedValue",
          "type": "uint256"
        }
      ],
      "name": "increaseAllowance",
      "outputs": [
        {
          "internalType": "bool",
          "name": "",
          "type": "bool"
        }
      ],
      "payable": false,
      "stateMutability": "nonpayable",
      "type": "function"
    },
    {
      "constant": true,
      "inputs": [
        {
          "internalType": "address",
          "name": "account",
          "type": "address"
        }
      ],
      "name": "isMinter",
      "outputs": [
        {
          "internalType": "bool",
          "name": "",
          "type": "bool"
        }
      ],
      "payable": false,
      "stateMutability": "view",
      "type": "function"
    },
    {
      "constant": true,
      "inputs": [],
      "name": "isOwner",
      "outputs": [
        {
          "internalType": "bool",
          "name": "",
          "type": "bool"
        }
      ],
      "payable": false,
      "stateMutability": "view",
      "type": "function"
    },
    {
      "constant": false,
      "inputs": [
        {
          "internalType": "address",
          "name": "account",
          "type": "address"
        },
        {
          "internalType": "uint256",
          "name": "amount",
          "type": "uint256"
        }
      ],
      "name": "mint",
      "outputs": [
        {
          "internalType": "bool",
          "name": "",
          "type": "bool"
        }
      ],
      "payable": false,
      "stateMutability": "nonpayable",
      "type": "function"
    },
    {
      "constant": true,
      "inputs": [],
      "name": "name",
      "outputs": [
        {
          "internalType": "string",
          "name": "",
          "type": "string"
        }
      ],
      "payable": false,
      "stateMutability": "view",
      "type": "function"
    },
    {
      "constant": true,
      "inputs": [],
      "name": "owner",
      "outputs": [
        {
          "internalType": "address",
          "name": "",
          "type": "address"
        }
      ],
      "payable": false,
      "stateMutability": "view",
      "type": "function"
    },
    {
      "constant": false,
      "inputs": [],
      "name": "renounceMinter",
      "outputs": [],
      "payable": false,
      "stateMutability": "nonpayable",
      "type": "function"
    },
    {
      "constant": false,
      "inputs": [],
      "name": "renounceOwnership",
      "outputs": [],
      "payable": false,
      "stateMutability": "nonpayable",
      "type": "function"
    },
    {
      "constant": true,
      "inputs": [],
      "name": "symbol",
      "outputs": [
        {
          "internalType": "string",
          "name": "",
          "type": "string"
        }
      ],
      "payable": false,
      "stateMutability": "view",
      "type": "function"
    },
    {
      "constant": true,
      "inputs": [],
      "name": "totalSupply",
      "outputs": [
        {
          "internalType": "uint256",
          "name": "",
          "type": "uint256"
        }
      ],
      "payable": false,
      "stateMutability": "view",
      "type": "function"
    },
    {
      "constant": false,
      "inputs": [
        {
          "internalType": "address",
          "name": "recipient",
          "type": "address"
        },
        {
          "internalType": "uint256",
          "name": "amount",
          "type": "uint256"
        }
      ],
      "name": "transfer",
      "outputs": [
        {
          "internalType": "bool",
          "name": "",
          "type": "bool"
        }
      ],
      "payable": false,
      "stateMutability": "nonpayable",
      "type": "function"
    },
    {
      "constant": false,
      "inputs": [
        {
          "internalType": "address",
          "name": "sender",
          "type": "address"
        },
        {
          "internalType": "address",
          "name": "recipient",
          "type": "address"
        },
        {
          "internalType": "uint256",
          "name": "amount",
          "type": "uint256"
        }
      ],
      "name": "transferFrom",
      "outputs": [
        {
          "internalType": "bool",
          "name": "",
          "type": "bool"
        }
      ],
      "payable": false,
      "stateMutability": "nonpayable",
      "type": "function"
    },
    {
      "constant": false,
      "inputs": [
        {
          "internalType": "address",
          "name": "newOwner",
          "type": "address"
        }
      ],
      "name": "transferOwnership",
      "outputs": [],
      "payable": false,
      "stateMutability": "nonpayable",
      "type": "function"
    },
    {
      "constant": false,
      "inputs": [
        {
          "internalType": "string",
          "name": "name",
          "type": "string"
        },
        {
          "internalType": "string",
          "name": "symbol",
          "type": "string"
        },
        {
          "internalType": "uint8",
          "name": "decimals",
          "type": "uint8"
        }
      ],
      "name": "initialize",
      "outputs": [],
      "payable": false,
      "stateMutability": "nonpayable",
      "type": "function"
    },
    {
      "constant": false,
      "inputs": [],
      "name": "initialize",
      "outputs": [],
      "payable": false,
      "stateMutability": "nonpayable",
      "type": "function"
    },
    {
      "constant": false,
      "inputs": [
        {
          "internalType": "address",
          "name": "sender",
          "type": "address"
        }
      ],
      "name": "initialize",
      "outputs": [],
      "payable": false,
      "stateMutability": "nonpayable",
      "type": "function"
    }
  ],
  "bytecode": "0x6080604052611bd7806100136000396000f3fe608060405234801561001057600080fd5b50600436106101985760003560e01c80638129fc1c116100e3578063a457c2d71161008c578063c4d66de811610066578063c4d66de8146105b3578063dd62ed3e146105d9578063f2fde38b1461060757610198565b8063a457c2d714610535578063a9059cbb14610561578063aa271e1a1461058d57610198565b806395d89b41116100bd57806395d89b41146104ff578063983b2d5614610507578063986502751461052d57610198565b80638129fc1c146104cb5780638da5cb5b146104d35780638f32d59b146104f757610198565b8063395093511161014557806370a082311161011f57806370a0823114610471578063715018a61461049757806379cc67901461049f57610198565b806339509351146103fc57806340c10f191461042857806342966c681461045457610198565b806318160ddd1161017657806318160ddd1461038e57806323b872dd146103a8578063313ce567146103de57610198565b806306fdde031461019d578063095ea7b31461021a5780631624f6c61461025a575b600080fd5b6101a561062d565b6040805160208082528351818301528351919283929083019185019080838360005b838110156101df5781810151838201526020016101c7565b50505050905090810190601f16801561020c5780820380516001836020036101000a031916815260200191505b509250505060405180910390f35b6102466004803603604081101561023057600080fd5b506001600160a01b0381351690602001356106e2565b604080519115158252519081900360200190f35b61038c6004803603606081101561027057600080fd5b81019060208101813564010000000081111561028b57600080fd5b82018360208201111561029d57600080fd5b803590602001918460018302840111640100000000831117156102bf57600080fd5b91908080601f016020809104026020016040519081016040528093929190818152602001838380828437600092019190915250929594936020810193503591505064010000000081111561031257600080fd5b82018360208201111561032457600080fd5b8035906020019184600183028401116401000000008311171561034657600080fd5b91908080601f0160208091040260200160405190810160405280939291908181526020018383808284376000920191909152509295505050903560ff1691506106ff9050565b005b6103966107db565b60408051918252519081900360200190f35b610246600480360360608110156103be57600080fd5b506001600160a01b038135811691602081013590911690604001356107e1565b6103e661086e565b6040805160ff9092168252519081900360200190f35b6102466004803603604081101561041257600080fd5b506001600160a01b038135169060200135610877565b6102466004803603604081101561043e57600080fd5b506001600160a01b0381351690602001356108cb565b61038c6004803603602081101561046a57600080fd5b5035610922565b6103966004803603602081101561048757600080fd5b50356001600160a01b0316610936565b61038c610951565b61038c600480360360408110156104b557600080fd5b506001600160a01b038135169060200135610a0c565b61038c610a1a565b6104db610b42565b604080516001600160a01b039092168252519081900360200190f35b610246610b51565b6101a5610b77565b61038c6004803603602081101561051d57600080fd5b50356001600160a01b0316610bf6565b61038c610c45565b6102466004803603604081101561054b57600080fd5b506001600160a01b038135169060200135610c57565b6102466004803603604081101561057757600080fd5b506001600160a01b038135169060200135610cc5565b610246600480360360208110156105a357600080fd5b50356001600160a01b0316610cd9565b61038c600480360360208110156105c957600080fd5b50356001600160a01b0316610cf2565b610396600480360360408110156105ef57600080fd5b506001600160a01b0381358116916020013516610d9d565b61038c6004803603602081101561061d57600080fd5b50356001600160a01b0316610dc8565b609b8054604080516020601f60027fffffffffffffffffffffffffffffffffffffffffffffffffffffffffffffffff6101006001881615020190951694909404938401819004810282018101909252828152606093909290918301828280156106d75780601f106106ac576101008083540402835291602001916106d7565b820191906000526020600020905b8154815290600101906020018083116106ba57829003601f168201915b505050505090505b90565b60006106f66106ef610e2a565b8484610e2e565b50600192915050565b600054610100900460ff16806107185750610718610f1a565b80610726575060005460ff16155b6107615760405162461bcd60e51b815260040180806020018281038252602e815260200180611ac2602e913960400191505060405180910390fd5b600054610100900460ff1615801561078c576000805460ff1961ff0019909116610100171660011790555b835161079f90609b9060208701906118db565b5082516107b390609c9060208601906118db565b50609d805460ff191660ff841617905580156107d5576000805461ff00191690555b50505050565b60685490565b60006107ee848484610f20565b610864846107fa610e2a565b61085f85604051806060016040528060288152602001611a78602891396001600160a01b038a16600090815260676020526040812090610838610e2a565b6001600160a01b03168152602081019190915260400160002054919063ffffffff61107e16565b610e2e565b5060019392505050565b609d5460ff1690565b60006106f6610884610e2a565b8461085f8560676000610895610e2a565b6001600160a01b03908116825260208083019390935260409182016000908120918c16815292529020549063ffffffff61111516565b60006108dd6108d8610e2a565b610cd9565b6109185760405162461bcd60e51b8152600401808060200182810382526030815260200180611a276030913960400191505060405180910390fd5b6106f68383611176565b61093361092d610e2a565b82611268565b50565b6001600160a01b031660009081526066602052604090205490565b610959610b51565b6109aa576040805162461bcd60e51b815260206004820181905260248201527f4f776e61626c653a2063616c6c6572206973206e6f7420746865206f776e6572604482015290519081900360640190fd5b6033546040516000916001600160a01b0316907f8be0079c531659141344cd1fd0a4f28419497f9722a3daafe3b4186f6b6457e0908390a3603380547fffffffffffffffffffffffff0000000000000000000000000000000000000000169055565b610a168282611364565b5050565b600054610100900460ff1680610a335750610a33610f1a565b80610a41575060005460ff16155b610a7c5760405162461bcd60e51b815260040180806020018281038252602e815260200180611ac2602e913960400191505060405180910390fd5b600054610100900460ff16158015610aa7576000805460ff1961ff0019909116610100171660011790555b610aaf6113b8565b610ab830610cf2565b610b2e6040518060400160405280601981526020017f43757276652e66692072656e4254432f774254432f73425443000000000000008152506040518060400160405280600b81526020017f63727652656e575342544300000000000000000000000000000000000000000081525060126106ff565b8015610933576000805461ff001916905550565b6033546001600160a01b031690565b6033546000906001600160a01b0316610b68610e2a565b6001600160a01b031614905090565b609c8054604080516020601f60027fffffffffffffffffffffffffffffffffffffffffffffffffffffffffffffffff6101006001881615020190951694909404938401819004810282018101909252828152606093909290918301828280156106d75780601f106106ac576101008083540402835291602001916106d7565b610c016108d8610e2a565b610c3c5760405162461bcd60e51b8152600401808060200182810382526030815260200180611a276030913960400191505060405180910390fd5b61093381611455565b610c55610c50610e2a565b61149d565b565b60006106f6610c64610e2a565b8461085f85604051806060016040528060258152602001611b7e6025913960676000610c8e610e2a565b6001600160a01b03908116825260208083019390935260409182016000908120918d1681529252902054919063ffffffff61107e16565b60006106f6610cd2610e2a565b8484610f20565b6000610cec60d08363ffffffff6114e516565b92915050565b600054610100900460ff1680610d0b5750610d0b610f1a565b80610d19575060005460ff16155b610d545760405162461bcd60e51b815260040180806020018281038252602e815260200180611ac2602e913960400191505060405180910390fd5b600054610100900460ff16158015610d7f576000805460ff1961ff0019909116610100171660011790555b610d888261154c565b8015610a16576000805461ff00191690555050565b6001600160a01b03918216600090815260676020908152604080832093909416825291909152205490565b610dd0610b51565b610e21576040805162461bcd60e51b815260206004820181905260248201527f4f776e61626c653a2063616c6c6572206973206e6f7420746865206f776e6572604482015290519081900360640190fd5b610933816115ef565b3390565b6001600160a01b038316610e735760405162461bcd60e51b8152600401808060200182810382526024815260200180611b5a6024913960400191505060405180910390fd5b6001600160a01b038216610eb85760405162461bcd60e51b81526004018080602001828103825260228152602001806119df6022913960400191505060405180910390fd5b6001600160a01b03808416600081815260676020908152604080832094871680845294825291829020859055815185815291517f8c5be1e5ebec7d5bd14f71427d1e84f3dd0314c0f7b2291e5b200ac8c7c3b9259281900390910190a3505050565b303b1590565b6001600160a01b038316610f655760405162461bcd60e51b8152600401808060200182810382526025815260200180611b356025913960400191505060405180910390fd5b6001600160a01b038216610faa5760405162461bcd60e51b81526004018080602001828103825260238152602001806119746023913960400191505060405180910390fd5b610fed81604051806060016040528060268152602001611a01602691396001600160a01b038616600090815260666020526040902054919063ffffffff61107e16565b6001600160a01b038085166000908152606660205260408082209390935590841681522054611022908263ffffffff61111516565b6001600160a01b0380841660008181526066602090815260409182902094909455805185815290519193928716927fddf252ad1be2c89b69c2b068fc378daa952ba7f163c4a11628f55a4df523b3ef92918290030190a3505050565b6000818484111561110d5760405162461bcd60e51b81526004018080602001828103825283818151815260200191508051906020019080838360005b838110156110d25781810151838201526020016110ba565b50505050905090810190601f1680156110ff5780820380516001836020036101000a031916815260200191505b509250505060405180910390fd5b505050900390565b60008282018381101561116f576040805162461bcd60e51b815260206004820152601b60248201527f536166654d6174683a206164646974696f6e206f766572666c6f770000000000604482015290519081900360640190fd5b9392505050565b6001600160a01b0382166111d1576040805162461bcd60e51b815260206004820152601f60248201527f45524332303a206d696e7420746f20746865207a65726f206164647265737300604482015290519081900360640190fd5b6068546111e4908263ffffffff61111516565b6068556001600160a01b038216600090815260666020526040902054611210908263ffffffff61111516565b6001600160a01b03831660008181526066602090815260408083209490945583518581529351929391927fddf252ad1be2c89b69c2b068fc378daa952ba7f163c4a11628f55a4df523b3ef9281900390910190a35050565b6001600160a01b0382166112ad5760405162461bcd60e51b8152600401808060200182810382526021815260200180611b146021913960400191505060405180910390fd5b6112f081604051806060016040528060228152602001611997602291396001600160a01b038516600090815260666020526040902054919063ffffffff61107e16565b6001600160a01b03831660009081526066602052604090205560685461131c908263ffffffff6116a816565b6068556040805182815290516000916001600160a01b038516917fddf252ad1be2c89b69c2b068fc378daa952ba7f163c4a11628f55a4df523b3ef9181900360200190a35050565b61136e8282611268565b610a168261137a610e2a565b61085f84604051806060016040528060248152602001611af0602491396001600160a01b038816600090815260676020526040812090610838610e2a565b600054610100900460ff16806113d157506113d1610f1a565b806113df575060005460ff16155b61141a5760405162461bcd60e51b815260040180806020018281038252602e815260200180611ac2602e913960400191505060405180910390fd5b600054610100900460ff16158015611445576000805460ff1961ff0019909116610100171660011790555b610b2e611450610e2a565b6116ea565b61146660d08263ffffffff6117f316565b6040516001600160a01b038216907f6ae172837ea30b801fbfcdd4108aa1d5bf8ff775444fd70256b44e6bf3dfc3f690600090a250565b6114ae60d08263ffffffff61187416565b6040516001600160a01b038216907fe94479a9f7e1952cc78f2d6baab678adc1b772d936c6583def489e524cb6669290600090a250565b60006001600160a01b03821661152c5760405162461bcd60e51b8152600401808060200182810382526022815260200180611aa06022913960400191505060405180910390fd5b506001600160a01b03166000908152602091909152604090205460ff1690565b600054610100900460ff16806115655750611565610f1a565b80611573575060005460ff16155b6115ae5760405162461bcd60e51b815260040180806020018281038252602e815260200180611ac2602e913960400191505060405180910390fd5b600054610100900460ff161580156115d9576000805460ff1961ff0019909116610100171660011790555b6115e282610cd9565b610d8857610d8882611455565b6001600160a01b0381166116345760405162461bcd60e51b81526004018080602001828103825260268152602001806119b96026913960400191505060405180910390fd5b6033546040516001600160a01b038084169216907f8be0079c531659141344cd1fd0a4f28419497f9722a3daafe3b4186f6b6457e090600090a3603380547fffffffffffffffffffffffff0000000000000000000000000000000000000000166001600160a01b0392909216919091179055565b600061116f83836040518060400160405280601e81526020017f536166654d6174683a207375627472616374696f6e206f766572666c6f77000081525061107e565b600054610100900460ff16806117035750611703610f1a565b80611711575060005460ff16155b61174c5760405162461bcd60e51b815260040180806020018281038252602e815260200180611ac2602e913960400191505060405180910390fd5b600054610100900460ff16158015611777576000805460ff1961ff0019909116610100171660011790555b603380547fffffffffffffffffffffffff0000000000000000000000000000000000000000166001600160a01b0384811691909117918290556040519116906000907f8be0079c531659141344cd1fd0a4f28419497f9722a3daafe3b4186f6b6457e0908290a38015610a16576000805461ff00191690555050565b6117fd82826114e5565b1561184f576040805162461bcd60e51b815260206004820152601f60248201527f526f6c65733a206163636f756e7420616c72656164792068617320726f6c6500604482015290519081900360640190fd5b6001600160a01b0316600090815260209190915260409020805460ff19166001179055565b61187e82826114e5565b6118b95760405162461bcd60e51b8152600401808060200182810382526021815260200180611a576021913960400191505060405180910390fd5b6001600160a01b0316600090815260209190915260409020805460ff19169055565b828054600181600116156101000203166002900490600052602060002090601f016020900481019282601f1061191c57805160ff1916838001178555611949565b82800160010185558215611949579182015b8281111561194957825182559160200191906001019061192e565b50611955929150611959565b5090565b6106df91905b80821115611955576000815560010161195f56fe45524332303a207472616e7366657220746f20746865207a65726f206164647265737345524332303a206275726e20616d6f756e7420657863656564732062616c616e63654f776e61626c653a206e6577206f776e657220697320746865207a65726f206164647265737345524332303a20617070726f766520746f20746865207a65726f206164647265737345524332303a207472616e7366657220616d6f756e7420657863656564732062616c616e63654d696e746572526f6c653a2063616c6c657220646f6573206e6f74206861766520746865204d696e74657220726f6c65526f6c65733a206163636f756e7420646f6573206e6f74206861766520726f6c6545524332303a207472616e7366657220616d6f756e74206578636565647320616c6c6f77616e6365526f6c65733a206163636f756e7420697320746865207a65726f2061646472657373436f6e747261637420696e7374616e63652068617320616c7265616479206265656e20696e697469616c697a656445524332303a206275726e20616d6f756e74206578636565647320616c6c6f77616e636545524332303a206275726e2066726f6d20746865207a65726f206164647265737345524332303a207472616e736665722066726f6d20746865207a65726f206164647265737345524332303a20617070726f76652066726f6d20746865207a65726f206164647265737345524332303a2064656372656173656420616c6c6f77616e63652062656c6f77207a65726fa265627a7a72315820820d0b4b7fabe03c0cfd83b79883c90eae8893c54ccfffdd530e7c7a2e11a8e964736f6c63430005110032",
  "source": "pragma solidity ^0.5.12;\n\nimport \"@openzeppelin/contracts-ethereum-package/contracts/token/ERC20/IERC20.sol\";\nimport \"@openzeppelin/contracts-ethereum-package/contracts/token/ERC20/ERC20.sol\";\nimport \"@openzeppelin/contracts-ethereum-package/contracts/token/ERC20/ERC20Detailed.sol\";\nimport \"@openzeppelin/contracts-ethereum-package/contracts/token/ERC20/ERC20Mintable.sol\";\nimport \"@openzeppelin/contracts-ethereum-package/contracts/token/ERC20/ERC20Burnable.sol\";\nimport \"../common/Base.sol\";\n\n\ncontract CurveFiTokenStub_SBTC is Base, ERC20, ERC20Detailed, ERC20Mintable, ERC20Burnable {\n    function initialize() public initializer {\n        Base.initialize();\n        ERC20Mintable.initialize(address(this));\n        ERC20Detailed.initialize(\"Curve.fi renBTC/wBTC/sBTC\", \"crvRenWSBTC\", 18);\n    }\n}",
  "sourcePath": "/Users/ilya/Documents/Akropolis/dca-strategy-bot/contracts/test/CurveFiTokenStub_SBTC.sol",
  "compiler": {
    "name": "solc",
    "version": "0.5.17+commit.d19bba13.Emscripten.clang"
  },
  "schemaVersion": "3.2.3",
  "updatedAt": "2020-08-10T19:11:24.454Z",
  "devdoc": {
    "methods": {
      "allowance(address,address)": {
        "details": "See {IERC20-allowance}."
      },
      "approve(address,uint256)": {
        "details": "See {IERC20-approve}.     * Requirements:     * - `spender` cannot be the zero address."
      },
      "balanceOf(address)": {
        "details": "See {IERC20-balanceOf}."
      },
      "burn(uint256)": {
        "details": "Destroys `amount` tokens from the caller.     * See {ERC20-_burn}."
      },
      "burnFrom(address,uint256)": {
        "details": "See {ERC20-_burnFrom}."
      },
      "decimals()": {
        "details": "Returns the number of decimals used to get its user representation. For example, if `decimals` equals `2`, a balance of `505` tokens should be displayed to a user as `5,05` (`505 / 10 ** 2`).     * Tokens usually opt for a value of 18, imitating the relationship between Ether and Wei.     * NOTE: This information is only used for _display_ purposes: it in no way affects any of the arithmetic of the contract, including {IERC20-balanceOf} and {IERC20-transfer}."
      },
      "decreaseAllowance(address,uint256)": {
        "details": "Atomically decreases the allowance granted to `spender` by the caller.     * This is an alternative to {approve} that can be used as a mitigation for problems described in {IERC20-approve}.     * Emits an {Approval} event indicating the updated allowance.     * Requirements:     * - `spender` cannot be the zero address. - `spender` must have allowance for the caller of at least `subtractedValue`."
      },
      "increaseAllowance(address,uint256)": {
        "details": "Atomically increases the allowance granted to `spender` by the caller.     * This is an alternative to {approve} that can be used as a mitigation for problems described in {IERC20-approve}.     * Emits an {Approval} event indicating the updated allowance.     * Requirements:     * - `spender` cannot be the zero address."
      },
      "initialize(string,string,uint8)": {
        "details": "Sets the values for `name`, `symbol`, and `decimals`. All three of these values are immutable: they can only be set once during construction."
      },
      "isOwner()": {
        "details": "Returns true if the caller is the current owner."
      },
      "mint(address,uint256)": {
        "details": "See {ERC20-_mint}.     * Requirements:     * - the caller must have the {MinterRole}."
      },
      "name()": {
        "details": "Returns the name of the token."
      },
      "owner()": {
        "details": "Returns the address of the current owner."
      },
      "renounceOwnership()": {
        "details": "Leaves the contract without owner. It will not be possible to call `onlyOwner` functions anymore. Can only be called by the current owner.     * > Note: Renouncing ownership will leave the contract without an owner, thereby removing any functionality that is only available to the owner."
      },
      "symbol()": {
        "details": "Returns the symbol of the token, usually a shorter version of the name."
      },
      "totalSupply()": {
        "details": "See {IERC20-totalSupply}."
      },
      "transfer(address,uint256)": {
        "details": "See {IERC20-transfer}.     * Requirements:     * - `recipient` cannot be the zero address. - the caller must have a balance of at least `amount`."
      },
      "transferFrom(address,address,uint256)": {
        "details": "See {IERC20-transferFrom}.     * Emits an {Approval} event indicating the updated allowance. This is not required by the EIP. See the note at the beginning of {ERC20};     * Requirements: - `sender` and `recipient` cannot be the zero address. - `sender` must have a balance of at least `amount`. - the caller must have allowance for `sender`'s tokens of at least `amount`."
      },
      "transferOwnership(address)": {
        "details": "Transfers ownership of the contract to a new account (`newOwner`). Can only be called by the current owner."
      }
    }
  },
  "userdoc": {
    "methods": {}
  }
}