{
  "contractName": "CurveFiDepositStub_Y",
  "abi": [
    {
      "anonymous": false,
      "inputs": [
        {
          "indexed": true,
          "internalType": "address",
          "name": "previousOwner",
          "type": "address"
        },
        {
          "indexed": true,
          "internalType": "address",
          "name": "newOwner",
          "type": "address"
        }
      ],
      "name": "OwnershipTransferred",
      "type": "event"
    },
    {
      "constant": true,
      "inputs": [],
      "name": "N_COINS",
      "outputs": [
        {
          "internalType": "uint256",
          "name": "",
          "type": "uint256"
        }
      ],
      "payable": false,
      "stateMutability": "view",
      "type": "function"
    },
    {
      "constant": true,
      "inputs": [],
      "name": "curveFiSwap",
      "outputs": [
        {
          "internalType": "contract CurveFiSwapStub_Y",
          "name": "",
          "type": "address"
        }
      ],
      "payable": false,
      "stateMutability": "view",
      "type": "function"
    },
    {
      "constant": true,
      "inputs": [],
      "name": "isOwner",
      "outputs": [
        {
          "internalType": "bool",
          "name": "",
          "type": "bool"
        }
      ],
      "payable": false,
      "stateMutability": "view",
      "type": "function"
    },
    {
      "constant": true,
      "inputs": [],
      "name": "owner",
      "outputs": [
        {
          "internalType": "address",
          "name": "",
          "type": "address"
        }
      ],
      "payable": false,
      "stateMutability": "view",
      "type": "function"
    },
    {
      "constant": false,
      "inputs": [],
      "name": "renounceOwnership",
      "outputs": [],
      "payable": false,
      "stateMutability": "nonpayable",
      "type": "function"
    },
    {
      "constant": true,
      "inputs": [],
      "name": "token",
      "outputs": [
        {
          "internalType": "contract IERC20",
          "name": "",
          "type": "address"
        }
      ],
      "payable": false,
      "stateMutability": "view",
      "type": "function"
    },
    {
      "constant": false,
      "inputs": [
        {
          "internalType": "address",
          "name": "newOwner",
          "type": "address"
        }
      ],
      "name": "transferOwnership",
      "outputs": [],
      "payable": false,
      "stateMutability": "nonpayable",
      "type": "function"
    },
    {
      "constant": false,
      "inputs": [],
      "name": "initialize",
      "outputs": [],
      "payable": false,
      "stateMutability": "nonpayable",
      "type": "function"
    },
    {
      "constant": false,
      "inputs": [
        {
          "internalType": "address",
          "name": "_curveFiSwap",
          "type": "address"
        }
      ],
      "name": "initialize",
      "outputs": [],
      "payable": false,
      "stateMutability": "nonpayable",
      "type": "function"
    },
    {
      "constant": false,
      "inputs": [
        {
          "internalType": "uint256[4]",
          "name": "uamounts",
          "type": "uint256[4]"
        },
        {
          "internalType": "uint256",
          "name": "min_mint_amount",
          "type": "uint256"
        }
      ],
      "name": "add_liquidity",
      "outputs": [],
      "payable": false,
      "stateMutability": "nonpayable",
      "type": "function"
    },
    {
      "constant": false,
      "inputs": [
        {
          "internalType": "uint256",
          "name": "_amount",
          "type": "uint256"
        },
        {
          "internalType": "uint256[4]",
          "name": "min_uamounts",
          "type": "uint256[4]"
        }
      ],
      "name": "remove_liquidity",
      "outputs": [],
      "payable": false,
      "stateMutability": "nonpayable",
      "type": "function"
    },
    {
      "constant": false,
      "inputs": [
        {
          "internalType": "uint256[4]",
          "name": "uamounts",
          "type": "uint256[4]"
        },
        {
          "internalType": "uint256",
          "name": "max_burn_amount",
          "type": "uint256"
        }
      ],
      "name": "remove_liquidity_imbalance",
      "outputs": [],
      "payable": false,
      "stateMutability": "nonpayable",
      "type": "function"
    },
    {
      "constant": false,
      "inputs": [
        {
          "internalType": "uint256",
          "name": "_token_amount",
          "type": "uint256"
        },
        {
          "internalType": "int128",
          "name": "i",
          "type": "int128"
        },
        {
          "internalType": "uint256",
          "name": "min_uamount",
          "type": "uint256"
        }
      ],
      "name": "remove_liquidity_one_coin",
      "outputs": [],
      "payable": false,
      "stateMutability": "nonpayable",
      "type": "function"
    },
    {
      "constant": false,
      "inputs": [
        {
          "internalType": "uint256",
          "name": "_token_amount",
          "type": "uint256"
        },
        {
          "internalType": "int128",
          "name": "_i",
          "type": "int128"
        },
        {
          "internalType": "uint256",
          "name": "min_uamount",
          "type": "uint256"
        },
        {
          "internalType": "bool",
          "name": "donate_dust",
          "type": "bool"
        }
      ],
      "name": "remove_liquidity_one_coin",
      "outputs": [],
      "payable": false,
      "stateMutability": "nonpayable",
      "type": "function"
    },
    {
      "constant": false,
      "inputs": [],
      "name": "withdraw_donated_dust",
      "outputs": [],
      "payable": false,
      "stateMutability": "nonpayable",
      "type": "function"
    },
    {
      "constant": true,
      "inputs": [
        {
          "internalType": "int128",
          "name": "i",
          "type": "int128"
        }
      ],
      "name": "coins",
      "outputs": [
        {
          "internalType": "address",
          "name": "",
          "type": "address"
        }
      ],
      "payable": false,
      "stateMutability": "view",
      "type": "function"
    },
    {
      "constant": true,
      "inputs": [
        {
          "internalType": "int128",
          "name": "i",
          "type": "int128"
        }
      ],
      "name": "underlying_coins",
      "outputs": [
        {
          "internalType": "address",
          "name": "",
          "type": "address"
        }
      ],
      "payable": false,
      "stateMutability": "view",
      "type": "function"
    },
    {
      "constant": true,
      "inputs": [],
      "name": "curve",
      "outputs": [
        {
          "internalType": "address",
          "name": "",
          "type": "address"
        }
      ],
      "payable": false,
      "stateMutability": "view",
      "type": "function"
    },
    {
      "constant": true,
      "inputs": [
        {
          "internalType": "uint256",
          "name": "_token_amount",
          "type": "uint256"
        },
        {
          "internalType": "int128",
          "name": "i",
          "type": "int128"
        }
      ],
      "name": "calc_withdraw_one_coin",
      "outputs": [
        {
          "internalType": "uint256",
          "name": "",
          "type": "uint256"
        }
      ],
      "payable": false,
      "stateMutability": "view",
      "type": "function"
    }
  ],
  "bytecode": "0x60806040526120ab806100136000396000f3fe608060405234801561001057600080fd5b50600436106101515760003560e01c80637d49d875116100cd578063c4d66de811610081578063cc2b27d711610066578063cc2b27d71461039e578063f2fde38b146103c4578063fc0c546a146103ea57610151565b8063c4d66de814610370578063c4ee03041461039657610151565b80638da5cb5b116100b25780638da5cb5b1461032c5780638f32d59b14610334578063b739953e1461035057610151565b80637d49d875146102ce5780638129fc1c1461032457610151565b806329357750116101245780636c956a54116101095780636c956a54146102b6578063715018a6146102be5780637165485d146102c657610151565b80632935775014610268578063517a55a31461028257610151565b8063029b2f341461015657806318a7bd76146101ac5780631a4d01d21461020057806323746eb81461022c575b600080fd5b6101aa600480360360a081101561016c57600080fd5b810190808060800190600480602002604051908101604052809291908260046020028082843760009201919091525091945050903591506103f29050565b005b6101aa600480360360a08110156101c257600080fd5b810190808060800190600480602002604051908101604052809291908260046020028082843760009201919091525091945050903591506108389050565b6101aa6004803603606081101561021657600080fd5b508035906020810135600f0b9060400135610c9b565b61024c6004803603602081101561024257600080fd5b5035600f0b610cad565b604080516001600160a01b039092168252519081900360200190f35b610270610cd0565b60408051918252519081900360200190f35b6101aa6004803603608081101561029857600080fd5b508035906020810135600f0b90604081013590606001351515610cd5565b6101aa610fef565b6101aa61116e565b61024c611229565b6101aa600480360360a08110156102e457600080fd5b604080516080818101909252833593928301929160a083019190602084019060049083908390808284376000920191909152509194506112389350505050565b6101aa6113c4565b61024c611494565b61033c6114a3565b604080519115158252519081900360200190f35b61024c6004803603602081101561036657600080fd5b5035600f0b6114c9565b6101aa6004803603602081101561038657600080fd5b50356001600160a01b03166114db565b61024c61184e565b610270600480360360408110156103b457600080fd5b5080359060200135600f0b61185d565b6101aa600480360360208110156103da57600080fd5b50356001600160a01b031661188d565b61024c6118ef565b6103fa611f5b565b506040805160808101825260008082526020820181905291810182905260608101829052905b600481101561066057606b816003811061043657fe5b01546001600160a01b03166323b872dd61044e6118fe565b3087856004811061045b57fe5b60200201516040518463ffffffff1660e01b815260040180846001600160a01b03166001600160a01b03168152602001836001600160a01b03166001600160a01b031681526020018281526020019350505050602060405180830381600087803b1580156104c857600080fd5b505af11580156104dc573d6000803e3d6000fd5b505050506040513d60208110156104f257600080fd5b505161052f5760405162461bcd60e51b81526004018080602001828103825260318152602001806120466031913960400191505060405180910390fd5b6068816003811061053c57fe5b01546001600160a01b031663b6b55f2585836004811061055857fe5b60200201516040518263ffffffff1660e01b815260040180828152602001915050600060405180830381600087803b15801561059357600080fd5b505af11580156105a7573d6000803e3d6000fd5b50505050606881600381106105b857fe5b0154604080517f70a0823100000000000000000000000000000000000000000000000000000000815230600482015290516001600160a01b03909216916370a0823191602480820192602092909190829003018186803b15801561061b57600080fd5b505afa15801561062f573d6000803e3d6000fd5b505050506040513d602081101561064557600080fd5b505182826004811061065357fe5b6020020152600101610420565b506066546040517f029b2f340000000000000000000000000000000000000000000000000000000081526001600160a01b039091169063029b2f3490839085906004018083608080838360005b838110156106c55781810151838201526020016106ad565b5050505090500182815260200192505050600060405180830381600087803b1580156106f057600080fd5b505af1158015610704573d6000803e3d6000fd5b5050606754604080517f70a082310000000000000000000000000000000000000000000000000000000081523060048201529051600094506001600160a01b0390921692506370a08231916024808301926020929190829003018186803b15801561076e57600080fd5b505afa158015610782573d6000803e3d6000fd5b505050506040513d602081101561079857600080fd5b50516067549091506001600160a01b031663a9059cbb6107b66118fe565b836040518363ffffffff1660e01b815260040180836001600160a01b03166001600160a01b0316815260200182815260200192505050602060405180830381600087803b15801561080657600080fd5b505af115801561081a573d6000803e3d6000fd5b505050506040513d602081101561083057600080fd5b505050505050565b610840611f5b565b506040805160808101825260008082526020820181905291810182905260608101829052905b60048110156109465761092d6068826003811061087f57fe5b0160009054906101000a90046001600160a01b03166001600160a01b03166377c7b8fc6040518163ffffffff1660e01b815260040160206040518083038186803b1580156108cc57600080fd5b505afa1580156108e0573d6000803e3d6000fd5b505050506040513d60208110156108f657600080fd5b5051610921670de0b6b3a764000087856004811061091057fe5b60200201519063ffffffff61190216565b9063ffffffff61195b16565b82826004811061093957fe5b6020020152600101610866565b506067546000906001600160a01b03166370a082316109636118fe565b6040518263ffffffff1660e01b815260040180826001600160a01b03166001600160a01b0316815260200191505060206040518083038186803b1580156109a957600080fd5b505afa1580156109bd573d6000803e3d6000fd5b505050506040513d60208110156109d357600080fd5b50519050828111156109e25750815b6067546001600160a01b03166323b872dd6109fb6118fe565b604080517fffffffff0000000000000000000000000000000000000000000000000000000060e085901b1681526001600160a01b039092166004830152306024830152604482018590525160648083019260209291908290030181600087803b158015610a6757600080fd5b505af1158015610a7b573d6000803e3d6000fd5b505050506040513d6020811015610a9157600080fd5b50506066546040517f18a7bd760000000000000000000000000000000000000000000000000000000081526001600160a01b03909116906318a7bd7690849084906004018083608080838360005b83811015610af7578181015183820152602001610adf565b5050505090500182815260200192505050600060405180830381600087803b158015610b2257600080fd5b505af1158015610b36573d6000803e3d6000fd5b50506067546001600160a01b031691506370a082319050610b556118fe565b6040518263ffffffff1660e01b815260040180826001600160a01b03166001600160a01b0316815260200191505060206040518083038186803b158015610b9b57600080fd5b505afa158015610baf573d6000803e3d6000fd5b505050506040513d6020811015610bc557600080fd5b50516067549091506001600160a01b031663a9059cbb610be36118fe565b836040518363ffffffff1660e01b815260040180836001600160a01b03166001600160a01b0316815260200182815260200192505050602060405180830381600087803b158015610c3357600080fd5b505af1158015610c47573d6000803e3d6000fd5b505050506040513d6020811015610c5d57600080fd5b50610c959050610c6b6118fe565b6040518060800160405280600081526020016000815260200160008152602001600081525061199d565b50505050565b610ca88383836000610cd5565b505050565b6000606882600f0b60038110610cbf57fe5b01546001600160a01b031692915050565b600481565b610cdd611f5b565b604051806080016040528060008152602001600081526020016000815260200160008152509050600084600f0b9050610dad60688260038110610d1c57fe5b0160009054906101000a90046001600160a01b03166001600160a01b03166377c7b8fc6040518163ffffffff1660e01b815260040160206040518083038186803b158015610d6957600080fd5b505afa158015610d7d573d6000803e3d6000fd5b505050506040513d6020811015610d9357600080fd5b505161092186670de0b6b3a764000063ffffffff61190216565b828260048110610db957fe5b60200201526066546040517f18a7bd760000000000000000000000000000000000000000000000000000000081526001600160a01b03909116906318a7bd7690849089906004018083608080838360005b83811015610e22578181015183820152602001610e0a565b5050505090500182815260200192505050600060405180830381600087803b158015610e4d57600080fd5b505af1158015610e61573d6000803e3d6000fd5b50505050610e6d611f5b565b60405180608001604052806000815260200160008152602001600081526020016000815250905084818360048110610ea157fe5b6020020152610eb7610eb16118fe565b8261199d565b83610fe657606754604080517f70a0823100000000000000000000000000000000000000000000000000000000815230600482015290516000926001600160a01b0316916370a08231916024808301926020929190829003018186803b158015610f2057600080fd5b505afa158015610f34573d6000803e3d6000fd5b505050506040513d6020811015610f4a57600080fd5b50516067549091506001600160a01b031663a9059cbb610f686118fe565b836040518363ffffffff1660e01b815260040180836001600160a01b03166001600160a01b0316815260200182815260200192505050602060405180830381600087803b158015610fb857600080fd5b505af1158015610fcc573d6000803e3d6000fd5b505050506040513d6020811015610fe257600080fd5b5050505b50505050505050565b610ff76114a3565b611048576040805162461bcd60e51b815260206004820181905260248201527f4f776e61626c653a2063616c6c6572206973206e6f7420746865206f776e6572604482015290519081900360640190fd5b606754604080517f70a0823100000000000000000000000000000000000000000000000000000000815230600482015290516000926001600160a01b0316916370a08231916024808301926020929190829003018186803b1580156110ac57600080fd5b505afa1580156110c0573d6000803e3d6000fd5b505050506040513d60208110156110d657600080fd5b50516067549091506001600160a01b031663a9059cbb6110f4611494565b836040518363ffffffff1660e01b815260040180836001600160a01b03166001600160a01b0316815260200182815260200192505050602060405180830381600087803b15801561114457600080fd5b505af1158015611158573d6000803e3d6000fd5b505050506040513d6020811015610ca857600080fd5b6111766114a3565b6111c7576040805162461bcd60e51b815260206004820181905260248201527f4f776e61626c653a2063616c6c6572206973206e6f7420746865206f776e6572604482015290519081900360640190fd5b6033546040516000916001600160a01b0316907f8be0079c531659141344cd1fd0a4f28419497f9722a3daafe3b4186f6b6457e0908390a3603380547fffffffffffffffffffffffff0000000000000000000000000000000000000000169055565b6066546001600160a01b031690565b6067546001600160a01b03166323b872dd6112516118fe565b604080517fffffffff0000000000000000000000000000000000000000000000000000000060e085901b1681526001600160a01b039092166004830152306024830152604482018690525160648083019260209291908290030181600087803b1580156112bd57600080fd5b505af11580156112d1573d6000803e3d6000fd5b505050506040513d60208110156112e757600080fd5b505060665460408051608080820183526000808352602083018190528284018190526060830181905292517f7d49d875000000000000000000000000000000000000000000000000000000008152600481018781526001600160a01b0390951694637d49d8759488949391926024019184918190849084905b83811015611378578181015183820152602001611360565b5050505090500192505050600060405180830381600087803b15801561139d57600080fd5b505af11580156113b1573d6000803e3d6000fd5b505050506113c0610eb16118fe565b5050565b600054610100900460ff16806113dd57506113dd611cd3565b806113eb575060005460ff16155b6114265760405162461bcd60e51b815260040180806020018281038252602e815260200180612018602e913960400191505060405180910390fd5b600054610100900460ff1615801561146f57600080547fffffffffffffffffffffffffffffffffffffffffffffffffffffffffffffff0061ff0019909116610100171660011790555b61147f61147a6118fe565b611cd9565b8015611491576000805461ff00191690555b50565b6033546001600160a01b031690565b6033546000906001600160a01b03166114ba6118fe565b6001600160a01b031614905090565b6000606b82600f0b60038110610cbf57fe5b600054610100900460ff16806114f457506114f4611cd3565b80611502575060005460ff16155b61153d5760405162461bcd60e51b815260040180806020018281038252602e815260200180612018602e913960400191505060405180910390fd5b600054610100900460ff1615801561158657600080547fffffffffffffffffffffffffffffffffffffffffffffffffffffffffffffff0061ff0019909116610100171660011790555b61158e6113c4565b606680547fffffffffffffffffffffffff0000000000000000000000000000000000000000166001600160a01b038481169190911791829055604080517ffc0c546a0000000000000000000000000000000000000000000000000000000081529051929091169163fc0c546a91600480820192602092909190829003018186803b15801561161b57600080fd5b505afa15801561162f573d6000803e3d6000fd5b505050506040513d602081101561164557600080fd5b5051606780547fffffffffffffffffffffffff0000000000000000000000000000000000000000166001600160a01b0390921691909117905560005b600481101561183857606654604080517f23746eb8000000000000000000000000000000000000000000000000000000008152600f84810b900b600482015290516001600160a01b03909216916323746eb891602480820192602092909190829003018186803b1580156116f457600080fd5b505afa158015611708573d6000803e3d6000fd5b505050506040513d602081101561171e57600080fd5b50516068826003811061172d57fe5b0180547fffffffffffffffffffffffff0000000000000000000000000000000000000000166001600160a01b03929092169190911790556068816003811061177157fe5b0160009054906101000a90046001600160a01b03166001600160a01b031663fc0c546a6040518163ffffffff1660e01b8152600401602060405180830381600087803b1580156117c057600080fd5b505af11580156117d4573d6000803e3d6000fd5b505050506040513d60208110156117ea57600080fd5b5051606b82600381106117f957fe5b0180547fffffffffffffffffffffffff0000000000000000000000000000000000000000166001600160a01b0392909216919091179055600101611681565b5080156113c0576000805461ff00191690555050565b6066546001600160a01b031681565b600061188461187684600f85900b63ffffffff61190216565b60009063ffffffff61190216565b90505b92915050565b6118956114a3565b6118e6576040805162461bcd60e51b815260206004820181905260248201527f4f776e61626c653a2063616c6c6572206973206e6f7420746865206f776e6572604482015290519081900360640190fd5b61149181611e00565b6067546001600160a01b031681565b3390565b60008261191157506000611887565b8282028284828161191e57fe5b04146118845760405162461bcd60e51b8152600401808060200182810382526021815260200180611ff76021913960400191505060405180910390fd5b600061188483836040518060400160405280601a81526020017f536166654d6174683a206469766973696f6e206279207a65726f000000000000815250611eb9565b60005b6003811015610ca8576000606882600381106119b857fe5b0154604080517f70a0823100000000000000000000000000000000000000000000000000000000815230600482015290516001600160a01b03909216916370a0823191602480820192602092909190829003018186803b158015611a1b57600080fd5b505afa158015611a2f573d6000803e3d6000fd5b505050506040513d6020811015611a4557600080fd5b5051905080611aa157828260048110611a5a57fe5b602002015115611a9b5760405162461bcd60e51b8152600401808060200182810382526027815260200180611fd06027913960400191505060405180910390fd5b50611ccb565b60688260038110611aae57fe5b0154604080517f2e1a7d4d0000000000000000000000000000000000000000000000000000000081526004810184905290516001600160a01b0390921691632e1a7d4d9160248082019260009290919082900301818387803b158015611b1357600080fd5b505af1158015611b27573d6000803e3d6000fd5b505050506000606b8360038110611b3a57fe5b0154604080517f70a0823100000000000000000000000000000000000000000000000000000000815230600482015290516001600160a01b03909216916370a0823191602480820192602092909190829003018186803b158015611b9d57600080fd5b505afa158015611bb1573d6000803e3d6000fd5b505050506040513d6020811015611bc757600080fd5b50519050838360048110611bd757fe5b6020020151811015611c1a5760405162461bcd60e51b8152600401808060200182810382526030815260200180611fa06030913960400191505060405180910390fd5b8015611cc857606b8360038110611c2d57fe5b0154604080517fa9059cbb0000000000000000000000000000000000000000000000000000000081526001600160a01b038881166004830152602482018590529151919092169163a9059cbb9160448083019260209291908290030181600087803b158015611c9b57600080fd5b505af1158015611caf573d6000803e3d6000fd5b505050506040513d6020811015611cc557600080fd5b50505b50505b6001016119a0565b303b1590565b600054610100900460ff1680611cf25750611cf2611cd3565b80611d00575060005460ff16155b611d3b5760405162461bcd60e51b815260040180806020018281038252602e815260200180612018602e913960400191505060405180910390fd5b600054610100900460ff16158015611d8457600080547fffffffffffffffffffffffffffffffffffffffffffffffffffffffffffffff0061ff0019909116610100171660011790555b603380547fffffffffffffffffffffffff0000000000000000000000000000000000000000166001600160a01b0384811691909117918290556040519116906000907f8be0079c531659141344cd1fd0a4f28419497f9722a3daafe3b4186f6b6457e0908290a380156113c0576000805461ff00191690555050565b6001600160a01b038116611e455760405162461bcd60e51b8152600401808060200182810382526026815260200180611f7a6026913960400191505060405180910390fd5b6033546040516001600160a01b038084169216907f8be0079c531659141344cd1fd0a4f28419497f9722a3daafe3b4186f6b6457e090600090a3603380547fffffffffffffffffffffffff0000000000000000000000000000000000000000166001600160a01b0392909216919091179055565b60008183611f455760405162461bcd60e51b81526004018080602001828103825283818151815260200191508051906020019080838360005b83811015611f0a578181015183820152602001611ef2565b50505050905090810190601f168015611f375780820380516001836020036101000a031916815260200191505b509250505060405180910390fd5b506000838581611f5157fe5b0495945050505050565b6040518060800160405280600490602082028038833950919291505056fe4f776e61626c653a206e6577206f776e657220697320746865207a65726f2061646472657373437572766546694465706f736974537475623a2072657175657374656420616d6f756e7420697320746f6f2068696768437572766546694465706f736974537475623a206e6f7468696e6720746f207769746864726177536166654d6174683a206d756c7469706c69636174696f6e206f766572666c6f77436f6e747261637420696e7374616e63652068617320616c7265616479206265656e20696e697469616c697a6564437572766546694465706f736974537475623a206661696c656420746f207472616e7366657220756e6465726c79696e67a265627a7a72315820fad25cf57aa13057f97588b85f8db8ba4d97d7892f038c71d51f71df9bf50f4564736f6c63430005110032",
  "source": "pragma solidity ^0.5.12;\n\nimport \"@openzeppelin/contracts-ethereum-package/contracts/token/ERC20/IERC20.sol\";\nimport \"@openzeppelin/contracts-ethereum-package/contracts/token/ERC20/ERC20Detailed.sol\";\nimport \"@openzeppelin/contracts-ethereum-package/contracts/math/SafeMath.sol\";\nimport \"../interfaces/defi/IYErc20.sol\";\nimport \"../interfaces/defi/ICurveFiSwap_Y.sol\";\nimport \"../interfaces/defi/ICurveFiDeposit_Y.sol\";\nimport \"../common/Base.sol\";\nimport \"./CurveFiSwapStub_Y.sol\";\n\ncontract CurveFiDepositStub_Y is Base, ICurveFiDeposit_Y {\n    using SafeMath for uint256;\n    uint256 constant EXP_SCALE = 1e18;  //Exponential scale (see Compound Exponential)\n    uint256 public constant N_COINS = 4;\n\n    CurveFiSwapStub_Y public curveFiSwap;\n    IERC20 public token;\n    address[3] _coins;\n    address[3] underlying;\n\n    function initialize(address _curveFiSwap) public initializer {\n        Base.initialize();\n        curveFiSwap = CurveFiSwapStub_Y(_curveFiSwap);\n        token = IERC20(curveFiSwap.token());\n        for (uint256 i=0; i < N_COINS; i++){\n            _coins[i] = curveFiSwap.coins(int128(i));\n            underlying[i] = IYErc20(_coins[i]).token();\n        }\n    }\n\n    function add_liquidity (uint256[N_COINS] memory uamounts, uint256 min_mint_amount) public {\n        uint256[N_COINS] memory amounts = [uint256(0), uint256(0), uint256(0), uint256(0)];\n        for (uint256 i=0; i < uamounts.length; i++){\n            require(IERC20(underlying[i]).transferFrom(_msgSender(), address(this), uamounts[i]), \"CurveFiDepositStub: failed to transfer underlying\");\n            IYErc20(_coins[i]).deposit(uamounts[i]);\n            amounts[i] = IYErc20(_coins[i]).balanceOf(address(this));\n        }\n        curveFiSwap.add_liquidity(amounts, min_mint_amount);\n        uint256 shares = token.balanceOf(address(this));\n        token.transfer(_msgSender(), shares);\n    }\n    \n    function remove_liquidity (uint256 _amount, uint256[N_COINS] memory min_uamounts) public {\n        token.transferFrom(_msgSender(), address(this), _amount);\n        curveFiSwap.remove_liquidity(_amount, [uint256(0), uint256(0), uint256(0), uint256(0)]);\n        send_all(_msgSender(), min_uamounts);\n    }\n\n    function remove_liquidity_imbalance (uint256[N_COINS] memory uamounts, uint256 max_burn_amount) public {\n        uint256[N_COINS] memory amounts = [uint256(0), uint256(0), uint256(0), uint256(0)];\n        for (uint256 i=0; i < uamounts.length; i++){\n            amounts[i] = uamounts[i].mul(EXP_SCALE).div(IYErc20(_coins[i]).getPricePerFullShare());\n        }\n\n        uint256 shares = token.balanceOf(_msgSender());\n        if (shares > max_burn_amount) shares = max_burn_amount;\n\n        token.transferFrom(_msgSender(), address(this), shares);\n        curveFiSwap.remove_liquidity_imbalance(amounts, shares);\n\n        shares = token.balanceOf(_msgSender());\n        token.transfer(_msgSender(), shares); // Return unused\n        send_all(_msgSender(), [uint256(0), uint256(0), uint256(0), uint256(0)]);\n    }\n\n    function remove_liquidity_one_coin(uint256 _token_amount, int128 i, uint256 min_uamount) public {\n        remove_liquidity_one_coin(_token_amount, i, min_uamount, false);\n    }\n\n    function remove_liquidity_one_coin(uint256 _token_amount, int128 _i, uint256 min_uamount, bool donate_dust) public {\n        uint256[N_COINS] memory amounts = [uint256(0), uint256(0), uint256(0), uint256(0)];\n        uint256 i = uint256(_i);\n        amounts[i] = min_uamount.mul(EXP_SCALE).div(IYErc20(_coins[i]).getPricePerFullShare());\n        curveFiSwap.remove_liquidity_imbalance(amounts, _token_amount);\n\n        uint256[N_COINS] memory uamounts = [uint256(0), uint256(0), uint256(0), uint256(0)];\n        uamounts[i] = min_uamount;\n        send_all(_msgSender(), uamounts);\n        if (!donate_dust) {\n            uint256 shares = token.balanceOf(address(this));\n            token.transfer(_msgSender(), shares);\n        }\n    }\n\n    function withdraw_donated_dust() public onlyOwner {\n        uint256 shares = token.balanceOf(address(this));\n        token.transfer(owner(), shares);\n    }\n\n    function coins(int128 i) public view returns (address) {\n        return _coins[uint256(i)];\n    }\n\n    function underlying_coins(int128 i) public view returns (address) {\n        return underlying[uint256(i)];\n    }\n\n    function curve() public view returns (address) {\n        return address(curveFiSwap);\n    }\n\n    function calc_withdraw_one_coin (uint256 _token_amount, int128 i) public view returns (uint256) {\n        this;\n        return uint256(0).mul(_token_amount.mul(uint256(i))); //we do not use this\n    }\n\n    function send_all(address beneficiary, uint256[N_COINS] memory min_uamounts) internal {\n        for (uint256 i=0; i < _coins.length; i++){\n            uint256 shares = IYErc20(_coins[i]).balanceOf(address(this));\n            if (shares == 0){\n                require(min_uamounts[i] == 0, \"CurveFiDepositStub: nothing to withdraw\");\n                continue;\n            }\n            IYErc20(_coins[i]).withdraw(shares);\n            uint256 uamount = IERC20(underlying[i]).balanceOf(address(this));\n            require(uamount >= min_uamounts[i], \"CurveFiDepositStub: requested amount is too high\");\n            if (uamount > 0) {\n                IERC20(underlying[i]).transfer(beneficiary, uamount);\n            }\n        }        \n    }\n}",
  "sourcePath": "/Users/ilya/Documents/Akropolis/dca-strategy-bot/contracts/test/CurveFiDepositStub_Y.sol",
  "compiler": {
    "name": "solc",
    "version": "0.5.17+commit.d19bba13.Emscripten.clang"
  },
  "schemaVersion": "3.2.3",
  "updatedAt": "2020-08-07T09:48:50.241Z",
  "devdoc": {
    "methods": {
      "isOwner()": {
        "details": "Returns true if the caller is the current owner."
      },
      "owner()": {
        "details": "Returns the address of the current owner."
      },
      "renounceOwnership()": {
        "details": "Leaves the contract without owner. It will not be possible to call `onlyOwner` functions anymore. Can only be called by the current owner.     * > Note: Renouncing ownership will leave the contract without an owner, thereby removing any functionality that is only available to the owner."
      },
      "transferOwnership(address)": {
        "details": "Transfers ownership of the contract to a new account (`newOwner`). Can only be called by the current owner."
      }
    }
  },
  "userdoc": {
    "methods": {}
  }
}