{
  "contractName": "CurveFiDepositStub_SBTC",
  "abi": [
    {
      "anonymous": false,
      "inputs": [
        {
          "indexed": true,
          "internalType": "address",
          "name": "previousOwner",
          "type": "address"
        },
        {
          "indexed": true,
          "internalType": "address",
          "name": "newOwner",
          "type": "address"
        }
      ],
      "name": "OwnershipTransferred",
      "type": "event"
    },
    {
      "constant": true,
      "inputs": [],
      "name": "N_COINS",
      "outputs": [
        {
          "internalType": "uint256",
          "name": "",
          "type": "uint256"
        }
      ],
      "payable": false,
      "stateMutability": "view",
      "type": "function"
    },
    {
      "constant": true,
      "inputs": [],
      "name": "curveFiSwap",
      "outputs": [
        {
          "internalType": "contract CurveFiSwapStub_SBTC",
          "name": "",
          "type": "address"
        }
      ],
      "payable": false,
      "stateMutability": "view",
      "type": "function"
    },
    {
      "constant": true,
      "inputs": [],
      "name": "isOwner",
      "outputs": [
        {
          "internalType": "bool",
          "name": "",
          "type": "bool"
        }
      ],
      "payable": false,
      "stateMutability": "view",
      "type": "function"
    },
    {
      "constant": true,
      "inputs": [],
      "name": "owner",
      "outputs": [
        {
          "internalType": "address",
          "name": "",
          "type": "address"
        }
      ],
      "payable": false,
      "stateMutability": "view",
      "type": "function"
    },
    {
      "constant": false,
      "inputs": [],
      "name": "renounceOwnership",
      "outputs": [],
      "payable": false,
      "stateMutability": "nonpayable",
      "type": "function"
    },
    {
      "constant": true,
      "inputs": [],
      "name": "token",
      "outputs": [
        {
          "internalType": "contract IERC20",
          "name": "",
          "type": "address"
        }
      ],
      "payable": false,
      "stateMutability": "view",
      "type": "function"
    },
    {
      "constant": false,
      "inputs": [
        {
          "internalType": "address",
          "name": "newOwner",
          "type": "address"
        }
      ],
      "name": "transferOwnership",
      "outputs": [],
      "payable": false,
      "stateMutability": "nonpayable",
      "type": "function"
    },
    {
      "constant": false,
      "inputs": [],
      "name": "initialize",
      "outputs": [],
      "payable": false,
      "stateMutability": "nonpayable",
      "type": "function"
    },
    {
      "constant": false,
      "inputs": [
        {
          "internalType": "address",
          "name": "_curveFiSwap",
          "type": "address"
        }
      ],
      "name": "initialize",
      "outputs": [],
      "payable": false,
      "stateMutability": "nonpayable",
      "type": "function"
    },
    {
      "constant": false,
      "inputs": [
        {
          "internalType": "uint256[3]",
          "name": "uamounts",
          "type": "uint256[3]"
        },
        {
          "internalType": "uint256",
          "name": "min_mint_amount",
          "type": "uint256"
        }
      ],
      "name": "add_liquidity",
      "outputs": [],
      "payable": false,
      "stateMutability": "nonpayable",
      "type": "function"
    },
    {
      "constant": false,
      "inputs": [
        {
          "internalType": "uint256",
          "name": "_amount",
          "type": "uint256"
        },
        {
          "internalType": "uint256[3]",
          "name": "min_uamounts",
          "type": "uint256[3]"
        }
      ],
      "name": "remove_liquidity",
      "outputs": [],
      "payable": false,
      "stateMutability": "nonpayable",
      "type": "function"
    },
    {
      "constant": false,
      "inputs": [
        {
          "internalType": "uint256[3]",
          "name": "uamounts",
          "type": "uint256[3]"
        },
        {
          "internalType": "uint256",
          "name": "max_burn_amount",
          "type": "uint256"
        }
      ],
      "name": "remove_liquidity_imbalance",
      "outputs": [],
      "payable": false,
      "stateMutability": "nonpayable",
      "type": "function"
    },
    {
      "constant": false,
      "inputs": [
        {
          "internalType": "uint256",
          "name": "_token_amount",
          "type": "uint256"
        },
        {
          "internalType": "int128",
          "name": "i",
          "type": "int128"
        },
        {
          "internalType": "uint256",
          "name": "min_uamount",
          "type": "uint256"
        }
      ],
      "name": "remove_liquidity_one_coin",
      "outputs": [],
      "payable": false,
      "stateMutability": "nonpayable",
      "type": "function"
    },
    {
      "constant": false,
      "inputs": [
        {
          "internalType": "uint256",
          "name": "_token_amount",
          "type": "uint256"
        },
        {
          "internalType": "int128",
          "name": "_i",
          "type": "int128"
        },
        {
          "internalType": "uint256",
          "name": "min_uamount",
          "type": "uint256"
        },
        {
          "internalType": "bool",
          "name": "donate_dust",
          "type": "bool"
        }
      ],
      "name": "remove_liquidity_one_coin",
      "outputs": [],
      "payable": false,
      "stateMutability": "nonpayable",
      "type": "function"
    },
    {
      "constant": false,
      "inputs": [],
      "name": "withdraw_donated_dust",
      "outputs": [],
      "payable": false,
      "stateMutability": "nonpayable",
      "type": "function"
    },
    {
      "constant": true,
      "inputs": [
        {
          "internalType": "int128",
          "name": "i",
          "type": "int128"
        }
      ],
      "name": "coins",
      "outputs": [
        {
          "internalType": "address",
          "name": "",
          "type": "address"
        }
      ],
      "payable": false,
      "stateMutability": "view",
      "type": "function"
    },
    {
      "constant": true,
      "inputs": [
        {
          "internalType": "int128",
          "name": "i",
          "type": "int128"
        }
      ],
      "name": "underlying_coins",
      "outputs": [
        {
          "internalType": "address",
          "name": "",
          "type": "address"
        }
      ],
      "payable": false,
      "stateMutability": "view",
      "type": "function"
    },
    {
      "constant": true,
      "inputs": [],
      "name": "curve",
      "outputs": [
        {
          "internalType": "address",
          "name": "",
          "type": "address"
        }
      ],
      "payable": false,
      "stateMutability": "view",
      "type": "function"
    },
    {
      "constant": true,
      "inputs": [
        {
          "internalType": "uint256",
          "name": "_token_amount",
          "type": "uint256"
        },
        {
          "internalType": "int128",
          "name": "i",
          "type": "int128"
        }
      ],
      "name": "calc_withdraw_one_coin",
      "outputs": [
        {
          "internalType": "uint256",
          "name": "",
          "type": "uint256"
        }
      ],
      "payable": false,
      "stateMutability": "view",
      "type": "function"
    }
  ],
  "bytecode": "0x6080604052611df5806100136000396000f3fe608060405234801561001057600080fd5b50600436106101515760003560e01c80638da5cb5b116100cd578063c4ee030411610081578063ecb586a511610066578063ecb586a51461036e578063f2fde38b146103c4578063fc0c546a146103ea57610151565b8063c4ee030414610340578063cc2b27d71461034857610151565b80639fdaea0c116100b25780639fdaea0c146102a6578063b739953e146102fa578063c4d66de81461031a57610151565b80638da5cb5b146102825780638f32d59b1461028a57610151565b8063517a55a311610124578063715018a611610109578063715018a61461026a5780637165485d146102725780638129fc1c1461027a57610151565b8063517a55a31461022e5780636c956a541461026257610151565b80631a4d01d21461015657806323746eb81461018457806329357750146101c05780634515cef3146101da575b600080fd5b6101826004803603606081101561016c57600080fd5b508035906020810135600f0b90604001356103f2565b005b6101a46004803603602081101561019a57600080fd5b5035600f0b610404565b604080516001600160a01b039092168252519081900360200190f35b6101c8610427565b60408051918252519081900360200190f35b610182600480360360808110156101f057600080fd5b8101908080606001906003806020026040519081016040528092919082600360200280828437600092019190915250919450509035915061042c9050565b6101826004803603608081101561024457600080fd5b508035906020810135600f0b90604081013590606001351515610809565b610182610a75565b610182610c0e565b6101a4610ce3565b610182610cf2565b6101a4610ddc565b610292610deb565b604080519115158252519081900360200190f35b610182600480360360808110156102bc57600080fd5b81019080806060019060038060200260405190810160405280929190826003602002808284376000920191909152509194505090359150610e119050565b6101a46004803603602081101561031057600080fd5b5035600f0b6111b9565b6101826004803603602081101561033057600080fd5b50356001600160a01b03166111cb565b6101a46114e9565b6101c86004803603604081101561035e57600080fd5b5080359060200135600f0b6114f8565b6101826004803603608081101561038457600080fd5b6040805160608181019092528335939283019291608083019190602084019060039083908390808284376000920191909152509194506115289350505050565b610182600480360360208110156103da57600080fd5b50356001600160a01b03166116a9565b6101a4611725565b6103ff8383836000610809565b505050565b6000606882600f0b6003811061041657fe5b01546001600160a01b031692915050565b600381565b610434611ca5565b5060408051606081018252600080825260208201819052918101829052905b600381101561063157606b816003811061046957fe5b01546001600160a01b03166323b872dd610481611734565b3087856003811061048e57fe5b60200201516040518463ffffffff1660e01b815260040180846001600160a01b03166001600160a01b03168152602001836001600160a01b03166001600160a01b031681526020018281526020019350505050602060405180830381600087803b1580156104fb57600080fd5b505af115801561050f573d6000803e3d6000fd5b505050506040513d602081101561052557600080fd5b505161057c576040517f08c379a0000000000000000000000000000000000000000000000000000000008152600401808060200182810382526031815260200180611d906031913960400191505060405180910390fd5b6068816003811061058957fe5b0154604080517f70a0823100000000000000000000000000000000000000000000000000000000815230600482015290516001600160a01b03909216916370a0823191602480820192602092909190829003018186803b1580156105ec57600080fd5b505afa158015610600573d6000803e3d6000fd5b505050506040513d602081101561061657600080fd5b505182826003811061062457fe5b6020020152600101610453565b506066546040517f4515cef30000000000000000000000000000000000000000000000000000000081526001600160a01b0390911690634515cef390839085906004018083606080838360005b8381101561069657818101518382015260200161067e565b5050505090500182815260200192505050600060405180830381600087803b1580156106c157600080fd5b505af11580156106d5573d6000803e3d6000fd5b5050606754604080517f70a082310000000000000000000000000000000000000000000000000000000081523060048201529051600094506001600160a01b0390921692506370a08231916024808301926020929190829003018186803b15801561073f57600080fd5b505afa158015610753573d6000803e3d6000fd5b505050506040513d602081101561076957600080fd5b50516067549091506001600160a01b031663a9059cbb610787611734565b836040518363ffffffff1660e01b815260040180836001600160a01b03166001600160a01b0316815260200182815260200192505050602060405180830381600087803b1580156107d757600080fd5b505af11580156107eb573d6000803e3d6000fd5b505050506040513d602081101561080157600080fd5b505050505050565b610811611ca5565b6040518060600160405280600081526020016000815260200160008152509050600084600f0b90508382826003811061084657fe5b60200201526066546040517f9fdaea0c0000000000000000000000000000000000000000000000000000000081526001600160a01b0390911690639fdaea0c90849089906004018083606080838360005b838110156108af578181015183820152602001610897565b5050505090500182815260200192505050600060405180830381600087803b1580156108da57600080fd5b505af11580156108ee573d6000803e3d6000fd5b505050506108fa611ca5565b60405180606001604052806000815260200160008152602001600081525090508481836003811061092757fe5b602002015261093d610937611734565b82611738565b83610a6c57606754604080517f70a0823100000000000000000000000000000000000000000000000000000000815230600482015290516000926001600160a01b0316916370a08231916024808301926020929190829003018186803b1580156109a657600080fd5b505afa1580156109ba573d6000803e3d6000fd5b505050506040513d60208110156109d057600080fd5b50516067549091506001600160a01b031663a9059cbb6109ee611734565b836040518363ffffffff1660e01b815260040180836001600160a01b03166001600160a01b0316815260200182815260200192505050602060405180830381600087803b158015610a3e57600080fd5b505af1158015610a52573d6000803e3d6000fd5b505050506040513d6020811015610a6857600080fd5b5050505b50505050505050565b610a7d610deb565b610ae857604080517f08c379a000000000000000000000000000000000000000000000000000000000815260206004820181905260248201527f4f776e61626c653a2063616c6c6572206973206e6f7420746865206f776e6572604482015290519081900360640190fd5b606754604080517f70a0823100000000000000000000000000000000000000000000000000000000815230600482015290516000926001600160a01b0316916370a08231916024808301926020929190829003018186803b158015610b4c57600080fd5b505afa158015610b60573d6000803e3d6000fd5b505050506040513d6020811015610b7657600080fd5b50516067549091506001600160a01b031663a9059cbb610b94610ddc565b836040518363ffffffff1660e01b815260040180836001600160a01b03166001600160a01b0316815260200182815260200192505050602060405180830381600087803b158015610be457600080fd5b505af1158015610bf8573d6000803e3d6000fd5b505050506040513d60208110156103ff57600080fd5b610c16610deb565b610c8157604080517f08c379a000000000000000000000000000000000000000000000000000000000815260206004820181905260248201527f4f776e61626c653a2063616c6c6572206973206e6f7420746865206f776e6572604482015290519081900360640190fd5b6033546040516000916001600160a01b0316907f8be0079c531659141344cd1fd0a4f28419497f9722a3daafe3b4186f6b6457e0908390a3603380547fffffffffffffffffffffffff0000000000000000000000000000000000000000169055565b6066546001600160a01b031690565b600054610100900460ff1680610d0b5750610d0b611a18565b80610d19575060005460ff16155b610d6e576040517f08c379a000000000000000000000000000000000000000000000000000000000815260040180806020018281038252602e815260200180611d62602e913960400191505060405180910390fd5b600054610100900460ff16158015610db757600080547fffffffffffffffffffffffffffffffffffffffffffffffffffffffffffffff0061ff0019909116610100171660011790555b610dc7610dc2611734565b611a1e565b8015610dd9576000805461ff00191690555b50565b6033546001600160a01b031690565b6033546000906001600160a01b0316610e02611734565b6001600160a01b031614905090565b610e19611ca5565b5060408051606081018252600080825260208201819052918101829052905b6003811015610e6b57838160038110610e4d57fe5b6020020151828260038110610e5e57fe5b6020020152600101610e38565b506067546000906001600160a01b03166370a08231610e88611734565b6040518263ffffffff1660e01b815260040180826001600160a01b03166001600160a01b0316815260200191505060206040518083038186803b158015610ece57600080fd5b505afa158015610ee2573d6000803e3d6000fd5b505050506040513d6020811015610ef857600080fd5b5051905082811115610f075750815b6067546001600160a01b03166323b872dd610f20611734565b604080517fffffffff0000000000000000000000000000000000000000000000000000000060e085901b1681526001600160a01b039092166004830152306024830152604482018590525160648083019260209291908290030181600087803b158015610f8c57600080fd5b505af1158015610fa0573d6000803e3d6000fd5b505050506040513d6020811015610fb657600080fd5b50506066546040517f9fdaea0c0000000000000000000000000000000000000000000000000000000081526001600160a01b0390911690639fdaea0c90849084906004018083606080838360005b8381101561101c578181015183820152602001611004565b5050505090500182815260200192505050600060405180830381600087803b15801561104757600080fd5b505af115801561105b573d6000803e3d6000fd5b50506067546001600160a01b031691506370a08231905061107a611734565b6040518263ffffffff1660e01b815260040180826001600160a01b03166001600160a01b0316815260200191505060206040518083038186803b1580156110c057600080fd5b505afa1580156110d4573d6000803e3d6000fd5b505050506040513d60208110156110ea57600080fd5b50516067549091506001600160a01b031663a9059cbb611108611734565b836040518363ffffffff1660e01b815260040180836001600160a01b03166001600160a01b0316815260200182815260200192505050602060405180830381600087803b15801561115857600080fd5b505af115801561116c573d6000803e3d6000fd5b505050506040513d602081101561118257600080fd5b506111b39050611190611734565b604051806060016040528060008152602001600081526020016000815250611738565b50505050565b6000606b82600f0b6003811061041657fe5b600054610100900460ff16806111e457506111e4611a18565b806111f2575060005460ff16155b611247576040517f08c379a000000000000000000000000000000000000000000000000000000000815260040180806020018281038252602e815260200180611d62602e913960400191505060405180910390fd5b600054610100900460ff1615801561129057600080547fffffffffffffffffffffffffffffffffffffffffffffffffffffffffffffff0061ff0019909116610100171660011790555b611298610cf2565b606680547fffffffffffffffffffffffff0000000000000000000000000000000000000000166001600160a01b038481169190911791829055604080517ffc0c546a0000000000000000000000000000000000000000000000000000000081529051929091169163fc0c546a91600480820192602092909190829003018186803b15801561132557600080fd5b505afa158015611339573d6000803e3d6000fd5b505050506040513d602081101561134f57600080fd5b5051606780547fffffffffffffffffffffffff0000000000000000000000000000000000000000166001600160a01b0390921691909117905560005b60038110156114d257606654604080517f23746eb8000000000000000000000000000000000000000000000000000000008152600f84810b900b600482015290516001600160a01b03909216916323746eb891602480820192602092909190829003018186803b1580156113fe57600080fd5b505afa158015611412573d6000803e3d6000fd5b505050506040513d602081101561142857600080fd5b50516068826003811061143757fe5b0180547fffffffffffffffffffffffff0000000000000000000000000000000000000000166001600160a01b03929092169190911790556068816003811061147b57fe5b01546001600160a01b0316606b826003811061149357fe5b0180547fffffffffffffffffffffffff0000000000000000000000000000000000000000166001600160a01b039290921691909117905560010161138b565b5080156114e5576000805461ff00191690555b5050565b6066546001600160a01b031681565b600061151f61151184600f85900b63ffffffff611b5f16565b60009063ffffffff611b5f16565b90505b92915050565b6067546001600160a01b03166323b872dd611541611734565b604080517fffffffff0000000000000000000000000000000000000000000000000000000060e085901b1681526001600160a01b039092166004830152306024830152604482018690525160648083019260209291908290030181600087803b1580156115ad57600080fd5b505af11580156115c1573d6000803e3d6000fd5b505050506040513d60208110156115d757600080fd5b5050606654604080516060808201835260008083526020830181905282840181905292517fecb586a5000000000000000000000000000000000000000000000000000000008152600481018781526001600160a01b039095169463ecb586a59488949391926024019184918190849084905b83811015611661578181015183820152602001611649565b5050505090500192505050600060405180830381600087803b15801561168657600080fd5b505af115801561169a573d6000803e3d6000fd5b505050506114e5610937611734565b6116b1610deb565b61171c57604080517f08c379a000000000000000000000000000000000000000000000000000000000815260206004820181905260248201527f4f776e61626c653a2063616c6c6572206973206e6f7420746865206f776e6572604482015290519081900360640190fd5b610dd981611bd2565b6067546001600160a01b031681565b3390565b60005b60038110156103ff5760006068826003811061175357fe5b0154604080517f70a0823100000000000000000000000000000000000000000000000000000000815230600482015290516001600160a01b03909216916370a0823191602480820192602092909190829003018186803b1580156117b657600080fd5b505afa1580156117ca573d6000803e3d6000fd5b505050506040513d60208110156117e057600080fd5b5051905080611856578282600381106117f557fe5b602002015115611850576040517f08c379a0000000000000000000000000000000000000000000000000000000008152600401808060200182810382526027815260200180611d1a6027913960400191505060405180910390fd5b50611a10565b6000606b836003811061186557fe5b0154604080517f70a0823100000000000000000000000000000000000000000000000000000000815230600482015290516001600160a01b03909216916370a0823191602480820192602092909190829003018186803b1580156118c857600080fd5b505afa1580156118dc573d6000803e3d6000fd5b505050506040513d60208110156118f257600080fd5b5051905083836003811061190257fe5b602002015181101561195f576040517f08c379a0000000000000000000000000000000000000000000000000000000008152600401808060200182810382526030815260200180611cea6030913960400191505060405180910390fd5b8015611a0d57606b836003811061197257fe5b0154604080517fa9059cbb0000000000000000000000000000000000000000000000000000000081526001600160a01b038881166004830152602482018590529151919092169163a9059cbb9160448083019260209291908290030181600087803b1580156119e057600080fd5b505af11580156119f4573d6000803e3d6000fd5b505050506040513d6020811015611a0a57600080fd5b50505b50505b60010161173b565b303b1590565b600054610100900460ff1680611a375750611a37611a18565b80611a45575060005460ff16155b611a9a576040517f08c379a000000000000000000000000000000000000000000000000000000000815260040180806020018281038252602e815260200180611d62602e913960400191505060405180910390fd5b600054610100900460ff16158015611ae357600080547fffffffffffffffffffffffffffffffffffffffffffffffffffffffffffffff0061ff0019909116610100171660011790555b603380547fffffffffffffffffffffffff0000000000000000000000000000000000000000166001600160a01b0384811691909117918290556040519116906000907f8be0079c531659141344cd1fd0a4f28419497f9722a3daafe3b4186f6b6457e0908290a380156114e5576000805461ff00191690555050565b600082611b6e57506000611522565b82820282848281611b7b57fe5b041461151f576040517f08c379a0000000000000000000000000000000000000000000000000000000008152600401808060200182810382526021815260200180611d416021913960400191505060405180910390fd5b6001600160a01b038116611c31576040517f08c379a0000000000000000000000000000000000000000000000000000000008152600401808060200182810382526026815260200180611cc46026913960400191505060405180910390fd5b6033546040516001600160a01b038084169216907f8be0079c531659141344cd1fd0a4f28419497f9722a3daafe3b4186f6b6457e090600090a3603380547fffffffffffffffffffffffff0000000000000000000000000000000000000000166001600160a01b0392909216919091179055565b6040518060600160405280600390602082028038833950919291505056fe4f776e61626c653a206e6577206f776e657220697320746865207a65726f2061646472657373437572766546694465706f736974537475623a2072657175657374656420616d6f756e7420697320746f6f2068696768437572766546694465706f736974537475623a206e6f7468696e6720746f207769746864726177536166654d6174683a206d756c7469706c69636174696f6e206f766572666c6f77436f6e747261637420696e7374616e63652068617320616c7265616479206265656e20696e697469616c697a6564437572766546694465706f736974537475623a206661696c656420746f207472616e7366657220756e6465726c79696e67a265627a7a72315820b6a4ad07b51716b01b82ac8ad51feb864ba1ff7276d18595a38197fdd881e14e64736f6c63430005110032",
  "source": "pragma solidity ^0.5.12;\n\nimport \"@openzeppelin/contracts-ethereum-package/contracts/token/ERC20/IERC20.sol\";\nimport \"@openzeppelin/contracts-ethereum-package/contracts/token/ERC20/ERC20Detailed.sol\";\nimport \"@openzeppelin/contracts-ethereum-package/contracts/math/SafeMath.sol\";\nimport \"../interfaces/defi/ICurveFiSwap_SBTC.sol\";\nimport \"../interfaces/defi/ICurveFiDeposit_SBTC.sol\";\nimport \"../common/Base.sol\";\nimport \"./CurveFiSwapStub_SBTC.sol\";\n\ncontract CurveFiDepositStub_SBTC is Base, ICurveFiDeposit_SBTC {\n    using SafeMath for uint256;\n    uint256 constant EXP_SCALE = 1e18;  //Exponential scale (see Compound Exponential)\n    uint256 public constant N_COINS = 3;\n\n    CurveFiSwapStub_SBTC public curveFiSwap;\n    IERC20 public token;\n    address[N_COINS] _coins;\n    address[N_COINS] underlying;\n\n    function initialize(address _curveFiSwap) public initializer {\n        Base.initialize();\n        curveFiSwap = CurveFiSwapStub_SBTC(_curveFiSwap);\n        token = IERC20(curveFiSwap.token());\n        for (uint256 i=0; i < N_COINS; i++){\n            _coins[i] = curveFiSwap.coins(int128(i));\n            underlying[i] = _coins[i]; //IYErc20(_coins[i]).token();\n        }\n    }\n\n    function add_liquidity (uint256[N_COINS] memory uamounts, uint256 min_mint_amount) public {\n        uint256[N_COINS] memory amounts = [uint256(0), uint256(0), uint256(0)];\n        for (uint256 i=0; i < uamounts.length; i++){\n            require(IERC20(underlying[i]).transferFrom(_msgSender(), address(this), uamounts[i]), \"CurveFiDepositStub: failed to transfer underlying\");\n            //IYErc20(_coins[i]).deposit(uamounts[i]);\n            //amounts[i] = IYErc20(_coins[i]).balanceOf(address(this));\n            amounts[i] = IERC20(_coins[i]).balanceOf(address(this));\n        }\n        curveFiSwap.add_liquidity(amounts, min_mint_amount);\n        uint256 shares = token.balanceOf(address(this));\n        token.transfer(_msgSender(), shares);\n    }\n    \n    function remove_liquidity (uint256 _amount, uint256[N_COINS] memory min_uamounts) public {\n        token.transferFrom(_msgSender(), address(this), _amount);\n        curveFiSwap.remove_liquidity(_amount, [uint256(0), uint256(0), uint256(0)]);\n        send_all(_msgSender(), min_uamounts);\n    }\n\n    function remove_liquidity_imbalance (uint256[N_COINS] memory uamounts, uint256 max_burn_amount) public {\n        uint256[N_COINS] memory amounts = [uint256(0), uint256(0), uint256(0)];\n        for (uint256 i=0; i < uamounts.length; i++){\n            //amounts[i] = uamounts[i];.mul(EXP_SCALE).div(IYErc20(_coins[i]).getPricePerFullShare());\n            amounts[i] = uamounts[i];\n        }\n\n        uint256 shares = token.balanceOf(_msgSender());\n        if (shares > max_burn_amount) shares = max_burn_amount;\n\n        token.transferFrom(_msgSender(), address(this), shares);\n        curveFiSwap.remove_liquidity_imbalance(amounts, shares);\n\n        shares = token.balanceOf(_msgSender());\n        token.transfer(_msgSender(), shares); // Return unused\n        send_all(_msgSender(), [uint256(0), uint256(0), uint256(0)]);\n    }\n\n    function remove_liquidity_one_coin(uint256 _token_amount, int128 i, uint256 min_uamount) public {\n        remove_liquidity_one_coin(_token_amount, i, min_uamount, false);\n    }\n\n    function remove_liquidity_one_coin(uint256 _token_amount, int128 _i, uint256 min_uamount, bool donate_dust) public {\n        uint256[3] memory amounts = [uint256(0), uint256(0), uint256(0)];\n        uint256 i = uint256(_i);\n        //amounts[i] = min_uamount.mul(EXP_SCALE).div(IYErc20(_coins[i]).getPricePerFullShare());\n        amounts[i] = min_uamount;\n        curveFiSwap.remove_liquidity_imbalance(amounts, _token_amount);\n\n        uint256[3] memory uamounts = [uint256(0), uint256(0), uint256(0)];\n        uamounts[i] = min_uamount;\n        send_all(_msgSender(), uamounts);\n        if (!donate_dust) {\n            uint256 shares = token.balanceOf(address(this));\n            token.transfer(_msgSender(), shares);\n        }\n    }\n\n    function withdraw_donated_dust() public onlyOwner {\n        uint256 shares = token.balanceOf(address(this));\n        token.transfer(owner(), shares);\n    }\n\n    function coins(int128 i) public view returns (address) {\n        return _coins[uint256(i)];\n    }\n\n    function underlying_coins(int128 i) public view returns (address) {\n        return underlying[uint256(i)];\n    }\n\n    function curve() public view returns (address) {\n        return address(curveFiSwap);\n    }\n\n    function calc_withdraw_one_coin (uint256 _token_amount, int128 i) public view returns (uint256) {\n        this;\n        return uint256(0).mul(_token_amount.mul(uint256(i))); //we do not use this\n    }\n\n    function send_all(address beneficiary, uint256[N_COINS] memory min_uamounts) internal {\n        for (uint256 i=0; i < _coins.length; i++){\n            //uint256 shares = IYErc20(_coins[i]).balanceOf(address(this));\n            uint256 shares = IERC20(_coins[i]).balanceOf(address(this));\n            if (shares == 0){\n                require(min_uamounts[i] == 0, \"CurveFiDepositStub: nothing to withdraw\");\n                continue;\n            }\n            //IYErc20(_coins[i]).withdraw(shares);\n            uint256 uamount = IERC20(underlying[i]).balanceOf(address(this));\n            require(uamount >= min_uamounts[i], \"CurveFiDepositStub: requested amount is too high\");\n            if (uamount > 0) {\n                IERC20(underlying[i]).transfer(beneficiary, uamount);\n            }\n        }        \n    }\n}",
  "sourcePath": "/Users/ilya/Documents/Akropolis/dca-strategy-bot/contracts/test/CurveFiDepositStub_SBTC.sol",
  "compiler": {
    "name": "solc",
    "version": "0.5.17+commit.d19bba13.Emscripten.clang"
  },
  "schemaVersion": "3.2.3",
  "updatedAt": "2020-08-10T19:11:24.397Z",
  "devdoc": {
    "methods": {
      "isOwner()": {
        "details": "Returns true if the caller is the current owner."
      },
      "owner()": {
        "details": "Returns the address of the current owner."
      },
      "renounceOwnership()": {
        "details": "Leaves the contract without owner. It will not be possible to call `onlyOwner` functions anymore. Can only be called by the current owner.     * > Note: Renouncing ownership will leave the contract without an owner, thereby removing any functionality that is only available to the owner."
      },
      "transferOwnership(address)": {
        "details": "Transfers ownership of the contract to a new account (`newOwner`). Can only be called by the current owner."
      }
    }
  },
  "userdoc": {
    "methods": {}
  }
}