{
  "contractName": "CurveFiProtocol_SUSD",
  "abi": [
    {
      "anonymous": false,
      "inputs": [
        {
          "indexed": false,
          "internalType": "address",
          "name": "swap",
          "type": "address"
        },
        {
          "indexed": false,
          "internalType": "address",
          "name": "deposit",
          "type": "address"
        },
        {
          "indexed": false,
          "internalType": "address",
          "name": "rewardsController",
          "type": "address"
        }
      ],
      "name": "CurveFiSetup",
      "type": "event"
    },
    {
      "anonymous": false,
      "inputs": [
        {
          "indexed": true,
          "internalType": "address",
          "name": "account",
          "type": "address"
        }
      ],
      "name": "DefiOperatorAdded",
      "type": "event"
    },
    {
      "anonymous": false,
      "inputs": [
        {
          "indexed": true,
          "internalType": "address",
          "name": "account",
          "type": "address"
        }
      ],
      "name": "DefiOperatorRemoved",
      "type": "event"
    },
    {
      "anonymous": false,
      "inputs": [
        {
          "indexed": true,
          "internalType": "address",
          "name": "previousOwner",
          "type": "address"
        },
        {
          "indexed": true,
          "internalType": "address",
          "name": "newOwner",
          "type": "address"
        }
      ],
      "name": "OwnershipTransferred",
      "type": "event"
    },
    {
      "anonymous": false,
      "inputs": [
        {
          "indexed": false,
          "internalType": "address",
          "name": "newPool",
          "type": "address"
        }
      ],
      "name": "PoolAddressChanged",
      "type": "event"
    },
    {
      "anonymous": false,
      "inputs": [
        {
          "indexed": true,
          "internalType": "address",
          "name": "token",
          "type": "address"
        },
        {
          "indexed": false,
          "internalType": "uint256",
          "name": "amount",
          "type": "uint256"
        }
      ],
      "name": "RewardTokenClaimed",
      "type": "event"
    },
    {
      "anonymous": false,
      "inputs": [
        {
          "indexed": true,
          "internalType": "address",
          "name": "token",
          "type": "address"
        }
      ],
      "name": "TokenRegistered",
      "type": "event"
    },
    {
      "anonymous": false,
      "inputs": [
        {
          "indexed": true,
          "internalType": "address",
          "name": "token",
          "type": "address"
        }
      ],
      "name": "TokenUnregistered",
      "type": "event"
    },
    {
      "constant": true,
      "inputs": [],
      "name": "DONATE_DUST",
      "outputs": [
        {
          "internalType": "bool",
          "name": "",
          "type": "bool"
        }
      ],
      "payable": false,
      "stateMutability": "view",
      "type": "function"
    },
    {
      "constant": false,
      "inputs": [
        {
          "internalType": "address",
          "name": "account",
          "type": "address"
        }
      ],
      "name": "addDefiOperator",
      "outputs": [],
      "payable": false,
      "stateMutability": "nonpayable",
      "type": "function"
    },
    {
      "constant": false,
      "inputs": [
        {
          "internalType": "address",
          "name": "token",
          "type": "address"
        }
      ],
      "name": "balanceOf",
      "outputs": [
        {
          "internalType": "uint256",
          "name": "",
          "type": "uint256"
        }
      ],
      "payable": false,
      "stateMutability": "nonpayable",
      "type": "function"
    },
    {
      "constant": false,
      "inputs": [],
      "name": "balanceOfAll",
      "outputs": [
        {
          "internalType": "uint256[]",
          "name": "balances",
          "type": "uint256[]"
        }
      ],
      "payable": false,
      "stateMutability": "nonpayable",
      "type": "function"
    },
    {
      "constant": true,
      "inputs": [
        {
          "internalType": "address",
          "name": "token",
          "type": "address"
        }
      ],
      "name": "canSwapToToken",
      "outputs": [
        {
          "internalType": "bool",
          "name": "",
          "type": "bool"
        }
      ],
      "payable": false,
      "stateMutability": "view",
      "type": "function"
    },
    {
      "constant": false,
      "inputs": [],
      "name": "claimRewards",
      "outputs": [
        {
          "internalType": "address[]",
          "name": "tokens",
          "type": "address[]"
        },
        {
          "internalType": "uint256[]",
          "name": "amounts",
          "type": "uint256[]"
        }
      ],
      "payable": false,
      "stateMutability": "nonpayable",
      "type": "function"
    },
    {
      "constant": true,
      "inputs": [],
      "name": "curveFiDeposit",
      "outputs": [
        {
          "internalType": "contract ICurveFiDeposit",
          "name": "",
          "type": "address"
        }
      ],
      "payable": false,
      "stateMutability": "view",
      "type": "function"
    },
    {
      "constant": true,
      "inputs": [],
      "name": "curveFiRewardToken",
      "outputs": [
        {
          "internalType": "contract IERC20",
          "name": "",
          "type": "address"
        }
      ],
      "payable": false,
      "stateMutability": "view",
      "type": "function"
    },
    {
      "constant": true,
      "inputs": [],
      "name": "curveFiRewards",
      "outputs": [
        {
          "internalType": "contract ICurveFiRewards",
          "name": "",
          "type": "address"
        }
      ],
      "payable": false,
      "stateMutability": "view",
      "type": "function"
    },
    {
      "constant": true,
      "inputs": [],
      "name": "curveFiSwap",
      "outputs": [
        {
          "internalType": "contract ICurveFiSwap",
          "name": "",
          "type": "address"
        }
      ],
      "payable": false,
      "stateMutability": "view",
      "type": "function"
    },
    {
      "constant": true,
      "inputs": [],
      "name": "curveFiToken",
      "outputs": [
        {
          "internalType": "contract IERC20",
          "name": "",
          "type": "address"
        }
      ],
      "payable": false,
      "stateMutability": "view",
      "type": "function"
    },
    {
      "constant": true,
      "inputs": [
        {
          "internalType": "address",
          "name": "",
          "type": "address"
        }
      ],
      "name": "decimals",
      "outputs": [
        {
          "internalType": "uint8",
          "name": "",
          "type": "uint8"
        }
      ],
      "payable": false,
      "stateMutability": "view",
      "type": "function"
    },
    {
      "constant": true,
      "inputs": [
        {
          "internalType": "string",
          "name": "module",
          "type": "string"
        }
      ],
      "name": "getModuleAddress",
      "outputs": [
        {
          "internalType": "address",
          "name": "",
          "type": "address"
        }
      ],
      "payable": false,
      "stateMutability": "view",
      "type": "function"
    },
    {
      "constant": true,
      "inputs": [
        {
          "internalType": "address",
          "name": "token",
          "type": "address"
        }
      ],
      "name": "getTokenIndex",
      "outputs": [
        {
          "internalType": "uint256",
          "name": "",
          "type": "uint256"
        }
      ],
      "payable": false,
      "stateMutability": "view",
      "type": "function"
    },
    {
      "constant": false,
      "inputs": [
        {
          "internalType": "address",
          "name": "token",
          "type": "address"
        },
        {
          "internalType": "uint256",
          "name": "amount",
          "type": "uint256"
        }
      ],
      "name": "handleDeposit",
      "outputs": [],
      "payable": false,
      "stateMutability": "nonpayable",
      "type": "function"
    },
    {
      "constant": false,
      "inputs": [
        {
          "internalType": "address[]",
          "name": "tokens",
          "type": "address[]"
        },
        {
          "internalType": "uint256[]",
          "name": "amounts",
          "type": "uint256[]"
        }
      ],
      "name": "handleDeposit",
      "outputs": [],
      "payable": false,
      "stateMutability": "nonpayable",
      "type": "function"
    },
    {
      "constant": false,
      "inputs": [],
      "name": "initialize",
      "outputs": [],
      "payable": false,
      "stateMutability": "nonpayable",
      "type": "function"
    },
    {
      "constant": false,
      "inputs": [
        {
          "internalType": "address",
          "name": "_pool",
          "type": "address"
        }
      ],
      "name": "initialize",
      "outputs": [],
      "payable": false,
      "stateMutability": "nonpayable",
      "type": "function"
    },
    {
      "constant": true,
      "inputs": [
        {
          "internalType": "address",
          "name": "account",
          "type": "address"
        }
      ],
      "name": "isDefiOperator",
      "outputs": [
        {
          "internalType": "bool",
          "name": "",
          "type": "bool"
        }
      ],
      "payable": false,
      "stateMutability": "view",
      "type": "function"
    },
    {
      "constant": true,
      "inputs": [],
      "name": "isOwner",
      "outputs": [
        {
          "internalType": "bool",
          "name": "",
          "type": "bool"
        }
      ],
      "payable": false,
      "stateMutability": "view",
      "type": "function"
    },
    {
      "constant": true,
      "inputs": [
        {
          "internalType": "address",
          "name": "token",
          "type": "address"
        }
      ],
      "name": "isSupportedRewardToken",
      "outputs": [
        {
          "internalType": "bool",
          "name": "",
          "type": "bool"
        }
      ],
      "payable": false,
      "stateMutability": "view",
      "type": "function"
    },
    {
      "constant": false,
      "inputs": [],
      "name": "normalizedBalance",
      "outputs": [
        {
          "internalType": "uint256",
          "name": "",
          "type": "uint256"
        }
      ],
      "payable": false,
      "stateMutability": "nonpayable",
      "type": "function"
    },
    {
      "constant": true,
      "inputs": [],
      "name": "owner",
      "outputs": [
        {
          "internalType": "address",
          "name": "",
          "type": "address"
        }
      ],
      "payable": false,
      "stateMutability": "view",
      "type": "function"
    },
    {
      "constant": true,
      "inputs": [],
      "name": "pool",
      "outputs": [
        {
          "internalType": "address",
          "name": "",
          "type": "address"
        }
      ],
      "payable": false,
      "stateMutability": "view",
      "type": "function"
    },
    {
      "constant": false,
      "inputs": [],
      "name": "renounceDefiOperator",
      "outputs": [],
      "payable": false,
      "stateMutability": "nonpayable",
      "type": "function"
    },
    {
      "constant": false,
      "inputs": [],
      "name": "renounceOwnership",
      "outputs": [],
      "payable": false,
      "stateMutability": "nonpayable",
      "type": "function"
    },
    {
      "constant": false,
      "inputs": [
        {
          "internalType": "address",
          "name": "deposit",
          "type": "address"
        },
        {
          "internalType": "address",
          "name": "rewardsController",
          "type": "address"
        }
      ],
      "name": "setCurveFi",
      "outputs": [],
      "payable": false,
      "stateMutability": "nonpayable",
      "type": "function"
    },
    {
      "constant": false,
      "inputs": [
        {
          "internalType": "address",
          "name": "_pool",
          "type": "address"
        }
      ],
      "name": "setPool",
      "outputs": [],
      "payable": false,
      "stateMutability": "nonpayable",
      "type": "function"
    },
    {
      "constant": false,
      "inputs": [
        {
          "internalType": "uint256",
          "name": "_slippageMultiplier",
          "type": "uint256"
        }
      ],
      "name": "setSlippageMultiplier",
      "outputs": [],
      "payable": false,
      "stateMutability": "nonpayable",
      "type": "function"
    },
    {
      "constant": true,
      "inputs": [],
      "name": "slippageMultiplier",
      "outputs": [
        {
          "internalType": "uint256",
          "name": "",
          "type": "uint256"
        }
      ],
      "payable": false,
      "stateMutability": "view",
      "type": "function"
    },
    {
      "constant": true,
      "inputs": [],
      "name": "supportedRewardTokens",
      "outputs": [
        {
          "internalType": "address[]",
          "name": "",
          "type": "address[]"
        }
      ],
      "payable": false,
      "stateMutability": "view",
      "type": "function"
    },
    {
      "constant": true,
      "inputs": [],
      "name": "supportedTokens",
      "outputs": [
        {
          "internalType": "address[]",
          "name": "",
          "type": "address[]"
        }
      ],
      "payable": false,
      "stateMutability": "view",
      "type": "function"
    },
    {
      "constant": true,
      "inputs": [],
      "name": "supportedTokensCount",
      "outputs": [
        {
          "internalType": "uint256",
          "name": "",
          "type": "uint256"
        }
      ],
      "payable": false,
      "stateMutability": "view",
      "type": "function"
    },
    {
      "constant": false,
      "inputs": [
        {
          "internalType": "address",
          "name": "newOwner",
          "type": "address"
        }
      ],
      "name": "transferOwnership",
      "outputs": [],
      "payable": false,
      "stateMutability": "nonpayable",
      "type": "function"
    },
    {
      "constant": false,
      "inputs": [
        {
          "internalType": "address",
          "name": "beneficiary",
          "type": "address"
        },
        {
          "internalType": "uint256[]",
          "name": "amounts",
          "type": "uint256[]"
        }
      ],
      "name": "withdraw",
      "outputs": [],
      "payable": false,
      "stateMutability": "nonpayable",
      "type": "function"
    },
    {
      "constant": false,
      "inputs": [
        {
          "internalType": "address",
          "name": "beneficiary",
          "type": "address"
        },
        {
          "internalType": "address",
          "name": "token",
          "type": "address"
        },
        {
          "internalType": "uint256",
          "name": "amount",
          "type": "uint256"
        }
      ],
      "name": "withdraw",
      "outputs": [],
      "payable": false,
      "stateMutability": "nonpayable",
      "type": "function"
    },
    {
      "constant": false,
      "inputs": [
        {
          "internalType": "address",
          "name": "token",
          "type": "address"
        },
        {
          "internalType": "address",
          "name": "user",
          "type": "address"
        },
        {
          "internalType": "uint256",
          "name": "amount",
          "type": "uint256"
        }
      ],
      "name": "withdrawReward",
      "outputs": [],
      "payable": false,
      "stateMutability": "nonpayable",
      "type": "function"
    }
  ],
  "bytecode": "0x60806040526143bd806100136000396000f3fe608060405234801561001057600080fd5b50600436106102775760003560e01c80638129fc1c11610160578063c662ff24116100d8578063e49fba6b1161008c578063f64f329e11610071578063f64f329e146108e2578063f7384d5014610908578063fc9156821461092e57610277565b8063e49fba6b146108b4578063f2fde38b146108bc57610277565b8063d6eebe4c116100bd578063d6eebe4c1461086e578063d9180a0014610876578063d9caed121461087e57610277565b8063c662ff241461080c578063d449a8321461083257610277565b80639b8617801161012f578063b9c3da0f11610114578063b9c3da0f146107a8578063c4d66de8146107de578063c4ee03041461080457610277565b80639b8617801461077a578063b002249d146107a057610277565b80638129fc1c146106af5780638293744b146106b75780638da5cb5b1461076a5780638f32d59b1461077257610277565b806359e8dc97116101f35780636c6874d9116101c2578063715018a6116101a7578063715018a6146105f957806371dc760f146106015780637300c1eb146106a757610277565b80636c6874d9146104ac57806370a08231146105d357610277565b806359e8dc97146104385780635e40b14914610464578063628cb95e1461046c57806366c0bd241461048657610277565b8063426ac8831161024a5780634437152a1161022f5780634437152a146103c757806345cdf0bf146103ed57806357e2ad4a1461040a57610277565b8063426ac883146103a157806343cdf1f7146103bd57610277565b806316f0115b1461027c578063208e509f146102a057806326599a1e146102f8578063372500ab14610300575b600080fd5b610284610936565b604080516001600160a01b039092168252519081900360200190f35b6102a8610945565b60408051602080825283518183015283519192839290830191858101910280838360005b838110156102e45781810151838201526020016102cc565b505050509050019250505060405180910390f35b610284610d4a565b610308610d59565b604051808060200180602001838103835285818151815260200191508051906020019060200280838360005b8381101561034c578181015183820152602001610334565b50505050905001838103825284818151815260200191508051906020019060200280838360005b8381101561038b578181015183820152602001610373565b5050505090500194505050505060405180910390f35b6103a9611011565b604080519115158252519081900360200190f35b6103c5611016565b005b6103c5600480360360208110156103dd57600080fd5b50356001600160a01b0316611028565b6103c56004803603602081101561040357600080fd5b5035611132565b6103c56004803603604081101561042057600080fd5b506001600160a01b03813581169160200135166111c4565b6103c56004803603604081101561044e57600080fd5b506001600160a01b0381351690602001356116c6565b6102846118af565b6104746118be565b60408051918252519081900360200190f35b6104746004803603602081101561049c57600080fd5b50356001600160a01b0316611943565b6103c5600480360360408110156104c257600080fd5b8101906020810181356401000000008111156104dd57600080fd5b8201836020820111156104ef57600080fd5b8035906020019184602083028401116401000000008311171561051157600080fd5b919080806020026020016040519081016040528093929190818152602001838360200280828437600092019190915250929594936020810193503591505064010000000081111561056157600080fd5b82018360208201111561057357600080fd5b8035906020019184602083028401116401000000008311171561059557600080fd5b9190808060200260200160405190810160405280939291908181526020018383602002808284376000920191909152509295506119cf945050505050565b610474600480360360208110156105e957600080fd5b50356001600160a01b0316611c27565b6103c5611e8d565b6102846004803603602081101561061757600080fd5b81019060208101813564010000000081111561063257600080fd5b82018360208201111561064457600080fd5b8035906020019184600183028401116401000000008311171561066657600080fd5b91908080601f016020809104026020016040519081016040528093929190818152602001838380828437600092019190915250929550611f48945050505050565b6102846121cb565b6103c56121da565b6103c5600480360360408110156106cd57600080fd5b6001600160a01b0382351691908101906040810160208201356401000000008111156106f857600080fd5b82018360208201111561070a57600080fd5b8035906020019184602083028401116401000000008311171561072c57600080fd5b91908080602002602001604051908101604052809392919081815260200183836020028082843760009201919091525092955061228c945050505050565b610284612445565b6103a9612454565b6103a96004803603602081101561079057600080fd5b50356001600160a01b031661247a565b6102a86124d5565b6103c5600480360360608110156107be57600080fd5b506001600160a01b03813581169160208101359091169060400135612537565b6103c5600480360360208110156107f457600080fd5b50356001600160a01b031661262d565b61028461272c565b6103c56004803603602081101561082257600080fd5b50356001600160a01b031661273b565b6108586004803603602081101561084857600080fd5b50356001600160a01b031661278a565b6040805160ff9092168252519081900360200190f35b61028461279f565b6102a86127ae565b6103c56004803603606081101561089457600080fd5b506001600160a01b0381358116916020810135909116906040013561280a565b610474612af6565b6103c5600480360360208110156108d257600080fd5b50356001600160a01b0316612afc565b6103a9600480360360208110156108f857600080fd5b50356001600160a01b0316612b5e565b6103a96004803603602081101561091e57600080fd5b50356001600160a01b0316612b77565b610474612b8b565b6066546001600160a01b031681565b60606000606a60009054906101000a90046001600160a01b03166001600160a01b031663fc0c546a6040518163ffffffff1660e01b815260040160206040518083038186803b15801561099757600080fd5b505afa1580156109ab573d6000803e3d6000fd5b505050506040513d60208110156109c157600080fd5b5051606b54604080517f70a0823100000000000000000000000000000000000000000000000000000000815230600482015290519293506000926001600160a01b03909216916370a0823191602480820192602092909190829003018186803b158015610a2d57600080fd5b505afa158015610a41573d6000803e3d6000fd5b505050506040513d6020811015610a5757600080fd5b5051604080517f18160ddd00000000000000000000000000000000000000000000000000000000815290519192506000916001600160a01b038516916318160ddd916004808301926020929190829003018186803b158015610ab857600080fd5b505afa158015610acc573d6000803e3d6000fd5b505050506040513d6020811015610ae257600080fd5b5051606e546040805182815260208381028201019091529192508015610b12578160200160208202803883390190505b50935060005b606e54811015610d4357606954604080517f065a80d8000000000000000000000000000000000000000000000000000000008152600f84810b900b600482015290516000926001600160a01b03169163065a80d8916024808301926020929190829003018186803b158015610b8c57600080fd5b505afa158015610ba0573d6000803e3d6000fd5b505050506040513d6020811015610bb657600080fd5b505190506000610bdc84610bd0848863ffffffff612b9116565b9063ffffffff612bf116565b606a54604080517f23746eb8000000000000000000000000000000000000000000000000000000008152600f87810b900b600482015290519293506000926001600160a01b03909216916323746eb891602480820192602092909190829003018186803b158015610c4c57600080fd5b505afa158015610c60573d6000803e3d6000fd5b505050506040513d6020811015610c7657600080fd5b5051604080517f77c7b8fc0000000000000000000000000000000000000000000000000000000081529051919250610d2191670de0b6b3a764000091610bd09186916001600160a01b038716916377c7b8fc91600480820192602092909190829003018186803b158015610ce957600080fd5b505afa158015610cfd573d6000803e3d6000fd5b505050506040513d6020811015610d1357600080fd5b50519063ffffffff612b9116565b888581518110610d2d57fe5b6020908102919091010152505050600101610b18565b5050505090565b606a546001600160a01b031681565b606080610d6c610d67612c33565b612b5e565b610da75760405162461bcd60e51b815260040180806020018281038252603c8152602001806142c7603c913960400191505060405180910390fd5b610daf612c37565b6060610db96127ae565b905060608151604051908082528060200260200182016040528015610de8578160200160208202803883390190505b5090506000805b8351811015610f0a576000848281518110610e0657fe5b602002602001015190506000816001600160a01b03166370a08231306040518263ffffffff1660e01b815260040180826001600160a01b03166001600160a01b0316815260200191505060206040518083038186803b158015610e6857600080fd5b505afa158015610e7c573d6000803e3d6000fd5b505050506040513d6020811015610e9257600080fd5b50516001600160a01b038316600090815260686020526040902054909150811115610f00576001600160a01b038216600090815260686020526040902054600190940193610ee790829063ffffffff612c9b16565b858481518110610ef357fe5b6020026020010181815250505b5050600101610def565b5080604051908082528060200260200182016040528015610f35578160200160208202803883390190505b50945080604051908082528060200260200182016040528015610f62578160200160208202803883390190505b5093506000805b8451811015611008576000848281518110610f8057fe5b6020026020010151111561100057848181518110610f9a57fe5b6020026020010151878381518110610fae57fe5b60200260200101906001600160a01b031690816001600160a01b031681525050838181518110610fda57fe5b6020026020010151868381518110610fee57fe5b60209081029190910101526001909101905b600101610f69565b50505050509091565b600181565b611026611021612c33565b612cdd565b565b611030612454565b611081576040805162461bcd60e51b815260206004820181905260248201527f4f776e61626c653a2063616c6c6572206973206e6f7420746865206f776e6572604482015290519081900360640190fd5b6001600160a01b0381166110c65760405162461bcd60e51b81526004018080602001828103825260228152602001806141556022913960400191505060405180910390fd5b606680546001600160a01b0383167fffffffffffffffffffffffff0000000000000000000000000000000000000000909116811790915560408051918252517f5b36800c27524690807962bd42525a44e68b3f860e8f9e0204f27e777d2f46059181900360200190a150565b61113d610d67612c33565b6111785760405162461bcd60e51b815260040180806020018281038252603c8152602001806142c7603c913960400191505060405180910390fd5b670de0b6b3a76400008110156111bf5760405162461bcd60e51b81526004018080602001828103825260288152602001806141776028913960400191505060405180910390fd5b606f55565b6111cf610d67612c33565b61120a5760405162461bcd60e51b815260040180806020018281038252603c8152602001806142c7603c913960400191505060405180910390fd5b606a546001600160a01b0316156112cc5760005b606e548110156112ca5760006001600160a01b0316606e828154811061124057fe5b6000918252602090912001546001600160a01b0316146112c257611284606e828154811061126a57fe5b6000918252602090912001546001600160a01b0316612d25565b6000606e828154811061129357fe5b9060005260206000200160006101000a8154816001600160a01b0302191690836001600160a01b031602179055505b60010161121e565b505b606a80547fffffffffffffffffffffffff0000000000000000000000000000000000000000166001600160a01b038481169190911791829055604080517f7165485d00000000000000000000000000000000000000000000000000000000815290519290911691637165485d91600480820192602092909190829003018186803b15801561135957600080fd5b505afa15801561136d573d6000803e3d6000fd5b505050506040513d602081101561138357600080fd5b5051606980547fffffffffffffffffffffffff0000000000000000000000000000000000000000166001600160a01b03928316179055606a54604080517ffc0c546a0000000000000000000000000000000000000000000000000000000081529051919092169163fc0c546a916004808301926020929190829003018186803b15801561140f57600080fd5b505afa158015611423573d6000803e3d6000fd5b505050506040513d602081101561143957600080fd5b5051606d80547fffffffffffffffffffffffff00000000000000000000000000000000000000009081166001600160a01b0393841617909155606b805490911691831691909117905561148b81612e06565b606c80547fffffffffffffffffffffffff0000000000000000000000000000000000000000166001600160a01b03928316179055606a54606d546114f49290811691167fffffffffffffffffffffffffffffffffffffffffffffffffffffffffffffffff612e73565b606b54606d54611537916001600160a01b0391821691167fffffffffffffffffffffffffffffffffffffffffffffffffffffffffffffffff63ffffffff612e7316565b60005b606e5481101561166d57606a54604080517fb739953e000000000000000000000000000000000000000000000000000000008152600f84810b900b600482015290516000926001600160a01b03169163b739953e916024808301926020929190829003018186803b1580156115ae57600080fd5b505afa1580156115c2573d6000803e3d6000fd5b505050506040513d60208110156115d857600080fd5b5051606e80549192508291849081106115ed57fe5b9060005260206000200160006101000a8154816001600160a01b0302191690836001600160a01b0316021790555061162481612fcd565b606a54611664906001600160a01b0383811691167fffffffffffffffffffffffffffffffffffffffffffffffffffffffffffffffff63ffffffff612e7316565b5060010161153a565b50606954606a54606b54604080516001600160a01b039485168152928416602084015292168183015290517fd71f0c89a7bf4774a6a82f62f1e8d3851b58d3d2572c7871782384796b256eac9181900360600190a15050565b6116d1610d67612c33565b61170c5760405162461bcd60e51b815260040180806020018281038252603c8152602001806142c7603c913960400191505060405180910390fd5b606061171661312b565b60405190808252806020026020018201604052801561173f578160200160208202803883390190505b50905060005b606e5481101561189657606e818154811061175c57fe5b60009182526020918290200154604080517f70a0823100000000000000000000000000000000000000000000000000000000815230600482015290516001600160a01b03909216926370a0823192602480840193829003018186803b1580156117c457600080fd5b505afa1580156117d8573d6000803e3d6000fd5b505050506040513d60208110156117ee57600080fd5b505182518390839081106117fe57fe5b602002602001018181525050836001600160a01b0316606e828154811061182157fe5b6000918252602090912001546001600160a01b0316141561188e578282828151811061184957fe5b6020026020010151101561188e5760405162461bcd60e51b81526004018080602001828103825260338152602001806142946033913960400191505060405180910390fd5b600101611745565b506118a2816000613130565b6118aa6131c9565b505050565b606c546001600160a01b031681565b600060606118ca610945565b90506000805b606e5481101561193b57611931611924606e83815481106118ed57fe5b9060005260206000200160009054906101000a90046001600160a01b031685848151811061191757fe5b60200260200101516132dd565b839063ffffffff61339616565b91506001016118d0565b509150505b90565b6000805b606e5481101561199257826001600160a01b0316606e828154811061196857fe5b6000918252602090912001546001600160a01b0316141561198a5790506119ca565b600101611947565b5060405162461bcd60e51b815260040180806020018281038252602681526020018061432d6026913960400191505060405180910390fd5b919050565b6119da610d67612c33565b611a155760405162461bcd60e51b815260040180806020018281038252603c8152602001806142c7603c913960400191505060405180910390fd5b8051825114611a555760405162461bcd60e51b815260040180806020018281038252604181526020018061419f6041913960600191505060405180910390fd5b611a5d61312b565b815114611a9b5760405162461bcd60e51b81526004018080602001828103825260408152602001806140686040913960400191505060405180910390fd5b6060611aa561312b565b604051908082528060200260200182016040528015611ace578160200160208202803883390190505b50905060005b606e54811015611896576000611afc858381518110611aef57fe5b6020026020010151611943565b9050606e8181548110611b0b57fe5b60009182526020918290200154604080517f70a0823100000000000000000000000000000000000000000000000000000000815230600482015290516001600160a01b03909216926370a0823192602480840193829003018186803b158015611b7357600080fd5b505afa158015611b87573d6000803e3d6000fd5b505050506040513d6020811015611b9d57600080fd5b50518351849083908110611bad57fe5b602002602001018181525050838281518110611bc557fe5b6020026020010151838281518110611bd957fe5b60200260200101511015611c1e5760405162461bcd60e51b81526004018080602001828103825260338152602001806142946033913960400191505060405180910390fd5b50600101611ad4565b600080611c3383611943565b90506000611c3f6133f0565b90506000606d60009054906101000a90046001600160a01b03166001600160a01b03166318160ddd6040518163ffffffff1660e01b815260040160206040518083038186803b158015611c9157600080fd5b505afa158015611ca5573d6000803e3d6000fd5b505050506040513d6020811015611cbb57600080fd5b5051606954604080517f065a80d8000000000000000000000000000000000000000000000000000000008152600f87810b900b600482015290519293506000926001600160a01b039092169163065a80d891602480820192602092909190829003018186803b158015611d2d57600080fd5b505afa158015611d41573d6000803e3d6000fd5b505050506040513d6020811015611d5757600080fd5b505190506000611d7183610bd0848763ffffffff612b9116565b606a54604080517f23746eb8000000000000000000000000000000000000000000000000000000008152600f89810b900b600482015290519293506000926001600160a01b03909216916323746eb891602480820192602092909190829003018186803b158015611de157600080fd5b505afa158015611df5573d6000803e3d6000fd5b505050506040513d6020811015611e0b57600080fd5b5051604080517f77c7b8fc0000000000000000000000000000000000000000000000000000000081529051919250600091611e8091670de0b6b3a764000091610bd09187916001600160a01b038816916377c7b8fc916004808301926020929190829003018186803b158015610ce957600080fd5b9998505050505050505050565b611e95612454565b611ee6576040805162461bcd60e51b815260206004820181905260248201527f4f776e61626c653a2063616c6c6572206973206e6f7420746865206f776e6572604482015290519081900360640190fd5b6033546040516000916001600160a01b0316907f8be0079c531659141344cd1fd0a4f28419497f9722a3daafe3b4186f6b6457e0908390a3603380547fffffffffffffffffffffffff0000000000000000000000000000000000000000169055565b6066546000906001600160a01b0316611fa8576040805162461bcd60e51b815260206004820152600f60248201527f4d6f64756c653a206e6f20706f6f6c0000000000000000000000000000000000604482015290519081900360640190fd5b6066546040516020602482018181528551604484015285516000946060946001600160a01b03909116938893928392606401918501908083838b5b83811015611ffb578181015183820152602001611fe3565b50505050905090810190601f1680156120285780820380516001836020036101000a031916815260200191505b50604080517fffffffffffffffffffffffffffffffffffffffffffffffffffffffffffffffe08184030181529181526020820180517bffffffffffffffffffffffffffffffffffffffffffffffffffffffff167f693ec85e00000000000000000000000000000000000000000000000000000000178152905182519295509350839250908083835b602083106120ed57805182527fffffffffffffffffffffffffffffffffffffffffffffffffffffffffffffffe090920191602091820191016120b0565b6001836020036101000a038019825116818451168082178552505050505050905001915050600060405180830381855afa9150503d806000811461214d576040519150601f19603f3d011682016040523d82523d6000602084013e612152565b606091505b509150915081612163578060208201fd5b600081806020019051602081101561217a57600080fd5b505190506001600160a01b0381166121c35760405162461bcd60e51b81526004018080602001828103825260228152602001806142726022913960400191505060405180910390fd5b949350505050565b606d546001600160a01b031681565b600054610100900460ff16806121f357506121f3613485565b80612201575060005460ff16155b61223c5760405162461bcd60e51b815260040180806020018281038252602e815260200180614244602e913960400191505060405180910390fd5b600054610100900460ff16158015612267576000805460ff1961ff0019909116610100171660011790555b612277612272612c33565b61348b565b8015612289576000805461ff00191690555b50565b612297610d67612c33565b6122d25760405162461bcd60e51b815260040180806020018281038252603c8152602001806142c7603c913960400191505060405180910390fd5b6122da61312b565b8151146123185760405162461bcd60e51b815260040180806020018281038252602c815260200180614102602c913960400191505060405180910390fd5b606061232261312b565b60405190808252806020026020018201604052801561234b578160200160208202803883390190505b50905060005b606e5481101561238e5782818151811061236757fe5b602002602001015182828151811061237b57fe5b6020908102919091010152600101612351565b612396613594565b6123c0827fffffffffffffffffffffffffffffffffffffffffffffffffffffffffffffffff61368d565b6123c86131c9565b5060005b606e5481101561243f576000606e82815481106123e557fe5b9060005260206000200160009054906101000a90046001600160a01b031690506124368585848151811061241557fe5b6020026020010151836001600160a01b03166136a79092919063ffffffff16565b506001016123cc565b50505050565b6033546001600160a01b031690565b6033546000906001600160a01b031661246b612c33565b6001600160a01b031614905090565b6000805b606e548110156124cc57826001600160a01b0316606e828154811061249f57fe5b6000918252602090912001546001600160a01b031614156124c45760019150506119ca565b60010161247e565b50600092915050565b6060606e80548060200260200160405190810160405280929190818152602001828054801561252d57602002820191906000526020600020905b81546001600160a01b0316815260019091019060200180831161250f575b5050505050905090565b612542610d67612c33565b61257d5760405162461bcd60e51b815260040180806020018281038252603c8152602001806142c7603c913960400191505060405180910390fd5b61258683612b77565b6125d7576040805162461bcd60e51b815260206004820152601e60248201527f50726f746f636f6c426173653a206e6f742072657761726420746f6b656e0000604482015290519081900360640190fd5b6001600160a01b038316600090815260686020526040902054612600908263ffffffff612c9b16565b6001600160a01b0384166000818152606860205260409020919091556118aa90838363ffffffff6136a716565b600054610100900460ff16806126465750612646613485565b80612654575060005460ff16155b61268f5760405162461bcd60e51b815260040180806020018281038252602e815260200180614244602e913960400191505060405180910390fd5b600054610100900460ff161580156126ba576000805460ff1961ff0019909116610100171660011790555b6126c382613727565b6126cb61312b565b6040519080825280602002602001820160405280156126f4578160200160208202803883390190505b50805161270991606e91602090910190613f90565b50670e043da617250000606f558015612728576000805461ff00191690555b5050565b6069546001600160a01b031681565b612746610d67612c33565b6127815760405162461bcd60e51b815260040180806020018281038252603c8152602001806142c7603c913960400191505060405180910390fd5b612289816137e2565b60706020526000908152604090205460ff1681565b606b546001600160a01b031681565b604080516001808252818301909252606091829190602080830190803883395050606c5482519293506001600160a01b0316918391506000906127ed57fe5b6001600160a01b0390921660209283029190910190910152905090565b612815610d67612c33565b6128505760405162461bcd60e51b815260040180806020018281038252603c8152602001806142c7603c913960400191505060405180910390fd5b600061285b83611943565b604080517f70a0823100000000000000000000000000000000000000000000000000000000815230600482015290519192506000916001600160a01b038616916370a08231916024808301926020929190829003018186803b1580156128c057600080fd5b505afa1580156128d4573d6000803e3d6000fd5b505050506040513d60208110156128ea57600080fd5b505190506000612900848363ffffffff612c9b16565b9050600061290e86836132dd565b9050600061291a6118be565b905060006129266133f0565b9050600061295f670de0b6b3a7640000610bd085610bd0606f546129538a89612b9190919063ffffffff16565b9063ffffffff612b9116565b905061296a8161382a565b606a54604080517f517a55a300000000000000000000000000000000000000000000000000000000815260048101849052600f8a810b900b6024820152604481018890526001606482015290516001600160a01b039092169163517a55a39160848082019260009290919082900301818387803b1580156129ea57600080fd5b505af11580156129fe573d6000803e3d6000fd5b5050604080517f70a0823100000000000000000000000000000000000000000000000000000000815230600482015290516001600160a01b038d1693506370a0823192506024808301926020929190829003018186803b158015612a6157600080fd5b505afa158015612a75573d6000803e3d6000fd5b505050506040513d6020811015612a8b57600080fd5b5051955087861015612ace5760405162461bcd60e51b81526004018080602001828103825260348152602001806140a86034913960400191505060405180910390fd5b88612ae96001600160a01b0382168c8b63ffffffff6136a716565b5050505050505050505050565b606e5490565b612b04612454565b612b55576040805162461bcd60e51b815260206004820181905260248201527f4f776e61626c653a2063616c6c6572206973206e6f7420746865206f776e6572604482015290519081900360640190fd5b61228981613890565b6000612b7160678363ffffffff61394916565b92915050565b606c546001600160a01b0390811691161490565b606f5481565b600082612ba057506000612b71565b82820282848281612bad57fe5b0414612bea5760405162461bcd60e51b81526004018080602001828103825260218152602001806142016021913960400191505060405180910390fd5b9392505050565b6000612bea83836040518060400160405280601a81526020017f536166654d6174683a206469766973696f6e206279207a65726f0000000000008152506139b0565b3390565b606b60009054906101000a90046001600160a01b03166001600160a01b0316633d18b9126040518163ffffffff1660e01b8152600401600060405180830381600087803b158015612c8757600080fd5b505af115801561243f573d6000803e3d6000fd5b6000612bea83836040518060400160405280601e81526020017f536166654d6174683a207375627472616374696f6e206f766572666c6f770000815250613a52565b612cee60678263ffffffff613aac16565b6040516001600160a01b038216907f626bf7c6846fdc6e3f94a7c861b91118b5c0506bc3dc892b70f7d42bd619118790600090a250565b604080517f70a0823100000000000000000000000000000000000000000000000000000000815230600482015290516000916001600160a01b038416916370a0823191602480820192602092909190829003018186803b158015612d8857600080fd5b505afa158015612d9c573d6000803e3d6000fd5b505050506040513d6020811015612db257600080fd5b505190508015612dce57612dce82612dc8612c33565b8361280a565b6040516001600160a01b038316907fb02d270f645215800cec778b856004c753ad0c8c6ca520a91a8399acf4c63d4b90600090a25050565b6000816001600160a01b031663e7d279986040518163ffffffff1660e01b815260040160206040518083038186803b158015612e4157600080fd5b505afa158015612e55573d6000803e3d6000fd5b505050506040513d6020811015612e6b57600080fd5b505192915050565b801580612f125750604080517fdd62ed3e0000000000000000000000000000000000000000000000000000000081523060048201526001600160a01b03848116602483015291519185169163dd62ed3e91604480820192602092909190829003018186803b158015612ee457600080fd5b505afa158015612ef8573d6000803e3d6000fd5b505050506040513d6020811015612f0e57600080fd5b5051155b612f4d5760405162461bcd60e51b81526004018080602001828103825260368152602001806143536036913960400191505060405180910390fd5b604080516001600160a01b038416602482015260448082018490528251808303909101815260649091019091526020810180517bffffffffffffffffffffffffffffffffffffffffffffffffffffffff167f095ea7b3000000000000000000000000000000000000000000000000000000001790526118aa908490613b13565b604080517f70a08231000000000000000000000000000000000000000000000000000000008152306004820152905182916000916001600160a01b038416916370a08231916024808301926020929190829003018186803b15801561303157600080fd5b505afa158015613045573d6000803e3d6000fd5b505050506040513d602081101561305b57600080fd5b50519050801561306f5761306f83826116c6565b826001600160a01b031663313ce5676040518163ffffffff1660e01b815260040160206040518083038186803b1580156130a857600080fd5b505afa1580156130bc573d6000803e3d6000fd5b505050506040513d60208110156130d257600080fd5b50516001600160a01b038416600081815260706020526040808220805460ff191660ff90951694909417909355915190917f158412daecdc1456d01568828bcdb18464cc7f1ce0215ddbc3f3cfede9d1e63d91a2505050565b600490565b606a546001600160a01b031663029b2f3461314a84613ce9565b836040518363ffffffff1660e01b81526004018083600460200280838360005b8381101561318257818101518382015260200161316a565b5050505090500182815260200192505050600060405180830381600087803b1580156131ad57600080fd5b505af11580156131c1573d6000803e3d6000fd5b505050505050565b606d54604080517f70a0823100000000000000000000000000000000000000000000000000000000815230600482015290516000926001600160a01b0316916370a08231916024808301926020929190829003018186803b15801561322d57600080fd5b505afa158015613241573d6000803e3d6000fd5b505050506040513d602081101561325757600080fd5b5051606b54604080517fa694fc3a0000000000000000000000000000000000000000000000000000000081526004810184905290519293506001600160a01b039091169163a694fc3a9160248082019260009290919082900301818387803b1580156132c257600080fd5b505af11580156132d6573d6000803e3d6000fd5b5050505050565b6001600160a01b03821660009081526070602052604081205460ff16601281141561330b5782915050612b71565b601281111561335157613349837fffffffffffffffffffffffffffffffffffffffffffffffffffffffffffffffee8301600a0a63ffffffff612bf116565b915050612b71565b601281111561338f57613349837fffffffffffffffffffffffffffffffffffffffffffffffffffffffffffffffee8301600a0a63ffffffff612b9116565b5092915050565b600082820183811015612bea576040805162461bcd60e51b815260206004820152601b60248201527f536166654d6174683a206164646974696f6e206f766572666c6f770000000000604482015290519081900360640190fd5b606b54604080517f70a0823100000000000000000000000000000000000000000000000000000000815230600482015290516000926001600160a01b0316916370a08231916024808301926020929190829003018186803b15801561345457600080fd5b505afa158015613468573d6000803e3d6000fd5b505050506040513d602081101561347e57600080fd5b5051905090565b303b1590565b600054610100900460ff16806134a457506134a4613485565b806134b2575060005460ff16155b6134ed5760405162461bcd60e51b815260040180806020018281038252602e815260200180614244602e913960400191505060405180910390fd5b600054610100900460ff16158015613518576000805460ff1961ff0019909116610100171660011790555b603380547fffffffffffffffffffffffff0000000000000000000000000000000000000000166001600160a01b0384811691909117918290556040519116906000907f8be0079c531659141344cd1fd0a4f28419497f9722a3daafe3b4186f6b6457e0908290a38015612728576000805461ff00191690555050565b606b54604080517f70a0823100000000000000000000000000000000000000000000000000000000815230600482015290516000926001600160a01b0316916370a08231916024808301926020929190829003018186803b1580156135f857600080fd5b505afa15801561360c573d6000803e3d6000fd5b505050506040513d602081101561362257600080fd5b5051606b54604080517f2e1a7d4d0000000000000000000000000000000000000000000000000000000081526004810184905290519293506001600160a01b0390911691632e1a7d4d9160248082019260009290919082900301818387803b1580156132c257600080fd5b606a546001600160a01b03166318a7bd7661314a84613ce9565b604080516001600160a01b038416602482015260448082018490528251808303909101815260649091019091526020810180517bffffffffffffffffffffffffffffffffffffffffffffffffffffffff167fa9059cbb000000000000000000000000000000000000000000000000000000001790526118aa908490613b13565b600054610100900460ff16806137405750613740613485565b8061374e575060005460ff16155b6137895760405162461bcd60e51b815260040180806020018281038252602e815260200180614244602e913960400191505060405180910390fd5b600054610100900460ff161580156137b4576000805460ff1961ff0019909116610100171660011790555b6137bd82613d95565b6137cd6137c8612c33565b613e33565b8015612728576000805461ff00191690555050565b6137f360678263ffffffff613ed616565b6040516001600160a01b038216907fd2a1587d372a888fc8427f6f206845b51ddf76976073d43f23e512ad1f22483590600090a250565b606b54604080517f2e1a7d4d0000000000000000000000000000000000000000000000000000000081526004810184905290516001600160a01b0390921691632e1a7d4d9160248082019260009290919082900301818387803b1580156132c257600080fd5b6001600160a01b0381166138d55760405162461bcd60e51b81526004018080602001828103825260268152602001806140dc6026913960400191505060405180910390fd5b6033546040516001600160a01b038084169216907f8be0079c531659141344cd1fd0a4f28419497f9722a3daafe3b4186f6b6457e090600090a3603380547fffffffffffffffffffffffff0000000000000000000000000000000000000000166001600160a01b0392909216919091179055565b60006001600160a01b0382166139905760405162461bcd60e51b81526004018080602001828103825260228152602001806142226022913960400191505060405180910390fd5b506001600160a01b03166000908152602091909152604090205460ff1690565b60008183613a3c5760405162461bcd60e51b81526004018080602001828103825283818151815260200191508051906020019080838360005b83811015613a015781810151838201526020016139e9565b50505050905090810190601f168015613a2e5780820380516001836020036101000a031916815260200191505b509250505060405180910390fd5b506000838581613a4857fe5b0495945050505050565b60008184841115613aa45760405162461bcd60e51b8152602060048201818152835160248401528351909283926044909101919085019080838360008315613a015781810151838201526020016139e9565b505050900390565b613ab68282613949565b613af15760405162461bcd60e51b81526004018080602001828103825260218152602001806141e06021913960400191505060405180910390fd5b6001600160a01b0316600090815260209190915260409020805460ff19169055565b613b25826001600160a01b0316613f57565b613b76576040805162461bcd60e51b815260206004820152601f60248201527f5361666545524332303a2063616c6c20746f206e6f6e2d636f6e747261637400604482015290519081900360640190fd5b60006060836001600160a01b0316836040518082805190602001908083835b60208310613bd257805182527fffffffffffffffffffffffffffffffffffffffffffffffffffffffffffffffe09092019160209182019101613b95565b6001836020036101000a0380198251168184511680821785525050505050509050019150506000604051808303816000865af19150503d8060008114613c34576040519150601f19603f3d011682016040523d82523d6000602084013e613c39565b606091505b509150915081613c90576040805162461bcd60e51b815260206004820181905260248201527f5361666545524332303a206c6f772d6c6576656c2063616c6c206661696c6564604482015290519081900360640190fd5b80511561243f57808060200190516020811015613cac57600080fd5b505161243f5760405162461bcd60e51b815260040180806020018281038252602a815260200180614303602a913960400191505060405180910390fd5b613cf161400d565b6004825114613d315760405162461bcd60e51b815260040180806020018281038252602781526020018061412e6027913960400191505060405180910390fd5b613d3961400d565b506040805160808101825260008082526020820181905291810182905260608101829052905b600481101561338f57838181518110613d7457fe5b6020026020010151828260048110613d8857fe5b6020020152600101613d5f565b600054610100900460ff1680613dae5750613dae613485565b80613dbc575060005460ff16155b613df75760405162461bcd60e51b815260040180806020018281038252602e815260200180614244602e913960400191505060405180910390fd5b600054610100900460ff16158015613e22576000805460ff1961ff0019909116610100171660011790555b613e2a6121da565b6137cd82611028565b600054610100900460ff1680613e4c5750613e4c613485565b80613e5a575060005460ff16155b613e955760405162461bcd60e51b815260040180806020018281038252602e815260200180614244602e913960400191505060405180910390fd5b600054610100900460ff16158015613ec0576000805460ff1961ff0019909116610100171660011790555b613ec982612b5e565b6137cd576137cd826137e2565b613ee08282613949565b15613f32576040805162461bcd60e51b815260206004820152601f60248201527f526f6c65733a206163636f756e7420616c72656164792068617320726f6c6500604482015290519081900360640190fd5b6001600160a01b0316600090815260209190915260409020805460ff19166001179055565b6000813f7fc5d2460186f7233c927e7db2dcc703c0e500b653ca82273b7bfad8045d85a4708181148015906121c3575050151592915050565b828054828255906000526020600020908101928215613ffd579160200282015b82811115613ffd57825182547fffffffffffffffffffffffff0000000000000000000000000000000000000000166001600160a01b03909116178255602090920191600190910190613fb0565b5061400992915061402b565b5090565b60405180608001604052806004906020820280388339509192915050565b61194091905b808211156140095780547fffffffffffffffffffffffff000000000000000000000000000000000000000016815560010161403156fe437572766546695950726f746f636f6c3a20616d6f756e747320636f756e7420646f6573206e6f74206d61746368207265676973746572656420746f6b656e73437572766546695950726f746f636f6c3a206661696c656420746f20776974686472617720726571756972656420616d6f756e744f776e61626c653a206e6577206f776e657220697320746865207a65726f2061646472657373437572766546695950726f746f636f6c3a2077726f6e6720616d6f756e7473206172726179206c656e6774684375727665466950726f746f636f6c5f535553443a2077726f6e6720746f6b656e20636f756e744d6f64756c653a20706f6f6c20616464726573732063616e2774206265207a65726f43757276654669594d6f64756c653a206d756c7469706c6965722073686f756c64206265203e2031437572766546695950726f746f636f6c3a20636f756e74206f6620746f6b656e7320646f6573206e6f74206d6174636820636f756e74206f6620616d6f756e7473526f6c65733a206163636f756e7420646f6573206e6f74206861766520726f6c65536166654d6174683a206d756c7469706c69636174696f6e206f766572666c6f77526f6c65733a206163636f756e7420697320746865207a65726f2061646472657373436f6e747261637420696e7374616e63652068617320616c7265616479206265656e20696e697469616c697a65644d6f64756c653a20726571756573746564206d6f64756c65206e6f7420666f756e64437572766546695950726f746f636f6c3a2072657175657374656420616d6f756e74206973206e6f74206465706f7369746564446566694f70657261746f72526f6c653a2063616c6c657220646f6573206e6f7420686176652074686520446566694f70657261746f7220726f6c655361666545524332303a204552433230206f7065726174696f6e20646964206e6f742073756363656564437572766546695950726f746f636f6c3a20746f6b656e206e6f7420726567697374657265645361666545524332303a20617070726f76652066726f6d206e6f6e2d7a65726f20746f206e6f6e2d7a65726f20616c6c6f77616e6365a265627a7a72315820d8ee680f6658d1cb796fe3a2609db3ba0dca18f6fc48f164f4c255ae7847121a64736f6c63430005110032",
  "source": "pragma solidity ^0.5.12;\n\nimport \"./CurveFiProtocol.sol\";\nimport \"../../interfaces/defi/ICurveFiDeposit_SUSD.sol\";\nimport \"../../interfaces/defi/ICurveFiRewards_SUSD.sol\";\n\ncontract CurveFiProtocol_SUSD is CurveFiProtocol {\n    uint256 private constant N_COINS = 4;\n\n    function nCoins() internal returns(uint256) {\n        return N_COINS;\n    }\n\n    function reward_rewardToken(address rewardsController) internal returns(address){\n        return ICurveFiRewards_SUSD(rewardsController).snx();\n    }\n\n    function convertArray(uint256[] memory amounts) internal pure returns(uint256[N_COINS] memory) {\n        require(amounts.length == N_COINS, \"CurveFiProtocol_SUSD: wrong token count\");\n        uint256[N_COINS] memory amnts = [uint256(0), uint256(0), uint256(0), uint256(0)];\n        for(uint256 i=0; i < N_COINS; i++){\n            amnts[i] = amounts[i];\n        }\n        return amnts;\n    }\n\n    function deposit_add_liquidity(uint256[] memory amounts, uint256 min_mint_amount) internal {\n        ICurveFiDeposit_SUSD(address(curveFiDeposit)).add_liquidity(convertArray(amounts), min_mint_amount);\n    }\n\n    function deposit_remove_liquidity_imbalance(uint256[] memory amounts, uint256 max_burn_amount) internal {\n        ICurveFiDeposit_SUSD(address(curveFiDeposit)).remove_liquidity_imbalance(convertArray(amounts), max_burn_amount);\n    }\n\n}\n",
  "sourcePath": "/Users/ilya/Documents/Akropolis/dca-strategy-bot/contracts/modules/defi/CurveFiProtocol_SUSD.sol",
  "compiler": {
    "name": "solc",
    "version": "0.5.17+commit.d19bba13.Emscripten.clang"
  },
  "schemaVersion": "3.2.3",
  "updatedAt": "2020-08-11T09:46:30.821Z",
  "devdoc": {
    "methods": {
      "isOwner()": {
        "details": "Returns true if the caller is the current owner."
      },
      "owner()": {
        "details": "Returns the address of the current owner."
      },
      "renounceOwnership()": {
        "details": "Leaves the contract without owner. It will not be possible to call `onlyOwner` functions anymore. Can only be called by the current owner.     * > Note: Renouncing ownership will leave the contract without an owner, thereby removing any functionality that is only available to the owner."
      },
      "transferOwnership(address)": {
        "details": "Transfers ownership of the contract to a new account (`newOwner`). Can only be called by the current owner."
      },
      "withdraw(address,address,uint256)": {
        "details": "With this function beneficiary will recieve exact amount he asked.  Slippage + fee is paid from his account in SavingsModule"
      }
    }
  },
  "userdoc": {
    "methods": {}
  }
}