{
  "contractName": "CurveFiSwapStub_SBTC",
  "abi": [
    {
      "anonymous": false,
      "inputs": [
        {
          "indexed": true,
          "internalType": "address",
          "name": "previousOwner",
          "type": "address"
        },
        {
          "indexed": true,
          "internalType": "address",
          "name": "newOwner",
          "type": "address"
        }
      ],
      "name": "OwnershipTransferred",
      "type": "event"
    },
    {
      "constant": true,
      "inputs": [],
      "name": "N_COINS",
      "outputs": [
        {
          "internalType": "uint256",
          "name": "",
          "type": "uint256"
        }
      ],
      "payable": false,
      "stateMutability": "view",
      "type": "function"
    },
    {
      "constant": true,
      "inputs": [],
      "name": "isOwner",
      "outputs": [
        {
          "internalType": "bool",
          "name": "",
          "type": "bool"
        }
      ],
      "payable": false,
      "stateMutability": "view",
      "type": "function"
    },
    {
      "constant": true,
      "inputs": [],
      "name": "owner",
      "outputs": [
        {
          "internalType": "address",
          "name": "",
          "type": "address"
        }
      ],
      "payable": false,
      "stateMutability": "view",
      "type": "function"
    },
    {
      "constant": false,
      "inputs": [],
      "name": "renounceOwnership",
      "outputs": [],
      "payable": false,
      "stateMutability": "nonpayable",
      "type": "function"
    },
    {
      "constant": true,
      "inputs": [],
      "name": "token",
      "outputs": [
        {
          "internalType": "contract CurveFiTokenStub_SBTC",
          "name": "",
          "type": "address"
        }
      ],
      "payable": false,
      "stateMutability": "view",
      "type": "function"
    },
    {
      "constant": false,
      "inputs": [
        {
          "internalType": "address",
          "name": "newOwner",
          "type": "address"
        }
      ],
      "name": "transferOwnership",
      "outputs": [],
      "payable": false,
      "stateMutability": "nonpayable",
      "type": "function"
    },
    {
      "constant": false,
      "inputs": [
        {
          "internalType": "address[3]",
          "name": "__coins",
          "type": "address[3]"
        }
      ],
      "name": "initialize",
      "outputs": [],
      "payable": false,
      "stateMutability": "nonpayable",
      "type": "function"
    },
    {
      "constant": false,
      "inputs": [],
      "name": "initialize",
      "outputs": [],
      "payable": false,
      "stateMutability": "nonpayable",
      "type": "function"
    },
    {
      "constant": false,
      "inputs": [
        {
          "internalType": "address",
          "name": "sender",
          "type": "address"
        }
      ],
      "name": "initialize",
      "outputs": [],
      "payable": false,
      "stateMutability": "nonpayable",
      "type": "function"
    },
    {
      "constant": false,
      "inputs": [
        {
          "internalType": "uint256[3]",
          "name": "amounts",
          "type": "uint256[3]"
        },
        {
          "internalType": "uint256",
          "name": "min_mint_amount",
          "type": "uint256"
        }
      ],
      "name": "add_liquidity",
      "outputs": [],
      "payable": false,
      "stateMutability": "nonpayable",
      "type": "function"
    },
    {
      "constant": false,
      "inputs": [
        {
          "internalType": "uint256",
          "name": "_amount",
          "type": "uint256"
        },
        {
          "internalType": "uint256[3]",
          "name": "min_amounts",
          "type": "uint256[3]"
        }
      ],
      "name": "remove_liquidity",
      "outputs": [],
      "payable": false,
      "stateMutability": "nonpayable",
      "type": "function"
    },
    {
      "constant": false,
      "inputs": [
        {
          "internalType": "uint256[3]",
          "name": "amounts",
          "type": "uint256[3]"
        },
        {
          "internalType": "uint256",
          "name": "max_burn_amount",
          "type": "uint256"
        }
      ],
      "name": "remove_liquidity_imbalance",
      "outputs": [],
      "payable": false,
      "stateMutability": "nonpayable",
      "type": "function"
    },
    {
      "constant": true,
      "inputs": [
        {
          "internalType": "uint256[3]",
          "name": "amounts",
          "type": "uint256[3]"
        },
        {
          "internalType": "bool",
          "name": "deposit",
          "type": "bool"
        }
      ],
      "name": "calc_token_amount",
      "outputs": [
        {
          "internalType": "uint256",
          "name": "",
          "type": "uint256"
        }
      ],
      "payable": false,
      "stateMutability": "view",
      "type": "function"
    },
    {
      "constant": true,
      "inputs": [
        {
          "internalType": "int128",
          "name": "i",
          "type": "int128"
        }
      ],
      "name": "balances",
      "outputs": [
        {
          "internalType": "uint256",
          "name": "",
          "type": "uint256"
        }
      ],
      "payable": false,
      "stateMutability": "view",
      "type": "function"
    },
    {
      "constant": true,
      "inputs": [],
      "name": "A",
      "outputs": [
        {
          "internalType": "uint256",
          "name": "",
          "type": "uint256"
        }
      ],
      "payable": false,
      "stateMutability": "view",
      "type": "function"
    },
    {
      "constant": true,
      "inputs": [],
      "name": "fee",
      "outputs": [
        {
          "internalType": "uint256",
          "name": "",
          "type": "uint256"
        }
      ],
      "payable": false,
      "stateMutability": "view",
      "type": "function"
    },
    {
      "constant": true,
      "inputs": [
        {
          "internalType": "int128",
          "name": "i",
          "type": "int128"
        }
      ],
      "name": "coins",
      "outputs": [
        {
          "internalType": "address",
          "name": "",
          "type": "address"
        }
      ],
      "payable": false,
      "stateMutability": "view",
      "type": "function"
    }
  ],
  "bytecode": "0x6080604052613796806100136000396000f3fe608060405234801561001057600080fd5b506004361061011b5760003560e01c80638da5cb5b116100b2578063ddca3f4311610081578063f2fde38b11610066578063f2fde38b146103b8578063f446c1d01461035a578063fc0c546a146103eb5761011b565b8063ddca3f431461035a578063ecb586a5146103625761011b565b80638da5cb5b146102af5780638f32d59b146102b75780639fdaea0c146102d3578063c4d66de8146103275761011b565b80633883e119116100ee5780633883e119146101f75780634515cef31461024b578063715018a61461029f5780638129fc1c146102a75761011b565b8063065a80d814610120578063165ef3b71461015257806323746eb8146101a657806329357750146101ef575b600080fd5b6101406004803603602081101561013657600080fd5b5035600f0b6103f3565b60408051918252519081900360200190f35b6101a46004803603606081101561016857600080fd5b81019080806060019060038060200260405190810160405280929190826003602002808284376000920191909152509194506104a79350505050565b005b6101c6600480360360208110156101bc57600080fd5b5035600f0b6105cb565b6040805173ffffffffffffffffffffffffffffffffffffffff9092168252519081900360200190f35b6101406105fb565b6101406004803603608081101561020d57600080fd5b810190808060600190600380602002604051908101604052809291908260036020028082843760009201919091525091945050503515159050610600565b6101a46004803603608081101561026157600080fd5b810190808060600190600380602002604051908101604052809291908260036020028082843760009201919091525091945050903591506106e59050565b6101a46109ed565b6101a4610ab5565b6101c6610b85565b6102bf610ba2565b604080519115158252519081900360200190f35b6101a4600480360360808110156102e957600080fd5b81019080806060019060038060200260405190810160405280929190826003602002808284376000920191909152509194505090359150610be29050565b6101a46004803603602081101561033d57600080fd5b503573ffffffffffffffffffffffffffffffffffffffff16610dd3565b610140610f07565b6101a46004803603608081101561037857600080fd5b604080516060818101909252833593928301929160808301919060208401906003908390839080828437600092019190915250919450610f0c9350505050565b6101a4600480360360208110156103ce57600080fd5b503573ffffffffffffffffffffffffffffffffffffffff1661120f565b6101c6611271565b6000606782600f0b6003811061040557fe5b0154604080517f70a08231000000000000000000000000000000000000000000000000000000008152306004820152905173ffffffffffffffffffffffffffffffffffffffff909216916370a0823191602480820192602092909190829003018186803b15801561047557600080fd5b505afa158015610489573d6000803e3d6000fd5b505050506040513d602081101561049f57600080fd5b505192915050565b600054610100900460ff16806104c057506104c061128d565b806104ce575060005460ff16155b6105095760405162461bcd60e51b815260040180806020018281038252602e815260200180613702602e913960400191505060405180910390fd5b600054610100900460ff1615801561055257600080547fffffffffffffffffffffffffffffffffffffffffffffffffffffffffffffff0061ff0019909116610100171660011790555b61055a610ab5565b6105676067836003611989565b50610570611293565b606680547fffffffffffffffffffffffff00000000000000000000000000000000000000001673ffffffffffffffffffffffffffffffffffffffff9290921691909117905580156105c7576000805461ff00191690555b5050565b6000606782600f0b600381106105dd57fe5b015473ffffffffffffffffffffffffffffffffffffffff1692915050565b600381565b600080600061060f8585611327565b90925090506000805b60038110156106a957600061062c826103f3565b905087826003811061063a57fe5b602002015181101561067d5760405162461bcd60e51b81526004018080602001828103825260228152602001806136606022913960400191505060405180910390fd5b61069e88836003811061068c57fe5b6020020151849063ffffffff6115a416565b925050600101610618565b5081156106c7576106c0818463ffffffff61160516565b90506106da565b6106d7818463ffffffff6115a416565b90505b925050505b92915050565b6000805b600381101561085757606781600381106106ff57fe5b015473ffffffffffffffffffffffffffffffffffffffff166323b872dd610724611647565b3087856003811061073157fe5b60200201516040518463ffffffff1660e01b8152600401808473ffffffffffffffffffffffffffffffffffffffff1673ffffffffffffffffffffffffffffffffffffffff1681526020018373ffffffffffffffffffffffffffffffffffffffff1673ffffffffffffffffffffffffffffffffffffffff1681526020018281526020019350505050602060405180830381600087803b1580156107d257600080fd5b505af11580156107e6573d6000803e3d6000fd5b505050506040513d60208110156107fc57600080fd5b5061084d90506108406067836003811061081257fe5b015473ffffffffffffffffffffffffffffffffffffffff1686846003811061083657fe5b602002015161164b565b839063ffffffff6115a416565b91506001016106e9565b50600080610866856000611327565b91509150801561088757610880838363ffffffff6115a416565b925061089a565b610897838363ffffffff61160516565b92505b838310156108d95760405162461bcd60e51b81526004018080602001828103825260328152602001806137306032913960400191505060405180910390fd5b60665473ffffffffffffffffffffffffffffffffffffffff166340c10f196108ff611647565b856040518363ffffffff1660e01b8152600401808373ffffffffffffffffffffffffffffffffffffffff1673ffffffffffffffffffffffffffffffffffffffff16815260200182815260200192505050602060405180830381600087803b15801561096957600080fd5b505af115801561097d573d6000803e3d6000fd5b505050506040513d602081101561099357600080fd5b50516109e6576040805162461bcd60e51b815260206004820152601c60248201527f4375727665466953776170537475623a204d696e74206661696c656400000000604482015290519081900360640190fd5b5050505050565b6109f5610ba2565b610a46576040805162461bcd60e51b815260206004820181905260248201527f4f776e61626c653a2063616c6c6572206973206e6f7420746865206f776e6572604482015290519081900360640190fd5b60335460405160009173ffffffffffffffffffffffffffffffffffffffff16907f8be0079c531659141344cd1fd0a4f28419497f9722a3daafe3b4186f6b6457e0908390a3603380547fffffffffffffffffffffffff0000000000000000000000000000000000000000169055565b600054610100900460ff1680610ace5750610ace61128d565b80610adc575060005460ff16155b610b175760405162461bcd60e51b815260040180806020018281038252602e815260200180613702602e913960400191505060405180910390fd5b600054610100900460ff16158015610b6057600080547fffffffffffffffffffffffffffffffffffffffffffffffffffffffffffffff0061ff0019909116610100171660011790555b610b70610b6b611647565b610dd3565b8015610b82576000805461ff00191690555b50565b60335473ffffffffffffffffffffffffffffffffffffffff165b90565b60335460009073ffffffffffffffffffffffffffffffffffffffff16610bc6611647565b73ffffffffffffffffffffffffffffffffffffffff1614905090565b6000610bef836000610600565b905060005b6003811015610cdd5760678160038110610c0a57fe5b015473ffffffffffffffffffffffffffffffffffffffff1663a9059cbb610c2f611647565b868460038110610c3b57fe5b60200201516040518363ffffffff1660e01b8152600401808373ffffffffffffffffffffffffffffffffffffffff1673ffffffffffffffffffffffffffffffffffffffff16815260200182815260200192505050602060405180830381600087803b158015610ca957600080fd5b505af1158015610cbd573d6000803e3d6000fd5b505050506040513d6020811015610cd357600080fd5b5050600101610bf4565b50811580610ceb5750818111155b610d265760405162461bcd60e51b81526004018080602001828103825260328152602001806136826032913960400191505060405180910390fd5b60665473ffffffffffffffffffffffffffffffffffffffff166379cc6790610d4c611647565b836040518363ffffffff1660e01b8152600401808373ffffffffffffffffffffffffffffffffffffffff1673ffffffffffffffffffffffffffffffffffffffff16815260200182815260200192505050600060405180830381600087803b158015610db657600080fd5b505af1158015610dca573d6000803e3d6000fd5b50505050505050565b600054610100900460ff1680610dec5750610dec61128d565b80610dfa575060005460ff16155b610e355760405162461bcd60e51b815260040180806020018281038252602e815260200180613702602e913960400191505060405180910390fd5b600054610100900460ff16158015610e7e57600080547fffffffffffffffffffffffffffffffffffffffffffffffffffffffffffffff0061ff0019909116610100171660011790555b603380547fffffffffffffffffffffffff00000000000000000000000000000000000000001673ffffffffffffffffffffffffffffffffffffffff84811691909117918290556040519116906000907f8be0079c531659141344cd1fd0a4f28419497f9722a3daafe3b4186f6b6457e0908290a380156105c7576000805461ff00191690555050565b600090565b606654604080517f18160ddd000000000000000000000000000000000000000000000000000000008152905160009273ffffffffffffffffffffffffffffffffffffffff16916318160ddd916004808301926020929190829003018186803b158015610f7757600080fd5b505afa158015610f8b573d6000803e3d6000fd5b505050506040513d6020811015610fa157600080fd5b5051604080516003808252608082019092529192506060919060208201838038833901905050905060005b6003811015611160576000610fe0826103f3565b905061100284610ff6888463ffffffff61171216565b9063ffffffff61176b16565b83838151811061100e57fe5b60200260200101818152505084826003811061102657fe5b602002015183838151811061103757fe5b6020026020010151101561107c5760405162461bcd60e51b815260040180806020018281038252602d8152602001806136d5602d913960400191505060405180910390fd5b6067826003811061108957fe5b015473ffffffffffffffffffffffffffffffffffffffff1663a9059cbb6110ae611647565b8585815181106110ba57fe5b60200260200101516040518363ffffffff1660e01b8152600401808373ffffffffffffffffffffffffffffffffffffffff1673ffffffffffffffffffffffffffffffffffffffff16815260200182815260200192505050602060405180830381600087803b15801561112b57600080fd5b505af115801561113f573d6000803e3d6000fd5b505050506040513d602081101561115557600080fd5b505050600101610fcc565b5060665473ffffffffffffffffffffffffffffffffffffffff166379cc6790611187611647565b866040518363ffffffff1660e01b8152600401808373ffffffffffffffffffffffffffffffffffffffff1673ffffffffffffffffffffffffffffffffffffffff16815260200182815260200192505050600060405180830381600087803b1580156111f157600080fd5b505af1158015611205573d6000803e3d6000fd5b5050505050505050565b611217610ba2565b611268576040805162461bcd60e51b815260206004820181905260248201527f4f776e61626c653a2063616c6c6572206973206e6f7420746865206f776e6572604482015290519081900360640190fd5b610b82816117ad565b60665473ffffffffffffffffffffffffffffffffffffffff1681565b303b1590565b6000806040516112a290611a06565b604051809103906000f0801580156112be573d6000803e3d6000fd5b5090508073ffffffffffffffffffffffffffffffffffffffff16638129fc1c6040518163ffffffff1660e01b8152600401600060405180830381600087803b15801561130957600080fd5b505af115801561131d573d6000803e3d6000fd5b5092935050505090565b60408051600380825260808201909252600091829182916060919060208201838038833901905050905060005b60038110156113ae57611366816103f3565b82828151811061137257fe5b6020026020010181815250506113a482828151811061138d57fe5b6020026020010151846115a490919063ffffffff16565b9250600101611354565b506113c082600363ffffffff61176b16565b91506000805b600381101561155a576000848483815181106113de57fe5b60200260200101510390506000881561140b578983600381106113fd57fe5b602002015182019050611421565b89836003811061141757fe5b6020020151820390505b6000611457670de0b6b3a7640000610ff666b1a2bc2ec500008e886003811061144657fe5b60200201519063ffffffff61171216565b9050600083611468575060006114d7565b8a1561149857838c866003811061147b57fe5b602002015166b1a2bc2ec50000028161149057fe5b0590506114d7565b838c86600381106114a557fe5b60200201517fffffffffffffffffffffffffffffffffffffffffffffffffff4e5d43d13b000002816114d357fe5b0590505b6000811380156114e657508181135b156114ee5750805b60008112801561151f575081817fffffffffffffffffffffffffffffffffffffffffffffffffffffffffffffffff02135b1561154a57817fffffffffffffffffffffffffffffffffffffffffffffffffffffffffffffffff0290505b94909401935050506001016113c6565b5060008112156115925760019350807fffffffffffffffffffffffffffffffffffffffffffffffffffffffffffffffff02945061159a565b600093508094505b5050509250929050565b6000828201838110156115fe576040805162461bcd60e51b815260206004820152601b60248201527f536166654d6174683a206164646974696f6e206f766572666c6f770000000000604482015290519081900360640190fd5b9392505050565b60006115fe83836040518060400160405280601e81526020017f536166654d6174683a207375627472616374696f6e206f766572666c6f77000081525061188d565b3390565b6000808373ffffffffffffffffffffffffffffffffffffffff1663313ce5676040518163ffffffff1660e01b815260040160206040518083038186803b15801561169457600080fd5b505afa1580156116a8573d6000803e3d6000fd5b505050506040513d60208110156116be57600080fd5b50519050601260ff821610156116e2578060120360ff16600a0a83029150506106df565b60128160ff161115611709576012810360ff16600a0a838161170057fe5b049150506106df565b829150506106df565b600082611721575060006106df565b8282028284828161172e57fe5b04146115fe5760405162461bcd60e51b81526004018080602001828103825260218152602001806136b46021913960400191505060405180910390fd5b60006115fe83836040518060400160405280601a81526020017f536166654d6174683a206469766973696f6e206279207a65726f000000000000815250611924565b73ffffffffffffffffffffffffffffffffffffffff81166117ff5760405162461bcd60e51b815260040180806020018281038252602681526020018061363a6026913960400191505060405180910390fd5b60335460405173ffffffffffffffffffffffffffffffffffffffff8084169216907f8be0079c531659141344cd1fd0a4f28419497f9722a3daafe3b4186f6b6457e090600090a3603380547fffffffffffffffffffffffff00000000000000000000000000000000000000001673ffffffffffffffffffffffffffffffffffffffff92909216919091179055565b6000818484111561191c5760405162461bcd60e51b81526004018080602001828103825283818151815260200191508051906020019080838360005b838110156118e15781810151838201526020016118c9565b50505050905090810190601f16801561190e5780820380516001836020036101000a031916815260200191505b509250505060405180910390fd5b505050900390565b600081836119735760405162461bcd60e51b81526020600482018181528351602484015283519092839260449091019190850190808383600083156118e15781810151838201526020016118c9565b50600083858161197f57fe5b0495945050505050565b82600381019282156119f6579160200282015b828111156119f657825182547fffffffffffffffffffffffff00000000000000000000000000000000000000001673ffffffffffffffffffffffffffffffffffffffff90911617825560209092019160019091019061199c565b50611a02929150611a13565b5090565b611bea80611a5083390190565b610b9f91905b80821115611a025780547fffffffffffffffffffffffff0000000000000000000000000000000000000000168155600101611a1956fe6080604052611bd7806100136000396000f3fe608060405234801561001057600080fd5b50600436106101985760003560e01c80638129fc1c116100e3578063a457c2d71161008c578063c4d66de811610066578063c4d66de8146105b3578063dd62ed3e146105d9578063f2fde38b1461060757610198565b8063a457c2d714610535578063a9059cbb14610561578063aa271e1a1461058d57610198565b806395d89b41116100bd57806395d89b41146104ff578063983b2d5614610507578063986502751461052d57610198565b80638129fc1c146104cb5780638da5cb5b146104d35780638f32d59b146104f757610198565b8063395093511161014557806370a082311161011f57806370a0823114610471578063715018a61461049757806379cc67901461049f57610198565b806339509351146103fc57806340c10f191461042857806342966c681461045457610198565b806318160ddd1161017657806318160ddd1461038e57806323b872dd146103a8578063313ce567146103de57610198565b806306fdde031461019d578063095ea7b31461021a5780631624f6c61461025a575b600080fd5b6101a561062d565b6040805160208082528351818301528351919283929083019185019080838360005b838110156101df5781810151838201526020016101c7565b50505050905090810190601f16801561020c5780820380516001836020036101000a031916815260200191505b509250505060405180910390f35b6102466004803603604081101561023057600080fd5b506001600160a01b0381351690602001356106e2565b604080519115158252519081900360200190f35b61038c6004803603606081101561027057600080fd5b81019060208101813564010000000081111561028b57600080fd5b82018360208201111561029d57600080fd5b803590602001918460018302840111640100000000831117156102bf57600080fd5b91908080601f016020809104026020016040519081016040528093929190818152602001838380828437600092019190915250929594936020810193503591505064010000000081111561031257600080fd5b82018360208201111561032457600080fd5b8035906020019184600183028401116401000000008311171561034657600080fd5b91908080601f0160208091040260200160405190810160405280939291908181526020018383808284376000920191909152509295505050903560ff1691506106ff9050565b005b6103966107db565b60408051918252519081900360200190f35b610246600480360360608110156103be57600080fd5b506001600160a01b038135811691602081013590911690604001356107e1565b6103e661086e565b6040805160ff9092168252519081900360200190f35b6102466004803603604081101561041257600080fd5b506001600160a01b038135169060200135610877565b6102466004803603604081101561043e57600080fd5b506001600160a01b0381351690602001356108cb565b61038c6004803603602081101561046a57600080fd5b5035610922565b6103966004803603602081101561048757600080fd5b50356001600160a01b0316610936565b61038c610951565b61038c600480360360408110156104b557600080fd5b506001600160a01b038135169060200135610a0c565b61038c610a1a565b6104db610b42565b604080516001600160a01b039092168252519081900360200190f35b610246610b51565b6101a5610b77565b61038c6004803603602081101561051d57600080fd5b50356001600160a01b0316610bf6565b61038c610c45565b6102466004803603604081101561054b57600080fd5b506001600160a01b038135169060200135610c57565b6102466004803603604081101561057757600080fd5b506001600160a01b038135169060200135610cc5565b610246600480360360208110156105a357600080fd5b50356001600160a01b0316610cd9565b61038c600480360360208110156105c957600080fd5b50356001600160a01b0316610cf2565b610396600480360360408110156105ef57600080fd5b506001600160a01b0381358116916020013516610d9d565b61038c6004803603602081101561061d57600080fd5b50356001600160a01b0316610dc8565b609b8054604080516020601f60027fffffffffffffffffffffffffffffffffffffffffffffffffffffffffffffffff6101006001881615020190951694909404938401819004810282018101909252828152606093909290918301828280156106d75780601f106106ac576101008083540402835291602001916106d7565b820191906000526020600020905b8154815290600101906020018083116106ba57829003601f168201915b505050505090505b90565b60006106f66106ef610e2a565b8484610e2e565b50600192915050565b600054610100900460ff16806107185750610718610f1a565b80610726575060005460ff16155b6107615760405162461bcd60e51b815260040180806020018281038252602e815260200180611ac2602e913960400191505060405180910390fd5b600054610100900460ff1615801561078c576000805460ff1961ff0019909116610100171660011790555b835161079f90609b9060208701906118db565b5082516107b390609c9060208601906118db565b50609d805460ff191660ff841617905580156107d5576000805461ff00191690555b50505050565b60685490565b60006107ee848484610f20565b610864846107fa610e2a565b61085f85604051806060016040528060288152602001611a78602891396001600160a01b038a16600090815260676020526040812090610838610e2a565b6001600160a01b03168152602081019190915260400160002054919063ffffffff61107e16565b610e2e565b5060019392505050565b609d5460ff1690565b60006106f6610884610e2a565b8461085f8560676000610895610e2a565b6001600160a01b03908116825260208083019390935260409182016000908120918c16815292529020549063ffffffff61111516565b60006108dd6108d8610e2a565b610cd9565b6109185760405162461bcd60e51b8152600401808060200182810382526030815260200180611a276030913960400191505060405180910390fd5b6106f68383611176565b61093361092d610e2a565b82611268565b50565b6001600160a01b031660009081526066602052604090205490565b610959610b51565b6109aa576040805162461bcd60e51b815260206004820181905260248201527f4f776e61626c653a2063616c6c6572206973206e6f7420746865206f776e6572604482015290519081900360640190fd5b6033546040516000916001600160a01b0316907f8be0079c531659141344cd1fd0a4f28419497f9722a3daafe3b4186f6b6457e0908390a3603380547fffffffffffffffffffffffff0000000000000000000000000000000000000000169055565b610a168282611364565b5050565b600054610100900460ff1680610a335750610a33610f1a565b80610a41575060005460ff16155b610a7c5760405162461bcd60e51b815260040180806020018281038252602e815260200180611ac2602e913960400191505060405180910390fd5b600054610100900460ff16158015610aa7576000805460ff1961ff0019909116610100171660011790555b610aaf6113b8565b610ab830610cf2565b610b2e6040518060400160405280601981526020017f43757276652e66692072656e4254432f774254432f73425443000000000000008152506040518060400160405280600b81526020017f63727652656e575342544300000000000000000000000000000000000000000081525060126106ff565b8015610933576000805461ff001916905550565b6033546001600160a01b031690565b6033546000906001600160a01b0316610b68610e2a565b6001600160a01b031614905090565b609c8054604080516020601f60027fffffffffffffffffffffffffffffffffffffffffffffffffffffffffffffffff6101006001881615020190951694909404938401819004810282018101909252828152606093909290918301828280156106d75780601f106106ac576101008083540402835291602001916106d7565b610c016108d8610e2a565b610c3c5760405162461bcd60e51b8152600401808060200182810382526030815260200180611a276030913960400191505060405180910390fd5b61093381611455565b610c55610c50610e2a565b61149d565b565b60006106f6610c64610e2a565b8461085f85604051806060016040528060258152602001611b7e6025913960676000610c8e610e2a565b6001600160a01b03908116825260208083019390935260409182016000908120918d1681529252902054919063ffffffff61107e16565b60006106f6610cd2610e2a565b8484610f20565b6000610cec60d08363ffffffff6114e516565b92915050565b600054610100900460ff1680610d0b5750610d0b610f1a565b80610d19575060005460ff16155b610d545760405162461bcd60e51b815260040180806020018281038252602e815260200180611ac2602e913960400191505060405180910390fd5b600054610100900460ff16158015610d7f576000805460ff1961ff0019909116610100171660011790555b610d888261154c565b8015610a16576000805461ff00191690555050565b6001600160a01b03918216600090815260676020908152604080832093909416825291909152205490565b610dd0610b51565b610e21576040805162461bcd60e51b815260206004820181905260248201527f4f776e61626c653a2063616c6c6572206973206e6f7420746865206f776e6572604482015290519081900360640190fd5b610933816115ef565b3390565b6001600160a01b038316610e735760405162461bcd60e51b8152600401808060200182810382526024815260200180611b5a6024913960400191505060405180910390fd5b6001600160a01b038216610eb85760405162461bcd60e51b81526004018080602001828103825260228152602001806119df6022913960400191505060405180910390fd5b6001600160a01b03808416600081815260676020908152604080832094871680845294825291829020859055815185815291517f8c5be1e5ebec7d5bd14f71427d1e84f3dd0314c0f7b2291e5b200ac8c7c3b9259281900390910190a3505050565b303b1590565b6001600160a01b038316610f655760405162461bcd60e51b8152600401808060200182810382526025815260200180611b356025913960400191505060405180910390fd5b6001600160a01b038216610faa5760405162461bcd60e51b81526004018080602001828103825260238152602001806119746023913960400191505060405180910390fd5b610fed81604051806060016040528060268152602001611a01602691396001600160a01b038616600090815260666020526040902054919063ffffffff61107e16565b6001600160a01b038085166000908152606660205260408082209390935590841681522054611022908263ffffffff61111516565b6001600160a01b0380841660008181526066602090815260409182902094909455805185815290519193928716927fddf252ad1be2c89b69c2b068fc378daa952ba7f163c4a11628f55a4df523b3ef92918290030190a3505050565b6000818484111561110d5760405162461bcd60e51b81526004018080602001828103825283818151815260200191508051906020019080838360005b838110156110d25781810151838201526020016110ba565b50505050905090810190601f1680156110ff5780820380516001836020036101000a031916815260200191505b509250505060405180910390fd5b505050900390565b60008282018381101561116f576040805162461bcd60e51b815260206004820152601b60248201527f536166654d6174683a206164646974696f6e206f766572666c6f770000000000604482015290519081900360640190fd5b9392505050565b6001600160a01b0382166111d1576040805162461bcd60e51b815260206004820152601f60248201527f45524332303a206d696e7420746f20746865207a65726f206164647265737300604482015290519081900360640190fd5b6068546111e4908263ffffffff61111516565b6068556001600160a01b038216600090815260666020526040902054611210908263ffffffff61111516565b6001600160a01b03831660008181526066602090815260408083209490945583518581529351929391927fddf252ad1be2c89b69c2b068fc378daa952ba7f163c4a11628f55a4df523b3ef9281900390910190a35050565b6001600160a01b0382166112ad5760405162461bcd60e51b8152600401808060200182810382526021815260200180611b146021913960400191505060405180910390fd5b6112f081604051806060016040528060228152602001611997602291396001600160a01b038516600090815260666020526040902054919063ffffffff61107e16565b6001600160a01b03831660009081526066602052604090205560685461131c908263ffffffff6116a816565b6068556040805182815290516000916001600160a01b038516917fddf252ad1be2c89b69c2b068fc378daa952ba7f163c4a11628f55a4df523b3ef9181900360200190a35050565b61136e8282611268565b610a168261137a610e2a565b61085f84604051806060016040528060248152602001611af0602491396001600160a01b038816600090815260676020526040812090610838610e2a565b600054610100900460ff16806113d157506113d1610f1a565b806113df575060005460ff16155b61141a5760405162461bcd60e51b815260040180806020018281038252602e815260200180611ac2602e913960400191505060405180910390fd5b600054610100900460ff16158015611445576000805460ff1961ff0019909116610100171660011790555b610b2e611450610e2a565b6116ea565b61146660d08263ffffffff6117f316565b6040516001600160a01b038216907f6ae172837ea30b801fbfcdd4108aa1d5bf8ff775444fd70256b44e6bf3dfc3f690600090a250565b6114ae60d08263ffffffff61187416565b6040516001600160a01b038216907fe94479a9f7e1952cc78f2d6baab678adc1b772d936c6583def489e524cb6669290600090a250565b60006001600160a01b03821661152c5760405162461bcd60e51b8152600401808060200182810382526022815260200180611aa06022913960400191505060405180910390fd5b506001600160a01b03166000908152602091909152604090205460ff1690565b600054610100900460ff16806115655750611565610f1a565b80611573575060005460ff16155b6115ae5760405162461bcd60e51b815260040180806020018281038252602e815260200180611ac2602e913960400191505060405180910390fd5b600054610100900460ff161580156115d9576000805460ff1961ff0019909116610100171660011790555b6115e282610cd9565b610d8857610d8882611455565b6001600160a01b0381166116345760405162461bcd60e51b81526004018080602001828103825260268152602001806119b96026913960400191505060405180910390fd5b6033546040516001600160a01b038084169216907f8be0079c531659141344cd1fd0a4f28419497f9722a3daafe3b4186f6b6457e090600090a3603380547fffffffffffffffffffffffff0000000000000000000000000000000000000000166001600160a01b0392909216919091179055565b600061116f83836040518060400160405280601e81526020017f536166654d6174683a207375627472616374696f6e206f766572666c6f77000081525061107e565b600054610100900460ff16806117035750611703610f1a565b80611711575060005460ff16155b61174c5760405162461bcd60e51b815260040180806020018281038252602e815260200180611ac2602e913960400191505060405180910390fd5b600054610100900460ff16158015611777576000805460ff1961ff0019909116610100171660011790555b603380547fffffffffffffffffffffffff0000000000000000000000000000000000000000166001600160a01b0384811691909117918290556040519116906000907f8be0079c531659141344cd1fd0a4f28419497f9722a3daafe3b4186f6b6457e0908290a38015610a16576000805461ff00191690555050565b6117fd82826114e5565b1561184f576040805162461bcd60e51b815260206004820152601f60248201527f526f6c65733a206163636f756e7420616c72656164792068617320726f6c6500604482015290519081900360640190fd5b6001600160a01b0316600090815260209190915260409020805460ff19166001179055565b61187e82826114e5565b6118b95760405162461bcd60e51b8152600401808060200182810382526021815260200180611a576021913960400191505060405180910390fd5b6001600160a01b0316600090815260209190915260409020805460ff19169055565b828054600181600116156101000203166002900490600052602060002090601f016020900481019282601f1061191c57805160ff1916838001178555611949565b82800160010185558215611949579182015b8281111561194957825182559160200191906001019061192e565b50611955929150611959565b5090565b6106df91905b80821115611955576000815560010161195f56fe45524332303a207472616e7366657220746f20746865207a65726f206164647265737345524332303a206275726e20616d6f756e7420657863656564732062616c616e63654f776e61626c653a206e6577206f776e657220697320746865207a65726f206164647265737345524332303a20617070726f766520746f20746865207a65726f206164647265737345524332303a207472616e7366657220616d6f756e7420657863656564732062616c616e63654d696e746572526f6c653a2063616c6c657220646f6573206e6f74206861766520746865204d696e74657220726f6c65526f6c65733a206163636f756e7420646f6573206e6f74206861766520726f6c6545524332303a207472616e7366657220616d6f756e74206578636565647320616c6c6f77616e6365526f6c65733a206163636f756e7420697320746865207a65726f2061646472657373436f6e747261637420696e7374616e63652068617320616c7265616479206265656e20696e697469616c697a656445524332303a206275726e20616d6f756e74206578636565647320616c6c6f77616e636545524332303a206275726e2066726f6d20746865207a65726f206164647265737345524332303a207472616e736665722066726f6d20746865207a65726f206164647265737345524332303a20617070726f76652066726f6d20746865207a65726f206164647265737345524332303a2064656372656173656420616c6c6f77616e63652062656c6f77207a65726fa265627a7a72315820820d0b4b7fabe03c0cfd83b79883c90eae8893c54ccfffdd530e7c7a2e11a8e964736f6c634300051100324f776e61626c653a206e6577206f776e657220697320746865207a65726f20616464726573734375727665466953776170537475623a204e6f7420656e6f75676820737570706c794375727665466953776170537475623a20416c6c6f776564206275726e20616d6f756e74206973206e6f7420656e6f756768536166654d6174683a206d756c7469706c69636174696f6e206f766572666c6f774375727665466953776170537475623a2052657175657374656420616d6f756e7420697320746f6f2068696768436f6e747261637420696e7374616e63652068617320616c7265616479206265656e20696e697469616c697a65644375727665466953776170537475623a20526571756573746564206d696e7420616d6f756e7420697320746f6f2068696768a265627a7a723158204281c10b7e7a3e79adb1cbfacb66ad575013e1eef77fe82db1b3309c0f4add8264736f6c63430005110032",
  "source": "pragma solidity ^0.5.12;\n\nimport \"@openzeppelin/contracts-ethereum-package/contracts/token/ERC20/IERC20.sol\";\nimport \"@openzeppelin/contracts-ethereum-package/contracts/token/ERC20/ERC20Detailed.sol\";\nimport \"@openzeppelin/contracts-ethereum-package/contracts/token/ERC20/ERC20Mintable.sol\";\nimport \"@openzeppelin/contracts-ethereum-package/contracts/token/ERC20/ERC20Burnable.sol\";\nimport \"@openzeppelin/contracts-ethereum-package/contracts/math/SafeMath.sol\";\nimport \"../interfaces/defi/IYErc20.sol\";\nimport \"../interfaces/defi/ICurveFiSwap.sol\";\nimport \"../interfaces/defi/ICurveFiSwap_SBTC.sol\";\nimport \"../common/Base.sol\";\nimport \"./CurveFiTokenStub_SBTC.sol\";\n\ncontract CurveFiSwapStub_SBTC is Base, ICurveFiSwap, ICurveFiSwap_SBTC {\n    using SafeMath for uint256;\n    uint256 public constant N_COINS = 3;\n    uint256 constant MAX_EXCHANGE_FEE = 0.05*1e18;\n\n    CurveFiTokenStub_SBTC public token;\n    address[N_COINS] _coins;\n\n    function initialize(address[N_COINS] memory __coins) public initializer {\n        Base.initialize();\n        _coins = __coins;\n        token = deployToken();\n    }\n\n    function add_liquidity (uint256[N_COINS] memory amounts, uint256 min_mint_amount) public {\n        uint256 fullAmount;\n        for (uint256 i=0; i < N_COINS; i++){\n            IERC20(_coins[i]).transferFrom(_msgSender(), address(this), amounts[i]);\n            fullAmount = fullAmount.add(normalizeAmount(_coins[i], amounts[i]));\n        }\n        (uint256 fee, bool bonus) = calculateExchangeFee(amounts, false);\n        if (bonus) {\n            fullAmount = fullAmount.add(fee);\n        } else {\n            fullAmount = fullAmount.sub(fee);\n        }\n        require(fullAmount >= min_mint_amount, \"CurveFiSwapStub: Requested mint amount is too high\");\n        require(token.mint(_msgSender(), fullAmount), \"CurveFiSwapStub: Mint failed\");\n    }\n\n    function remove_liquidity (uint256 _amount, uint256[N_COINS] memory min_amounts) public {\n        uint256 totalSupply = token.totalSupply();\n        uint256[] memory amounts = new uint256[](_coins.length);\n        for (uint256 i=0; i < _coins.length; i++){\n            uint256 balance = balances(int128(i));\n            amounts[i] = _amount.mul(balance).div(totalSupply);\n            require(amounts[i] >= min_amounts[i], \"CurveFiSwapStub: Requested amount is too high\");\n            IERC20(_coins[i]).transfer(_msgSender(), amounts[i]);\n        }\n        token.burnFrom(_msgSender(), _amount);\n    }\n\n    function remove_liquidity_imbalance(uint256[N_COINS] memory amounts, uint256 max_burn_amount) public {\n        uint256 fullAmount = calc_token_amount(amounts, false);\n        for (uint256 i=0; i < _coins.length; i++){\n            IERC20(_coins[i]).transfer(_msgSender(), amounts[i]);\n        }\n        require(max_burn_amount == 0 || fullAmount <= max_burn_amount, \"CurveFiSwapStub: Allowed burn amount is not enough\");\n        token.burnFrom(_msgSender(), fullAmount);\n    }\n\n    function calc_token_amount(uint256[N_COINS] memory amounts, bool deposit) public view returns(uint256) {\n        (uint256 fee, bool bonus) = calculateExchangeFee(amounts, deposit);\n        uint256 fullAmount;\n        for (uint256 i=0; i < _coins.length; i++){\n            uint256 balance = balances(int128(i));\n            require(balance >= amounts[i], \"CurveFiSwapStub: Not enough supply\");\n            fullAmount = fullAmount.add(amounts[i]);\n        }\n        if (bonus) {\n            fullAmount = fullAmount.sub(fee);\n        } else {\n            fullAmount = fullAmount.add(fee);\n        }\n        return fullAmount;\n    }\n\n    function balances(int128 i) public view returns(uint256) {\n        return IERC20(_coins[uint256(i)]).balanceOf(address(this));\n    }\n\n    function A() public view returns(uint256) {\n        this;\n        return 0;\n    }\n\n    function fee() public view returns(uint256) {\n        this;\n        return 0;\n    }\n\n    function coins(int128 i) public view returns (address) {\n        return _coins[uint256(i)];\n    }\n\n    function deployToken() internal returns(CurveFiTokenStub_SBTC){ \n        CurveFiTokenStub_SBTC tkn = new CurveFiTokenStub_SBTC();\n        tkn.initialize();\n        return tkn;\n    }    \n\n    function calculateExchangeFee(uint256[N_COINS] memory diff, bool deposit) internal view returns(uint256 fullFee, bool bonus){\n        uint256 averageAmount = 0;\n        uint256[] memory _balances = new uint256[](_coins.length);\n        for (uint256 i=0; i < _coins.length; i++){\n            _balances[i] = balances(int128(i));\n            averageAmount = averageAmount.add(_balances[i]);\n        }\n        averageAmount = averageAmount.div(_coins.length);\n        int256 totalFee;\n        for (uint256 i=0; i < _coins.length; i++){\n            int256 oldDiff = int256(_balances[i]) - int256(averageAmount);\n            int256 newDiff;\n            if (deposit) {\n                newDiff = oldDiff + int256(diff[i]);\n            } else {\n                newDiff = oldDiff - int256(diff[i]);\n            }\n             \n\n            uint256 maxFee = diff[i].mul(MAX_EXCHANGE_FEE).div(1e18);\n            int256 _fee;\n            if (oldDiff == 0) {\n                _fee = 0;\n            } else {\n                if (deposit){\n                    _fee = int256(MAX_EXCHANGE_FEE)*int256(diff[i]) / oldDiff;\n                } else {\n                    _fee = -1*int256(MAX_EXCHANGE_FEE)*int256(diff[i]) / oldDiff;\n                }\n            }\n            if (_fee > 0 && _fee > int256(maxFee)) _fee = int256(maxFee);\n            if (_fee < 0 && -1*_fee > int256(maxFee)) _fee = -1*int256(maxFee);\n            totalFee += _fee;\n        }\n        if (totalFee < 0){\n            bonus = true;\n            fullFee = uint256(-1*totalFee);\n        } else {\n            bonus = false;\n            fullFee = uint256(totalFee);\n        }\n    }\n\n    function normalizeAmount(address coin, uint256 amount) internal view returns(uint256){\n        uint8 decimals = ERC20Detailed(coin).decimals();\n        if (decimals < 18) {\n            return amount * uint256(10)**(18-decimals);\n        } else if (decimals > 18) {\n            return amount / uint256(10)**(decimals-18);\n        } else {\n            return amount;\n        }\n    }\n}",
  "sourcePath": "/Users/ilya/Documents/Akropolis/dca-strategy-bot/contracts/test/CurveFiSwapStub_SBTC.sol",
  "compiler": {
    "name": "solc",
    "version": "0.5.17+commit.d19bba13.Emscripten.clang"
  },
  "schemaVersion": "3.2.3",
  "updatedAt": "2020-08-07T14:14:27.369Z",
  "devdoc": {
    "methods": {
      "initialize(address)": {
        "details": "Initializes the contract setting the deployer as the initial owner."
      },
      "isOwner()": {
        "details": "Returns true if the caller is the current owner."
      },
      "owner()": {
        "details": "Returns the address of the current owner."
      },
      "renounceOwnership()": {
        "details": "Leaves the contract without owner. It will not be possible to call `onlyOwner` functions anymore. Can only be called by the current owner.     * > Note: Renouncing ownership will leave the contract without an owner, thereby removing any functionality that is only available to the owner."
      },
      "transferOwnership(address)": {
        "details": "Transfers ownership of the contract to a new account (`newOwner`). Can only be called by the current owner."
      }
    }
  },
  "userdoc": {
    "methods": {}
  }
}