{
  "contractName": "DCAFullBalanceHelper",
  "abi": [
    {
      "constant": true,
      "inputs": [
        {
          "internalType": "address",
          "name": "",
          "type": "address"
        },
        {
          "internalType": "address",
          "name": "",
          "type": "address"
        }
      ],
      "name": "isInArray",
      "outputs": [
        {
          "internalType": "bool",
          "name": "",
          "type": "bool"
        }
      ],
      "payable": false,
      "stateMutability": "view",
      "type": "function"
    },
    {
      "constant": true,
      "inputs": [
        {
          "internalType": "address",
          "name": "",
          "type": "address"
        },
        {
          "internalType": "uint256",
          "name": "",
          "type": "uint256"
        }
      ],
      "name": "tokenArrayOf",
      "outputs": [
        {
          "internalType": "address",
          "name": "",
          "type": "address"
        }
      ],
      "payable": false,
      "stateMutability": "view",
      "type": "function"
    },
    {
      "constant": false,
      "inputs": [
        {
          "internalType": "address",
          "name": "dcaModule",
          "type": "address"
        },
        {
          "internalType": "address",
          "name": "account",
          "type": "address"
        }
      ],
      "name": "getFullAccountBalances",
      "outputs": [
        {
          "internalType": "address[]",
          "name": "",
          "type": "address[]"
        },
        {
          "internalType": "uint256[]",
          "name": "",
          "type": "uint256[]"
        }
      ],
      "payable": false,
      "stateMutability": "nonpayable",
      "type": "function"
    }
  ],
  "bytecode": "0x608060405234801561001057600080fd5b50610adc806100206000396000f3fe608060405234801561001057600080fd5b50600436106100415760003560e01c80633ae8b9831461004657806379e7599514610095578063a5a1620014610169575b600080fd5b6100816004803603604081101561005c57600080fd5b5073ffffffffffffffffffffffffffffffffffffffff813581169160200135166101cb565b604080519115158252519081900360200190f35b6100d0600480360360408110156100ab57600080fd5b5073ffffffffffffffffffffffffffffffffffffffff813581169160200135166101e8565b604051808060200180602001838103835285818151815260200191508051906020019060200280838360005b838110156101145781810151838201526020016100fc565b50505050905001838103825284818151815260200191508051906020019060200280838360005b8381101561015357818101518382015260200161013b565b5050505090500194505050505060405180910390f35b6101a26004803603604081101561017f57600080fd5b5073ffffffffffffffffffffffffffffffffffffffff81351690602001356104c7565b6040805173ffffffffffffffffffffffffffffffffffffffff9092168252519081900360200190f35b600060208181529281526040808220909352908152205460ff1681565b6060806101f484610509565b6101fd84610713565b73ffffffffffffffffffffffffffffffffffffffff841660009081526001602090815260409182902054825181815281830281019092019092526060918015610250578160200160208202803883390190505b50905060005b73ffffffffffffffffffffffffffffffffffffffff86166000908152600160205260409020548110156103185773ffffffffffffffffffffffffffffffffffffffff861660009081526001602052604090208054829081106102b457fe5b9060005260206000200160009054906101000a900473ffffffffffffffffffffffffffffffffffffffff168282815181106102eb57fe5b73ffffffffffffffffffffffffffffffffffffffff90921660209283029190910190910152600101610256565b50604080517f0512c83c00000000000000000000000000000000000000000000000000000000815273ffffffffffffffffffffffffffffffffffffffff8681166004830190815260248301938452845160448401528451606094928a1693630512c83c938a9388939092606401906020808601910280838360005b838110156103ab578181015183820152602001610393565b505050509050019350505050600060405180830381600087803b1580156103d157600080fd5b505af11580156103e5573d6000803e3d6000fd5b505050506040513d6000823e601f3d9081017fffffffffffffffffffffffffffffffffffffffffffffffffffffffffffffffe0168201604052602081101561042c57600080fd5b810190808051604051939291908464010000000082111561044c57600080fd5b90830190602082018581111561046157600080fd5b825186602082028301116401000000008211171561047e57600080fd5b82525081516020918201928201910280838360005b838110156104ab578181015183820152602001610493565b5050505091909101604052509499929850919650505050505050565b600160205281600052604060002081815481106104e057fe5b60009182526020909120015473ffffffffffffffffffffffffffffffffffffffff169150829050565b60008173ffffffffffffffffffffffffffffffffffffffff16636cd071546040518163ffffffff1660e01b815260040160206040518083038186803b15801561055157600080fd5b505afa158015610565573d6000803e3d6000fd5b505050506040513d602081101561057b57600080fd5b5051604080517f8e96347b000000000000000000000000000000000000000000000000000000008152905191925060609173ffffffffffffffffffffffffffffffffffffffff851691638e96347b916004808301926000929190829003018186803b1580156105e957600080fd5b505afa1580156105fd573d6000803e3d6000fd5b505050506040513d6000823e601f3d9081017fffffffffffffffffffffffffffffffffffffffffffffffffffffffffffffffe0168201604052602081101561064457600080fd5b810190808051604051939291908464010000000082111561066457600080fd5b90830190602082018581111561067957600080fd5b825186602082028301116401000000008211171561069657600080fd5b82525081516020918201928201910280838360005b838110156106c35781810151838201526020016106ab565b5050505090500160405250505090506106dc83836109cd565b60005b815181101561070d57610705848383815181106106f857fe5b60200260200101516109cd565b6001016106df565b50505050565b60608173ffffffffffffffffffffffffffffffffffffffff1663f71db5436040518163ffffffff1660e01b815260040160006040518083038186803b15801561075b57600080fd5b505afa15801561076f573d6000803e3d6000fd5b505050506040513d6000823e601f3d9081017fffffffffffffffffffffffffffffffffffffffffffffffffffffffffffffffe016820160405260208110156107b657600080fd5b81019080805160405193929190846401000000008211156107d657600080fd5b9083019060208201858111156107eb57600080fd5b825186602082028301116401000000008211171561080857600080fd5b82525081516020918201928201910280838360005b8381101561083557818101518382015260200161081d565b50505050905001604052505050905060008090505b81518110156109c857606082828151811061086157fe5b602002602001015173ffffffffffffffffffffffffffffffffffffffff1663d9180a006040518163ffffffff1660e01b815260040160006040518083038186803b1580156108ae57600080fd5b505afa1580156108c2573d6000803e3d6000fd5b505050506040513d6000823e601f3d9081017fffffffffffffffffffffffffffffffffffffffffffffffffffffffffffffffe0168201604052602081101561090957600080fd5b810190808051604051939291908464010000000082111561092957600080fd5b90830190602082018581111561093e57600080fd5b825186602082028301116401000000008211171561095b57600080fd5b82525081516020918201928201910280838360005b83811015610988578181015183820152602001610970565b50505050905001604052505050905060008090505b81518110156109be576109b6858383815181106106f857fe5b60010161099d565b505060010161084a565b505050565b73ffffffffffffffffffffffffffffffffffffffff8083166000908152602081815260408083209385168352929052205460ff16610aa35773ffffffffffffffffffffffffffffffffffffffff8281166000818152600160208181526040808420805480850182559085528285200180547fffffffffffffffffffffffff0000000000000000000000000000000000000000169688169687179055938352828152838320948352939093522080547fffffffffffffffffffffffffffffffffffffffffffffffffffffffffffffff001690911790555b505056fea265627a7a723158200f5413d9b11e288a707eafbdb3028843ce1fd805e0ad0e32fa91abdc1eb9e19b64736f6c63430005110032",
  "source": "pragma solidity ^0.5.17;\n\nimport \"../../interfaces/dca/IDCAModule.sol\";\nimport \"../../interfaces/savings/ISavingsModule.sol\";\n\ncontract DCAFullBalanceHelper {\n    mapping(address => mapping(address => bool)) public isInArray;\n    mapping(address => address[]) public tokenArrayOf;\n\n    function getFullAccountBalances(address dcaModule, address account)\n        external\n        returns (address[] memory, uint256[] memory)\n    {\n        _getAllCoreTokens(dcaModule);\n        _getAllRewardTokens(dcaModule);\n\n        address[] memory tokens = new address[](tokenArrayOf[dcaModule].length);\n\n        for (uint256 i = 0; i < tokenArrayOf[dcaModule].length; i++) {\n            tokens[i] = tokenArrayOf[dcaModule][i];\n        }\n\n        uint256[] memory balances = IDCAModule(dcaModule)\n            .getFullAccountBalances(account, tokens);\n\n        return (tokens, balances);\n    }\n\n    function _getAllCoreTokens(address dcaModule) private {\n        address tokenToSell = IDCAModule(dcaModule).tokenToSell();\n        address[] memory tokensToBuy = IDCAModule(dcaModule).tokensToBuy();\n\n        _pushToArray(dcaModule, tokenToSell);\n\n        for (uint256 i = 0; i < tokensToBuy.length; i++) {\n            _pushToArray(dcaModule, tokensToBuy[i]);\n        }\n    }\n\n    function _getAllRewardTokens(address dcaModule) private {\n        address[] memory rewardPools = IDCAModule(dcaModule).rewardPools();\n\n        for (uint256 i = 0; i < rewardPools.length; i++) {\n            address[] memory rewardTokens = ISavingsModule(rewardPools[i])\n                .supportedRewardTokens();\n\n            for (uint256 j = 0; j < rewardTokens.length; j++) {\n                _pushToArray(dcaModule, rewardTokens[j]);\n            }\n        }\n    }\n\n    function _pushToArray(address dcaModule, address token) private {\n        if (!isInArray[dcaModule][token]) {\n            tokenArrayOf[dcaModule].push(token);\n            isInArray[dcaModule][token] = true;\n        }\n    }\n}\n",
  "sourcePath": "/Users/ilya/Documents/Akropolis/dca-strategy-bot/contracts/modules/dca/DCAFullBalanceHelper.sol",
  "compiler": {
    "name": "solc",
    "version": "0.5.17+commit.d19bba13.Emscripten.clang"
  },
  "schemaVersion": "3.2.3",
  "updatedAt": "2020-08-11T09:46:30.709Z",
  "devdoc": {
    "methods": {}
  },
  "userdoc": {
    "methods": {}
  }
}