{
  "contractName": "DCAModule",
  "abi": [
    {
      "anonymous": false,
      "inputs": [
        {
          "indexed": true,
          "internalType": "address",
          "name": "owner",
          "type": "address"
        },
        {
          "indexed": true,
          "internalType": "address",
          "name": "approved",
          "type": "address"
        },
        {
          "indexed": true,
          "internalType": "uint256",
          "name": "tokenId",
          "type": "uint256"
        }
      ],
      "name": "Approval",
      "type": "event"
    },
    {
      "anonymous": false,
      "inputs": [
        {
          "indexed": true,
          "internalType": "address",
          "name": "owner",
          "type": "address"
        },
        {
          "indexed": true,
          "internalType": "address",
          "name": "operator",
          "type": "address"
        },
        {
          "indexed": false,
          "internalType": "bool",
          "name": "approved",
          "type": "bool"
        }
      ],
      "name": "ApprovalForAll",
      "type": "event"
    },
    {
      "anonymous": false,
      "inputs": [
        {
          "indexed": true,
          "internalType": "address",
          "name": "account",
          "type": "address"
        }
      ],
      "name": "DCAOperatorAdded",
      "type": "event"
    },
    {
      "anonymous": false,
      "inputs": [
        {
          "indexed": true,
          "internalType": "address",
          "name": "account",
          "type": "address"
        }
      ],
      "name": "DCAOperatorRemoved",
      "type": "event"
    },
    {
      "anonymous": false,
      "inputs": [
        {
          "indexed": false,
          "internalType": "address",
          "name": "user",
          "type": "address"
        },
        {
          "indexed": false,
          "internalType": "address",
          "name": "token",
          "type": "address"
        },
        {
          "indexed": false,
          "internalType": "uint256",
          "name": "dDeposit",
          "type": "uint256"
        },
        {
          "indexed": false,
          "internalType": "uint256",
          "name": "nDeposit",
          "type": "uint256"
        },
        {
          "indexed": false,
          "internalType": "uint256",
          "name": "newBuyAmount",
          "type": "uint256"
        }
      ],
      "name": "Deposit",
      "type": "event"
    },
    {
      "anonymous": false,
      "inputs": [
        {
          "indexed": true,
          "internalType": "address",
          "name": "previousOwner",
          "type": "address"
        },
        {
          "indexed": true,
          "internalType": "address",
          "name": "newOwner",
          "type": "address"
        }
      ],
      "name": "OwnershipTransferred",
      "type": "event"
    },
    {
      "anonymous": false,
      "inputs": [
        {
          "indexed": false,
          "internalType": "address",
          "name": "newPool",
          "type": "address"
        }
      ],
      "name": "PoolAddressChanged",
      "type": "event"
    },
    {
      "anonymous": false,
      "inputs": [
        {
          "indexed": true,
          "internalType": "address",
          "name": "from",
          "type": "address"
        },
        {
          "indexed": true,
          "internalType": "address",
          "name": "to",
          "type": "address"
        },
        {
          "indexed": true,
          "internalType": "uint256",
          "name": "tokenId",
          "type": "uint256"
        }
      ],
      "name": "Transfer",
      "type": "event"
    },
    {
      "anonymous": false,
      "inputs": [
        {
          "indexed": false,
          "internalType": "address",
          "name": "user",
          "type": "address"
        },
        {
          "indexed": false,
          "internalType": "address",
          "name": "token",
          "type": "address"
        },
        {
          "indexed": false,
          "internalType": "uint256",
          "name": "dWithdrawal",
          "type": "uint256"
        },
        {
          "indexed": false,
          "internalType": "uint256",
          "name": "nWithdrawal",
          "type": "uint256"
        }
      ],
      "name": "Withdrawal",
      "type": "event"
    },
    {
      "constant": true,
      "inputs": [
        {
          "internalType": "uint256",
          "name": "",
          "type": "uint256"
        }
      ],
      "name": "_accountOf",
      "outputs": [
        {
          "internalType": "uint256",
          "name": "buyAmount",
          "type": "uint256"
        },
        {
          "internalType": "uint256",
          "name": "nextDistributionIndex",
          "type": "uint256"
        },
        {
          "internalType": "uint256",
          "name": "lastRemovalPointIndex",
          "type": "uint256"
        }
      ],
      "payable": false,
      "stateMutability": "view",
      "type": "function"
    },
    {
      "constant": false,
      "inputs": [
        {
          "internalType": "address",
          "name": "account",
          "type": "address"
        }
      ],
      "name": "addDCAOperator",
      "outputs": [],
      "payable": false,
      "stateMutability": "nonpayable",
      "type": "function"
    },
    {
      "constant": false,
      "inputs": [
        {
          "internalType": "address",
          "name": "to",
          "type": "address"
        },
        {
          "internalType": "uint256",
          "name": "tokenId",
          "type": "uint256"
        }
      ],
      "name": "approve",
      "outputs": [],
      "payable": false,
      "stateMutability": "nonpayable",
      "type": "function"
    },
    {
      "constant": true,
      "inputs": [
        {
          "internalType": "address",
          "name": "owner",
          "type": "address"
        }
      ],
      "name": "balanceOf",
      "outputs": [
        {
          "internalType": "uint256",
          "name": "",
          "type": "uint256"
        }
      ],
      "payable": false,
      "stateMutability": "view",
      "type": "function"
    },
    {
      "constant": true,
      "inputs": [],
      "name": "baseURI",
      "outputs": [
        {
          "internalType": "string",
          "name": "",
          "type": "string"
        }
      ],
      "payable": false,
      "stateMutability": "view",
      "type": "function"
    },
    {
      "constant": false,
      "inputs": [
        {
          "internalType": "uint256",
          "name": "tokenId",
          "type": "uint256"
        }
      ],
      "name": "burn",
      "outputs": [],
      "payable": false,
      "stateMutability": "nonpayable",
      "type": "function"
    },
    {
      "constant": true,
      "inputs": [],
      "name": "dcaFullBalanceHelper",
      "outputs": [
        {
          "internalType": "address",
          "name": "",
          "type": "address"
        }
      ],
      "payable": false,
      "stateMutability": "view",
      "type": "function"
    },
    {
      "constant": true,
      "inputs": [],
      "name": "deadline",
      "outputs": [
        {
          "internalType": "uint256",
          "name": "",
          "type": "uint256"
        }
      ],
      "payable": false,
      "stateMutability": "view",
      "type": "function"
    },
    {
      "constant": true,
      "inputs": [
        {
          "internalType": "uint256",
          "name": "",
          "type": "uint256"
        }
      ],
      "name": "distributions",
      "outputs": [
        {
          "internalType": "address",
          "name": "token",
          "type": "address"
        },
        {
          "internalType": "uint256",
          "name": "amountIn",
          "type": "uint256"
        },
        {
          "internalType": "uint256",
          "name": "amountOut",
          "type": "uint256"
        }
      ],
      "payable": false,
      "stateMutability": "view",
      "type": "function"
    },
    {
      "constant": true,
      "inputs": [
        {
          "internalType": "uint256",
          "name": "tokenId",
          "type": "uint256"
        }
      ],
      "name": "getApproved",
      "outputs": [
        {
          "internalType": "address",
          "name": "",
          "type": "address"
        }
      ],
      "payable": false,
      "stateMutability": "view",
      "type": "function"
    },
    {
      "constant": true,
      "inputs": [
        {
          "internalType": "string",
          "name": "module",
          "type": "string"
        }
      ],
      "name": "getModuleAddress",
      "outputs": [
        {
          "internalType": "address",
          "name": "",
          "type": "address"
        }
      ],
      "payable": false,
      "stateMutability": "view",
      "type": "function"
    },
    {
      "constant": true,
      "inputs": [],
      "name": "globalPeriodBuyAmount",
      "outputs": [
        {
          "internalType": "uint256",
          "name": "",
          "type": "uint256"
        }
      ],
      "payable": false,
      "stateMutability": "view",
      "type": "function"
    },
    {
      "constant": true,
      "inputs": [
        {
          "internalType": "address",
          "name": "owner",
          "type": "address"
        },
        {
          "internalType": "address",
          "name": "operator",
          "type": "address"
        }
      ],
      "name": "isApprovedForAll",
      "outputs": [
        {
          "internalType": "bool",
          "name": "",
          "type": "bool"
        }
      ],
      "payable": false,
      "stateMutability": "view",
      "type": "function"
    },
    {
      "constant": true,
      "inputs": [
        {
          "internalType": "address",
          "name": "account",
          "type": "address"
        }
      ],
      "name": "isDCAOperator",
      "outputs": [
        {
          "internalType": "bool",
          "name": "",
          "type": "bool"
        }
      ],
      "payable": false,
      "stateMutability": "view",
      "type": "function"
    },
    {
      "constant": true,
      "inputs": [],
      "name": "isOwner",
      "outputs": [
        {
          "internalType": "bool",
          "name": "",
          "type": "bool"
        }
      ],
      "payable": false,
      "stateMutability": "view",
      "type": "function"
    },
    {
      "constant": true,
      "inputs": [],
      "name": "isThisAStrategyForBuyingASingleToken",
      "outputs": [
        {
          "internalType": "bool",
          "name": "",
          "type": "bool"
        }
      ],
      "payable": false,
      "stateMutability": "view",
      "type": "function"
    },
    {
      "constant": true,
      "inputs": [],
      "name": "name",
      "outputs": [
        {
          "internalType": "string",
          "name": "",
          "type": "string"
        }
      ],
      "payable": false,
      "stateMutability": "view",
      "type": "function"
    },
    {
      "constant": true,
      "inputs": [],
      "name": "nextBuyTimestamp",
      "outputs": [
        {
          "internalType": "uint256",
          "name": "",
          "type": "uint256"
        }
      ],
      "payable": false,
      "stateMutability": "view",
      "type": "function"
    },
    {
      "constant": true,
      "inputs": [],
      "name": "owner",
      "outputs": [
        {
          "internalType": "address",
          "name": "",
          "type": "address"
        }
      ],
      "payable": false,
      "stateMutability": "view",
      "type": "function"
    },
    {
      "constant": true,
      "inputs": [
        {
          "internalType": "uint256",
          "name": "tokenId",
          "type": "uint256"
        }
      ],
      "name": "ownerOf",
      "outputs": [
        {
          "internalType": "address",
          "name": "",
          "type": "address"
        }
      ],
      "payable": false,
      "stateMutability": "view",
      "type": "function"
    },
    {
      "constant": true,
      "inputs": [],
      "name": "periodTimestamp",
      "outputs": [
        {
          "internalType": "uint256",
          "name": "",
          "type": "uint256"
        }
      ],
      "payable": false,
      "stateMutability": "view",
      "type": "function"
    },
    {
      "constant": true,
      "inputs": [],
      "name": "pool",
      "outputs": [
        {
          "internalType": "address",
          "name": "",
          "type": "address"
        }
      ],
      "payable": false,
      "stateMutability": "view",
      "type": "function"
    },
    {
      "constant": true,
      "inputs": [],
      "name": "protocolMaxFee",
      "outputs": [
        {
          "internalType": "uint256",
          "name": "",
          "type": "uint256"
        }
      ],
      "payable": false,
      "stateMutability": "view",
      "type": "function"
    },
    {
      "constant": true,
      "inputs": [
        {
          "internalType": "uint256",
          "name": "",
          "type": "uint256"
        }
      ],
      "name": "removeAfterDistribution",
      "outputs": [
        {
          "internalType": "uint256",
          "name": "",
          "type": "uint256"
        }
      ],
      "payable": false,
      "stateMutability": "view",
      "type": "function"
    },
    {
      "constant": false,
      "inputs": [],
      "name": "renounceDCAOperator",
      "outputs": [],
      "payable": false,
      "stateMutability": "nonpayable",
      "type": "function"
    },
    {
      "constant": false,
      "inputs": [],
      "name": "renounceOwnership",
      "outputs": [],
      "payable": false,
      "stateMutability": "nonpayable",
      "type": "function"
    },
    {
      "constant": true,
      "inputs": [
        {
          "internalType": "uint256",
          "name": "",
          "type": "uint256"
        }
      ],
      "name": "rewardPools",
      "outputs": [
        {
          "internalType": "address",
          "name": "",
          "type": "address"
        }
      ],
      "payable": false,
      "stateMutability": "view",
      "type": "function"
    },
    {
      "constant": true,
      "inputs": [],
      "name": "router",
      "outputs": [
        {
          "internalType": "address",
          "name": "",
          "type": "address"
        }
      ],
      "payable": false,
      "stateMutability": "view",
      "type": "function"
    },
    {
      "constant": false,
      "inputs": [
        {
          "internalType": "address",
          "name": "from",
          "type": "address"
        },
        {
          "internalType": "address",
          "name": "to",
          "type": "address"
        },
        {
          "internalType": "uint256",
          "name": "tokenId",
          "type": "uint256"
        }
      ],
      "name": "safeTransferFrom",
      "outputs": [],
      "payable": false,
      "stateMutability": "nonpayable",
      "type": "function"
    },
    {
      "constant": false,
      "inputs": [
        {
          "internalType": "address",
          "name": "from",
          "type": "address"
        },
        {
          "internalType": "address",
          "name": "to",
          "type": "address"
        },
        {
          "internalType": "uint256",
          "name": "tokenId",
          "type": "uint256"
        },
        {
          "internalType": "bytes",
          "name": "_data",
          "type": "bytes"
        }
      ],
      "name": "safeTransferFrom",
      "outputs": [],
      "payable": false,
      "stateMutability": "nonpayable",
      "type": "function"
    },
    {
      "constant": false,
      "inputs": [
        {
          "internalType": "address",
          "name": "to",
          "type": "address"
        },
        {
          "internalType": "bool",
          "name": "approved",
          "type": "bool"
        }
      ],
      "name": "setApprovalForAll",
      "outputs": [],
      "payable": false,
      "stateMutability": "nonpayable",
      "type": "function"
    },
    {
      "constant": false,
      "inputs": [
        {
          "internalType": "address",
          "name": "_pool",
          "type": "address"
        }
      ],
      "name": "setPool",
      "outputs": [],
      "payable": false,
      "stateMutability": "nonpayable",
      "type": "function"
    },
    {
      "constant": true,
      "inputs": [
        {
          "internalType": "bytes4",
          "name": "interfaceId",
          "type": "bytes4"
        }
      ],
      "name": "supportsInterface",
      "outputs": [
        {
          "internalType": "bool",
          "name": "",
          "type": "bool"
        }
      ],
      "payable": false,
      "stateMutability": "view",
      "type": "function"
    },
    {
      "constant": true,
      "inputs": [],
      "name": "symbol",
      "outputs": [
        {
          "internalType": "string",
          "name": "",
          "type": "string"
        }
      ],
      "payable": false,
      "stateMutability": "view",
      "type": "function"
    },
    {
      "constant": true,
      "inputs": [
        {
          "internalType": "uint256",
          "name": "index",
          "type": "uint256"
        }
      ],
      "name": "tokenByIndex",
      "outputs": [
        {
          "internalType": "uint256",
          "name": "",
          "type": "uint256"
        }
      ],
      "payable": false,
      "stateMutability": "view",
      "type": "function"
    },
    {
      "constant": true,
      "inputs": [
        {
          "internalType": "address",
          "name": "",
          "type": "address"
        }
      ],
      "name": "tokenDataOf",
      "outputs": [
        {
          "internalType": "uint256",
          "name": "decimals",
          "type": "uint256"
        },
        {
          "internalType": "address",
          "name": "pool",
          "type": "address"
        },
        {
          "internalType": "address",
          "name": "protocol",
          "type": "address"
        },
        {
          "internalType": "address",
          "name": "poolToken",
          "type": "address"
        }
      ],
      "payable": false,
      "stateMutability": "view",
      "type": "function"
    },
    {
      "constant": true,
      "inputs": [
        {
          "internalType": "address",
          "name": "owner",
          "type": "address"
        },
        {
          "internalType": "uint256",
          "name": "index",
          "type": "uint256"
        }
      ],
      "name": "tokenOfOwnerByIndex",
      "outputs": [
        {
          "internalType": "uint256",
          "name": "",
          "type": "uint256"
        }
      ],
      "payable": false,
      "stateMutability": "view",
      "type": "function"
    },
    {
      "constant": true,
      "inputs": [],
      "name": "tokenToSell",
      "outputs": [
        {
          "internalType": "address",
          "name": "",
          "type": "address"
        }
      ],
      "payable": false,
      "stateMutability": "view",
      "type": "function"
    },
    {
      "constant": true,
      "inputs": [
        {
          "internalType": "uint256",
          "name": "tokenId",
          "type": "uint256"
        }
      ],
      "name": "tokenURI",
      "outputs": [
        {
          "internalType": "string",
          "name": "",
          "type": "string"
        }
      ],
      "payable": false,
      "stateMutability": "view",
      "type": "function"
    },
    {
      "constant": true,
      "inputs": [
        {
          "internalType": "uint256",
          "name": "",
          "type": "uint256"
        }
      ],
      "name": "tokensToBuy",
      "outputs": [
        {
          "internalType": "address",
          "name": "",
          "type": "address"
        }
      ],
      "payable": false,
      "stateMutability": "view",
      "type": "function"
    },
    {
      "constant": true,
      "inputs": [],
      "name": "totalSupply",
      "outputs": [
        {
          "internalType": "uint256",
          "name": "",
          "type": "uint256"
        }
      ],
      "payable": false,
      "stateMutability": "view",
      "type": "function"
    },
    {
      "constant": false,
      "inputs": [
        {
          "internalType": "address",
          "name": "from",
          "type": "address"
        },
        {
          "internalType": "address",
          "name": "to",
          "type": "address"
        },
        {
          "internalType": "uint256",
          "name": "tokenId",
          "type": "uint256"
        }
      ],
      "name": "transferFrom",
      "outputs": [],
      "payable": false,
      "stateMutability": "nonpayable",
      "type": "function"
    },
    {
      "constant": false,
      "inputs": [
        {
          "internalType": "address",
          "name": "newOwner",
          "type": "address"
        }
      ],
      "name": "transferOwnership",
      "outputs": [],
      "payable": false,
      "stateMutability": "nonpayable",
      "type": "function"
    },
    {
      "constant": false,
      "inputs": [
        {
          "internalType": "string",
          "name": "_name",
          "type": "string"
        },
        {
          "internalType": "string",
          "name": "_symbol",
          "type": "string"
        },
        {
          "internalType": "address",
          "name": "_osPool",
          "type": "address"
        },
        {
          "internalType": "address",
          "name": "_tokenToSell",
          "type": "address"
        },
        {
          "internalType": "address[]",
          "name": "_tokensToBuy",
          "type": "address[]"
        },
        {
          "internalType": "bool",
          "name": "_isThisAStrategyForBuyingASingleToken",
          "type": "bool"
        },
        {
          "internalType": "address",
          "name": "_router",
          "type": "address"
        },
        {
          "internalType": "uint256",
          "name": "_periodTimestamp",
          "type": "uint256"
        },
        {
          "internalType": "address",
          "name": "bot",
          "type": "address"
        }
      ],
      "name": "initialize",
      "outputs": [],
      "payable": false,
      "stateMutability": "nonpayable",
      "type": "function"
    },
    {
      "constant": false,
      "inputs": [
        {
          "internalType": "string",
          "name": "name",
          "type": "string"
        },
        {
          "internalType": "string",
          "name": "symbol",
          "type": "string"
        }
      ],
      "name": "initialize",
      "outputs": [],
      "payable": false,
      "stateMutability": "nonpayable",
      "type": "function"
    },
    {
      "constant": false,
      "inputs": [],
      "name": "initialize",
      "outputs": [],
      "payable": false,
      "stateMutability": "nonpayable",
      "type": "function"
    },
    {
      "constant": false,
      "inputs": [
        {
          "internalType": "address",
          "name": "sender",
          "type": "address"
        }
      ],
      "name": "initialize",
      "outputs": [],
      "payable": false,
      "stateMutability": "nonpayable",
      "type": "function"
    },
    {
      "constant": true,
      "inputs": [
        {
          "internalType": "address",
          "name": "userAddress",
          "type": "address"
        }
      ],
      "name": "getTokenIdByAddress",
      "outputs": [
        {
          "internalType": "uint256",
          "name": "",
          "type": "uint256"
        }
      ],
      "payable": false,
      "stateMutability": "view",
      "type": "function"
    },
    {
      "constant": true,
      "inputs": [
        {
          "internalType": "uint256",
          "name": "tokenId",
          "type": "uint256"
        }
      ],
      "name": "getAccountBuyAmount",
      "outputs": [
        {
          "internalType": "uint256",
          "name": "",
          "type": "uint256"
        }
      ],
      "payable": false,
      "stateMutability": "view",
      "type": "function"
    },
    {
      "constant": false,
      "inputs": [
        {
          "internalType": "address",
          "name": "account",
          "type": "address"
        },
        {
          "internalType": "address[]",
          "name": "tokens",
          "type": "address[]"
        }
      ],
      "name": "getFullAccountBalances",
      "outputs": [
        {
          "internalType": "uint256[]",
          "name": "",
          "type": "uint256[]"
        }
      ],
      "payable": false,
      "stateMutability": "nonpayable",
      "type": "function"
    },
    {
      "constant": false,
      "inputs": [
        {
          "internalType": "address",
          "name": "account",
          "type": "address"
        }
      ],
      "name": "getFullAccountBalances",
      "outputs": [
        {
          "internalType": "address[]",
          "name": "",
          "type": "address[]"
        },
        {
          "internalType": "uint256[]",
          "name": "",
          "type": "uint256[]"
        }
      ],
      "payable": false,
      "stateMutability": "nonpayable",
      "type": "function"
    },
    {
      "constant": false,
      "inputs": [
        {
          "internalType": "address",
          "name": "token",
          "type": "address"
        },
        {
          "internalType": "uint256",
          "name": "decimals",
          "type": "uint256"
        },
        {
          "internalType": "address",
          "name": "pool",
          "type": "address"
        },
        {
          "internalType": "address",
          "name": "protocol",
          "type": "address"
        },
        {
          "internalType": "address",
          "name": "poolToken",
          "type": "address"
        }
      ],
      "name": "setTokenData",
      "outputs": [
        {
          "internalType": "bool",
          "name": "",
          "type": "bool"
        }
      ],
      "payable": false,
      "stateMutability": "nonpayable",
      "type": "function"
    },
    {
      "constant": false,
      "inputs": [
        {
          "internalType": "uint256",
          "name": "newDeadline",
          "type": "uint256"
        }
      ],
      "name": "setDeadline",
      "outputs": [],
      "payable": false,
      "stateMutability": "nonpayable",
      "type": "function"
    },
    {
      "constant": false,
      "inputs": [
        {
          "internalType": "uint256",
          "name": "maxFee",
          "type": "uint256"
        }
      ],
      "name": "setProtocolMaxFee",
      "outputs": [],
      "payable": false,
      "stateMutability": "nonpayable",
      "type": "function"
    },
    {
      "constant": false,
      "inputs": [
        {
          "internalType": "uint256",
          "name": "amount",
          "type": "uint256"
        },
        {
          "internalType": "uint256",
          "name": "newBuyAmount",
          "type": "uint256"
        }
      ],
      "name": "deposit",
      "outputs": [
        {
          "internalType": "uint256",
          "name": "",
          "type": "uint256"
        },
        {
          "internalType": "uint256",
          "name": "",
          "type": "uint256"
        }
      ],
      "payable": false,
      "stateMutability": "nonpayable",
      "type": "function"
    },
    {
      "constant": false,
      "inputs": [
        {
          "internalType": "address",
          "name": "token",
          "type": "address"
        },
        {
          "internalType": "uint256",
          "name": "amount",
          "type": "uint256"
        }
      ],
      "name": "withdraw",
      "outputs": [
        {
          "internalType": "uint256",
          "name": "",
          "type": "uint256"
        },
        {
          "internalType": "uint256",
          "name": "",
          "type": "uint256"
        }
      ],
      "payable": false,
      "stateMutability": "nonpayable",
      "type": "function"
    },
    {
      "constant": false,
      "inputs": [],
      "name": "purchase",
      "outputs": [],
      "payable": false,
      "stateMutability": "nonpayable",
      "type": "function"
    }
  ],
  "bytecode": "0x6080604052615fed806100136000396000f3fe608060405234801561001057600080fd5b50600436106103835760003560e01c806370a08231116101de578063a22cb4651161010f578063e2bbb158116100ad578063f3fef3a31161007c578063f3fef3a314610ef2578063f887ea4014610f1e578063f9cf285714610f26578063fae43f4914610f7d57610383565b8063e2bbb15814610e3c578063e985e9c514610e78578063f2d36baa14610ea6578063f2fde38b14610ecc57610383565b8063c4d66de8116100e9578063c4d66de814610d14578063c727389514610d3a578063c87b56dd14610d60578063e0b5417314610d7d57610383565b8063a22cb46514610c18578063b227685814610c46578063b88d4fde14610c4e57610383565b806389886e851161017c5780638f32d59b116101565780638f32d59b14610bce57806395d89b4114610bd657806397b84a0f14610bde5780639c84562914610bfb57610383565b806389886e8514610b985780638cbab7e414610ba05780638da5cb5b14610bc657610383565b8063735b3fff116101b8578063735b3fff14610b3a57806375c5d44b14610b425780637bd203b914610b885780638129fc1c14610b9057610383565b806370a0823114610a66578063715018a614610a8c57806371dc760f14610a9457610383565b806342966c68116102b857806360cd9e25116102565780636c0360eb116102305780636c0360eb146109fe5780636cd0715414610a065780636f75be9a14610a0e5780637004e42614610a2b57610383565b806360cd9e25146109d15780636352211e146109d957806364edfbf0146109f657610383565b806346abf3911161029257806346abf3911461084d578063487e88051461086a5780634cd88b76146108875780634f6ccce7146109b457610383565b806342966c68146107c55780634437152a146107e25780634487d3df1461080857610383565b806318160ddd1161032557806323b872dd116102ff57806323b872dd1461072557806329dcb0cf1461075b5780632f745c591461076357806342842e0e1461078f57610383565b806318160ddd146106e6578063195199f6146107005780631dd3f0e91461071d57610383565b806306fdde031161036157806306fdde03146105fc578063081812fc14610679578063095ea7b3146106b257806316f0115b146106de57610383565b806301ffc9a7146103885780630512c83c146103db57806305aa2b48146104ab575b600080fd5b6103c76004803603602081101561039e57600080fd5b50357fffffffff0000000000000000000000000000000000000000000000000000000016610f85565b604080519115158252519081900360200190f35b61045b600480360360408110156103f157600080fd5b6001600160a01b03823516919081019060408101602082013564010000000081111561041c57600080fd5b82018360208201111561042e57600080fd5b8035906020019184602083028401116401000000008311171561045057600080fd5b509092509050610fc0565b60408051602080825283518183015283519192839290830191858101910280838360005b8381101561049757818101518382015260200161047f565b505050509050019250505060405180910390f35b6105fa60048036036101208110156104c257600080fd5b8101906020810181356401000000008111156104dd57600080fd5b8201836020820111156104ef57600080fd5b8035906020019184600183028401116401000000008311171561051157600080fd5b91939092909160208101903564010000000081111561052f57600080fd5b82018360208201111561054157600080fd5b8035906020019184600183028401116401000000008311171561056357600080fd5b919390926001600160a01b038335811693602081013590911692919060608101906040013564010000000081111561059a57600080fd5b8201836020820111156105ac57600080fd5b803590602001918460208302840111640100000000831117156105ce57600080fd5b919350915080351515906001600160a01b0360208201358116916040810135916060909101351661108b565b005b6106046112ba565b6040805160208082528351818301528351919283929083019185019080838360005b8381101561063e578181015183820152602001610626565b50505050905090810190601f16801561066b5780820380516001836020036101000a031916815260200191505b509250505060405180910390f35b6106966004803603602081101561068f57600080fd5b5035611352565b604080516001600160a01b039092168252519081900360200190f35b6105fa600480360360408110156106c857600080fd5b506001600160a01b0381351690602001356113b4565b6106966114e9565b6106ee6114f8565b60408051918252519081900360200190f35b6105fa6004803603602081101561071657600080fd5b50356114fe565b6105fa61154f565b6105fa6004803603606081101561073b57600080fd5b506001600160a01b03813581169160208101359091169060400135611561565b6106ee6115bd565b6106ee6004803603604081101561077957600080fd5b506001600160a01b0381351690602001356115c4565b6105fa600480360360608110156107a557600080fd5b506001600160a01b03813581169160208101359091169060400135611644565b6105fa600480360360208110156107db57600080fd5b503561165f565b6105fa600480360360208110156107f857600080fd5b50356001600160a01b03166116b1565b6108256004803603602081101561081e57600080fd5b50356117b0565b604080516001600160a01b039094168452602084019290925282820152519081900360600190f35b6106966004803603602081101561086357600080fd5b50356117eb565b6105fa6004803603602081101561088057600080fd5b5035611813565b6105fa6004803603604081101561089d57600080fd5b8101906020810181356401000000008111156108b857600080fd5b8201836020820111156108ca57600080fd5b803590602001918460018302840111640100000000831117156108ec57600080fd5b91908080601f016020809104026020016040519081016040528093929190818152602001838380828437600092019190915250929594936020810193503591505064010000000081111561093f57600080fd5b82018360208201111561095157600080fd5b8035906020019184600183028401116401000000008311171561097357600080fd5b91908080601f01602080910402602001604051908101604052809392919081815260200183838082843760009201919091525092955061185f945050505050565b6106ee600480360360208110156109ca57600080fd5b5035611966565b6106966119cc565b610696600480360360208110156109ef57600080fd5b50356119dc565b6105fa611a30565b610604611c2c565b610696611c8e565b61069660048036036020811015610a2457600080fd5b5035611c9e565b610a4860048036036020811015610a4157600080fd5b5035611cac565b60408051938452602084019290925282820152519081900360600190f35b6106ee60048036036020811015610a7c57600080fd5b50356001600160a01b0316611cd1565b6105fa611d39565b61069660048036036020811015610aaa57600080fd5b810190602081018135640100000000811115610ac557600080fd5b820183602082011115610ad757600080fd5b80359060200191846001830284011164010000000083111715610af957600080fd5b91908080601f016020809104026020016040519081016040528093929190818152602001838380828437600092019190915250929550611de9945050505050565b6103c7612030565b6103c7600480360360a0811015610b5857600080fd5b506001600160a01b0381358116916020810135916040820135811691606081013582169160809091013516612052565b6106ee6121c0565b6105fa6121c7565b6106ee6122a2565b6106ee60048036036020811015610bb657600080fd5b50356001600160a01b03166122a9565b6106966122c0565b6103c76122cf565b6106046122f5565b6106ee60048036036020811015610bf457600080fd5b5035612357565b6106ee60048036036020811015610c1157600080fd5b503561236a565b6105fa60048036036040811015610c2e57600080fd5b506001600160a01b0381351690602001351515612380565b6106ee612485565b6105fa60048036036080811015610c6457600080fd5b6001600160a01b03823581169260208101359091169160408201359190810190608081016060820135640100000000811115610c9f57600080fd5b820183602082011115610cb157600080fd5b80359060200191846001830284011164010000000083111715610cd357600080fd5b91908080601f01602080910402602001604051908101604052809392919081815260200183838082843760009201919091525092955061248c945050505050565b6105fa60048036036020811015610d2a57600080fd5b50356001600160a01b03166124ea565b6103c760048036036020811015610d5057600080fd5b50356001600160a01b03166125a3565b61060460048036036020811015610d7657600080fd5b50356125b7565b610da360048036036020811015610d9357600080fd5b50356001600160a01b0316612785565b604051808060200180602001838103835285818151815260200191508051906020019060200280838360005b83811015610de7578181015183820152602001610dcf565b50505050905001838103825284818151815260200191508051906020019060200280838360005b83811015610e26578181015183820152602001610e0e565b5050505090500194505050505060405180910390f35b610e5f60048036036040811015610e5257600080fd5b508035906020013561294f565b6040805192835260208301919091528051918290030190f35b6103c760048036036040811015610e8e57600080fd5b506001600160a01b0381358116916020013516612b2c565b6105fa60048036036020811015610ebc57600080fd5b50356001600160a01b0316612b5a565b6105fa60048036036020811015610ee257600080fd5b50356001600160a01b0316612ba9565b610e5f60048036036040811015610f0857600080fd5b506001600160a01b038135169060200135612c0b565b610696612d5a565b610f4c60048036036020811015610f3c57600080fd5b50356001600160a01b0316612d6a565b604080519485526001600160a01b039384166020860152918316848301529091166060830152519081900360800190f35b6106ee612da1565b7fffffffff00000000000000000000000000000000000000000000000000000000811660009081526067602052604090205460ff165b919050565b6060610fca612da8565b506000610fd6856122a9565b9050606084849050604051908082528060200260200182016040528015611007578160200160208202803883390190505b50905060005b848110156110815760008381526101ac602052604081209087878481811061103157fe5b905060200201356001600160a01b03166001600160a01b03166001600160a01b031681526020019081526020016000205482828151811061106e57fe5b602090810291909101015260010161100d565b5095945050505050565b600054610100900460ff16806110a457506110a4612ef4565b806110b2575060005460ff16155b6110ed5760405162461bcd60e51b815260040180806020018281038252602e815260200180615de7602e913960400191505060405180910390fd5b600054610100900460ff16158015611118576000805460ff1961ff0019909116610100171660011790555b61112189612efa565b61112a826124ea565b611132612f98565b61113a6121c7565b6111be8d8d8080601f016020809104026020016040519081016040528093929190818152602001838380828437600081840152601f19601f820116905080830192505050505050508c8c8080601f01602080910402602001604051908101604052809392919081815260200183838082843760009201919091525061185f92505050565b6111fa87878080602002602001604051908101604052809392919081815260200183836020028082843760009201919091525061305692505050565b6101aa80546001600160a01b03808b1673ffffffffffffffffffffffffffffffffffffffff19928316179092556101ab805488151574010000000000000000000000000000000000000000027fffffffffffffffffffffff00ffffffffffffffffffffffffffffffffffffffff9091161790556101a98054928716929091169190911790556101a4839055611295428463ffffffff61315216565b6101a55580156112ab576000805461ff00191690555b50505050505050505050505050565b6101068054604080516020601f60026000196101006001881615020190951694909404938401819004810282018101909252828152606093909290918301828280156113475780601f1061131c57610100808354040283529160200191611347565b820191906000526020600020905b81548152906001019060200180831161132a57829003601f168201915b505050505090505b90565b600061135d826131b3565b6113985760405162461bcd60e51b815260040180806020018281038252602c815260200180615d99602c913960400191505060405180910390fd5b506000908152609b60205260409020546001600160a01b031690565b60006113bf826119dc565b9050806001600160a01b0316836001600160a01b031614156114125760405162461bcd60e51b8152600401808060200182810382526021815260200180615e6d6021913960400191505060405180910390fd5b806001600160a01b03166114246131d0565b6001600160a01b031614806114455750611445816114406131d0565b612b2c565b6114805760405162461bcd60e51b8152600401808060200182810382526038815260200180615c926038913960400191505060405180910390fd5b6000828152609b6020526040808220805473ffffffffffffffffffffffffffffffffffffffff19166001600160a01b0387811691821790925591518593918516917f8c5be1e5ebec7d5bd14f71427d1e84f3dd0314c0f7b2291e5b200ac8c7c3b92591a4505050565b6066546001600160a01b031681565b60d25490565b61150e6115096131d0565b6125a3565b6115495760405162461bcd60e51b815260040180806020018281038252603a815260200180615d3e603a913960400191505060405180910390fd5b6101a755565b61155f61155a6131d0565b6131d4565b565b61157261156c6131d0565b8261321d565b6115ad5760405162461bcd60e51b8152600401808060200182810382526031815260200180615eb06031913960400191505060405180910390fd5b6115b88383836132b9565b505050565b6101a75481565b60006115cf83611cd1565b821061160c5760405162461bcd60e51b815260040180806020018281038252602b815260200180615b3c602b913960400191505060405180910390fd5b6001600160a01b038316600090815260d06020526040902080548390811061163057fe5b906000526020600020015490505b92915050565b6115b88383836040518060200160405280600081525061248c565b61166a61156c6131d0565b6116a55760405162461bcd60e51b8152600401808060200182810382526030815260200180615f566030913960400191505060405180910390fd5b6116ae816132d8565b50565b6116b96122cf565b61170a576040805162461bcd60e51b815260206004820181905260248201527f4f776e61626c653a2063616c6c6572206973206e6f7420746865206f776e6572604482015290519081900360640190fd5b6001600160a01b03811661174f5760405162461bcd60e51b8152600401808060200182810382526022815260200180615c4d6022913960400191505060405180910390fd5b606680546001600160a01b03831673ffffffffffffffffffffffffffffffffffffffff19909116811790915560408051918252517f5b36800c27524690807962bd42525a44e68b3f860e8f9e0204f27e777d2f46059181900360200190a150565b6101a081815481106117be57fe5b60009182526020909120600390910201805460018201546002909201546001600160a01b03909116925083565b6101a281815481106117f957fe5b6000918252602090912001546001600160a01b0316905081565b61181e6115096131d0565b6118595760405162461bcd60e51b815260040180806020018281038252603a815260200180615d3e603a913960400191505060405180910390fd5b6101a855565b600054610100900460ff16806118785750611878612ef4565b80611886575060005460ff16155b6118c15760405162461bcd60e51b815260040180806020018281038252602e815260200180615de7602e913960400191505060405180910390fd5b600054610100900460ff161580156118ec576000805460ff1961ff0019909116610100171660011790555b6118f46132ea565b6118fd57600080fd5b825161191190610106906020860190615a3f565b50815161192690610107906020850190615a3f565b506119507f5b5e139f0000000000000000000000000000000000000000000000000000000061331a565b80156115b8576000805461ff0019169055505050565b60006119706114f8565b82106119ad5760405162461bcd60e51b815260040180806020018281038252602c815260200180615ee1602c913960400191505060405180910390fd5b60d282815481106119ba57fe5b90600052602060002001549050919050565b6101ab546001600160a01b031681565b6000818152609a60205260408120546001600160a01b03168061163e5760405162461bcd60e51b8152600401808060200182810382526029815260200180615cf46029913960400191505060405180910390fd5b611a3b6115096131d0565b611a765760405162461bcd60e51b815260040180806020018281038252603a815260200180615d3e603a913960400191505060405180910390fd5b6101a554421015611ab85760405162461bcd60e51b8152600401808060200182810382526023815260200180615c6f6023913960400191505060405180910390fd5b6000611ac26133ce565b6101aa546101a654919250600091611ae3916001600160a01b0316906133e9565b6101a9546101aa54919350611b0c92506001600160a01b0391821691168363ffffffff6135b416565b60005b6101a154811015611be157604080516002808252606080830184529260208301908038833950506101aa5482519293506001600160a01b031691839150600090611b5557fe5b60200260200101906001600160a01b031690816001600160a01b0316815250506101a18281548110611b8357fe5b9060005260206000200160009054906101000a90046001600160a01b031681600181518110611bae57fe5b60200260200101906001600160a01b031690816001600160a01b031681525050611bd8848261374c565b50600101611b0f565b506101a4546101a554611bf99163ffffffff61315216565b6101a5556101a05460009081526101ad60205260409020546101a654611c249163ffffffff613ada16565b6101a6555050565b6101098054604080516020601f60026000196101006001881615020190951694909404938401819004810282018101909252828152606093909290918301828280156113475780601f1061131c57610100808354040283529160200191611347565b6101aa546001600160a01b031681565b6101a181815481106117f957fe5b6101ac6020526000908152604090206001810154600282015460039092015490919083565b60006001600160a01b038216611d185760405162461bcd60e51b815260040180806020018281038252602a815260200180615cca602a913960400191505060405180910390fd5b6001600160a01b0382166000908152609c6020526040902061163e90613b1c565b611d416122cf565b611d92576040805162461bcd60e51b815260206004820181905260248201527f4f776e61626c653a2063616c6c6572206973206e6f7420746865206f776e6572604482015290519081900360640190fd5b6033546040516000916001600160a01b0316907f8be0079c531659141344cd1fd0a4f28419497f9722a3daafe3b4186f6b6457e0908390a36033805473ffffffffffffffffffffffffffffffffffffffff19169055565b6066546000906001600160a01b0316611e49576040805162461bcd60e51b815260206004820152600f60248201527f4d6f64756c653a206e6f20706f6f6c0000000000000000000000000000000000604482015290519081900360640190fd5b6066546040516020602482018181528551604484015285516000946060946001600160a01b03909116938893928392606401918501908083838b5b83811015611e9c578181015183820152602001611e84565b50505050905090810190601f168015611ec95780820380516001836020036101000a031916815260200191505b5060408051601f198184030181529181526020820180517bffffffffffffffffffffffffffffffffffffffffffffffffffffffff167f693ec85e00000000000000000000000000000000000000000000000000000000178152905182519295509350839250908083835b60208310611f525780518252601f199092019160209182019101611f33565b6001836020036101000a038019825116818451168082178552505050505050905001915050600060405180830381855afa9150503d8060008114611fb2576040519150601f19603f3d011682016040523d82523d6000602084013e611fb7565b606091505b509150915081611fc8578060208201fd5b6000818060200190516020811015611fdf57600080fd5b505190506001600160a01b0381166120285760405162461bcd60e51b8152600401808060200182810382526022815260200180615e8e6022913960400191505060405180910390fd5b949350505050565b6101ab5474010000000000000000000000000000000000000000900460ff1681565b600061205f6115096131d0565b61209a5760405162461bcd60e51b815260040180806020018281038252603a815260200180615d3e603a913960400191505060405180910390fd5b604080516080810182528681526001600160a01b038087166020808401828152888416858701908152888516606087019081528d861660009081526101ae855288812097518855925160018801805491881673ffffffffffffffffffffffffffffffffffffffff19928316179055915160028801805491881691841691909117905551600390960180549690951695169490941790925582526101af9052205460ff166121b4576101a2805460018082019092557f16f51b7b770dc888307b215a468396cad0bf985bd7e546f15769c8fd0d2b940401805473ffffffffffffffffffffffffffffffffffffffff19166001600160a01b03871690811790915560009081526101af60205260409020805460ff191690911790555b50600195945050505050565b6101a45481565b600054610100900460ff16806121e057506121e0612ef4565b806121ee575060005460ff16155b6122295760405162461bcd60e51b815260040180806020018281038252602e815260200180615de7602e913960400191505060405180910390fd5b600054610100900460ff16158015612254576000805460ff1961ff0019909116610100171660011790555b61225c6132ea565b61226557600080fd5b61228e7f780e9d630000000000000000000000000000000000000000000000000000000061331a565b80156116ae576000805461ff001916905550565b6101a85481565b60006122b482613b20565b6000815481106119ba57fe5b6033546001600160a01b031690565b6033546000906001600160a01b03166122e66131d0565b6001600160a01b031614905090565b6101078054604080516020601f60026000196101006001881615020190951694909404938401819004810282018101909252828152606093909290918301828280156113475780601f1061131c57610100808354040283529160200191611347565b6101ad6020526000908152604090205481565b60009081526101ac602052604090206001015490565b6123886131d0565b6001600160a01b0316826001600160a01b031614156123ee576040805162461bcd60e51b815260206004820152601960248201527f4552433732313a20617070726f766520746f2063616c6c657200000000000000604482015290519081900360640190fd5b80609d60006123fb6131d0565b6001600160a01b03908116825260208083019390935260409182016000908120918716808252919093529120805460ff19169215159290921790915561243f6131d0565b60408051841515815290516001600160a01b0392909216917f17307eab39ab6107e8899845ad3d59bd9653f200f220920489ca2b5937696c319181900360200190a35050565b6101a55481565b61249d6124976131d0565b8361321d565b6124d85760405162461bcd60e51b8152600401808060200182810382526031815260200180615eb06031913960400191505060405180910390fd5b6124e484848484613b3a565b50505050565b600054610100900460ff16806125035750612503612ef4565b80612511575060005460ff16155b61254c5760405162461bcd60e51b815260040180806020018281038252602e815260200180615de7602e913960400191505060405180910390fd5b600054610100900460ff16158015612577576000805460ff1961ff0019909116610100171660011790555b612580826125a3565b61258d5761258d82613b8c565b801561259f576000805461ff00191690555b5050565b600061163e61019f8363ffffffff613bd516565b60606125c2826131b3565b6125fd5760405162461bcd60e51b815260040180806020018281038252602f815260200180615e3e602f913960400191505060405180910390fd5b6000828152610108602090815260409182902080548351601f60026000196101006001861615020190931692909204918201849004840281018401909452808452606093928301828280156126935780601f1061266857610100808354040283529160200191612693565b820191906000526020600020905b81548152906001019060200180831161267657829003601f168201915b505050505090508051600014156126ba575050604080516020810190915260008152610fbb565b61010981604051602001808380546001816001161561010002031660029004801561271c5780601f106126fa57610100808354040283529182019161271c565b820191906000526020600020905b815481529060010190602001808311612708575b5050825160208401908083835b602083106127485780518252601f199092019160209182019101612729565b6001836020036101000a03801982511681845116808217855250505050505090500192505050604051602081830303815290604052915050610fbb565b6101ab54604080517f79e759950000000000000000000000000000000000000000000000000000000081523060048201526001600160a01b0384811660248301529151606093849316916379e7599591604480830192600092919082900301818387803b1580156127f557600080fd5b505af1158015612809573d6000803e3d6000fd5b505050506040513d6000823e601f3d908101601f19168201604090815281101561283257600080fd5b810190808051604051939291908464010000000082111561285257600080fd5b90830190602082018581111561286757600080fd5b825186602082028301116401000000008211171561288457600080fd5b82525081516020918201928201910280838360005b838110156128b1578181015183820152602001612899565b50505050905001604052602001805160405193929190846401000000008211156128da57600080fd5b9083019060208201858111156128ef57600080fd5b825186602082028301116401000000008211171561290c57600080fd5b82525081516020918201928201910280838360005b83811015612939578181015183820152602001612921565b5050505090500160405250505091509150915091565b60008061297861295d6131d0565b6101aa546001600160a01b031690308763ffffffff613c3c16565b6129886129836131d0565b611cd1565b612a51576000612996613dc7565b6101aa5490915060009081906129b5906001600160a01b031688613df4565b915091506129c883826000896001614034565b7f4e2ca0515ed1aef1395f66b5303bb5d6f1bf9d61a353fa53f73f8ac9973fa9f66129f16131d0565b6101aa54604080516001600160a01b0393841681529290911660208301528181018490526060820185905260808201899052519081900360a00190a16101a05460009384526101ac60205260409093206002019290925592509050612b25565b612a59612da8565b506000612a6c612a676131d0565b6122a9565b6101aa549091506000908190612a8b906001600160a01b031688613df4565b91509150612ab483826101ac600087815260200190815260200160002060010154896001614034565b7f4e2ca0515ed1aef1395f66b5303bb5d6f1bf9d61a353fa53f73f8ac9973fa9f6612add6131d0565b6101aa54604080516001600160a01b0393841681529290911660208301528181018490526060820185905260808201899052519081900360a00190a19093509150612b259050565b9250929050565b6001600160a01b039182166000908152609d6020908152604080832093909416825291909152205460ff1690565b612b656115096131d0565b612ba05760405162461bcd60e51b815260040180806020018281038252603a815260200180615d3e603a913960400191505060405180910390fd5b6116ae81613b8c565b612bb16122cf565b612c02576040805162461bcd60e51b815260206004820181905260248201527f4f776e61626c653a2063616c6c6572206973206e6f7420746865206f776e6572604482015290519081900360640190fd5b6116ae81614238565b600080612c16612da8565b506000612c24612a676131d0565b60008181526101ac602090815260408083206001600160a01b038a168452909152902054909150841115612c895760405162461bcd60e51b8152600401808060200182810382526033815260200180615f866033913960400191505060405180910390fd5b600080612c9687876133e9565b6101aa5491935091506001600160a01b0388811691161415612cd35760008381526101ac6020526040812060010154612cd3918591849180614034565b612cf5612cde6131d0565b6001600160a01b038916908363ffffffff6142e616565b7fc2b4a290c20fb28939d29f102514fbffd2b73c059ffba8b78250c94161d5fcc6612d1e6131d0565b604080516001600160a01b039283168152918a16602083015281810184905260608201859052519081900360800190a190969095509350505050565b6101a9546001600160a01b031681565b6101ae60205260009081526040902080546001820154600283015460039093015491926001600160a01b0391821692908216911684565b6101a65481565b6000612db2614477565b6000612dbf612a676131d0565b90506000612dcb6133ce565b60008381526101ac60205260409020600201549091505b6101a054811015612eee576101aa546101a080546001600160a01b039092169183908110612e0c57fe5b60009182526020909120600390910201546001600160a01b03161415612e785760008381526101ac6020526040812060010154612e4a908390614792565b9050612e7284826101ac60008881526020019081526020016000206001015460006001614034565b50612ee6565b60008381526101ac602090815260408083206101aa546001600160a01b031684529091529020548211612ee6576000612eb18284614792565b9050612ebf848385846147f5565b50612ed182600163ffffffff61315216565b60008581526101ac6020526040902060020155505b600101612de2565b50505090565b303b1590565b600054610100900460ff1680612f135750612f13612ef4565b80612f21575060005460ff16155b612f5c5760405162461bcd60e51b815260040180806020018281038252602e815260200180615de7602e913960400191505060405180910390fd5b600054610100900460ff16158015612f87576000805460ff1961ff0019909116610100171660011790555b612f8f6148fd565b61258d826116b1565b600054610100900460ff1680612fb15750612fb1612ef4565b80612fbf575060005460ff16155b612ffa5760405162461bcd60e51b815260040180806020018281038252602e815260200180615de7602e913960400191505060405180910390fd5b600054610100900460ff16158015613025576000805460ff1961ff0019909116610100171660011790555b61302d61499a565b61228e7f80ac58cd0000000000000000000000000000000000000000000000000000000061331a565b6101ab5474010000000000000000000000000000000000000000900460ff16801561308357506001815111155b806130aa57506101ab5474010000000000000000000000000000000000000000900460ff16155b6130e55760405162461bcd60e51b815260040180806020018281038252603e815260200180615be3603e913960400191505060405180910390fd5b60005b815181101561259f576101a182828151811061310057fe5b602090810291909101810151825460018082018555600094855292909320909201805473ffffffffffffffffffffffffffffffffffffffff19166001600160a01b0390931692909217909155016130e8565b6000828201838110156131ac576040805162461bcd60e51b815260206004820152601b60248201527f536166654d6174683a206164646974696f6e206f766572666c6f770000000000604482015290519081900360640190fd5b9392505050565b6000908152609a60205260409020546001600160a01b0316151590565b3390565b6131e661019f8263ffffffff614a5016565b6040516001600160a01b038216907f0ce9bf7d79f4d20dd39c2ef94ea6ce0613fdbad453ac4b17ef981422cbc65e6890600090a250565b6000613228826131b3565b6132635760405162461bcd60e51b815260040180806020018281038252602c815260200180615c21602c913960400191505060405180910390fd5b600061326e836119dc565b9050806001600160a01b0316846001600160a01b031614806132a95750836001600160a01b031661329e84611352565b6001600160a01b0316145b8061202857506120288185612b2c565b6132c4838383614ab7565b6132ce8382614c08565b6115b88282614cf6565b6116ae6132e4826119dc565b82614d34565b60006133157f80ac58cd00000000000000000000000000000000000000000000000000000000610f85565b905090565b7fffffffff000000000000000000000000000000000000000000000000000000008082161415613391576040805162461bcd60e51b815260206004820152601c60248201527f4552433136353a20696e76616c696420696e7465726661636520696400000000604482015290519081900360640190fd5b7fffffffff00000000000000000000000000000000000000000000000000000000166000908152606760205260409020805460ff19166001179055565b6101a1546101a654600091613315919063ffffffff614d7e16565b6001600160a01b0380831660009081526101ae602090815260408083206003015481517f70a08231000000000000000000000000000000000000000000000000000000008152306004820152915193948594859492909116926370a08231926024808301939192829003018186803b15801561346457600080fd5b505afa158015613478573d6000803e3d6000fd5b505050506040513d602081101561348e57600080fd5b50516001600160a01b0380871660009081526101ae602052604081206001810154600290910154939450909290821691637bfe950c911688886134d18282614dc0565b6040518563ffffffff1660e01b815260040180856001600160a01b03166001600160a01b03168152602001846001600160a01b03166001600160a01b03168152602001838152602001828152602001945050505050602060405180830381600087803b15801561354057600080fd5b505af1158015613554573d6000803e3d6000fd5b505050506040513d602081101561356a57600080fd5b50516001600160a01b03871660009081526101ae60205260408120549192509061359b90839063ffffffff614e2116565b90506135a8878484614e98565b90969095509350505050565b604080516001600160a01b038481166024830152604480830185905283518084039091018152606490920183526020820180517bffffffffffffffffffffffffffffffffffffffffffffffffffffffff167f095ea7b300000000000000000000000000000000000000000000000000000000178152925182516000946060949389169392918291908083835b6020831061365f5780518252601f199092019160209182019101613640565b6001836020036101000a0380198251168184511680821785525050505050509050019150506000604051808303816000865af19150503d80600081146136c1576040519150601f19603f3d011682016040523d82523d6000602084013e6136c6565b606091505b50915091508180156136f45750805115806136f457508080602001905160208110156136f157600080fd5b50515b613745576040805162461bcd60e51b815260206004820152601e60248201527f5472616e7366657248656c7065723a20415050524f56455f4641494c45440000604482015290519081900360640190fd5b5050505050565b6101a954604080517fd06ca61f00000000000000000000000000000000000000000000000000000000815260048101858152602482019283528451604483015284516060946001600160a01b03169363d06ca61f9388938893909291606401906020808601910280838360005b838110156137d15781810151838201526020016137b9565b50505050905001935050505060006040518083038186803b1580156137f557600080fd5b505afa158015613809573d6000803e3d6000fd5b505050506040513d6000823e601f3d908101601f19168201604052602081101561383257600080fd5b810190808051604051939291908464010000000082111561385257600080fd5b90830190602082018581111561386757600080fd5b825186602082028301116401000000008211171561388457600080fd5b82525081516020918201928201910280838360005b838110156138b1578181015183820152602001613899565b50505050905001604052505050905060606101a960009054906101000a90046001600160a01b03166001600160a01b03166338ed173985846001815181106138f557fe5b602002602001015186306101a7546040518663ffffffff1660e01b81526004018086815260200185815260200180602001846001600160a01b03166001600160a01b03168152602001838152602001828103825285818151815260200191508051906020019060200280838360005b8381101561397c578181015183820152602001613964565b505050509050019650505050505050600060405180830381600087803b1580156139a557600080fd5b505af11580156139b9573d6000803e3d6000fd5b505050506040513d6000823e601f3d908101601f1916820160405260208110156139e257600080fd5b8101908080516040519392919084640100000000821115613a0257600080fd5b908301906020820185811115613a1757600080fd5b8251866020820283011164010000000082111715613a3457600080fd5b82525081516020918201928201910280838360005b83811015613a61578181015183820152602001613a49565b5050505090500160405250505090506000613aa484600181518110613a8257fe5b602002602001015183600181518110613a9757fe5b6020026020010151613df4565b91505061374584600181518110613ab757fe5b602002602001015183600081518110613acc57fe5b602002602001015183614f8e565b60006131ac83836040518060400160405280601e81526020017f536166654d6174683a207375627472616374696f6e206f766572666c6f77000081525061505d565b5490565b6001600160a01b0316600090815260d06020526040902090565b613b458484846132b9565b613b51848484846150f4565b6124e45760405162461bcd60e51b8152600401808060200182810382526032815260200180615b676032913960400191505060405180910390fd5b613b9e61019f8263ffffffff6153a616565b6040516001600160a01b038216907f1c3f027a4c907a6c9dd65947c44db0adce386f894f23033f7ff2ca693b6e2a9890600090a250565b60006001600160a01b038216613c1c5760405162461bcd60e51b8152600401808060200182810382526022815260200180615dc56022913960400191505060405180910390fd5b506001600160a01b03166000908152602091909152604090205460ff1690565b604080516001600160a01b0385811660248301528481166044830152606480830185905283518084039091018152608490920183526020820180517bffffffffffffffffffffffffffffffffffffffffffffffffffffffff167f23b872dd0000000000000000000000000000000000000000000000000000000017815292518251600094606094938a169392918291908083835b60208310613cef5780518252601f199092019160209182019101613cd0565b6001836020036101000a0380198251168184511680821785525050505050509050019150506000604051808303816000865af19150503d8060008114613d51576040519150601f19603f3d011682016040523d82523d6000602084013e613d56565b606091505b5091509150818015613d84575080511580613d845750808060200190516020811015613d8157600080fd5b50515b613dbf5760405162461bcd60e51b8152600401808060200182810382526024815260200180615f326024913960400191505060405180910390fd5b505050505050565b6000613dd46101a3615427565b6000613de16101a3613b1c565b9050613315613dee6131d0565b82615430565b60408051600180825281830190925260009182916060916020808301908038833950506040805160018082528183019092529293506060929150602080830190803883390190505090508582600081518110613e4c57fe5b60200260200101906001600160a01b031690816001600160a01b0316815250508481600081518110613e7a57fe5b6020908102919091018101919091526001600160a01b0380881660008181526101ae909352604090922060010154613eba9291168763ffffffff6135b416565b6001600160a01b0380871660009081526101ae60209081526040808320600181015460029091015491517f562fa0df000000000000000000000000000000000000000000000000000000008152918516600483018181526060602485019081528951606486015289519697939093169563562fa0df9592948a948a94909260448301926084019187810191028083838e5b83811015613f63578181015183820152602001613f4b565b50505050905001838103825284818151815260200191508051906020019060200280838360005b83811015613fa2578181015183820152602001613f8a565b5050505090500195505050505050602060405180830381600087803b158015613fca57600080fd5b505af1158015613fde573d6000803e3d6000fd5b505050506040513d6020811015613ff457600080fd5b50516001600160a01b03881660009081526101ae60205260408120549192509061402590839063ffffffff614e2116565b91989197509095505050505050565b801561409d5760008581526101ac602090815260408083206101aa546001600160a01b03168452909152902054614071908563ffffffff61315216565b60008681526101ac602090815260408083206101aa546001600160a01b031684529091529020556140fc565b60008581526101ac602090815260408083206101aa546001600160a01b031684529091529020546140d4908563ffffffff613ada16565b60008681526101ac602090815260408083206101aa546001600160a01b031684529091529020555b81156141425760008581526101ac602052604090206001018290556101a65461413d908390614131908663ffffffff613ada16565b9063ffffffff61315216565b6101a6555b82156137455760008581526101ac602090815260408083206003015483526101ad909152902054614179908463ffffffff613ada16565b60008681526101ac60209081526040808320600381015484526101ad8352818420949094556101aa546001600160a01b03168352929052908120546141eb906001906141df906141cf908763ffffffff614d7e16565b6101a0549063ffffffff61315216565b9063ffffffff613ada16565b60008181526101ad602052604090205490915061420e908463ffffffff61315216565b60008281526101ad60209081526040808320939093558882526101ac905220600301555050505050565b6001600160a01b03811661427d5760405162461bcd60e51b8152600401808060200182810382526026815260200180615b996026913960400191505060405180910390fd5b6033546040516001600160a01b038084169216907f8be0079c531659141344cd1fd0a4f28419497f9722a3daafe3b4186f6b6457e090600090a36033805473ffffffffffffffffffffffffffffffffffffffff19166001600160a01b0392909216919091179055565b604080516001600160a01b038481166024830152604480830185905283518084039091018152606490920183526020820180517bffffffffffffffffffffffffffffffffffffffffffffffffffffffff167fa9059cbb00000000000000000000000000000000000000000000000000000000178152925182516000946060949389169392918291908083835b602083106143915780518252601f199092019160209182019101614372565b6001836020036101000a0380198251168184511680821785525050505050509050019150506000604051808303816000865af19150503d80600081146143f3576040519150601f19603f3d011682016040523d82523d6000602084013e6143f8565b606091505b5091509150818015614426575080511580614426575080806020019051602081101561442357600080fd5b50515b613745576040805162461bcd60e51b815260206004820152601f60248201527f5472616e7366657248656c7065723a205452414e534645525f4641494c454400604482015290519081900360640190fd5b60005b6101a2548110156116ae5760606101a2828154811061449557fe5b6000918252602082200154604080517fd9180a0000000000000000000000000000000000000000000000000000000000815290516001600160a01b039092169263d9180a0092600480840193829003018186803b1580156144f557600080fd5b505afa158015614509573d6000803e3d6000fd5b505050506040513d6000823e601f3d908101601f19168201604052602081101561453257600080fd5b810190808051604051939291908464010000000082111561455257600080fd5b90830190602082018581111561456757600080fd5b825186602082028301116401000000008211171561458457600080fd5b82525081516020918201928201910280838360005b838110156145b1578181015183820152602001614599565b50505050905001604052505050905060606101a283815481106145d057fe5b9060005260206000200160009054906101000a90046001600160a01b03166001600160a01b031663d212a642836040518263ffffffff1660e01b81526004018080602001828103825283818151815260200191508051906020019060200280838360005b8381101561464c578181015183820152602001614634565b5050505090500192505050600060405180830381600087803b15801561467157600080fd5b505af1158015614685573d6000803e3d6000fd5b505050506040513d6000823e601f3d908101601f1916820160405260208110156146ae57600080fd5b81019080805160405193929190846401000000008211156146ce57600080fd5b9083019060208201858111156146e357600080fd5b825186602082028301116401000000008211171561470057600080fd5b82525081516020918201928201910280838360005b8381101561472d578181015183820152602001614715565b50505050905001604052505050905060008090505b82518110156147875761477f83828151811061475a57fe5b60200260200101516101a65484848151811061477257fe5b6020026020010151614f8e565b600101614742565b50505060010161447a565b60006131ac6101a084815481106147a557fe5b9060005260206000209060030201600101546147e96101a086815481106147c857fe5b9060005260206000209060030201600201548561544d90919063ffffffff16565b9063ffffffff614d7e16565b60008481526101ac602090815260408083206101aa546001600160a01b0316845290915281205461482c908463ffffffff613ada16565b60008681526101ac602081815260408084206101aa546001600160a01b0316855280835290842094909455888352526101a080546148aa938693909290918990811061487457fe5b600091825260208083206003909202909101546001600160a01b031683528201929092526040019020549063ffffffff61315216565b60008681526101ac602052604081206101a08054919291889081106148cb57fe5b600091825260208083206003909202909101546001600160a01b03168352820192909252604001902055949350505050565b600054610100900460ff16806149165750614916612ef4565b80614924575060005460ff16155b61495f5760405162461bcd60e51b815260040180806020018281038252602e815260200180615de7602e913960400191505060405180910390fd5b600054610100900460ff1615801561498a576000805460ff1961ff0019909116610100171660011790555b61228e6149956131d0565b6154a6565b600054610100900460ff16806149b357506149b3612ef4565b806149c1575060005460ff16155b6149fc5760405162461bcd60e51b815260040180806020018281038252602e815260200180615de7602e913960400191505060405180910390fd5b600054610100900460ff16158015614a27576000805460ff1961ff0019909116610100171660011790555b61228e7f01ffc9a70000000000000000000000000000000000000000000000000000000061331a565b614a5a8282613bd5565b614a955760405162461bcd60e51b8152600401808060200182810382526021815260200180615d1d6021913960400191505060405180910390fd5b6001600160a01b0316600090815260209190915260409020805460ff19169055565b826001600160a01b0316614aca826119dc565b6001600160a01b031614614b0f5760405162461bcd60e51b8152600401808060200182810382526029815260200180615e156029913960400191505060405180910390fd5b6001600160a01b038216614b545760405162461bcd60e51b8152600401808060200182810382526024815260200180615bbf6024913960400191505060405180910390fd5b614b5d816155a4565b6001600160a01b0383166000908152609c60205260409020614b7e906155ec565b6001600160a01b0382166000908152609c60205260409020614b9f90615427565b6000818152609a6020526040808220805473ffffffffffffffffffffffffffffffffffffffff19166001600160a01b0386811691821790925591518493918716917fddf252ad1be2c89b69c2b068fc378daa952ba7f163c4a11628f55a4df523b3ef91a4505050565b6001600160a01b038216600090815260d06020526040812054614c3290600163ffffffff613ada16565b600083815260d16020526040902054909150808214614ccd576001600160a01b038416600090815260d060205260408120805484908110614c6f57fe5b906000526020600020015490508060d06000876001600160a01b03166001600160a01b031681526020019081526020016000208381548110614cad57fe5b600091825260208083209091019290925591825260d19052604090208190555b6001600160a01b038416600090815260d060205260409020805490613745906000198301615abd565b6001600160a01b03909116600090815260d060208181526040808420805486865260d184529185208290559282526001810183559183529091200155565b614d3e8282615603565b60008181526101086020526040902054600260001961010060018416150201909116041561259f5760008181526101086020526040812061259f91615ae1565b60006131ac83836040518060400160405280601a81526020017f536166654d6174683a206469766973696f6e206279207a65726f00000000000081525061562f565b6001600160a01b03821660009081526101ae60205260408120548190614ded90849063ffffffff61569416565b9050612028614e14670de0b6b3a76400006147e96101a8548561544d90919063ffffffff16565b829063ffffffff61315216565b60008160121415614e3357508161163e565b6012821115614e7857614e71837fffffffffffffffffffffffffffffffffffffffffffffffffffffffffffffffee8401600a0a63ffffffff61544d16565b905061163e565b601282101561163e57614e71836012849003600a0a63ffffffff614d7e16565b6001600160a01b0380841660009081526101ae602090815260408083206003015481517f70a0823100000000000000000000000000000000000000000000000000000000815230600482015291519394614f519487946141df948a94909316926370a082319260248083019392829003018186803b158015614f1957600080fd5b505afa158015614f2d573d6000803e3d6000fd5b505050506040513d6020811015614f4357600080fd5b50519063ffffffff613ada16565b905080156124e4576101a6546001600160a01b03851660009081526101ae60205260409020546124e4918691614f8e90859063ffffffff614e2116565b604080516060810182526001600160a01b039485168152602081019384529081019182526101a0805460018101825560009190915290517f7980fe0f714a613298681d64b7b8ffa7b148338dd52429f307d72798d5c317c46003909202918201805473ffffffffffffffffffffffffffffffffffffffff1916919095161790935590517f7980fe0f714a613298681d64b7b8ffa7b148338dd52429f307d72798d5c317c5830155517f7980fe0f714a613298681d64b7b8ffa7b148338dd52429f307d72798d5c317c690910155565b600081848411156150ec5760405162461bcd60e51b81526004018080602001828103825283818151815260200191508051906020019080838360005b838110156150b1578181015183820152602001615099565b50505050905090810190601f1680156150de5780820380516001836020036101000a031916815260200191505b509250505060405180910390fd5b505050900390565b6000615108846001600160a01b0316615704565b61511457506001612028565b600060606001600160a01b0386167f150b7a020000000000000000000000000000000000000000000000000000000061514b6131d0565b89888860405160240180856001600160a01b03166001600160a01b03168152602001846001600160a01b03166001600160a01b0316815260200183815260200180602001828103825283818151815260200191508051906020019080838360005b838110156151c45781810151838201526020016151ac565b50505050905090810190601f1680156151f15780820380516001836020036101000a031916815260200191505b5060408051601f198184030181529181526020820180517bffffffffffffffffffffffffffffffffffffffffffffffffffffffff167fffffffff00000000000000000000000000000000000000000000000000000000909a16999099178952518151919890975087965094509250829150849050835b602083106152865780518252601f199092019160209182019101615267565b6001836020036101000a0380198251168184511680821785525050505050509050019150506000604051808303816000865af19150503d80600081146152e8576040519150601f19603f3d011682016040523d82523d6000602084013e6152ed565b606091505b50915091508161533e578051156153075780518082602001fd5b60405162461bcd60e51b8152600401808060200182810382526032815260200180615b676032913960400191505060405180910390fd5b600081806020019051602081101561535557600080fd5b50517fffffffff00000000000000000000000000000000000000000000000000000000167f150b7a020000000000000000000000000000000000000000000000000000000014935061202892505050565b6153b08282613bd5565b15615402576040805162461bcd60e51b815260206004820152601f60248201527f526f6c65733a206163636f756e7420616c72656164792068617320726f6c6500604482015290519081900360640190fd5b6001600160a01b0316600090815260209190915260409020805460ff19166001179055565b80546001019055565b61543a828261573d565b6154448282614cf6565b61259f8161587b565b60008261545c5750600061163e565b8282028284828161546957fe5b04146131ac5760405162461bcd60e51b8152600401808060200182810382526021815260200180615d786021913960400191505060405180910390fd5b600054610100900460ff16806154bf57506154bf612ef4565b806154cd575060005460ff16155b6155085760405162461bcd60e51b815260040180806020018281038252602e815260200180615de7602e913960400191505060405180910390fd5b600054610100900460ff16158015615533576000805460ff1961ff0019909116610100171660011790555b6033805473ffffffffffffffffffffffffffffffffffffffff19166001600160a01b0384811691909117918290556040519116906000907f8be0079c531659141344cd1fd0a4f28419497f9722a3daafe3b4186f6b6457e0908290a3801561259f576000805461ff00191690555050565b6000818152609b60205260409020546001600160a01b0316156116ae576000908152609b60205260409020805473ffffffffffffffffffffffffffffffffffffffff19169055565b80546155ff90600163ffffffff613ada16565b9055565b61560d82826158bf565b6156178282614c08565b600081815260d1602052604081205561259f816159a3565b6000818361567e5760405162461bcd60e51b81526020600482018181528351602484015283519092839260449091019190850190808383600083156150b1578181015183820152602001615099565b50600083858161568a57fe5b0495945050505050565b600081601214156156a657508161163e565b60128211156156e457614e71837fffffffffffffffffffffffffffffffffffffffffffffffffffffffffffffffee8401600a0a63ffffffff614d7e16565b601282101561163e57614e71836012849003600a0a63ffffffff61544d16565b6000813f7fc5d2460186f7233c927e7db2dcc703c0e500b653ca82273b7bfad8045d85a470818114801590612028575050151592915050565b6001600160a01b038216615798576040805162461bcd60e51b815260206004820181905260248201527f4552433732313a206d696e7420746f20746865207a65726f2061646472657373604482015290519081900360640190fd5b6157a1816131b3565b156157f3576040805162461bcd60e51b815260206004820152601c60248201527f4552433732313a20746f6b656e20616c7265616479206d696e74656400000000604482015290519081900360640190fd5b6000818152609a60209081526040808320805473ffffffffffffffffffffffffffffffffffffffff19166001600160a01b0387169081179091558352609c909152902061583f90615427565b60405181906001600160a01b038416906000907fddf252ad1be2c89b69c2b068fc378daa952ba7f163c4a11628f55a4df523b3ef908290a45050565b60d28054600083815260d360205260408120829055600182018355919091527ff2192e1030363415d7b4fb0406540a0060e8e2fc8982f3f32289379e11fa65460155565b816001600160a01b03166158d2826119dc565b6001600160a01b0316146159175760405162461bcd60e51b8152600401808060200182810382526025815260200180615f0d6025913960400191505060405180910390fd5b615920816155a4565b6001600160a01b0382166000908152609c60205260409020615941906155ec565b6000818152609a6020526040808220805473ffffffffffffffffffffffffffffffffffffffff19169055518291906001600160a01b038516907fddf252ad1be2c89b69c2b068fc378daa952ba7f163c4a11628f55a4df523b3ef908390a45050565b60d2546000906159ba90600163ffffffff613ada16565b600083815260d3602052604081205460d280549394509092849081106159dc57fe5b906000526020600020015490508060d283815481106159f757fe5b600091825260208083209091019290925582815260d39091526040902082905560d2805490615a2a906000198301615abd565b50505060009182525060d36020526040812055565b828054600181600116156101000203166002900490600052602060002090601f016020900481019282601f10615a8057805160ff1916838001178555615aad565b82800160010185558215615aad579182015b82811115615aad578251825591602001919060010190615a92565b50615ab9929150615b21565b5090565b8154818355818111156115b8576000838152602090206115b8918101908301615b21565b50805460018160011615610100020316600290046000825580601f10615b0757506116ae565b601f0160209004906000526020600020908101906116ae91905b61134f91905b80821115615ab95760008155600101615b2756fe455243373231456e756d657261626c653a206f776e657220696e646578206f7574206f6620626f756e64734552433732313a207472616e7366657220746f206e6f6e20455243373231526563656976657220696d706c656d656e7465724f776e61626c653a206e6577206f776e657220697320746865207a65726f20616464726573734552433732313a207472616e7366657220746f20746865207a65726f20616464726573734443414d6f64756c652d736574546f6b656e546f4275793a20612073747261746567792063616e20636f6e7461696e206f6e6c79206f6e6520746f6b656e4552433732313a206f70657261746f7220717565727920666f72206e6f6e6578697374656e7420746f6b656e4d6f64756c653a20706f6f6c20616464726573732063616e2774206265207a65726f4443414d6f64756c652d70757263686173653a206e6f742074696d6520746f206275794552433732313a20617070726f76652063616c6c6572206973206e6f74206f776e6572206e6f7220617070726f76656420666f7220616c6c4552433732313a2062616c616e636520717565727920666f7220746865207a65726f20616464726573734552433732313a206f776e657220717565727920666f72206e6f6e6578697374656e7420746f6b656e526f6c65733a206163636f756e7420646f6573206e6f74206861766520726f6c654443414f70657261746f72526f6c653a2063616c6c657220646f6573206e6f74206861766520746865204443414f70657261746f7220726f6c65536166654d6174683a206d756c7469706c69636174696f6e206f766572666c6f774552433732313a20617070726f76656420717565727920666f72206e6f6e6578697374656e7420746f6b656e526f6c65733a206163636f756e7420697320746865207a65726f2061646472657373436f6e747261637420696e7374616e63652068617320616c7265616479206265656e20696e697469616c697a65644552433732313a207472616e73666572206f6620746f6b656e2074686174206973206e6f74206f776e4552433732314d657461646174613a2055524920717565727920666f72206e6f6e6578697374656e7420746f6b656e4552433732313a20617070726f76616c20746f2063757272656e74206f776e65724d6f64756c653a20726571756573746564206d6f64756c65206e6f7420666f756e644552433732313a207472616e736665722063616c6c6572206973206e6f74206f776e6572206e6f7220617070726f766564455243373231456e756d657261626c653a20676c6f62616c20696e646578206f7574206f6620626f756e64734552433732313a206275726e206f6620746f6b656e2074686174206973206e6f74206f776e5472616e7366657248656c7065723a205452414e534645525f46524f4d5f4641494c45444552433732314275726e61626c653a2063616c6c6572206973206e6f74206f776e6572206e6f7220617070726f7665644443414d6f64756c652d77697468647261773a20776974686472617720616d6f756e7420657863656564732062616c616e6365a265627a7a723158208d7a108752ecd330eb91ab5d672d296358b015805124e2d6bbc5a224538361c064736f6c63430005110032",
  "source": "pragma solidity ^0.5.17;\n\nimport \"@openzeppelin/contracts-ethereum-package/contracts/token/ERC20/IERC20.sol\";\nimport \"@openzeppelin/contracts-ethereum-package/contracts/token/ERC721/ERC721Full.sol\";\nimport \"@openzeppelin/contracts-ethereum-package/contracts/token/ERC721/ERC721Burnable.sol\";\nimport \"@openzeppelin/contracts-ethereum-package/contracts/drafts/Counters.sol\";\nimport \"@openzeppelin/contracts-ethereum-package/contracts/math/SafeMath.sol\";\nimport \"../../interfaces/uniswap/IUniswapV2Router02.sol\";\nimport \"../../interfaces/savings/ISavingsModule.sol\";\nimport \"../../interfaces/dca/IDCAFullBalanceHelper.sol\";\nimport \"../../utils/TransferHelper.sol\";\nimport \"../../utils/Normalization.sol\";\nimport \"./DCAOperatorRole.sol\";\nimport \"../../common/Module.sol\";\n\ncontract DCAModule is Module, ERC721Full, ERC721Burnable, DCAOperatorRole {\n    using SafeMath for uint256;\n    using TransferHelper for address;\n    using Normalization for uint256;\n    using Counters for Counters.Counter;\n\n    event Deposit(\n        address user,\n        address token,\n        uint256 dDeposit,\n        uint256 nDeposit,\n        uint256 newBuyAmount\n    );\n\n    event Withdrawal(\n        address user,\n        address token,\n        uint256 dWithdrawal,\n        uint256 nWithdrawal\n    );\n\n    struct Account {\n        mapping(address => uint256) balance;\n        uint256 buyAmount;\n        uint256 nextDistributionIndex;\n        uint256 lastRemovalPointIndex;\n    }\n\n    struct Distribution {\n        address token;\n        uint256 amountIn;\n        uint256 amountOut;\n    }\n\n    struct TokenData {\n        uint256 decimals;\n        address pool; // Reward\n        address protocol;\n        address poolToken;\n    }\n\n    Distribution[] public distributions;\n    address[] public tokensToBuy;\n    address[] public rewardPools;\n\n    Counters.Counter private _tokenIds;\n\n    uint256 public periodTimestamp;\n    uint256 public nextBuyTimestamp;\n    uint256 public globalPeriodBuyAmount;\n    uint256 public deadline; // uniswap v2 deadline\n    uint256 public protocolMaxFee; // 1e18 fee foundation\n\n    address public router;\n    address public tokenToSell;\n    address public dcaFullBalanceHelper;\n\n    bool public isThisAStrategyForBuyingASingleToken;\n\n    mapping(uint256 => Account) public _accountOf;\n    mapping(uint256 => uint256) public removeAfterDistribution;\n    mapping(address => TokenData) public tokenDataOf;\n\n    mapping(address => bool) private inPools;\n\n    function initialize(\n        string calldata _name,\n        string calldata _symbol,\n        address _osPool,\n        address _tokenToSell,\n        address[] calldata _tokensToBuy,\n        bool _isThisAStrategyForBuyingASingleToken,\n        address _router,\n        uint256 _periodTimestamp,\n        address bot\n    ) external initializer {\n        Module.initialize(_osPool);\n\n        DCAOperatorRole.initialize(bot);\n\n        ERC721.initialize();\n        ERC721Enumerable.initialize();\n        ERC721Metadata.initialize(_name, _symbol);\n\n        _setTokensToBuy(_tokensToBuy);\n\n        tokenToSell = _tokenToSell;\n        isThisAStrategyForBuyingASingleToken = _isThisAStrategyForBuyingASingleToken;\n        router = _router;\n        periodTimestamp = _periodTimestamp;\n        nextBuyTimestamp = now.add(_periodTimestamp);\n    }\n\n    // GETTERS\n    function getTokenIdByAddress(address userAddress)\n        public\n        view\n        returns (uint256)\n    {\n        return _tokensOfOwner(userAddress)[0];\n    }\n\n    function getAccountBuyAmount(uint256 tokenId)\n        public\n        view\n        returns (uint256)\n    {\n        return _accountOf[tokenId].buyAmount;\n    }\n\n    function getFullAccountBalances(address account, address[] calldata tokens)\n        external\n        returns (uint256[] memory)\n    {\n        _claimDistributions();\n\n        uint256 tokenId = getTokenIdByAddress(account);\n\n        uint256[] memory balances = new uint256[](tokens.length);\n\n        for (uint256 i = 0; i < tokens.length; i++) {\n            balances[i] = _accountOf[tokenId].balance[tokens[i]];\n        }\n\n        return balances;\n    }\n\n    function getFullAccountBalances(address account)\n        external\n        returns (address[] memory, uint256[] memory)\n    {\n        return\n            IDCAFullBalanceHelper(dcaFullBalanceHelper).getFullAccountBalances(\n                address(this),\n                account\n            );\n    }\n\n    // SETTERS\n    function setTokenData(\n        address token,\n        uint256 decimals,\n        address pool,\n        address protocol,\n        address poolToken\n    ) external onlyDCAOperator returns (bool) {\n        tokenDataOf[token] = TokenData({\n            decimals: decimals,\n            pool: pool,\n            protocol: protocol,\n            poolToken: poolToken\n        });\n\n        if (!inPools[pool]) {\n            rewardPools.push(pool);\n            inPools[pool] = true;\n        }\n\n        return true;\n    }\n\n    function setDeadline(uint256 newDeadline) external onlyDCAOperator {\n        deadline = newDeadline;\n    }\n\n    function setProtocolMaxFee(uint256 maxFee) external onlyDCAOperator {\n        protocolMaxFee = maxFee;\n    }\n\n    // CORE\n    function deposit(uint256 amount, uint256 newBuyAmount)\n        external\n        returns (uint256, uint256)\n    {\n        tokenToSell.safeTransferFrom(_msgSender(), address(this), amount);\n\n        // if new user\n        if (balanceOf(_msgSender()) == 0) {\n            uint256 tokenId = _registerNewAccount();\n\n            // returns normalized amount of pTokens (mint)\n            (uint256 nDeposit, uint256 dDeposit) = _depositToPool(\n                tokenToSell,\n                amount\n            );\n\n            _refreshAccount(tokenId, dDeposit, 0, newBuyAmount, true);\n\n            emit Deposit(\n                _msgSender(),\n                tokenToSell,\n                dDeposit,\n                nDeposit,\n                newBuyAmount\n            );\n\n            _accountOf[tokenId].nextDistributionIndex = distributions.length;\n\n            return (nDeposit, dDeposit);\n\n            // if existing user\n        } else {\n            _claimDistributions();\n\n            uint256 tokenId = getTokenIdByAddress(_msgSender());\n\n            // returns normalized amount of pTokens (mint)\n            (uint256 nDeposit, uint256 dDeposit) = _depositToPool(\n                tokenToSell,\n                amount\n            );\n\n            _refreshAccount(\n                tokenId,\n                dDeposit,\n                _accountOf[tokenId].buyAmount,\n                newBuyAmount,\n                true\n            );\n\n            emit Deposit(\n                _msgSender(),\n                tokenToSell,\n                dDeposit,\n                nDeposit,\n                newBuyAmount\n            );\n\n            return (nDeposit, dDeposit);\n        }\n    }\n\n    function withdraw(address token, uint256 amount)\n        external\n        returns (uint256, uint256)\n    {\n        _claimDistributions();\n\n        uint256 tokenId = getTokenIdByAddress(_msgSender());\n\n        require(\n            _accountOf[tokenId].balance[token] >= amount,\n            \"DCAModule-withdraw: withdraw amount exceeds balance\"\n        );\n\n        // returns normalized amount of pTokens (burn)\n        (uint256 nWithdrawal, uint256 dWithdrawal) = _withdrawFromPool(\n            token,\n            amount\n        );\n\n        if (token == tokenToSell) {\n            _refreshAccount(\n                tokenId,\n                dWithdrawal,\n                _accountOf[tokenId].buyAmount,\n                0,\n                false\n            );\n        }\n\n        token.safeTransfer(_msgSender(), dWithdrawal);\n\n        emit Withdrawal(_msgSender(), token, dWithdrawal, nWithdrawal);\n\n        return (nWithdrawal, dWithdrawal);\n    }\n\n    function purchase() external onlyDCAOperator {\n        require(now >= nextBuyTimestamp, \"DCAModule-purchase: not time to buy\");\n\n        uint256 dividedBuyAmount = _calculateDividedBuyAmount();\n\n        // returns amounts of original tokens and pool tokens (burn)\n        (, uint256 dWithdrawal) = _withdrawFromPool(\n            tokenToSell,\n            globalPeriodBuyAmount\n        );\n\n        tokenToSell.safeApprove(router, dWithdrawal);\n\n        for (uint256 i = 0; i < tokensToBuy.length; i++) {\n            // uniswap path [tokenToSell, tokenToBuy]\n            address[] memory path = new address[](2);\n            path[0] = tokenToSell;\n            path[1] = tokensToBuy[i];\n\n            _swapAndCreateDistribution(dividedBuyAmount, path);\n        }\n\n        nextBuyTimestamp = nextBuyTimestamp.add(periodTimestamp);\n\n        globalPeriodBuyAmount = globalPeriodBuyAmount.sub(\n            removeAfterDistribution[distributions.length]\n        );\n    }\n\n    // PRIVATE (HELPERS)\n    function _setTokensToBuy(address[] memory tokens) private {\n        require(\n            (isThisAStrategyForBuyingASingleToken && tokens.length <= 1) ||\n                !isThisAStrategyForBuyingASingleToken,\n            \"DCAModule-setTokenToBuy: a strategy can contain only one token\"\n        );\n\n        for (uint256 i = 0; i < tokens.length; i++) {\n            tokensToBuy.push(tokens[i]);\n        }\n    }\n\n    function _refreshAccount(\n        uint256 tokenId,\n        uint256 amount,\n        uint256 oldBuyAmount,\n        uint256 newBuyAmount,\n        bool isIncrementBalance\n    ) private {\n        // inc or dec tokenToSell balance\n        if (isIncrementBalance) {\n            _accountOf[tokenId].balance[tokenToSell] = _accountOf[tokenId]\n                .balance[tokenToSell]\n                .add(amount);\n        } else {\n            _accountOf[tokenId].balance[tokenToSell] = _accountOf[tokenId]\n                .balance[tokenToSell]\n                .sub(amount);\n        }\n\n        if (newBuyAmount > 0) {\n            // update buyAmount\n            _accountOf[tokenId].buyAmount = newBuyAmount;\n\n            // remove oldBuyAmount from globalPeriodBuyAmount and add newBuyAmount\n            globalPeriodBuyAmount = globalPeriodBuyAmount.sub(oldBuyAmount).add(\n                newBuyAmount\n            );\n        }\n\n        // remove oldBuyAmount from removeAfterDistribution\n        if (oldBuyAmount > 0) {\n            removeAfterDistribution[_accountOf[tokenId]\n                .lastRemovalPointIndex] = removeAfterDistribution[_accountOf[tokenId]\n                .lastRemovalPointIndex]\n                .sub(oldBuyAmount);\n\n            // calculate new removalPoint\n            uint256 removalPoint = distributions\n                .length\n                .add(_accountOf[tokenId].balance[tokenToSell].div(newBuyAmount))\n                .sub(0x0001);\n\n            // add newBuyAmount from removeAfterDistribution\n            removeAfterDistribution[removalPoint] = removeAfterDistribution[removalPoint]\n                .add(newBuyAmount);\n\n            _accountOf[tokenId].lastRemovalPointIndex = removalPoint;\n        }\n    }\n\n    function _calculatePayout(uint256 distibutionIndex, uint256 buyAmount)\n        private\n        view\n        returns (uint256)\n    {\n        return\n            buyAmount.mul(distributions[distibutionIndex].amountOut).div(\n                distributions[distibutionIndex].amountIn\n            );\n    }\n\n    function _subBuyAmountAndUpdateBalance(\n        uint256 tokenId,\n        uint256 distibutionIndex,\n        uint256 buyAmount,\n        uint256 amount\n    ) private returns (uint256) {\n        _accountOf[tokenId].balance[tokenToSell] = _accountOf[tokenId]\n            .balance[tokenToSell]\n            .sub(buyAmount);\n\n        _accountOf[tokenId].balance[distributions[distibutionIndex]\n            .token] = _accountOf[tokenId]\n            .balance[distributions[distibutionIndex].token]\n            .add(amount);\n    }\n\n    function _calculateDividedBuyAmount() private view returns (uint256) {\n        return globalPeriodBuyAmount.div(tokensToBuy.length);\n    }\n\n    function _withdrawRewardsAndMakeDistribution() private {\n        for (uint256 i = 0; i < rewardPools.length; i++) {\n            address[] memory rewardTokens = ISavingsModule(rewardPools[i])\n                .supportedRewardTokens();\n\n            uint256[] memory rAmounts = ISavingsModule(rewardPools[i])\n                .withdrawReward(rewardTokens);\n\n            for (uint256 j = 0; j < rewardTokens.length; j++) {\n                _makeDistribution(\n                    rewardTokens[j],\n                    globalPeriodBuyAmount,\n                    rAmounts[j]\n                );\n            }\n        }\n    }\n\n    function _claimDistributions() private returns (bool) {\n        _withdrawRewardsAndMakeDistribution();\n\n        uint256 tokenId = getTokenIdByAddress(_msgSender());\n\n        uint256 dividedBuyAmount = _calculateDividedBuyAmount();\n\n        for (\n            uint256 i = _accountOf[tokenId].nextDistributionIndex;\n            i < distributions.length;\n            i++\n        ) {\n            if (distributions[i].token == tokenToSell) {\n                uint256 amount = _calculatePayout(\n                    i,\n                    _accountOf[tokenId].buyAmount\n                );\n\n                _refreshAccount(\n                    tokenId,\n                    amount,\n                    _accountOf[tokenId].buyAmount,\n                    0,\n                    true\n                );\n            } else {\n                if (\n                    _accountOf[tokenId].balance[tokenToSell] >= dividedBuyAmount\n                ) {\n                    uint256 amount = _calculatePayout(i, dividedBuyAmount);\n\n                    _subBuyAmountAndUpdateBalance(\n                        tokenId,\n                        i,\n                        dividedBuyAmount,\n                        amount\n                    );\n\n                    _accountOf[tokenId].nextDistributionIndex = i.add(0x0001);\n                }\n            }\n        }\n    }\n\n    function _registerNewAccount() private returns (uint256) {\n        _tokenIds.increment();\n\n        uint256 tokenId = _tokenIds.current();\n\n        _mint(_msgSender(), tokenId);\n\n        return tokenId;\n    }\n\n    function _calculateWithdrawalMaxNAmount(address token, uint256 amount)\n        private\n        view\n        returns (uint256)\n    {\n        // normalized withdrawal amount\n        uint256 nAmount = amount.normalize(tokenDataOf[token].decimals);\n\n        // normalized withdrawal amount + fee\n        return nAmount.add(nAmount.mul(protocolMaxFee).div(1e18));\n    }\n\n    function _makeDistribution(\n        address token,\n        uint256 amountIn,\n        uint256 amountOut\n    ) private {\n        distributions.push(\n            Distribution({\n                token: token,\n                amountIn: amountIn,\n                amountOut: amountOut\n            })\n        );\n    }\n\n    function _calculateYieldAndMakeDistribution(\n        address token,\n        uint256 prevPoolTokenBalance,\n        uint256 nWithdrawal\n    ) private {\n        uint256 yield = IERC20(tokenDataOf[token].poolToken)\n            .balanceOf(address(this))\n            .sub(prevPoolTokenBalance)\n            .sub(nWithdrawal);\n\n        if (yield > 0)\n            _makeDistribution(\n                token,\n                globalPeriodBuyAmount,\n                yield.denormalize(tokenDataOf[token].decimals)\n            );\n    }\n\n    function _depositToPool(address token, uint256 amount)\n        private\n        returns (uint256, uint256)\n    {\n        address[] memory tokens = new address[](1);\n        uint256[] memory amounts = new uint256[](1);\n\n        tokens[0] = token;\n        amounts[0] = amount;\n\n        token.safeApprove(tokenDataOf[token].pool, amount);\n\n        // normalized deposit amount\n        uint256 nDeposit = ISavingsModule(tokenDataOf[token].pool).deposit(\n            tokenDataOf[token].protocol,\n            tokens,\n            amounts\n        );\n\n        // denormalized deposit amount\n        uint256 dDeposit = nDeposit.denormalize(tokenDataOf[token].decimals);\n\n        return (nDeposit, dDeposit);\n    }\n\n    function _withdrawFromPool(address token, uint256 amount)\n        private\n        returns (uint256, uint256)\n    {\n        uint256 prevPoolTokenBalance = IERC20(tokenDataOf[token].poolToken)\n            .balanceOf(address(this));\n\n        // normalized withdrawal amount (burn)\n        uint256 nWithdrawal = ISavingsModule(tokenDataOf[token].pool).withdraw(\n            tokenDataOf[token].protocol,\n            token,\n            amount,\n            _calculateWithdrawalMaxNAmount(token, amount)\n        );\n\n        // denormalized withdrawal amount (burn)\n        uint256 dWithdrawal = nWithdrawal.denormalize(\n            tokenDataOf[token].decimals\n        );\n\n        _calculateYieldAndMakeDistribution(\n            token,\n            prevPoolTokenBalance,\n            nWithdrawal\n        );\n\n        return (nWithdrawal, dWithdrawal);\n    }\n\n    function _swapAndCreateDistribution(uint256 amountIn, address[] memory path)\n        private\n    {\n        uint256[] memory amountsOut = IUniswapV2Router02(router).getAmountsOut(\n            amountIn,\n            path\n        );\n\n        uint256[] memory amounts = IUniswapV2Router02(router)\n            .swapExactTokensForTokens(\n            amountIn,\n            amountsOut[1],\n            path,\n            address(this),\n            deadline\n        );\n\n        // returns normalized amount of pTokens (mint)\n        (, uint256 dDeposit) = _depositToPool(path[1], amounts[1]);\n\n        _makeDistribution(path[1], amounts[0], dDeposit);\n    }\n}\n",
  "sourcePath": "/Users/ilya/Documents/Akropolis/dca-strategy-bot/contracts/modules/dca/DCAModule.sol",
  "compiler": {
    "name": "solc",
    "version": "0.5.17+commit.d19bba13.Emscripten.clang"
  },
  "schemaVersion": "3.2.3",
  "updatedAt": "2020-08-07T11:30:42.925Z",
  "devdoc": {
    "methods": {
      "approve(address,uint256)": {
        "details": "Approves another address to transfer the given token ID The zero address indicates there is no approved address. There can only be one approved address per token at a given time. Can only be called by the token owner or an approved operator.",
        "params": {
          "to": "address to be approved for the given token ID",
          "tokenId": "uint256 ID of the token to be approved"
        }
      },
      "balanceOf(address)": {
        "details": "Gets the balance of the specified address.",
        "params": {
          "owner": "address to query the balance of"
        },
        "return": "uint256 representing the amount owned by the passed address"
      },
      "baseURI()": {
        "details": "Returns the base URI set via {_setBaseURI}. This will be automatically added as a preffix in {tokenURI} to each token's URI, when they are non-empty.    * _Available since v2.5.0._"
      },
      "burn(uint256)": {
        "details": "Burns a specific ERC721 token.",
        "params": {
          "tokenId": "uint256 id of the ERC721 token to be burned."
        }
      },
      "getApproved(uint256)": {
        "details": "Gets the approved address for a token ID, or zero if no address set Reverts if the token ID does not exist.",
        "params": {
          "tokenId": "uint256 ID of the token to query the approval of"
        },
        "return": "address currently approved for the given token ID"
      },
      "initialize()": {
        "details": "Constructor function."
      },
      "initialize(string,string)": {
        "details": "Constructor function"
      },
      "isApprovedForAll(address,address)": {
        "details": "Tells whether an operator is approved by a given owner.",
        "params": {
          "operator": "operator address which you want to query the approval of",
          "owner": "owner address which you want to query the approval of"
        },
        "return": "bool whether the given operator is approved by the given owner"
      },
      "isOwner()": {
        "details": "Returns true if the caller is the current owner."
      },
      "name()": {
        "details": "Gets the token name.",
        "return": "string representing the token name"
      },
      "owner()": {
        "details": "Returns the address of the current owner."
      },
      "ownerOf(uint256)": {
        "details": "Gets the owner of the specified token ID.",
        "params": {
          "tokenId": "uint256 ID of the token to query the owner of"
        },
        "return": "address currently marked as the owner of the given token ID"
      },
      "renounceOwnership()": {
        "details": "Leaves the contract without owner. It will not be possible to call `onlyOwner` functions anymore. Can only be called by the current owner.     * > Note: Renouncing ownership will leave the contract without an owner, thereby removing any functionality that is only available to the owner."
      },
      "safeTransferFrom(address,address,uint256)": {
        "details": "Safely transfers the ownership of a given token ID to another address If the target address is a contract, it must implement {IERC721Receiver-onERC721Received}, which is called upon a safe transfer, and return the magic value `bytes4(keccak256(\"onERC721Received(address,address,uint256,bytes)\"))`; otherwise, the transfer is reverted. Requires the msg.sender to be the owner, approved, or operator",
        "params": {
          "from": "current owner of the token",
          "to": "address to receive the ownership of the given token ID",
          "tokenId": "uint256 ID of the token to be transferred"
        }
      },
      "safeTransferFrom(address,address,uint256,bytes)": {
        "details": "Safely transfers the ownership of a given token ID to another address If the target address is a contract, it must implement {IERC721Receiver-onERC721Received}, which is called upon a safe transfer, and return the magic value `bytes4(keccak256(\"onERC721Received(address,address,uint256,bytes)\"))`; otherwise, the transfer is reverted. Requires the _msgSender() to be the owner, approved, or operator",
        "params": {
          "_data": "bytes data to send along with a safe transfer check",
          "from": "current owner of the token",
          "to": "address to receive the ownership of the given token ID",
          "tokenId": "uint256 ID of the token to be transferred"
        }
      },
      "setApprovalForAll(address,bool)": {
        "details": "Sets or unsets the approval of a given operator An operator is allowed to transfer all tokens of the sender on their behalf.",
        "params": {
          "approved": "representing the status of the approval to be set",
          "to": "operator address to set the approval"
        }
      },
      "supportsInterface(bytes4)": {
        "details": "See {IERC165-supportsInterface}.     * Time complexity O(1), guaranteed to always use less than 30 000 gas."
      },
      "symbol()": {
        "details": "Gets the token symbol.",
        "return": "string representing the token symbol"
      },
      "tokenByIndex(uint256)": {
        "details": "Gets the token ID at a given index of all the tokens in this contract Reverts if the index is greater or equal to the total number of tokens.",
        "params": {
          "index": "uint256 representing the index to be accessed of the tokens list"
        },
        "return": "uint256 token ID at the given index of the tokens list"
      },
      "tokenOfOwnerByIndex(address,uint256)": {
        "details": "Gets the token ID at a given index of the tokens list of the requested owner.",
        "params": {
          "index": "uint256 representing the index to be accessed of the requested tokens list",
          "owner": "address owning the tokens list to be accessed"
        },
        "return": "uint256 token ID at the given index of the tokens list owned by the requested address"
      },
      "tokenURI(uint256)": {
        "details": "Returns the URI for a given token ID. May return an empty string.     * If the token's URI is non-empty and a base URI was set (via {_setBaseURI}), it will be added to the token ID's URI as a prefix.     * Reverts if the token ID does not exist."
      },
      "totalSupply()": {
        "details": "Gets the total amount of tokens stored by the contract.",
        "return": "uint256 representing the total amount of tokens"
      },
      "transferFrom(address,address,uint256)": {
        "details": "Transfers the ownership of a given token ID to another address. Usage of this method is discouraged, use {safeTransferFrom} whenever possible. Requires the msg.sender to be the owner, approved, or operator.",
        "params": {
          "from": "current owner of the token",
          "to": "address to receive the ownership of the given token ID",
          "tokenId": "uint256 ID of the token to be transferred"
        }
      },
      "transferOwnership(address)": {
        "details": "Transfers ownership of the contract to a new account (`newOwner`). Can only be called by the current owner."
      }
    }
  },
  "userdoc": {
    "methods": {}
  }
}