{
  "contractName": "DCAModule",
  "abi": [
    {
      "anonymous": false,
      "inputs": [
        {
          "indexed": true,
          "internalType": "address",
          "name": "owner",
          "type": "address"
        },
        {
          "indexed": true,
          "internalType": "address",
          "name": "approved",
          "type": "address"
        },
        {
          "indexed": true,
          "internalType": "uint256",
          "name": "tokenId",
          "type": "uint256"
        }
      ],
      "name": "Approval",
      "type": "event"
    },
    {
      "anonymous": false,
      "inputs": [
        {
          "indexed": true,
          "internalType": "address",
          "name": "owner",
          "type": "address"
        },
        {
          "indexed": true,
          "internalType": "address",
          "name": "operator",
          "type": "address"
        },
        {
          "indexed": false,
          "internalType": "bool",
          "name": "approved",
          "type": "bool"
        }
      ],
      "name": "ApprovalForAll",
      "type": "event"
    },
    {
      "anonymous": false,
      "inputs": [
        {
          "indexed": true,
          "internalType": "address",
          "name": "account",
          "type": "address"
        }
      ],
      "name": "DCAOperatorAdded",
      "type": "event"
    },
    {
      "anonymous": false,
      "inputs": [
        {
          "indexed": true,
          "internalType": "address",
          "name": "account",
          "type": "address"
        }
      ],
      "name": "DCAOperatorRemoved",
      "type": "event"
    },
    {
      "anonymous": false,
      "inputs": [
        {
          "indexed": false,
          "internalType": "address",
          "name": "user",
          "type": "address"
        },
        {
          "indexed": false,
          "internalType": "address",
          "name": "token",
          "type": "address"
        },
        {
          "indexed": false,
          "internalType": "uint256",
          "name": "dDeposit",
          "type": "uint256"
        },
        {
          "indexed": false,
          "internalType": "uint256",
          "name": "nDeposit",
          "type": "uint256"
        },
        {
          "indexed": false,
          "internalType": "uint256",
          "name": "newBuyAmount",
          "type": "uint256"
        }
      ],
      "name": "Deposit",
      "type": "event"
    },
    {
      "anonymous": false,
      "inputs": [
        {
          "indexed": true,
          "internalType": "address",
          "name": "previousOwner",
          "type": "address"
        },
        {
          "indexed": true,
          "internalType": "address",
          "name": "newOwner",
          "type": "address"
        }
      ],
      "name": "OwnershipTransferred",
      "type": "event"
    },
    {
      "anonymous": false,
      "inputs": [
        {
          "indexed": false,
          "internalType": "address",
          "name": "newPool",
          "type": "address"
        }
      ],
      "name": "PoolAddressChanged",
      "type": "event"
    },
    {
      "anonymous": false,
      "inputs": [
        {
          "indexed": true,
          "internalType": "address",
          "name": "from",
          "type": "address"
        },
        {
          "indexed": true,
          "internalType": "address",
          "name": "to",
          "type": "address"
        },
        {
          "indexed": true,
          "internalType": "uint256",
          "name": "tokenId",
          "type": "uint256"
        }
      ],
      "name": "Transfer",
      "type": "event"
    },
    {
      "anonymous": false,
      "inputs": [
        {
          "indexed": false,
          "internalType": "address",
          "name": "user",
          "type": "address"
        },
        {
          "indexed": false,
          "internalType": "address",
          "name": "token",
          "type": "address"
        },
        {
          "indexed": false,
          "internalType": "uint256",
          "name": "dWithdrawal",
          "type": "uint256"
        },
        {
          "indexed": false,
          "internalType": "uint256",
          "name": "nWithdrawal",
          "type": "uint256"
        }
      ],
      "name": "Withdrawal",
      "type": "event"
    },
    {
      "constant": true,
      "inputs": [],
      "name": "FEE_FOUNDATION",
      "outputs": [
        {
          "internalType": "uint256",
          "name": "",
          "type": "uint256"
        }
      ],
      "payable": false,
      "stateMutability": "view",
      "type": "function"
    },
    {
      "constant": true,
      "inputs": [
        {
          "internalType": "uint256",
          "name": "",
          "type": "uint256"
        }
      ],
      "name": "_accountOf",
      "outputs": [
        {
          "internalType": "uint256",
          "name": "buyAmount",
          "type": "uint256"
        },
        {
          "internalType": "uint256",
          "name": "nextDistributionIndex",
          "type": "uint256"
        },
        {
          "internalType": "uint256",
          "name": "lastRemovalPointIndex",
          "type": "uint256"
        }
      ],
      "payable": false,
      "stateMutability": "view",
      "type": "function"
    },
    {
      "constant": false,
      "inputs": [
        {
          "internalType": "address",
          "name": "account",
          "type": "address"
        }
      ],
      "name": "addDCAOperator",
      "outputs": [],
      "payable": false,
      "stateMutability": "nonpayable",
      "type": "function"
    },
    {
      "constant": false,
      "inputs": [
        {
          "internalType": "address",
          "name": "to",
          "type": "address"
        },
        {
          "internalType": "uint256",
          "name": "tokenId",
          "type": "uint256"
        }
      ],
      "name": "approve",
      "outputs": [],
      "payable": false,
      "stateMutability": "nonpayable",
      "type": "function"
    },
    {
      "constant": true,
      "inputs": [
        {
          "internalType": "address",
          "name": "owner",
          "type": "address"
        }
      ],
      "name": "balanceOf",
      "outputs": [
        {
          "internalType": "uint256",
          "name": "",
          "type": "uint256"
        }
      ],
      "payable": false,
      "stateMutability": "view",
      "type": "function"
    },
    {
      "constant": true,
      "inputs": [],
      "name": "baseURI",
      "outputs": [
        {
          "internalType": "string",
          "name": "",
          "type": "string"
        }
      ],
      "payable": false,
      "stateMutability": "view",
      "type": "function"
    },
    {
      "constant": false,
      "inputs": [
        {
          "internalType": "uint256",
          "name": "tokenId",
          "type": "uint256"
        }
      ],
      "name": "burn",
      "outputs": [],
      "payable": false,
      "stateMutability": "nonpayable",
      "type": "function"
    },
    {
      "constant": true,
      "inputs": [],
      "name": "deadline",
      "outputs": [
        {
          "internalType": "uint256",
          "name": "",
          "type": "uint256"
        }
      ],
      "payable": false,
      "stateMutability": "view",
      "type": "function"
    },
    {
      "constant": true,
      "inputs": [
        {
          "internalType": "uint256",
          "name": "",
          "type": "uint256"
        }
      ],
      "name": "distributions",
      "outputs": [
        {
          "internalType": "address",
          "name": "token",
          "type": "address"
        },
        {
          "internalType": "uint256",
          "name": "amountIn",
          "type": "uint256"
        },
        {
          "internalType": "uint256",
          "name": "amountOut",
          "type": "uint256"
        }
      ],
      "payable": false,
      "stateMutability": "view",
      "type": "function"
    },
    {
      "constant": true,
      "inputs": [
        {
          "internalType": "uint256",
          "name": "tokenId",
          "type": "uint256"
        }
      ],
      "name": "getApproved",
      "outputs": [
        {
          "internalType": "address",
          "name": "",
          "type": "address"
        }
      ],
      "payable": false,
      "stateMutability": "view",
      "type": "function"
    },
    {
      "constant": true,
      "inputs": [
        {
          "internalType": "string",
          "name": "module",
          "type": "string"
        }
      ],
      "name": "getModuleAddress",
      "outputs": [
        {
          "internalType": "address",
          "name": "",
          "type": "address"
        }
      ],
      "payable": false,
      "stateMutability": "view",
      "type": "function"
    },
    {
      "constant": true,
      "inputs": [],
      "name": "globalPeriodBuyAmount",
      "outputs": [
        {
          "internalType": "uint256",
          "name": "",
          "type": "uint256"
        }
      ],
      "payable": false,
      "stateMutability": "view",
      "type": "function"
    },
    {
      "constant": true,
      "inputs": [
        {
          "internalType": "address",
          "name": "owner",
          "type": "address"
        },
        {
          "internalType": "address",
          "name": "operator",
          "type": "address"
        }
      ],
      "name": "isApprovedForAll",
      "outputs": [
        {
          "internalType": "bool",
          "name": "",
          "type": "bool"
        }
      ],
      "payable": false,
      "stateMutability": "view",
      "type": "function"
    },
    {
      "constant": true,
      "inputs": [
        {
          "internalType": "address",
          "name": "account",
          "type": "address"
        }
      ],
      "name": "isDCAOperator",
      "outputs": [
        {
          "internalType": "bool",
          "name": "",
          "type": "bool"
        }
      ],
      "payable": false,
      "stateMutability": "view",
      "type": "function"
    },
    {
      "constant": true,
      "inputs": [],
      "name": "isOwner",
      "outputs": [
        {
          "internalType": "bool",
          "name": "",
          "type": "bool"
        }
      ],
      "payable": false,
      "stateMutability": "view",
      "type": "function"
    },
    {
      "constant": true,
      "inputs": [],
      "name": "isThisAStrategyForBuyingASingleToken",
      "outputs": [
        {
          "internalType": "bool",
          "name": "",
          "type": "bool"
        }
      ],
      "payable": false,
      "stateMutability": "view",
      "type": "function"
    },
    {
      "constant": true,
      "inputs": [],
      "name": "name",
      "outputs": [
        {
          "internalType": "string",
          "name": "",
          "type": "string"
        }
      ],
      "payable": false,
      "stateMutability": "view",
      "type": "function"
    },
    {
      "constant": true,
      "inputs": [],
      "name": "nextBuyTimestamp",
      "outputs": [
        {
          "internalType": "uint256",
          "name": "",
          "type": "uint256"
        }
      ],
      "payable": false,
      "stateMutability": "view",
      "type": "function"
    },
    {
      "constant": true,
      "inputs": [],
      "name": "owner",
      "outputs": [
        {
          "internalType": "address",
          "name": "",
          "type": "address"
        }
      ],
      "payable": false,
      "stateMutability": "view",
      "type": "function"
    },
    {
      "constant": true,
      "inputs": [
        {
          "internalType": "uint256",
          "name": "tokenId",
          "type": "uint256"
        }
      ],
      "name": "ownerOf",
      "outputs": [
        {
          "internalType": "address",
          "name": "",
          "type": "address"
        }
      ],
      "payable": false,
      "stateMutability": "view",
      "type": "function"
    },
    {
      "constant": true,
      "inputs": [],
      "name": "periodTimestamp",
      "outputs": [
        {
          "internalType": "uint256",
          "name": "",
          "type": "uint256"
        }
      ],
      "payable": false,
      "stateMutability": "view",
      "type": "function"
    },
    {
      "constant": true,
      "inputs": [],
      "name": "pool",
      "outputs": [
        {
          "internalType": "address",
          "name": "",
          "type": "address"
        }
      ],
      "payable": false,
      "stateMutability": "view",
      "type": "function"
    },
    {
      "constant": true,
      "inputs": [],
      "name": "protocolMaxFee",
      "outputs": [
        {
          "internalType": "uint256",
          "name": "",
          "type": "uint256"
        }
      ],
      "payable": false,
      "stateMutability": "view",
      "type": "function"
    },
    {
      "constant": true,
      "inputs": [
        {
          "internalType": "uint256",
          "name": "",
          "type": "uint256"
        }
      ],
      "name": "removeAfterDistribution",
      "outputs": [
        {
          "internalType": "uint256",
          "name": "",
          "type": "uint256"
        }
      ],
      "payable": false,
      "stateMutability": "view",
      "type": "function"
    },
    {
      "constant": false,
      "inputs": [],
      "name": "renounceDCAOperator",
      "outputs": [],
      "payable": false,
      "stateMutability": "nonpayable",
      "type": "function"
    },
    {
      "constant": false,
      "inputs": [],
      "name": "renounceOwnership",
      "outputs": [],
      "payable": false,
      "stateMutability": "nonpayable",
      "type": "function"
    },
    {
      "constant": true,
      "inputs": [],
      "name": "router",
      "outputs": [
        {
          "internalType": "address",
          "name": "",
          "type": "address"
        }
      ],
      "payable": false,
      "stateMutability": "view",
      "type": "function"
    },
    {
      "constant": false,
      "inputs": [
        {
          "internalType": "address",
          "name": "from",
          "type": "address"
        },
        {
          "internalType": "address",
          "name": "to",
          "type": "address"
        },
        {
          "internalType": "uint256",
          "name": "tokenId",
          "type": "uint256"
        }
      ],
      "name": "safeTransferFrom",
      "outputs": [],
      "payable": false,
      "stateMutability": "nonpayable",
      "type": "function"
    },
    {
      "constant": false,
      "inputs": [
        {
          "internalType": "address",
          "name": "from",
          "type": "address"
        },
        {
          "internalType": "address",
          "name": "to",
          "type": "address"
        },
        {
          "internalType": "uint256",
          "name": "tokenId",
          "type": "uint256"
        },
        {
          "internalType": "bytes",
          "name": "_data",
          "type": "bytes"
        }
      ],
      "name": "safeTransferFrom",
      "outputs": [],
      "payable": false,
      "stateMutability": "nonpayable",
      "type": "function"
    },
    {
      "constant": false,
      "inputs": [
        {
          "internalType": "address",
          "name": "to",
          "type": "address"
        },
        {
          "internalType": "bool",
          "name": "approved",
          "type": "bool"
        }
      ],
      "name": "setApprovalForAll",
      "outputs": [],
      "payable": false,
      "stateMutability": "nonpayable",
      "type": "function"
    },
    {
      "constant": false,
      "inputs": [
        {
          "internalType": "address",
          "name": "_pool",
          "type": "address"
        }
      ],
      "name": "setPool",
      "outputs": [],
      "payable": false,
      "stateMutability": "nonpayable",
      "type": "function"
    },
    {
      "constant": true,
      "inputs": [
        {
          "internalType": "bytes4",
          "name": "interfaceId",
          "type": "bytes4"
        }
      ],
      "name": "supportsInterface",
      "outputs": [
        {
          "internalType": "bool",
          "name": "",
          "type": "bool"
        }
      ],
      "payable": false,
      "stateMutability": "view",
      "type": "function"
    },
    {
      "constant": true,
      "inputs": [],
      "name": "symbol",
      "outputs": [
        {
          "internalType": "string",
          "name": "",
          "type": "string"
        }
      ],
      "payable": false,
      "stateMutability": "view",
      "type": "function"
    },
    {
      "constant": true,
      "inputs": [
        {
          "internalType": "uint256",
          "name": "index",
          "type": "uint256"
        }
      ],
      "name": "tokenByIndex",
      "outputs": [
        {
          "internalType": "uint256",
          "name": "",
          "type": "uint256"
        }
      ],
      "payable": false,
      "stateMutability": "view",
      "type": "function"
    },
    {
      "constant": true,
      "inputs": [
        {
          "internalType": "address",
          "name": "",
          "type": "address"
        }
      ],
      "name": "tokenDataOf",
      "outputs": [
        {
          "internalType": "uint256",
          "name": "decimals",
          "type": "uint256"
        },
        {
          "internalType": "address",
          "name": "pool",
          "type": "address"
        },
        {
          "internalType": "address",
          "name": "protocol",
          "type": "address"
        },
        {
          "internalType": "address",
          "name": "poolToken",
          "type": "address"
        }
      ],
      "payable": false,
      "stateMutability": "view",
      "type": "function"
    },
    {
      "constant": true,
      "inputs": [
        {
          "internalType": "address",
          "name": "owner",
          "type": "address"
        },
        {
          "internalType": "uint256",
          "name": "index",
          "type": "uint256"
        }
      ],
      "name": "tokenOfOwnerByIndex",
      "outputs": [
        {
          "internalType": "uint256",
          "name": "",
          "type": "uint256"
        }
      ],
      "payable": false,
      "stateMutability": "view",
      "type": "function"
    },
    {
      "constant": true,
      "inputs": [],
      "name": "tokenToSell",
      "outputs": [
        {
          "internalType": "address",
          "name": "",
          "type": "address"
        }
      ],
      "payable": false,
      "stateMutability": "view",
      "type": "function"
    },
    {
      "constant": true,
      "inputs": [
        {
          "internalType": "uint256",
          "name": "tokenId",
          "type": "uint256"
        }
      ],
      "name": "tokenURI",
      "outputs": [
        {
          "internalType": "string",
          "name": "",
          "type": "string"
        }
      ],
      "payable": false,
      "stateMutability": "view",
      "type": "function"
    },
    {
      "constant": true,
      "inputs": [
        {
          "internalType": "uint256",
          "name": "",
          "type": "uint256"
        }
      ],
      "name": "tokensToBuy",
      "outputs": [
        {
          "internalType": "address",
          "name": "",
          "type": "address"
        }
      ],
      "payable": false,
      "stateMutability": "view",
      "type": "function"
    },
    {
      "constant": true,
      "inputs": [],
      "name": "totalSupply",
      "outputs": [
        {
          "internalType": "uint256",
          "name": "",
          "type": "uint256"
        }
      ],
      "payable": false,
      "stateMutability": "view",
      "type": "function"
    },
    {
      "constant": false,
      "inputs": [
        {
          "internalType": "address",
          "name": "from",
          "type": "address"
        },
        {
          "internalType": "address",
          "name": "to",
          "type": "address"
        },
        {
          "internalType": "uint256",
          "name": "tokenId",
          "type": "uint256"
        }
      ],
      "name": "transferFrom",
      "outputs": [],
      "payable": false,
      "stateMutability": "nonpayable",
      "type": "function"
    },
    {
      "constant": false,
      "inputs": [
        {
          "internalType": "address",
          "name": "newOwner",
          "type": "address"
        }
      ],
      "name": "transferOwnership",
      "outputs": [],
      "payable": false,
      "stateMutability": "nonpayable",
      "type": "function"
    },
    {
      "constant": false,
      "inputs": [
        {
          "internalType": "string",
          "name": "_name",
          "type": "string"
        },
        {
          "internalType": "string",
          "name": "_symbol",
          "type": "string"
        },
        {
          "internalType": "address",
          "name": "_osPool",
          "type": "address"
        },
        {
          "internalType": "address",
          "name": "_tokenToSell",
          "type": "address"
        },
        {
          "internalType": "address[]",
          "name": "_tokensToBuy",
          "type": "address[]"
        },
        {
          "internalType": "bool",
          "name": "_isThisAStrategyForBuyingASingleToken",
          "type": "bool"
        },
        {
          "internalType": "address",
          "name": "_router",
          "type": "address"
        },
        {
          "internalType": "uint256",
          "name": "_periodTimestamp",
          "type": "uint256"
        },
        {
          "internalType": "address",
          "name": "bot",
          "type": "address"
        }
      ],
      "name": "initialize",
      "outputs": [],
      "payable": false,
      "stateMutability": "nonpayable",
      "type": "function"
    },
    {
      "constant": false,
      "inputs": [
        {
          "internalType": "string",
          "name": "name",
          "type": "string"
        },
        {
          "internalType": "string",
          "name": "symbol",
          "type": "string"
        }
      ],
      "name": "initialize",
      "outputs": [],
      "payable": false,
      "stateMutability": "nonpayable",
      "type": "function"
    },
    {
      "constant": false,
      "inputs": [],
      "name": "initialize",
      "outputs": [],
      "payable": false,
      "stateMutability": "nonpayable",
      "type": "function"
    },
    {
      "constant": false,
      "inputs": [
        {
          "internalType": "address",
          "name": "sender",
          "type": "address"
        }
      ],
      "name": "initialize",
      "outputs": [],
      "payable": false,
      "stateMutability": "nonpayable",
      "type": "function"
    },
    {
      "constant": true,
      "inputs": [
        {
          "internalType": "address",
          "name": "user",
          "type": "address"
        }
      ],
      "name": "getTokenIdByAddress",
      "outputs": [
        {
          "internalType": "uint256",
          "name": "",
          "type": "uint256"
        }
      ],
      "payable": false,
      "stateMutability": "view",
      "type": "function"
    },
    {
      "constant": true,
      "inputs": [
        {
          "internalType": "uint256",
          "name": "tokenId",
          "type": "uint256"
        },
        {
          "internalType": "address",
          "name": "token",
          "type": "address"
        }
      ],
      "name": "getAccountBalance",
      "outputs": [
        {
          "internalType": "uint256",
          "name": "",
          "type": "uint256"
        }
      ],
      "payable": false,
      "stateMutability": "view",
      "type": "function"
    },
    {
      "constant": true,
      "inputs": [
        {
          "internalType": "uint256",
          "name": "tokenId",
          "type": "uint256"
        }
      ],
      "name": "getAccountBuyAmount",
      "outputs": [
        {
          "internalType": "uint256",
          "name": "",
          "type": "uint256"
        }
      ],
      "payable": false,
      "stateMutability": "view",
      "type": "function"
    },
    {
      "constant": false,
      "inputs": [
        {
          "internalType": "address",
          "name": "token",
          "type": "address"
        },
        {
          "internalType": "uint256",
          "name": "decimals",
          "type": "uint256"
        },
        {
          "internalType": "address",
          "name": "pool",
          "type": "address"
        },
        {
          "internalType": "address",
          "name": "protocol",
          "type": "address"
        },
        {
          "internalType": "address",
          "name": "poolToken",
          "type": "address"
        }
      ],
      "name": "setTokenData",
      "outputs": [
        {
          "internalType": "bool",
          "name": "",
          "type": "bool"
        }
      ],
      "payable": false,
      "stateMutability": "nonpayable",
      "type": "function"
    },
    {
      "constant": false,
      "inputs": [
        {
          "internalType": "uint256",
          "name": "newDeadline",
          "type": "uint256"
        }
      ],
      "name": "setDeadline",
      "outputs": [],
      "payable": false,
      "stateMutability": "nonpayable",
      "type": "function"
    },
    {
      "constant": false,
      "inputs": [
        {
          "internalType": "uint256",
          "name": "maxFee",
          "type": "uint256"
        }
      ],
      "name": "setProtocolMaxFee",
      "outputs": [],
      "payable": false,
      "stateMutability": "nonpayable",
      "type": "function"
    },
    {
      "constant": false,
      "inputs": [
        {
          "internalType": "uint256",
          "name": "amount",
          "type": "uint256"
        },
        {
          "internalType": "uint256",
          "name": "newBuyAmount",
          "type": "uint256"
        }
      ],
      "name": "deposit",
      "outputs": [
        {
          "internalType": "uint256",
          "name": "",
          "type": "uint256"
        },
        {
          "internalType": "uint256",
          "name": "",
          "type": "uint256"
        }
      ],
      "payable": false,
      "stateMutability": "nonpayable",
      "type": "function"
    },
    {
      "constant": false,
      "inputs": [
        {
          "internalType": "address",
          "name": "token",
          "type": "address"
        },
        {
          "internalType": "uint256",
          "name": "amount",
          "type": "uint256"
        }
      ],
      "name": "withdraw",
      "outputs": [
        {
          "internalType": "uint256",
          "name": "",
          "type": "uint256"
        },
        {
          "internalType": "uint256",
          "name": "",
          "type": "uint256"
        }
      ],
      "payable": false,
      "stateMutability": "nonpayable",
      "type": "function"
    },
    {
      "constant": false,
      "inputs": [],
      "name": "purchase",
      "outputs": [],
      "payable": false,
      "stateMutability": "nonpayable",
      "type": "function"
    },
    {
      "constant": false,
      "inputs": [
        {
          "internalType": "address[]",
          "name": "rewardTokens",
          "type": "address[]"
        }
      ],
      "name": "_withdrawRewardsAndMakeDistribution",
      "outputs": [],
      "payable": false,
      "stateMutability": "nonpayable",
      "type": "function"
    },
    {
      "constant": false,
      "inputs": [],
      "name": "checkDistributions",
      "outputs": [],
      "payable": false,
      "stateMutability": "nonpayable",
      "type": "function"
    }
  ],
  "bytecode": "0x6080604052615b71806100136000396000f3fe608060405234801561001057600080fd5b50600436106103835760003560e01c8063715018a6116101de5780639c8456291161010f578063e2bbb158116100ad578063f3fef3a31161007c578063f3fef3a314610dea578063f887ea4014610e16578063f9cf285714610e1e578063fae43f4914610e7557610383565b8063e2bbb15814610d34578063e985e9c514610d70578063f2d36baa14610d9e578063f2fde38b14610dc457610383565b8063b88d4fde116100e9578063b88d4fde14610c05578063c4d66de814610ccb578063c727389514610cf1578063c87b56dd14610d1757610383565b80639c84562914610bb2578063a22cb46514610bcf578063b227685814610bfd57610383565b806389886e851161017c5780638f32d59b116101565780638f32d59b14610b7d578063916abf8114610b8557806395d89b4114610b8d57806397b84a0f14610b9557610383565b806389886e8514610b475780638cbab7e414610b4f5780638da5cb5b14610b7557610383565b806375c5d44b116101b857806375c5d44b14610a815780637bd203b914610ac75780637cce665b14610acf5780638129fc1c14610b3f57610383565b8063715018a6146109cb57806371dc760f146109d3578063735b3fff14610a7957610383565b806342966c68116102b85780636352211e116102565780636cd07154116102305780636cd07154146109455780636f75be9a1461094d5780637004e4261461096a57806370a08231146109a557610383565b80636352211e1461091857806364edfbf0146109355780636c0360eb1461093d57610383565b8063487e880511610292578063487e8805146107855780634cd88b76146107a25780634f6ccce7146108cf5780635e81300a146108ec57610383565b806342966c68146106fd5780634437152a1461071a5780634487d3df1461074057610383565b8063187a0ecf1161032557806323b872dd116102ff57806323b872dd1461065d57806329dcb0cf146106935780632f745c591461069b57806342842e0e146106c757610383565b8063187a0ecf14610630578063195199f6146106385780631dd3f0e91461065557610383565b8063081812fc11610361578063081812fc146105a9578063095ea7b3146105e257806316f0115b1461060e57806318160ddd1461061657610383565b806301ffc9a71461038857806305aa2b48146103db57806306fdde031461052c575b600080fd5b6103c76004803603602081101561039e57600080fd5b50357fffffffff0000000000000000000000000000000000000000000000000000000016610e7d565b604080519115158252519081900360200190f35b61052a60048036036101208110156103f257600080fd5b81019060208101813564010000000081111561040d57600080fd5b82018360208201111561041f57600080fd5b8035906020019184600183028401116401000000008311171561044157600080fd5b91939092909160208101903564010000000081111561045f57600080fd5b82018360208201111561047157600080fd5b8035906020019184600183028401116401000000008311171561049357600080fd5b919390926001600160a01b03833581169360208101359091169291906060810190604001356401000000008111156104ca57600080fd5b8201836020820111156104dc57600080fd5b803590602001918460208302840111640100000000831117156104fe57600080fd5b919350915080351515906001600160a01b03602082013581169160408101359160609091013516610eb8565b005b6105346110e5565b6040805160208082528351818301528351919283929083019185019080838360005b8381101561056e578181015183820152602001610556565b50505050905090810190601f16801561059b5780820380516001836020036101000a031916815260200191505b509250505060405180910390f35b6105c6600480360360208110156105bf57600080fd5b503561117d565b604080516001600160a01b039092168252519081900360200190f35b61052a600480360360408110156105f857600080fd5b506001600160a01b0381351690602001356111df565b6105c661131f565b61061e61132e565b60408051918252519081900360200190f35b61052a611334565b61052a6004803603602081101561064e57600080fd5b503561133f565b61052a611390565b61052a6004803603606081101561067357600080fd5b506001600160a01b038135811691602081013590911690604001356113a2565b61061e6113fe565b61061e600480360360408110156106b157600080fd5b506001600160a01b038135169060200135611405565b61052a600480360360608110156106dd57600080fd5b506001600160a01b03813581169160208101359091169060400135611485565b61052a6004803603602081101561071357600080fd5b50356114a0565b61052a6004803603602081101561073057600080fd5b50356001600160a01b03166114ef565b61075d6004803603602081101561075657600080fd5b50356115f9565b604080516001600160a01b039094168452602084019290925282820152519081900360600190f35b61052a6004803603602081101561079b57600080fd5b5035611634565b61052a600480360360408110156107b857600080fd5b8101906020810181356401000000008111156107d357600080fd5b8201836020820111156107e557600080fd5b8035906020019184600183028401116401000000008311171561080757600080fd5b91908080601f016020809104026020016040519081016040528093929190818152602001838380828437600092019190915250929594936020810193503591505064010000000081111561085a57600080fd5b82018360208201111561086c57600080fd5b8035906020019184600183028401116401000000008311171561088e57600080fd5b91908080601f016020809104026020016040519081016040528093929190818152602001838380828437600092019190915250929550611680945050505050565b61061e600480360360208110156108e557600080fd5b5035611787565b61061e6004803603604081101561090257600080fd5b50803590602001356001600160a01b03166117ed565b6105c66004803603602081101561092e57600080fd5b5035611816565b61052a61186a565b610534611a66565b6105c6611ac8565b6105c66004803603602081101561096357600080fd5b5035611ad8565b6109876004803603602081101561098057600080fd5b5035611b00565b60408051938452602084019290925282820152519081900360600190f35b61061e600480360360208110156109bb57600080fd5b50356001600160a01b0316611b25565b61052a611b8d565b6105c6600480360360208110156109e957600080fd5b810190602081018135640100000000811115610a0457600080fd5b820183602082011115610a1657600080fd5b80359060200191846001830284011164010000000083111715610a3857600080fd5b91908080601f016020809104026020016040519081016040528093929190818152602001838380828437600092019190915250929550611c48945050505050565b6103c7611e8f565b6103c7600480360360a0811015610a9757600080fd5b506001600160a01b0381358116916020810135916040820135811691606081013582169160809091013516611eb1565b61061e611fa2565b61052a60048036036020811015610ae557600080fd5b810190602081018135640100000000811115610b0057600080fd5b820183602082011115610b1257600080fd5b80359060200191846020830284011164010000000083111715610b3457600080fd5b509092509050611fa9565b61052a6121d6565b61061e6122b1565b61061e60048036036020811015610b6557600080fd5b50356001600160a01b03166122b8565b6105c66122cf565b6103c76122de565b61061e612304565b610534612310565b61061e60048036036020811015610bab57600080fd5b5035612372565b61061e60048036036020811015610bc857600080fd5b5035612385565b61052a60048036036040811015610be557600080fd5b506001600160a01b038135169060200135151561239b565b61061e6124a0565b61052a60048036036080811015610c1b57600080fd5b6001600160a01b03823581169260208101359091169160408201359190810190608081016060820135640100000000811115610c5657600080fd5b820183602082011115610c6857600080fd5b80359060200191846001830284011164010000000083111715610c8a57600080fd5b91908080601f0160208091040260200160405190810160405280939291908181526020018383808284376000920191909152509295506124a7945050505050565b61052a60048036036020811015610ce157600080fd5b50356001600160a01b03166124ff565b6103c760048036036020811015610d0757600080fd5b50356001600160a01b03166125b8565b61053460048036036020811015610d2d57600080fd5b50356125cc565b610d5760048036036040811015610d4a57600080fd5b508035906020013561279a565b6040805192835260208301919091528051918290030190f35b6103c760048036036040811015610d8657600080fd5b506001600160a01b0381358116916020013516612977565b61052a60048036036020811015610db457600080fd5b50356001600160a01b03166129a5565b61052a60048036036020811015610dda57600080fd5b50356001600160a01b03166129f4565b610d5760048036036040811015610e0057600080fd5b506001600160a01b038135169060200135612a56565b6105c6612ba5565b610e4460048036036020811015610e3457600080fd5b50356001600160a01b0316612bb5565b604080519485526001600160a01b039384166020860152918316848301529091166060830152519081900360800190f35b61061e612bec565b7fffffffff00000000000000000000000000000000000000000000000000000000811660009081526067602052604090205460ff165b919050565b600054610100900460ff1680610ed15750610ed1612bf3565b80610edf575060005460ff16155b610f1a5760405162461bcd60e51b815260040180806020018281038252602e81526020018061596b602e913960400191505060405180910390fd5b600054610100900460ff16158015610f45576000805460ff1961ff0019909116610100171660011790555b610f4e89612bf9565b610f57826124ff565b610f5f612c97565b610f676121d6565b610feb8d8d8080601f016020809104026020016040519081016040528093929190818152602001838380828437600081840152601f19601f820116905080830192505050505050508c8c8080601f01602080910402602001604051908101604052809392919081815260200183838082843760009201919091525061168092505050565b611027878780806020026020016040519081016040528093929190818152602001838360200280828437600092019190915250612d5592505050565b6101a980547fffffffffffffffffffffffff00000000000000000000000000000000000000009081166001600160a01b038b8116919091177fffffffffffffffffffffff00ffffffffffffffffffffffffffffffffffffffff167401000000000000000000000000000000000000000089151502179092556101a880549091169186169190911790556101a38390556110c04284612e5c565b6101a45580156110d6576000805461ff00191690555b50505050505050505050505050565b6101068054604080516020601f60026000196101006001881615020190951694909404938401819004810282018101909252828152606093909290918301828280156111725780601f1061114757610100808354040283529160200191611172565b820191906000526020600020905b81548152906001019060200180831161115557829003601f168201915b505050505090505b90565b600061118882612ebd565b6111c35760405162461bcd60e51b815260040180806020018281038252602c81526020018061591d602c913960400191505060405180910390fd5b506000908152609b60205260409020546001600160a01b031690565b60006111ea82611816565b9050806001600160a01b0316836001600160a01b0316141561123d5760405162461bcd60e51b81526004018080602001828103825260218152602001806159f16021913960400191505060405180910390fd5b806001600160a01b031661124f612eda565b6001600160a01b0316148061127057506112708161126b612eda565b612977565b6112ab5760405162461bcd60e51b81526004018080602001828103825260388152602001806158166038913960400191505060405180910390fd5b6000828152609b602052604080822080547fffffffffffffffffffffffff0000000000000000000000000000000000000000166001600160a01b0387811691821790925591518593918516917f8c5be1e5ebec7d5bd14f71427d1e84f3dd0314c0f7b2291e5b200ac8c7c3b92591a4505050565b6066546001600160a01b031681565b60d25490565b61133c612ede565b50565b61134f61134a612eda565b6125b8565b61138a5760405162461bcd60e51b815260040180806020018281038252603a8152602001806158c2603a913960400191505060405180910390fd5b6101a655565b6113a061139b612eda565b613021565b565b6113b36113ad612eda565b8261306a565b6113ee5760405162461bcd60e51b8152600401808060200182810382526031815260200180615a346031913960400191505060405180910390fd5b6113f9838383613106565b505050565b6101a65481565b600061141083611b25565b821061144d5760405162461bcd60e51b815260040180806020018281038252602b8152602001806156c0602b913960400191505060405180910390fd5b6001600160a01b038316600090815260d06020526040902080548390811061147157fe5b906000526020600020015490505b92915050565b6113f9838383604051806020016040528060008152506124a7565b6114ab6113ad612eda565b6114e65760405162461bcd60e51b8152600401808060200182810382526030815260200180615ada6030913960400191505060405180910390fd5b61133c81613125565b6114f76122de565b611548576040805162461bcd60e51b815260206004820181905260248201527f4f776e61626c653a2063616c6c6572206973206e6f7420746865206f776e6572604482015290519081900360640190fd5b6001600160a01b03811661158d5760405162461bcd60e51b81526004018080602001828103825260228152602001806157d16022913960400191505060405180910390fd5b606680546001600160a01b0383167fffffffffffffffffffffffff0000000000000000000000000000000000000000909116811790915560408051918252517f5b36800c27524690807962bd42525a44e68b3f860e8f9e0204f27e777d2f46059181900360200190a150565b6101a0818154811061160757fe5b60009182526020909120600390910201805460018201546002909201546001600160a01b03909116925083565b61163f61134a612eda565b61167a5760405162461bcd60e51b815260040180806020018281038252603a8152602001806158c2603a913960400191505060405180910390fd5b6101a755565b600054610100900460ff16806116995750611699612bf3565b806116a7575060005460ff16155b6116e25760405162461bcd60e51b815260040180806020018281038252602e81526020018061596b602e913960400191505060405180910390fd5b600054610100900460ff1615801561170d576000805460ff1961ff0019909116610100171660011790555b611715613137565b61171e57600080fd5b8251611732906101069060208601906155c3565b508151611747906101079060208501906155c3565b506117717f5b5e139f00000000000000000000000000000000000000000000000000000000613167565b80156113f9576000805461ff0019169055505050565b600061179161132e565b82106117ce5760405162461bcd60e51b815260040180806020018281038252602c815260200180615a65602c913960400191505060405180910390fd5b60d282815481106117db57fe5b90600052602060002001549050919050565b60009182526101aa602090815260408084206001600160a01b0393909316845291905290205490565b6000818152609a60205260408120546001600160a01b03168061147f5760405162461bcd60e51b81526004018080602001828103825260298152602001806158786029913960400191505060405180910390fd5b61187561134a612eda565b6118b05760405162461bcd60e51b815260040180806020018281038252603a8152602001806158c2603a913960400191505060405180910390fd5b6101a4544210156118f25760405162461bcd60e51b81526004018080602001828103825260238152602001806157f36023913960400191505060405180910390fd5b60006118fc61321b565b6101a9546101a55491925060009161191d916001600160a01b031690613236565b6101a8546101a95491935061194692506001600160a01b0391821691168363ffffffff61340116565b60005b6101a154811015611a1b57604080516002808252606080830184529260208301908038833950506101a95482519293506001600160a01b03169183915060009061198f57fe5b60200260200101906001600160a01b031690816001600160a01b0316815250506101a182815481106119bd57fe5b9060005260206000200160009054906101000a90046001600160a01b0316816001815181106119e857fe5b60200260200101906001600160a01b031690816001600160a01b031681525050611a128482613599565b50600101611949565b506101a3546101a454611a339163ffffffff612e5c16565b6101a4556101a05460009081526101ab60205260409020546101a554611a5e9163ffffffff61392716565b6101a5555050565b6101098054604080516020601f60026000196101006001881615020190951694909404938401819004810282018101909252828152606093909290918301828280156111725780601f1061114757610100808354040283529160200191611172565b6101a9546001600160a01b031681565b6101a18181548110611ae657fe5b6000918252602090912001546001600160a01b0316905081565b6101aa6020526000908152604090206001810154600282015460039092015490919083565b60006001600160a01b038216611b6c5760405162461bcd60e51b815260040180806020018281038252602a81526020018061584e602a913960400191505060405180910390fd5b6001600160a01b0382166000908152609c6020526040902061147f90613969565b611b956122de565b611be6576040805162461bcd60e51b815260206004820181905260248201527f4f776e61626c653a2063616c6c6572206973206e6f7420746865206f776e6572604482015290519081900360640190fd5b6033546040516000916001600160a01b0316907f8be0079c531659141344cd1fd0a4f28419497f9722a3daafe3b4186f6b6457e0908390a3603380547fffffffffffffffffffffffff0000000000000000000000000000000000000000169055565b6066546000906001600160a01b0316611ca8576040805162461bcd60e51b815260206004820152600f60248201527f4d6f64756c653a206e6f20706f6f6c0000000000000000000000000000000000604482015290519081900360640190fd5b6066546040516020602482018181528551604484015285516000946060946001600160a01b03909116938893928392606401918501908083838b5b83811015611cfb578181015183820152602001611ce3565b50505050905090810190601f168015611d285780820380516001836020036101000a031916815260200191505b5060408051601f198184030181529181526020820180517bffffffffffffffffffffffffffffffffffffffffffffffffffffffff167f693ec85e00000000000000000000000000000000000000000000000000000000178152905182519295509350839250908083835b60208310611db15780518252601f199092019160209182019101611d92565b6001836020036101000a038019825116818451168082178552505050505050905001915050600060405180830381855afa9150503d8060008114611e11576040519150601f19603f3d011682016040523d82523d6000602084013e611e16565b606091505b509150915081611e27578060208201fd5b6000818060200190516020811015611e3e57600080fd5b505190506001600160a01b038116611e875760405162461bcd60e51b8152600401808060200182810382526022815260200180615a126022913960400191505060405180910390fd5b949350505050565b6101a95474010000000000000000000000000000000000000000900460ff1681565b6000611ebe61134a612eda565b611ef95760405162461bcd60e51b815260040180806020018281038252603a8152602001806158c2603a913960400191505060405180910390fd5b50604080516080810182529485526001600160a01b0393841660208087019182529385168683019081529285166060870190815296851660009081526101ac9094529220935184559051600180850180549285167fffffffffffffffffffffffff00000000000000000000000000000000000000009384161790559151600285018054918516918316919091179055935160039093018054939092169290931691909117905590565b6101a35481565b611fb461134a612eda565b611fef5760405162461bcd60e51b815260040180806020018281038252603a8152602001806158c2603a913960400191505060405180910390fd5b60606101ac60008484600081811061200357fe5b6001600160a01b036020918202939093013583168452838101949094525060409182016000206001015491517fd212a6420000000000000000000000000000000000000000000000000000000081526004810184815260248201879052929091169263d212a64292879287928291604401908590850280828437600081840152601f19601f8201169050808301925050509350505050600060405180830381600087803b1580156120b357600080fd5b505af11580156120c7573d6000803e3d6000fd5b505050506040513d6000823e601f3d908101601f1916820160405260208110156120f057600080fd5b810190808051604051939291908464010000000082111561211057600080fd5b90830190602082018581111561212557600080fd5b825186602082028301116401000000008211171561214257600080fd5b82525081516020918201928201910280838360005b8381101561216f578181015183820152602001612157565b50505050905001604052505050905060008090505b828110156121d0576121c884848381811061219b57fe5b905060200201356001600160a01b03166101a5548484815181106121bb57fe5b602002602001015161396d565b600101612184565b50505050565b600054610100900460ff16806121ef57506121ef612bf3565b806121fd575060005460ff16155b6122385760405162461bcd60e51b815260040180806020018281038252602e81526020018061596b602e913960400191505060405180910390fd5b600054610100900460ff16158015612263576000805460ff1961ff0019909116610100171660011790555b61226b613137565b61227457600080fd5b61229d7f780e9d6300000000000000000000000000000000000000000000000000000000613167565b801561133c576000805461ff001916905550565b6101a75481565b60006122c382613a47565b6000815481106117db57fe5b6033546001600160a01b031690565b6033546000906001600160a01b03166122f5612eda565b6001600160a01b031614905090565b670de0b6b3a764000081565b6101078054604080516020601f60026000196101006001881615020190951694909404938401819004810282018101909252828152606093909290918301828280156111725780601f1061114757610100808354040283529160200191611172565b6101ab6020526000908152604090205481565b60009081526101aa602052604090206001015490565b6123a3612eda565b6001600160a01b0316826001600160a01b03161415612409576040805162461bcd60e51b815260206004820152601960248201527f4552433732313a20617070726f766520746f2063616c6c657200000000000000604482015290519081900360640190fd5b80609d6000612416612eda565b6001600160a01b03908116825260208083019390935260409182016000908120918716808252919093529120805460ff19169215159290921790915561245a612eda565b60408051841515815290516001600160a01b0392909216917f17307eab39ab6107e8899845ad3d59bd9653f200f220920489ca2b5937696c319181900360200190a35050565b6101a45481565b6124b86124b2612eda565b8361306a565b6124f35760405162461bcd60e51b8152600401808060200182810382526031815260200180615a346031913960400191505060405180910390fd5b6121d084848484613a61565b600054610100900460ff16806125185750612518612bf3565b80612526575060005460ff16155b6125615760405162461bcd60e51b815260040180806020018281038252602e81526020018061596b602e913960400191505060405180910390fd5b600054610100900460ff1615801561258c576000805460ff1961ff0019909116610100171660011790555b612595826125b8565b6125a2576125a282613ab3565b80156125b4576000805461ff00191690555b5050565b600061147f61019f8363ffffffff613afc16565b60606125d782612ebd565b6126125760405162461bcd60e51b815260040180806020018281038252602f8152602001806159c2602f913960400191505060405180910390fd5b6000828152610108602090815260409182902080548351601f60026000196101006001861615020190931692909204918201849004840281018401909452808452606093928301828280156126a85780601f1061267d576101008083540402835291602001916126a8565b820191906000526020600020905b81548152906001019060200180831161268b57829003601f168201915b505050505090508051600014156126cf575050604080516020810190915260008152610eb3565b6101098160405160200180838054600181600116156101000203166002900480156127315780601f1061270f576101008083540402835291820191612731565b820191906000526020600020905b81548152906001019060200180831161271d575b5050825160208401908083835b6020831061275d5780518252601f19909201916020918201910161273e565b6001836020036101000a03801982511681845116808217855250505050505090500192505050604051602081830303815290604052915050610eb3565b6000806127c36127a8612eda565b6101a9546001600160a01b031690308763ffffffff613b6316565b6127d36127ce612eda565b611b25565b61289c5760006127e1613cee565b6101a9549091506000908190612800906001600160a01b031688613d1b565b9150915061281383826000896001613f5b565b7f4e2ca0515ed1aef1395f66b5303bb5d6f1bf9d61a353fa53f73f8ac9973fa9f661283c612eda565b6101a954604080516001600160a01b0393841681529290911660208301528181018490526060820185905260808201899052519081900360a00190a16101a05460009384526101aa60205260409093206002019290925592509050612970565b6128a4612ede565b5060006128b76128b2612eda565b6122b8565b6101a95490915060009081906128d6906001600160a01b031688613d1b565b915091506128ff83826101aa600087815260200190815260200160002060010154896001613f5b565b7f4e2ca0515ed1aef1395f66b5303bb5d6f1bf9d61a353fa53f73f8ac9973fa9f6612928612eda565b6101a954604080516001600160a01b0393841681529290911660208301528181018490526060820185905260808201899052519081900360a00190a190935091506129709050565b9250929050565b6001600160a01b039182166000908152609d6020908152604080832093909416825291909152205460ff1690565b6129b061134a612eda565b6129eb5760405162461bcd60e51b815260040180806020018281038252603a8152602001806158c2603a913960400191505060405180910390fd5b61133c81613ab3565b6129fc6122de565b612a4d576040805162461bcd60e51b815260206004820181905260248201527f4f776e61626c653a2063616c6c6572206973206e6f7420746865206f776e6572604482015290519081900360640190fd5b61133c8161415f565b600080612a61612ede565b506000612a6f6128b2612eda565b60008181526101aa602090815260408083206001600160a01b038a168452909152902054909150841115612ad45760405162461bcd60e51b8152600401808060200182810382526033815260200180615b0a6033913960400191505060405180910390fd5b600080612ae18787613236565b6101a95491935091506001600160a01b0388811691161415612b1e5760008381526101aa6020526040812060010154612b1e918591849180613f5b565b612b40612b29612eda565b6001600160a01b038916908363ffffffff61421816565b7fc2b4a290c20fb28939d29f102514fbffd2b73c059ffba8b78250c94161d5fcc6612b69612eda565b604080516001600160a01b039283168152918a16602083015281810184905260608201859052519081900360800190a190969095509350505050565b6101a8546001600160a01b031681565b6101ac60205260009081526040902080546001820154600283015460039093015491926001600160a01b0391821692908216911684565b6101a55481565b303b1590565b600054610100900460ff1680612c125750612c12612bf3565b80612c20575060005460ff16155b612c5b5760405162461bcd60e51b815260040180806020018281038252602e81526020018061596b602e913960400191505060405180910390fd5b600054610100900460ff16158015612c86576000805460ff1961ff0019909116610100171660011790555b612c8e6143a9565b6125a2826114ef565b600054610100900460ff1680612cb05750612cb0612bf3565b80612cbe575060005460ff16155b612cf95760405162461bcd60e51b815260040180806020018281038252602e81526020018061596b602e913960400191505060405180910390fd5b600054610100900460ff16158015612d24576000805460ff1961ff0019909116610100171660011790555b612d2c614446565b61229d7f80ac58cd00000000000000000000000000000000000000000000000000000000613167565b6101a95474010000000000000000000000000000000000000000900460ff168015612d8257506001815111155b80612da957506101a95474010000000000000000000000000000000000000000900460ff16155b612de45760405162461bcd60e51b815260040180806020018281038252603e815260200180615767603e913960400191505060405180910390fd5b60005b81518110156125b4576101a1828281518110612dff57fe5b60209081029190910181015182546001808201855560009485529290932090920180547fffffffffffffffffffffffff0000000000000000000000000000000000000000166001600160a01b039093169290921790915501612de7565b600082820183811015612eb6576040805162461bcd60e51b815260206004820152601b60248201527f536166654d6174683a206164646974696f6e206f766572666c6f770000000000604482015290519081900360640190fd5b9392505050565b6000908152609a60205260409020546001600160a01b0316151590565b3390565b600080612eec6128b2612eda565b90506000612ef861321b565b60008381526101aa60205260409020600201549091505b6101a05481101561301b576101a9546101a080546001600160a01b039092169183908110612f3957fe5b60009182526020909120600390910201546001600160a01b03161415612fa55760008381526101aa6020526040812060010154612f779083906144fc565b9050612f9f84826101aa60008881526020019081526020016000206001015460006001613f5b565b50613013565b60008381526101aa602090815260408083206101a9546001600160a01b031684529091529020548211613013576000612fde82846144fc565b9050612fec8483858461455f565b50612ffe82600163ffffffff612e5c16565b60008581526101aa6020526040902060020155505b600101612f0f565b50505090565b61303361019f8263ffffffff61466716565b6040516001600160a01b038216907f0ce9bf7d79f4d20dd39c2ef94ea6ce0613fdbad453ac4b17ef981422cbc65e6890600090a250565b600061307582612ebd565b6130b05760405162461bcd60e51b815260040180806020018281038252602c8152602001806157a5602c913960400191505060405180910390fd5b60006130bb83611816565b9050806001600160a01b0316846001600160a01b031614806130f65750836001600160a01b03166130eb8461117d565b6001600160a01b0316145b80611e875750611e878185612977565b6131118383836146ce565b61311b838261482a565b6113f98282614918565b61133c61313182611816565b82614956565b60006131627f80ac58cd00000000000000000000000000000000000000000000000000000000610e7d565b905090565b7fffffffff0000000000000000000000000000000000000000000000000000000080821614156131de576040805162461bcd60e51b815260206004820152601c60248201527f4552433136353a20696e76616c696420696e7465726661636520696400000000604482015290519081900360640190fd5b7fffffffff00000000000000000000000000000000000000000000000000000000166000908152606760205260409020805460ff19166001179055565b6101a1546101a554600091613162919063ffffffff6149a016565b6001600160a01b0380831660009081526101ac602090815260408083206003015481517f70a08231000000000000000000000000000000000000000000000000000000008152306004820152915193948594859492909116926370a08231926024808301939192829003018186803b1580156132b157600080fd5b505afa1580156132c5573d6000803e3d6000fd5b505050506040513d60208110156132db57600080fd5b50516001600160a01b0380871660009081526101ac602052604081206001810154600290910154939450909290821691637bfe950c9116888861331e82826149e2565b6040518563ffffffff1660e01b815260040180856001600160a01b03166001600160a01b03168152602001846001600160a01b03166001600160a01b03168152602001838152602001828152602001945050505050602060405180830381600087803b15801561338d57600080fd5b505af11580156133a1573d6000803e3d6000fd5b505050506040513d60208110156133b757600080fd5b50516001600160a01b03871660009081526101ac6020526040812054919250906133e890839063ffffffff614a4316565b90506133f5878484614aba565b90969095509350505050565b604080516001600160a01b038481166024830152604480830185905283518084039091018152606490920183526020820180517bffffffffffffffffffffffffffffffffffffffffffffffffffffffff167f095ea7b300000000000000000000000000000000000000000000000000000000178152925182516000946060949389169392918291908083835b602083106134ac5780518252601f19909201916020918201910161348d565b6001836020036101000a0380198251168184511680821785525050505050509050019150506000604051808303816000865af19150503d806000811461350e576040519150601f19603f3d011682016040523d82523d6000602084013e613513565b606091505b5091509150818015613541575080511580613541575080806020019051602081101561353e57600080fd5b50515b613592576040805162461bcd60e51b815260206004820152601e60248201527f5472616e7366657248656c7065723a20415050524f56455f4641494c45440000604482015290519081900360640190fd5b5050505050565b6101a854604080517fd06ca61f00000000000000000000000000000000000000000000000000000000815260048101858152602482019283528451604483015284516060946001600160a01b03169363d06ca61f9388938893909291606401906020808601910280838360005b8381101561361e578181015183820152602001613606565b50505050905001935050505060006040518083038186803b15801561364257600080fd5b505afa158015613656573d6000803e3d6000fd5b505050506040513d6000823e601f3d908101601f19168201604052602081101561367f57600080fd5b810190808051604051939291908464010000000082111561369f57600080fd5b9083019060208201858111156136b457600080fd5b82518660208202830111640100000000821117156136d157600080fd5b82525081516020918201928201910280838360005b838110156136fe5781810151838201526020016136e6565b50505050905001604052505050905060606101a860009054906101000a90046001600160a01b03166001600160a01b03166338ed1739858460018151811061374257fe5b602002602001015186306101a6546040518663ffffffff1660e01b81526004018086815260200185815260200180602001846001600160a01b03166001600160a01b03168152602001838152602001828103825285818151815260200191508051906020019060200280838360005b838110156137c95781810151838201526020016137b1565b505050509050019650505050505050600060405180830381600087803b1580156137f257600080fd5b505af1158015613806573d6000803e3d6000fd5b505050506040513d6000823e601f3d908101601f19168201604052602081101561382f57600080fd5b810190808051604051939291908464010000000082111561384f57600080fd5b90830190602082018581111561386457600080fd5b825186602082028301116401000000008211171561388157600080fd5b82525081516020918201928201910280838360005b838110156138ae578181015183820152602001613896565b50505050905001604052505050905060006138f1846001815181106138cf57fe5b6020026020010151836001815181106138e457fe5b6020026020010151613d1b565b9150506135928460018151811061390457fe5b60200260200101518360008151811061391957fe5b60200260200101518361396d565b6000612eb683836040518060400160405280601e81526020017f536166654d6174683a207375627472616374696f6e206f766572666c6f770000815250614bb5565b5490565b604080516060810182526001600160a01b039485168152602081019384529081019182526101a0805460018101825560009190915290517f7980fe0f714a613298681d64b7b8ffa7b148338dd52429f307d72798d5c317c4600390920291820180547fffffffffffffffffffffffff000000000000000000000000000000000000000016919095161790935590517f7980fe0f714a613298681d64b7b8ffa7b148338dd52429f307d72798d5c317c5830155517f7980fe0f714a613298681d64b7b8ffa7b148338dd52429f307d72798d5c317c690910155565b6001600160a01b0316600090815260d06020526040902090565b613a6c848484613106565b613a7884848484614c4c565b6121d05760405162461bcd60e51b81526004018080602001828103825260328152602001806156eb6032913960400191505060405180910390fd5b613ac561019f8263ffffffff614efe16565b6040516001600160a01b038216907f1c3f027a4c907a6c9dd65947c44db0adce386f894f23033f7ff2ca693b6e2a9890600090a250565b60006001600160a01b038216613b435760405162461bcd60e51b81526004018080602001828103825260228152602001806159496022913960400191505060405180910390fd5b506001600160a01b03166000908152602091909152604090205460ff1690565b604080516001600160a01b0385811660248301528481166044830152606480830185905283518084039091018152608490920183526020820180517bffffffffffffffffffffffffffffffffffffffffffffffffffffffff167f23b872dd0000000000000000000000000000000000000000000000000000000017815292518251600094606094938a169392918291908083835b60208310613c165780518252601f199092019160209182019101613bf7565b6001836020036101000a0380198251168184511680821785525050505050509050019150506000604051808303816000865af19150503d8060008114613c78576040519150601f19603f3d011682016040523d82523d6000602084013e613c7d565b606091505b5091509150818015613cab575080511580613cab5750808060200190516020811015613ca857600080fd5b50515b613ce65760405162461bcd60e51b8152600401808060200182810382526024815260200180615ab66024913960400191505060405180910390fd5b505050505050565b6000613cfb6101a2614f7f565b6000613d086101a2613969565b9050613162613d15612eda565b82614f88565b60408051600180825281830190925260009182916060916020808301908038833950506040805160018082528183019092529293506060929150602080830190803883390190505090508582600081518110613d7357fe5b60200260200101906001600160a01b031690816001600160a01b0316815250508481600081518110613da157fe5b6020908102919091018101919091526001600160a01b0380881660008181526101ac909352604090922060010154613de19291168763ffffffff61340116565b6001600160a01b0380871660009081526101ac60209081526040808320600181015460029091015491517f562fa0df000000000000000000000000000000000000000000000000000000008152918516600483018181526060602485019081528951606486015289519697939093169563562fa0df9592948a948a94909260448301926084019187810191028083838e5b83811015613e8a578181015183820152602001613e72565b50505050905001838103825284818151815260200191508051906020019060200280838360005b83811015613ec9578181015183820152602001613eb1565b5050505090500195505050505050602060405180830381600087803b158015613ef157600080fd5b505af1158015613f05573d6000803e3d6000fd5b505050506040513d6020811015613f1b57600080fd5b50516001600160a01b03881660009081526101ac602052604081205491925090613f4c90839063ffffffff614a4316565b91989197509095505050505050565b8015613fc45760008581526101aa602090815260408083206101a9546001600160a01b03168452909152902054613f98908563ffffffff612e5c16565b60008681526101aa602090815260408083206101a9546001600160a01b03168452909152902055614023565b60008581526101aa602090815260408083206101a9546001600160a01b03168452909152902054613ffb908563ffffffff61392716565b60008681526101aa602090815260408083206101a9546001600160a01b031684529091529020555b81156140695760008581526101aa602052604090206001018290556101a554614064908390614058908663ffffffff61392716565b9063ffffffff612e5c16565b6101a5555b82156135925760008581526101aa602090815260408083206003015483526101ab9091529020546140a0908463ffffffff61392716565b60008681526101aa60209081526040808320600381015484526101ab8352818420949094556101a9546001600160a01b031683529290529081205461411290600190614106906140f6908763ffffffff6149a016565b6101a0549063ffffffff612e5c16565b9063ffffffff61392716565b60008181526101ab6020526040902054909150614135908463ffffffff612e5c16565b60008281526101ab60209081526040808320939093558882526101aa905220600301555050505050565b6001600160a01b0381166141a45760405162461bcd60e51b815260040180806020018281038252602681526020018061571d6026913960400191505060405180910390fd5b6033546040516001600160a01b038084169216907f8be0079c531659141344cd1fd0a4f28419497f9722a3daafe3b4186f6b6457e090600090a3603380547fffffffffffffffffffffffff0000000000000000000000000000000000000000166001600160a01b0392909216919091179055565b604080516001600160a01b038481166024830152604480830185905283518084039091018152606490920183526020820180517bffffffffffffffffffffffffffffffffffffffffffffffffffffffff167fa9059cbb00000000000000000000000000000000000000000000000000000000178152925182516000946060949389169392918291908083835b602083106142c35780518252601f1990920191602091820191016142a4565b6001836020036101000a0380198251168184511680821785525050505050509050019150506000604051808303816000865af19150503d8060008114614325576040519150601f19603f3d011682016040523d82523d6000602084013e61432a565b606091505b5091509150818015614358575080511580614358575080806020019051602081101561435557600080fd5b50515b613592576040805162461bcd60e51b815260206004820152601f60248201527f5472616e7366657248656c7065723a205452414e534645525f4641494c454400604482015290519081900360640190fd5b600054610100900460ff16806143c257506143c2612bf3565b806143d0575060005460ff16155b61440b5760405162461bcd60e51b815260040180806020018281038252602e81526020018061596b602e913960400191505060405180910390fd5b600054610100900460ff16158015614436576000805460ff1961ff0019909116610100171660011790555b61229d614441612eda565b614fa5565b600054610100900460ff168061445f575061445f612bf3565b8061446d575060005460ff16155b6144a85760405162461bcd60e51b815260040180806020018281038252602e81526020018061596b602e913960400191505060405180910390fd5b600054610100900460ff161580156144d3576000805460ff1961ff0019909116610100171660011790555b61229d7f01ffc9a700000000000000000000000000000000000000000000000000000000613167565b6000612eb66101a0848154811061450f57fe5b9060005260206000209060030201600101546145536101a0868154811061453257fe5b906000526020600020906003020160020154856150ae90919063ffffffff16565b9063ffffffff6149a016565b60008481526101aa602090815260408083206101a9546001600160a01b03168452909152812054614596908463ffffffff61392716565b60008681526101aa602081815260408084206101a9546001600160a01b0316855280835290842094909455888352526101a0805461461493869390929091899081106145de57fe5b600091825260208083206003909202909101546001600160a01b031683528201929092526040019020549063ffffffff612e5c16565b60008681526101aa602052604081206101a080549192918890811061463557fe5b600091825260208083206003909202909101546001600160a01b03168352820192909252604001902055949350505050565b6146718282613afc565b6146ac5760405162461bcd60e51b81526004018080602001828103825260218152602001806158a16021913960400191505060405180910390fd5b6001600160a01b0316600090815260209190915260409020805460ff19169055565b826001600160a01b03166146e182611816565b6001600160a01b0316146147265760405162461bcd60e51b81526004018080602001828103825260298152602001806159996029913960400191505060405180910390fd5b6001600160a01b03821661476b5760405162461bcd60e51b81526004018080602001828103825260248152602001806157436024913960400191505060405180910390fd5b61477481615107565b6001600160a01b0383166000908152609c602052604090206147959061515a565b6001600160a01b0382166000908152609c602052604090206147b690614f7f565b6000818152609a602052604080822080547fffffffffffffffffffffffff0000000000000000000000000000000000000000166001600160a01b0386811691821790925591518493918716917fddf252ad1be2c89b69c2b068fc378daa952ba7f163c4a11628f55a4df523b3ef91a4505050565b6001600160a01b038216600090815260d0602052604081205461485490600163ffffffff61392716565b600083815260d160205260409020549091508082146148ef576001600160a01b038416600090815260d06020526040812080548490811061489157fe5b906000526020600020015490508060d06000876001600160a01b03166001600160a01b0316815260200190815260200160002083815481106148cf57fe5b600091825260208083209091019290925591825260d19052604090208190555b6001600160a01b038416600090815260d060205260409020805490613592906000198301615641565b6001600160a01b03909116600090815260d060208181526040808420805486865260d184529185208290559282526001810183559183529091200155565b6149608282615171565b6000818152610108602052604090205460026000196101006001841615020190911604156125b4576000818152610108602052604081206125b491615665565b6000612eb683836040518060400160405280601a81526020017f536166654d6174683a206469766973696f6e206279207a65726f00000000000081525061519d565b6001600160a01b03821660009081526101ac60205260408120548190614a0f90849063ffffffff61520216565b9050611e87614a36670de0b6b3a76400006145536101a754856150ae90919063ffffffff16565b829063ffffffff612e5c16565b60008160121415614a5557508161147f565b6012821115614a9a57614a93837fffffffffffffffffffffffffffffffffffffffffffffffffffffffffffffffee8401600a0a63ffffffff6150ae16565b905061147f565b601282101561147f57614a93836012849003600a0a63ffffffff6149a016565b6001600160a01b0380841660009081526101ac602090815260408083206003015481517f70a0823100000000000000000000000000000000000000000000000000000000815230600482015291519394614b73948794614106948a94909316926370a082319260248083019392829003018186803b158015614b3b57600080fd5b505afa158015614b4f573d6000803e3d6000fd5b505050506040513d6020811015614b6557600080fd5b50519063ffffffff61392716565b905080156121d0576101a5546001600160a01b03851660009081526101ac60205260409020546121d0918691614bb090859063ffffffff614a4316565b61396d565b60008184841115614c445760405162461bcd60e51b81526004018080602001828103825283818151815260200191508051906020019080838360005b83811015614c09578181015183820152602001614bf1565b50505050905090810190601f168015614c365780820380516001836020036101000a031916815260200191505b509250505060405180910390fd5b505050900390565b6000614c60846001600160a01b0316615272565b614c6c57506001611e87565b600060606001600160a01b0386167f150b7a0200000000000000000000000000000000000000000000000000000000614ca3612eda565b89888860405160240180856001600160a01b03166001600160a01b03168152602001846001600160a01b03166001600160a01b0316815260200183815260200180602001828103825283818151815260200191508051906020019080838360005b83811015614d1c578181015183820152602001614d04565b50505050905090810190601f168015614d495780820380516001836020036101000a031916815260200191505b5060408051601f198184030181529181526020820180517bffffffffffffffffffffffffffffffffffffffffffffffffffffffff167fffffffff00000000000000000000000000000000000000000000000000000000909a16999099178952518151919890975087965094509250829150849050835b60208310614dde5780518252601f199092019160209182019101614dbf565b6001836020036101000a0380198251168184511680821785525050505050509050019150506000604051808303816000865af19150503d8060008114614e40576040519150601f19603f3d011682016040523d82523d6000602084013e614e45565b606091505b509150915081614e9657805115614e5f5780518082602001fd5b60405162461bcd60e51b81526004018080602001828103825260328152602001806156eb6032913960400191505060405180910390fd5b6000818060200190516020811015614ead57600080fd5b50517fffffffff00000000000000000000000000000000000000000000000000000000167f150b7a0200000000000000000000000000000000000000000000000000000000149350611e8792505050565b614f088282613afc565b15614f5a576040805162461bcd60e51b815260206004820152601f60248201527f526f6c65733a206163636f756e7420616c72656164792068617320726f6c6500604482015290519081900360640190fd5b6001600160a01b0316600090815260209190915260409020805460ff19166001179055565b80546001019055565b614f9282826152ab565b614f9c8282614918565b6125b4816153f4565b600054610100900460ff1680614fbe5750614fbe612bf3565b80614fcc575060005460ff16155b6150075760405162461bcd60e51b815260040180806020018281038252602e81526020018061596b602e913960400191505060405180910390fd5b600054610100900460ff16158015615032576000805460ff1961ff0019909116610100171660011790555b603380547fffffffffffffffffffffffff0000000000000000000000000000000000000000166001600160a01b0384811691909117918290556040519116906000907f8be0079c531659141344cd1fd0a4f28419497f9722a3daafe3b4186f6b6457e0908290a380156125b4576000805461ff00191690555050565b6000826150bd5750600061147f565b828202828482816150ca57fe5b0414612eb65760405162461bcd60e51b81526004018080602001828103825260218152602001806158fc6021913960400191505060405180910390fd5b6000818152609b60205260409020546001600160a01b03161561133c576000908152609b6020526040902080547fffffffffffffffffffffffff0000000000000000000000000000000000000000169055565b805461516d90600163ffffffff61392716565b9055565b61517b8282615438565b615185828261482a565b600081815260d160205260408120556125b481615527565b600081836151ec5760405162461bcd60e51b8152602060048201818152835160248401528351909283926044909101919085019080838360008315614c09578181015183820152602001614bf1565b5060008385816151f857fe5b0495945050505050565b6000816012141561521457508161147f565b601282111561525257614a93837fffffffffffffffffffffffffffffffffffffffffffffffffffffffffffffffee8401600a0a63ffffffff6149a016565b601282101561147f57614a93836012849003600a0a63ffffffff6150ae16565b6000813f7fc5d2460186f7233c927e7db2dcc703c0e500b653ca82273b7bfad8045d85a470818114801590611e87575050151592915050565b6001600160a01b038216615306576040805162461bcd60e51b815260206004820181905260248201527f4552433732313a206d696e7420746f20746865207a65726f2061646472657373604482015290519081900360640190fd5b61530f81612ebd565b15615361576040805162461bcd60e51b815260206004820152601c60248201527f4552433732313a20746f6b656e20616c7265616479206d696e74656400000000604482015290519081900360640190fd5b6000818152609a6020908152604080832080547fffffffffffffffffffffffff0000000000000000000000000000000000000000166001600160a01b0387169081179091558352609c90915290206153b890614f7f565b60405181906001600160a01b038416906000907fddf252ad1be2c89b69c2b068fc378daa952ba7f163c4a11628f55a4df523b3ef908290a45050565b60d28054600083815260d360205260408120829055600182018355919091527ff2192e1030363415d7b4fb0406540a0060e8e2fc8982f3f32289379e11fa65460155565b816001600160a01b031661544b82611816565b6001600160a01b0316146154905760405162461bcd60e51b8152600401808060200182810382526025815260200180615a916025913960400191505060405180910390fd5b61549981615107565b6001600160a01b0382166000908152609c602052604090206154ba9061515a565b6000818152609a602052604080822080547fffffffffffffffffffffffff0000000000000000000000000000000000000000169055518291906001600160a01b038516907fddf252ad1be2c89b69c2b068fc378daa952ba7f163c4a11628f55a4df523b3ef908390a45050565b60d25460009061553e90600163ffffffff61392716565b600083815260d3602052604081205460d2805493945090928490811061556057fe5b906000526020600020015490508060d2838154811061557b57fe5b600091825260208083209091019290925582815260d39091526040902082905560d28054906155ae906000198301615641565b50505060009182525060d36020526040812055565b828054600181600116156101000203166002900490600052602060002090601f016020900481019282601f1061560457805160ff1916838001178555615631565b82800160010185558215615631579182015b82811115615631578251825591602001919060010190615616565b5061563d9291506156a5565b5090565b8154818355818111156113f9576000838152602090206113f99181019083016156a5565b50805460018160011615610100020316600290046000825580601f1061568b575061133c565b601f01602090049060005260206000209081019061133c91905b61117a91905b8082111561563d57600081556001016156ab56fe455243373231456e756d657261626c653a206f776e657220696e646578206f7574206f6620626f756e64734552433732313a207472616e7366657220746f206e6f6e20455243373231526563656976657220696d706c656d656e7465724f776e61626c653a206e6577206f776e657220697320746865207a65726f20616464726573734552433732313a207472616e7366657220746f20746865207a65726f20616464726573734443414d6f64756c652d736574546f6b656e546f4275793a20612073747261746567792063616e20636f6e7461696e206f6e6c79206f6e6520746f6b656e4552433732313a206f70657261746f7220717565727920666f72206e6f6e6578697374656e7420746f6b656e4d6f64756c653a20706f6f6c20616464726573732063616e2774206265207a65726f4443414d6f64756c652d70757263686173653a206e6f742074696d6520746f206275794552433732313a20617070726f76652063616c6c6572206973206e6f74206f776e6572206e6f7220617070726f76656420666f7220616c6c4552433732313a2062616c616e636520717565727920666f7220746865207a65726f20616464726573734552433732313a206f776e657220717565727920666f72206e6f6e6578697374656e7420746f6b656e526f6c65733a206163636f756e7420646f6573206e6f74206861766520726f6c654443414f70657261746f72526f6c653a2063616c6c657220646f6573206e6f74206861766520746865204443414f70657261746f7220726f6c65536166654d6174683a206d756c7469706c69636174696f6e206f766572666c6f774552433732313a20617070726f76656420717565727920666f72206e6f6e6578697374656e7420746f6b656e526f6c65733a206163636f756e7420697320746865207a65726f2061646472657373436f6e747261637420696e7374616e63652068617320616c7265616479206265656e20696e697469616c697a65644552433732313a207472616e73666572206f6620746f6b656e2074686174206973206e6f74206f776e4552433732314d657461646174613a2055524920717565727920666f72206e6f6e6578697374656e7420746f6b656e4552433732313a20617070726f76616c20746f2063757272656e74206f776e65724d6f64756c653a20726571756573746564206d6f64756c65206e6f7420666f756e644552433732313a207472616e736665722063616c6c6572206973206e6f74206f776e6572206e6f7220617070726f766564455243373231456e756d657261626c653a20676c6f62616c20696e646578206f7574206f6620626f756e64734552433732313a206275726e206f6620746f6b656e2074686174206973206e6f74206f776e5472616e7366657248656c7065723a205452414e534645525f46524f4d5f4641494c45444552433732314275726e61626c653a2063616c6c6572206973206e6f74206f776e6572206e6f7220617070726f7665644443414d6f64756c652d77697468647261773a20776974686472617720616d6f756e7420657863656564732062616c616e6365a265627a7a7231582089c15dee31a4f2213e89736b5bfef4665812981656557bc8d6ea25b3546b802664736f6c63430005110032",
  "source": "pragma solidity ^0.5.17;\n\nimport \"@openzeppelin/contracts-ethereum-package/contracts/token/ERC20/IERC20.sol\";\nimport \"@openzeppelin/contracts-ethereum-package/contracts/token/ERC721/ERC721Full.sol\";\nimport \"@openzeppelin/contracts-ethereum-package/contracts/token/ERC721/ERC721Burnable.sol\";\nimport \"@openzeppelin/contracts-ethereum-package/contracts/drafts/Counters.sol\";\nimport \"@openzeppelin/contracts-ethereum-package/contracts/math/SafeMath.sol\";\nimport \"../../interfaces/uniswap/IUniswapV2Router02.sol\";\nimport \"../../interfaces/savings/ISavingsModule.sol\";\nimport \"../../utils/TransferHelper.sol\";\nimport \"../../utils/Normalization.sol\";\nimport \"./DCAOperatorRole.sol\";\nimport \"../../common/Module.sol\";\n\ncontract DCAModule is Module, ERC721Full, ERC721Burnable, DCAOperatorRole {\n    using SafeMath for uint256;\n    using TransferHelper for address;\n    using Normalization for uint256;\n    using Counters for Counters.Counter;\n\n    event Deposit(\n        address user,\n        address token,\n        uint256 dDeposit,\n        uint256 nDeposit,\n        uint256 newBuyAmount\n    );\n\n    event Withdrawal(\n        address user,\n        address token,\n        uint256 dWithdrawal,\n        uint256 nWithdrawal\n    );\n\n    struct Account {\n        mapping(address => uint256) balance;\n        uint256 buyAmount;\n        uint256 nextDistributionIndex;\n        uint256 lastRemovalPointIndex;\n    }\n\n    struct Distribution {\n        address token;\n        uint256 amountIn;\n        uint256 amountOut;\n    }\n\n    struct TokenData {\n        uint256 decimals;\n        address pool; // Reward\n        address protocol;\n        address poolToken;\n    }\n\n    Distribution[] public distributions;\n    address[] public tokensToBuy;\n\n    Counters.Counter private _tokenIds;\n\n    uint256 public periodTimestamp;\n    uint256 public nextBuyTimestamp;\n    uint256 public globalPeriodBuyAmount;\n    uint256 public deadline; // uniswap v2 deadline\n    uint256 public protocolMaxFee;\n\n    uint256 public constant FEE_FOUNDATION = 1e18;\n\n    address public router;\n    address public tokenToSell;\n\n    bool public isThisAStrategyForBuyingASingleToken;\n\n    mapping(uint256 => Account) public _accountOf;\n    mapping(uint256 => uint256) public removeAfterDistribution;\n    mapping(address => TokenData) public tokenDataOf;\n\n    function initialize(\n        string calldata _name,\n        string calldata _symbol,\n        address _osPool,\n        address _tokenToSell,\n        address[] calldata _tokensToBuy,\n        bool _isThisAStrategyForBuyingASingleToken,\n        address _router,\n        uint256 _periodTimestamp,\n        address bot\n    ) external initializer {\n        Module.initialize(_osPool);\n\n        DCAOperatorRole.initialize(bot);\n\n        ERC721.initialize();\n        ERC721Enumerable.initialize();\n        ERC721Metadata.initialize(_name, _symbol);\n\n        _setTokensToBuy(_tokensToBuy);\n\n        tokenToSell = _tokenToSell;\n        isThisAStrategyForBuyingASingleToken = _isThisAStrategyForBuyingASingleToken;\n        router = _router;\n        periodTimestamp = _periodTimestamp;\n        nextBuyTimestamp = now.add(_periodTimestamp);\n    }\n\n    // GETTERS\n    function getTokenIdByAddress(address user) public view returns (uint256) {\n        return _tokensOfOwner(user)[0];\n    }\n\n    function getAccountBalance(uint256 tokenId, address token)\n        public\n        view\n        returns (uint256)\n    {\n        return _accountOf[tokenId].balance[token];\n    }\n\n    function getAccountBuyAmount(uint256 tokenId)\n        public\n        view\n        returns (uint256)\n    {\n        return _accountOf[tokenId].buyAmount;\n    }\n\n    // SETTERS\n    function setTokenData(\n        address token,\n        uint256 decimals,\n        address pool,\n        address protocol,\n        address poolToken\n    ) external onlyDCAOperator returns (bool) {\n        tokenDataOf[token] = TokenData({\n            decimals: decimals,\n            pool: pool,\n            protocol: protocol,\n            poolToken: poolToken\n        });\n\n        return true;\n    }\n\n    function setDeadline(uint256 newDeadline) external onlyDCAOperator {\n        deadline = newDeadline;\n    }\n\n    function setProtocolMaxFee(uint256 maxFee) external onlyDCAOperator {\n        protocolMaxFee = maxFee;\n    }\n\n    // CORE\n    function deposit(uint256 amount, uint256 newBuyAmount)\n        external\n        returns (uint256, uint256)\n    {\n        tokenToSell.safeTransferFrom(_msgSender(), address(this), amount);\n\n        // if new user\n        if (balanceOf(_msgSender()) == 0) {\n            uint256 tokenId = _registerNewAccount();\n\n            // returns normalized and denormalized amount of pTokens (mint)\n            (uint256 nDeposit, uint256 dDeposit) = _depositToPool(\n                tokenToSell,\n                amount\n            );\n\n            _refreshAccount(tokenId, dDeposit, 0, newBuyAmount, true);\n\n            emit Deposit(\n                _msgSender(),\n                tokenToSell,\n                dDeposit,\n                nDeposit,\n                newBuyAmount\n            );\n\n            _accountOf[tokenId].nextDistributionIndex = distributions.length;\n\n            return (nDeposit, dDeposit);\n\n            // if existing user\n        } else {\n            _claimDistributions();\n\n            uint256 tokenId = getTokenIdByAddress(_msgSender());\n\n            // returns normalized and denormalized amount of pTokens (mint)\n            (uint256 nDeposit, uint256 dDeposit) = _depositToPool(\n                tokenToSell,\n                amount\n            );\n\n            _refreshAccount(\n                tokenId,\n                dDeposit,\n                _accountOf[tokenId].buyAmount,\n                newBuyAmount,\n                true\n            );\n\n            emit Deposit(\n                _msgSender(),\n                tokenToSell,\n                dDeposit,\n                nDeposit,\n                newBuyAmount\n            );\n\n            return (nDeposit, dDeposit);\n        }\n    }\n\n    function withdraw(address token, uint256 amount)\n        external\n        returns (uint256, uint256)\n    {\n        _claimDistributions();\n\n        uint256 tokenId = getTokenIdByAddress(_msgSender());\n\n        require(\n            _accountOf[tokenId].balance[token] >= amount,\n            \"DCAModule-withdraw: withdraw amount exceeds balance\"\n        );\n\n        // returns normalized and denormalized amount of pTokens (burn)\n        (uint256 nWithdrawal, uint256 dWithdrawal) = _withdrawFromPool(\n            token,\n            amount\n        );\n\n        if (token == tokenToSell) {\n            _refreshAccount(\n                tokenId,\n                dWithdrawal,\n                _accountOf[tokenId].buyAmount,\n                0,\n                false\n            );\n        }\n\n        token.safeTransfer(_msgSender(), dWithdrawal);\n\n        emit Withdrawal(_msgSender(), token, dWithdrawal, nWithdrawal);\n\n        return (nWithdrawal, dWithdrawal);\n    }\n\n    function purchase() external onlyDCAOperator {\n        require(now >= nextBuyTimestamp, \"DCAModule-purchase: not time to buy\");\n\n        uint256 dividedBuyAmount = _calculateDividedBuyAmount();\n\n        // returns normalized and denormalized amount of pTokens (burn)\n        (, uint256 dWithdrawal) = _withdrawFromPool(\n            tokenToSell,\n            globalPeriodBuyAmount\n        );\n\n        tokenToSell.safeApprove(router, dWithdrawal);\n\n        for (uint256 i = 0; i < tokensToBuy.length; i++) {\n            // uniswap path [tokenToSell, tokenToBuy]\n            address[] memory path = new address[](2);\n            path[0] = tokenToSell;\n            path[1] = tokensToBuy[i];\n\n            _swapAndCreateDistribution(dividedBuyAmount, path);\n        }\n\n        nextBuyTimestamp = nextBuyTimestamp.add(periodTimestamp);\n\n        globalPeriodBuyAmount = globalPeriodBuyAmount.sub(\n            removeAfterDistribution[distributions.length]\n        );\n    }\n\n    function _withdrawRewardsAndMakeDistribution(\n        address[] calldata rewardTokens\n    ) external onlyDCAOperator {\n        uint256[] memory rAmounts = ISavingsModule(\n            tokenDataOf[rewardTokens[0]]\n                .pool\n        )\n            .withdrawReward(rewardTokens);\n\n        for (uint256 i = 0; i < rewardTokens.length; i++) {\n            _makeDistribution(\n                rewardTokens[i],\n                globalPeriodBuyAmount,\n                rAmounts[i]\n            );\n        }\n    }\n\n    function checkDistributions() external {\n        _claimDistributions();\n    }\n\n    // PRIVATE (HELPERS)\n    function _setTokensToBuy(address[] memory tokens) private {\n        require(\n            (isThisAStrategyForBuyingASingleToken && tokens.length <= 1) ||\n                !isThisAStrategyForBuyingASingleToken,\n            \"DCAModule-setTokenToBuy: a strategy can contain only one token\"\n        );\n\n        for (uint256 i = 0; i < tokens.length; i++) {\n            tokensToBuy.push(tokens[i]);\n        }\n    }\n\n    function _refreshAccount(\n        uint256 tokenId,\n        uint256 amount,\n        uint256 oldBuyAmount,\n        uint256 newBuyAmount,\n        bool isIncrementBalance\n    ) private {\n        // inc or dec tokenToSell balance\n        if (isIncrementBalance) {\n            _accountOf[tokenId].balance[tokenToSell] = _accountOf[tokenId]\n                .balance[tokenToSell]\n                .add(amount);\n        } else {\n            _accountOf[tokenId].balance[tokenToSell] = _accountOf[tokenId]\n                .balance[tokenToSell]\n                .sub(amount);\n        }\n\n        if (newBuyAmount > 0) {\n            // update buyAmount\n            _accountOf[tokenId].buyAmount = newBuyAmount;\n\n            // remove oldBuyAmount from globalPeriodBuyAmount and add newBuyAmount\n            globalPeriodBuyAmount = globalPeriodBuyAmount.sub(oldBuyAmount).add(\n                newBuyAmount\n            );\n        }\n\n        // remove oldBuyAmount from removeAfterDistribution\n        if (oldBuyAmount > 0) {\n            removeAfterDistribution[_accountOf[tokenId]\n                .lastRemovalPointIndex] = removeAfterDistribution[_accountOf[tokenId]\n                .lastRemovalPointIndex]\n                .sub(oldBuyAmount);\n\n            // calculate new removalPoint\n            uint256 removalPoint = distributions\n                .length\n                .add(_accountOf[tokenId].balance[tokenToSell].div(newBuyAmount))\n                .sub(0x0001);\n\n            // add newBuyAmount from removeAfterDistribution\n            removeAfterDistribution[removalPoint] = removeAfterDistribution[removalPoint]\n                .add(newBuyAmount);\n\n            _accountOf[tokenId].lastRemovalPointIndex = removalPoint;\n        }\n    }\n\n    function _calculatePayout(uint256 distibutionIndex, uint256 buyAmount)\n        private\n        view\n        returns (uint256)\n    {\n        return\n            buyAmount.mul(distributions[distibutionIndex].amountOut).div(\n                distributions[distibutionIndex].amountIn\n            );\n    }\n\n    function _subBuyAmountAndUpdateBalance(\n        uint256 tokenId,\n        uint256 distibutionIndex,\n        uint256 buyAmount,\n        uint256 amount\n    ) private returns (uint256) {\n        _accountOf[tokenId].balance[tokenToSell] = _accountOf[tokenId]\n            .balance[tokenToSell]\n            .sub(buyAmount);\n\n        _accountOf[tokenId].balance[distributions[distibutionIndex]\n            .token] = _accountOf[tokenId]\n            .balance[distributions[distibutionIndex].token]\n            .add(amount);\n    }\n\n    function _calculateDividedBuyAmount() private view returns (uint256) {\n        return globalPeriodBuyAmount.div(tokensToBuy.length);\n    }\n\n    function _claimDistributions() private returns (bool) {\n        uint256 tokenId = getTokenIdByAddress(_msgSender());\n\n        uint256 dividedBuyAmount = _calculateDividedBuyAmount();\n\n        for (\n            uint256 i = _accountOf[tokenId].nextDistributionIndex;\n            i < distributions.length;\n            i++\n        ) {\n            if (distributions[i].token == tokenToSell) {\n                uint256 amount = _calculatePayout(\n                    i,\n                    _accountOf[tokenId].buyAmount\n                );\n\n                _refreshAccount(\n                    tokenId,\n                    amount,\n                    _accountOf[tokenId].buyAmount,\n                    0,\n                    true\n                );\n            } else {\n                if (\n                    _accountOf[tokenId].balance[tokenToSell] >= dividedBuyAmount\n                ) {\n                    uint256 amount = _calculatePayout(i, dividedBuyAmount);\n\n                    _subBuyAmountAndUpdateBalance(\n                        tokenId,\n                        i,\n                        dividedBuyAmount,\n                        amount\n                    );\n\n                    _accountOf[tokenId].nextDistributionIndex = i.add(0x0001);\n                }\n            }\n        }\n    }\n\n    function _registerNewAccount() private returns (uint256) {\n        _tokenIds.increment();\n\n        uint256 tokenId = _tokenIds.current();\n\n        _mint(_msgSender(), tokenId);\n\n        return tokenId;\n    }\n\n    function _calculateWithdrawalMaxNAmount(address token, uint256 amount)\n        private\n        view\n        returns (uint256)\n    {\n        // normalized withdrawal amount\n        uint256 nAmount = amount.normalize(tokenDataOf[token].decimals);\n\n        // normalized withdrawal amount + fee\n        return nAmount.add(nAmount.mul(protocolMaxFee).div(FEE_FOUNDATION));\n    }\n\n    function _makeDistribution(\n        address token,\n        uint256 amountIn,\n        uint256 amountOut\n    ) private {\n        distributions.push(\n            Distribution({\n                token: token,\n                amountIn: amountIn,\n                amountOut: amountOut\n            })\n        );\n    }\n\n    function _calculateYieldAndMakeDistribution(\n        address token,\n        uint256 prevPoolTokenBalance,\n        uint256 nWithdrawal\n    ) private {\n        uint256 yield = IERC20(tokenDataOf[token].poolToken)\n            .balanceOf(address(this))\n            .sub(prevPoolTokenBalance)\n            .sub(nWithdrawal);\n\n        if (yield > 0)\n            _makeDistribution(\n                token,\n                globalPeriodBuyAmount,\n                yield.denormalize(tokenDataOf[token].decimals)\n            );\n    }\n\n    function _depositToPool(address token, uint256 amount)\n        private\n        returns (uint256, uint256)\n    {\n        address[] memory tokens = new address[](1);\n        uint256[] memory amounts = new uint256[](1);\n\n        tokens[0] = token;\n        amounts[0] = amount;\n\n        token.safeApprove(tokenDataOf[token].pool, amount);\n\n        // normalized deposit amount (mint)\n        uint256 nDeposit = ISavingsModule(tokenDataOf[token].pool).deposit(\n            tokenDataOf[token].protocol,\n            tokens,\n            amounts\n        );\n\n        // denormalized deposit amount (mint)\n        uint256 dDeposit = nDeposit.denormalize(tokenDataOf[token].decimals);\n\n        return (nDeposit, dDeposit);\n    }\n\n    function _withdrawFromPool(address token, uint256 amount)\n        private\n        returns (uint256, uint256)\n    {\n        uint256 prevPoolTokenBalance = IERC20(tokenDataOf[token].poolToken)\n            .balanceOf(address(this));\n\n        // normalized withdrawal amount (burn)\n        uint256 nWithdrawal = ISavingsModule(tokenDataOf[token].pool).withdraw(\n            tokenDataOf[token].protocol,\n            token,\n            amount,\n            _calculateWithdrawalMaxNAmount(token, amount)\n        );\n\n        // denormalized withdrawal amount (burn)\n        uint256 dWithdrawal = nWithdrawal.denormalize(\n            tokenDataOf[token].decimals\n        );\n\n        _calculateYieldAndMakeDistribution(\n            token,\n            prevPoolTokenBalance,\n            nWithdrawal\n        );\n\n        return (nWithdrawal, dWithdrawal);\n    }\n\n    function _swapAndCreateDistribution(uint256 amountIn, address[] memory path)\n        private\n    {\n        uint256[] memory amountsOut = IUniswapV2Router02(router).getAmountsOut(\n            amountIn,\n            path\n        );\n\n        uint256[] memory amounts = IUniswapV2Router02(router)\n            .swapExactTokensForTokens(\n            amountIn,\n            amountsOut[1],\n            path,\n            address(this),\n            deadline\n        );\n\n        // returns normalized amount of pTokens (mint)\n        (, uint256 dDeposit) = _depositToPool(path[1], amounts[1]);\n\n        _makeDistribution(path[1], amounts[0], dDeposit);\n    }\n}\n",
  "sourcePath": "/Users/ilya/Documents/Akropolis/dca-strategy-bot/contracts/modules/dca/DCAModule.sol",
  "compiler": {
    "name": "solc",
    "version": "0.5.17+commit.d19bba13.Emscripten.clang"
  },
  "schemaVersion": "3.2.3",
  "updatedAt": "2020-08-07T09:48:49.640Z",
  "devdoc": {
    "methods": {
      "approve(address,uint256)": {
        "details": "Approves another address to transfer the given token ID The zero address indicates there is no approved address. There can only be one approved address per token at a given time. Can only be called by the token owner or an approved operator.",
        "params": {
          "to": "address to be approved for the given token ID",
          "tokenId": "uint256 ID of the token to be approved"
        }
      },
      "balanceOf(address)": {
        "details": "Gets the balance of the specified address.",
        "params": {
          "owner": "address to query the balance of"
        },
        "return": "uint256 representing the amount owned by the passed address"
      },
      "baseURI()": {
        "details": "Returns the base URI set via {_setBaseURI}. This will be automatically added as a preffix in {tokenURI} to each token's URI, when they are non-empty.    * _Available since v2.5.0._"
      },
      "burn(uint256)": {
        "details": "Burns a specific ERC721 token.",
        "params": {
          "tokenId": "uint256 id of the ERC721 token to be burned."
        }
      },
      "getApproved(uint256)": {
        "details": "Gets the approved address for a token ID, or zero if no address set Reverts if the token ID does not exist.",
        "params": {
          "tokenId": "uint256 ID of the token to query the approval of"
        },
        "return": "address currently approved for the given token ID"
      },
      "initialize()": {
        "details": "Constructor function."
      },
      "initialize(string,string)": {
        "details": "Constructor function"
      },
      "isApprovedForAll(address,address)": {
        "details": "Tells whether an operator is approved by a given owner.",
        "params": {
          "operator": "operator address which you want to query the approval of",
          "owner": "owner address which you want to query the approval of"
        },
        "return": "bool whether the given operator is approved by the given owner"
      },
      "isOwner()": {
        "details": "Returns true if the caller is the current owner."
      },
      "name()": {
        "details": "Gets the token name.",
        "return": "string representing the token name"
      },
      "owner()": {
        "details": "Returns the address of the current owner."
      },
      "ownerOf(uint256)": {
        "details": "Gets the owner of the specified token ID.",
        "params": {
          "tokenId": "uint256 ID of the token to query the owner of"
        },
        "return": "address currently marked as the owner of the given token ID"
      },
      "renounceOwnership()": {
        "details": "Leaves the contract without owner. It will not be possible to call `onlyOwner` functions anymore. Can only be called by the current owner.     * > Note: Renouncing ownership will leave the contract without an owner, thereby removing any functionality that is only available to the owner."
      },
      "safeTransferFrom(address,address,uint256)": {
        "details": "Safely transfers the ownership of a given token ID to another address If the target address is a contract, it must implement {IERC721Receiver-onERC721Received}, which is called upon a safe transfer, and return the magic value `bytes4(keccak256(\"onERC721Received(address,address,uint256,bytes)\"))`; otherwise, the transfer is reverted. Requires the msg.sender to be the owner, approved, or operator",
        "params": {
          "from": "current owner of the token",
          "to": "address to receive the ownership of the given token ID",
          "tokenId": "uint256 ID of the token to be transferred"
        }
      },
      "safeTransferFrom(address,address,uint256,bytes)": {
        "details": "Safely transfers the ownership of a given token ID to another address If the target address is a contract, it must implement {IERC721Receiver-onERC721Received}, which is called upon a safe transfer, and return the magic value `bytes4(keccak256(\"onERC721Received(address,address,uint256,bytes)\"))`; otherwise, the transfer is reverted. Requires the _msgSender() to be the owner, approved, or operator",
        "params": {
          "_data": "bytes data to send along with a safe transfer check",
          "from": "current owner of the token",
          "to": "address to receive the ownership of the given token ID",
          "tokenId": "uint256 ID of the token to be transferred"
        }
      },
      "setApprovalForAll(address,bool)": {
        "details": "Sets or unsets the approval of a given operator An operator is allowed to transfer all tokens of the sender on their behalf.",
        "params": {
          "approved": "representing the status of the approval to be set",
          "to": "operator address to set the approval"
        }
      },
      "supportsInterface(bytes4)": {
        "details": "See {IERC165-supportsInterface}.     * Time complexity O(1), guaranteed to always use less than 30 000 gas."
      },
      "symbol()": {
        "details": "Gets the token symbol.",
        "return": "string representing the token symbol"
      },
      "tokenByIndex(uint256)": {
        "details": "Gets the token ID at a given index of all the tokens in this contract Reverts if the index is greater or equal to the total number of tokens.",
        "params": {
          "index": "uint256 representing the index to be accessed of the tokens list"
        },
        "return": "uint256 token ID at the given index of the tokens list"
      },
      "tokenOfOwnerByIndex(address,uint256)": {
        "details": "Gets the token ID at a given index of the tokens list of the requested owner.",
        "params": {
          "index": "uint256 representing the index to be accessed of the requested tokens list",
          "owner": "address owning the tokens list to be accessed"
        },
        "return": "uint256 token ID at the given index of the tokens list owned by the requested address"
      },
      "tokenURI(uint256)": {
        "details": "Returns the URI for a given token ID. May return an empty string.     * If the token's URI is non-empty and a base URI was set (via {_setBaseURI}), it will be added to the token ID's URI as a prefix.     * Reverts if the token ID does not exist."
      },
      "totalSupply()": {
        "details": "Gets the total amount of tokens stored by the contract.",
        "return": "uint256 representing the total amount of tokens"
      },
      "transferFrom(address,address,uint256)": {
        "details": "Transfers the ownership of a given token ID to another address. Usage of this method is discouraged, use {safeTransferFrom} whenever possible. Requires the msg.sender to be the owner, approved, or operator.",
        "params": {
          "from": "current owner of the token",
          "to": "address to receive the ownership of the given token ID",
          "tokenId": "uint256 ID of the token to be transferred"
        }
      },
      "transferOwnership(address)": {
        "details": "Transfers ownership of the contract to a new account (`newOwner`). Can only be called by the current owner."
      }
    }
  },
  "userdoc": {
    "methods": {}
  }
}