{
  "contractName": "DCAModule",
  "abi": [
    {
      "anonymous": false,
      "inputs": [
        {
          "indexed": true,
          "internalType": "address",
          "name": "owner",
          "type": "address"
        },
        {
          "indexed": true,
          "internalType": "address",
          "name": "approved",
          "type": "address"
        },
        {
          "indexed": true,
          "internalType": "uint256",
          "name": "tokenId",
          "type": "uint256"
        }
      ],
      "name": "Approval",
      "type": "event"
    },
    {
      "anonymous": false,
      "inputs": [
        {
          "indexed": true,
          "internalType": "address",
          "name": "owner",
          "type": "address"
        },
        {
          "indexed": true,
          "internalType": "address",
          "name": "operator",
          "type": "address"
        },
        {
          "indexed": false,
          "internalType": "bool",
          "name": "approved",
          "type": "bool"
        }
      ],
      "name": "ApprovalForAll",
      "type": "event"
    },
    {
      "anonymous": false,
      "inputs": [
        {
          "indexed": true,
          "internalType": "address",
          "name": "account",
          "type": "address"
        }
      ],
      "name": "DCAOperatorAdded",
      "type": "event"
    },
    {
      "anonymous": false,
      "inputs": [
        {
          "indexed": true,
          "internalType": "address",
          "name": "account",
          "type": "address"
        }
      ],
      "name": "DCAOperatorRemoved",
      "type": "event"
    },
    {
      "anonymous": false,
      "inputs": [
        {
          "indexed": false,
          "internalType": "address",
          "name": "user",
          "type": "address"
        },
        {
          "indexed": false,
          "internalType": "address",
          "name": "token",
          "type": "address"
        },
        {
          "indexed": false,
          "internalType": "uint256",
          "name": "amount",
          "type": "uint256"
        },
        {
          "indexed": false,
          "internalType": "uint256",
          "name": "newBuyAmount",
          "type": "uint256"
        }
      ],
      "name": "Deposit",
      "type": "event"
    },
    {
      "anonymous": false,
      "inputs": [
        {
          "indexed": true,
          "internalType": "address",
          "name": "previousOwner",
          "type": "address"
        },
        {
          "indexed": true,
          "internalType": "address",
          "name": "newOwner",
          "type": "address"
        }
      ],
      "name": "OwnershipTransferred",
      "type": "event"
    },
    {
      "anonymous": false,
      "inputs": [
        {
          "indexed": false,
          "internalType": "address",
          "name": "newPool",
          "type": "address"
        }
      ],
      "name": "PoolAddressChanged",
      "type": "event"
    },
    {
      "anonymous": false,
      "inputs": [
        {
          "indexed": true,
          "internalType": "address",
          "name": "from",
          "type": "address"
        },
        {
          "indexed": true,
          "internalType": "address",
          "name": "to",
          "type": "address"
        },
        {
          "indexed": true,
          "internalType": "uint256",
          "name": "tokenId",
          "type": "uint256"
        }
      ],
      "name": "Transfer",
      "type": "event"
    },
    {
      "anonymous": false,
      "inputs": [
        {
          "indexed": false,
          "internalType": "address",
          "name": "user",
          "type": "address"
        },
        {
          "indexed": false,
          "internalType": "address",
          "name": "token",
          "type": "address"
        },
        {
          "indexed": false,
          "internalType": "uint256",
          "name": "amount",
          "type": "uint256"
        }
      ],
      "name": "Withdrawal",
      "type": "event"
    },
    {
      "constant": true,
      "inputs": [
        {
          "internalType": "uint256",
          "name": "",
          "type": "uint256"
        }
      ],
      "name": "_accountOf",
      "outputs": [
        {
          "internalType": "uint256",
          "name": "buyAmount",
          "type": "uint256"
        },
        {
          "internalType": "uint256",
          "name": "nextDistributionIndex",
          "type": "uint256"
        },
        {
          "internalType": "uint256",
          "name": "lastRemovalPointIndex",
          "type": "uint256"
        }
      ],
      "payable": false,
      "stateMutability": "view",
      "type": "function"
    },
    {
      "constant": false,
      "inputs": [
        {
          "internalType": "address",
          "name": "account",
          "type": "address"
        }
      ],
      "name": "addDCAOperator",
      "outputs": [],
      "payable": false,
      "stateMutability": "nonpayable",
      "type": "function"
    },
    {
      "constant": false,
      "inputs": [
        {
          "internalType": "address",
          "name": "to",
          "type": "address"
        },
        {
          "internalType": "uint256",
          "name": "tokenId",
          "type": "uint256"
        }
      ],
      "name": "approve",
      "outputs": [],
      "payable": false,
      "stateMutability": "nonpayable",
      "type": "function"
    },
    {
      "constant": true,
      "inputs": [
        {
          "internalType": "address",
          "name": "owner",
          "type": "address"
        }
      ],
      "name": "balanceOf",
      "outputs": [
        {
          "internalType": "uint256",
          "name": "",
          "type": "uint256"
        }
      ],
      "payable": false,
      "stateMutability": "view",
      "type": "function"
    },
    {
      "constant": true,
      "inputs": [],
      "name": "baseURI",
      "outputs": [
        {
          "internalType": "string",
          "name": "",
          "type": "string"
        }
      ],
      "payable": false,
      "stateMutability": "view",
      "type": "function"
    },
    {
      "constant": false,
      "inputs": [
        {
          "internalType": "uint256",
          "name": "tokenId",
          "type": "uint256"
        }
      ],
      "name": "burn",
      "outputs": [],
      "payable": false,
      "stateMutability": "nonpayable",
      "type": "function"
    },
    {
      "constant": true,
      "inputs": [],
      "name": "dcaFullBalanceHelper",
      "outputs": [
        {
          "internalType": "address",
          "name": "",
          "type": "address"
        }
      ],
      "payable": false,
      "stateMutability": "view",
      "type": "function"
    },
    {
      "constant": true,
      "inputs": [],
      "name": "deadline",
      "outputs": [
        {
          "internalType": "uint256",
          "name": "",
          "type": "uint256"
        }
      ],
      "payable": false,
      "stateMutability": "view",
      "type": "function"
    },
    {
      "constant": true,
      "inputs": [
        {
          "internalType": "uint256",
          "name": "",
          "type": "uint256"
        }
      ],
      "name": "distributions",
      "outputs": [
        {
          "internalType": "address",
          "name": "token",
          "type": "address"
        },
        {
          "internalType": "uint256",
          "name": "amountIn",
          "type": "uint256"
        },
        {
          "internalType": "uint256",
          "name": "amountOut",
          "type": "uint256"
        }
      ],
      "payable": false,
      "stateMutability": "view",
      "type": "function"
    },
    {
      "constant": true,
      "inputs": [
        {
          "internalType": "uint256",
          "name": "tokenId",
          "type": "uint256"
        }
      ],
      "name": "getApproved",
      "outputs": [
        {
          "internalType": "address",
          "name": "",
          "type": "address"
        }
      ],
      "payable": false,
      "stateMutability": "view",
      "type": "function"
    },
    {
      "constant": true,
      "inputs": [
        {
          "internalType": "string",
          "name": "module",
          "type": "string"
        }
      ],
      "name": "getModuleAddress",
      "outputs": [
        {
          "internalType": "address",
          "name": "",
          "type": "address"
        }
      ],
      "payable": false,
      "stateMutability": "view",
      "type": "function"
    },
    {
      "constant": true,
      "inputs": [],
      "name": "globalPeriodBuyAmount",
      "outputs": [
        {
          "internalType": "uint256",
          "name": "",
          "type": "uint256"
        }
      ],
      "payable": false,
      "stateMutability": "view",
      "type": "function"
    },
    {
      "constant": true,
      "inputs": [
        {
          "internalType": "address",
          "name": "owner",
          "type": "address"
        },
        {
          "internalType": "address",
          "name": "operator",
          "type": "address"
        }
      ],
      "name": "isApprovedForAll",
      "outputs": [
        {
          "internalType": "bool",
          "name": "",
          "type": "bool"
        }
      ],
      "payable": false,
      "stateMutability": "view",
      "type": "function"
    },
    {
      "constant": true,
      "inputs": [
        {
          "internalType": "address",
          "name": "account",
          "type": "address"
        }
      ],
      "name": "isDCAOperator",
      "outputs": [
        {
          "internalType": "bool",
          "name": "",
          "type": "bool"
        }
      ],
      "payable": false,
      "stateMutability": "view",
      "type": "function"
    },
    {
      "constant": true,
      "inputs": [],
      "name": "isOwner",
      "outputs": [
        {
          "internalType": "bool",
          "name": "",
          "type": "bool"
        }
      ],
      "payable": false,
      "stateMutability": "view",
      "type": "function"
    },
    {
      "constant": true,
      "inputs": [],
      "name": "name",
      "outputs": [
        {
          "internalType": "string",
          "name": "",
          "type": "string"
        }
      ],
      "payable": false,
      "stateMutability": "view",
      "type": "function"
    },
    {
      "constant": true,
      "inputs": [],
      "name": "nextBuyTimestamp",
      "outputs": [
        {
          "internalType": "uint256",
          "name": "",
          "type": "uint256"
        }
      ],
      "payable": false,
      "stateMutability": "view",
      "type": "function"
    },
    {
      "constant": true,
      "inputs": [],
      "name": "owner",
      "outputs": [
        {
          "internalType": "address",
          "name": "",
          "type": "address"
        }
      ],
      "payable": false,
      "stateMutability": "view",
      "type": "function"
    },
    {
      "constant": true,
      "inputs": [
        {
          "internalType": "uint256",
          "name": "tokenId",
          "type": "uint256"
        }
      ],
      "name": "ownerOf",
      "outputs": [
        {
          "internalType": "address",
          "name": "",
          "type": "address"
        }
      ],
      "payable": false,
      "stateMutability": "view",
      "type": "function"
    },
    {
      "constant": true,
      "inputs": [],
      "name": "periodTimestamp",
      "outputs": [
        {
          "internalType": "uint256",
          "name": "",
          "type": "uint256"
        }
      ],
      "payable": false,
      "stateMutability": "view",
      "type": "function"
    },
    {
      "constant": true,
      "inputs": [],
      "name": "pool",
      "outputs": [
        {
          "internalType": "address",
          "name": "",
          "type": "address"
        }
      ],
      "payable": false,
      "stateMutability": "view",
      "type": "function"
    },
    {
      "constant": true,
      "inputs": [
        {
          "internalType": "address",
          "name": "",
          "type": "address"
        }
      ],
      "name": "prevPoolTokenBalanceOf",
      "outputs": [
        {
          "internalType": "uint256",
          "name": "",
          "type": "uint256"
        }
      ],
      "payable": false,
      "stateMutability": "view",
      "type": "function"
    },
    {
      "constant": true,
      "inputs": [],
      "name": "protocolMaxFee",
      "outputs": [
        {
          "internalType": "uint256",
          "name": "",
          "type": "uint256"
        }
      ],
      "payable": false,
      "stateMutability": "view",
      "type": "function"
    },
    {
      "constant": true,
      "inputs": [
        {
          "internalType": "uint256",
          "name": "",
          "type": "uint256"
        }
      ],
      "name": "removeAfterDistribution",
      "outputs": [
        {
          "internalType": "uint256",
          "name": "",
          "type": "uint256"
        }
      ],
      "payable": false,
      "stateMutability": "view",
      "type": "function"
    },
    {
      "constant": false,
      "inputs": [],
      "name": "renounceDCAOperator",
      "outputs": [],
      "payable": false,
      "stateMutability": "nonpayable",
      "type": "function"
    },
    {
      "constant": false,
      "inputs": [],
      "name": "renounceOwnership",
      "outputs": [],
      "payable": false,
      "stateMutability": "nonpayable",
      "type": "function"
    },
    {
      "constant": true,
      "inputs": [
        {
          "internalType": "uint256",
          "name": "",
          "type": "uint256"
        }
      ],
      "name": "rewardPools",
      "outputs": [
        {
          "internalType": "address",
          "name": "",
          "type": "address"
        }
      ],
      "payable": false,
      "stateMutability": "view",
      "type": "function"
    },
    {
      "constant": true,
      "inputs": [],
      "name": "router",
      "outputs": [
        {
          "internalType": "address",
          "name": "",
          "type": "address"
        }
      ],
      "payable": false,
      "stateMutability": "view",
      "type": "function"
    },
    {
      "constant": false,
      "inputs": [
        {
          "internalType": "address",
          "name": "from",
          "type": "address"
        },
        {
          "internalType": "address",
          "name": "to",
          "type": "address"
        },
        {
          "internalType": "uint256",
          "name": "tokenId",
          "type": "uint256"
        }
      ],
      "name": "safeTransferFrom",
      "outputs": [],
      "payable": false,
      "stateMutability": "nonpayable",
      "type": "function"
    },
    {
      "constant": false,
      "inputs": [
        {
          "internalType": "address",
          "name": "from",
          "type": "address"
        },
        {
          "internalType": "address",
          "name": "to",
          "type": "address"
        },
        {
          "internalType": "uint256",
          "name": "tokenId",
          "type": "uint256"
        },
        {
          "internalType": "bytes",
          "name": "_data",
          "type": "bytes"
        }
      ],
      "name": "safeTransferFrom",
      "outputs": [],
      "payable": false,
      "stateMutability": "nonpayable",
      "type": "function"
    },
    {
      "constant": false,
      "inputs": [
        {
          "internalType": "address",
          "name": "to",
          "type": "address"
        },
        {
          "internalType": "bool",
          "name": "approved",
          "type": "bool"
        }
      ],
      "name": "setApprovalForAll",
      "outputs": [],
      "payable": false,
      "stateMutability": "nonpayable",
      "type": "function"
    },
    {
      "constant": false,
      "inputs": [
        {
          "internalType": "address",
          "name": "_pool",
          "type": "address"
        }
      ],
      "name": "setPool",
      "outputs": [],
      "payable": false,
      "stateMutability": "nonpayable",
      "type": "function"
    },
    {
      "constant": true,
      "inputs": [
        {
          "internalType": "bytes4",
          "name": "interfaceId",
          "type": "bytes4"
        }
      ],
      "name": "supportsInterface",
      "outputs": [
        {
          "internalType": "bool",
          "name": "",
          "type": "bool"
        }
      ],
      "payable": false,
      "stateMutability": "view",
      "type": "function"
    },
    {
      "constant": true,
      "inputs": [],
      "name": "symbol",
      "outputs": [
        {
          "internalType": "string",
          "name": "",
          "type": "string"
        }
      ],
      "payable": false,
      "stateMutability": "view",
      "type": "function"
    },
    {
      "constant": true,
      "inputs": [
        {
          "internalType": "uint256",
          "name": "index",
          "type": "uint256"
        }
      ],
      "name": "tokenByIndex",
      "outputs": [
        {
          "internalType": "uint256",
          "name": "",
          "type": "uint256"
        }
      ],
      "payable": false,
      "stateMutability": "view",
      "type": "function"
    },
    {
      "constant": true,
      "inputs": [
        {
          "internalType": "address",
          "name": "",
          "type": "address"
        }
      ],
      "name": "tokenDataOf",
      "outputs": [
        {
          "internalType": "uint256",
          "name": "decimals",
          "type": "uint256"
        },
        {
          "internalType": "address",
          "name": "pool",
          "type": "address"
        },
        {
          "internalType": "address",
          "name": "protocol",
          "type": "address"
        },
        {
          "internalType": "address",
          "name": "poolToken",
          "type": "address"
        }
      ],
      "payable": false,
      "stateMutability": "view",
      "type": "function"
    },
    {
      "constant": true,
      "inputs": [
        {
          "internalType": "address",
          "name": "owner",
          "type": "address"
        },
        {
          "internalType": "uint256",
          "name": "index",
          "type": "uint256"
        }
      ],
      "name": "tokenOfOwnerByIndex",
      "outputs": [
        {
          "internalType": "uint256",
          "name": "",
          "type": "uint256"
        }
      ],
      "payable": false,
      "stateMutability": "view",
      "type": "function"
    },
    {
      "constant": true,
      "inputs": [],
      "name": "tokenToSell",
      "outputs": [
        {
          "internalType": "address",
          "name": "",
          "type": "address"
        }
      ],
      "payable": false,
      "stateMutability": "view",
      "type": "function"
    },
    {
      "constant": true,
      "inputs": [
        {
          "internalType": "uint256",
          "name": "tokenId",
          "type": "uint256"
        }
      ],
      "name": "tokenURI",
      "outputs": [
        {
          "internalType": "string",
          "name": "",
          "type": "string"
        }
      ],
      "payable": false,
      "stateMutability": "view",
      "type": "function"
    },
    {
      "constant": true,
      "inputs": [
        {
          "internalType": "uint256",
          "name": "",
          "type": "uint256"
        }
      ],
      "name": "tokensToBuy",
      "outputs": [
        {
          "internalType": "address",
          "name": "",
          "type": "address"
        }
      ],
      "payable": false,
      "stateMutability": "view",
      "type": "function"
    },
    {
      "constant": true,
      "inputs": [],
      "name": "totalSupply",
      "outputs": [
        {
          "internalType": "uint256",
          "name": "",
          "type": "uint256"
        }
      ],
      "payable": false,
      "stateMutability": "view",
      "type": "function"
    },
    {
      "constant": false,
      "inputs": [
        {
          "internalType": "address",
          "name": "from",
          "type": "address"
        },
        {
          "internalType": "address",
          "name": "to",
          "type": "address"
        },
        {
          "internalType": "uint256",
          "name": "tokenId",
          "type": "uint256"
        }
      ],
      "name": "transferFrom",
      "outputs": [],
      "payable": false,
      "stateMutability": "nonpayable",
      "type": "function"
    },
    {
      "constant": false,
      "inputs": [
        {
          "internalType": "address",
          "name": "newOwner",
          "type": "address"
        }
      ],
      "name": "transferOwnership",
      "outputs": [],
      "payable": false,
      "stateMutability": "nonpayable",
      "type": "function"
    },
    {
      "constant": false,
      "inputs": [
        {
          "internalType": "string",
          "name": "name",
          "type": "string"
        },
        {
          "internalType": "string",
          "name": "symbol",
          "type": "string"
        }
      ],
      "name": "initialize",
      "outputs": [],
      "payable": false,
      "stateMutability": "nonpayable",
      "type": "function"
    },
    {
      "constant": false,
      "inputs": [],
      "name": "initialize",
      "outputs": [],
      "payable": false,
      "stateMutability": "nonpayable",
      "type": "function"
    },
    {
      "constant": false,
      "inputs": [
        {
          "internalType": "string",
          "name": "_name",
          "type": "string"
        },
        {
          "internalType": "string",
          "name": "_symbol",
          "type": "string"
        },
        {
          "internalType": "address",
          "name": "_osPool",
          "type": "address"
        },
        {
          "internalType": "address",
          "name": "_tokenToSell",
          "type": "address"
        },
        {
          "internalType": "address[]",
          "name": "_tokensToBuy",
          "type": "address[]"
        },
        {
          "internalType": "address",
          "name": "_router",
          "type": "address"
        },
        {
          "internalType": "uint256",
          "name": "_periodTimestamp",
          "type": "uint256"
        },
        {
          "internalType": "address",
          "name": "bot",
          "type": "address"
        }
      ],
      "name": "initialize",
      "outputs": [],
      "payable": false,
      "stateMutability": "nonpayable",
      "type": "function"
    },
    {
      "constant": false,
      "inputs": [
        {
          "internalType": "address",
          "name": "sender",
          "type": "address"
        }
      ],
      "name": "initialize",
      "outputs": [],
      "payable": false,
      "stateMutability": "nonpayable",
      "type": "function"
    },
    {
      "constant": true,
      "inputs": [
        {
          "internalType": "address",
          "name": "userAddress",
          "type": "address"
        }
      ],
      "name": "getTokenIdByAddress",
      "outputs": [
        {
          "internalType": "uint256",
          "name": "",
          "type": "uint256"
        }
      ],
      "payable": false,
      "stateMutability": "view",
      "type": "function"
    },
    {
      "constant": true,
      "inputs": [
        {
          "internalType": "uint256",
          "name": "tokenId",
          "type": "uint256"
        }
      ],
      "name": "getAccountBuyAmount",
      "outputs": [
        {
          "internalType": "uint256",
          "name": "",
          "type": "uint256"
        }
      ],
      "payable": false,
      "stateMutability": "view",
      "type": "function"
    },
    {
      "constant": false,
      "inputs": [
        {
          "internalType": "address",
          "name": "account",
          "type": "address"
        },
        {
          "internalType": "address[]",
          "name": "tokens",
          "type": "address[]"
        }
      ],
      "name": "getFullAccountBalances",
      "outputs": [
        {
          "internalType": "uint256[]",
          "name": "",
          "type": "uint256[]"
        }
      ],
      "payable": false,
      "stateMutability": "nonpayable",
      "type": "function"
    },
    {
      "constant": false,
      "inputs": [
        {
          "internalType": "address",
          "name": "account",
          "type": "address"
        }
      ],
      "name": "getFullAccountBalances",
      "outputs": [
        {
          "internalType": "address[]",
          "name": "",
          "type": "address[]"
        },
        {
          "internalType": "uint256[]",
          "name": "",
          "type": "uint256[]"
        }
      ],
      "payable": false,
      "stateMutability": "nonpayable",
      "type": "function"
    },
    {
      "constant": false,
      "inputs": [
        {
          "internalType": "address",
          "name": "token",
          "type": "address"
        },
        {
          "internalType": "uint256",
          "name": "decimals",
          "type": "uint256"
        },
        {
          "internalType": "address",
          "name": "pool",
          "type": "address"
        },
        {
          "internalType": "address",
          "name": "protocol",
          "type": "address"
        },
        {
          "internalType": "address",
          "name": "poolToken",
          "type": "address"
        }
      ],
      "name": "setTokenData",
      "outputs": [
        {
          "internalType": "bool",
          "name": "",
          "type": "bool"
        }
      ],
      "payable": false,
      "stateMutability": "nonpayable",
      "type": "function"
    },
    {
      "constant": false,
      "inputs": [
        {
          "internalType": "uint256",
          "name": "newDeadline",
          "type": "uint256"
        }
      ],
      "name": "setDeadline",
      "outputs": [],
      "payable": false,
      "stateMutability": "nonpayable",
      "type": "function"
    },
    {
      "constant": false,
      "inputs": [
        {
          "internalType": "uint256",
          "name": "maxFee",
          "type": "uint256"
        }
      ],
      "name": "setProtocolMaxFee",
      "outputs": [],
      "payable": false,
      "stateMutability": "nonpayable",
      "type": "function"
    },
    {
      "constant": false,
      "inputs": [
        {
          "internalType": "uint256",
          "name": "amount",
          "type": "uint256"
        },
        {
          "internalType": "uint256",
          "name": "newBuyAmount",
          "type": "uint256"
        }
      ],
      "name": "deposit",
      "outputs": [
        {
          "internalType": "uint256",
          "name": "",
          "type": "uint256"
        },
        {
          "internalType": "uint256",
          "name": "",
          "type": "uint256"
        }
      ],
      "payable": false,
      "stateMutability": "nonpayable",
      "type": "function"
    },
    {
      "constant": false,
      "inputs": [
        {
          "internalType": "address",
          "name": "token",
          "type": "address"
        },
        {
          "internalType": "uint256",
          "name": "amount",
          "type": "uint256"
        }
      ],
      "name": "withdraw",
      "outputs": [
        {
          "internalType": "uint256",
          "name": "",
          "type": "uint256"
        },
        {
          "internalType": "uint256",
          "name": "",
          "type": "uint256"
        }
      ],
      "payable": false,
      "stateMutability": "nonpayable",
      "type": "function"
    },
    {
      "constant": false,
      "inputs": [],
      "name": "purchase",
      "outputs": [],
      "payable": false,
      "stateMutability": "nonpayable",
      "type": "function"
    }
  ],
  "bytecode": "0x6080604052615fb7806100136000396000f3fe608060405234801561001057600080fd5b50600436106103835760003560e01c8063715018a6116101de578063b22768581161010f578063e985e9c5116100ad578063f3fef3a31161007c578063f3fef3a314610f08578063f887ea4014610f34578063f9cf285714610f3c578063fae43f4914610f9357610383565b8063e985e9c514610e68578063eebbf1a714610e96578063f2d36baa14610ebc578063f2fde38b14610ee257610383565b8063c7273895116100e9578063c727389514610d2a578063c87b56dd14610d50578063e0b5417314610d6d578063e2bbb15814610e2c57610383565b8063b227685814610c36578063b88d4fde14610c3e578063c4d66de814610d0457610383565b80638cbab7e41161017c57806395d89b411161015657806395d89b4114610bc657806397b84a0f14610bce5780639c84562914610beb578063a22cb46514610c0857610383565b80638cbab7e414610b905780638da5cb5b14610bb65780638f32d59b14610bbe57610383565b80637bd203b9116101b85780637bd203b914610a315780638129fc1c14610a3957806389886e8514610a4157806389d7ac3514610a4957610383565b8063715018a61461093d57806371dc760f1461094557806375c5d44b146109eb57610383565b80634437152a116102b85780636352211e116102565780636cd07154116102305780636cd07154146108b75780636f75be9a146108bf5780637004e426146108dc57806370a082311461091757610383565b80636352211e1461088a57806364edfbf0146108a75780636c0360eb146108af57610383565b8063487e880511610292578063487e88051461071b5780634cd88b76146107385780634f6ccce71461086557806360cd9e251461088257610383565b80634437152a146106935780634487d3df146106b957806346abf391146106fe57610383565b8063195199f61161032557806329dcb0cf116102ff57806329dcb0cf1461060c5780632f745c591461061457806342842e0e1461064057806342966c681461067657610383565b8063195199f6146105b15780631dd3f0e9146105ce57806323b872dd146105d657610383565b8063081812fc11610361578063081812fc14610528578063095ea7b31461056157806316f0115b1461058f57806318160ddd1461059757610383565b806301ffc9a7146103885780630512c83c146103db57806306fdde03146104ab575b600080fd5b6103c76004803603602081101561039e57600080fd5b50357fffffffff0000000000000000000000000000000000000000000000000000000016610f9b565b604080519115158252519081900360200190f35b61045b600480360360408110156103f157600080fd5b6001600160a01b03823516919081019060408101602082013564010000000081111561041c57600080fd5b82018360208201111561042e57600080fd5b8035906020019184602083028401116401000000008311171561045057600080fd5b509092509050610fd6565b60408051602080825283518183015283519192839290830191858101910280838360005b8381101561049757818101518382015260200161047f565b505050509050019250505060405180910390f35b6104b36110a1565b6040805160208082528351818301528351919283929083019185019080838360005b838110156104ed5781810151838201526020016104d5565b50505050905090810190601f16801561051a5780820380516001836020036101000a031916815260200191505b509250505060405180910390f35b6105456004803603602081101561053e57600080fd5b5035611139565b604080516001600160a01b039092168252519081900360200190f35b61058d6004803603604081101561057757600080fd5b506001600160a01b03813516906020013561119b565b005b6105456112d0565b61059f6112df565b60408051918252519081900360200190f35b61058d600480360360208110156105c757600080fd5b50356112e5565b61058d611336565b61058d600480360360608110156105ec57600080fd5b506001600160a01b03813581169160208101359091169060400135611348565b61059f6113a4565b61059f6004803603604081101561062a57600080fd5b506001600160a01b0381351690602001356113ab565b61058d6004803603606081101561065657600080fd5b506001600160a01b0381358116916020810135909116906040013561142b565b61058d6004803603602081101561068c57600080fd5b5035611446565b61058d600480360360208110156106a957600080fd5b50356001600160a01b0316611498565b6106d6600480360360208110156106cf57600080fd5b5035611597565b604080516001600160a01b039094168452602084019290925282820152519081900360600190f35b6105456004803603602081101561071457600080fd5b50356115d2565b61058d6004803603602081101561073157600080fd5b50356115fa565b61058d6004803603604081101561074e57600080fd5b81019060208101813564010000000081111561076957600080fd5b82018360208201111561077b57600080fd5b8035906020019184600183028401116401000000008311171561079d57600080fd5b91908080601f01602080910402602001604051908101604052809392919081815260200183838082843760009201919091525092959493602081019350359150506401000000008111156107f057600080fd5b82018360208201111561080257600080fd5b8035906020019184600183028401116401000000008311171561082457600080fd5b91908080601f016020809104026020016040519081016040528093929190818152602001838380828437600092019190915250929550611646945050505050565b61059f6004803603602081101561087b57600080fd5b503561174d565b6105456117b3565b610545600480360360208110156108a057600080fd5b50356117c3565b61058d611817565b6104b3611a43565b610545611aa5565b610545600480360360208110156108d557600080fd5b5035611ab5565b6108f9600480360360208110156108f257600080fd5b5035611ac3565b60408051938452602084019290925282820152519081900360600190f35b61059f6004803603602081101561092d57600080fd5b50356001600160a01b0316611ae8565b61058d611b50565b6105456004803603602081101561095b57600080fd5b81019060208101813564010000000081111561097657600080fd5b82018360208201111561098857600080fd5b803590602001918460018302840111640100000000831117156109aa57600080fd5b91908080601f016020809104026020016040519081016040528093929190818152602001838380828437600092019190915250929550611c00945050505050565b6103c7600480360360a0811015610a0157600080fd5b506001600160a01b0381358116916020810135916040820135811691606081013582169160809091013516611e47565b61059f611fb5565b61058d611fbc565b61059f612097565b61058d6004803603610100811015610a6057600080fd5b810190602081018135640100000000811115610a7b57600080fd5b820183602082011115610a8d57600080fd5b80359060200191846001830284011164010000000083111715610aaf57600080fd5b919390929091602081019035640100000000811115610acd57600080fd5b820183602082011115610adf57600080fd5b80359060200191846001830284011164010000000083111715610b0157600080fd5b919390926001600160a01b0383358116936020810135909116929190606081019060400135640100000000811115610b3857600080fd5b820183602082011115610b4a57600080fd5b80359060200191846020830284011164010000000083111715610b6c57600080fd5b91935091506001600160a01b0381358116916020810135916040909101351661209e565b61059f60048036036020811015610ba657600080fd5b50356001600160a01b031661228d565b6105456122a4565b6103c76122b3565b6104b36122d9565b61059f60048036036020811015610be457600080fd5b503561233b565b61059f60048036036020811015610c0157600080fd5b503561234e565b61058d60048036036040811015610c1e57600080fd5b506001600160a01b0381351690602001351515612364565b61059f612469565b61058d60048036036080811015610c5457600080fd5b6001600160a01b03823581169260208101359091169160408201359190810190608081016060820135640100000000811115610c8f57600080fd5b820183602082011115610ca157600080fd5b80359060200191846001830284011164010000000083111715610cc357600080fd5b91908080601f016020809104026020016040519081016040528093929190818152602001838380828437600092019190915250929550612470945050505050565b61058d60048036036020811015610d1a57600080fd5b50356001600160a01b03166124ce565b6103c760048036036020811015610d4057600080fd5b50356001600160a01b0316612587565b6104b360048036036020811015610d6657600080fd5b503561259b565b610d9360048036036020811015610d8357600080fd5b50356001600160a01b0316612769565b604051808060200180602001838103835285818151815260200191508051906020019060200280838360005b83811015610dd7578181015183820152602001610dbf565b50505050905001838103825284818151815260200191508051906020019060200280838360005b83811015610e16578181015183820152602001610dfe565b5050505090500194505050505060405180910390f35b610e4f60048036036040811015610e4257600080fd5b5080359060200135612933565b6040805192835260208301919091528051918290030190f35b6103c760048036036040811015610e7e57600080fd5b506001600160a01b0381358116916020013516612a9e565b61059f60048036036020811015610eac57600080fd5b50356001600160a01b0316612acc565b61058d60048036036020811015610ed257600080fd5b50356001600160a01b0316612adf565b61058d60048036036020811015610ef857600080fd5b50356001600160a01b0316612b2e565b610e4f60048036036040811015610f1e57600080fd5b506001600160a01b038135169060200135612b90565b610545612cd9565b610f6260048036036020811015610f5257600080fd5b50356001600160a01b0316612ce9565b604080519485526001600160a01b039384166020860152918316848301529091166060830152519081900360800190f35b61059f612d20565b7fffffffff00000000000000000000000000000000000000000000000000000000811660009081526067602052604090205460ff165b919050565b6060610fe0612d27565b506000610fec8561228d565b905060608484905060405190808252806020026020018201604052801561101d578160200160208202803883390190505b50905060005b848110156110975760008381526101ac602052604081209087878481811061104757fe5b905060200201356001600160a01b03166001600160a01b03166001600160a01b031681526020019081526020016000205482828151811061108457fe5b6020908102919091010152600101611023565b5095945050505050565b6101068054604080516020601f600260001961010060018816150201909516949094049384018190048102820181019092528281526060939092909183018282801561112e5780601f106111035761010080835404028352916020019161112e565b820191906000526020600020905b81548152906001019060200180831161111157829003601f168201915b505050505090505b90565b600061114482612e66565b61117f5760405162461bcd60e51b815260040180806020018281038252602c815260200180615d63602c913960400191505060405180910390fd5b506000908152609b60205260409020546001600160a01b031690565b60006111a6826117c3565b9050806001600160a01b0316836001600160a01b031614156111f95760405162461bcd60e51b8152600401808060200182810382526021815260200180615e376021913960400191505060405180910390fd5b806001600160a01b031661120b612e83565b6001600160a01b0316148061122c575061122c81611227612e83565b612a9e565b6112675760405162461bcd60e51b8152600401808060200182810382526038815260200180615c5c6038913960400191505060405180910390fd5b6000828152609b6020526040808220805473ffffffffffffffffffffffffffffffffffffffff19166001600160a01b0387811691821790925591518593918516917f8c5be1e5ebec7d5bd14f71427d1e84f3dd0314c0f7b2291e5b200ac8c7c3b92591a4505050565b6066546001600160a01b031681565b60d25490565b6112f56112f0612e83565b612587565b6113305760405162461bcd60e51b815260040180806020018281038252603a815260200180615d08603a913960400191505060405180910390fd5b6101a755565b611346611341612e83565b612e87565b565b611359611353612e83565b82612ed0565b6113945760405162461bcd60e51b8152600401808060200182810382526031815260200180615e7a6031913960400191505060405180910390fd5b61139f838383612f6c565b505050565b6101a75481565b60006113b683611ae8565b82106113f35760405162461bcd60e51b815260040180806020018281038252602b815260200180615b44602b913960400191505060405180910390fd5b6001600160a01b038316600090815260d06020526040902080548390811061141757fe5b906000526020600020015490505b92915050565b61139f83838360405180602001604052806000815250612470565b611451611353612e83565b61148c5760405162461bcd60e51b8152600401808060200182810382526030815260200180615f206030913960400191505060405180910390fd5b61149581612f8b565b50565b6114a06122b3565b6114f1576040805162461bcd60e51b815260206004820181905260248201527f4f776e61626c653a2063616c6c6572206973206e6f7420746865206f776e6572604482015290519081900360640190fd5b6001600160a01b0381166115365760405162461bcd60e51b8152600401808060200182810382526022815260200180615c176022913960400191505060405180910390fd5b606680546001600160a01b03831673ffffffffffffffffffffffffffffffffffffffff19909116811790915560408051918252517f5b36800c27524690807962bd42525a44e68b3f860e8f9e0204f27e777d2f46059181900360200190a150565b6101a181815481106115a557fe5b60009182526020909120600390910201805460018201546002909201546001600160a01b03909116925083565b6101a381815481106115e057fe5b6000918252602090912001546001600160a01b0316905081565b6116056112f0612e83565b6116405760405162461bcd60e51b815260040180806020018281038252603a815260200180615d08603a913960400191505060405180910390fd5b6101a855565b600054610100900460ff168061165f575061165f612f9d565b8061166d575060005460ff16155b6116a85760405162461bcd60e51b815260040180806020018281038252602e815260200180615db1602e913960400191505060405180910390fd5b600054610100900460ff161580156116d3576000805460ff1961ff0019909116610100171660011790555b6116db612fa3565b6116e457600080fd5b82516116f890610106906020860190615a47565b50815161170d90610107906020850190615a47565b506117377f5b5e139f00000000000000000000000000000000000000000000000000000000612fd3565b801561139f576000805461ff0019169055505050565b60006117576112df565b82106117945760405162461bcd60e51b815260040180806020018281038252602c815260200180615eab602c913960400191505060405180910390fd5b60d282815481106117a157fe5b90600052602060002001549050919050565b6101ab546001600160a01b031681565b6000818152609a60205260408120546001600160a01b0316806114255760405162461bcd60e51b8152600401808060200182810382526029815260200180615cbe6029913960400191505060405180910390fd5b6118226112f0612e83565b61185d5760405162461bcd60e51b815260040180806020018281038252603a815260200180615d08603a913960400191505060405180910390fd5b6101a55442101561189f5760405162461bcd60e51b8152600401808060200182810382526023815260200180615c396023913960400191505060405180910390fd5b60006118a9613087565b6101aa546101a6549192506000916118ca916001600160a01b0316906130a2565b6101a9546101aa549193506118f392506001600160a01b0391821691168363ffffffff61328116565b60005b6101a2548110156119c857604080516002808252606080830184529260208301908038833950506101aa5482519293506001600160a01b03169183915060009061193c57fe5b60200260200101906001600160a01b031690816001600160a01b0316815250506101a2828154811061196a57fe5b9060005260206000200160009054906101000a90046001600160a01b03168160018151811061199557fe5b60200260200101906001600160a01b031690816001600160a01b0316815250506119bf8482613419565b506001016118f6565b506101a4546101a5546119e09163ffffffff6137a716565b6101a5556101a2546101a154611a3b916101ad91600091611a1a91600191611a0e919063ffffffff61380816565b9063ffffffff61384a16565b8152602001908152602001600020546101a65461384a90919063ffffffff16565b6101a6555050565b6101098054604080516020601f600260001961010060018816150201909516949094049384018190048102820181019092528281526060939092909183018282801561112e5780601f106111035761010080835404028352916020019161112e565b6101aa546001600160a01b031681565b6101a281815481106115e057fe5b6101ac6020526000908152604090206001810154600282015460039092015490919083565b60006001600160a01b038216611b2f5760405162461bcd60e51b815260040180806020018281038252602a815260200180615c94602a913960400191505060405180910390fd5b6001600160a01b0382166000908152609c602052604090206114259061388c565b611b586122b3565b611ba9576040805162461bcd60e51b815260206004820181905260248201527f4f776e61626c653a2063616c6c6572206973206e6f7420746865206f776e6572604482015290519081900360640190fd5b6033546040516000916001600160a01b0316907f8be0079c531659141344cd1fd0a4f28419497f9722a3daafe3b4186f6b6457e0908390a36033805473ffffffffffffffffffffffffffffffffffffffff19169055565b6066546000906001600160a01b0316611c60576040805162461bcd60e51b815260206004820152600f60248201527f4d6f64756c653a206e6f20706f6f6c0000000000000000000000000000000000604482015290519081900360640190fd5b6066546040516020602482018181528551604484015285516000946060946001600160a01b03909116938893928392606401918501908083838b5b83811015611cb3578181015183820152602001611c9b565b50505050905090810190601f168015611ce05780820380516001836020036101000a031916815260200191505b5060408051601f198184030181529181526020820180517bffffffffffffffffffffffffffffffffffffffffffffffffffffffff167f693ec85e00000000000000000000000000000000000000000000000000000000178152905182519295509350839250908083835b60208310611d695780518252601f199092019160209182019101611d4a565b6001836020036101000a038019825116818451168082178552505050505050905001915050600060405180830381855afa9150503d8060008114611dc9576040519150601f19603f3d011682016040523d82523d6000602084013e611dce565b606091505b509150915081611ddf578060208201fd5b6000818060200190516020811015611df657600080fd5b505190506001600160a01b038116611e3f5760405162461bcd60e51b8152600401808060200182810382526022815260200180615e586022913960400191505060405180910390fd5b949350505050565b6000611e546112f0612e83565b611e8f5760405162461bcd60e51b815260040180806020018281038252603a815260200180615d08603a913960400191505060405180910390fd5b604080516080810182528681526001600160a01b038087166020808401828152888416858701908152888516606087019081528d861660009081526101ae855288812097518855925160018801805491881673ffffffffffffffffffffffffffffffffffffffff19928316179055915160028801805491881691841691909117905551600390960180549690951695169490941790925582526101b09052205460ff16611fa9576101a3805460018082019092557f9956c0f14fc2ed1836f96a0d9c70b58f1406f12ef284cbc764439ac2a31089c001805473ffffffffffffffffffffffffffffffffffffffff19166001600160a01b03871690811790915560009081526101b060205260409020805460ff191690911790555b50600195945050505050565b6101a45481565b600054610100900460ff1680611fd55750611fd5612f9d565b80611fe3575060005460ff16155b61201e5760405162461bcd60e51b815260040180806020018281038252602e815260200180615db1602e913960400191505060405180910390fd5b600054610100900460ff16158015612049576000805460ff1961ff0019909116610100171660011790555b612051612fa3565b61205a57600080fd5b6120837f780e9d6300000000000000000000000000000000000000000000000000000000612fd3565b8015611495576000805461ff001916905550565b6101a85481565b600054610100900460ff16806120b757506120b7612f9d565b806120c5575060005460ff16155b6121005760405162461bcd60e51b815260040180806020018281038252602e815260200180615db1602e913960400191505060405180910390fd5b600054610100900460ff1615801561212b576000805460ff1961ff0019909116610100171660011790555b61213488613890565b61214461213f612e83565b6124ce565b61214c61392e565b612154611fbc565b6121d88c8c8080601f016020809104026020016040519081016040528093929190818152602001838380828437600081840152601f19601f820116905080830192505050505050508b8b8080601f01602080910402602001604051908101604052809392919081815260200183838082843760009201919091525061164692505050565b6122148686808060200260200160405190810160405280939291908181526020018383602002808284376000920191909152506139ec92505050565b6101aa80546001600160a01b03808a1673ffffffffffffffffffffffffffffffffffffffff19928316179092556101a98054928716929091169190911790556101a4839055612269428463ffffffff6137a716565b6101a555801561227f576000805461ff00191690555b505050505050505050505050565b600061229882613a59565b6000815481106117a157fe5b6033546001600160a01b031690565b6033546000906001600160a01b03166122ca612e83565b6001600160a01b031614905090565b6101078054604080516020601f600260001961010060018816150201909516949094049384018190048102820181019092528281526060939092909183018282801561112e5780601f106111035761010080835404028352916020019161112e565b6101ad6020526000908152604090205481565b60009081526101ac602052604090206001015490565b61236c612e83565b6001600160a01b0316826001600160a01b031614156123d2576040805162461bcd60e51b815260206004820152601960248201527f4552433732313a20617070726f766520746f2063616c6c657200000000000000604482015290519081900360640190fd5b80609d60006123df612e83565b6001600160a01b03908116825260208083019390935260409182016000908120918716808252919093529120805460ff191692151592909217909155612423612e83565b60408051841515815290516001600160a01b0392909216917f17307eab39ab6107e8899845ad3d59bd9653f200f220920489ca2b5937696c319181900360200190a35050565b6101a55481565b61248161247b612e83565b83612ed0565b6124bc5760405162461bcd60e51b8152600401808060200182810382526031815260200180615e7a6031913960400191505060405180910390fd5b6124c884848484613a73565b50505050565b600054610100900460ff16806124e757506124e7612f9d565b806124f5575060005460ff16155b6125305760405162461bcd60e51b815260040180806020018281038252602e815260200180615db1602e913960400191505060405180910390fd5b600054610100900460ff1615801561255b576000805460ff1961ff0019909116610100171660011790555b61256482612587565b6125715761257182613ac5565b8015612583576000805461ff00191690555b5050565b600061142561019f8363ffffffff613b0e16565b60606125a682612e66565b6125e15760405162461bcd60e51b815260040180806020018281038252602f815260200180615e08602f913960400191505060405180910390fd5b6000828152610108602090815260409182902080548351601f60026000196101006001861615020190931692909204918201849004840281018401909452808452606093928301828280156126775780601f1061264c57610100808354040283529160200191612677565b820191906000526020600020905b81548152906001019060200180831161265a57829003601f168201915b5050505050905080516000141561269e575050604080516020810190915260008152610fd1565b6101098160405160200180838054600181600116156101000203166002900480156127005780601f106126de576101008083540402835291820191612700565b820191906000526020600020905b8154815290600101906020018083116126ec575b5050825160208401908083835b6020831061272c5780518252601f19909201916020918201910161270d565b6001836020036101000a03801982511681845116808217855250505050505090500192505050604051602081830303815290604052915050610fd1565b6101ab54604080517f79e759950000000000000000000000000000000000000000000000000000000081523060048201526001600160a01b0384811660248301529151606093849316916379e7599591604480830192600092919082900301818387803b1580156127d957600080fd5b505af11580156127ed573d6000803e3d6000fd5b505050506040513d6000823e601f3d908101601f19168201604090815281101561281657600080fd5b810190808051604051939291908464010000000082111561283657600080fd5b90830190602082018581111561284b57600080fd5b825186602082028301116401000000008211171561286857600080fd5b82525081516020918201928201910280838360005b8381101561289557818101518382015260200161287d565b50505050905001604052602001805160405193929190846401000000008211156128be57600080fd5b9083019060208201858111156128d357600080fd5b82518660208202830111640100000000821117156128f057600080fd5b82525081516020918201928201910280838360005b8381101561291d578181015183820152602001612905565b5050505090500160405250505091509150915091565b60008061295c612941612e83565b6101aa546001600160a01b031690308763ffffffff613b7516565b61296c612967612e83565b611ae8565b612a3457600061297a613d00565b9050612984613d2d565b6101a15460008281526101ac60205260408120600201919091556101aa5481906129b7906001600160a01b031688614048565b915091506129ca8382600089600161434f565b7fdcbc1c05240f31ff3ad067ef1ee35ce4997762752e3a095284754544f4c709d76129f3612e83565b6101aa54604080516001600160a01b0393841681529290911660208301528181018a905260608201899052519081900360800190a19093509150612a979050565b612a3c612d27565b506000612a4f612a4a612e83565b61228d565b6101aa549091506000908190612a6e906001600160a01b031688614048565b915091506129ca83826101ac60008781526020019081526020016000206001015489600161434f565b9250929050565b6001600160a01b039182166000908152609d6020908152604080832093909416825291909152205460ff1690565b6101af6020526000908152604090205481565b612aea6112f0612e83565b612b255760405162461bcd60e51b815260040180806020018281038252603a815260200180615d08603a913960400191505060405180910390fd5b61149581613ac5565b612b366122b3565b612b87576040805162461bcd60e51b815260206004820181905260248201527f4f776e61626c653a2063616c6c6572206973206e6f7420746865206f776e6572604482015290519081900360640190fd5b61149581614547565b600080612b9b612d27565b506000612ba9612a4a612e83565b60008181526101ac602090815260408083206001600160a01b038a168452909152902054909150841115612c0e5760405162461bcd60e51b8152600401808060200182810382526033815260200180615f506033913960400191505060405180910390fd5b600080612c1b87876130a2565b6101aa5491935091506001600160a01b0388811691161415612c595760008381526101ac6020526040812060010154612c599185918491819061434f565b612c7b612c64612e83565b6001600160a01b038916908363ffffffff6145f516565b7f2717ead6b9200dd235aad468c9809ea400fe33ac69b5bfaa6d3e90fc922b6398612ca4612e83565b604080516001600160a01b039283168152918a166020830152818101899052519081900360600190a190969095509350505050565b6101a9546001600160a01b031681565b6101ae60205260009081526040902080546001820154600283015460039093015491926001600160a01b0391821692908216911684565b6101a65481565b6000612d31613d2d565b6000612d3e612a4a612e83565b90506000612d4a613087565b60008381526101ac60205260409020600201549091505b6101a154811015612e49576101aa546101a180546001600160a01b039092169183908110612d8b57fe5b60009182526020909120600390910201546001600160a01b03161415612df75760008381526101ac6020526040812060010154612dc9908390614786565b9050612df184826101ac6000888152602001908152602001600020600101546000600161434f565b50612e41565b60008381526101ac602090815260408083206101aa546001600160a01b031684529091529020548211612e41576000612e308284614786565b9050612e3e848385846147e9565b50505b600101612d61565b50506101a15460009182526101ac60205260409091206002015590565b6000908152609a60205260409020546001600160a01b0316151590565b3390565b612e9961019f8263ffffffff6148f116565b6040516001600160a01b038216907f0ce9bf7d79f4d20dd39c2ef94ea6ce0613fdbad453ac4b17ef981422cbc65e6890600090a250565b6000612edb82612e66565b612f165760405162461bcd60e51b815260040180806020018281038252602c815260200180615beb602c913960400191505060405180910390fd5b6000612f21836117c3565b9050806001600160a01b0316846001600160a01b03161480612f5c5750836001600160a01b0316612f5184611139565b6001600160a01b0316145b80611e3f5750611e3f8185612a9e565b612f77838383614958565b612f818382614aa9565b61139f8282614b97565b611495612f97826117c3565b82614bd5565b303b1590565b6000612fce7f80ac58cd00000000000000000000000000000000000000000000000000000000610f9b565b905090565b7fffffffff00000000000000000000000000000000000000000000000000000000808216141561304a576040805162461bcd60e51b815260206004820152601c60248201527f4552433136353a20696e76616c696420696e7465726661636520696400000000604482015290519081900360640190fd5b7fffffffff00000000000000000000000000000000000000000000000000000000166000908152606760205260409020805460ff19166001179055565b6101a2546101a654600091612fce919063ffffffff61380816565b6001600160a01b0380831660009081526101ae602052604081206001810154600290910154919283928392821691637bfe950c911687876130e38282614c1f565b6040518563ffffffff1660e01b815260040180856001600160a01b03166001600160a01b03168152602001846001600160a01b03166001600160a01b03168152602001838152602001828152602001945050505050602060405180830381600087803b15801561315257600080fd5b505af1158015613166573d6000803e3d6000fd5b505050506040513d602081101561317c57600080fd5b50516001600160a01b03861660009081526101ae6020526040812054919250906131ad90839063ffffffff614c8016565b90506131bb86836000614cf7565b6001600160a01b0380871660009081526101ae60209081526040918290206003015482517f70a0823100000000000000000000000000000000000000000000000000000000815230600482015292519316926370a08231926024808201939291829003018186803b15801561322f57600080fd5b505afa158015613243573d6000803e3d6000fd5b505050506040513d602081101561325957600080fd5b50516001600160a01b03871660009081526101af602052604090205590925090509250929050565b604080516001600160a01b038481166024830152604480830185905283518084039091018152606490920183526020820180517bffffffffffffffffffffffffffffffffffffffffffffffffffffffff167f095ea7b300000000000000000000000000000000000000000000000000000000178152925182516000946060949389169392918291908083835b6020831061332c5780518252601f19909201916020918201910161330d565b6001836020036101000a0380198251168184511680821785525050505050509050019150506000604051808303816000865af19150503d806000811461338e576040519150601f19603f3d011682016040523d82523d6000602084013e613393565b606091505b50915091508180156133c15750805115806133c157508080602001905160208110156133be57600080fd5b50515b613412576040805162461bcd60e51b815260206004820152601e60248201527f5472616e7366657248656c7065723a20415050524f56455f4641494c45440000604482015290519081900360640190fd5b5050505050565b6101a954604080517fd06ca61f00000000000000000000000000000000000000000000000000000000815260048101858152602482019283528451604483015284516060946001600160a01b03169363d06ca61f9388938893909291606401906020808601910280838360005b8381101561349e578181015183820152602001613486565b50505050905001935050505060006040518083038186803b1580156134c257600080fd5b505afa1580156134d6573d6000803e3d6000fd5b505050506040513d6000823e601f3d908101601f1916820160405260208110156134ff57600080fd5b810190808051604051939291908464010000000082111561351f57600080fd5b90830190602082018581111561353457600080fd5b825186602082028301116401000000008211171561355157600080fd5b82525081516020918201928201910280838360005b8381101561357e578181015183820152602001613566565b50505050905001604052505050905060606101a960009054906101000a90046001600160a01b03166001600160a01b03166338ed173985846001815181106135c257fe5b602002602001015186306101a7546040518663ffffffff1660e01b81526004018086815260200185815260200180602001846001600160a01b03166001600160a01b03168152602001838152602001828103825285818151815260200191508051906020019060200280838360005b83811015613649578181015183820152602001613631565b505050509050019650505050505050600060405180830381600087803b15801561367257600080fd5b505af1158015613686573d6000803e3d6000fd5b505050506040513d6000823e601f3d908101601f1916820160405260208110156136af57600080fd5b81019080805160405193929190846401000000008211156136cf57600080fd5b9083019060208201858111156136e457600080fd5b825186602082028301116401000000008211171561370157600080fd5b82525081516020918201928201910280838360005b8381101561372e578181015183820152602001613716565b50505050905001604052505050905060006137718460018151811061374f57fe5b60200260200101518360018151811061376457fe5b6020026020010151614048565b9150506134128460018151811061378457fe5b60200260200101518360008151811061379957fe5b602002602001015183614e43565b600082820183811015613801576040805162461bcd60e51b815260206004820152601b60248201527f536166654d6174683a206164646974696f6e206f766572666c6f770000000000604482015290519081900360640190fd5b9392505050565b600061380183836040518060400160405280601a81526020017f536166654d6174683a206469766973696f6e206279207a65726f000000000000815250614f12565b600061380183836040518060400160405280601e81526020017f536166654d6174683a207375627472616374696f6e206f766572666c6f770000815250614fb4565b5490565b600054610100900460ff16806138a957506138a9612f9d565b806138b7575060005460ff16155b6138f25760405162461bcd60e51b815260040180806020018281038252602e815260200180615db1602e913960400191505060405180910390fd5b600054610100900460ff1615801561391d576000805460ff1961ff0019909116610100171660011790555b61392561500e565b61257182611498565b600054610100900460ff16806139475750613947612f9d565b80613955575060005460ff16155b6139905760405162461bcd60e51b815260040180806020018281038252602e815260200180615db1602e913960400191505060405180910390fd5b600054610100900460ff161580156139bb576000805460ff1961ff0019909116610100171660011790555b6139c36150ab565b6120837f80ac58cd00000000000000000000000000000000000000000000000000000000612fd3565b60005b8151811015612583576101a2828281518110613a0757fe5b602090810291909101810151825460018082018555600094855292909320909201805473ffffffffffffffffffffffffffffffffffffffff19166001600160a01b0390931692909217909155016139ef565b6001600160a01b0316600090815260d06020526040902090565b613a7e848484612f6c565b613a8a84848484615161565b6124c85760405162461bcd60e51b8152600401808060200182810382526032815260200180615b6f6032913960400191505060405180910390fd5b613ad761019f8263ffffffff61541316565b6040516001600160a01b038216907f1c3f027a4c907a6c9dd65947c44db0adce386f894f23033f7ff2ca693b6e2a9890600090a250565b60006001600160a01b038216613b555760405162461bcd60e51b8152600401808060200182810382526022815260200180615d8f6022913960400191505060405180910390fd5b506001600160a01b03166000908152602091909152604090205460ff1690565b604080516001600160a01b0385811660248301528481166044830152606480830185905283518084039091018152608490920183526020820180517bffffffffffffffffffffffffffffffffffffffffffffffffffffffff167f23b872dd0000000000000000000000000000000000000000000000000000000017815292518251600094606094938a169392918291908083835b60208310613c285780518252601f199092019160209182019101613c09565b6001836020036101000a0380198251168184511680821785525050505050509050019150506000604051808303816000865af19150503d8060008114613c8a576040519150601f19603f3d011682016040523d82523d6000602084013e613c8f565b606091505b5091509150818015613cbd575080511580613cbd5750808060200190516020811015613cba57600080fd5b50515b613cf85760405162461bcd60e51b8152600401808060200182810382526024815260200180615efc6024913960400191505060405180910390fd5b505050505050565b6000613d0d6101a0615494565b6000613d1a6101a061388c565b9050612fce613d27612e83565b8261549d565b60005b6101a3548110156114955760606101a38281548110613d4b57fe5b6000918252602082200154604080517fd9180a0000000000000000000000000000000000000000000000000000000000815290516001600160a01b039092169263d9180a0092600480840193829003018186803b158015613dab57600080fd5b505afa158015613dbf573d6000803e3d6000fd5b505050506040513d6000823e601f3d908101601f191682016040526020811015613de857600080fd5b8101908080516040519392919084640100000000821115613e0857600080fd5b908301906020820185811115613e1d57600080fd5b8251866020820283011164010000000082111715613e3a57600080fd5b82525081516020918201928201910280838360005b83811015613e67578181015183820152602001613e4f565b50505050905001604052505050905060606101a38381548110613e8657fe5b9060005260206000200160009054906101000a90046001600160a01b03166001600160a01b031663d212a642836040518263ffffffff1660e01b81526004018080602001828103825283818151815260200191508051906020019060200280838360005b83811015613f02578181015183820152602001613eea565b5050505090500192505050600060405180830381600087803b158015613f2757600080fd5b505af1158015613f3b573d6000803e3d6000fd5b505050506040513d6000823e601f3d908101601f191682016040526020811015613f6457600080fd5b8101908080516040519392919084640100000000821115613f8457600080fd5b908301906020820185811115613f9957600080fd5b8251866020820283011164010000000082111715613fb657600080fd5b82525081516020918201928201910280838360005b83811015613fe3578181015183820152602001613fcb565b50505050905001604052505050905060008090505b825181101561403d5761403583828151811061401057fe5b60200260200101516101a65484848151811061402857fe5b6020026020010151614e43565b600101613ff8565b505050600101613d30565b604080516001808252818301909252600091829160609160208083019080388339505060408051600180825281830190925292935060609291506020808301908038833901905050905085826000815181106140a057fe5b60200260200101906001600160a01b031690816001600160a01b03168152505084816000815181106140ce57fe5b6020908102919091018101919091526001600160a01b0380881660008181526101ae90935260409092206001015461410e9291168763ffffffff61328116565b6001600160a01b0380871660009081526101ae60209081526040808320600181015460029091015491517f562fa0df000000000000000000000000000000000000000000000000000000008152918516600483018181526060602485019081528951606486015289519697939093169563562fa0df9592948a948a94909260448301926084019187810191028083838e5b838110156141b757818101518382015260200161419f565b50505050905001838103825284818151815260200191508051906020019060200280838360005b838110156141f65781810151838201526020016141de565b5050505090500195505050505050602060405180830381600087803b15801561421e57600080fd5b505af1158015614232573d6000803e3d6000fd5b505050506040513d602081101561424857600080fd5b50516001600160a01b03881660009081526101ae60205260408120549192509061427990839063ffffffff614c8016565b905061428788836001614cf7565b6001600160a01b0380891660009081526101ae60209081526040918290206003015482517f70a0823100000000000000000000000000000000000000000000000000000000815230600482015292519316926370a08231926024808201939291829003018186803b1580156142fb57600080fd5b505afa15801561430f573d6000803e3d6000fd5b505050506040513d602081101561432557600080fd5b50516001600160a01b03891660009081526101af6020526040902055909450925050509250929050565b80156143b85760008581526101ac602090815260408083206101aa546001600160a01b0316845290915290205461438c908563ffffffff6137a716565b60008681526101ac602090815260408083206101aa546001600160a01b03168452909152902055614417565b60008581526101ac602090815260408083206101aa546001600160a01b031684529091529020546143ef908563ffffffff61384a16565b60008681526101ac602090815260408083206101aa546001600160a01b031684529091529020555b82821461445e5760008581526101ac602052604090206001018290556101a65461445990839061444d908663ffffffff61384a16565b9063ffffffff6137a716565b6101a6555b60008581526101ac602090815260408083206003015483526101ad90915290205461448f908463ffffffff61384a16565b60008681526101ac60209081526040808320600381015484526101ad8352818420949094556101aa546001600160a01b03168352929052908120546144f590600190611a0e906144e5908763ffffffff61380816565b6101a1549063ffffffff6137a716565b60008181526101ad6020526040902054909150614518908463ffffffff6137a716565b60008281526101ad60209081526040808320939093559781526101ac9097529095206003019490945550505050565b6001600160a01b03811661458c5760405162461bcd60e51b8152600401808060200182810382526026815260200180615ba16026913960400191505060405180910390fd5b6033546040516001600160a01b038084169216907f8be0079c531659141344cd1fd0a4f28419497f9722a3daafe3b4186f6b6457e090600090a36033805473ffffffffffffffffffffffffffffffffffffffff19166001600160a01b0392909216919091179055565b604080516001600160a01b038481166024830152604480830185905283518084039091018152606490920183526020820180517bffffffffffffffffffffffffffffffffffffffffffffffffffffffff167fa9059cbb00000000000000000000000000000000000000000000000000000000178152925182516000946060949389169392918291908083835b602083106146a05780518252601f199092019160209182019101614681565b6001836020036101000a0380198251168184511680821785525050505050509050019150506000604051808303816000865af19150503d8060008114614702576040519150601f19603f3d011682016040523d82523d6000602084013e614707565b606091505b5091509150818015614735575080511580614735575080806020019051602081101561473257600080fd5b50515b613412576040805162461bcd60e51b815260206004820152601f60248201527f5472616e7366657248656c7065723a205452414e534645525f4641494c454400604482015290519081900360640190fd5b60006138016101a1848154811061479957fe5b9060005260206000209060030201600101546147dd6101a186815481106147bc57fe5b906000526020600020906003020160020154856154ba90919063ffffffff16565b9063ffffffff61380816565b60008481526101ac602090815260408083206101aa546001600160a01b03168452909152812054614820908463ffffffff61384a16565b60008681526101ac602081815260408084206101aa546001600160a01b0316855280835290842094909455888352526101a1805461489e938693909290918990811061486857fe5b600091825260208083206003909202909101546001600160a01b031683528201929092526040019020549063ffffffff6137a716565b60008681526101ac602052604081206101a18054919291889081106148bf57fe5b600091825260208083206003909202909101546001600160a01b03168352820192909252604001902055949350505050565b6148fb8282613b0e565b6149365760405162461bcd60e51b8152600401808060200182810382526021815260200180615ce76021913960400191505060405180910390fd5b6001600160a01b0316600090815260209190915260409020805460ff19169055565b826001600160a01b031661496b826117c3565b6001600160a01b0316146149b05760405162461bcd60e51b8152600401808060200182810382526029815260200180615ddf6029913960400191505060405180910390fd5b6001600160a01b0382166149f55760405162461bcd60e51b8152600401808060200182810382526024815260200180615bc76024913960400191505060405180910390fd5b6149fe81615513565b6001600160a01b0383166000908152609c60205260409020614a1f9061555b565b6001600160a01b0382166000908152609c60205260409020614a4090615494565b6000818152609a6020526040808220805473ffffffffffffffffffffffffffffffffffffffff19166001600160a01b0386811691821790925591518493918716917fddf252ad1be2c89b69c2b068fc378daa952ba7f163c4a11628f55a4df523b3ef91a4505050565b6001600160a01b038216600090815260d06020526040812054614ad390600163ffffffff61384a16565b600083815260d16020526040902054909150808214614b6e576001600160a01b038416600090815260d060205260408120805484908110614b1057fe5b906000526020600020015490508060d06000876001600160a01b03166001600160a01b031681526020019081526020016000208381548110614b4e57fe5b600091825260208083209091019290925591825260d19052604090208190555b6001600160a01b038416600090815260d060205260409020805490613412906000198301615ac5565b6001600160a01b03909116600090815260d060208181526040808420805486865260d184529185208290559282526001810183559183529091200155565b614bdf8282615572565b6000818152610108602052604090205460026000196101006001841615020190911604156125835760008181526101086020526040812061258391615ae9565b6001600160a01b03821660009081526101ae60205260408120548190614c4c90849063ffffffff61559e16565b9050611e3f614c73670de0b6b3a76400006147dd6101a854856154ba90919063ffffffff16565b829063ffffffff6137a716565b60008160121415614c92575081611425565b6012821115614cd757614cd0837fffffffffffffffffffffffffffffffffffffffffffffffffffffffffffffffee8401600a0a63ffffffff6154ba16565b9050611425565b601282101561142557614cd0836012849003600a0a63ffffffff61380816565b6001600160a01b0380841660009081526101ae602090815260408083206003015481517f70a082310000000000000000000000000000000000000000000000000000000081523060048201529151939416926370a0823192602480840193919291829003018186803b158015614d6c57600080fd5b505afa158015614d80573d6000803e3d6000fd5b505050506040513d6020811015614d9657600080fd5b5051905060008215614dd7576001600160a01b03851660009081526101af6020526040902054614dd090611a0e848763ffffffff6137a716565b9050614e08565b6001600160a01b03851660009081526101af6020526040902054614e0590611a0e848763ffffffff61384a16565b90505b8015613412576101a6546001600160a01b03861660009081526101ae6020526040902054613412918791614e4390859063ffffffff614c8016565b604080516060810182526001600160a01b039485168152602081019384529081019182526101a1805460018101825560009190915290517f138323e2a914e847043e23cddd114fae8437deb6d72c040f1025356455849bda6003909202918201805473ffffffffffffffffffffffffffffffffffffffff1916919095161790935590517f138323e2a914e847043e23cddd114fae8437deb6d72c040f1025356455849bdb830155517f138323e2a914e847043e23cddd114fae8437deb6d72c040f1025356455849bdc90910155565b60008183614f9e5760405162461bcd60e51b81526004018080602001828103825283818151815260200191508051906020019080838360005b83811015614f63578181015183820152602001614f4b565b50505050905090810190601f168015614f905780820380516001836020036101000a031916815260200191505b509250505060405180910390fd5b506000838581614faa57fe5b0495945050505050565b600081848411156150065760405162461bcd60e51b8152602060048201818152835160248401528351909283926044909101919085019080838360008315614f63578181015183820152602001614f4b565b505050900390565b600054610100900460ff16806150275750615027612f9d565b80615035575060005460ff16155b6150705760405162461bcd60e51b815260040180806020018281038252602e815260200180615db1602e913960400191505060405180910390fd5b600054610100900460ff1615801561509b576000805460ff1961ff0019909116610100171660011790555b6120836150a6612e83565b61560e565b600054610100900460ff16806150c457506150c4612f9d565b806150d2575060005460ff16155b61510d5760405162461bcd60e51b815260040180806020018281038252602e815260200180615db1602e913960400191505060405180910390fd5b600054610100900460ff16158015615138576000805460ff1961ff0019909116610100171660011790555b6120837f01ffc9a700000000000000000000000000000000000000000000000000000000612fd3565b6000615175846001600160a01b031661570c565b61518157506001611e3f565b600060606001600160a01b0386167f150b7a02000000000000000000000000000000000000000000000000000000006151b8612e83565b89888860405160240180856001600160a01b03166001600160a01b03168152602001846001600160a01b03166001600160a01b0316815260200183815260200180602001828103825283818151815260200191508051906020019080838360005b83811015615231578181015183820152602001615219565b50505050905090810190601f16801561525e5780820380516001836020036101000a031916815260200191505b5060408051601f198184030181529181526020820180517bffffffffffffffffffffffffffffffffffffffffffffffffffffffff167fffffffff00000000000000000000000000000000000000000000000000000000909a16999099178952518151919890975087965094509250829150849050835b602083106152f35780518252601f1990920191602091820191016152d4565b6001836020036101000a0380198251168184511680821785525050505050509050019150506000604051808303816000865af19150503d8060008114615355576040519150601f19603f3d011682016040523d82523d6000602084013e61535a565b606091505b5091509150816153ab578051156153745780518082602001fd5b60405162461bcd60e51b8152600401808060200182810382526032815260200180615b6f6032913960400191505060405180910390fd5b60008180602001905160208110156153c257600080fd5b50517fffffffff00000000000000000000000000000000000000000000000000000000167f150b7a0200000000000000000000000000000000000000000000000000000000149350611e3f92505050565b61541d8282613b0e565b1561546f576040805162461bcd60e51b815260206004820152601f60248201527f526f6c65733a206163636f756e7420616c72656164792068617320726f6c6500604482015290519081900360640190fd5b6001600160a01b0316600090815260209190915260409020805460ff19166001179055565b80546001019055565b6154a78282615745565b6154b18282614b97565b61258381615883565b6000826154c957506000611425565b828202828482816154d657fe5b04146138015760405162461bcd60e51b8152600401808060200182810382526021815260200180615d426021913960400191505060405180910390fd5b6000818152609b60205260409020546001600160a01b031615611495576000908152609b60205260409020805473ffffffffffffffffffffffffffffffffffffffff19169055565b805461556e90600163ffffffff61384a16565b9055565b61557c82826158c7565b6155868282614aa9565b600081815260d16020526040812055612583816159ab565b600081601214156155b0575081611425565b60128211156155ee57614cd0837fffffffffffffffffffffffffffffffffffffffffffffffffffffffffffffffee8401600a0a63ffffffff61380816565b601282101561142557614cd0836012849003600a0a63ffffffff6154ba16565b600054610100900460ff16806156275750615627612f9d565b80615635575060005460ff16155b6156705760405162461bcd60e51b815260040180806020018281038252602e815260200180615db1602e913960400191505060405180910390fd5b600054610100900460ff1615801561569b576000805460ff1961ff0019909116610100171660011790555b6033805473ffffffffffffffffffffffffffffffffffffffff19166001600160a01b0384811691909117918290556040519116906000907f8be0079c531659141344cd1fd0a4f28419497f9722a3daafe3b4186f6b6457e0908290a38015612583576000805461ff00191690555050565b6000813f7fc5d2460186f7233c927e7db2dcc703c0e500b653ca82273b7bfad8045d85a470818114801590611e3f575050151592915050565b6001600160a01b0382166157a0576040805162461bcd60e51b815260206004820181905260248201527f4552433732313a206d696e7420746f20746865207a65726f2061646472657373604482015290519081900360640190fd5b6157a981612e66565b156157fb576040805162461bcd60e51b815260206004820152601c60248201527f4552433732313a20746f6b656e20616c7265616479206d696e74656400000000604482015290519081900360640190fd5b6000818152609a60209081526040808320805473ffffffffffffffffffffffffffffffffffffffff19166001600160a01b0387169081179091558352609c909152902061584790615494565b60405181906001600160a01b038416906000907fddf252ad1be2c89b69c2b068fc378daa952ba7f163c4a11628f55a4df523b3ef908290a45050565b60d28054600083815260d360205260408120829055600182018355919091527ff2192e1030363415d7b4fb0406540a0060e8e2fc8982f3f32289379e11fa65460155565b816001600160a01b03166158da826117c3565b6001600160a01b03161461591f5760405162461bcd60e51b8152600401808060200182810382526025815260200180615ed76025913960400191505060405180910390fd5b61592881615513565b6001600160a01b0382166000908152609c602052604090206159499061555b565b6000818152609a6020526040808220805473ffffffffffffffffffffffffffffffffffffffff19169055518291906001600160a01b038516907fddf252ad1be2c89b69c2b068fc378daa952ba7f163c4a11628f55a4df523b3ef908390a45050565b60d2546000906159c290600163ffffffff61384a16565b600083815260d3602052604081205460d280549394509092849081106159e457fe5b906000526020600020015490508060d283815481106159ff57fe5b600091825260208083209091019290925582815260d39091526040902082905560d2805490615a32906000198301615ac5565b50505060009182525060d36020526040812055565b828054600181600116156101000203166002900490600052602060002090601f016020900481019282601f10615a8857805160ff1916838001178555615ab5565b82800160010185558215615ab5579182015b82811115615ab5578251825591602001919060010190615a9a565b50615ac1929150615b29565b5090565b81548183558181111561139f5760008381526020902061139f918101908301615b29565b50805460018160011615610100020316600290046000825580601f10615b0f5750611495565b601f01602090049060005260206000209081019061149591905b61113691905b80821115615ac15760008155600101615b2f56fe455243373231456e756d657261626c653a206f776e657220696e646578206f7574206f6620626f756e64734552433732313a207472616e7366657220746f206e6f6e20455243373231526563656976657220696d706c656d656e7465724f776e61626c653a206e6577206f776e657220697320746865207a65726f20616464726573734552433732313a207472616e7366657220746f20746865207a65726f20616464726573734552433732313a206f70657261746f7220717565727920666f72206e6f6e6578697374656e7420746f6b656e4d6f64756c653a20706f6f6c20616464726573732063616e2774206265207a65726f4443414d6f64756c652d70757263686173653a206e6f742074696d6520746f206275794552433732313a20617070726f76652063616c6c6572206973206e6f74206f776e6572206e6f7220617070726f76656420666f7220616c6c4552433732313a2062616c616e636520717565727920666f7220746865207a65726f20616464726573734552433732313a206f776e657220717565727920666f72206e6f6e6578697374656e7420746f6b656e526f6c65733a206163636f756e7420646f6573206e6f74206861766520726f6c654443414f70657261746f72526f6c653a2063616c6c657220646f6573206e6f74206861766520746865204443414f70657261746f7220726f6c65536166654d6174683a206d756c7469706c69636174696f6e206f766572666c6f774552433732313a20617070726f76656420717565727920666f72206e6f6e6578697374656e7420746f6b656e526f6c65733a206163636f756e7420697320746865207a65726f2061646472657373436f6e747261637420696e7374616e63652068617320616c7265616479206265656e20696e697469616c697a65644552433732313a207472616e73666572206f6620746f6b656e2074686174206973206e6f74206f776e4552433732314d657461646174613a2055524920717565727920666f72206e6f6e6578697374656e7420746f6b656e4552433732313a20617070726f76616c20746f2063757272656e74206f776e65724d6f64756c653a20726571756573746564206d6f64756c65206e6f7420666f756e644552433732313a207472616e736665722063616c6c6572206973206e6f74206f776e6572206e6f7220617070726f766564455243373231456e756d657261626c653a20676c6f62616c20696e646578206f7574206f6620626f756e64734552433732313a206275726e206f6620746f6b656e2074686174206973206e6f74206f776e5472616e7366657248656c7065723a205452414e534645525f46524f4d5f4641494c45444552433732314275726e61626c653a2063616c6c6572206973206e6f74206f776e6572206e6f7220617070726f7665644443414d6f64756c652d77697468647261773a20776974686472617720616d6f756e7420657863656564732062616c616e6365a265627a7a723158201fddcda41f973563e0f64822485a5f15a22a51a05b7d27abbb7ceb7367bc067564736f6c63430005110032",
  "source": "pragma solidity ^0.5.17;\n\nimport \"@openzeppelin/contracts-ethereum-package/contracts/token/ERC20/IERC20.sol\";\nimport \"@openzeppelin/contracts-ethereum-package/contracts/token/ERC721/ERC721Full.sol\";\nimport \"@openzeppelin/contracts-ethereum-package/contracts/token/ERC721/ERC721Burnable.sol\";\nimport \"@openzeppelin/contracts-ethereum-package/contracts/drafts/Counters.sol\";\nimport \"@openzeppelin/contracts-ethereum-package/contracts/math/SafeMath.sol\";\nimport \"../../interfaces/uniswap/IUniswapV2Router02.sol\";\nimport \"../../interfaces/savings/ISavingsModule.sol\";\nimport \"../../interfaces/dca/IDCAFullBalanceHelper.sol\";\nimport \"../../utils/TransferHelper.sol\";\nimport \"../../utils/Normalization.sol\";\nimport \"./DCAOperatorRole.sol\";\nimport \"../../common/Module.sol\";\n\ncontract DCAModule is Module, ERC721Full, ERC721Burnable, DCAOperatorRole {\n    using SafeMath for uint256;\n    using TransferHelper for address;\n    using Normalization for uint256;\n    using Counters for Counters.Counter;\n\n    Counters.Counter private _tokenIds;\n\n    event Deposit(\n        address user,\n        address token,\n        uint256 amount,\n        uint256 newBuyAmount\n    );\n\n    event Withdrawal(address user, address token, uint256 amount);\n\n    struct Account {\n        mapping(address => uint256) balance;\n        uint256 buyAmount;\n        uint256 nextDistributionIndex;\n        uint256 lastRemovalPointIndex;\n    }\n\n    struct Distribution {\n        address token;\n        uint256 amountIn;\n        uint256 amountOut;\n    }\n\n    struct TokenData {\n        uint256 decimals;\n        address pool; // Reward\n        address protocol;\n        address poolToken;\n    }\n\n    Distribution[] public distributions;\n    address[] public tokensToBuy;\n    address[] public rewardPools;\n\n    uint256 public periodTimestamp;\n    uint256 public nextBuyTimestamp;\n    uint256 public globalPeriodBuyAmount;\n    uint256 public deadline; // uniswap v2 deadline\n    uint256 public protocolMaxFee; // 1e18 fee foundation\n\n    address public router;\n    address public tokenToSell;\n    address public dcaFullBalanceHelper;\n\n    mapping(uint256 => Account) public _accountOf;\n    mapping(uint256 => uint256) public removeAfterDistribution;\n    mapping(address => TokenData) public tokenDataOf;\n    mapping(address => uint256) public prevPoolTokenBalanceOf;\n    mapping(address => bool) private inRewardPools;\n\n    function initialize(\n        string calldata _name,\n        string calldata _symbol,\n        address _osPool,\n        address _tokenToSell,\n        address[] calldata _tokensToBuy,\n        address _router,\n        uint256 _periodTimestamp,\n        address bot\n    ) external initializer {\n        Module.initialize(_osPool);\n\n        DCAOperatorRole.initialize(_msgSender());\n\n        ERC721.initialize();\n        ERC721Enumerable.initialize();\n        ERC721Metadata.initialize(_name, _symbol);\n\n        _setTokensToBuy(_tokensToBuy);\n\n        tokenToSell = _tokenToSell;\n        router = _router;\n        periodTimestamp = _periodTimestamp;\n        nextBuyTimestamp = now.add(_periodTimestamp);\n    }\n\n    // GETTERS\n    function getTokenIdByAddress(address userAddress)\n        public\n        view\n        returns (uint256)\n    {\n        return _tokensOfOwner(userAddress)[0];\n    }\n\n    function getAccountBuyAmount(uint256 tokenId)\n        public\n        view\n        returns (uint256)\n    {\n        return _accountOf[tokenId].buyAmount;\n    }\n\n    function getFullAccountBalances(address account, address[] calldata tokens)\n        external\n        returns (uint256[] memory)\n    {\n        _claimDistributions();\n\n        uint256 tokenId = getTokenIdByAddress(account);\n\n        uint256[] memory balances = new uint256[](tokens.length);\n\n        for (uint256 i = 0; i < tokens.length; i++) {\n            balances[i] = _accountOf[tokenId].balance[tokens[i]];\n        }\n\n        return balances;\n    }\n\n    function getFullAccountBalances(address account)\n        external\n        returns (address[] memory, uint256[] memory)\n    {\n        return\n            IDCAFullBalanceHelper(dcaFullBalanceHelper).getFullAccountBalances(\n                address(this),\n                account\n            );\n    }\n\n    // SETTERS\n    function setTokenData(\n        address token,\n        uint256 decimals,\n        address pool,\n        address protocol,\n        address poolToken\n    ) external onlyDCAOperator returns (bool) {\n        tokenDataOf[token] = TokenData({\n            decimals: decimals,\n            pool: pool,\n            protocol: protocol,\n            poolToken: poolToken\n        });\n\n        if (!inRewardPools[pool]) {\n            rewardPools.push(pool);\n            inRewardPools[pool] = true;\n        }\n\n        return true;\n    }\n\n    function setDeadline(uint256 newDeadline) external onlyDCAOperator {\n        deadline = newDeadline;\n    }\n\n    function setProtocolMaxFee(uint256 maxFee) external onlyDCAOperator {\n        protocolMaxFee = maxFee;\n    }\n\n    // CORE\n    function deposit(uint256 amount, uint256 newBuyAmount)\n        external\n        returns (uint256, uint256)\n    {\n        tokenToSell.safeTransferFrom(_msgSender(), address(this), amount);\n\n        // if new user\n        if (balanceOf(_msgSender()) == 0) {\n            uint256 tokenId = _registerNewAccount();\n\n            _withdrawRewardsAndMakeDistribution();\n\n            _accountOf[tokenId].nextDistributionIndex = distributions.length;\n\n            // returns normalized amount of pTokens (mint)\n            (uint256 nDeposit, uint256 dDeposit) = _depositToPool(\n                tokenToSell,\n                amount\n            );\n\n            _refreshAccount(tokenId, dDeposit, 0, newBuyAmount, true);\n\n            emit Deposit(_msgSender(), tokenToSell, amount, newBuyAmount);\n\n            return (nDeposit, dDeposit);\n\n            // if existing user\n        } else {\n            _claimDistributions();\n\n            uint256 tokenId = getTokenIdByAddress(_msgSender());\n\n            // returns normalized amount of pTokens (mint)\n            (uint256 nDeposit, uint256 dDeposit) = _depositToPool(\n                tokenToSell,\n                amount\n            );\n\n            _refreshAccount(\n                tokenId,\n                dDeposit,\n                _accountOf[tokenId].buyAmount,\n                newBuyAmount,\n                true\n            );\n\n            emit Deposit(_msgSender(), tokenToSell, amount, newBuyAmount);\n\n            return (nDeposit, dDeposit);\n        }\n    }\n\n    function withdraw(address token, uint256 amount)\n        external\n        returns (uint256, uint256)\n    {\n        _claimDistributions();\n\n        uint256 tokenId = getTokenIdByAddress(_msgSender());\n\n        require(\n            _accountOf[tokenId].balance[token] >= amount,\n            \"DCAModule-withdraw: withdraw amount exceeds balance\"\n        );\n\n        // returns normalized amount of pTokens (burn)\n        (uint256 nWithdrawal, uint256 dWithdrawal) = _withdrawFromPool(\n            token,\n            amount\n        );\n\n        if (token == tokenToSell) {\n            _refreshAccount(\n                tokenId,\n                dWithdrawal,\n                _accountOf[tokenId].buyAmount,\n                _accountOf[tokenId].buyAmount,\n                false\n            );\n        }\n\n        token.safeTransfer(_msgSender(), dWithdrawal);\n\n        emit Withdrawal(_msgSender(), token, amount);\n\n        return (nWithdrawal, dWithdrawal);\n    }\n\n    function purchase() external onlyDCAOperator {\n        require(now >= nextBuyTimestamp, \"DCAModule-purchase: not time to buy\");\n\n        uint256 dividedBuyAmount = _calculateDividedBuyAmount();\n\n        // returns amounts of original tokens and pool tokens (burn)\n        (, uint256 dWithdrawal) = _withdrawFromPool(\n            tokenToSell,\n            globalPeriodBuyAmount\n        );\n\n        tokenToSell.safeApprove(router, dWithdrawal);\n\n        for (uint256 i = 0; i < tokensToBuy.length; i++) {\n            // uniswap path [tokenToSell, tokenToBuy]\n            address[] memory path = new address[](2);\n            path[0] = tokenToSell;\n            path[1] = tokensToBuy[i];\n\n            _swapAndMakeDistribution(dividedBuyAmount, path);\n        }\n\n        nextBuyTimestamp = nextBuyTimestamp.add(periodTimestamp);\n\n        globalPeriodBuyAmount = globalPeriodBuyAmount.sub(\n            removeAfterDistribution[distributions\n                .length\n                .div(tokensToBuy.length)\n                .sub(0x0001)]\n        );\n\n        // event\n    }\n\n    // PRIVATE (HELPERS)\n    function _setTokensToBuy(address[] memory tokens) private {\n        for (uint256 i = 0; i < tokens.length; i++) {\n            tokensToBuy.push(tokens[i]);\n        }\n    }\n\n    function _refreshAccount(\n        uint256 tokenId,\n        uint256 amount,\n        uint256 oldBuyAmount,\n        uint256 newBuyAmount,\n        bool isIncrementBalance\n    ) private {\n        // inc or dec tokenToSell balance\n        if (isIncrementBalance) {\n            _accountOf[tokenId].balance[tokenToSell] = _accountOf[tokenId]\n                .balance[tokenToSell]\n                .add(amount);\n        } else {\n            _accountOf[tokenId].balance[tokenToSell] = _accountOf[tokenId]\n                .balance[tokenToSell]\n                .sub(amount);\n        }\n\n        if (newBuyAmount != oldBuyAmount) {\n            // update buyAmount\n            _accountOf[tokenId].buyAmount = newBuyAmount; // ?\n\n            // remove oldBuyAmount from globalPeriodBuyAmount and add newBuyAmount\n            globalPeriodBuyAmount = globalPeriodBuyAmount.sub(oldBuyAmount).add(\n                newBuyAmount\n            );\n        }\n\n        // remove oldBuyAmount from removeAfterDistribution\n        removeAfterDistribution[_accountOf[tokenId]\n            .lastRemovalPointIndex] = removeAfterDistribution[_accountOf[tokenId]\n            .lastRemovalPointIndex]\n            .sub(oldBuyAmount);\n\n        // calculate new removalPoint\n        uint256 removalPoint = distributions\n            .length\n            .add(_accountOf[tokenId].balance[tokenToSell].div(newBuyAmount))\n            .sub(0x0001);\n\n        // add newBuyAmount from removeAfterDistribution\n        removeAfterDistribution[removalPoint] = removeAfterDistribution[removalPoint]\n            .add(newBuyAmount);\n\n        _accountOf[tokenId].lastRemovalPointIndex = removalPoint;\n    }\n\n    function _calculatePayout(uint256 distibutionIndex, uint256 buyAmount)\n        private\n        view\n        returns (uint256)\n    {\n        return\n            buyAmount.mul(distributions[distibutionIndex].amountOut).div(\n                distributions[distibutionIndex].amountIn\n            );\n    }\n\n    function _subBuyAmountAndUpdateBalance(\n        uint256 tokenId,\n        uint256 distibutionIndex,\n        uint256 buyAmount,\n        uint256 amount\n    ) private returns (uint256) {\n        _accountOf[tokenId].balance[tokenToSell] = _accountOf[tokenId]\n            .balance[tokenToSell]\n            .sub(buyAmount);\n\n        _accountOf[tokenId].balance[distributions[distibutionIndex]\n            .token] = _accountOf[tokenId]\n            .balance[distributions[distibutionIndex].token]\n            .add(amount);\n    }\n\n    function _calculateDividedBuyAmount() private view returns (uint256) {\n        return globalPeriodBuyAmount.div(tokensToBuy.length);\n    }\n\n    function _withdrawRewardsAndMakeDistribution() private {\n        for (uint256 i = 0; i < rewardPools.length; i++) {\n            address[] memory rewardTokens = ISavingsModule(rewardPools[i])\n                .supportedRewardTokens();\n\n            uint256[] memory rAmounts = ISavingsModule(rewardPools[i])\n                .withdrawReward(rewardTokens);\n\n            for (uint256 j = 0; j < rewardTokens.length; j++) {\n                _makeDistribution(\n                    rewardTokens[j],\n                    globalPeriodBuyAmount,\n                    rAmounts[j]\n                );\n            }\n        }\n    }\n\n    function _claimDistributions() private returns (bool) {\n        _withdrawRewardsAndMakeDistribution();\n\n        uint256 tokenId = getTokenIdByAddress(_msgSender());\n\n        uint256 dividedBuyAmount = _calculateDividedBuyAmount();\n\n        for (\n            uint256 i = _accountOf[tokenId].nextDistributionIndex;\n            i < distributions.length;\n            i++\n        ) {\n            if (distributions[i].token == tokenToSell) {\n                uint256 amount = _calculatePayout(\n                    i,\n                    _accountOf[tokenId].buyAmount\n                );\n\n                _refreshAccount(\n                    tokenId,\n                    amount,\n                    _accountOf[tokenId].buyAmount,\n                    0,\n                    true\n                );\n            } else {\n                if (\n                    _accountOf[tokenId].balance[tokenToSell] >= dividedBuyAmount\n                ) {\n                    uint256 amount = _calculatePayout(i, dividedBuyAmount);\n\n                    _subBuyAmountAndUpdateBalance(\n                        tokenId,\n                        i,\n                        dividedBuyAmount,\n                        amount\n                    );\n                }\n            }\n        }\n\n        _accountOf[tokenId].nextDistributionIndex = distributions.length;\n    }\n\n    function _registerNewAccount() private returns (uint256) {\n        _tokenIds.increment();\n\n        uint256 tokenId = _tokenIds.current();\n\n        _mint(_msgSender(), tokenId);\n\n        return tokenId;\n    }\n\n    function _calculateWithdrawalMaxNAmount(address token, uint256 amount)\n        private\n        view\n        returns (uint256)\n    {\n        // normalized withdrawal amount\n        uint256 nAmount = amount.normalize(tokenDataOf[token].decimals);\n\n        // normalized withdrawal amount + fee\n        return nAmount.add(nAmount.mul(protocolMaxFee).div(1e18));\n    }\n\n    function _makeDistribution(\n        address token,\n        uint256 amountIn,\n        uint256 amountOut\n    ) private {\n        distributions.push(\n            Distribution({\n                token: token,\n                amountIn: amountIn,\n                amountOut: amountOut\n            })\n        );\n    }\n\n    function _calculateYieldAndMakeDistribution(\n        address token,\n        uint256 nAmount,\n        bool isIncrementBalance\n    ) private {\n        uint256 actualBalance = IERC20(tokenDataOf[token].poolToken).balanceOf(\n            address(this)\n        );\n\n        uint256 yield = 0;\n\n        if (isIncrementBalance) {\n            yield = actualBalance.add(nAmount).sub(\n                prevPoolTokenBalanceOf[token]\n            );\n        } else {\n            yield = actualBalance.sub(nAmount).sub(\n                prevPoolTokenBalanceOf[token]\n            );\n        }\n\n        if (yield > 0)\n            _makeDistribution(\n                token,\n                globalPeriodBuyAmount,\n                yield.denormalize(tokenDataOf[token].decimals)\n            );\n    }\n\n    function _depositToPool(address token, uint256 amount)\n        private\n        returns (uint256, uint256)\n    {\n        address[] memory tokens = new address[](1);\n        uint256[] memory amounts = new uint256[](1);\n\n        tokens[0] = token;\n        amounts[0] = amount;\n\n        token.safeApprove(tokenDataOf[token].pool, amount);\n\n        // normalized deposit amount\n        uint256 nDeposit = ISavingsModule(tokenDataOf[token].pool).deposit(\n            tokenDataOf[token].protocol,\n            tokens,\n            amounts\n        );\n\n        // denormalized deposit amount\n        uint256 dDeposit = nDeposit.denormalize(tokenDataOf[token].decimals);\n\n        _calculateYieldAndMakeDistribution(token, nDeposit, true);\n\n        prevPoolTokenBalanceOf[token] = IERC20(tokenDataOf[token].poolToken)\n            .balanceOf(address(this));\n\n        return (nDeposit, dDeposit);\n    }\n\n    function _withdrawFromPool(address token, uint256 amount)\n        private\n        returns (uint256, uint256)\n    {\n        // normalized withdrawal amount (burn)\n        uint256 nWithdrawal = ISavingsModule(tokenDataOf[token].pool).withdraw(\n            tokenDataOf[token].protocol,\n            token,\n            amount,\n            _calculateWithdrawalMaxNAmount(token, amount)\n        );\n\n        // denormalized withdrawal amount (burn)\n        uint256 dWithdrawal = nWithdrawal.denormalize(\n            tokenDataOf[token].decimals\n        );\n\n        _calculateYieldAndMakeDistribution(token, nWithdrawal, false);\n\n        prevPoolTokenBalanceOf[token] = IERC20(tokenDataOf[token].poolToken)\n            .balanceOf(address(this));\n\n        return (nWithdrawal, dWithdrawal);\n    }\n\n    function _swapAndMakeDistribution(uint256 amountIn, address[] memory path)\n        private\n    {\n        uint256[] memory amountsOut = IUniswapV2Router02(router).getAmountsOut(\n            amountIn,\n            path\n        );\n\n        uint256[] memory amounts = IUniswapV2Router02(router)\n            .swapExactTokensForTokens(\n            amountIn,\n            amountsOut[1],\n            path,\n            address(this),\n            deadline\n        );\n\n        // returns normalized amount of pTokens (mint)\n        (, uint256 dDeposit) = _depositToPool(path[1], amounts[1]);\n\n        _makeDistribution(path[1], amounts[0], dDeposit);\n    }\n}\n",
  "sourcePath": "/Users/ilya/Documents/Akropolis/dca-strategy-bot/contracts/modules/dca/DCAModule.sol",
  "compiler": {
    "name": "solc",
    "version": "0.5.17+commit.d19bba13.Emscripten.clang"
  },
  "schemaVersion": "3.2.3",
  "updatedAt": "2020-08-09T16:13:08.532Z",
  "devdoc": {
    "methods": {
      "approve(address,uint256)": {
        "details": "Approves another address to transfer the given token ID The zero address indicates there is no approved address. There can only be one approved address per token at a given time. Can only be called by the token owner or an approved operator.",
        "params": {
          "to": "address to be approved for the given token ID",
          "tokenId": "uint256 ID of the token to be approved"
        }
      },
      "balanceOf(address)": {
        "details": "Gets the balance of the specified address.",
        "params": {
          "owner": "address to query the balance of"
        },
        "return": "uint256 representing the amount owned by the passed address"
      },
      "baseURI()": {
        "details": "Returns the base URI set via {_setBaseURI}. This will be automatically added as a preffix in {tokenURI} to each token's URI, when they are non-empty.    * _Available since v2.5.0._"
      },
      "burn(uint256)": {
        "details": "Burns a specific ERC721 token.",
        "params": {
          "tokenId": "uint256 id of the ERC721 token to be burned."
        }
      },
      "getApproved(uint256)": {
        "details": "Gets the approved address for a token ID, or zero if no address set Reverts if the token ID does not exist.",
        "params": {
          "tokenId": "uint256 ID of the token to query the approval of"
        },
        "return": "address currently approved for the given token ID"
      },
      "initialize()": {
        "details": "Constructor function."
      },
      "initialize(string,string)": {
        "details": "Constructor function"
      },
      "isApprovedForAll(address,address)": {
        "details": "Tells whether an operator is approved by a given owner.",
        "params": {
          "operator": "operator address which you want to query the approval of",
          "owner": "owner address which you want to query the approval of"
        },
        "return": "bool whether the given operator is approved by the given owner"
      },
      "isOwner()": {
        "details": "Returns true if the caller is the current owner."
      },
      "name()": {
        "details": "Gets the token name.",
        "return": "string representing the token name"
      },
      "owner()": {
        "details": "Returns the address of the current owner."
      },
      "ownerOf(uint256)": {
        "details": "Gets the owner of the specified token ID.",
        "params": {
          "tokenId": "uint256 ID of the token to query the owner of"
        },
        "return": "address currently marked as the owner of the given token ID"
      },
      "renounceOwnership()": {
        "details": "Leaves the contract without owner. It will not be possible to call `onlyOwner` functions anymore. Can only be called by the current owner.     * > Note: Renouncing ownership will leave the contract without an owner, thereby removing any functionality that is only available to the owner."
      },
      "safeTransferFrom(address,address,uint256)": {
        "details": "Safely transfers the ownership of a given token ID to another address If the target address is a contract, it must implement {IERC721Receiver-onERC721Received}, which is called upon a safe transfer, and return the magic value `bytes4(keccak256(\"onERC721Received(address,address,uint256,bytes)\"))`; otherwise, the transfer is reverted. Requires the msg.sender to be the owner, approved, or operator",
        "params": {
          "from": "current owner of the token",
          "to": "address to receive the ownership of the given token ID",
          "tokenId": "uint256 ID of the token to be transferred"
        }
      },
      "safeTransferFrom(address,address,uint256,bytes)": {
        "details": "Safely transfers the ownership of a given token ID to another address If the target address is a contract, it must implement {IERC721Receiver-onERC721Received}, which is called upon a safe transfer, and return the magic value `bytes4(keccak256(\"onERC721Received(address,address,uint256,bytes)\"))`; otherwise, the transfer is reverted. Requires the _msgSender() to be the owner, approved, or operator",
        "params": {
          "_data": "bytes data to send along with a safe transfer check",
          "from": "current owner of the token",
          "to": "address to receive the ownership of the given token ID",
          "tokenId": "uint256 ID of the token to be transferred"
        }
      },
      "setApprovalForAll(address,bool)": {
        "details": "Sets or unsets the approval of a given operator An operator is allowed to transfer all tokens of the sender on their behalf.",
        "params": {
          "approved": "representing the status of the approval to be set",
          "to": "operator address to set the approval"
        }
      },
      "supportsInterface(bytes4)": {
        "details": "See {IERC165-supportsInterface}.     * Time complexity O(1), guaranteed to always use less than 30 000 gas."
      },
      "symbol()": {
        "details": "Gets the token symbol.",
        "return": "string representing the token symbol"
      },
      "tokenByIndex(uint256)": {
        "details": "Gets the token ID at a given index of all the tokens in this contract Reverts if the index is greater or equal to the total number of tokens.",
        "params": {
          "index": "uint256 representing the index to be accessed of the tokens list"
        },
        "return": "uint256 token ID at the given index of the tokens list"
      },
      "tokenOfOwnerByIndex(address,uint256)": {
        "details": "Gets the token ID at a given index of the tokens list of the requested owner.",
        "params": {
          "index": "uint256 representing the index to be accessed of the requested tokens list",
          "owner": "address owning the tokens list to be accessed"
        },
        "return": "uint256 token ID at the given index of the tokens list owned by the requested address"
      },
      "tokenURI(uint256)": {
        "details": "Returns the URI for a given token ID. May return an empty string.     * If the token's URI is non-empty and a base URI was set (via {_setBaseURI}), it will be added to the token ID's URI as a prefix.     * Reverts if the token ID does not exist."
      },
      "totalSupply()": {
        "details": "Gets the total amount of tokens stored by the contract.",
        "return": "uint256 representing the total amount of tokens"
      },
      "transferFrom(address,address,uint256)": {
        "details": "Transfers the ownership of a given token ID to another address. Usage of this method is discouraged, use {safeTransferFrom} whenever possible. Requires the msg.sender to be the owner, approved, or operator.",
        "params": {
          "from": "current owner of the token",
          "to": "address to receive the ownership of the given token ID",
          "tokenId": "uint256 ID of the token to be transferred"
        }
      },
      "transferOwnership(address)": {
        "details": "Transfers ownership of the contract to a new account (`newOwner`). Can only be called by the current owner."
      }
    }
  },
  "userdoc": {
    "methods": {}
  }
}