{
  "contractName": "DCAModule",
  "abi": [
    {
      "anonymous": false,
      "inputs": [
        {
          "indexed": true,
          "internalType": "address",
          "name": "owner",
          "type": "address"
        },
        {
          "indexed": true,
          "internalType": "address",
          "name": "approved",
          "type": "address"
        },
        {
          "indexed": true,
          "internalType": "uint256",
          "name": "tokenId",
          "type": "uint256"
        }
      ],
      "name": "Approval",
      "type": "event"
    },
    {
      "anonymous": false,
      "inputs": [
        {
          "indexed": true,
          "internalType": "address",
          "name": "owner",
          "type": "address"
        },
        {
          "indexed": true,
          "internalType": "address",
          "name": "operator",
          "type": "address"
        },
        {
          "indexed": false,
          "internalType": "bool",
          "name": "approved",
          "type": "bool"
        }
      ],
      "name": "ApprovalForAll",
      "type": "event"
    },
    {
      "anonymous": false,
      "inputs": [
        {
          "indexed": true,
          "internalType": "address",
          "name": "account",
          "type": "address"
        }
      ],
      "name": "DCAOperatorAdded",
      "type": "event"
    },
    {
      "anonymous": false,
      "inputs": [
        {
          "indexed": true,
          "internalType": "address",
          "name": "account",
          "type": "address"
        }
      ],
      "name": "DCAOperatorRemoved",
      "type": "event"
    },
    {
      "anonymous": false,
      "inputs": [
        {
          "indexed": false,
          "internalType": "address",
          "name": "user",
          "type": "address"
        },
        {
          "indexed": false,
          "internalType": "address",
          "name": "token",
          "type": "address"
        },
        {
          "indexed": false,
          "internalType": "uint256",
          "name": "amount",
          "type": "uint256"
        },
        {
          "indexed": false,
          "internalType": "uint256",
          "name": "newBuyAmount",
          "type": "uint256"
        }
      ],
      "name": "Deposit",
      "type": "event"
    },
    {
      "anonymous": false,
      "inputs": [
        {
          "indexed": true,
          "internalType": "address",
          "name": "previousOwner",
          "type": "address"
        },
        {
          "indexed": true,
          "internalType": "address",
          "name": "newOwner",
          "type": "address"
        }
      ],
      "name": "OwnershipTransferred",
      "type": "event"
    },
    {
      "anonymous": false,
      "inputs": [
        {
          "indexed": false,
          "internalType": "address",
          "name": "newPool",
          "type": "address"
        }
      ],
      "name": "PoolAddressChanged",
      "type": "event"
    },
    {
      "anonymous": false,
      "inputs": [
        {
          "indexed": true,
          "internalType": "address",
          "name": "from",
          "type": "address"
        },
        {
          "indexed": true,
          "internalType": "address",
          "name": "to",
          "type": "address"
        },
        {
          "indexed": true,
          "internalType": "uint256",
          "name": "tokenId",
          "type": "uint256"
        }
      ],
      "name": "Transfer",
      "type": "event"
    },
    {
      "anonymous": false,
      "inputs": [
        {
          "indexed": false,
          "internalType": "address",
          "name": "user",
          "type": "address"
        },
        {
          "indexed": false,
          "internalType": "address",
          "name": "token",
          "type": "address"
        },
        {
          "indexed": false,
          "internalType": "uint256",
          "name": "amount",
          "type": "uint256"
        }
      ],
      "name": "Withdrawal",
      "type": "event"
    },
    {
      "constant": true,
      "inputs": [
        {
          "internalType": "uint256",
          "name": "",
          "type": "uint256"
        }
      ],
      "name": "_accountOf",
      "outputs": [
        {
          "internalType": "uint256",
          "name": "buyAmount",
          "type": "uint256"
        },
        {
          "internalType": "uint256",
          "name": "nextDistributionIndex",
          "type": "uint256"
        },
        {
          "internalType": "uint256",
          "name": "lastRemovalPointIndex",
          "type": "uint256"
        }
      ],
      "payable": false,
      "stateMutability": "view",
      "type": "function"
    },
    {
      "constant": false,
      "inputs": [
        {
          "internalType": "address",
          "name": "account",
          "type": "address"
        }
      ],
      "name": "addDCAOperator",
      "outputs": [],
      "payable": false,
      "stateMutability": "nonpayable",
      "type": "function"
    },
    {
      "constant": false,
      "inputs": [
        {
          "internalType": "address",
          "name": "to",
          "type": "address"
        },
        {
          "internalType": "uint256",
          "name": "tokenId",
          "type": "uint256"
        }
      ],
      "name": "approve",
      "outputs": [],
      "payable": false,
      "stateMutability": "nonpayable",
      "type": "function"
    },
    {
      "constant": true,
      "inputs": [
        {
          "internalType": "address",
          "name": "owner",
          "type": "address"
        }
      ],
      "name": "balanceOf",
      "outputs": [
        {
          "internalType": "uint256",
          "name": "",
          "type": "uint256"
        }
      ],
      "payable": false,
      "stateMutability": "view",
      "type": "function"
    },
    {
      "constant": true,
      "inputs": [],
      "name": "baseURI",
      "outputs": [
        {
          "internalType": "string",
          "name": "",
          "type": "string"
        }
      ],
      "payable": false,
      "stateMutability": "view",
      "type": "function"
    },
    {
      "constant": false,
      "inputs": [
        {
          "internalType": "uint256",
          "name": "tokenId",
          "type": "uint256"
        }
      ],
      "name": "burn",
      "outputs": [],
      "payable": false,
      "stateMutability": "nonpayable",
      "type": "function"
    },
    {
      "constant": true,
      "inputs": [],
      "name": "dcaFullBalanceHelper",
      "outputs": [
        {
          "internalType": "address",
          "name": "",
          "type": "address"
        }
      ],
      "payable": false,
      "stateMutability": "view",
      "type": "function"
    },
    {
      "constant": true,
      "inputs": [],
      "name": "deadline",
      "outputs": [
        {
          "internalType": "uint256",
          "name": "",
          "type": "uint256"
        }
      ],
      "payable": false,
      "stateMutability": "view",
      "type": "function"
    },
    {
      "constant": true,
      "inputs": [
        {
          "internalType": "uint256",
          "name": "",
          "type": "uint256"
        }
      ],
      "name": "distributions",
      "outputs": [
        {
          "internalType": "address",
          "name": "token",
          "type": "address"
        },
        {
          "internalType": "uint256",
          "name": "amountIn",
          "type": "uint256"
        },
        {
          "internalType": "uint256",
          "name": "amountOut",
          "type": "uint256"
        }
      ],
      "payable": false,
      "stateMutability": "view",
      "type": "function"
    },
    {
      "constant": true,
      "inputs": [
        {
          "internalType": "uint256",
          "name": "tokenId",
          "type": "uint256"
        }
      ],
      "name": "getApproved",
      "outputs": [
        {
          "internalType": "address",
          "name": "",
          "type": "address"
        }
      ],
      "payable": false,
      "stateMutability": "view",
      "type": "function"
    },
    {
      "constant": true,
      "inputs": [
        {
          "internalType": "string",
          "name": "module",
          "type": "string"
        }
      ],
      "name": "getModuleAddress",
      "outputs": [
        {
          "internalType": "address",
          "name": "",
          "type": "address"
        }
      ],
      "payable": false,
      "stateMutability": "view",
      "type": "function"
    },
    {
      "constant": true,
      "inputs": [],
      "name": "globalPeriodBuyAmount",
      "outputs": [
        {
          "internalType": "uint256",
          "name": "",
          "type": "uint256"
        }
      ],
      "payable": false,
      "stateMutability": "view",
      "type": "function"
    },
    {
      "constant": true,
      "inputs": [
        {
          "internalType": "address",
          "name": "owner",
          "type": "address"
        },
        {
          "internalType": "address",
          "name": "operator",
          "type": "address"
        }
      ],
      "name": "isApprovedForAll",
      "outputs": [
        {
          "internalType": "bool",
          "name": "",
          "type": "bool"
        }
      ],
      "payable": false,
      "stateMutability": "view",
      "type": "function"
    },
    {
      "constant": true,
      "inputs": [
        {
          "internalType": "address",
          "name": "account",
          "type": "address"
        }
      ],
      "name": "isDCAOperator",
      "outputs": [
        {
          "internalType": "bool",
          "name": "",
          "type": "bool"
        }
      ],
      "payable": false,
      "stateMutability": "view",
      "type": "function"
    },
    {
      "constant": true,
      "inputs": [],
      "name": "isOwner",
      "outputs": [
        {
          "internalType": "bool",
          "name": "",
          "type": "bool"
        }
      ],
      "payable": false,
      "stateMutability": "view",
      "type": "function"
    },
    {
      "constant": true,
      "inputs": [],
      "name": "name",
      "outputs": [
        {
          "internalType": "string",
          "name": "",
          "type": "string"
        }
      ],
      "payable": false,
      "stateMutability": "view",
      "type": "function"
    },
    {
      "constant": true,
      "inputs": [],
      "name": "nextBuyTimestamp",
      "outputs": [
        {
          "internalType": "uint256",
          "name": "",
          "type": "uint256"
        }
      ],
      "payable": false,
      "stateMutability": "view",
      "type": "function"
    },
    {
      "constant": true,
      "inputs": [],
      "name": "owner",
      "outputs": [
        {
          "internalType": "address",
          "name": "",
          "type": "address"
        }
      ],
      "payable": false,
      "stateMutability": "view",
      "type": "function"
    },
    {
      "constant": true,
      "inputs": [
        {
          "internalType": "uint256",
          "name": "tokenId",
          "type": "uint256"
        }
      ],
      "name": "ownerOf",
      "outputs": [
        {
          "internalType": "address",
          "name": "",
          "type": "address"
        }
      ],
      "payable": false,
      "stateMutability": "view",
      "type": "function"
    },
    {
      "constant": true,
      "inputs": [],
      "name": "periodTimestamp",
      "outputs": [
        {
          "internalType": "uint256",
          "name": "",
          "type": "uint256"
        }
      ],
      "payable": false,
      "stateMutability": "view",
      "type": "function"
    },
    {
      "constant": true,
      "inputs": [],
      "name": "pool",
      "outputs": [
        {
          "internalType": "address",
          "name": "",
          "type": "address"
        }
      ],
      "payable": false,
      "stateMutability": "view",
      "type": "function"
    },
    {
      "constant": true,
      "inputs": [
        {
          "internalType": "address",
          "name": "",
          "type": "address"
        }
      ],
      "name": "prevPoolTokenBalanceOf",
      "outputs": [
        {
          "internalType": "uint256",
          "name": "",
          "type": "uint256"
        }
      ],
      "payable": false,
      "stateMutability": "view",
      "type": "function"
    },
    {
      "constant": true,
      "inputs": [],
      "name": "protocolMaxFee",
      "outputs": [
        {
          "internalType": "uint256",
          "name": "",
          "type": "uint256"
        }
      ],
      "payable": false,
      "stateMutability": "view",
      "type": "function"
    },
    {
      "constant": true,
      "inputs": [
        {
          "internalType": "uint256",
          "name": "",
          "type": "uint256"
        }
      ],
      "name": "removeAfterDistribution",
      "outputs": [
        {
          "internalType": "uint256",
          "name": "",
          "type": "uint256"
        }
      ],
      "payable": false,
      "stateMutability": "view",
      "type": "function"
    },
    {
      "constant": false,
      "inputs": [],
      "name": "renounceDCAOperator",
      "outputs": [],
      "payable": false,
      "stateMutability": "nonpayable",
      "type": "function"
    },
    {
      "constant": false,
      "inputs": [],
      "name": "renounceOwnership",
      "outputs": [],
      "payable": false,
      "stateMutability": "nonpayable",
      "type": "function"
    },
    {
      "constant": true,
      "inputs": [
        {
          "internalType": "uint256",
          "name": "",
          "type": "uint256"
        }
      ],
      "name": "rewardPools",
      "outputs": [
        {
          "internalType": "address",
          "name": "",
          "type": "address"
        }
      ],
      "payable": false,
      "stateMutability": "view",
      "type": "function"
    },
    {
      "constant": true,
      "inputs": [],
      "name": "router",
      "outputs": [
        {
          "internalType": "address",
          "name": "",
          "type": "address"
        }
      ],
      "payable": false,
      "stateMutability": "view",
      "type": "function"
    },
    {
      "constant": false,
      "inputs": [
        {
          "internalType": "address",
          "name": "from",
          "type": "address"
        },
        {
          "internalType": "address",
          "name": "to",
          "type": "address"
        },
        {
          "internalType": "uint256",
          "name": "tokenId",
          "type": "uint256"
        }
      ],
      "name": "safeTransferFrom",
      "outputs": [],
      "payable": false,
      "stateMutability": "nonpayable",
      "type": "function"
    },
    {
      "constant": false,
      "inputs": [
        {
          "internalType": "address",
          "name": "from",
          "type": "address"
        },
        {
          "internalType": "address",
          "name": "to",
          "type": "address"
        },
        {
          "internalType": "uint256",
          "name": "tokenId",
          "type": "uint256"
        },
        {
          "internalType": "bytes",
          "name": "_data",
          "type": "bytes"
        }
      ],
      "name": "safeTransferFrom",
      "outputs": [],
      "payable": false,
      "stateMutability": "nonpayable",
      "type": "function"
    },
    {
      "constant": false,
      "inputs": [
        {
          "internalType": "address",
          "name": "to",
          "type": "address"
        },
        {
          "internalType": "bool",
          "name": "approved",
          "type": "bool"
        }
      ],
      "name": "setApprovalForAll",
      "outputs": [],
      "payable": false,
      "stateMutability": "nonpayable",
      "type": "function"
    },
    {
      "constant": false,
      "inputs": [
        {
          "internalType": "address",
          "name": "_pool",
          "type": "address"
        }
      ],
      "name": "setPool",
      "outputs": [],
      "payable": false,
      "stateMutability": "nonpayable",
      "type": "function"
    },
    {
      "constant": true,
      "inputs": [
        {
          "internalType": "bytes4",
          "name": "interfaceId",
          "type": "bytes4"
        }
      ],
      "name": "supportsInterface",
      "outputs": [
        {
          "internalType": "bool",
          "name": "",
          "type": "bool"
        }
      ],
      "payable": false,
      "stateMutability": "view",
      "type": "function"
    },
    {
      "constant": true,
      "inputs": [],
      "name": "symbol",
      "outputs": [
        {
          "internalType": "string",
          "name": "",
          "type": "string"
        }
      ],
      "payable": false,
      "stateMutability": "view",
      "type": "function"
    },
    {
      "constant": true,
      "inputs": [
        {
          "internalType": "uint256",
          "name": "index",
          "type": "uint256"
        }
      ],
      "name": "tokenByIndex",
      "outputs": [
        {
          "internalType": "uint256",
          "name": "",
          "type": "uint256"
        }
      ],
      "payable": false,
      "stateMutability": "view",
      "type": "function"
    },
    {
      "constant": true,
      "inputs": [
        {
          "internalType": "address",
          "name": "",
          "type": "address"
        }
      ],
      "name": "tokenDataOf",
      "outputs": [
        {
          "internalType": "uint256",
          "name": "decimals",
          "type": "uint256"
        },
        {
          "internalType": "address",
          "name": "pool",
          "type": "address"
        },
        {
          "internalType": "address",
          "name": "protocol",
          "type": "address"
        },
        {
          "internalType": "address",
          "name": "poolToken",
          "type": "address"
        }
      ],
      "payable": false,
      "stateMutability": "view",
      "type": "function"
    },
    {
      "constant": true,
      "inputs": [
        {
          "internalType": "address",
          "name": "owner",
          "type": "address"
        },
        {
          "internalType": "uint256",
          "name": "index",
          "type": "uint256"
        }
      ],
      "name": "tokenOfOwnerByIndex",
      "outputs": [
        {
          "internalType": "uint256",
          "name": "",
          "type": "uint256"
        }
      ],
      "payable": false,
      "stateMutability": "view",
      "type": "function"
    },
    {
      "constant": true,
      "inputs": [],
      "name": "tokenToSell",
      "outputs": [
        {
          "internalType": "address",
          "name": "",
          "type": "address"
        }
      ],
      "payable": false,
      "stateMutability": "view",
      "type": "function"
    },
    {
      "constant": true,
      "inputs": [
        {
          "internalType": "uint256",
          "name": "tokenId",
          "type": "uint256"
        }
      ],
      "name": "tokenURI",
      "outputs": [
        {
          "internalType": "string",
          "name": "",
          "type": "string"
        }
      ],
      "payable": false,
      "stateMutability": "view",
      "type": "function"
    },
    {
      "constant": true,
      "inputs": [
        {
          "internalType": "uint256",
          "name": "",
          "type": "uint256"
        }
      ],
      "name": "tokensToBuy",
      "outputs": [
        {
          "internalType": "address",
          "name": "",
          "type": "address"
        }
      ],
      "payable": false,
      "stateMutability": "view",
      "type": "function"
    },
    {
      "constant": true,
      "inputs": [],
      "name": "totalSupply",
      "outputs": [
        {
          "internalType": "uint256",
          "name": "",
          "type": "uint256"
        }
      ],
      "payable": false,
      "stateMutability": "view",
      "type": "function"
    },
    {
      "constant": false,
      "inputs": [
        {
          "internalType": "address",
          "name": "from",
          "type": "address"
        },
        {
          "internalType": "address",
          "name": "to",
          "type": "address"
        },
        {
          "internalType": "uint256",
          "name": "tokenId",
          "type": "uint256"
        }
      ],
      "name": "transferFrom",
      "outputs": [],
      "payable": false,
      "stateMutability": "nonpayable",
      "type": "function"
    },
    {
      "constant": false,
      "inputs": [
        {
          "internalType": "address",
          "name": "newOwner",
          "type": "address"
        }
      ],
      "name": "transferOwnership",
      "outputs": [],
      "payable": false,
      "stateMutability": "nonpayable",
      "type": "function"
    },
    {
      "constant": false,
      "inputs": [
        {
          "internalType": "string",
          "name": "name",
          "type": "string"
        },
        {
          "internalType": "string",
          "name": "symbol",
          "type": "string"
        }
      ],
      "name": "initialize",
      "outputs": [],
      "payable": false,
      "stateMutability": "nonpayable",
      "type": "function"
    },
    {
      "constant": false,
      "inputs": [],
      "name": "initialize",
      "outputs": [],
      "payable": false,
      "stateMutability": "nonpayable",
      "type": "function"
    },
    {
      "constant": false,
      "inputs": [
        {
          "internalType": "string",
          "name": "_name",
          "type": "string"
        },
        {
          "internalType": "string",
          "name": "_symbol",
          "type": "string"
        },
        {
          "internalType": "address",
          "name": "_osPool",
          "type": "address"
        },
        {
          "internalType": "address",
          "name": "_tokenToSell",
          "type": "address"
        },
        {
          "internalType": "address[]",
          "name": "_tokensToBuy",
          "type": "address[]"
        },
        {
          "internalType": "address",
          "name": "_router",
          "type": "address"
        },
        {
          "internalType": "uint256",
          "name": "_periodTimestamp",
          "type": "uint256"
        },
        {
          "internalType": "address",
          "name": "bot",
          "type": "address"
        }
      ],
      "name": "initialize",
      "outputs": [],
      "payable": false,
      "stateMutability": "nonpayable",
      "type": "function"
    },
    {
      "constant": false,
      "inputs": [
        {
          "internalType": "address",
          "name": "sender",
          "type": "address"
        }
      ],
      "name": "initialize",
      "outputs": [],
      "payable": false,
      "stateMutability": "nonpayable",
      "type": "function"
    },
    {
      "constant": true,
      "inputs": [
        {
          "internalType": "address",
          "name": "userAddress",
          "type": "address"
        }
      ],
      "name": "getTokenIdByAddress",
      "outputs": [
        {
          "internalType": "uint256",
          "name": "",
          "type": "uint256"
        }
      ],
      "payable": false,
      "stateMutability": "view",
      "type": "function"
    },
    {
      "constant": true,
      "inputs": [
        {
          "internalType": "uint256",
          "name": "tokenId",
          "type": "uint256"
        },
        {
          "internalType": "address",
          "name": "token",
          "type": "address"
        }
      ],
      "name": "getAccountBalance",
      "outputs": [
        {
          "internalType": "uint256",
          "name": "",
          "type": "uint256"
        }
      ],
      "payable": false,
      "stateMutability": "view",
      "type": "function"
    },
    {
      "constant": false,
      "inputs": [
        {
          "internalType": "address",
          "name": "account",
          "type": "address"
        },
        {
          "internalType": "address[]",
          "name": "tokens",
          "type": "address[]"
        }
      ],
      "name": "getFullAccountBalances",
      "outputs": [
        {
          "internalType": "uint256[]",
          "name": "",
          "type": "uint256[]"
        }
      ],
      "payable": false,
      "stateMutability": "nonpayable",
      "type": "function"
    },
    {
      "constant": false,
      "inputs": [
        {
          "internalType": "address",
          "name": "account",
          "type": "address"
        }
      ],
      "name": "getFullAccountBalances",
      "outputs": [
        {
          "internalType": "address[]",
          "name": "",
          "type": "address[]"
        },
        {
          "internalType": "uint256[]",
          "name": "",
          "type": "uint256[]"
        }
      ],
      "payable": false,
      "stateMutability": "nonpayable",
      "type": "function"
    },
    {
      "constant": false,
      "inputs": [
        {
          "internalType": "address",
          "name": "token",
          "type": "address"
        },
        {
          "internalType": "uint256",
          "name": "decimals",
          "type": "uint256"
        },
        {
          "internalType": "address",
          "name": "pool",
          "type": "address"
        },
        {
          "internalType": "address",
          "name": "protocol",
          "type": "address"
        },
        {
          "internalType": "address",
          "name": "poolToken",
          "type": "address"
        }
      ],
      "name": "setTokenData",
      "outputs": [
        {
          "internalType": "bool",
          "name": "",
          "type": "bool"
        }
      ],
      "payable": false,
      "stateMutability": "nonpayable",
      "type": "function"
    },
    {
      "constant": false,
      "inputs": [
        {
          "internalType": "uint256",
          "name": "newDeadline",
          "type": "uint256"
        }
      ],
      "name": "setDeadline",
      "outputs": [],
      "payable": false,
      "stateMutability": "nonpayable",
      "type": "function"
    },
    {
      "constant": false,
      "inputs": [
        {
          "internalType": "uint256",
          "name": "maxFee",
          "type": "uint256"
        }
      ],
      "name": "setProtocolMaxFee",
      "outputs": [],
      "payable": false,
      "stateMutability": "nonpayable",
      "type": "function"
    },
    {
      "constant": false,
      "inputs": [
        {
          "internalType": "uint256",
          "name": "amount",
          "type": "uint256"
        },
        {
          "internalType": "uint256",
          "name": "newBuyAmount",
          "type": "uint256"
        }
      ],
      "name": "deposit",
      "outputs": [
        {
          "internalType": "uint256",
          "name": "",
          "type": "uint256"
        },
        {
          "internalType": "uint256",
          "name": "",
          "type": "uint256"
        }
      ],
      "payable": false,
      "stateMutability": "nonpayable",
      "type": "function"
    },
    {
      "constant": false,
      "inputs": [
        {
          "internalType": "address",
          "name": "token",
          "type": "address"
        },
        {
          "internalType": "uint256",
          "name": "amount",
          "type": "uint256"
        }
      ],
      "name": "withdraw",
      "outputs": [
        {
          "internalType": "uint256",
          "name": "",
          "type": "uint256"
        },
        {
          "internalType": "uint256",
          "name": "",
          "type": "uint256"
        }
      ],
      "payable": false,
      "stateMutability": "nonpayable",
      "type": "function"
    },
    {
      "constant": false,
      "inputs": [],
      "name": "purchase",
      "outputs": [],
      "payable": false,
      "stateMutability": "nonpayable",
      "type": "function"
    }
  ],
  "bytecode": "0x6080604052615fac806100136000396000f3fe608060405234801561001057600080fd5b50600436106103835760003560e01c806370a08231116101de578063b22768581161010f578063e985e9c5116100ad578063f3fef3a31161007c578063f3fef3a314610f17578063f887ea4014610f43578063f9cf285714610f4b578063fae43f4914610fa257610383565b8063e985e9c514610e77578063eebbf1a714610ea5578063f2d36baa14610ecb578063f2fde38b14610ef157610383565b8063c7273895116100e9578063c727389514610d39578063c87b56dd14610d5f578063e0b5417314610d7c578063e2bbb15814610e3b57610383565b8063b227685814610c45578063b88d4fde14610c4d578063c4d66de814610d1357610383565b806389d7ac351161017c5780638f32d59b116101565780638f32d59b14610bea57806395d89b4114610bf257806397b84a0f14610bfa578063a22cb46514610c1757610383565b806389d7ac3514610a755780638cbab7e414610bbc5780638da5cb5b14610be257610383565b806375c5d44b116101b857806375c5d44b14610a175780637bd203b914610a5d5780638129fc1c14610a6557806389886e8514610a6d57610383565b806370a0823114610943578063715018a61461096957806371dc760f1461097157610383565b80634437152a116102b857806360cd9e25116102565780636c0360eb116102305780636c0360eb146108db5780636cd07154146108e35780636f75be9a146108eb5780637004e4261461090857610383565b806360cd9e25146108ae5780636352211e146108b657806364edfbf0146108d357610383565b8063487e880511610292578063487e88051461071b5780634cd88b76146107385780634f6ccce7146108655780635e81300a1461088257610383565b80634437152a146106935780634487d3df146106b957806346abf391146106fe57610383565b8063195199f61161032557806329dcb0cf116102ff57806329dcb0cf1461060c5780632f745c591461061457806342842e0e1461064057806342966c681461067657610383565b8063195199f6146105b15780631dd3f0e9146105ce57806323b872dd146105d657610383565b8063081812fc11610361578063081812fc14610528578063095ea7b31461056157806316f0115b1461058f57806318160ddd1461059757610383565b806301ffc9a7146103885780630512c83c146103db57806306fdde03146104ab575b600080fd5b6103c76004803603602081101561039e57600080fd5b50357fffffffff0000000000000000000000000000000000000000000000000000000016610faa565b604080519115158252519081900360200190f35b61045b600480360360408110156103f157600080fd5b6001600160a01b03823516919081019060408101602082013564010000000081111561041c57600080fd5b82018360208201111561042e57600080fd5b8035906020019184602083028401116401000000008311171561045057600080fd5b509092509050610fe5565b60408051602080825283518183015283519192839290830191858101910280838360005b8381101561049757818101518382015260200161047f565b505050509050019250505060405180910390f35b6104b36110b0565b6040805160208082528351818301528351919283929083019185019080838360005b838110156104ed5781810151838201526020016104d5565b50505050905090810190601f16801561051a5780820380516001836020036101000a031916815260200191505b509250505060405180910390f35b6105456004803603602081101561053e57600080fd5b5035611148565b604080516001600160a01b039092168252519081900360200190f35b61058d6004803603604081101561057757600080fd5b506001600160a01b0381351690602001356111aa565b005b6105456112df565b61059f6112ee565b60408051918252519081900360200190f35b61058d600480360360208110156105c757600080fd5b50356112f4565b61058d611345565b61058d600480360360608110156105ec57600080fd5b506001600160a01b03813581169160208101359091169060400135611357565b61059f6113b3565b61059f6004803603604081101561062a57600080fd5b506001600160a01b0381351690602001356113ba565b61058d6004803603606081101561065657600080fd5b506001600160a01b0381358116916020810135909116906040013561143a565b61058d6004803603602081101561068c57600080fd5b5035611455565b61058d600480360360208110156106a957600080fd5b50356001600160a01b03166114a7565b6106d6600480360360208110156106cf57600080fd5b50356115a6565b604080516001600160a01b039094168452602084019290925282820152519081900360600190f35b6105456004803603602081101561071457600080fd5b50356115e1565b61058d6004803603602081101561073157600080fd5b5035611609565b61058d6004803603604081101561074e57600080fd5b81019060208101813564010000000081111561076957600080fd5b82018360208201111561077b57600080fd5b8035906020019184600183028401116401000000008311171561079d57600080fd5b91908080601f01602080910402602001604051908101604052809392919081815260200183838082843760009201919091525092959493602081019350359150506401000000008111156107f057600080fd5b82018360208201111561080257600080fd5b8035906020019184600183028401116401000000008311171561082457600080fd5b91908080601f016020809104026020016040519081016040528093929190818152602001838380828437600092019190915250929550611655945050505050565b61059f6004803603602081101561087b57600080fd5b503561175c565b61059f6004803603604081101561089857600080fd5b50803590602001356001600160a01b03166117c2565b6105456117eb565b610545600480360360208110156108cc57600080fd5b50356117fb565b61058d61184f565b6104b3611a7b565b610545611add565b6105456004803603602081101561090157600080fd5b5035611aed565b6109256004803603602081101561091e57600080fd5b5035611afb565b60408051938452602084019290925282820152519081900360600190f35b61059f6004803603602081101561095957600080fd5b50356001600160a01b0316611b20565b61058d611b88565b6105456004803603602081101561098757600080fd5b8101906020810181356401000000008111156109a257600080fd5b8201836020820111156109b457600080fd5b803590602001918460018302840111640100000000831117156109d657600080fd5b91908080601f016020809104026020016040519081016040528093929190818152602001838380828437600092019190915250929550611c38945050505050565b6103c7600480360360a0811015610a2d57600080fd5b506001600160a01b0381358116916020810135916040820135811691606081013582169160809091013516611e7f565b61059f611fed565b61058d611ff4565b61059f6120cf565b61058d6004803603610100811015610a8c57600080fd5b810190602081018135640100000000811115610aa757600080fd5b820183602082011115610ab957600080fd5b80359060200191846001830284011164010000000083111715610adb57600080fd5b919390929091602081019035640100000000811115610af957600080fd5b820183602082011115610b0b57600080fd5b80359060200191846001830284011164010000000083111715610b2d57600080fd5b919390926001600160a01b0383358116936020810135909116929190606081019060400135640100000000811115610b6457600080fd5b820183602082011115610b7657600080fd5b80359060200191846020830284011164010000000083111715610b9857600080fd5b91935091506001600160a01b038135811691602081013591604090910135166120d6565b61059f60048036036020811015610bd257600080fd5b50356001600160a01b03166122be565b6105456122d5565b6103c76122e4565b6104b361230a565b61059f60048036036020811015610c1057600080fd5b503561236c565b61058d60048036036040811015610c2d57600080fd5b506001600160a01b038135169060200135151561237f565b61059f612484565b61058d60048036036080811015610c6357600080fd5b6001600160a01b03823581169260208101359091169160408201359190810190608081016060820135640100000000811115610c9e57600080fd5b820183602082011115610cb057600080fd5b80359060200191846001830284011164010000000083111715610cd257600080fd5b91908080601f01602080910402602001604051908101604052809392919081815260200183838082843760009201919091525092955061248b945050505050565b61058d60048036036020811015610d2957600080fd5b50356001600160a01b03166124e9565b6103c760048036036020811015610d4f57600080fd5b50356001600160a01b03166125a2565b6104b360048036036020811015610d7557600080fd5b50356125b6565b610da260048036036020811015610d9257600080fd5b50356001600160a01b0316612784565b604051808060200180602001838103835285818151815260200191508051906020019060200280838360005b83811015610de6578181015183820152602001610dce565b50505050905001838103825284818151815260200191508051906020019060200280838360005b83811015610e25578181015183820152602001610e0d565b5050505090500194505050505060405180910390f35b610e5e60048036036040811015610e5157600080fd5b508035906020013561294e565b6040805192835260208301919091528051918290030190f35b6103c760048036036040811015610e8d57600080fd5b506001600160a01b0381358116916020013516612ab9565b61059f60048036036020811015610ebb57600080fd5b50356001600160a01b0316612ae7565b61058d60048036036020811015610ee157600080fd5b50356001600160a01b0316612afa565b61058d60048036036020811015610f0757600080fd5b50356001600160a01b0316612b49565b610e5e60048036036040811015610f2d57600080fd5b506001600160a01b038135169060200135612bab565b610545612cf4565b610f7160048036036020811015610f6157600080fd5b50356001600160a01b0316612d04565b604080519485526001600160a01b039384166020860152918316848301529091166060830152519081900360800190f35b61059f612d3b565b7fffffffff00000000000000000000000000000000000000000000000000000000811660009081526067602052604090205460ff165b919050565b6060610fef612d42565b506000610ffb856122be565b905060608484905060405190808252806020026020018201604052801561102c578160200160208202803883390190505b50905060005b848110156110a65760008381526101ac602052604081209087878481811061105657fe5b905060200201356001600160a01b03166001600160a01b03166001600160a01b031681526020019081526020016000205482828151811061109357fe5b6020908102919091010152600101611032565b5095945050505050565b6101068054604080516020601f600260001961010060018816150201909516949094049384018190048102820181019092528281526060939092909183018282801561113d5780601f106111125761010080835404028352916020019161113d565b820191906000526020600020905b81548152906001019060200180831161112057829003601f168201915b505050505090505b90565b600061115382612e5b565b61118e5760405162461bcd60e51b815260040180806020018281038252602c815260200180615d58602c913960400191505060405180910390fd5b506000908152609b60205260409020546001600160a01b031690565b60006111b5826117fb565b9050806001600160a01b0316836001600160a01b031614156112085760405162461bcd60e51b8152600401808060200182810382526021815260200180615e2c6021913960400191505060405180910390fd5b806001600160a01b031661121a612e78565b6001600160a01b0316148061123b575061123b81611236612e78565b612ab9565b6112765760405162461bcd60e51b8152600401808060200182810382526038815260200180615c516038913960400191505060405180910390fd5b6000828152609b6020526040808220805473ffffffffffffffffffffffffffffffffffffffff19166001600160a01b0387811691821790925591518593918516917f8c5be1e5ebec7d5bd14f71427d1e84f3dd0314c0f7b2291e5b200ac8c7c3b92591a4505050565b6066546001600160a01b031681565b60d25490565b6113046112ff612e78565b6125a2565b61133f5760405162461bcd60e51b815260040180806020018281038252603a815260200180615cfd603a913960400191505060405180910390fd5b6101a755565b611355611350612e78565b612e7c565b565b611368611362612e78565b82612ec5565b6113a35760405162461bcd60e51b8152600401808060200182810382526031815260200180615e6f6031913960400191505060405180910390fd5b6113ae838383612f61565b505050565b6101a75481565b60006113c583611b20565b82106114025760405162461bcd60e51b815260040180806020018281038252602b815260200180615b39602b913960400191505060405180910390fd5b6001600160a01b038316600090815260d06020526040902080548390811061142657fe5b906000526020600020015490505b92915050565b6113ae8383836040518060200160405280600081525061248b565b611460611362612e78565b61149b5760405162461bcd60e51b8152600401808060200182810382526030815260200180615f156030913960400191505060405180910390fd5b6114a481612f80565b50565b6114af6122e4565b611500576040805162461bcd60e51b815260206004820181905260248201527f4f776e61626c653a2063616c6c6572206973206e6f7420746865206f776e6572604482015290519081900360640190fd5b6001600160a01b0381166115455760405162461bcd60e51b8152600401808060200182810382526022815260200180615c0c6022913960400191505060405180910390fd5b606680546001600160a01b03831673ffffffffffffffffffffffffffffffffffffffff19909116811790915560408051918252517f5b36800c27524690807962bd42525a44e68b3f860e8f9e0204f27e777d2f46059181900360200190a150565b6101a181815481106115b457fe5b60009182526020909120600390910201805460018201546002909201546001600160a01b03909116925083565b6101a381815481106115ef57fe5b6000918252602090912001546001600160a01b0316905081565b6116146112ff612e78565b61164f5760405162461bcd60e51b815260040180806020018281038252603a815260200180615cfd603a913960400191505060405180910390fd5b6101a855565b600054610100900460ff168061166e575061166e612f92565b8061167c575060005460ff16155b6116b75760405162461bcd60e51b815260040180806020018281038252602e815260200180615da6602e913960400191505060405180910390fd5b600054610100900460ff161580156116e2576000805460ff1961ff0019909116610100171660011790555b6116ea612f98565b6116f357600080fd5b825161170790610106906020860190615a3c565b50815161171c90610107906020850190615a3c565b506117467f5b5e139f00000000000000000000000000000000000000000000000000000000612fc8565b80156113ae576000805461ff0019169055505050565b60006117666112ee565b82106117a35760405162461bcd60e51b815260040180806020018281038252602c815260200180615ea0602c913960400191505060405180910390fd5b60d282815481106117b057fe5b90600052602060002001549050919050565b60009182526101ac602090815260408084206001600160a01b0393909316845291905290205490565b6101ab546001600160a01b031681565b6000818152609a60205260408120546001600160a01b0316806114345760405162461bcd60e51b8152600401808060200182810382526029815260200180615cb36029913960400191505060405180910390fd5b61185a6112ff612e78565b6118955760405162461bcd60e51b815260040180806020018281038252603a815260200180615cfd603a913960400191505060405180910390fd5b6101a5544210156118d75760405162461bcd60e51b8152600401808060200182810382526023815260200180615c2e6023913960400191505060405180910390fd5b60006118e161307c565b6101aa546101a654919250600091611902916001600160a01b031690613097565b6101a9546101aa5491935061192b92506001600160a01b0391821691168363ffffffff61327616565b60005b6101a254811015611a0057604080516002808252606080830184529260208301908038833950506101aa5482519293506001600160a01b03169183915060009061197457fe5b60200260200101906001600160a01b031690816001600160a01b0316815250506101a282815481106119a257fe5b9060005260206000200160009054906101000a90046001600160a01b0316816001815181106119cd57fe5b60200260200101906001600160a01b031690816001600160a01b0316815250506119f7848261340e565b5060010161192e565b506101a4546101a554611a189163ffffffff61379c16565b6101a5556101a2546101a154611a73916101ad91600091611a5291600191611a46919063ffffffff6137fd16565b9063ffffffff61383f16565b8152602001908152602001600020546101a65461383f90919063ffffffff16565b6101a6555050565b6101098054604080516020601f600260001961010060018816150201909516949094049384018190048102820181019092528281526060939092909183018282801561113d5780601f106111125761010080835404028352916020019161113d565b6101aa546001600160a01b031681565b6101a281815481106115ef57fe5b6101ac6020526000908152604090206001810154600282015460039092015490919083565b60006001600160a01b038216611b675760405162461bcd60e51b815260040180806020018281038252602a815260200180615c89602a913960400191505060405180910390fd5b6001600160a01b0382166000908152609c6020526040902061143490613881565b611b906122e4565b611be1576040805162461bcd60e51b815260206004820181905260248201527f4f776e61626c653a2063616c6c6572206973206e6f7420746865206f776e6572604482015290519081900360640190fd5b6033546040516000916001600160a01b0316907f8be0079c531659141344cd1fd0a4f28419497f9722a3daafe3b4186f6b6457e0908390a36033805473ffffffffffffffffffffffffffffffffffffffff19169055565b6066546000906001600160a01b0316611c98576040805162461bcd60e51b815260206004820152600f60248201527f4d6f64756c653a206e6f20706f6f6c0000000000000000000000000000000000604482015290519081900360640190fd5b6066546040516020602482018181528551604484015285516000946060946001600160a01b03909116938893928392606401918501908083838b5b83811015611ceb578181015183820152602001611cd3565b50505050905090810190601f168015611d185780820380516001836020036101000a031916815260200191505b5060408051601f198184030181529181526020820180517bffffffffffffffffffffffffffffffffffffffffffffffffffffffff167f693ec85e00000000000000000000000000000000000000000000000000000000178152905182519295509350839250908083835b60208310611da15780518252601f199092019160209182019101611d82565b6001836020036101000a038019825116818451168082178552505050505050905001915050600060405180830381855afa9150503d8060008114611e01576040519150601f19603f3d011682016040523d82523d6000602084013e611e06565b606091505b509150915081611e17578060208201fd5b6000818060200190516020811015611e2e57600080fd5b505190506001600160a01b038116611e775760405162461bcd60e51b8152600401808060200182810382526022815260200180615e4d6022913960400191505060405180910390fd5b949350505050565b6000611e8c6112ff612e78565b611ec75760405162461bcd60e51b815260040180806020018281038252603a815260200180615cfd603a913960400191505060405180910390fd5b604080516080810182528681526001600160a01b038087166020808401828152888416858701908152888516606087019081528d861660009081526101ae855288812097518855925160018801805491881673ffffffffffffffffffffffffffffffffffffffff19928316179055915160028801805491881691841691909117905551600390960180549690951695169490941790925582526101b09052205460ff16611fe1576101a3805460018082019092557f9956c0f14fc2ed1836f96a0d9c70b58f1406f12ef284cbc764439ac2a31089c001805473ffffffffffffffffffffffffffffffffffffffff19166001600160a01b03871690811790915560009081526101b060205260409020805460ff191690911790555b50600195945050505050565b6101a45481565b600054610100900460ff168061200d575061200d612f92565b8061201b575060005460ff16155b6120565760405162461bcd60e51b815260040180806020018281038252602e815260200180615da6602e913960400191505060405180910390fd5b600054610100900460ff16158015612081576000805460ff1961ff0019909116610100171660011790555b612089612f98565b61209257600080fd5b6120bb7f780e9d6300000000000000000000000000000000000000000000000000000000612fc8565b80156114a4576000805461ff001916905550565b6101a85481565b600054610100900460ff16806120ef57506120ef612f92565b806120fd575060005460ff16155b6121385760405162461bcd60e51b815260040180806020018281038252602e815260200180615da6602e913960400191505060405180910390fd5b600054610100900460ff16158015612163576000805460ff1961ff0019909116610100171660011790555b61216c88613885565b612175826124e9565b61217d613923565b612185611ff4565b6122098c8c8080601f016020809104026020016040519081016040528093929190818152602001838380828437600081840152601f19601f820116905080830192505050505050508b8b8080601f01602080910402602001604051908101604052809392919081815260200183838082843760009201919091525061165592505050565b6122458686808060200260200160405190810160405280939291908181526020018383602002808284376000920191909152506139e192505050565b6101aa80546001600160a01b03808a1673ffffffffffffffffffffffffffffffffffffffff19928316179092556101a98054928716929091169190911790556101a483905561229a428463ffffffff61379c16565b6101a55580156122b0576000805461ff00191690555b505050505050505050505050565b60006122c982613a4e565b6000815481106117b057fe5b6033546001600160a01b031690565b6033546000906001600160a01b03166122fb612e78565b6001600160a01b031614905090565b6101078054604080516020601f600260001961010060018816150201909516949094049384018190048102820181019092528281526060939092909183018282801561113d5780601f106111125761010080835404028352916020019161113d565b6101ad6020526000908152604090205481565b612387612e78565b6001600160a01b0316826001600160a01b031614156123ed576040805162461bcd60e51b815260206004820152601960248201527f4552433732313a20617070726f766520746f2063616c6c657200000000000000604482015290519081900360640190fd5b80609d60006123fa612e78565b6001600160a01b03908116825260208083019390935260409182016000908120918716808252919093529120805460ff19169215159290921790915561243e612e78565b60408051841515815290516001600160a01b0392909216917f17307eab39ab6107e8899845ad3d59bd9653f200f220920489ca2b5937696c319181900360200190a35050565b6101a55481565b61249c612496612e78565b83612ec5565b6124d75760405162461bcd60e51b8152600401808060200182810382526031815260200180615e6f6031913960400191505060405180910390fd5b6124e384848484613a68565b50505050565b600054610100900460ff16806125025750612502612f92565b80612510575060005460ff16155b61254b5760405162461bcd60e51b815260040180806020018281038252602e815260200180615da6602e913960400191505060405180910390fd5b600054610100900460ff16158015612576576000805460ff1961ff0019909116610100171660011790555b61257f826125a2565b61258c5761258c82613aba565b801561259e576000805461ff00191690555b5050565b600061143461019f8363ffffffff613b0316565b60606125c182612e5b565b6125fc5760405162461bcd60e51b815260040180806020018281038252602f815260200180615dfd602f913960400191505060405180910390fd5b6000828152610108602090815260409182902080548351601f60026000196101006001861615020190931692909204918201849004840281018401909452808452606093928301828280156126925780601f1061266757610100808354040283529160200191612692565b820191906000526020600020905b81548152906001019060200180831161267557829003601f168201915b505050505090508051600014156126b9575050604080516020810190915260008152610fe0565b61010981604051602001808380546001816001161561010002031660029004801561271b5780601f106126f957610100808354040283529182019161271b565b820191906000526020600020905b815481529060010190602001808311612707575b5050825160208401908083835b602083106127475780518252601f199092019160209182019101612728565b6001836020036101000a03801982511681845116808217855250505050505090500192505050604051602081830303815290604052915050610fe0565b6101ab54604080517f79e759950000000000000000000000000000000000000000000000000000000081523060048201526001600160a01b0384811660248301529151606093849316916379e7599591604480830192600092919082900301818387803b1580156127f457600080fd5b505af1158015612808573d6000803e3d6000fd5b505050506040513d6000823e601f3d908101601f19168201604090815281101561283157600080fd5b810190808051604051939291908464010000000082111561285157600080fd5b90830190602082018581111561286657600080fd5b825186602082028301116401000000008211171561288357600080fd5b82525081516020918201928201910280838360005b838110156128b0578181015183820152602001612898565b50505050905001604052602001805160405193929190846401000000008211156128d957600080fd5b9083019060208201858111156128ee57600080fd5b825186602082028301116401000000008211171561290b57600080fd5b82525081516020918201928201910280838360005b83811015612938578181015183820152602001612920565b5050505090500160405250505091509150915091565b60008061297761295c612e78565b6101aa546001600160a01b031690308763ffffffff613b6a16565b612987612982612e78565b611b20565b612a4f576000612995613cf5565b905061299f613d22565b6101a15460008281526101ac60205260408120600201919091556101aa5481906129d2906001600160a01b03168861403d565b915091506129e583826000896001614344565b7fdcbc1c05240f31ff3ad067ef1ee35ce4997762752e3a095284754544f4c709d7612a0e612e78565b6101aa54604080516001600160a01b0393841681529290911660208301528181018a905260608201899052519081900360800190a19093509150612ab29050565b612a57612d42565b506000612a6a612a65612e78565b6122be565b6101aa549091506000908190612a89906001600160a01b03168861403d565b915091506129e583826101ac600087815260200190815260200160002060010154896001614344565b9250929050565b6001600160a01b039182166000908152609d6020908152604080832093909416825291909152205460ff1690565b6101af6020526000908152604090205481565b612b056112ff612e78565b612b405760405162461bcd60e51b815260040180806020018281038252603a815260200180615cfd603a913960400191505060405180910390fd5b6114a481613aba565b612b516122e4565b612ba2576040805162461bcd60e51b815260206004820181905260248201527f4f776e61626c653a2063616c6c6572206973206e6f7420746865206f776e6572604482015290519081900360640190fd5b6114a48161453c565b600080612bb6612d42565b506000612bc4612a65612e78565b60008181526101ac602090815260408083206001600160a01b038a168452909152902054909150841115612c295760405162461bcd60e51b8152600401808060200182810382526033815260200180615f456033913960400191505060405180910390fd5b600080612c368787613097565b6101aa5491935091506001600160a01b0388811691161415612c745760008381526101ac6020526040812060010154612c7491859184918190614344565b612c96612c7f612e78565b6001600160a01b038916908363ffffffff6145ea16565b7f2717ead6b9200dd235aad468c9809ea400fe33ac69b5bfaa6d3e90fc922b6398612cbf612e78565b604080516001600160a01b039283168152918a166020830152818101899052519081900360600190a190969095509350505050565b6101a9546001600160a01b031681565b6101ae60205260009081526040902080546001820154600283015460039093015491926001600160a01b0391821692908216911684565b6101a65481565b6000612d4c613d22565b6000612d59612a65612e78565b90506000612d6561307c565b60008381526101ac60205260409020600201549091505b6101a154811015612e3e576101aa546101a180546001600160a01b039092169183908110612da657fe5b60009182526020909120600390910201546001600160a01b03161415612dec5760008381526101ac6020526040812060010154612de490839061477b565b905050612e36565b60008381526101ac602090815260408083206101aa546001600160a01b031684529091529020548211612e36576000612e25828461477b565b9050612e33848385846147de565b50505b600101612d7c565b50506101a15460009182526101ac60205260409091206002015590565b6000908152609a60205260409020546001600160a01b0316151590565b3390565b612e8e61019f8263ffffffff6148e616565b6040516001600160a01b038216907f0ce9bf7d79f4d20dd39c2ef94ea6ce0613fdbad453ac4b17ef981422cbc65e6890600090a250565b6000612ed082612e5b565b612f0b5760405162461bcd60e51b815260040180806020018281038252602c815260200180615be0602c913960400191505060405180910390fd5b6000612f16836117fb565b9050806001600160a01b0316846001600160a01b03161480612f515750836001600160a01b0316612f4684611148565b6001600160a01b0316145b80611e775750611e778185612ab9565b612f6c83838361494d565b612f768382614a9e565b6113ae8282614b8c565b6114a4612f8c826117fb565b82614bca565b303b1590565b6000612fc37f80ac58cd00000000000000000000000000000000000000000000000000000000610faa565b905090565b7fffffffff00000000000000000000000000000000000000000000000000000000808216141561303f576040805162461bcd60e51b815260206004820152601c60248201527f4552433136353a20696e76616c696420696e7465726661636520696400000000604482015290519081900360640190fd5b7fffffffff00000000000000000000000000000000000000000000000000000000166000908152606760205260409020805460ff19166001179055565b6101a2546101a654600091612fc3919063ffffffff6137fd16565b6001600160a01b0380831660009081526101ae602052604081206001810154600290910154919283928392821691637bfe950c911687876130d88282614c14565b6040518563ffffffff1660e01b815260040180856001600160a01b03166001600160a01b03168152602001846001600160a01b03166001600160a01b03168152602001838152602001828152602001945050505050602060405180830381600087803b15801561314757600080fd5b505af115801561315b573d6000803e3d6000fd5b505050506040513d602081101561317157600080fd5b50516001600160a01b03861660009081526101ae6020526040812054919250906131a290839063ffffffff614c7516565b90506131b086836000614cec565b6001600160a01b0380871660009081526101ae60209081526040918290206003015482517f70a0823100000000000000000000000000000000000000000000000000000000815230600482015292519316926370a08231926024808201939291829003018186803b15801561322457600080fd5b505afa158015613238573d6000803e3d6000fd5b505050506040513d602081101561324e57600080fd5b50516001600160a01b03871660009081526101af602052604090205590925090509250929050565b604080516001600160a01b038481166024830152604480830185905283518084039091018152606490920183526020820180517bffffffffffffffffffffffffffffffffffffffffffffffffffffffff167f095ea7b300000000000000000000000000000000000000000000000000000000178152925182516000946060949389169392918291908083835b602083106133215780518252601f199092019160209182019101613302565b6001836020036101000a0380198251168184511680821785525050505050509050019150506000604051808303816000865af19150503d8060008114613383576040519150601f19603f3d011682016040523d82523d6000602084013e613388565b606091505b50915091508180156133b65750805115806133b657508080602001905160208110156133b357600080fd5b50515b613407576040805162461bcd60e51b815260206004820152601e60248201527f5472616e7366657248656c7065723a20415050524f56455f4641494c45440000604482015290519081900360640190fd5b5050505050565b6101a954604080517fd06ca61f00000000000000000000000000000000000000000000000000000000815260048101858152602482019283528451604483015284516060946001600160a01b03169363d06ca61f9388938893909291606401906020808601910280838360005b8381101561349357818101518382015260200161347b565b50505050905001935050505060006040518083038186803b1580156134b757600080fd5b505afa1580156134cb573d6000803e3d6000fd5b505050506040513d6000823e601f3d908101601f1916820160405260208110156134f457600080fd5b810190808051604051939291908464010000000082111561351457600080fd5b90830190602082018581111561352957600080fd5b825186602082028301116401000000008211171561354657600080fd5b82525081516020918201928201910280838360005b8381101561357357818101518382015260200161355b565b50505050905001604052505050905060606101a960009054906101000a90046001600160a01b03166001600160a01b03166338ed173985846001815181106135b757fe5b602002602001015186306101a7546040518663ffffffff1660e01b81526004018086815260200185815260200180602001846001600160a01b03166001600160a01b03168152602001838152602001828103825285818151815260200191508051906020019060200280838360005b8381101561363e578181015183820152602001613626565b505050509050019650505050505050600060405180830381600087803b15801561366757600080fd5b505af115801561367b573d6000803e3d6000fd5b505050506040513d6000823e601f3d908101601f1916820160405260208110156136a457600080fd5b81019080805160405193929190846401000000008211156136c457600080fd5b9083019060208201858111156136d957600080fd5b82518660208202830111640100000000821117156136f657600080fd5b82525081516020918201928201910280838360005b8381101561372357818101518382015260200161370b565b50505050905001604052505050905060006137668460018151811061374457fe5b60200260200101518360018151811061375957fe5b602002602001015161403d565b9150506134078460018151811061377957fe5b60200260200101518360008151811061378e57fe5b602002602001015183614e38565b6000828201838110156137f6576040805162461bcd60e51b815260206004820152601b60248201527f536166654d6174683a206164646974696f6e206f766572666c6f770000000000604482015290519081900360640190fd5b9392505050565b60006137f683836040518060400160405280601a81526020017f536166654d6174683a206469766973696f6e206279207a65726f000000000000815250614f07565b60006137f683836040518060400160405280601e81526020017f536166654d6174683a207375627472616374696f6e206f766572666c6f770000815250614fa9565b5490565b600054610100900460ff168061389e575061389e612f92565b806138ac575060005460ff16155b6138e75760405162461bcd60e51b815260040180806020018281038252602e815260200180615da6602e913960400191505060405180910390fd5b600054610100900460ff16158015613912576000805460ff1961ff0019909116610100171660011790555b61391a615003565b61258c826114a7565b600054610100900460ff168061393c575061393c612f92565b8061394a575060005460ff16155b6139855760405162461bcd60e51b815260040180806020018281038252602e815260200180615da6602e913960400191505060405180910390fd5b600054610100900460ff161580156139b0576000805460ff1961ff0019909116610100171660011790555b6139b86150a0565b6120bb7f80ac58cd00000000000000000000000000000000000000000000000000000000612fc8565b60005b815181101561259e576101a28282815181106139fc57fe5b602090810291909101810151825460018082018555600094855292909320909201805473ffffffffffffffffffffffffffffffffffffffff19166001600160a01b0390931692909217909155016139e4565b6001600160a01b0316600090815260d06020526040902090565b613a73848484612f61565b613a7f84848484615156565b6124e35760405162461bcd60e51b8152600401808060200182810382526032815260200180615b646032913960400191505060405180910390fd5b613acc61019f8263ffffffff61540816565b6040516001600160a01b038216907f1c3f027a4c907a6c9dd65947c44db0adce386f894f23033f7ff2ca693b6e2a9890600090a250565b60006001600160a01b038216613b4a5760405162461bcd60e51b8152600401808060200182810382526022815260200180615d846022913960400191505060405180910390fd5b506001600160a01b03166000908152602091909152604090205460ff1690565b604080516001600160a01b0385811660248301528481166044830152606480830185905283518084039091018152608490920183526020820180517bffffffffffffffffffffffffffffffffffffffffffffffffffffffff167f23b872dd0000000000000000000000000000000000000000000000000000000017815292518251600094606094938a169392918291908083835b60208310613c1d5780518252601f199092019160209182019101613bfe565b6001836020036101000a0380198251168184511680821785525050505050509050019150506000604051808303816000865af19150503d8060008114613c7f576040519150601f19603f3d011682016040523d82523d6000602084013e613c84565b606091505b5091509150818015613cb2575080511580613cb25750808060200190516020811015613caf57600080fd5b50515b613ced5760405162461bcd60e51b8152600401808060200182810382526024815260200180615ef16024913960400191505060405180910390fd5b505050505050565b6000613d026101a0615489565b6000613d0f6101a0613881565b9050612fc3613d1c612e78565b82615492565b60005b6101a3548110156114a45760606101a38281548110613d4057fe5b6000918252602082200154604080517fd9180a0000000000000000000000000000000000000000000000000000000000815290516001600160a01b039092169263d9180a0092600480840193829003018186803b158015613da057600080fd5b505afa158015613db4573d6000803e3d6000fd5b505050506040513d6000823e601f3d908101601f191682016040526020811015613ddd57600080fd5b8101908080516040519392919084640100000000821115613dfd57600080fd5b908301906020820185811115613e1257600080fd5b8251866020820283011164010000000082111715613e2f57600080fd5b82525081516020918201928201910280838360005b83811015613e5c578181015183820152602001613e44565b50505050905001604052505050905060606101a38381548110613e7b57fe5b9060005260206000200160009054906101000a90046001600160a01b03166001600160a01b031663d212a642836040518263ffffffff1660e01b81526004018080602001828103825283818151815260200191508051906020019060200280838360005b83811015613ef7578181015183820152602001613edf565b5050505090500192505050600060405180830381600087803b158015613f1c57600080fd5b505af1158015613f30573d6000803e3d6000fd5b505050506040513d6000823e601f3d908101601f191682016040526020811015613f5957600080fd5b8101908080516040519392919084640100000000821115613f7957600080fd5b908301906020820185811115613f8e57600080fd5b8251866020820283011164010000000082111715613fab57600080fd5b82525081516020918201928201910280838360005b83811015613fd8578181015183820152602001613fc0565b50505050905001604052505050905060008090505b82518110156140325761402a83828151811061400557fe5b60200260200101516101a65484848151811061401d57fe5b6020026020010151614e38565b600101613fed565b505050600101613d25565b6040805160018082528183019092526000918291606091602080830190803883395050604080516001808252818301909252929350606092915060208083019080388339019050509050858260008151811061409557fe5b60200260200101906001600160a01b031690816001600160a01b03168152505084816000815181106140c357fe5b6020908102919091018101919091526001600160a01b0380881660008181526101ae9093526040909220600101546141039291168763ffffffff61327616565b6001600160a01b0380871660009081526101ae60209081526040808320600181015460029091015491517f562fa0df000000000000000000000000000000000000000000000000000000008152918516600483018181526060602485019081528951606486015289519697939093169563562fa0df9592948a948a94909260448301926084019187810191028083838e5b838110156141ac578181015183820152602001614194565b50505050905001838103825284818151815260200191508051906020019060200280838360005b838110156141eb5781810151838201526020016141d3565b5050505090500195505050505050602060405180830381600087803b15801561421357600080fd5b505af1158015614227573d6000803e3d6000fd5b505050506040513d602081101561423d57600080fd5b50516001600160a01b03881660009081526101ae60205260408120549192509061426e90839063ffffffff614c7516565b905061427c88836001614cec565b6001600160a01b0380891660009081526101ae60209081526040918290206003015482517f70a0823100000000000000000000000000000000000000000000000000000000815230600482015292519316926370a08231926024808201939291829003018186803b1580156142f057600080fd5b505afa158015614304573d6000803e3d6000fd5b505050506040513d602081101561431a57600080fd5b50516001600160a01b03891660009081526101af6020526040902055909450925050509250929050565b80156143ad5760008581526101ac602090815260408083206101aa546001600160a01b03168452909152902054614381908563ffffffff61379c16565b60008681526101ac602090815260408083206101aa546001600160a01b0316845290915290205561440c565b60008581526101ac602090815260408083206101aa546001600160a01b031684529091529020546143e4908563ffffffff61383f16565b60008681526101ac602090815260408083206101aa546001600160a01b031684529091529020555b8282146144535760008581526101ac602052604090206001018290556101a65461444e908390614442908663ffffffff61383f16565b9063ffffffff61379c16565b6101a6555b60008581526101ac602090815260408083206003015483526101ad909152902054614484908463ffffffff61383f16565b60008681526101ac60209081526040808320600381015484526101ad8352818420949094556101aa546001600160a01b03168352929052908120546144ea90600190611a46906144da908763ffffffff6137fd16565b6101a1549063ffffffff61379c16565b60008181526101ad602052604090205490915061450d908463ffffffff61379c16565b60008281526101ad60209081526040808320939093559781526101ac9097529095206003019490945550505050565b6001600160a01b0381166145815760405162461bcd60e51b8152600401808060200182810382526026815260200180615b966026913960400191505060405180910390fd5b6033546040516001600160a01b038084169216907f8be0079c531659141344cd1fd0a4f28419497f9722a3daafe3b4186f6b6457e090600090a36033805473ffffffffffffffffffffffffffffffffffffffff19166001600160a01b0392909216919091179055565b604080516001600160a01b038481166024830152604480830185905283518084039091018152606490920183526020820180517bffffffffffffffffffffffffffffffffffffffffffffffffffffffff167fa9059cbb00000000000000000000000000000000000000000000000000000000178152925182516000946060949389169392918291908083835b602083106146955780518252601f199092019160209182019101614676565b6001836020036101000a0380198251168184511680821785525050505050509050019150506000604051808303816000865af19150503d80600081146146f7576040519150601f19603f3d011682016040523d82523d6000602084013e6146fc565b606091505b509150915081801561472a57508051158061472a575080806020019051602081101561472757600080fd5b50515b613407576040805162461bcd60e51b815260206004820152601f60248201527f5472616e7366657248656c7065723a205452414e534645525f4641494c454400604482015290519081900360640190fd5b60006137f66101a1848154811061478e57fe5b9060005260206000209060030201600101546147d26101a186815481106147b157fe5b906000526020600020906003020160020154856154af90919063ffffffff16565b9063ffffffff6137fd16565b60008481526101ac602090815260408083206101aa546001600160a01b03168452909152812054614815908463ffffffff61383f16565b60008681526101ac602081815260408084206101aa546001600160a01b0316855280835290842094909455888352526101a18054614893938693909290918990811061485d57fe5b600091825260208083206003909202909101546001600160a01b031683528201929092526040019020549063ffffffff61379c16565b60008681526101ac602052604081206101a18054919291889081106148b457fe5b600091825260208083206003909202909101546001600160a01b03168352820192909252604001902055949350505050565b6148f08282613b03565b61492b5760405162461bcd60e51b8152600401808060200182810382526021815260200180615cdc6021913960400191505060405180910390fd5b6001600160a01b0316600090815260209190915260409020805460ff19169055565b826001600160a01b0316614960826117fb565b6001600160a01b0316146149a55760405162461bcd60e51b8152600401808060200182810382526029815260200180615dd46029913960400191505060405180910390fd5b6001600160a01b0382166149ea5760405162461bcd60e51b8152600401808060200182810382526024815260200180615bbc6024913960400191505060405180910390fd5b6149f381615508565b6001600160a01b0383166000908152609c60205260409020614a1490615550565b6001600160a01b0382166000908152609c60205260409020614a3590615489565b6000818152609a6020526040808220805473ffffffffffffffffffffffffffffffffffffffff19166001600160a01b0386811691821790925591518493918716917fddf252ad1be2c89b69c2b068fc378daa952ba7f163c4a11628f55a4df523b3ef91a4505050565b6001600160a01b038216600090815260d06020526040812054614ac890600163ffffffff61383f16565b600083815260d16020526040902054909150808214614b63576001600160a01b038416600090815260d060205260408120805484908110614b0557fe5b906000526020600020015490508060d06000876001600160a01b03166001600160a01b031681526020019081526020016000208381548110614b4357fe5b600091825260208083209091019290925591825260d19052604090208190555b6001600160a01b038416600090815260d060205260409020805490613407906000198301615aba565b6001600160a01b03909116600090815260d060208181526040808420805486865260d184529185208290559282526001810183559183529091200155565b614bd48282615567565b60008181526101086020526040902054600260001961010060018416150201909116041561259e5760008181526101086020526040812061259e91615ade565b6001600160a01b03821660009081526101ae60205260408120548190614c4190849063ffffffff61559316565b9050611e77614c68670de0b6b3a76400006147d26101a854856154af90919063ffffffff16565b829063ffffffff61379c16565b60008160121415614c87575081611434565b6012821115614ccc57614cc5837fffffffffffffffffffffffffffffffffffffffffffffffffffffffffffffffee8401600a0a63ffffffff6154af16565b9050611434565b601282101561143457614cc5836012849003600a0a63ffffffff6137fd16565b6001600160a01b0380841660009081526101ae602090815260408083206003015481517f70a082310000000000000000000000000000000000000000000000000000000081523060048201529151939416926370a0823192602480840193919291829003018186803b158015614d6157600080fd5b505afa158015614d75573d6000803e3d6000fd5b505050506040513d6020811015614d8b57600080fd5b5051905060008215614dcc576001600160a01b03851660009081526101af6020526040902054614dc590611a46848763ffffffff61379c16565b9050614dfd565b6001600160a01b03851660009081526101af6020526040902054614dfa90611a46848763ffffffff61383f16565b90505b8015613407576101a6546001600160a01b03861660009081526101ae6020526040902054613407918791614e3890859063ffffffff614c7516565b604080516060810182526001600160a01b039485168152602081019384529081019182526101a1805460018101825560009190915290517f138323e2a914e847043e23cddd114fae8437deb6d72c040f1025356455849bda6003909202918201805473ffffffffffffffffffffffffffffffffffffffff1916919095161790935590517f138323e2a914e847043e23cddd114fae8437deb6d72c040f1025356455849bdb830155517f138323e2a914e847043e23cddd114fae8437deb6d72c040f1025356455849bdc90910155565b60008183614f935760405162461bcd60e51b81526004018080602001828103825283818151815260200191508051906020019080838360005b83811015614f58578181015183820152602001614f40565b50505050905090810190601f168015614f855780820380516001836020036101000a031916815260200191505b509250505060405180910390fd5b506000838581614f9f57fe5b0495945050505050565b60008184841115614ffb5760405162461bcd60e51b8152602060048201818152835160248401528351909283926044909101919085019080838360008315614f58578181015183820152602001614f40565b505050900390565b600054610100900460ff168061501c575061501c612f92565b8061502a575060005460ff16155b6150655760405162461bcd60e51b815260040180806020018281038252602e815260200180615da6602e913960400191505060405180910390fd5b600054610100900460ff16158015615090576000805460ff1961ff0019909116610100171660011790555b6120bb61509b612e78565b615603565b600054610100900460ff16806150b957506150b9612f92565b806150c7575060005460ff16155b6151025760405162461bcd60e51b815260040180806020018281038252602e815260200180615da6602e913960400191505060405180910390fd5b600054610100900460ff1615801561512d576000805460ff1961ff0019909116610100171660011790555b6120bb7f01ffc9a700000000000000000000000000000000000000000000000000000000612fc8565b600061516a846001600160a01b0316615701565b61517657506001611e77565b600060606001600160a01b0386167f150b7a02000000000000000000000000000000000000000000000000000000006151ad612e78565b89888860405160240180856001600160a01b03166001600160a01b03168152602001846001600160a01b03166001600160a01b0316815260200183815260200180602001828103825283818151815260200191508051906020019080838360005b8381101561522657818101518382015260200161520e565b50505050905090810190601f1680156152535780820380516001836020036101000a031916815260200191505b5060408051601f198184030181529181526020820180517bffffffffffffffffffffffffffffffffffffffffffffffffffffffff167fffffffff00000000000000000000000000000000000000000000000000000000909a16999099178952518151919890975087965094509250829150849050835b602083106152e85780518252601f1990920191602091820191016152c9565b6001836020036101000a0380198251168184511680821785525050505050509050019150506000604051808303816000865af19150503d806000811461534a576040519150601f19603f3d011682016040523d82523d6000602084013e61534f565b606091505b5091509150816153a0578051156153695780518082602001fd5b60405162461bcd60e51b8152600401808060200182810382526032815260200180615b646032913960400191505060405180910390fd5b60008180602001905160208110156153b757600080fd5b50517fffffffff00000000000000000000000000000000000000000000000000000000167f150b7a0200000000000000000000000000000000000000000000000000000000149350611e7792505050565b6154128282613b03565b15615464576040805162461bcd60e51b815260206004820152601f60248201527f526f6c65733a206163636f756e7420616c72656164792068617320726f6c6500604482015290519081900360640190fd5b6001600160a01b0316600090815260209190915260409020805460ff19166001179055565b80546001019055565b61549c828261573a565b6154a68282614b8c565b61259e81615878565b6000826154be57506000611434565b828202828482816154cb57fe5b04146137f65760405162461bcd60e51b8152600401808060200182810382526021815260200180615d376021913960400191505060405180910390fd5b6000818152609b60205260409020546001600160a01b0316156114a4576000908152609b60205260409020805473ffffffffffffffffffffffffffffffffffffffff19169055565b805461556390600163ffffffff61383f16565b9055565b61557182826158bc565b61557b8282614a9e565b600081815260d1602052604081205561259e816159a0565b600081601214156155a5575081611434565b60128211156155e357614cc5837fffffffffffffffffffffffffffffffffffffffffffffffffffffffffffffffee8401600a0a63ffffffff6137fd16565b601282101561143457614cc5836012849003600a0a63ffffffff6154af16565b600054610100900460ff168061561c575061561c612f92565b8061562a575060005460ff16155b6156655760405162461bcd60e51b815260040180806020018281038252602e815260200180615da6602e913960400191505060405180910390fd5b600054610100900460ff16158015615690576000805460ff1961ff0019909116610100171660011790555b6033805473ffffffffffffffffffffffffffffffffffffffff19166001600160a01b0384811691909117918290556040519116906000907f8be0079c531659141344cd1fd0a4f28419497f9722a3daafe3b4186f6b6457e0908290a3801561259e576000805461ff00191690555050565b6000813f7fc5d2460186f7233c927e7db2dcc703c0e500b653ca82273b7bfad8045d85a470818114801590611e77575050151592915050565b6001600160a01b038216615795576040805162461bcd60e51b815260206004820181905260248201527f4552433732313a206d696e7420746f20746865207a65726f2061646472657373604482015290519081900360640190fd5b61579e81612e5b565b156157f0576040805162461bcd60e51b815260206004820152601c60248201527f4552433732313a20746f6b656e20616c7265616479206d696e74656400000000604482015290519081900360640190fd5b6000818152609a60209081526040808320805473ffffffffffffffffffffffffffffffffffffffff19166001600160a01b0387169081179091558352609c909152902061583c90615489565b60405181906001600160a01b038416906000907fddf252ad1be2c89b69c2b068fc378daa952ba7f163c4a11628f55a4df523b3ef908290a45050565b60d28054600083815260d360205260408120829055600182018355919091527ff2192e1030363415d7b4fb0406540a0060e8e2fc8982f3f32289379e11fa65460155565b816001600160a01b03166158cf826117fb565b6001600160a01b0316146159145760405162461bcd60e51b8152600401808060200182810382526025815260200180615ecc6025913960400191505060405180910390fd5b61591d81615508565b6001600160a01b0382166000908152609c6020526040902061593e90615550565b6000818152609a6020526040808220805473ffffffffffffffffffffffffffffffffffffffff19169055518291906001600160a01b038516907fddf252ad1be2c89b69c2b068fc378daa952ba7f163c4a11628f55a4df523b3ef908390a45050565b60d2546000906159b790600163ffffffff61383f16565b600083815260d3602052604081205460d280549394509092849081106159d957fe5b906000526020600020015490508060d283815481106159f457fe5b600091825260208083209091019290925582815260d39091526040902082905560d2805490615a27906000198301615aba565b50505060009182525060d36020526040812055565b828054600181600116156101000203166002900490600052602060002090601f016020900481019282601f10615a7d57805160ff1916838001178555615aaa565b82800160010185558215615aaa579182015b82811115615aaa578251825591602001919060010190615a8f565b50615ab6929150615b1e565b5090565b8154818355818111156113ae576000838152602090206113ae918101908301615b1e565b50805460018160011615610100020316600290046000825580601f10615b0457506114a4565b601f0160209004906000526020600020908101906114a491905b61114591905b80821115615ab65760008155600101615b2456fe455243373231456e756d657261626c653a206f776e657220696e646578206f7574206f6620626f756e64734552433732313a207472616e7366657220746f206e6f6e20455243373231526563656976657220696d706c656d656e7465724f776e61626c653a206e6577206f776e657220697320746865207a65726f20616464726573734552433732313a207472616e7366657220746f20746865207a65726f20616464726573734552433732313a206f70657261746f7220717565727920666f72206e6f6e6578697374656e7420746f6b656e4d6f64756c653a20706f6f6c20616464726573732063616e2774206265207a65726f4443414d6f64756c652d70757263686173653a206e6f742074696d6520746f206275794552433732313a20617070726f76652063616c6c6572206973206e6f74206f776e6572206e6f7220617070726f76656420666f7220616c6c4552433732313a2062616c616e636520717565727920666f7220746865207a65726f20616464726573734552433732313a206f776e657220717565727920666f72206e6f6e6578697374656e7420746f6b656e526f6c65733a206163636f756e7420646f6573206e6f74206861766520726f6c654443414f70657261746f72526f6c653a2063616c6c657220646f6573206e6f74206861766520746865204443414f70657261746f7220726f6c65536166654d6174683a206d756c7469706c69636174696f6e206f766572666c6f774552433732313a20617070726f76656420717565727920666f72206e6f6e6578697374656e7420746f6b656e526f6c65733a206163636f756e7420697320746865207a65726f2061646472657373436f6e747261637420696e7374616e63652068617320616c7265616479206265656e20696e697469616c697a65644552433732313a207472616e73666572206f6620746f6b656e2074686174206973206e6f74206f776e4552433732314d657461646174613a2055524920717565727920666f72206e6f6e6578697374656e7420746f6b656e4552433732313a20617070726f76616c20746f2063757272656e74206f776e65724d6f64756c653a20726571756573746564206d6f64756c65206e6f7420666f756e644552433732313a207472616e736665722063616c6c6572206973206e6f74206f776e6572206e6f7220617070726f766564455243373231456e756d657261626c653a20676c6f62616c20696e646578206f7574206f6620626f756e64734552433732313a206275726e206f6620746f6b656e2074686174206973206e6f74206f776e5472616e7366657248656c7065723a205452414e534645525f46524f4d5f4641494c45444552433732314275726e61626c653a2063616c6c6572206973206e6f74206f776e6572206e6f7220617070726f7665644443414d6f64756c652d77697468647261773a20776974686472617720616d6f756e7420657863656564732062616c616e6365a265627a7a72315820e13d1a3c16b8ddc3f528c87d081cd9c240c078c556cca907f92f315fa6c95d3464736f6c63430005110032",
  "source": "pragma solidity ^0.5.17;\n\nimport \"@openzeppelin/contracts-ethereum-package/contracts/token/ERC20/IERC20.sol\";\nimport \"@openzeppelin/contracts-ethereum-package/contracts/token/ERC721/ERC721Full.sol\";\nimport \"@openzeppelin/contracts-ethereum-package/contracts/token/ERC721/ERC721Burnable.sol\";\nimport \"@openzeppelin/contracts-ethereum-package/contracts/drafts/Counters.sol\";\nimport \"@openzeppelin/contracts-ethereum-package/contracts/math/SafeMath.sol\";\nimport \"../../interfaces/uniswap/IUniswapV2Router02.sol\";\nimport \"../../interfaces/savings/ISavingsModule.sol\";\nimport \"../../interfaces/dca/IDCAFullBalanceHelper.sol\";\nimport \"../../utils/TransferHelper.sol\";\nimport \"../../utils/Normalization.sol\";\nimport \"./DCAOperatorRole.sol\";\nimport \"../../common/Module.sol\";\n\ncontract DCAModule is Module, ERC721Full, ERC721Burnable, DCAOperatorRole {\n    using SafeMath for uint256;\n    using TransferHelper for address;\n    using Normalization for uint256;\n    using Counters for Counters.Counter;\n\n    Counters.Counter private _tokenIds;\n\n    event Deposit(\n        address user,\n        address token,\n        uint256 amount,\n        uint256 newBuyAmount\n    );\n\n    event Withdrawal(address user, address token, uint256 amount);\n\n    struct Account {\n        mapping(address => uint256) balance;\n        uint256 buyAmount;\n        uint256 nextDistributionIndex;\n        uint256 lastRemovalPointIndex;\n    }\n\n    struct Distribution {\n        address token;\n        uint256 amountIn;\n        uint256 amountOut;\n    }\n\n    struct TokenData {\n        uint256 decimals;\n        address pool; // Reward\n        address protocol;\n        address poolToken;\n    }\n\n    Distribution[] public distributions;\n    address[] public tokensToBuy;\n    address[] public rewardPools;\n\n    uint256 public periodTimestamp;\n    uint256 public nextBuyTimestamp;\n    uint256 public globalPeriodBuyAmount;\n    uint256 public deadline; // uniswap v2 deadline\n    uint256 public protocolMaxFee; // 1e18 fee foundation\n\n    address public router;\n    address public tokenToSell;\n    address public dcaFullBalanceHelper;\n\n    mapping(uint256 => Account) public _accountOf;\n    mapping(uint256 => uint256) public removeAfterDistribution;\n    mapping(address => TokenData) public tokenDataOf;\n    mapping(address => uint256) public prevPoolTokenBalanceOf;\n    mapping(address => bool) private inRewardPools;\n\n    function initialize(\n        string calldata _name,\n        string calldata _symbol,\n        address _osPool,\n        address _tokenToSell,\n        address[] calldata _tokensToBuy,\n        address _router,\n        uint256 _periodTimestamp,\n        address bot\n    ) external initializer {\n        Module.initialize(_osPool);\n\n        DCAOperatorRole.initialize(bot);\n\n        ERC721.initialize();\n        ERC721Enumerable.initialize();\n        ERC721Metadata.initialize(_name, _symbol);\n\n        _setTokensToBuy(_tokensToBuy);\n\n        tokenToSell = _tokenToSell;\n        router = _router;\n        periodTimestamp = _periodTimestamp;\n        nextBuyTimestamp = now.add(_periodTimestamp);\n    }\n\n    // GETTERS\n    function getTokenIdByAddress(address userAddress)\n        public\n        view\n        returns (uint256)\n    {\n        return _tokensOfOwner(userAddress)[0];\n    }\n\n    function getAccountBalance(uint256 tokenId, address token)\n        public\n        view\n        returns (uint256)\n    {\n        return _accountOf[tokenId].balance[token];\n    }\n\n    function getFullAccountBalances(address account, address[] calldata tokens)\n        external\n        returns (uint256[] memory)\n    {\n        _claimDistributions();\n\n        uint256 tokenId = getTokenIdByAddress(account);\n\n        uint256[] memory balances = new uint256[](tokens.length);\n\n        for (uint256 i = 0; i < tokens.length; i++) {\n            balances[i] = _accountOf[tokenId].balance[tokens[i]];\n        }\n\n        return balances;\n    }\n\n    function getFullAccountBalances(address account)\n        external\n        returns (address[] memory, uint256[] memory)\n    {\n        return\n            IDCAFullBalanceHelper(dcaFullBalanceHelper).getFullAccountBalances(\n                address(this),\n                account\n            );\n    }\n\n    // SETTERS\n    function setTokenData(\n        address token,\n        uint256 decimals,\n        address pool,\n        address protocol,\n        address poolToken\n    ) external onlyDCAOperator returns (bool) {\n        tokenDataOf[token] = TokenData({\n            decimals: decimals,\n            pool: pool,\n            protocol: protocol,\n            poolToken: poolToken\n        });\n\n        if (!inRewardPools[pool]) {\n            rewardPools.push(pool);\n            inRewardPools[pool] = true;\n        }\n\n        return true;\n    }\n\n    function setDeadline(uint256 newDeadline) external onlyDCAOperator {\n        deadline = newDeadline;\n    }\n\n    function setProtocolMaxFee(uint256 maxFee) external onlyDCAOperator {\n        protocolMaxFee = maxFee;\n    }\n\n    // CORE\n    function deposit(uint256 amount, uint256 newBuyAmount)\n        external\n        returns (uint256, uint256)\n    {\n        tokenToSell.safeTransferFrom(_msgSender(), address(this), amount);\n\n        // if new user\n        if (balanceOf(_msgSender()) == 0) {\n            uint256 tokenId = _registerNewAccount();\n\n            _withdrawRewardsAndMakeDistribution();\n\n            _accountOf[tokenId].nextDistributionIndex = distributions.length;\n\n            // returns normalized amount of pTokens (mint)\n            (uint256 nDeposit, uint256 dDeposit) = _depositToPool(\n                tokenToSell,\n                amount\n            );\n\n            _refreshAccount(tokenId, dDeposit, 0, newBuyAmount, true);\n\n            emit Deposit(_msgSender(), tokenToSell, amount, newBuyAmount);\n\n            return (nDeposit, dDeposit);\n\n            // if existing user\n        } else {\n            _claimDistributions();\n\n            uint256 tokenId = getTokenIdByAddress(_msgSender());\n\n            // returns normalized amount of pTokens (mint)\n            (uint256 nDeposit, uint256 dDeposit) = _depositToPool(\n                tokenToSell,\n                amount\n            );\n\n            _refreshAccount(\n                tokenId,\n                dDeposit,\n                _accountOf[tokenId].buyAmount,\n                newBuyAmount,\n                true\n            );\n\n            emit Deposit(_msgSender(), tokenToSell, amount, newBuyAmount);\n\n            return (nDeposit, dDeposit);\n        }\n    }\n\n    function withdraw(address token, uint256 amount)\n        external\n        returns (uint256, uint256)\n    {\n        _claimDistributions();\n\n        uint256 tokenId = getTokenIdByAddress(_msgSender());\n\n        require(\n            _accountOf[tokenId].balance[token] >= amount,\n            \"DCAModule-withdraw: withdraw amount exceeds balance\"\n        );\n\n        // returns normalized amount of pTokens (burn)\n        (uint256 nWithdrawal, uint256 dWithdrawal) = _withdrawFromPool(\n            token,\n            amount\n        );\n\n        if (token == tokenToSell) {\n            _refreshAccount(\n                tokenId,\n                dWithdrawal,\n                _accountOf[tokenId].buyAmount,\n                _accountOf[tokenId].buyAmount,\n                false\n            );\n        }\n\n        token.safeTransfer(_msgSender(), dWithdrawal);\n\n        emit Withdrawal(_msgSender(), token, amount);\n\n        return (nWithdrawal, dWithdrawal);\n    }\n\n    function purchase() external onlyDCAOperator {\n        require(now >= nextBuyTimestamp, \"DCAModule-purchase: not time to buy\");\n\n        uint256 dividedBuyAmount = _calculateDividedBuyAmount();\n\n        // returns amounts of original tokens and pool tokens (burn)\n        (, uint256 dWithdrawal) = _withdrawFromPool(\n            tokenToSell,\n            globalPeriodBuyAmount\n        );\n\n        tokenToSell.safeApprove(router, dWithdrawal);\n\n        for (uint256 i = 0; i < tokensToBuy.length; i++) {\n            // uniswap path [tokenToSell, tokenToBuy]\n            address[] memory path = new address[](2);\n            path[0] = tokenToSell;\n            path[1] = tokensToBuy[i];\n\n            _swapAndMakeDistribution(dividedBuyAmount, path);\n        }\n\n        nextBuyTimestamp = nextBuyTimestamp.add(periodTimestamp);\n\n        globalPeriodBuyAmount = globalPeriodBuyAmount.sub(\n            removeAfterDistribution[distributions\n                .length\n                .div(tokensToBuy.length)\n                .sub(0x0001)]\n        );\n\n        // event\n    }\n\n    // PRIVATE (HELPERS)\n    function _setTokensToBuy(address[] memory tokens) private {\n        for (uint256 i = 0; i < tokens.length; i++) {\n            tokensToBuy.push(tokens[i]);\n        }\n    }\n\n    function _refreshAccount(\n        uint256 tokenId,\n        uint256 amount,\n        uint256 oldBuyAmount,\n        uint256 newBuyAmount,\n        bool isIncrementBalance\n    ) private {\n        // inc or dec tokenToSell balance\n        if (isIncrementBalance) {\n            _accountOf[tokenId].balance[tokenToSell] = _accountOf[tokenId]\n                .balance[tokenToSell]\n                .add(amount);\n        } else {\n            _accountOf[tokenId].balance[tokenToSell] = _accountOf[tokenId]\n                .balance[tokenToSell]\n                .sub(amount);\n        }\n\n        if (newBuyAmount != oldBuyAmount) {\n            // update buyAmount\n            _accountOf[tokenId].buyAmount = newBuyAmount; // ?\n\n            // remove oldBuyAmount from globalPeriodBuyAmount and add newBuyAmount\n            globalPeriodBuyAmount = globalPeriodBuyAmount.sub(oldBuyAmount).add(\n                newBuyAmount\n            );\n        }\n\n        // remove oldBuyAmount from removeAfterDistribution\n        removeAfterDistribution[_accountOf[tokenId]\n            .lastRemovalPointIndex] = removeAfterDistribution[_accountOf[tokenId]\n            .lastRemovalPointIndex]\n            .sub(oldBuyAmount);\n\n        // calculate new removalPoint\n        uint256 removalPoint = distributions\n            .length\n            .add(_accountOf[tokenId].balance[tokenToSell].div(newBuyAmount))\n            .sub(0x0001);\n\n        // add newBuyAmount from removeAfterDistribution\n        removeAfterDistribution[removalPoint] = removeAfterDistribution[removalPoint]\n            .add(newBuyAmount);\n\n        _accountOf[tokenId].lastRemovalPointIndex = removalPoint;\n    }\n\n    function _calculatePayout(uint256 distibutionIndex, uint256 buyAmount)\n        private\n        view\n        returns (uint256)\n    {\n        return\n            buyAmount.mul(distributions[distibutionIndex].amountOut).div(\n                distributions[distibutionIndex].amountIn\n            );\n    }\n\n    function _subBuyAmountAndUpdateBalance(\n        uint256 tokenId,\n        uint256 distibutionIndex,\n        uint256 buyAmount,\n        uint256 amount\n    ) private returns (uint256) {\n        _accountOf[tokenId].balance[tokenToSell] = _accountOf[tokenId]\n            .balance[tokenToSell]\n            .sub(buyAmount);\n\n        _accountOf[tokenId].balance[distributions[distibutionIndex]\n            .token] = _accountOf[tokenId]\n            .balance[distributions[distibutionIndex].token]\n            .add(amount);\n    }\n\n    function _calculateDividedBuyAmount() private view returns (uint256) {\n        return globalPeriodBuyAmount.div(tokensToBuy.length);\n    }\n\n    function _withdrawRewardsAndMakeDistribution() private {\n        for (uint256 i = 0; i < rewardPools.length; i++) {\n            address[] memory rewardTokens = ISavingsModule(rewardPools[i])\n                .supportedRewardTokens();\n\n            uint256[] memory rAmounts = ISavingsModule(rewardPools[i])\n                .withdrawReward(rewardTokens);\n\n            for (uint256 j = 0; j < rewardTokens.length; j++) {\n                _makeDistribution(\n                    rewardTokens[j],\n                    globalPeriodBuyAmount,\n                    rAmounts[j]\n                );\n            }\n        }\n    }\n\n    function _claimDistributions() private returns (bool) {\n        _withdrawRewardsAndMakeDistribution();\n\n        uint256 tokenId = getTokenIdByAddress(_msgSender());\n\n        uint256 dividedBuyAmount = _calculateDividedBuyAmount();\n\n        for (\n            uint256 i = _accountOf[tokenId].nextDistributionIndex;\n            i < distributions.length;\n            i++\n        ) {\n            if (distributions[i].token == tokenToSell) {\n                // require(false, \"claim\");\n\n                uint256 amount = _calculatePayout(\n                    i,\n                    _accountOf[tokenId].buyAmount\n                );\n\n                // _refreshAccount(\n                //     tokenId,\n                //     amount,\n                //     _accountOf[tokenId].buyAmount,\n                //     0,\n                //     true\n                // );\n            } else {\n                if (\n                    _accountOf[tokenId].balance[tokenToSell] >= dividedBuyAmount\n                ) {\n                    uint256 amount = _calculatePayout(i, dividedBuyAmount);\n                    _subBuyAmountAndUpdateBalance(\n                        tokenId,\n                        i,\n                        dividedBuyAmount,\n                        amount\n                    );\n                }\n            }\n        }\n\n        _accountOf[tokenId].nextDistributionIndex = distributions.length;\n    }\n\n    function _registerNewAccount() private returns (uint256) {\n        _tokenIds.increment();\n\n        uint256 tokenId = _tokenIds.current();\n\n        _mint(_msgSender(), tokenId);\n\n        return tokenId;\n    }\n\n    function _calculateWithdrawalMaxNAmount(address token, uint256 amount)\n        private\n        view\n        returns (uint256)\n    {\n        // normalized withdrawal amount\n        uint256 nAmount = amount.normalize(tokenDataOf[token].decimals);\n\n        // normalized withdrawal amount + fee\n        return nAmount.add(nAmount.mul(protocolMaxFee).div(1e18));\n    }\n\n    function _makeDistribution(\n        address token,\n        uint256 amountIn,\n        uint256 amountOut\n    ) private {\n        distributions.push(\n            Distribution({\n                token: token,\n                amountIn: amountIn,\n                amountOut: amountOut\n            })\n        );\n    }\n\n    function _calculateYieldAndMakeDistribution(\n        address token,\n        uint256 nAmount,\n        bool isIncrementBalance\n    ) private {\n        uint256 actualBalance = IERC20(tokenDataOf[token].poolToken).balanceOf(\n            address(this)\n        );\n\n        uint256 yield = 0;\n\n        if (isIncrementBalance) {\n            yield = actualBalance.add(nAmount).sub(\n                prevPoolTokenBalanceOf[token]\n            );\n        } else {\n            yield = actualBalance.sub(nAmount).sub(\n                prevPoolTokenBalanceOf[token]\n            );\n        }\n\n        if (yield > 0)\n            _makeDistribution(\n                token,\n                globalPeriodBuyAmount,\n                yield.denormalize(tokenDataOf[token].decimals)\n            );\n    }\n\n    function _depositToPool(address token, uint256 amount)\n        private\n        returns (uint256, uint256)\n    {\n        address[] memory tokens = new address[](1);\n        uint256[] memory amounts = new uint256[](1);\n\n        tokens[0] = token;\n        amounts[0] = amount;\n\n        token.safeApprove(tokenDataOf[token].pool, amount);\n\n        // normalized deposit amount\n        uint256 nDeposit = ISavingsModule(tokenDataOf[token].pool).deposit(\n            tokenDataOf[token].protocol,\n            tokens,\n            amounts\n        );\n\n        // denormalized deposit amount\n        uint256 dDeposit = nDeposit.denormalize(tokenDataOf[token].decimals);\n\n        _calculateYieldAndMakeDistribution(token, nDeposit, true);\n\n        prevPoolTokenBalanceOf[token] = IERC20(tokenDataOf[token].poolToken)\n            .balanceOf(address(this));\n\n        return (nDeposit, dDeposit);\n    }\n\n    function _withdrawFromPool(address token, uint256 amount)\n        private\n        returns (uint256, uint256)\n    {\n        // normalized withdrawal amount (burn)\n        uint256 nWithdrawal = ISavingsModule(tokenDataOf[token].pool).withdraw(\n            tokenDataOf[token].protocol,\n            token,\n            amount,\n            _calculateWithdrawalMaxNAmount(token, amount)\n        );\n\n        // denormalized withdrawal amount (burn)\n        uint256 dWithdrawal = nWithdrawal.denormalize(\n            tokenDataOf[token].decimals\n        );\n\n        _calculateYieldAndMakeDistribution(token, nWithdrawal, false);\n\n        prevPoolTokenBalanceOf[token] = IERC20(tokenDataOf[token].poolToken)\n            .balanceOf(address(this));\n\n        return (nWithdrawal, dWithdrawal);\n    }\n\n    function _swapAndMakeDistribution(uint256 amountIn, address[] memory path)\n        private\n    {\n        uint256[] memory amountsOut = IUniswapV2Router02(router).getAmountsOut(\n            amountIn,\n            path\n        );\n\n        uint256[] memory amounts = IUniswapV2Router02(router)\n            .swapExactTokensForTokens(\n            amountIn,\n            amountsOut[1],\n            path,\n            address(this),\n            deadline\n        );\n\n        // returns normalized amount of pTokens (mint)\n        (, uint256 dDeposit) = _depositToPool(path[1], amounts[1]);\n\n        _makeDistribution(path[1], amounts[0], dDeposit);\n    }\n}\n",
  "sourcePath": "/Users/ilya/Documents/Akropolis/dca-strategy-bot/contracts/modules/dca/DCAModule.sol",
  "compiler": {
    "name": "solc",
    "version": "0.5.17+commit.d19bba13.Emscripten.clang"
  },
  "schemaVersion": "3.2.3",
  "updatedAt": "2020-08-10T19:11:24.141Z",
  "devdoc": {
    "methods": {
      "approve(address,uint256)": {
        "details": "Approves another address to transfer the given token ID The zero address indicates there is no approved address. There can only be one approved address per token at a given time. Can only be called by the token owner or an approved operator.",
        "params": {
          "to": "address to be approved for the given token ID",
          "tokenId": "uint256 ID of the token to be approved"
        }
      },
      "balanceOf(address)": {
        "details": "Gets the balance of the specified address.",
        "params": {
          "owner": "address to query the balance of"
        },
        "return": "uint256 representing the amount owned by the passed address"
      },
      "baseURI()": {
        "details": "Returns the base URI set via {_setBaseURI}. This will be automatically added as a preffix in {tokenURI} to each token's URI, when they are non-empty.    * _Available since v2.5.0._"
      },
      "burn(uint256)": {
        "details": "Burns a specific ERC721 token.",
        "params": {
          "tokenId": "uint256 id of the ERC721 token to be burned."
        }
      },
      "getApproved(uint256)": {
        "details": "Gets the approved address for a token ID, or zero if no address set Reverts if the token ID does not exist.",
        "params": {
          "tokenId": "uint256 ID of the token to query the approval of"
        },
        "return": "address currently approved for the given token ID"
      },
      "initialize()": {
        "details": "Constructor function."
      },
      "initialize(string,string)": {
        "details": "Constructor function"
      },
      "isApprovedForAll(address,address)": {
        "details": "Tells whether an operator is approved by a given owner.",
        "params": {
          "operator": "operator address which you want to query the approval of",
          "owner": "owner address which you want to query the approval of"
        },
        "return": "bool whether the given operator is approved by the given owner"
      },
      "isOwner()": {
        "details": "Returns true if the caller is the current owner."
      },
      "name()": {
        "details": "Gets the token name.",
        "return": "string representing the token name"
      },
      "owner()": {
        "details": "Returns the address of the current owner."
      },
      "ownerOf(uint256)": {
        "details": "Gets the owner of the specified token ID.",
        "params": {
          "tokenId": "uint256 ID of the token to query the owner of"
        },
        "return": "address currently marked as the owner of the given token ID"
      },
      "renounceOwnership()": {
        "details": "Leaves the contract without owner. It will not be possible to call `onlyOwner` functions anymore. Can only be called by the current owner.     * > Note: Renouncing ownership will leave the contract without an owner, thereby removing any functionality that is only available to the owner."
      },
      "safeTransferFrom(address,address,uint256)": {
        "details": "Safely transfers the ownership of a given token ID to another address If the target address is a contract, it must implement {IERC721Receiver-onERC721Received}, which is called upon a safe transfer, and return the magic value `bytes4(keccak256(\"onERC721Received(address,address,uint256,bytes)\"))`; otherwise, the transfer is reverted. Requires the msg.sender to be the owner, approved, or operator",
        "params": {
          "from": "current owner of the token",
          "to": "address to receive the ownership of the given token ID",
          "tokenId": "uint256 ID of the token to be transferred"
        }
      },
      "safeTransferFrom(address,address,uint256,bytes)": {
        "details": "Safely transfers the ownership of a given token ID to another address If the target address is a contract, it must implement {IERC721Receiver-onERC721Received}, which is called upon a safe transfer, and return the magic value `bytes4(keccak256(\"onERC721Received(address,address,uint256,bytes)\"))`; otherwise, the transfer is reverted. Requires the _msgSender() to be the owner, approved, or operator",
        "params": {
          "_data": "bytes data to send along with a safe transfer check",
          "from": "current owner of the token",
          "to": "address to receive the ownership of the given token ID",
          "tokenId": "uint256 ID of the token to be transferred"
        }
      },
      "setApprovalForAll(address,bool)": {
        "details": "Sets or unsets the approval of a given operator An operator is allowed to transfer all tokens of the sender on their behalf.",
        "params": {
          "approved": "representing the status of the approval to be set",
          "to": "operator address to set the approval"
        }
      },
      "supportsInterface(bytes4)": {
        "details": "See {IERC165-supportsInterface}.     * Time complexity O(1), guaranteed to always use less than 30 000 gas."
      },
      "symbol()": {
        "details": "Gets the token symbol.",
        "return": "string representing the token symbol"
      },
      "tokenByIndex(uint256)": {
        "details": "Gets the token ID at a given index of all the tokens in this contract Reverts if the index is greater or equal to the total number of tokens.",
        "params": {
          "index": "uint256 representing the index to be accessed of the tokens list"
        },
        "return": "uint256 token ID at the given index of the tokens list"
      },
      "tokenOfOwnerByIndex(address,uint256)": {
        "details": "Gets the token ID at a given index of the tokens list of the requested owner.",
        "params": {
          "index": "uint256 representing the index to be accessed of the requested tokens list",
          "owner": "address owning the tokens list to be accessed"
        },
        "return": "uint256 token ID at the given index of the tokens list owned by the requested address"
      },
      "tokenURI(uint256)": {
        "details": "Returns the URI for a given token ID. May return an empty string.     * If the token's URI is non-empty and a base URI was set (via {_setBaseURI}), it will be added to the token ID's URI as a prefix.     * Reverts if the token ID does not exist."
      },
      "totalSupply()": {
        "details": "Gets the total amount of tokens stored by the contract.",
        "return": "uint256 representing the total amount of tokens"
      },
      "transferFrom(address,address,uint256)": {
        "details": "Transfers the ownership of a given token ID to another address. Usage of this method is discouraged, use {safeTransferFrom} whenever possible. Requires the msg.sender to be the owner, approved, or operator.",
        "params": {
          "from": "current owner of the token",
          "to": "address to receive the ownership of the given token ID",
          "tokenId": "uint256 ID of the token to be transferred"
        }
      },
      "transferOwnership(address)": {
        "details": "Transfers ownership of the contract to a new account (`newOwner`). Can only be called by the current owner."
      }
    }
  },
  "userdoc": {
    "methods": {}
  }
}