{
  "contractName": "DCAOperatorRole",
  "abi": [
    {
      "anonymous": false,
      "inputs": [
        {
          "indexed": true,
          "internalType": "address",
          "name": "account",
          "type": "address"
        }
      ],
      "name": "DCAOperatorAdded",
      "type": "event"
    },
    {
      "anonymous": false,
      "inputs": [
        {
          "indexed": true,
          "internalType": "address",
          "name": "account",
          "type": "address"
        }
      ],
      "name": "DCAOperatorRemoved",
      "type": "event"
    },
    {
      "constant": false,
      "inputs": [
        {
          "internalType": "address",
          "name": "sender",
          "type": "address"
        }
      ],
      "name": "initialize",
      "outputs": [],
      "payable": false,
      "stateMutability": "nonpayable",
      "type": "function"
    },
    {
      "constant": false,
      "inputs": [
        {
          "internalType": "address",
          "name": "account",
          "type": "address"
        }
      ],
      "name": "addDCAOperator",
      "outputs": [],
      "payable": false,
      "stateMutability": "nonpayable",
      "type": "function"
    },
    {
      "constant": false,
      "inputs": [],
      "name": "renounceDCAOperator",
      "outputs": [],
      "payable": false,
      "stateMutability": "nonpayable",
      "type": "function"
    },
    {
      "constant": true,
      "inputs": [
        {
          "internalType": "address",
          "name": "account",
          "type": "address"
        }
      ],
      "name": "isDCAOperator",
      "outputs": [
        {
          "internalType": "bool",
          "name": "",
          "type": "bool"
        }
      ],
      "payable": false,
      "stateMutability": "view",
      "type": "function"
    }
  ],
  "bytecode": "0x6080604052610670806100136000396000f3fe608060405234801561001057600080fd5b506004361061004c5760003560e01c80631dd3f0e914610051578063c4d66de81461005b578063c72738951461008e578063f2d36baa146100d5575b600080fd5b610059610108565b005b6100596004803603602081101561007157600080fd5b503573ffffffffffffffffffffffffffffffffffffffff1661011a565b6100c1600480360360208110156100a457600080fd5b503573ffffffffffffffffffffffffffffffffffffffff16610245565b604080519115158252519081900360200190f35b610059600480360360208110156100eb57600080fd5b503573ffffffffffffffffffffffffffffffffffffffff1661025e565b6101186101136102cf565b6102d3565b565b600054610100900460ff16806101335750610133610328565b80610141575060005460ff16155b610196576040517f08c379a000000000000000000000000000000000000000000000000000000000815260040180806020018281038252602e81526020018061060e602e913960400191505060405180910390fd5b600054610100900460ff161580156101fc57600080547fffffffffffffffffffffffffffffffffffffffffffffffffffffffffffffff007fffffffffffffffffffffffffffffffffffffffffffffffffffffffffffff00ff909116610100171660011790555b61020582610245565b610212576102128261032e565b801561024157600080547fffffffffffffffffffffffffffffffffffffffffffffffffffffffffffff00ff1690555b5050565b600061025860338363ffffffff61038316565b92915050565b61026e6102696102cf565b610245565b6102c3576040517f08c379a000000000000000000000000000000000000000000000000000000000815260040180806020018281038252603a8152602001806105b2603a913960400191505060405180910390fd5b6102cc8161032e565b50565b3390565b6102e460338263ffffffff61041e16565b60405173ffffffffffffffffffffffffffffffffffffffff8216907f0ce9bf7d79f4d20dd39c2ef94ea6ce0613fdbad453ac4b17ef981422cbc65e6890600090a250565b303b1590565b61033f60338263ffffffff6104ca16565b60405173ffffffffffffffffffffffffffffffffffffffff8216907f1c3f027a4c907a6c9dd65947c44db0adce386f894f23033f7ff2ca693b6e2a9890600090a250565b600073ffffffffffffffffffffffffffffffffffffffff82166103f1576040517f08c379a00000000000000000000000000000000000000000000000000000000081526004018080602001828103825260228152602001806105ec6022913960400191505060405180910390fd5b5073ffffffffffffffffffffffffffffffffffffffff166000908152602091909152604090205460ff1690565b6104288282610383565b61047d576040517f08c379a00000000000000000000000000000000000000000000000000000000081526004018080602001828103825260218152602001806105916021913960400191505060405180910390fd5b73ffffffffffffffffffffffffffffffffffffffff1660009081526020919091526040902080547fffffffffffffffffffffffffffffffffffffffffffffffffffffffffffffff00169055565b6104d48282610383565b1561054057604080517f08c379a000000000000000000000000000000000000000000000000000000000815260206004820152601f60248201527f526f6c65733a206163636f756e7420616c72656164792068617320726f6c6500604482015290519081900360640190fd5b73ffffffffffffffffffffffffffffffffffffffff1660009081526020919091526040902080547fffffffffffffffffffffffffffffffffffffffffffffffffffffffffffffff0016600117905556fe526f6c65733a206163636f756e7420646f6573206e6f74206861766520726f6c654443414f70657261746f72526f6c653a2063616c6c657220646f6573206e6f74206861766520746865204443414f70657261746f7220726f6c65526f6c65733a206163636f756e7420697320746865207a65726f2061646472657373436f6e747261637420696e7374616e63652068617320616c7265616479206265656e20696e697469616c697a6564a265627a7a723158203bab64c6e8cba308708f692892a7b6f5b44ccf0499f2ae650444acbeec5e3da364736f6c63430005110032",
  "source": "pragma solidity ^0.5.12;\n\nimport \"@openzeppelin/upgrades/contracts/Initializable.sol\";\nimport \"@openzeppelin/contracts-ethereum-package/contracts/GSN/Context.sol\";\nimport \"@openzeppelin/contracts-ethereum-package/contracts/access/Roles.sol\";\n\ncontract DCAOperatorRole is Initializable, Context {\n    using Roles for Roles.Role;\n\n    event DCAOperatorAdded(address indexed account);\n    event DCAOperatorRemoved(address indexed account);\n\n    Roles.Role private _operators;\n\n    function initialize(address sender) public initializer {\n        if (!isDCAOperator(sender)) {\n            _addDCAOperator(sender);\n        }\n    }\n\n    modifier onlyDCAOperator() {\n        require(\n            isDCAOperator(_msgSender()),\n            \"DCAOperatorRole: caller does not have the DCAOperator role\"\n        );\n        _;\n    }\n\n    function addDCAOperator(address account) public onlyDCAOperator {\n        _addDCAOperator(account);\n    }\n\n    function renounceDCAOperator() public {\n        _removeDCAOperator(_msgSender());\n    }\n\n    function isDCAOperator(address account) public view returns (bool) {\n        return _operators.has(account);\n    }\n\n    function _addDCAOperator(address account) internal {\n        _operators.add(account);\n        emit DCAOperatorAdded(account);\n    }\n\n    function _removeDCAOperator(address account) internal {\n        _operators.remove(account);\n        emit DCAOperatorRemoved(account);\n    }\n}\n",
  "sourcePath": "/Users/ilya/Documents/Akropolis/dca-strategy-bot/contracts/modules/dca/DCAOperatorRole.sol",
  "compiler": {
    "name": "solc",
    "version": "0.5.17+commit.d19bba13.Emscripten.clang"
  },
  "schemaVersion": "3.2.3",
  "updatedAt": "2020-08-07T09:48:49.711Z",
  "devdoc": {
    "methods": {}
  },
  "userdoc": {
    "methods": {}
  }
}