{
  "contractName": "DefiOperatorRole",
  "abi": [
    {
      "anonymous": false,
      "inputs": [
        {
          "indexed": true,
          "internalType": "address",
          "name": "account",
          "type": "address"
        }
      ],
      "name": "DefiOperatorAdded",
      "type": "event"
    },
    {
      "anonymous": false,
      "inputs": [
        {
          "indexed": true,
          "internalType": "address",
          "name": "account",
          "type": "address"
        }
      ],
      "name": "DefiOperatorRemoved",
      "type": "event"
    },
    {
      "constant": false,
      "inputs": [
        {
          "internalType": "address",
          "name": "sender",
          "type": "address"
        }
      ],
      "name": "initialize",
      "outputs": [],
      "payable": false,
      "stateMutability": "nonpayable",
      "type": "function"
    },
    {
      "constant": false,
      "inputs": [
        {
          "internalType": "address",
          "name": "account",
          "type": "address"
        }
      ],
      "name": "addDefiOperator",
      "outputs": [],
      "payable": false,
      "stateMutability": "nonpayable",
      "type": "function"
    },
    {
      "constant": false,
      "inputs": [],
      "name": "renounceDefiOperator",
      "outputs": [],
      "payable": false,
      "stateMutability": "nonpayable",
      "type": "function"
    },
    {
      "constant": true,
      "inputs": [
        {
          "internalType": "address",
          "name": "account",
          "type": "address"
        }
      ],
      "name": "isDefiOperator",
      "outputs": [
        {
          "internalType": "bool",
          "name": "",
          "type": "bool"
        }
      ],
      "payable": false,
      "stateMutability": "view",
      "type": "function"
    }
  ],
  "bytecode": "0x6080604052610672806100136000396000f3fe608060405234801561001057600080fd5b506004361061004c5760003560e01c806343cdf1f714610051578063c4d66de81461005b578063c662ff241461008e578063f64f329e146100c1575b600080fd5b610059610108565b005b6100596004803603602081101561007157600080fd5b503573ffffffffffffffffffffffffffffffffffffffff1661011a565b610059600480360360208110156100a457600080fd5b503573ffffffffffffffffffffffffffffffffffffffff16610245565b6100f4600480360360208110156100d757600080fd5b503573ffffffffffffffffffffffffffffffffffffffff166102b6565b604080519115158252519081900360200190f35b6101186101136102cf565b6102d3565b565b600054610100900460ff16806101335750610133610328565b80610141575060005460ff16155b610196576040517f08c379a000000000000000000000000000000000000000000000000000000000815260040180806020018281038252602e8152602001806105d4602e913960400191505060405180910390fd5b600054610100900460ff161580156101fc57600080547fffffffffffffffffffffffffffffffffffffffffffffffffffffffffffffff007fffffffffffffffffffffffffffffffffffffffffffffffffffffffffffff00ff909116610100171660011790555b610205826102b6565b610212576102128261032e565b801561024157600080547fffffffffffffffffffffffffffffffffffffffffffffffffffffffffffff00ff1690555b5050565b6102556102506102cf565b6102b6565b6102aa576040517f08c379a000000000000000000000000000000000000000000000000000000000815260040180806020018281038252603c815260200180610602603c913960400191505060405180910390fd5b6102b38161032e565b50565b60006102c960338363ffffffff61038316565b92915050565b3390565b6102e460338263ffffffff61041e16565b60405173ffffffffffffffffffffffffffffffffffffffff8216907f626bf7c6846fdc6e3f94a7c861b91118b5c0506bc3dc892b70f7d42bd619118790600090a250565b303b1590565b61033f60338263ffffffff6104ca16565b60405173ffffffffffffffffffffffffffffffffffffffff8216907fd2a1587d372a888fc8427f6f206845b51ddf76976073d43f23e512ad1f22483590600090a250565b600073ffffffffffffffffffffffffffffffffffffffff82166103f1576040517f08c379a00000000000000000000000000000000000000000000000000000000081526004018080602001828103825260228152602001806105b26022913960400191505060405180910390fd5b5073ffffffffffffffffffffffffffffffffffffffff166000908152602091909152604090205460ff1690565b6104288282610383565b61047d576040517f08c379a00000000000000000000000000000000000000000000000000000000081526004018080602001828103825260218152602001806105916021913960400191505060405180910390fd5b73ffffffffffffffffffffffffffffffffffffffff1660009081526020919091526040902080547fffffffffffffffffffffffffffffffffffffffffffffffffffffffffffffff00169055565b6104d48282610383565b1561054057604080517f08c379a000000000000000000000000000000000000000000000000000000000815260206004820152601f60248201527f526f6c65733a206163636f756e7420616c72656164792068617320726f6c6500604482015290519081900360640190fd5b73ffffffffffffffffffffffffffffffffffffffff1660009081526020919091526040902080547fffffffffffffffffffffffffffffffffffffffffffffffffffffffffffffff0016600117905556fe526f6c65733a206163636f756e7420646f6573206e6f74206861766520726f6c65526f6c65733a206163636f756e7420697320746865207a65726f2061646472657373436f6e747261637420696e7374616e63652068617320616c7265616479206265656e20696e697469616c697a6564446566694f70657261746f72526f6c653a2063616c6c657220646f6573206e6f7420686176652074686520446566694f70657261746f7220726f6c65a265627a7a72315820aeddbc1f1fd293d650fbe46ae66b0a736829ad0d257727ef59b293e306def0d964736f6c63430005110032",
  "source": "pragma solidity ^0.5.12;\n\nimport \"@openzeppelin/upgrades/contracts/Initializable.sol\";\nimport \"@openzeppelin/contracts-ethereum-package/contracts/GSN/Context.sol\";\nimport \"@openzeppelin/contracts-ethereum-package/contracts/access/Roles.sol\";\n\ncontract DefiOperatorRole is Initializable, Context {\n    using Roles for Roles.Role;\n\n    event DefiOperatorAdded(address indexed account);\n    event DefiOperatorRemoved(address indexed account);\n\n    Roles.Role private _operators;\n\n    function initialize(address sender) public initializer {\n        if (!isDefiOperator(sender)) {\n            _addDefiOperator(sender);\n        }\n    }\n\n    modifier onlyDefiOperator() {\n        require(isDefiOperator(_msgSender()), \"DefiOperatorRole: caller does not have the DefiOperator role\");\n        _;\n    }\n\n    function addDefiOperator(address account) public onlyDefiOperator {\n        _addDefiOperator(account);\n    }\n\n    function renounceDefiOperator() public {\n        _removeDefiOperator(_msgSender());\n    }\n\n    function isDefiOperator(address account) public view returns (bool) {\n        return _operators.has(account);\n    }\n\n    function _addDefiOperator(address account) internal {\n        _operators.add(account);\n        emit DefiOperatorAdded(account);\n    }\n\n    function _removeDefiOperator(address account) internal {\n        _operators.remove(account);\n        emit DefiOperatorRemoved(account);\n    }\n\n}\n\n",
  "sourcePath": "/Users/ilya/Documents/Akropolis/dca-strategy-bot/contracts/modules/defi/DefiOperatorRole.sol",
  "compiler": {
    "name": "solc",
    "version": "0.5.17+commit.d19bba13.Emscripten.clang"
  },
  "schemaVersion": "3.2.3",
  "updatedAt": "2020-08-07T14:14:27.128Z",
  "devdoc": {
    "methods": {}
  },
  "userdoc": {
    "methods": {}
  }
}