{
  "contractName": "DistributionToken",
  "abi": [
    {
      "anonymous": false,
      "inputs": [
        {
          "indexed": true,
          "internalType": "address",
          "name": "owner",
          "type": "address"
        },
        {
          "indexed": true,
          "internalType": "address",
          "name": "spender",
          "type": "address"
        },
        {
          "indexed": false,
          "internalType": "uint256",
          "name": "value",
          "type": "uint256"
        }
      ],
      "name": "Approval",
      "type": "event"
    },
    {
      "anonymous": false,
      "inputs": [
        {
          "indexed": false,
          "internalType": "uint256",
          "name": "amount",
          "type": "uint256"
        }
      ],
      "name": "DistributionAccumulatorIncreased",
      "type": "event"
    },
    {
      "anonymous": false,
      "inputs": [
        {
          "indexed": false,
          "internalType": "uint256",
          "name": "amount",
          "type": "uint256"
        },
        {
          "indexed": false,
          "internalType": "uint256",
          "name": "totalSupply",
          "type": "uint256"
        }
      ],
      "name": "DistributionCreated",
      "type": "event"
    },
    {
      "anonymous": false,
      "inputs": [
        {
          "indexed": false,
          "internalType": "address",
          "name": "account",
          "type": "address"
        },
        {
          "indexed": false,
          "internalType": "uint256",
          "name": "amount",
          "type": "uint256"
        },
        {
          "indexed": false,
          "internalType": "uint256",
          "name": "fromDistribution",
          "type": "uint256"
        },
        {
          "indexed": false,
          "internalType": "uint256",
          "name": "toDistribution",
          "type": "uint256"
        }
      ],
      "name": "DistributionsClaimed",
      "type": "event"
    },
    {
      "anonymous": false,
      "inputs": [
        {
          "indexed": true,
          "internalType": "address",
          "name": "account",
          "type": "address"
        }
      ],
      "name": "MinterAdded",
      "type": "event"
    },
    {
      "anonymous": false,
      "inputs": [
        {
          "indexed": true,
          "internalType": "address",
          "name": "account",
          "type": "address"
        }
      ],
      "name": "MinterRemoved",
      "type": "event"
    },
    {
      "anonymous": false,
      "inputs": [
        {
          "indexed": true,
          "internalType": "address",
          "name": "from",
          "type": "address"
        },
        {
          "indexed": true,
          "internalType": "address",
          "name": "to",
          "type": "address"
        },
        {
          "indexed": false,
          "internalType": "uint256",
          "name": "value",
          "type": "uint256"
        }
      ],
      "name": "Transfer",
      "type": "event"
    },
    {
      "constant": true,
      "inputs": [],
      "name": "DISTRIBUTION_AGGREGATION_PERIOD",
      "outputs": [
        {
          "internalType": "uint256",
          "name": "",
          "type": "uint256"
        }
      ],
      "payable": false,
      "stateMutability": "view",
      "type": "function"
    },
    {
      "constant": false,
      "inputs": [
        {
          "internalType": "address",
          "name": "account",
          "type": "address"
        }
      ],
      "name": "addMinter",
      "outputs": [],
      "payable": false,
      "stateMutability": "nonpayable",
      "type": "function"
    },
    {
      "constant": true,
      "inputs": [
        {
          "internalType": "address",
          "name": "owner",
          "type": "address"
        },
        {
          "internalType": "address",
          "name": "spender",
          "type": "address"
        }
      ],
      "name": "allowance",
      "outputs": [
        {
          "internalType": "uint256",
          "name": "",
          "type": "uint256"
        }
      ],
      "payable": false,
      "stateMutability": "view",
      "type": "function"
    },
    {
      "constant": false,
      "inputs": [
        {
          "internalType": "address",
          "name": "spender",
          "type": "address"
        },
        {
          "internalType": "uint256",
          "name": "amount",
          "type": "uint256"
        }
      ],
      "name": "approve",
      "outputs": [
        {
          "internalType": "bool",
          "name": "",
          "type": "bool"
        }
      ],
      "payable": false,
      "stateMutability": "nonpayable",
      "type": "function"
    },
    {
      "constant": true,
      "inputs": [
        {
          "internalType": "address",
          "name": "account",
          "type": "address"
        }
      ],
      "name": "balanceOf",
      "outputs": [
        {
          "internalType": "uint256",
          "name": "",
          "type": "uint256"
        }
      ],
      "payable": false,
      "stateMutability": "view",
      "type": "function"
    },
    {
      "constant": false,
      "inputs": [
        {
          "internalType": "address",
          "name": "spender",
          "type": "address"
        },
        {
          "internalType": "uint256",
          "name": "subtractedValue",
          "type": "uint256"
        }
      ],
      "name": "decreaseAllowance",
      "outputs": [
        {
          "internalType": "bool",
          "name": "",
          "type": "bool"
        }
      ],
      "payable": false,
      "stateMutability": "nonpayable",
      "type": "function"
    },
    {
      "constant": true,
      "inputs": [],
      "name": "distributionAccumulator",
      "outputs": [
        {
          "internalType": "uint256",
          "name": "",
          "type": "uint256"
        }
      ],
      "payable": false,
      "stateMutability": "view",
      "type": "function"
    },
    {
      "constant": true,
      "inputs": [
        {
          "internalType": "uint256",
          "name": "",
          "type": "uint256"
        }
      ],
      "name": "distributions",
      "outputs": [
        {
          "internalType": "uint256",
          "name": "amount",
          "type": "uint256"
        },
        {
          "internalType": "uint256",
          "name": "totalSupply",
          "type": "uint256"
        }
      ],
      "payable": false,
      "stateMutability": "view",
      "type": "function"
    },
    {
      "constant": false,
      "inputs": [
        {
          "internalType": "address",
          "name": "spender",
          "type": "address"
        },
        {
          "internalType": "uint256",
          "name": "addedValue",
          "type": "uint256"
        }
      ],
      "name": "increaseAllowance",
      "outputs": [
        {
          "internalType": "bool",
          "name": "",
          "type": "bool"
        }
      ],
      "payable": false,
      "stateMutability": "nonpayable",
      "type": "function"
    },
    {
      "constant": false,
      "inputs": [
        {
          "internalType": "address",
          "name": "sender",
          "type": "address"
        }
      ],
      "name": "initialize",
      "outputs": [],
      "payable": false,
      "stateMutability": "nonpayable",
      "type": "function"
    },
    {
      "constant": true,
      "inputs": [
        {
          "internalType": "address",
          "name": "account",
          "type": "address"
        }
      ],
      "name": "isMinter",
      "outputs": [
        {
          "internalType": "bool",
          "name": "",
          "type": "bool"
        }
      ],
      "payable": false,
      "stateMutability": "view",
      "type": "function"
    },
    {
      "constant": false,
      "inputs": [
        {
          "internalType": "address",
          "name": "account",
          "type": "address"
        },
        {
          "internalType": "uint256",
          "name": "amount",
          "type": "uint256"
        }
      ],
      "name": "mint",
      "outputs": [
        {
          "internalType": "bool",
          "name": "",
          "type": "bool"
        }
      ],
      "payable": false,
      "stateMutability": "nonpayable",
      "type": "function"
    },
    {
      "constant": true,
      "inputs": [],
      "name": "nextDistributionTimestamp",
      "outputs": [
        {
          "internalType": "uint256",
          "name": "",
          "type": "uint256"
        }
      ],
      "payable": false,
      "stateMutability": "view",
      "type": "function"
    },
    {
      "constant": true,
      "inputs": [
        {
          "internalType": "address",
          "name": "",
          "type": "address"
        }
      ],
      "name": "nextDistributions",
      "outputs": [
        {
          "internalType": "uint256",
          "name": "",
          "type": "uint256"
        }
      ],
      "payable": false,
      "stateMutability": "view",
      "type": "function"
    },
    {
      "constant": false,
      "inputs": [],
      "name": "renounceMinter",
      "outputs": [],
      "payable": false,
      "stateMutability": "nonpayable",
      "type": "function"
    },
    {
      "constant": true,
      "inputs": [],
      "name": "totalSupply",
      "outputs": [
        {
          "internalType": "uint256",
          "name": "",
          "type": "uint256"
        }
      ],
      "payable": false,
      "stateMutability": "view",
      "type": "function"
    },
    {
      "constant": false,
      "inputs": [
        {
          "internalType": "address",
          "name": "recipient",
          "type": "address"
        },
        {
          "internalType": "uint256",
          "name": "amount",
          "type": "uint256"
        }
      ],
      "name": "transfer",
      "outputs": [
        {
          "internalType": "bool",
          "name": "",
          "type": "bool"
        }
      ],
      "payable": false,
      "stateMutability": "nonpayable",
      "type": "function"
    },
    {
      "constant": false,
      "inputs": [
        {
          "internalType": "address",
          "name": "sender",
          "type": "address"
        },
        {
          "internalType": "address",
          "name": "recipient",
          "type": "address"
        },
        {
          "internalType": "uint256",
          "name": "amount",
          "type": "uint256"
        }
      ],
      "name": "transferFrom",
      "outputs": [
        {
          "internalType": "bool",
          "name": "",
          "type": "bool"
        }
      ],
      "payable": false,
      "stateMutability": "nonpayable",
      "type": "function"
    },
    {
      "constant": false,
      "inputs": [
        {
          "internalType": "uint256",
          "name": "amount",
          "type": "uint256"
        }
      ],
      "name": "distribute",
      "outputs": [],
      "payable": false,
      "stateMutability": "nonpayable",
      "type": "function"
    },
    {
      "constant": false,
      "inputs": [],
      "name": "createDistribution",
      "outputs": [],
      "payable": false,
      "stateMutability": "nonpayable",
      "type": "function"
    },
    {
      "constant": false,
      "inputs": [
        {
          "internalType": "address",
          "name": "account",
          "type": "address"
        }
      ],
      "name": "claimDistributions",
      "outputs": [
        {
          "internalType": "uint256",
          "name": "",
          "type": "uint256"
        }
      ],
      "payable": false,
      "stateMutability": "nonpayable",
      "type": "function"
    },
    {
      "constant": false,
      "inputs": [
        {
          "internalType": "address[]",
          "name": "accounts",
          "type": "address[]"
        },
        {
          "internalType": "uint256",
          "name": "toDistribution",
          "type": "uint256"
        }
      ],
      "name": "claimDistributions",
      "outputs": [],
      "payable": false,
      "stateMutability": "nonpayable",
      "type": "function"
    },
    {
      "constant": false,
      "inputs": [
        {
          "internalType": "address[]",
          "name": "accounts",
          "type": "address[]"
        }
      ],
      "name": "claimDistributions",
      "outputs": [],
      "payable": false,
      "stateMutability": "nonpayable",
      "type": "function"
    },
    {
      "constant": false,
      "inputs": [
        {
          "internalType": "address",
          "name": "account",
          "type": "address"
        },
        {
          "internalType": "uint256",
          "name": "toDistribution",
          "type": "uint256"
        }
      ],
      "name": "claimDistributions",
      "outputs": [
        {
          "internalType": "uint256",
          "name": "",
          "type": "uint256"
        }
      ],
      "payable": false,
      "stateMutability": "nonpayable",
      "type": "function"
    },
    {
      "constant": true,
      "inputs": [
        {
          "internalType": "address",
          "name": "account",
          "type": "address"
        }
      ],
      "name": "fullBalanceOf",
      "outputs": [
        {
          "internalType": "uint256",
          "name": "",
          "type": "uint256"
        }
      ],
      "payable": false,
      "stateMutability": "view",
      "type": "function"
    },
    {
      "constant": true,
      "inputs": [
        {
          "internalType": "address",
          "name": "account",
          "type": "address"
        }
      ],
      "name": "calculateUnclaimedDistributions",
      "outputs": [
        {
          "internalType": "uint256",
          "name": "",
          "type": "uint256"
        }
      ],
      "payable": false,
      "stateMutability": "view",
      "type": "function"
    },
    {
      "constant": true,
      "inputs": [
        {
          "internalType": "uint256",
          "name": "fromDistribution",
          "type": "uint256"
        },
        {
          "internalType": "uint256",
          "name": "toDistribution",
          "type": "uint256"
        },
        {
          "internalType": "uint256",
          "name": "initialBalance",
          "type": "uint256"
        }
      ],
      "name": "calculateDistributedAmount",
      "outputs": [
        {
          "internalType": "uint256",
          "name": "",
          "type": "uint256"
        }
      ],
      "payable": false,
      "stateMutability": "view",
      "type": "function"
    },
    {
      "constant": true,
      "inputs": [],
      "name": "nextDistribution",
      "outputs": [
        {
          "internalType": "uint256",
          "name": "",
          "type": "uint256"
        }
      ],
      "payable": false,
      "stateMutability": "view",
      "type": "function"
    },
    {
      "constant": true,
      "inputs": [
        {
          "internalType": "address",
          "name": "account",
          "type": "address"
        }
      ],
      "name": "distributionBalanceOf",
      "outputs": [
        {
          "internalType": "uint256",
          "name": "",
          "type": "uint256"
        }
      ],
      "payable": false,
      "stateMutability": "view",
      "type": "function"
    },
    {
      "constant": true,
      "inputs": [],
      "name": "distributionTotalSupply",
      "outputs": [
        {
          "internalType": "uint256",
          "name": "",
          "type": "uint256"
        }
      ],
      "payable": false,
      "stateMutability": "view",
      "type": "function"
    }
  ],
  "bytecode": "0x6080604052611d49806100136000396000f3fe608060405234801561001057600080fd5b50600436106101da5760003560e01c806391c05b0b11610104578063c2a6d891116100a2578063d63b500411610071578063d63b50041461061f578063dd62ed3e14610627578063e6b1474414610655578063f238cd221461065d576101da565b8063c2a6d89114610555578063c4d66de8146105c5578063ce3e4dd2146105eb578063d08153fd146105f3576101da565b8063a457c2d7116100de578063a457c2d714610467578063a9059cbb14610493578063aa271e1a146104bf578063c12460f4146104e5576101da565b806391c05b0b1461041a578063983b2d5614610439578063986502751461045f576101da565b806340c10f191161017c57806370898f781161014b57806370898f781461037f57806370a08231146103a5578063780fa8cf146103cb5780637f4442e9146103f1576101da565b806340c10f19146102d15780634487d3df146102fd57806358b5dd721461033357806360b6364814610359576101da565b806323b872dd116101b857806323b872dd1461025f57806329b05c6f1461029557806338b0789d1461029d57806339509351146102a5576101da565b8063095ea7b3146101df57806318160ddd1461021f5780631d4ba2d214610239575b600080fd5b61020b600480360360408110156101f557600080fd5b506001600160a01b038135169060200135610665565b604080519115158252519081900360200190f35b610227610683565b60408051918252519081900360200190f35b6102276004803603602081101561024f57600080fd5b50356001600160a01b0316610689565b61020b6004803603606081101561027557600080fd5b506001600160a01b0381358116916020810135909116906040013561069c565b61022761072a565b610227610739565b61020b600480360360408110156102bb57600080fd5b506001600160a01b03813516906020013561073f565b61020b600480360360408110156102e757600080fd5b506001600160a01b038135169060200135610793565b61031a6004803603602081101561031357600080fd5b50356107ea565b6040805192835260208301919091528051918290030190f35b6102276004803603602081101561034957600080fd5b50356001600160a01b0316610815565b6102276004803603602081101561036f57600080fd5b50356001600160a01b0316610862565b6102276004803603602081101561039557600080fd5b50356001600160a01b031661088e565b610227600480360360208110156103bb57600080fd5b50356001600160a01b03166108a0565b610227600480360360208110156103e157600080fd5b50356001600160a01b03166108bb565b6102276004803603606081101561040757600080fd5b50803590602081013590604001356108c6565b6104376004803603602081101561043057600080fd5b5035610952565b005b6104376004803603602081101561044f57600080fd5b50356001600160a01b03166109ec565b610437610a3b565b61020b6004803603604081101561047d57600080fd5b506001600160a01b038135169060200135610a4d565b61020b600480360360408110156104a957600080fd5b506001600160a01b038135169060200135610abb565b61020b600480360360208110156104d557600080fd5b50356001600160a01b0316610acf565b610437600480360360408110156104fb57600080fd5b81019060208101813564010000000081111561051657600080fd5b82018360208201111561052857600080fd5b8035906020019184602083028401116401000000008311171561054a57600080fd5b919350915035610ae2565b6104376004803603602081101561056b57600080fd5b81019060208101813564010000000081111561058657600080fd5b82018360208201111561059857600080fd5b803590602001918460208302840111640100000000831117156105ba57600080fd5b509092509050610b90565b610437600480360360208110156105db57600080fd5b50356001600160a01b0316610bf4565b610227610cf8565b6102276004803603604081101561060957600080fd5b506001600160a01b038135169060200135610cfe565b610227610db5565b6102276004803603604081101561063d57600080fd5b506001600160a01b0381358116916020013516610dbb565b610437610de6565b610227610e75565b6000610679610672610e7c565b8484610e80565b5060015b92915050565b60355490565b600061069482610f6c565b90505b919050565b60006106a9848484610fa5565b61071f846106b5610e7c565b61071a85604051806060016040528060288152602001611b7e602891396001600160a01b038a166000908152603460205260408120906106f3610e7c565b6001600160a01b03168152602081019190915260400160002054919063ffffffff610fde16565b610e80565b5060015b9392505050565b6000610734610683565b905090565b60cd5490565b600061067961074c610e7c565b8461071a856034600061075d610e7c565b6001600160a01b03908116825260208083019390935260409182016000908120918c16815292529020549063ffffffff61107516565b60006107a56107a0610e7c565b610acf565b6107e05760405162461bcd60e51b8152600401808060200182810382526030815260200180611b0c6030913960400191505060405180910390fd5b61067983836110cf565b60cd81815481106107f757fe5b60009182526020909120600290910201805460019091015490915082565b60006001600160a01b03821630141561083057506000610697565b600061083b836108bb565b9050600061084884610f6c565b905061085a828263ffffffff61107516565b949350505050565b600061086c6110f4565b600061087d8360cd80549050611105565b9050801561069457610694836109e9565b60ce6020526000908152604090205481565b6001600160a01b031660009081526033602052604090205490565b6000610694826108a0565b60008284106109065760405162461bcd60e51b8152600401808060200182810382526030815260200180611c986030913960400191505060405180910390fd5b60cd548311156109475760405162461bcd60e51b815260040180806020018281038252602f815260200180611add602f913960400191505060405180910390fd5b61085a8484846111cb565b61095d6107a0610e7c565b6109985760405162461bcd60e51b8152600401808060200182810382526030815260200180611b0c6030913960400191505060405180910390fd5b60d0546109ab908263ffffffff61107516565b60d0556040805182815290517f28947a1b8cd1d9d78a7b045465f8a2fa6daa21bc522412d192a532aee396e9279181900360200190a16109e96110f4565b50565b6109f76107a0610e7c565b610a325760405162461bcd60e51b8152600401808060200182810382526030815260200180611b0c6030913960400191505060405180910390fd5b6109e981611280565b610a4b610a46610e7c565b6112c8565b565b6000610679610a5a610e7c565b8461071a85604051806060016040528060258152602001611cf06025913960346000610a84610e7c565b6001600160a01b03908116825260208083019390935260409182016000908120918d1681529252902054919063ffffffff610fde16565b6000610679610ac8610e7c565b8484610fa5565b600061069460688363ffffffff61131016565b60cd54811115610b235760405162461bcd60e51b815260040180806020018281038252602d815260200180611c47602d913960400191505060405180910390fd5b60005b82811015610b8a576000610b55858584818110610b3f57fe5b905060200201356001600160a01b031684611105565b90508015610b8157610b81858584818110610b6c57fe5b905060200201356001600160a01b03166109e9565b50600101610b26565b50505050565b610b986110f4565b60005b81811015610bef576000610bcf848484818110610bb457fe5b905060200201356001600160a01b031660cd80549050611105565b90508015610be657610be6848484818110610b6c57fe5b50600101610b9b565b505050565b600054610100900460ff1680610c0d5750610c0d611377565b80610c1b575060005460ff16155b610c565760405162461bcd60e51b815260040180806020018281038252602e815260200180611bc8602e913960400191505060405180910390fd5b600054610100900460ff16158015610cbc57600080547fffffffffffffffffffffffffffffffffffffffffffffffffffffffffffffff007fffffffffffffffffffffffffffffffffffffffffffffffffffffffffffff00ff909116610100171660011790555b610cc58261137d565b8015610cf457600080547fffffffffffffffffffffffffffffffffffffffffffffffffffffffffffff00ff1690555b5050565b60cf5481565b60cd54600090821115610d425760405162461bcd60e51b815260040180806020018281038252602d815260200180611c47602d913960400191505060405180910390fd5b6001600160a01b038316600090815260ce60205260409020548211610d985760405162461bcd60e51b815260040180806020018281038252602c815260200180611bf6602c913960400191505060405180910390fd5b6000610da48484611105565b9050801561072357610723846109e9565b60d05481565b6001600160a01b03918216600090815260346020908152604080832093909416825291909152205490565b610df16107a0610e7c565b610e2c5760405162461bcd60e51b8152600401808060200182810382526030815260200180611b0c6030913960400191505060405180910390fd5b600060d05411610e6d5760405162461bcd60e51b8152600401808060200182810382526028815260200180611cc86028913960400191505060405180910390fd5b610a4b61145b565b6201518081565b3390565b6001600160a01b038316610ec55760405162461bcd60e51b8152600401808060200182810382526024815260200180611c746024913960400191505060405180910390fd5b6001600160a01b038216610f0a5760405162461bcd60e51b8152600401808060200182810382526022815260200180611a956022913960400191505060405180910390fd5b6001600160a01b03808416600081815260346020908152604080832094871680845294825291829020859055815185815291517f8c5be1e5ebec7d5bd14f71427d1e84f3dd0314c0f7b2291e5b200ac8c7c3b9259281900390910190a3505050565b60cd546001600160a01b038216600090815260ce6020526040812054909111610f9757506000610697565b60cd54610694908390611557565b610fad6110f4565b610fb683611592565b50610fc082611592565b50610fcc8383836115a3565b610fd5836109e9565b610bef826109e9565b6000818484111561106d5760405162461bcd60e51b81526004018080602001828103825283818151815260200191508051906020019080838360005b8381101561103257818101518382015260200161101a565b50505050905090810190601f16801561105f5780820380516001836020036101000a031916815260200191505b509250505060405180910390fd5b505050900390565b600082820183811015610723576040805162461bcd60e51b815260206004820152601b60248201527f536166654d6174683a206164646974696f6e206f766572666c6f770000000000604482015290519081900360640190fd5b6110d76110f4565b6110e082611592565b506110eb8282611701565b610cf4826109e9565b6110fc6117f3565b610e6d57610a4b565b6001600160a01b038216600090815260ce602052604081205482811061112f57600091505061067d565b600061113b8585611557565b6001600160a01b038616600090815260ce602052604090208590559050806111685760009250505061067d565b6111733086836115a3565b604080516001600160a01b0387168152602081018390528082018490526060810186905290517fe61468ba7ef06e2d4e4f2ae88303bb4d1fdbe6001ad2fe0782cbd4f7dffca8579181900360800190a1949350505050565b60008382806111df57600092505050610723565b8482101561126657600061124560cd84815481106111f957fe5b90600052602060002090600202016001015461123960cd868154811061121b57fe5b6000918252602090912060029091020154859063ffffffff61180b16565b9063ffffffff61186416565b9050611257828263ffffffff61107516565b60019093019291506111df9050565b611276818563ffffffff6118a616565b9695505050505050565b61129160688263ffffffff6118e816565b6040516001600160a01b038216907f6ae172837ea30b801fbfcdd4108aa1d5bf8ff775444fd70256b44e6bf3dfc3f690600090a250565b6112d960688263ffffffff61198716565b6040516001600160a01b038216907fe94479a9f7e1952cc78f2d6baab678adc1b772d936c6583def489e524cb6669290600090a250565b60006001600160a01b0382166113575760405162461bcd60e51b8152600401808060200182810382526022815260200180611ba66022913960400191505060405180910390fd5b506001600160a01b03166000908152602091909152604090205460ff1690565b303b1590565b600054610100900460ff16806113965750611396611377565b806113a4575060005460ff16155b6113df5760405162461bcd60e51b815260040180806020018281038252602e815260200180611bc8602e913960400191505060405180910390fd5b600054610100900460ff1615801561144557600080547fffffffffffffffffffffffffffffffffffffffffffffffffffffffffffffff007fffffffffffffffffffffffffffffffffffffffffffffffffffffffffffff00ff909116610100171660011790555b61144e82610acf565b610cc557610cc582611280565b600061146561072a565b6040805180820190915260d0805482526020820183815260cd805460018101825560009190915292517f83978b4c69c48dd978ab43fe30f077615294f938fb7f936d9eb340e51ea7db2e600290940293840155517f83978b4c69c48dd978ab43fe30f077615294f938fb7f936d9eb340e51ea7db2f90920191909155549091506114f0903090611701565b60d054604080519182526020820183905280517f6aecc0a97ed8436da25295877eadc9bdfcb38d8d2cd93ce7b51765d2eaac9ff29281900390910190a1600060d05561155162015180611545428281066118a6565b9063ffffffff61107516565b60cf5550565b60cd5460009082111561156657fe5b6001600160a01b038316600090815260ce6020526040902054610723908361158d866108bb565b6111cb565b60006106948260cd80549050611105565b6001600160a01b0383166115e85760405162461bcd60e51b8152600401808060200182810382526025815260200180611c226025913960400191505060405180910390fd5b6001600160a01b03821661162d5760405162461bcd60e51b8152600401808060200182810382526023815260200180611a726023913960400191505060405180910390fd5b61167081604051806060016040528060268152602001611ab7602691396001600160a01b038616600090815260336020526040902054919063ffffffff610fde16565b6001600160a01b0380851660009081526033602052604080822093909355908416815220546116a5908263ffffffff61107516565b6001600160a01b0380841660008181526033602090815260409182902094909455805185815290519193928716927fddf252ad1be2c89b69c2b068fc378daa952ba7f163c4a11628f55a4df523b3ef92918290030190a3505050565b6001600160a01b03821661175c576040805162461bcd60e51b815260206004820152601f60248201527f45524332303a206d696e7420746f20746865207a65726f206164647265737300604482015290519081900360640190fd5b60355461176f908263ffffffff61107516565b6035556001600160a01b03821660009081526033602052604090205461179b908263ffffffff61107516565b6001600160a01b03831660008181526033602090815260408083209490945583518581529351929391927fddf252ad1be2c89b69c2b068fc378daa952ba7f163c4a11628f55a4df523b3ef9281900390910190a35050565b60008060d05411801561073457505060cf5442101590565b60008261181a5750600061067d565b8282028284828161182757fe5b04146107235760405162461bcd60e51b8152600401808060200182810382526021815260200180611b5d6021913960400191505060405180910390fd5b600061072383836040518060400160405280601a81526020017f536166654d6174683a206469766973696f6e206279207a65726f000000000000815250611a0c565b600061072383836040518060400160405280601e81526020017f536166654d6174683a207375627472616374696f6e206f766572666c6f770000815250610fde565b6118f28282611310565b15611944576040805162461bcd60e51b815260206004820152601f60248201527f526f6c65733a206163636f756e7420616c72656164792068617320726f6c6500604482015290519081900360640190fd5b6001600160a01b031660009081526020919091526040902080547fffffffffffffffffffffffffffffffffffffffffffffffffffffffffffffff00166001179055565b6119918282611310565b6119cc5760405162461bcd60e51b8152600401808060200182810382526021815260200180611b3c6021913960400191505060405180910390fd5b6001600160a01b031660009081526020919091526040902080547fffffffffffffffffffffffffffffffffffffffffffffffffffffffffffffff00169055565b60008183611a5b5760405162461bcd60e51b815260206004820181815283516024840152835190928392604490910191908501908083836000831561103257818101518382015260200161101a565b506000838581611a6757fe5b049594505050505056fe45524332303a207472616e7366657220746f20746865207a65726f206164647265737345524332303a20617070726f766520746f20746865207a65726f206164647265737345524332303a207472616e7366657220616d6f756e7420657863656564732062616c616e6365446973747269627574696f6e546f6b656e3a206e657874446973747269627574696f6e20697320746f6f20686967684d696e746572526f6c653a2063616c6c657220646f6573206e6f74206861766520746865204d696e74657220726f6c65526f6c65733a206163636f756e7420646f6573206e6f74206861766520726f6c65536166654d6174683a206d756c7469706c69636174696f6e206f766572666c6f7745524332303a207472616e7366657220616d6f756e74206578636565647320616c6c6f77616e6365526f6c65733a206163636f756e7420697320746865207a65726f2061646472657373436f6e747261637420696e7374616e63652068617320616c7265616479206265656e20696e697469616c697a6564446973747269627574696f6e546f6b656e3a206e6f20646973747269627574696f6e7320746f20636c61696d45524332303a207472616e736665722066726f6d20746865207a65726f2061646472657373446973747269627574696f6e546f6b656e3a206c617374446973747269627574696f6e20746f6f20686967687445524332303a20617070726f76652066726f6d20746865207a65726f2061646472657373446973747269627574696f6e546f6b656e3a207374617274446973747269627574696f6e20697320746f6f2068696768446973747269627574696f6e546f6b656e3a206e6f7468696e6720746f206469737472696275746545524332303a2064656372656173656420616c6c6f77616e63652062656c6f77207a65726fa265627a7a7231582091f6a2a4c42a9f95309a4d0d1057b2845efa9eea5d10c933df273e45bd0cfbfc64736f6c63430005110032",
  "source": "pragma solidity ^0.5.12;\n\nimport \"@openzeppelin/contracts-ethereum-package/contracts/token/ERC20/ERC20.sol\";\nimport \"@openzeppelin/contracts-ethereum-package/contracts/token/ERC20/ERC20Mintable.sol\";\nimport \"@openzeppelin/contracts-ethereum-package/contracts/math/SafeMath.sol\";\n\n//solhint-disable func-order\ncontract DistributionToken is ERC20, ERC20Mintable {\n    using SafeMath for uint256;\n    uint256 public constant DISTRIBUTION_AGGREGATION_PERIOD = 24*60*60;\n\n    event DistributionCreated(uint256 amount, uint256 totalSupply);\n    event DistributionsClaimed(address account, uint256 amount, uint256 fromDistribution, uint256 toDistribution);\n    event DistributionAccumulatorIncreased(uint256 amount);\n\n    struct Distribution {\n        uint256 amount;         // Amount of tokens being distributed during the event\n        uint256 totalSupply;    // Total supply before distribution\n    }\n\n    Distribution[] public distributions;                   // Array of all distributions\n    mapping(address => uint256) public nextDistributions;  // Map account to first distribution not yet processed\n\n    uint256 public nextDistributionTimestamp;      //Timestamp when next distribuition should be fired regardles of accumulated tokens\n    uint256 public distributionAccumulator;        //Tokens accumulated for next distribution\n\n    function distribute(uint256 amount) external onlyMinter {\n        distributionAccumulator = distributionAccumulator.add(amount);\n        emit DistributionAccumulatorIncreased(amount);\n        _createDistributionIfReady();\n    }\n\n    function createDistribution() external onlyMinter {\n        require(distributionAccumulator > 0, \"DistributionToken: nothing to distribute\");\n        _createDistribution();\n    }\n\n    function claimDistributions(address account) external returns(uint256) {\n        _createDistributionIfReady();\n        uint256 amount = _updateUserBalance(account, distributions.length);\n        if (amount > 0) userBalanceChanged(account);\n        return amount;\n    }\n    \n    /**\n     * @notice Claims distributions and allows to specify how many distributions to process.\n     * This allows limit gas usage.\n     * One can do this for others\n     */\n    function claimDistributions(address account, uint256 toDistribution) external returns(uint256) {\n        require(toDistribution <= distributions.length, \"DistributionToken: lastDistribution too hight\");\n        require(nextDistributions[account] < toDistribution, \"DistributionToken: no distributions to claim\");\n        uint256 amount = _updateUserBalance(account, toDistribution);\n        if (amount > 0) userBalanceChanged(account);\n        return amount;\n    }\n\n    function claimDistributions(address[] calldata accounts) external {\n        _createDistributionIfReady();\n        for (uint256 i=0; i < accounts.length; i++){\n            uint256 amount = _updateUserBalance(accounts[i], distributions.length);\n            if (amount > 0) userBalanceChanged(accounts[i]);\n        }\n    }\n\n    function claimDistributions(address[] calldata accounts, uint256 toDistribution) external {\n        require(toDistribution <= distributions.length, \"DistributionToken: lastDistribution too hight\");\n        for (uint256 i=0; i < accounts.length; i++){\n            uint256 amount = _updateUserBalance(accounts[i], toDistribution);\n            if (amount > 0) userBalanceChanged(accounts[i]);\n        }\n    }\n\n    /**\n     * @notice Full balance of account includes:\n     * - balance of tokens account holds himself (0 for addresses of locking contracts)\n     * - balance of tokens locked in contracts\n     * - tokens not yet claimed from distributions\n     */\n    function fullBalanceOf(address account) public view returns(uint256){\n        if (account == address(this)) return 0;  //Token itself only holds tokens for others\n        uint256 distributionBalance = distributionBalanceOf(account);\n        uint256 unclaimed = calculateClaimAmount(account);\n        return distributionBalance.add(unclaimed);\n    }\n\n    /**\n     * @notice How many tokens are not yet claimed from distributions\n     * @param account Account to check\n     * @return Amount of tokens available to claim\n     */\n    function calculateUnclaimedDistributions(address account) public view returns(uint256) {\n        return calculateClaimAmount(account);\n    }\n\n    /**\n     * @notice Calculates amount of tokens distributed to inital amount between startDistribution and nextDistribution\n     * @param fromDistribution index of first Distribution to start calculations\n     * @param toDistribution index of distribuition next to the last processed\n     * @param initialBalance amount of tokens before startDistribution\n     * @return amount of tokens distributed\n     */\n    function calculateDistributedAmount(uint256 fromDistribution, uint256 toDistribution, uint256 initialBalance) public view returns(uint256) {\n        require(fromDistribution < toDistribution, \"DistributionToken: startDistribution is too high\");\n        require(toDistribution <= distributions.length, \"DistributionToken: nextDistribution is too high\");\n        return _calculateDistributedAmount(fromDistribution, toDistribution, initialBalance);\n    }\n\n    function nextDistribution() public view returns(uint256){\n        return distributions.length;\n    }\n\n    /**\n     * @notice Balance of account, which is counted for distributions\n     * It only represents already distributed balance.\n     * @dev This function should be overloaded to include balance of tokens stored in proposals\n     */\n    function distributionBalanceOf(address account) public view returns(uint256) {\n        return balanceOf(account);\n    }\n\n    /**\n     * @notice Total supply which is counted for distributions\n     * It only represents already distributed tokens\n     * @dev This function should be overloaded to exclude tokens locked in loans\n     */\n    function distributionTotalSupply() public view returns(uint256){\n        return totalSupply();\n    }\n\n    // Override functions that change user balance\n    function _transfer(address sender, address recipient, uint256 amount) internal {\n        _createDistributionIfReady();\n        _updateUserBalance(sender);\n        _updateUserBalance(recipient);\n        super._transfer(sender, recipient, amount);\n        userBalanceChanged(sender);\n        userBalanceChanged(recipient);\n    }\n\n    function _mint(address account, uint256 amount) internal {\n        _createDistributionIfReady();\n        _updateUserBalance(account);\n        super._mint(account, amount);\n        userBalanceChanged(account);\n    }\n    \n    function _burn(address account, uint256 amount) internal {\n        _createDistributionIfReady();\n        _updateUserBalance(account);\n        super._burn(account, amount);\n        userBalanceChanged(account);\n    }\n\n    function _updateUserBalance(address account) internal returns(uint256) {\n        return _updateUserBalance(account, distributions.length);\n    }\n\n    function _updateUserBalance(address account, uint256 toDistribution) internal returns(uint256) {\n        uint256 fromDistribution = nextDistributions[account];\n        if (fromDistribution >= toDistribution) return 0;\n        uint256 distributionAmount = calculateClaimAmount(account, toDistribution);\n        nextDistributions[account] = toDistribution;\n        if (distributionAmount == 0) return 0;\n        super._transfer(address(this), account, distributionAmount);\n        emit DistributionsClaimed(account, distributionAmount, fromDistribution, toDistribution);\n        return distributionAmount;\n    }\n\n    function _createDistributionIfReady() internal {\n        if (!isReadyForDistribution()) return;\n        _createDistribution();\n    }\n    \n    function _createDistribution() internal {\n        uint256 currentTotalSupply = distributionTotalSupply();\n        distributions.push(Distribution({\n            amount:distributionAccumulator,\n            totalSupply: currentTotalSupply\n        }));\n        super._mint(address(this), distributionAccumulator); //Use super because we overloaded _mint in this contract and need old behaviour\n        emit DistributionCreated(distributionAccumulator, currentTotalSupply);\n\n        // Clear data for next distribution\n        distributionAccumulator = 0;\n        nextDistributionTimestamp = now.sub(now % DISTRIBUTION_AGGREGATION_PERIOD).add(DISTRIBUTION_AGGREGATION_PERIOD);\n    }\n\n    /**\n     * @dev This is a placeholder, which may be overrided to notify other contracts of PTK balance change\n     */\n    function userBalanceChanged(address /*account*/) internal {\n    }\n\n    /**\n     * @notice Calculates amount of account's tokens to be claimed from distributions\n     */\n    function calculateClaimAmount(address account) internal view returns(uint256) {\n        if (nextDistributions[account] >= distributions.length) return 0;\n        return calculateClaimAmount(account, distributions.length);\n    }\n\n    function calculateClaimAmount(address account, uint256 toDistribution) internal view returns(uint256) {\n        assert(toDistribution <= distributions.length);\n        return _calculateDistributedAmount(nextDistributions[account], toDistribution, distributionBalanceOf(account));\n    }\n\n    function _calculateDistributedAmount(uint256 fromDistribution, uint256 toDistribution, uint256 initialBalance) internal view returns(uint256) {\n        uint256 next = fromDistribution;\n        uint256 balance = initialBalance;\n        if (initialBalance == 0) return 0;\n        while (next < toDistribution) {\n            uint256 da = balance.mul(distributions[next].amount).div(distributions[next].totalSupply);\n            balance = balance.add(da);\n            next++;\n        }\n        return balance.sub(initialBalance);\n    }\n\n    /**\n     * @dev Calculates if conditions for creating new distribution are met\n     */\n    function isReadyForDistribution() internal view returns(bool) {\n        return (distributionAccumulator > 0) && (now >= nextDistributionTimestamp);\n    }\n}\n",
  "sourcePath": "/Users/ilya/Documents/Akropolis/dca-strategy-bot/contracts/modules/token/DistributionToken.sol",
  "compiler": {
    "name": "solc",
    "version": "0.5.17+commit.d19bba13.Emscripten.clang"
  },
  "schemaVersion": "3.2.3",
  "updatedAt": "2020-08-11T09:46:30.951Z",
  "devdoc": {
    "methods": {
      "allowance(address,address)": {
        "details": "See {IERC20-allowance}."
      },
      "approve(address,uint256)": {
        "details": "See {IERC20-approve}.     * Requirements:     * - `spender` cannot be the zero address."
      },
      "balanceOf(address)": {
        "details": "See {IERC20-balanceOf}."
      },
      "calculateDistributedAmount(uint256,uint256,uint256)": {
        "params": {
          "fromDistribution": "index of first Distribution to start calculations",
          "initialBalance": "amount of tokens before startDistribution",
          "toDistribution": "index of distribuition next to the last processed"
        },
        "return": "amount of tokens distributed"
      },
      "calculateUnclaimedDistributions(address)": {
        "params": {
          "account": "Account to check"
        },
        "return": "Amount of tokens available to claim"
      },
      "decreaseAllowance(address,uint256)": {
        "details": "Atomically decreases the allowance granted to `spender` by the caller.     * This is an alternative to {approve} that can be used as a mitigation for problems described in {IERC20-approve}.     * Emits an {Approval} event indicating the updated allowance.     * Requirements:     * - `spender` cannot be the zero address. - `spender` must have allowance for the caller of at least `subtractedValue`."
      },
      "distributionBalanceOf(address)": {
        "details": "This function should be overloaded to include balance of tokens stored in proposals"
      },
      "distributionTotalSupply()": {
        "details": "This function should be overloaded to exclude tokens locked in loans"
      },
      "increaseAllowance(address,uint256)": {
        "details": "Atomically increases the allowance granted to `spender` by the caller.     * This is an alternative to {approve} that can be used as a mitigation for problems described in {IERC20-approve}.     * Emits an {Approval} event indicating the updated allowance.     * Requirements:     * - `spender` cannot be the zero address."
      },
      "mint(address,uint256)": {
        "details": "See {ERC20-_mint}.     * Requirements:     * - the caller must have the {MinterRole}."
      },
      "totalSupply()": {
        "details": "See {IERC20-totalSupply}."
      },
      "transfer(address,uint256)": {
        "details": "See {IERC20-transfer}.     * Requirements:     * - `recipient` cannot be the zero address. - the caller must have a balance of at least `amount`."
      },
      "transferFrom(address,address,uint256)": {
        "details": "See {IERC20-transferFrom}.     * Emits an {Approval} event indicating the updated allowance. This is not required by the EIP. See the note at the beginning of {ERC20};     * Requirements: - `sender` and `recipient` cannot be the zero address. - `sender` must have a balance of at least `amount`. - the caller must have allowance for `sender`'s tokens of at least `amount`."
      }
    }
  },
  "userdoc": {
    "methods": {
      "calculateDistributedAmount(uint256,uint256,uint256)": {
        "notice": "Calculates amount of tokens distributed to inital amount between startDistribution and nextDistribution"
      },
      "calculateUnclaimedDistributions(address)": {
        "notice": "How many tokens are not yet claimed from distributions"
      },
      "claimDistributions(address,uint256)": {
        "notice": "Claims distributions and allows to specify how many distributions to process. This allows limit gas usage. One can do this for others"
      },
      "distributionBalanceOf(address)": {
        "notice": "Balance of account, which is counted for distributions It only represents already distributed balance."
      },
      "distributionTotalSupply()": {
        "notice": "Total supply which is counted for distributions It only represents already distributed tokens"
      },
      "fullBalanceOf(address)": {
        "notice": "Full balance of account includes: - balance of tokens account holds himself (0 for addresses of locking contracts) - balance of tokens locked in contracts - tokens not yet claimed from distributions"
      }
    }
  }
}