{
  "contractName": "ERC165",
  "abi": [
    {
      "constant": false,
      "inputs": [],
      "name": "initialize",
      "outputs": [],
      "payable": false,
      "stateMutability": "nonpayable",
      "type": "function"
    },
    {
      "constant": true,
      "inputs": [
        {
          "internalType": "bytes4",
          "name": "interfaceId",
          "type": "bytes4"
        }
      ],
      "name": "supportsInterface",
      "outputs": [
        {
          "internalType": "bool",
          "name": "",
          "type": "bool"
        }
      ],
      "payable": false,
      "stateMutability": "view",
      "type": "function"
    }
  ],
  "bytecode": "0x608060405234801561001057600080fd5b50610361806100206000396000f3fe608060405234801561001057600080fd5b50600436106100365760003560e01c806301ffc9a71461003b5780638129fc1c1461008e575b600080fd5b61007a6004803603602081101561005157600080fd5b50357fffffffff0000000000000000000000000000000000000000000000000000000016610098565b604080519115158252519081900360200190f35b6100966100cf565b005b7fffffffff000000000000000000000000000000000000000000000000000000001660009081526033602052604090205460ff1690565b600054610100900460ff16806100e857506100e861020c565b806100f6575060005460ff16155b61014b576040517f08c379a000000000000000000000000000000000000000000000000000000000815260040180806020018281038252602e8152602001806102ff602e913960400191505060405180910390fd5b600054610100900460ff161580156101b157600080547fffffffffffffffffffffffffffffffffffffffffffffffffffffffffffffff007fffffffffffffffffffffffffffffffffffffffffffffffffffffffffffff00ff909116610100171660011790555b6101da7f01ffc9a700000000000000000000000000000000000000000000000000000000610212565b801561020957600080547fffffffffffffffffffffffffffffffffffffffffffffffffffffffffffff00ff1690555b50565b303b1590565b7fffffffff0000000000000000000000000000000000000000000000000000000080821614156102a357604080517f08c379a000000000000000000000000000000000000000000000000000000000815260206004820152601c60248201527f4552433136353a20696e76616c696420696e7465726661636520696400000000604482015290519081900360640190fd5b7fffffffff0000000000000000000000000000000000000000000000000000000016600090815260336020526040902080547fffffffffffffffffffffffffffffffffffffffffffffffffffffffffffffff0016600117905556fe436f6e747261637420696e7374616e63652068617320616c7265616479206265656e20696e697469616c697a6564a265627a7a72315820c2964a54dd4781f93090db6dd81dcf9836916065efb7bb2df48c72ec7bd8766d64736f6c63430005110032",
  "source": "pragma solidity ^0.5.0;\n\nimport \"@openzeppelin/upgrades/contracts/Initializable.sol\";\nimport \"./IERC165.sol\";\n\n/**\n * @dev Implementation of the {IERC165} interface.\n *\n * Contracts may inherit from this and call {_registerInterface} to declare\n * their support of an interface.\n */\ncontract ERC165 is Initializable, IERC165 {\n    /*\n     * bytes4(keccak256('supportsInterface(bytes4)')) == 0x01ffc9a7\n     */\n    bytes4 private constant _INTERFACE_ID_ERC165 = 0x01ffc9a7;\n\n    /**\n     * @dev Mapping of interface ids to whether or not it's supported.\n     */\n    mapping(bytes4 => bool) private _supportedInterfaces;\n\n    function initialize() public initializer {\n        // Derived contracts need only register support for their own interfaces,\n        // we register support for ERC165 itself here\n        _registerInterface(_INTERFACE_ID_ERC165);\n    }\n\n    /**\n     * @dev See {IERC165-supportsInterface}.\n     *\n     * Time complexity O(1), guaranteed to always use less than 30 000 gas.\n     */\n    function supportsInterface(bytes4 interfaceId) public view returns (bool) {\n        return _supportedInterfaces[interfaceId];\n    }\n\n    /**\n     * @dev Registers the contract as an implementer of the interface defined by\n     * `interfaceId`. Support of the actual ERC165 interface is automatic and\n     * registering its interface id is not required.\n     *\n     * See {IERC165-supportsInterface}.\n     *\n     * Requirements:\n     *\n     * - `interfaceId` cannot be the ERC165 invalid interface (`0xffffffff`).\n     */\n    function _registerInterface(bytes4 interfaceId) internal {\n        require(interfaceId != 0xffffffff, \"ERC165: invalid interface id\");\n        _supportedInterfaces[interfaceId] = true;\n    }\n\n    uint256[50] private ______gap;\n}\n",
  "sourcePath": "@openzeppelin/contracts-ethereum-package/contracts/introspection/ERC165.sol",
  "compiler": {
    "name": "solc",
    "version": "0.5.17+commit.d19bba13.Emscripten.clang"
  },
  "schemaVersion": "3.2.3",
  "updatedAt": "2020-08-07T09:48:49.719Z",
  "devdoc": {
    "details": "Implementation of the {IERC165} interface. * Contracts may inherit from this and call {_registerInterface} to declare their support of an interface.",
    "methods": {
      "supportsInterface(bytes4)": {
        "details": "See {IERC165-supportsInterface}.     * Time complexity O(1), guaranteed to always use less than 30 000 gas."
      }
    }
  },
  "userdoc": {
    "methods": {}
  }
}