{
  "contractName": "ERC721Burnable",
  "abi": [
    {
      "anonymous": false,
      "inputs": [
        {
          "indexed": true,
          "internalType": "address",
          "name": "owner",
          "type": "address"
        },
        {
          "indexed": true,
          "internalType": "address",
          "name": "approved",
          "type": "address"
        },
        {
          "indexed": true,
          "internalType": "uint256",
          "name": "tokenId",
          "type": "uint256"
        }
      ],
      "name": "Approval",
      "type": "event"
    },
    {
      "anonymous": false,
      "inputs": [
        {
          "indexed": true,
          "internalType": "address",
          "name": "owner",
          "type": "address"
        },
        {
          "indexed": true,
          "internalType": "address",
          "name": "operator",
          "type": "address"
        },
        {
          "indexed": false,
          "internalType": "bool",
          "name": "approved",
          "type": "bool"
        }
      ],
      "name": "ApprovalForAll",
      "type": "event"
    },
    {
      "anonymous": false,
      "inputs": [
        {
          "indexed": true,
          "internalType": "address",
          "name": "from",
          "type": "address"
        },
        {
          "indexed": true,
          "internalType": "address",
          "name": "to",
          "type": "address"
        },
        {
          "indexed": true,
          "internalType": "uint256",
          "name": "tokenId",
          "type": "uint256"
        }
      ],
      "name": "Transfer",
      "type": "event"
    },
    {
      "constant": false,
      "inputs": [
        {
          "internalType": "address",
          "name": "to",
          "type": "address"
        },
        {
          "internalType": "uint256",
          "name": "tokenId",
          "type": "uint256"
        }
      ],
      "name": "approve",
      "outputs": [],
      "payable": false,
      "stateMutability": "nonpayable",
      "type": "function"
    },
    {
      "constant": true,
      "inputs": [
        {
          "internalType": "address",
          "name": "owner",
          "type": "address"
        }
      ],
      "name": "balanceOf",
      "outputs": [
        {
          "internalType": "uint256",
          "name": "",
          "type": "uint256"
        }
      ],
      "payable": false,
      "stateMutability": "view",
      "type": "function"
    },
    {
      "constant": true,
      "inputs": [
        {
          "internalType": "uint256",
          "name": "tokenId",
          "type": "uint256"
        }
      ],
      "name": "getApproved",
      "outputs": [
        {
          "internalType": "address",
          "name": "",
          "type": "address"
        }
      ],
      "payable": false,
      "stateMutability": "view",
      "type": "function"
    },
    {
      "constant": false,
      "inputs": [],
      "name": "initialize",
      "outputs": [],
      "payable": false,
      "stateMutability": "nonpayable",
      "type": "function"
    },
    {
      "constant": true,
      "inputs": [
        {
          "internalType": "address",
          "name": "owner",
          "type": "address"
        },
        {
          "internalType": "address",
          "name": "operator",
          "type": "address"
        }
      ],
      "name": "isApprovedForAll",
      "outputs": [
        {
          "internalType": "bool",
          "name": "",
          "type": "bool"
        }
      ],
      "payable": false,
      "stateMutability": "view",
      "type": "function"
    },
    {
      "constant": true,
      "inputs": [
        {
          "internalType": "uint256",
          "name": "tokenId",
          "type": "uint256"
        }
      ],
      "name": "ownerOf",
      "outputs": [
        {
          "internalType": "address",
          "name": "",
          "type": "address"
        }
      ],
      "payable": false,
      "stateMutability": "view",
      "type": "function"
    },
    {
      "constant": false,
      "inputs": [
        {
          "internalType": "address",
          "name": "from",
          "type": "address"
        },
        {
          "internalType": "address",
          "name": "to",
          "type": "address"
        },
        {
          "internalType": "uint256",
          "name": "tokenId",
          "type": "uint256"
        }
      ],
      "name": "safeTransferFrom",
      "outputs": [],
      "payable": false,
      "stateMutability": "nonpayable",
      "type": "function"
    },
    {
      "constant": false,
      "inputs": [
        {
          "internalType": "address",
          "name": "from",
          "type": "address"
        },
        {
          "internalType": "address",
          "name": "to",
          "type": "address"
        },
        {
          "internalType": "uint256",
          "name": "tokenId",
          "type": "uint256"
        },
        {
          "internalType": "bytes",
          "name": "_data",
          "type": "bytes"
        }
      ],
      "name": "safeTransferFrom",
      "outputs": [],
      "payable": false,
      "stateMutability": "nonpayable",
      "type": "function"
    },
    {
      "constant": false,
      "inputs": [
        {
          "internalType": "address",
          "name": "to",
          "type": "address"
        },
        {
          "internalType": "bool",
          "name": "approved",
          "type": "bool"
        }
      ],
      "name": "setApprovalForAll",
      "outputs": [],
      "payable": false,
      "stateMutability": "nonpayable",
      "type": "function"
    },
    {
      "constant": true,
      "inputs": [
        {
          "internalType": "bytes4",
          "name": "interfaceId",
          "type": "bytes4"
        }
      ],
      "name": "supportsInterface",
      "outputs": [
        {
          "internalType": "bool",
          "name": "",
          "type": "bool"
        }
      ],
      "payable": false,
      "stateMutability": "view",
      "type": "function"
    },
    {
      "constant": false,
      "inputs": [
        {
          "internalType": "address",
          "name": "from",
          "type": "address"
        },
        {
          "internalType": "address",
          "name": "to",
          "type": "address"
        },
        {
          "internalType": "uint256",
          "name": "tokenId",
          "type": "uint256"
        }
      ],
      "name": "transferFrom",
      "outputs": [],
      "payable": false,
      "stateMutability": "nonpayable",
      "type": "function"
    },
    {
      "constant": false,
      "inputs": [
        {
          "internalType": "uint256",
          "name": "tokenId",
          "type": "uint256"
        }
      ],
      "name": "burn",
      "outputs": [],
      "payable": false,
      "stateMutability": "nonpayable",
      "type": "function"
    }
  ],
  "bytecode": "0x6080604052611837806100136000396000f3fe608060405234801561001057600080fd5b50600436106100d45760003560e01c80636352211e11610081578063a22cb4651161005b578063a22cb465146102ba578063b88d4fde146102f5578063e985e9c5146103c8576100d4565b80636352211e1461025057806370a082311461026d5780638129fc1c146102b2576100d4565b806323b872dd116100b257806323b872dd146101ad57806342842e0e146101f057806342966c6814610233576100d4565b806301ffc9a7146100d9578063081812fc1461012c578063095ea7b314610172575b600080fd5b610118600480360360208110156100ef57600080fd5b50357fffffffff0000000000000000000000000000000000000000000000000000000016610403565b604080519115158252519081900360200190f35b6101496004803603602081101561014257600080fd5b503561043a565b6040805173ffffffffffffffffffffffffffffffffffffffff9092168252519081900360200190f35b6101ab6004803603604081101561018857600080fd5b5073ffffffffffffffffffffffffffffffffffffffff81351690602001356104a9565b005b6101ab600480360360608110156101c357600080fd5b5073ffffffffffffffffffffffffffffffffffffffff81358116916020810135909116906040013561062a565b6101ab6004803603606081101561020657600080fd5b5073ffffffffffffffffffffffffffffffffffffffff813581169160208101359091169060400135610686565b6101ab6004803603602081101561024957600080fd5b50356106a1565b6101496004803603602081101561026657600080fd5b50356106f3565b6102a06004803603602081101561028357600080fd5b503573ffffffffffffffffffffffffffffffffffffffff1661075a565b60408051918252519081900360200190f35b6101ab6107dc565b6101ab600480360360408110156102d057600080fd5b5073ffffffffffffffffffffffffffffffffffffffff81351690602001351515610906565b6101ab6004803603608081101561030b57600080fd5b73ffffffffffffffffffffffffffffffffffffffff82358116926020810135909116916040820135919081019060808101606082013564010000000081111561035357600080fd5b82018360208201111561036557600080fd5b8035906020019184600183028401116401000000008311171561038757600080fd5b91908080601f016020809104026020016040519081016040528093929190818152602001838380828437600092019190915250929550610a5d945050505050565b610118600480360360408110156103de57600080fd5b5073ffffffffffffffffffffffffffffffffffffffff81358116916020013516610abb565b7fffffffff000000000000000000000000000000000000000000000000000000001660009081526033602052604090205460ff1690565b600061044582610af6565b6104805760405162461bcd60e51b815260040180806020018281038252602c8152602001806116d9602c913960400191505060405180910390fd5b5060009081526067602052604090205473ffffffffffffffffffffffffffffffffffffffff1690565b60006104b4826106f3565b90508073ffffffffffffffffffffffffffffffffffffffff168373ffffffffffffffffffffffffffffffffffffffff1614156105215760405162461bcd60e51b815260040180806020018281038252602181526020018061175c6021913960400191505060405180910390fd5b8073ffffffffffffffffffffffffffffffffffffffff16610540610b20565b73ffffffffffffffffffffffffffffffffffffffff16148061056e575061056e81610569610b20565b610abb565b6105a95760405162461bcd60e51b815260040180806020018281038252603881526020018061164e6038913960400191505060405180910390fd5b60008281526067602052604080822080547fffffffffffffffffffffffff00000000000000000000000000000000000000001673ffffffffffffffffffffffffffffffffffffffff87811691821790925591518593918516917f8c5be1e5ebec7d5bd14f71427d1e84f3dd0314c0f7b2291e5b200ac8c7c3b92591a4505050565b61063b610635610b20565b82610b24565b6106765760405162461bcd60e51b815260040180806020018281038252603181526020018061177d6031913960400191505060405180910390fd5b610681838383610bfc565b505050565b61068183838360405180602001604052806000815250610a5d565b6106ac610635610b20565b6106e75760405162461bcd60e51b81526004018080602001828103825260308152602001806117d36030913960400191505060405180910390fd5b6106f081610da6565b50565b60008181526066602052604081205473ffffffffffffffffffffffffffffffffffffffff16806107545760405162461bcd60e51b81526004018080602001828103825260298152602001806116b06029913960400191505060405180910390fd5b92915050565b600073ffffffffffffffffffffffffffffffffffffffff82166107ae5760405162461bcd60e51b815260040180806020018281038252602a815260200180611686602a913960400191505060405180910390fd5b73ffffffffffffffffffffffffffffffffffffffff8216600090815260686020526040902061075490610db8565b600054610100900460ff16806107f557506107f5610dbc565b80610803575060005460ff16155b61083e5760405162461bcd60e51b815260040180806020018281038252602e815260200180611705602e913960400191505060405180910390fd5b600054610100900460ff161580156108a457600080547fffffffffffffffffffffffffffffffffffffffffffffffffffffffffffffff007fffffffffffffffffffffffffffffffffffffffffffffffffffffffffffff00ff909116610100171660011790555b6108ac610dc2565b6108d57f80ac58cd00000000000000000000000000000000000000000000000000000000610eaf565b80156106f057600080547fffffffffffffffffffffffffffffffffffffffffffffffffffffffffffff00ff16905550565b61090e610b20565b73ffffffffffffffffffffffffffffffffffffffff168273ffffffffffffffffffffffffffffffffffffffff16141561098e576040805162461bcd60e51b815260206004820152601960248201527f4552433732313a20617070726f766520746f2063616c6c657200000000000000604482015290519081900360640190fd5b806069600061099b610b20565b73ffffffffffffffffffffffffffffffffffffffff90811682526020808301939093526040918201600090812091871680825291909352912080547fffffffffffffffffffffffffffffffffffffffffffffffffffffffffffffff001692151592909217909155610a0a610b20565b604080518415158152905173ffffffffffffffffffffffffffffffffffffffff92909216917f17307eab39ab6107e8899845ad3d59bd9653f200f220920489ca2b5937696c319181900360200190a35050565b610a6e610a68610b20565b83610b24565b610aa95760405162461bcd60e51b815260040180806020018281038252603181526020018061177d6031913960400191505060405180910390fd5b610ab584848484610f81565b50505050565b73ffffffffffffffffffffffffffffffffffffffff918216600090815260696020908152604080832093909416825291909152205460ff1690565b60009081526066602052604090205473ffffffffffffffffffffffffffffffffffffffff16151590565b3390565b6000610b2f82610af6565b610b6a5760405162461bcd60e51b815260040180806020018281038252602c815260200180611622602c913960400191505060405180910390fd5b6000610b75836106f3565b90508073ffffffffffffffffffffffffffffffffffffffff168473ffffffffffffffffffffffffffffffffffffffff161480610be457508373ffffffffffffffffffffffffffffffffffffffff16610bcc8461043a565b73ffffffffffffffffffffffffffffffffffffffff16145b80610bf45750610bf48185610abb565b949350505050565b8273ffffffffffffffffffffffffffffffffffffffff16610c1c826106f3565b73ffffffffffffffffffffffffffffffffffffffff1614610c6e5760405162461bcd60e51b81526004018080602001828103825260298152602001806117336029913960400191505060405180910390fd5b73ffffffffffffffffffffffffffffffffffffffff8216610cc05760405162461bcd60e51b81526004018080602001828103825260248152602001806115fe6024913960400191505060405180910390fd5b610cc981610fd3565b73ffffffffffffffffffffffffffffffffffffffff83166000908152606860205260409020610cf790611033565b73ffffffffffffffffffffffffffffffffffffffff82166000908152606860205260409020610d259061104a565b60008181526066602052604080822080547fffffffffffffffffffffffff00000000000000000000000000000000000000001673ffffffffffffffffffffffffffffffffffffffff86811691821790925591518493918716917fddf252ad1be2c89b69c2b068fc378daa952ba7f163c4a11628f55a4df523b3ef91a4505050565b6106f0610db2826106f3565b82611053565b5490565b303b1590565b600054610100900460ff1680610ddb5750610ddb610dbc565b80610de9575060005460ff16155b610e245760405162461bcd60e51b815260040180806020018281038252602e815260200180611705602e913960400191505060405180910390fd5b600054610100900460ff16158015610e8a57600080547fffffffffffffffffffffffffffffffffffffffffffffffffffffffffffffff007fffffffffffffffffffffffffffffffffffffffffffffffffffffffffffff00ff909116610100171660011790555b6108d57f01ffc9a7000000000000000000000000000000000000000000000000000000005b7fffffffff000000000000000000000000000000000000000000000000000000008082161415610f26576040805162461bcd60e51b815260206004820152601c60248201527f4552433136353a20696e76616c696420696e7465726661636520696400000000604482015290519081900360640190fd5b7fffffffff0000000000000000000000000000000000000000000000000000000016600090815260336020526040902080547fffffffffffffffffffffffffffffffffffffffffffffffffffffffffffffff00166001179055565b610f8c848484610bfc565b610f9884848484611176565b610ab55760405162461bcd60e51b81526004018080602001828103825260328152602001806115cc6032913960400191505060405180910390fd5b60008181526067602052604090205473ffffffffffffffffffffffffffffffffffffffff16156106f057600090815260676020526040902080547fffffffffffffffffffffffff0000000000000000000000000000000000000000169055565b805461104690600163ffffffff6114b216565b9055565b80546001019055565b8173ffffffffffffffffffffffffffffffffffffffff16611073826106f3565b73ffffffffffffffffffffffffffffffffffffffff16146110c55760405162461bcd60e51b81526004018080602001828103825260258152602001806117ae6025913960400191505060405180910390fd5b6110ce81610fd3565b73ffffffffffffffffffffffffffffffffffffffff821660009081526068602052604090206110fc90611033565b60008181526066602052604080822080547fffffffffffffffffffffffff00000000000000000000000000000000000000001690555182919073ffffffffffffffffffffffffffffffffffffffff8516907fddf252ad1be2c89b69c2b068fc378daa952ba7f163c4a11628f55a4df523b3ef908390a45050565b60006111978473ffffffffffffffffffffffffffffffffffffffff166114fb565b6111a357506001610bf4565b6000606073ffffffffffffffffffffffffffffffffffffffff86167f150b7a02000000000000000000000000000000000000000000000000000000006111e7610b20565b898888604051602401808573ffffffffffffffffffffffffffffffffffffffff1673ffffffffffffffffffffffffffffffffffffffff1681526020018473ffffffffffffffffffffffffffffffffffffffff1673ffffffffffffffffffffffffffffffffffffffff16815260200183815260200180602001828103825283818151815260200191508051906020019080838360005b8381101561129457818101518382015260200161127c565b50505050905090810190601f1680156112c15780820380516001836020036101000a031916815260200191505b50604080517fffffffffffffffffffffffffffffffffffffffffffffffffffffffffffffffe08184030181529181526020820180517bffffffffffffffffffffffffffffffffffffffffffffffffffffffff167fffffffff00000000000000000000000000000000000000000000000000000000909a16999099178952518151919890975087965094509250829150849050835b6020831061139257805182527fffffffffffffffffffffffffffffffffffffffffffffffffffffffffffffffe09092019160209182019101611355565b6001836020036101000a0380198251168184511680821785525050505050509050019150506000604051808303816000865af19150503d80600081146113f4576040519150601f19603f3d011682016040523d82523d6000602084013e6113f9565b606091505b50915091508161144a578051156114135780518082602001fd5b60405162461bcd60e51b81526004018080602001828103825260328152602001806115cc6032913960400191505060405180910390fd5b600081806020019051602081101561146157600080fd5b50517fffffffff00000000000000000000000000000000000000000000000000000000167f150b7a0200000000000000000000000000000000000000000000000000000000149350610bf492505050565b60006114f483836040518060400160405280601e81526020017f536166654d6174683a207375627472616374696f6e206f766572666c6f770000815250611534565b9392505050565b6000813f7fc5d2460186f7233c927e7db2dcc703c0e500b653ca82273b7bfad8045d85a470818114801590610bf4575050151592915050565b600081848411156115c35760405162461bcd60e51b81526004018080602001828103825283818151815260200191508051906020019080838360005b83811015611588578181015183820152602001611570565b50505050905090810190601f1680156115b55780820380516001836020036101000a031916815260200191505b509250505060405180910390fd5b50505090039056fe4552433732313a207472616e7366657220746f206e6f6e20455243373231526563656976657220696d706c656d656e7465724552433732313a207472616e7366657220746f20746865207a65726f20616464726573734552433732313a206f70657261746f7220717565727920666f72206e6f6e6578697374656e7420746f6b656e4552433732313a20617070726f76652063616c6c6572206973206e6f74206f776e6572206e6f7220617070726f76656420666f7220616c6c4552433732313a2062616c616e636520717565727920666f7220746865207a65726f20616464726573734552433732313a206f776e657220717565727920666f72206e6f6e6578697374656e7420746f6b656e4552433732313a20617070726f76656420717565727920666f72206e6f6e6578697374656e7420746f6b656e436f6e747261637420696e7374616e63652068617320616c7265616479206265656e20696e697469616c697a65644552433732313a207472616e73666572206f6620746f6b656e2074686174206973206e6f74206f776e4552433732313a20617070726f76616c20746f2063757272656e74206f776e65724552433732313a207472616e736665722063616c6c6572206973206e6f74206f776e6572206e6f7220617070726f7665644552433732313a206275726e206f6620746f6b656e2074686174206973206e6f74206f776e4552433732314275726e61626c653a2063616c6c6572206973206e6f74206f776e6572206e6f7220617070726f766564a265627a7a723158207196cde4394e876c08c9fd5c64e7fad473beafa4877b8cf2322fa249a07762a764736f6c63430005110032",
  "source": "pragma solidity ^0.5.0;\n\nimport \"@openzeppelin/upgrades/contracts/Initializable.sol\";\n\nimport \"../../GSN/Context.sol\";\nimport \"./ERC721.sol\";\n\n/**\n * @title ERC721 Burnable Token\n * @dev ERC721 Token that can be irreversibly burned (destroyed).\n */\ncontract ERC721Burnable is Initializable, Context, ERC721 {\n    /**\n     * @dev Burns a specific ERC721 token.\n     * @param tokenId uint256 id of the ERC721 token to be burned.\n     */\n    function burn(uint256 tokenId) public {\n        //solhint-disable-next-line max-line-length\n        require(_isApprovedOrOwner(_msgSender(), tokenId), \"ERC721Burnable: caller is not owner nor approved\");\n        _burn(tokenId);\n    }\n\n    uint256[50] private ______gap;\n}\n",
  "sourcePath": "@openzeppelin/contracts-ethereum-package/contracts/token/ERC721/ERC721Burnable.sol",
  "compiler": {
    "name": "solc",
    "version": "0.5.17+commit.d19bba13.Emscripten.clang"
  },
  "schemaVersion": "3.2.3",
  "updatedAt": "2020-08-09T16:13:08.601Z",
  "devdoc": {
    "details": "ERC721 Token that can be irreversibly burned (destroyed).",
    "methods": {
      "approve(address,uint256)": {
        "details": "Approves another address to transfer the given token ID The zero address indicates there is no approved address. There can only be one approved address per token at a given time. Can only be called by the token owner or an approved operator.",
        "params": {
          "to": "address to be approved for the given token ID",
          "tokenId": "uint256 ID of the token to be approved"
        }
      },
      "balanceOf(address)": {
        "details": "Gets the balance of the specified address.",
        "params": {
          "owner": "address to query the balance of"
        },
        "return": "uint256 representing the amount owned by the passed address"
      },
      "burn(uint256)": {
        "details": "Burns a specific ERC721 token.",
        "params": {
          "tokenId": "uint256 id of the ERC721 token to be burned."
        }
      },
      "getApproved(uint256)": {
        "details": "Gets the approved address for a token ID, or zero if no address set Reverts if the token ID does not exist.",
        "params": {
          "tokenId": "uint256 ID of the token to query the approval of"
        },
        "return": "address currently approved for the given token ID"
      },
      "isApprovedForAll(address,address)": {
        "details": "Tells whether an operator is approved by a given owner.",
        "params": {
          "operator": "operator address which you want to query the approval of",
          "owner": "owner address which you want to query the approval of"
        },
        "return": "bool whether the given operator is approved by the given owner"
      },
      "ownerOf(uint256)": {
        "details": "Gets the owner of the specified token ID.",
        "params": {
          "tokenId": "uint256 ID of the token to query the owner of"
        },
        "return": "address currently marked as the owner of the given token ID"
      },
      "safeTransferFrom(address,address,uint256)": {
        "details": "Safely transfers the ownership of a given token ID to another address If the target address is a contract, it must implement {IERC721Receiver-onERC721Received}, which is called upon a safe transfer, and return the magic value `bytes4(keccak256(\"onERC721Received(address,address,uint256,bytes)\"))`; otherwise, the transfer is reverted. Requires the msg.sender to be the owner, approved, or operator",
        "params": {
          "from": "current owner of the token",
          "to": "address to receive the ownership of the given token ID",
          "tokenId": "uint256 ID of the token to be transferred"
        }
      },
      "safeTransferFrom(address,address,uint256,bytes)": {
        "details": "Safely transfers the ownership of a given token ID to another address If the target address is a contract, it must implement {IERC721Receiver-onERC721Received}, which is called upon a safe transfer, and return the magic value `bytes4(keccak256(\"onERC721Received(address,address,uint256,bytes)\"))`; otherwise, the transfer is reverted. Requires the _msgSender() to be the owner, approved, or operator",
        "params": {
          "_data": "bytes data to send along with a safe transfer check",
          "from": "current owner of the token",
          "to": "address to receive the ownership of the given token ID",
          "tokenId": "uint256 ID of the token to be transferred"
        }
      },
      "setApprovalForAll(address,bool)": {
        "details": "Sets or unsets the approval of a given operator An operator is allowed to transfer all tokens of the sender on their behalf.",
        "params": {
          "approved": "representing the status of the approval to be set",
          "to": "operator address to set the approval"
        }
      },
      "supportsInterface(bytes4)": {
        "details": "See {IERC165-supportsInterface}.     * Time complexity O(1), guaranteed to always use less than 30 000 gas."
      },
      "transferFrom(address,address,uint256)": {
        "details": "Transfers the ownership of a given token ID to another address. Usage of this method is discouraged, use {safeTransferFrom} whenever possible. Requires the msg.sender to be the owner, approved, or operator.",
        "params": {
          "from": "current owner of the token",
          "to": "address to receive the ownership of the given token ID",
          "tokenId": "uint256 ID of the token to be transferred"
        }
      }
    },
    "title": "ERC721 Burnable Token"
  },
  "userdoc": {
    "methods": {}
  }
}