{
  "contractName": "FakeUniswapRouter",
  "abi": [
    {
      "constant": true,
      "inputs": [
        {
          "internalType": "uint256",
          "name": "amountIn",
          "type": "uint256"
        },
        {
          "internalType": "address[]",
          "name": "path",
          "type": "address[]"
        }
      ],
      "name": "getAmountsOut",
      "outputs": [
        {
          "internalType": "uint256[]",
          "name": "amounts",
          "type": "uint256[]"
        }
      ],
      "payable": false,
      "stateMutability": "pure",
      "type": "function"
    },
    {
      "constant": false,
      "inputs": [
        {
          "internalType": "uint256",
          "name": "amountIn",
          "type": "uint256"
        },
        {
          "internalType": "uint256",
          "name": "amountOutMin",
          "type": "uint256"
        },
        {
          "internalType": "address[]",
          "name": "path",
          "type": "address[]"
        },
        {
          "internalType": "address",
          "name": "to",
          "type": "address"
        },
        {
          "internalType": "uint256",
          "name": "deadline",
          "type": "uint256"
        }
      ],
      "name": "swapExactTokensForTokens",
      "outputs": [
        {
          "internalType": "uint256[]",
          "name": "amounts",
          "type": "uint256[]"
        }
      ],
      "payable": false,
      "stateMutability": "nonpayable",
      "type": "function"
    }
  ],
  "bytecode": "0x608060405234801561001057600080fd5b50610703806100206000396000f3fe608060405234801561001057600080fd5b50600436106100365760003560e01c806338ed17391461003b578063d06ca61f14610123575b600080fd5b6100d3600480360360a081101561005157600080fd5b81359160208101359181019060608101604082013564010000000081111561007857600080fd5b82018360208201111561008a57600080fd5b803590602001918460208302840111640100000000831117156100ac57600080fd5b919350915073ffffffffffffffffffffffffffffffffffffffff813516906020013561019a565b60408051602080825283518183015283519192839290830191858101910280838360005b8381101561010f5781810151838201526020016100f7565b505050509050019250505060405180910390f35b6100d36004803603604081101561013957600080fd5b8135919081019060408101602082013564010000000081111561015b57600080fd5b82018360208201111561016d57600080fd5b8035906020019184602083028401116401000000008311171561018f57600080fd5b5090925090506102a3565b60606101f2333089888860008181106101af57fe5b9050602002013573ffffffffffffffffffffffffffffffffffffffff1673ffffffffffffffffffffffffffffffffffffffff166102fd909392919063ffffffff16565b61024683878787600181811061020457fe5b9050602002013573ffffffffffffffffffffffffffffffffffffffff1673ffffffffffffffffffffffffffffffffffffffff166104cd9092919063ffffffff16565b6040805160028082526060820183529091602083019080388339019050509050868160008151811061027457fe5b602002602001018181525050858160018151811061028e57fe5b60209081029190910101529695505050505050565b604080516002808252606080830184529260208301908038833901905050905083816000815181106102d157fe5b60200260200101818152505083816001815181106102eb57fe5b60209081029190910101529392505050565b6040805173ffffffffffffffffffffffffffffffffffffffff85811660248301528481166044830152606480830185905283518084039091018152608490920183526020820180517bffffffffffffffffffffffffffffffffffffffffffffffffffffffff167f23b872dd0000000000000000000000000000000000000000000000000000000017815292518251600094606094938a169392918291908083835b602083106103db57805182527fffffffffffffffffffffffffffffffffffffffffffffffffffffffffffffffe0909201916020918201910161039e565b6001836020036101000a0380198251168184511680821785525050505050509050019150506000604051808303816000865af19150503d806000811461043d576040519150601f19603f3d011682016040523d82523d6000602084013e610442565b606091505b5091509150818015610470575080511580610470575080806020019051602081101561046d57600080fd5b50515b6104c5576040517f08c379a00000000000000000000000000000000000000000000000000000000081526004018080602001828103825260248152602001806106ab6024913960400191505060405180910390fd5b505050505050565b6040805173ffffffffffffffffffffffffffffffffffffffff8481166024830152604480830185905283518084039091018152606490920183526020820180517bffffffffffffffffffffffffffffffffffffffffffffffffffffffff167fa9059cbb00000000000000000000000000000000000000000000000000000000178152925182516000946060949389169392918291908083835b602083106105a357805182527fffffffffffffffffffffffffffffffffffffffffffffffffffffffffffffffe09092019160209182019101610566565b6001836020036101000a0380198251168184511680821785525050505050509050019150506000604051808303816000865af19150503d8060008114610605576040519150601f19603f3d011682016040523d82523d6000602084013e61060a565b606091505b5091509150818015610638575080511580610638575080806020019051602081101561063557600080fd5b50515b6106a357604080517f08c379a000000000000000000000000000000000000000000000000000000000815260206004820152601f60248201527f5472616e7366657248656c7065723a205452414e534645525f4641494c454400604482015290519081900360640190fd5b505050505056fe5472616e7366657248656c7065723a205452414e534645525f46524f4d5f4641494c4544a265627a7a723158201bb2482061d8302f853f099aa116c4ff964ca056d80112bad56e0bde230f52d664736f6c63430005110032",
  "source": "pragma solidity ^0.5.12;\n\nimport \"../utils/TransferHelper.sol\";\n\ncontract FakeUniswapRouter {\n    using TransferHelper for address;\n\n    function getAmountsOut(uint256 amountIn, address[] calldata path)\n        external\n        pure\n        returns (uint256[] memory amounts)\n    {\n        (path);\n\n        amounts = new uint256[](2);\n\n        amounts[0] = amountIn;\n        amounts[1] = amountIn;\n\n        return amounts;\n    }\n\n    function swapExactTokensForTokens(\n        uint256 amountIn,\n        uint256 amountOutMin,\n        address[] calldata path,\n        address to,\n        uint256 deadline\n    ) external returns (uint256[] memory amounts) {\n        (deadline);\n\n        path[0].safeTransferFrom(msg.sender, address(this), amountIn);\n        path[1].safeTransfer(to, amountOutMin);\n\n        amounts = new uint256[](2);\n\n        amounts[0] = amountIn;\n        amounts[1] = amountOutMin;\n\n        return amounts;\n    }\n}\n",
  "sourcePath": "/Users/ilya/Documents/Akropolis/dca-strategy-bot/contracts/test/FakeUniswapRouter.sol",
  "compiler": {
    "name": "solc",
    "version": "0.5.17+commit.d19bba13.Emscripten.clang"
  },
  "schemaVersion": "3.2.3",
  "updatedAt": "2020-08-11T09:46:31.082Z",
  "devdoc": {
    "methods": {}
  },
  "userdoc": {
    "methods": {}
  }
}