{
  "contractName": "FakeSavingsModule",
  "abi": [
    {
      "inputs": [
        {
          "internalType": "address[]",
          "name": "_supportedRewardTokens",
          "type": "address[]"
        },
        {
          "internalType": "address",
          "name": "usdc",
          "type": "address"
        },
        {
          "internalType": "uint256",
          "name": "usdcDecimals",
          "type": "uint256"
        },
        {
          "internalType": "address",
          "name": "usdcPoolToken",
          "type": "address"
        },
        {
          "internalType": "address",
          "name": "wbtc",
          "type": "address"
        },
        {
          "internalType": "uint256",
          "name": "wbtcDecimals",
          "type": "uint256"
        },
        {
          "internalType": "address",
          "name": "wbtcPoolToken",
          "type": "address"
        }
      ],
      "payable": false,
      "stateMutability": "nonpayable",
      "type": "constructor"
    },
    {
      "constant": true,
      "inputs": [
        {
          "internalType": "address",
          "name": "",
          "type": "address"
        }
      ],
      "name": "decimals",
      "outputs": [
        {
          "internalType": "uint256",
          "name": "",
          "type": "uint256"
        }
      ],
      "payable": false,
      "stateMutability": "view",
      "type": "function"
    },
    {
      "constant": true,
      "inputs": [
        {
          "internalType": "uint256",
          "name": "",
          "type": "uint256"
        }
      ],
      "name": "supportedRewardTokens_",
      "outputs": [
        {
          "internalType": "address",
          "name": "",
          "type": "address"
        }
      ],
      "payable": false,
      "stateMutability": "view",
      "type": "function"
    },
    {
      "constant": true,
      "inputs": [
        {
          "internalType": "address",
          "name": "",
          "type": "address"
        }
      ],
      "name": "tokens",
      "outputs": [
        {
          "internalType": "address",
          "name": "",
          "type": "address"
        }
      ],
      "payable": false,
      "stateMutability": "view",
      "type": "function"
    },
    {
      "constant": false,
      "inputs": [
        {
          "internalType": "address",
          "name": "_protocol",
          "type": "address"
        },
        {
          "internalType": "address[]",
          "name": "_tokens",
          "type": "address[]"
        },
        {
          "internalType": "uint256[]",
          "name": "_dnAmounts",
          "type": "uint256[]"
        }
      ],
      "name": "deposit",
      "outputs": [
        {
          "internalType": "uint256",
          "name": "",
          "type": "uint256"
        }
      ],
      "payable": false,
      "stateMutability": "nonpayable",
      "type": "function"
    },
    {
      "constant": false,
      "inputs": [
        {
          "internalType": "address",
          "name": "_protocol",
          "type": "address"
        },
        {
          "internalType": "address",
          "name": "token",
          "type": "address"
        },
        {
          "internalType": "uint256",
          "name": "dnAmount",
          "type": "uint256"
        },
        {
          "internalType": "uint256",
          "name": "maxNAmount",
          "type": "uint256"
        }
      ],
      "name": "withdraw",
      "outputs": [
        {
          "internalType": "uint256",
          "name": "",
          "type": "uint256"
        }
      ],
      "payable": false,
      "stateMutability": "nonpayable",
      "type": "function"
    },
    {
      "constant": false,
      "inputs": [
        {
          "internalType": "address[]",
          "name": "rewardTokens",
          "type": "address[]"
        }
      ],
      "name": "withdrawReward",
      "outputs": [
        {
          "internalType": "uint256[]",
          "name": "",
          "type": "uint256[]"
        }
      ],
      "payable": false,
      "stateMutability": "nonpayable",
      "type": "function"
    },
    {
      "constant": true,
      "inputs": [],
      "name": "supportedRewardTokens",
      "outputs": [
        {
          "internalType": "address[]",
          "name": "",
          "type": "address[]"
        }
      ],
      "payable": false,
      "stateMutability": "view",
      "type": "function"
    }
  ],
  "bytecode": "0x608060405234801561001057600080fd5b50604051610f1c380380610f1c833981810160405260e081101561003357600080fd5b810190808051604051939291908464010000000082111561005357600080fd5b90830190602082018581111561006857600080fd5b825186602082028301116401000000008211171561008557600080fd5b82525081516020918201928201910280838360005b838110156100b257818101518382015260200161009a565b505050509190910160409081526020830151908301516060840151608085015160a086015160c090960151939750919550939092509060005b875181101561014757600288828151811061010257fe5b60209081029190910181015182546001808201855560009485529290932090920180546001600160a01b0319166001600160a01b0390931692909217909155016100eb565b506001600160a01b039586166000908152602081815260408083208054978a166001600160a01b031998891617905560018083528184209890985594881682528181528482208054939098169290951691909117909555929091529091205550610d66806101b66000396000f3fe608060405234801561001057600080fd5b506004361061007d5760003560e01c8063d212a6421161005b578063d212a64214610267578063d449a8321461035a578063d9180a001461038d578063e4860339146103955761007d565b80630c7b370b14610082578063562fa0df146100c85780637bfe950c1461021e575b600080fd5b61009f6004803603602081101561009857600080fd5b50356103c8565b6040805173ffffffffffffffffffffffffffffffffffffffff9092168252519081900360200190f35b61020c600480360360608110156100de57600080fd5b73ffffffffffffffffffffffffffffffffffffffff823516919081019060408101602082013564010000000081111561011657600080fd5b82018360208201111561012857600080fd5b8035906020019184602083028401116401000000008311171561014a57600080fd5b919080806020026020016040519081016040528093929190818152602001838360200280828437600092019190915250929594936020810193503591505064010000000081111561019a57600080fd5b8201836020820111156101ac57600080fd5b803590602001918460208302840111640100000000831117156101ce57600080fd5b9190808060200260200160405190810160405280939291908181526020018383602002808284376000920191909152509295506103fc945050505050565b60408051918252519081900360200190f35b61020c6004803603608081101561023457600080fd5b5073ffffffffffffffffffffffffffffffffffffffff81358116916020810135909116906040810135906060013561053f565b61030a6004803603602081101561027d57600080fd5b81019060208101813564010000000081111561029857600080fd5b8201836020820111156102aa57600080fd5b803590602001918460208302840111640100000000831117156102cc57600080fd5b9190808060200260200160405190810160405280939291908181526020018383602002808284376000920191909152509295506105aa945050505050565b60408051602080825283518183015283519192839290830191858101910280838360005b8381101561034657818101518382015260200161032e565b505050509050019250505060405180910390f35b61020c6004803603602081101561037057600080fd5b503573ffffffffffffffffffffffffffffffffffffffff1661065e565b61030a610670565b61009f600480360360208110156103ab57600080fd5b503573ffffffffffffffffffffffffffffffffffffffff16610729565b600281815481106103d557fe5b60009182526020909120015473ffffffffffffffffffffffffffffffffffffffff16905081565b60008083518110156105365761045b333085848151811061041957fe5b602002602001015187858151811061042d57fe5b602002602001015173ffffffffffffffffffffffffffffffffffffffff16610751909392919063ffffffff16565b60006104d56001600087858151811061047057fe5b602002602001015173ffffffffffffffffffffffffffffffffffffffff1673ffffffffffffffffffffffffffffffffffffffff168152602001908152602001600020548584815181106104bf57fe5b602002602001015161092190919063ffffffff16565b905061052d33826000808987815181106104eb57fe5b60209081029190910181015173ffffffffffffffffffffffffffffffffffffffff9081168352908201929092526040016000205416919063ffffffff61099e16565b91506105389050565b505b9392505050565b73ffffffffffffffffffffffffffffffffffffffff8316600090815260016020526040812054819061057890859063ffffffff61092116565b90506105a173ffffffffffffffffffffffffffffffffffffffff8616338363ffffffff61099e16565b95945050505050565b60608082516040519080825280602002602001820160405280156105d8578160200160208202803883390190505b50905060005b83518110156106575761062e3368056bc75e2d6310000086848151811061060157fe5b602002602001015173ffffffffffffffffffffffffffffffffffffffff1661099e9092919063ffffffff16565b68056bc75e2d6310000082828151811061064457fe5b60209081029190910101526001016105de565b5092915050565b60016020526000908152604090205481565b6060806002805490506040519080825280602002602001820160405280156106a2578160200160208202803883390190505b50905060005b60025481101561072357600281815481106106bf57fe5b9060005260206000200160009054906101000a900473ffffffffffffffffffffffffffffffffffffffff168282815181106106f657fe5b73ffffffffffffffffffffffffffffffffffffffff909216602092830291909101909101526001016106a8565b50905090565b60006020819052908152604090205473ffffffffffffffffffffffffffffffffffffffff1681565b6040805173ffffffffffffffffffffffffffffffffffffffff85811660248301528481166044830152606480830185905283518084039091018152608490920183526020820180517bffffffffffffffffffffffffffffffffffffffffffffffffffffffff167f23b872dd0000000000000000000000000000000000000000000000000000000017815292518251600094606094938a169392918291908083835b6020831061082f57805182527fffffffffffffffffffffffffffffffffffffffffffffffffffffffffffffffe090920191602091820191016107f2565b6001836020036101000a0380198251168184511680821785525050505050509050019150506000604051808303816000865af19150503d8060008114610891576040519150601f19603f3d011682016040523d82523d6000602084013e610896565b606091505b50915091508180156108c45750805115806108c457508080602001905160208110156108c157600080fd5b50515b610919576040517f08c379a0000000000000000000000000000000000000000000000000000000008152600401808060200182810382526024815260200180610d0e6024913960400191505060405180910390fd5b505050505050565b60008160121415610933575081610998565b601282111561097857610971837fffffffffffffffffffffffffffffffffffffffffffffffffffffffffffffffee8401600a0a63ffffffff610b7b16565b9050610998565b601282101561099857610971836012849003600a0a63ffffffff610bbd16565b92915050565b6040805173ffffffffffffffffffffffffffffffffffffffff8481166024830152604480830185905283518084039091018152606490920183526020820180517bffffffffffffffffffffffffffffffffffffffffffffffffffffffff167fa9059cbb00000000000000000000000000000000000000000000000000000000178152925182516000946060949389169392918291908083835b60208310610a7457805182527fffffffffffffffffffffffffffffffffffffffffffffffffffffffffffffffe09092019160209182019101610a37565b6001836020036101000a0380198251168184511680821785525050505050509050019150506000604051808303816000865af19150503d8060008114610ad6576040519150601f19603f3d011682016040523d82523d6000602084013e610adb565b606091505b5091509150818015610b09575080511580610b095750808060200190516020811015610b0657600080fd5b50515b610b7457604080517f08c379a000000000000000000000000000000000000000000000000000000000815260206004820152601f60248201527f5472616e7366657248656c7065723a205452414e534645525f4641494c454400604482015290519081900360640190fd5b5050505050565b600061053883836040518060400160405280601a81526020017f536166654d6174683a206469766973696f6e206279207a65726f000000000000815250610c30565b600082610bcc57506000610998565b82820282848281610bd957fe5b0414610538576040517f08c379a0000000000000000000000000000000000000000000000000000000008152600401808060200182810382526021815260200180610ced6021913960400191505060405180910390fd5b60008183610cd6576040517f08c379a00000000000000000000000000000000000000000000000000000000081526004018080602001828103825283818151815260200191508051906020019080838360005b83811015610c9b578181015183820152602001610c83565b50505050905090810190601f168015610cc85780820380516001836020036101000a031916815260200191505b509250505060405180910390fd5b506000838581610ce257fe5b049594505050505056fe536166654d6174683a206d756c7469706c69636174696f6e206f766572666c6f775472616e7366657248656c7065723a205452414e534645525f46524f4d5f4641494c4544a265627a7a723158200fce9d4a67772c488c334e0336c4bb8a3c8e493bf1ed8bbdb713b6b8f6aaf98b64736f6c63430005110032",
  "source": "pragma solidity ^0.5.17;\n\nimport \"../interfaces/savings/ISavingsModule.sol\";\nimport \"../utils/TransferHelper.sol\";\nimport \"../utils/Normalization.sol\";\n\ncontract FakeSavingsModule is ISavingsModule {\n    using TransferHelper for address;\n    using Normalization for uint256;\n\n    mapping(address => address) public tokens;\n    mapping(address => uint256) public decimals;\n\n    address[] public supportedRewardTokens_;\n\n    constructor(\n        address[] memory _supportedRewardTokens,\n        address usdc,\n        uint256 usdcDecimals,\n        address usdcPoolToken,\n        address wbtc,\n        uint256 wbtcDecimals,\n        address wbtcPoolToken\n    ) public {\n        for (uint256 i = 0; i < _supportedRewardTokens.length; i++) {\n            supportedRewardTokens_.push(_supportedRewardTokens[i]);\n        }\n\n        tokens[usdc] = usdcPoolToken;\n        decimals[usdc] = usdcDecimals;\n        tokens[wbtc] = wbtcPoolToken;\n        decimals[wbtc] = wbtcDecimals;\n    }\n\n    /**\n     * @notice Deposit tokens to a protocol\n     * @param _protocol Protocol to deposit tokens\n     * @param _tokens Array of tokens to deposit\n     * @param _dnAmounts Array of amounts (denormalized to token decimals)\n     */\n    function deposit(\n        address _protocol,\n        address[] memory _tokens,\n        uint256[] memory _dnAmounts\n    ) public returns (uint256) {\n        (_protocol);\n\n        for (uint256 i = 0; i < _tokens.length; i++) {\n            _tokens[i].safeTransferFrom(\n                msg.sender,\n                address(this),\n                _dnAmounts[i]\n            );\n\n            uint256 nAmount = _dnAmounts[i].normalize(decimals[_tokens[i]]);\n\n            tokens[_tokens[i]].safeTransfer(msg.sender, nAmount);\n\n            return nAmount;\n        }\n    }\n\n    /**\n     * Withdraw token from protocol\n     * @param _protocol Protocol to withdraw from\n     * @param token Token to withdraw\n     * @param dnAmount Amount to withdraw (denormalized)\n     * @param maxNAmount Max amount of PoolToken to burn\n     * @return Amount of PoolToken burned from user\n     */\n    function withdraw(\n        address _protocol,\n        address token,\n        uint256 dnAmount,\n        uint256 maxNAmount\n    ) public returns (uint256) {\n        (_protocol);\n        (maxNAmount);\n\n        uint256 nAmount = dnAmount.normalize(decimals[token]);\n        token.safeTransfer(msg.sender, nAmount);\n        return nAmount;\n    }\n\n    /**\n     * @notice Withdraw reward tokens for user\n     * @param rewardTokens Array of tokens to withdraw\n     */\n    function withdrawReward(address[] memory rewardTokens)\n        public\n        returns (uint256[] memory)\n    {\n        uint256[] memory rAmounts = new uint256[](rewardTokens.length);\n        for (uint256 i = 0; i < rewardTokens.length; i++) {\n            rewardTokens[i].safeTransfer(msg.sender, 100e18);\n            rAmounts[i] = 100e18;\n        }\n        return rAmounts;\n    }\n\n    function supportedRewardTokens() public view returns (address[] memory) {\n        address[] memory _supportedRewardTokens = new address[](\n            supportedRewardTokens_.length\n        );\n\n        for (uint256 i = 0; i < supportedRewardTokens_.length; i++) {\n            _supportedRewardTokens[i] = supportedRewardTokens_[i];\n        }\n\n        return _supportedRewardTokens;\n    }\n}\n",
  "sourcePath": "/Users/ilya/Documents/Akropolis/dca-strategy-bot/contracts/test/FakeSavingsModule.sol",
  "compiler": {
    "name": "solc",
    "version": "0.5.17+commit.d19bba13.Emscripten.clang"
  },
  "schemaVersion": "3.2.3",
  "updatedAt": "2020-08-10T19:11:24.463Z",
  "devdoc": {
    "methods": {
      "deposit(address,address[],uint256[])": {
        "params": {
          "_dnAmounts": "Array of amounts (denormalized to token decimals)",
          "_protocol": "Protocol to deposit tokens",
          "_tokens": "Array of tokens to deposit"
        }
      },
      "withdraw(address,address,uint256,uint256)": {
        "params": {
          "_protocol": "Protocol to withdraw from",
          "dnAmount": "Amount to withdraw (denormalized)",
          "maxNAmount": "Max amount of PoolToken to burn",
          "token": "Token to withdraw"
        },
        "return": "Amount of PoolToken burned from user"
      },
      "withdrawReward(address[])": {
        "params": {
          "rewardTokens": "Array of tokens to withdraw"
        }
      }
    }
  },
  "userdoc": {
    "methods": {
      "deposit(address,address[],uint256[])": {
        "notice": "Deposit tokens to a protocol"
      },
      "withdraw(address,address,uint256,uint256)": {
        "notice": "Withdraw token from protocol"
      },
      "withdrawReward(address[])": {
        "notice": "Withdraw reward tokens for user"
      }
    }
  }
}