{
  "contractName": "Module",
  "abi": [
    {
      "anonymous": false,
      "inputs": [
        {
          "indexed": true,
          "internalType": "address",
          "name": "previousOwner",
          "type": "address"
        },
        {
          "indexed": true,
          "internalType": "address",
          "name": "newOwner",
          "type": "address"
        }
      ],
      "name": "OwnershipTransferred",
      "type": "event"
    },
    {
      "anonymous": false,
      "inputs": [
        {
          "indexed": false,
          "internalType": "address",
          "name": "newPool",
          "type": "address"
        }
      ],
      "name": "PoolAddressChanged",
      "type": "event"
    },
    {
      "constant": true,
      "inputs": [],
      "name": "isOwner",
      "outputs": [
        {
          "internalType": "bool",
          "name": "",
          "type": "bool"
        }
      ],
      "payable": false,
      "stateMutability": "view",
      "type": "function"
    },
    {
      "constant": true,
      "inputs": [],
      "name": "owner",
      "outputs": [
        {
          "internalType": "address",
          "name": "",
          "type": "address"
        }
      ],
      "payable": false,
      "stateMutability": "view",
      "type": "function"
    },
    {
      "constant": true,
      "inputs": [],
      "name": "pool",
      "outputs": [
        {
          "internalType": "address",
          "name": "",
          "type": "address"
        }
      ],
      "payable": false,
      "stateMutability": "view",
      "type": "function"
    },
    {
      "constant": false,
      "inputs": [],
      "name": "renounceOwnership",
      "outputs": [],
      "payable": false,
      "stateMutability": "nonpayable",
      "type": "function"
    },
    {
      "constant": false,
      "inputs": [
        {
          "internalType": "address",
          "name": "newOwner",
          "type": "address"
        }
      ],
      "name": "transferOwnership",
      "outputs": [],
      "payable": false,
      "stateMutability": "nonpayable",
      "type": "function"
    },
    {
      "constant": false,
      "inputs": [],
      "name": "initialize",
      "outputs": [],
      "payable": false,
      "stateMutability": "nonpayable",
      "type": "function"
    },
    {
      "constant": false,
      "inputs": [
        {
          "internalType": "address",
          "name": "_pool",
          "type": "address"
        }
      ],
      "name": "initialize",
      "outputs": [],
      "payable": false,
      "stateMutability": "nonpayable",
      "type": "function"
    },
    {
      "constant": false,
      "inputs": [
        {
          "internalType": "address",
          "name": "_pool",
          "type": "address"
        }
      ],
      "name": "setPool",
      "outputs": [],
      "payable": false,
      "stateMutability": "nonpayable",
      "type": "function"
    },
    {
      "constant": true,
      "inputs": [
        {
          "internalType": "string",
          "name": "module",
          "type": "string"
        }
      ],
      "name": "getModuleAddress",
      "outputs": [
        {
          "internalType": "address",
          "name": "",
          "type": "address"
        }
      ],
      "payable": false,
      "stateMutability": "view",
      "type": "function"
    }
  ],
  "bytecode": "0x6080604052610d4f806100136000396000f3fe608060405234801561001057600080fd5b50600436106100a35760003560e01c80638129fc1c116100765780638f32d59b1161005b5780638f32d59b146101cc578063c4d66de8146101e8578063f2fde38b1461021b576100a3565b80638129fc1c146101bc5780638da5cb5b146101c4576100a3565b806316f0115b146100a85780634437152a146100d9578063715018a61461010e57806371dc760f14610116575b600080fd5b6100b061024e565b6040805173ffffffffffffffffffffffffffffffffffffffff9092168252519081900360200190f35b61010c600480360360208110156100ef57600080fd5b503573ffffffffffffffffffffffffffffffffffffffff1661026a565b005b61010c6103c2565b6100b06004803603602081101561012c57600080fd5b81019060208101813564010000000081111561014757600080fd5b82018360208201111561015957600080fd5b8035906020019184600183028401116401000000008311171561017b57600080fd5b91908080601f0160208091040260200160405190810160405280939291908181526020018383808284376000920191909152509295506104a4945050505050565b61010c610782565b6100b061086c565b6101d4610888565b604080519115158252519081900360200190f35b61010c600480360360208110156101fe57600080fd5b503573ffffffffffffffffffffffffffffffffffffffff166108c8565b61010c6004803603602081101561023157600080fd5b503573ffffffffffffffffffffffffffffffffffffffff166109b4565b60665473ffffffffffffffffffffffffffffffffffffffff1681565b610272610888565b6102dd57604080517f08c379a000000000000000000000000000000000000000000000000000000000815260206004820181905260248201527f4f776e61626c653a2063616c6c6572206973206e6f7420746865206f776e6572604482015290519081900360640190fd5b73ffffffffffffffffffffffffffffffffffffffff8116610349576040517f08c379a0000000000000000000000000000000000000000000000000000000008152600401808060200182810382526022815260200180610ca96022913960400191505060405180910390fd5b6066805473ffffffffffffffffffffffffffffffffffffffff83167fffffffffffffffffffffffff0000000000000000000000000000000000000000909116811790915560408051918252517f5b36800c27524690807962bd42525a44e68b3f860e8f9e0204f27e777d2f46059181900360200190a150565b6103ca610888565b61043557604080517f08c379a000000000000000000000000000000000000000000000000000000000815260206004820181905260248201527f4f776e61626c653a2063616c6c6572206973206e6f7420746865206f776e6572604482015290519081900360640190fd5b60335460405160009173ffffffffffffffffffffffffffffffffffffffff16907f8be0079c531659141344cd1fd0a4f28419497f9722a3daafe3b4186f6b6457e0908390a3603380547fffffffffffffffffffffffff0000000000000000000000000000000000000000169055565b60665460009073ffffffffffffffffffffffffffffffffffffffff1661052b57604080517f08c379a000000000000000000000000000000000000000000000000000000000815260206004820152600f60248201527f4d6f64756c653a206e6f20706f6f6c0000000000000000000000000000000000604482015290519081900360640190fd5b60665460405160206024820181815285516044840152855160009460609473ffffffffffffffffffffffffffffffffffffffff909116938893928392606401918501908083838b5b8381101561058b578181015183820152602001610573565b50505050905090810190601f1680156105b85780820380516001836020036101000a031916815260200191505b50604080517fffffffffffffffffffffffffffffffffffffffffffffffffffffffffffffffe08184030181529181526020820180517bffffffffffffffffffffffffffffffffffffffffffffffffffffffff167f693ec85e00000000000000000000000000000000000000000000000000000000178152905182519295509350839250908083835b6020831061067d57805182527fffffffffffffffffffffffffffffffffffffffffffffffffffffffffffffffe09092019160209182019101610640565b6001836020036101000a038019825116818451168082178552505050505050905001915050600060405180830381855afa9150503d80600081146106dd576040519150601f19603f3d011682016040523d82523d6000602084013e6106e2565b606091505b5091509150816106f3578060208201fd5b600081806020019051602081101561070a57600080fd5b5051905073ffffffffffffffffffffffffffffffffffffffff811661077a576040517f08c379a0000000000000000000000000000000000000000000000000000000008152600401808060200182810382526022815260200180610cf96022913960400191505060405180910390fd5b949350505050565b600054610100900460ff168061079b575061079b610a30565b806107a9575060005460ff16155b6107fe576040517f08c379a000000000000000000000000000000000000000000000000000000000815260040180806020018281038252602e815260200180610ccb602e913960400191505060405180910390fd5b600054610100900460ff1615801561084757600080547fffffffffffffffffffffffffffffffffffffffffffffffffffffffffffffff0061ff0019909116610100171660011790555b610857610852610a36565b610a3a565b8015610869576000805461ff00191690555b50565b60335473ffffffffffffffffffffffffffffffffffffffff1690565b60335460009073ffffffffffffffffffffffffffffffffffffffff166108ac610a36565b73ffffffffffffffffffffffffffffffffffffffff1614905090565b600054610100900460ff16806108e157506108e1610a30565b806108ef575060005460ff16155b610944576040517f08c379a000000000000000000000000000000000000000000000000000000000815260040180806020018281038252602e815260200180610ccb602e913960400191505060405180910390fd5b600054610100900460ff1615801561098d57600080547fffffffffffffffffffffffffffffffffffffffffffffffffffffffffffffff0061ff0019909116610100171660011790555b610995610782565b61099e8261026a565b80156109b0576000805461ff00191690555b5050565b6109bc610888565b610a2757604080517f08c379a000000000000000000000000000000000000000000000000000000000815260206004820181905260248201527f4f776e61626c653a2063616c6c6572206973206e6f7420746865206f776e6572604482015290519081900360640190fd5b61086981610b88565b303b1590565b3390565b600054610100900460ff1680610a535750610a53610a30565b80610a61575060005460ff16155b610ab6576040517f08c379a000000000000000000000000000000000000000000000000000000000815260040180806020018281038252602e815260200180610ccb602e913960400191505060405180910390fd5b600054610100900460ff16158015610aff57600080547fffffffffffffffffffffffffffffffffffffffffffffffffffffffffffffff0061ff0019909116610100171660011790555b603380547fffffffffffffffffffffffff00000000000000000000000000000000000000001673ffffffffffffffffffffffffffffffffffffffff84811691909117918290556040519116906000907f8be0079c531659141344cd1fd0a4f28419497f9722a3daafe3b4186f6b6457e0908290a380156109b0576000805461ff00191690555050565b73ffffffffffffffffffffffffffffffffffffffff8116610bf4576040517f08c379a0000000000000000000000000000000000000000000000000000000008152600401808060200182810382526026815260200180610c836026913960400191505060405180910390fd5b60335460405173ffffffffffffffffffffffffffffffffffffffff8084169216907f8be0079c531659141344cd1fd0a4f28419497f9722a3daafe3b4186f6b6457e090600090a3603380547fffffffffffffffffffffffff00000000000000000000000000000000000000001673ffffffffffffffffffffffffffffffffffffffff9290921691909117905556fe4f776e61626c653a206e6577206f776e657220697320746865207a65726f20616464726573734d6f64756c653a20706f6f6c20616464726573732063616e2774206265207a65726f436f6e747261637420696e7374616e63652068617320616c7265616479206265656e20696e697469616c697a65644d6f64756c653a20726571756573746564206d6f64756c65206e6f7420666f756e64a265627a7a723158203764aa48c5add87e93d2ce3b38a8b364a1ca80b925c003035f21f5fa64d0ce7464736f6c63430005110032",
  "source": "pragma solidity ^0.5.12;\n\n\nimport \"./Base.sol\";\nimport \"../core/ModuleNames.sol\";\n\n/**\n * Base contract for all modules\n */\ncontract Module is Base, ModuleNames {\n    event PoolAddressChanged(address newPool);\n    address public pool;\n\n    function initialize(address _pool) public initializer {\n        Base.initialize();\n        setPool(_pool);\n    }\n\n    function setPool(address _pool) public onlyOwner {\n        require(_pool != ZERO_ADDRESS, \"Module: pool address can't be zero\");\n        pool = _pool;\n        emit PoolAddressChanged(_pool);        \n    }\n\n    function getModuleAddress(string memory module) public view returns(address){\n        require(pool != ZERO_ADDRESS, \"Module: no pool\");\n        (bool success, bytes memory result) = pool.staticcall(abi.encodeWithSignature(\"get(string)\", module));\n        \n        //Forward error from Pool contract\n        if (!success) assembly {\n            revert(add(result, 32), result)\n        }\n\n        address moduleAddress = abi.decode(result, (address));\n        // string memory error = string(abi.encodePacked(\"Module: requested module not found - \", module));\n        // require(moduleAddress != ZERO_ADDRESS, error);\n        require(moduleAddress != ZERO_ADDRESS, \"Module: requested module not found\");\n        return moduleAddress;\n    }\n\n}\n",
  "sourcePath": "/Users/ilya/Documents/Akropolis/dca-strategy-bot/contracts/common/Module.sol",
  "compiler": {
    "name": "solc",
    "version": "0.5.17+commit.d19bba13.Emscripten.clang"
  },
  "schemaVersion": "3.2.3",
  "updatedAt": "2020-08-11T09:46:30.517Z",
  "devdoc": {
    "methods": {
      "isOwner()": {
        "details": "Returns true if the caller is the current owner."
      },
      "owner()": {
        "details": "Returns the address of the current owner."
      },
      "renounceOwnership()": {
        "details": "Leaves the contract without owner. It will not be possible to call `onlyOwner` functions anymore. Can only be called by the current owner.     * > Note: Renouncing ownership will leave the contract without an owner, thereby removing any functionality that is only available to the owner."
      },
      "transferOwnership(address)": {
        "details": "Transfers ownership of the contract to a new account (`newOwner`). Can only be called by the current owner."
      }
    }
  },
  "userdoc": {
    "methods": {},
    "notice": "Base contract for all modules"
  }
}