{
  "contractName": "PauserRole",
  "abi": [
    {
      "anonymous": false,
      "inputs": [
        {
          "indexed": true,
          "internalType": "address",
          "name": "account",
          "type": "address"
        }
      ],
      "name": "PauserAdded",
      "type": "event"
    },
    {
      "anonymous": false,
      "inputs": [
        {
          "indexed": true,
          "internalType": "address",
          "name": "account",
          "type": "address"
        }
      ],
      "name": "PauserRemoved",
      "type": "event"
    },
    {
      "constant": false,
      "inputs": [
        {
          "internalType": "address",
          "name": "sender",
          "type": "address"
        }
      ],
      "name": "initialize",
      "outputs": [],
      "payable": false,
      "stateMutability": "nonpayable",
      "type": "function"
    },
    {
      "constant": true,
      "inputs": [
        {
          "internalType": "address",
          "name": "account",
          "type": "address"
        }
      ],
      "name": "isPauser",
      "outputs": [
        {
          "internalType": "bool",
          "name": "",
          "type": "bool"
        }
      ],
      "payable": false,
      "stateMutability": "view",
      "type": "function"
    },
    {
      "constant": false,
      "inputs": [
        {
          "internalType": "address",
          "name": "account",
          "type": "address"
        }
      ],
      "name": "addPauser",
      "outputs": [],
      "payable": false,
      "stateMutability": "nonpayable",
      "type": "function"
    },
    {
      "constant": false,
      "inputs": [],
      "name": "renouncePauser",
      "outputs": [],
      "payable": false,
      "stateMutability": "nonpayable",
      "type": "function"
    }
  ],
  "bytecode": "0x6080604052610666806100136000396000f3fe608060405234801561001057600080fd5b506004361061004c5760003560e01c806346fbf68e146100515780636ef8d66d1461009857806382dc1ec4146100a2578063c4d66de8146100d5575b600080fd5b6100846004803603602081101561006757600080fd5b503573ffffffffffffffffffffffffffffffffffffffff16610108565b604080519115158252519081900360200190f35b6100a0610121565b005b6100a0600480360360208110156100b857600080fd5b503573ffffffffffffffffffffffffffffffffffffffff16610133565b6100a0600480360360208110156100eb57600080fd5b503573ffffffffffffffffffffffffffffffffffffffff166101a4565b600061011b60338363ffffffff6102cf16565b92915050565b61013161012c61036a565b61036e565b565b61014361013e61036a565b610108565b610198576040517f08c379a00000000000000000000000000000000000000000000000000000000081526004018080602001828103825260308152602001806105916030913960400191505060405180910390fd5b6101a1816103c3565b50565b600054610100900460ff16806101bd57506101bd610418565b806101cb575060005460ff16155b610220576040517f08c379a000000000000000000000000000000000000000000000000000000000815260040180806020018281038252602e815260200180610604602e913960400191505060405180910390fd5b600054610100900460ff1615801561028657600080547fffffffffffffffffffffffffffffffffffffffffffffffffffffffffffffff007fffffffffffffffffffffffffffffffffffffffffffffffffffffffffffff00ff909116610100171660011790555b61028f82610108565b61029c5761029c826103c3565b80156102cb57600080547fffffffffffffffffffffffffffffffffffffffffffffffffffffffffffff00ff1690555b5050565b600073ffffffffffffffffffffffffffffffffffffffff821661033d576040517f08c379a00000000000000000000000000000000000000000000000000000000081526004018080602001828103825260228152602001806105e26022913960400191505060405180910390fd5b5073ffffffffffffffffffffffffffffffffffffffff166000908152602091909152604090205460ff1690565b3390565b61037f60338263ffffffff61041e16565b60405173ffffffffffffffffffffffffffffffffffffffff8216907fcd265ebaf09df2871cc7bd4133404a235ba12eff2041bb89d9c714a2621c7c7e90600090a250565b6103d460338263ffffffff6104ca16565b60405173ffffffffffffffffffffffffffffffffffffffff8216907f6719d08c1888103bea251a4ed56406bd0c3e69723c8a1686e017e7bbe159b6f890600090a250565b303b1590565b61042882826102cf565b61047d576040517f08c379a00000000000000000000000000000000000000000000000000000000081526004018080602001828103825260218152602001806105c16021913960400191505060405180910390fd5b73ffffffffffffffffffffffffffffffffffffffff1660009081526020919091526040902080547fffffffffffffffffffffffffffffffffffffffffffffffffffffffffffffff00169055565b6104d482826102cf565b1561054057604080517f08c379a000000000000000000000000000000000000000000000000000000000815260206004820152601f60248201527f526f6c65733a206163636f756e7420616c72656164792068617320726f6c6500604482015290519081900360640190fd5b73ffffffffffffffffffffffffffffffffffffffff1660009081526020919091526040902080547fffffffffffffffffffffffffffffffffffffffffffffffffffffffffffffff0016600117905556fe506175736572526f6c653a2063616c6c657220646f6573206e6f742068617665207468652050617573657220726f6c65526f6c65733a206163636f756e7420646f6573206e6f74206861766520726f6c65526f6c65733a206163636f756e7420697320746865207a65726f2061646472657373436f6e747261637420696e7374616e63652068617320616c7265616479206265656e20696e697469616c697a6564a265627a7a72315820d1bd238e7c70b12aea121d4869131bb58eb4a8945a8226dbc605c94a0056cd7a64736f6c63430005110032",
  "source": "pragma solidity ^0.5.0;\n\nimport \"@openzeppelin/upgrades/contracts/Initializable.sol\";\n\nimport \"../../GSN/Context.sol\";\nimport \"../Roles.sol\";\n\ncontract PauserRole is Initializable, Context {\n    using Roles for Roles.Role;\n\n    event PauserAdded(address indexed account);\n    event PauserRemoved(address indexed account);\n\n    Roles.Role private _pausers;\n\n    function initialize(address sender) public initializer {\n        if (!isPauser(sender)) {\n            _addPauser(sender);\n        }\n    }\n\n    modifier onlyPauser() {\n        require(isPauser(_msgSender()), \"PauserRole: caller does not have the Pauser role\");\n        _;\n    }\n\n    function isPauser(address account) public view returns (bool) {\n        return _pausers.has(account);\n    }\n\n    function addPauser(address account) public onlyPauser {\n        _addPauser(account);\n    }\n\n    function renouncePauser() public {\n        _removePauser(_msgSender());\n    }\n\n    function _addPauser(address account) internal {\n        _pausers.add(account);\n        emit PauserAdded(account);\n    }\n\n    function _removePauser(address account) internal {\n        _pausers.remove(account);\n        emit PauserRemoved(account);\n    }\n\n    uint256[50] private ______gap;\n}\n",
  "sourcePath": "@openzeppelin/contracts-ethereum-package/contracts/access/roles/PauserRole.sol",
  "compiler": {
    "name": "solc",
    "version": "0.5.17+commit.d19bba13.Emscripten.clang"
  },
  "schemaVersion": "3.2.3",
  "updatedAt": "2020-08-10T19:11:24.500Z",
  "devdoc": {
    "methods": {}
  },
  "userdoc": {
    "methods": {}
  }
}