{
  "contractName": "Pool",
  "abi": [
    {
      "anonymous": false,
      "inputs": [
        {
          "indexed": false,
          "internalType": "string",
          "name": "name",
          "type": "string"
        },
        {
          "indexed": true,
          "internalType": "address",
          "name": "module",
          "type": "address"
        }
      ],
      "name": "ModuleAdded",
      "type": "event"
    },
    {
      "anonymous": false,
      "inputs": [
        {
          "indexed": false,
          "internalType": "string",
          "name": "name",
          "type": "string"
        },
        {
          "indexed": true,
          "internalType": "address",
          "name": "module",
          "type": "address"
        }
      ],
      "name": "ModuleRemoved",
      "type": "event"
    },
    {
      "anonymous": false,
      "inputs": [
        {
          "indexed": false,
          "internalType": "string",
          "name": "name",
          "type": "string"
        },
        {
          "indexed": true,
          "internalType": "address",
          "name": "from",
          "type": "address"
        },
        {
          "indexed": true,
          "internalType": "address",
          "name": "to",
          "type": "address"
        }
      ],
      "name": "ModuleReplaced",
      "type": "event"
    },
    {
      "anonymous": false,
      "inputs": [
        {
          "indexed": true,
          "internalType": "address",
          "name": "previousOwner",
          "type": "address"
        },
        {
          "indexed": true,
          "internalType": "address",
          "name": "newOwner",
          "type": "address"
        }
      ],
      "name": "OwnershipTransferred",
      "type": "event"
    },
    {
      "constant": true,
      "inputs": [
        {
          "internalType": "address",
          "name": "",
          "type": "address"
        }
      ],
      "name": "abiOf",
      "outputs": [
        {
          "internalType": "string",
          "name": "",
          "type": "string"
        }
      ],
      "payable": false,
      "stateMutability": "view",
      "type": "function"
    },
    {
      "constant": true,
      "inputs": [],
      "name": "description",
      "outputs": [
        {
          "internalType": "string",
          "name": "",
          "type": "string"
        }
      ],
      "payable": false,
      "stateMutability": "view",
      "type": "function"
    },
    {
      "constant": true,
      "inputs": [],
      "name": "founder",
      "outputs": [
        {
          "internalType": "address",
          "name": "",
          "type": "address"
        }
      ],
      "payable": false,
      "stateMutability": "view",
      "type": "function"
    },
    {
      "constant": true,
      "inputs": [],
      "name": "isOwner",
      "outputs": [
        {
          "internalType": "bool",
          "name": "",
          "type": "bool"
        }
      ],
      "payable": false,
      "stateMutability": "view",
      "type": "function"
    },
    {
      "constant": true,
      "inputs": [
        {
          "internalType": "bytes32",
          "name": "",
          "type": "bytes32"
        }
      ],
      "name": "is_constant",
      "outputs": [
        {
          "internalType": "bool",
          "name": "",
          "type": "bool"
        }
      ],
      "payable": false,
      "stateMutability": "view",
      "type": "function"
    },
    {
      "constant": true,
      "inputs": [],
      "name": "name",
      "outputs": [
        {
          "internalType": "string",
          "name": "",
          "type": "string"
        }
      ],
      "payable": false,
      "stateMutability": "view",
      "type": "function"
    },
    {
      "constant": true,
      "inputs": [],
      "name": "owner",
      "outputs": [
        {
          "internalType": "address",
          "name": "",
          "type": "address"
        }
      ],
      "payable": false,
      "stateMutability": "view",
      "type": "function"
    },
    {
      "constant": false,
      "inputs": [],
      "name": "renounceOwnership",
      "outputs": [],
      "payable": false,
      "stateMutability": "nonpayable",
      "type": "function"
    },
    {
      "constant": false,
      "inputs": [
        {
          "internalType": "address",
          "name": "newOwner",
          "type": "address"
        }
      ],
      "name": "transferOwnership",
      "outputs": [],
      "payable": false,
      "stateMutability": "nonpayable",
      "type": "function"
    },
    {
      "constant": false,
      "inputs": [],
      "name": "initialize",
      "outputs": [],
      "payable": false,
      "stateMutability": "nonpayable",
      "type": "function"
    },
    {
      "constant": false,
      "inputs": [
        {
          "internalType": "address",
          "name": "sender",
          "type": "address"
        }
      ],
      "name": "initialize",
      "outputs": [],
      "payable": false,
      "stateMutability": "nonpayable",
      "type": "function"
    },
    {
      "constant": false,
      "inputs": [
        {
          "internalType": "string",
          "name": "_name",
          "type": "string"
        },
        {
          "internalType": "string",
          "name": "_description",
          "type": "string"
        }
      ],
      "name": "setMetadata",
      "outputs": [],
      "payable": false,
      "stateMutability": "nonpayable",
      "type": "function"
    },
    {
      "constant": false,
      "inputs": [
        {
          "internalType": "string",
          "name": "_name",
          "type": "string"
        },
        {
          "internalType": "address",
          "name": "_module",
          "type": "address"
        },
        {
          "internalType": "bool",
          "name": "_constant",
          "type": "bool"
        }
      ],
      "name": "set",
      "outputs": [],
      "payable": false,
      "stateMutability": "nonpayable",
      "type": "function"
    },
    {
      "constant": false,
      "inputs": [
        {
          "internalType": "string",
          "name": "_name",
          "type": "string"
        }
      ],
      "name": "remove",
      "outputs": [],
      "payable": false,
      "stateMutability": "nonpayable",
      "type": "function"
    },
    {
      "constant": true,
      "inputs": [
        {
          "internalType": "address",
          "name": "_module",
          "type": "address"
        }
      ],
      "name": "contains",
      "outputs": [
        {
          "internalType": "bool",
          "name": "",
          "type": "bool"
        }
      ],
      "payable": false,
      "stateMutability": "view",
      "type": "function"
    },
    {
      "constant": true,
      "inputs": [],
      "name": "size",
      "outputs": [
        {
          "internalType": "uint256",
          "name": "",
          "type": "uint256"
        }
      ],
      "payable": false,
      "stateMutability": "view",
      "type": "function"
    },
    {
      "constant": true,
      "inputs": [
        {
          "internalType": "string",
          "name": "_name",
          "type": "string"
        }
      ],
      "name": "isConstant",
      "outputs": [
        {
          "internalType": "bool",
          "name": "",
          "type": "bool"
        }
      ],
      "payable": false,
      "stateMutability": "view",
      "type": "function"
    },
    {
      "constant": true,
      "inputs": [
        {
          "internalType": "string",
          "name": "_name",
          "type": "string"
        }
      ],
      "name": "get",
      "outputs": [
        {
          "internalType": "address",
          "name": "",
          "type": "address"
        }
      ],
      "payable": false,
      "stateMutability": "view",
      "type": "function"
    },
    {
      "constant": true,
      "inputs": [
        {
          "internalType": "address",
          "name": "_module",
          "type": "address"
        }
      ],
      "name": "getName",
      "outputs": [
        {
          "internalType": "string",
          "name": "",
          "type": "string"
        }
      ],
      "payable": false,
      "stateMutability": "view",
      "type": "function"
    },
    {
      "constant": true,
      "inputs": [],
      "name": "first",
      "outputs": [
        {
          "internalType": "address",
          "name": "",
          "type": "address"
        }
      ],
      "payable": false,
      "stateMutability": "view",
      "type": "function"
    },
    {
      "constant": true,
      "inputs": [
        {
          "internalType": "address",
          "name": "_current",
          "type": "address"
        }
      ],
      "name": "next",
      "outputs": [
        {
          "internalType": "address",
          "name": "",
          "type": "address"
        }
      ],
      "payable": false,
      "stateMutability": "view",
      "type": "function"
    }
  ],
  "bytecode": "0x6080604052611e9f806100136000396000f3fe608060405234801561001057600080fd5b50600436106101775760003560e01c806380599e4b116100d8578063949d225d1161008c578063ab73e31611610066578063ab73e316146106e1578063c4d66de814610707578063f2fde38b1461072d57610177565b8063949d225d146105f457806399d0baef1461060e578063a197d79a146106c457610177565b80638a5c68eb116100bd5780638a5c68eb1461053e5780638da5cb5b146105e45780638f32d59b146105ec57610177565b806380599e4b146104905780638129fc1c1461053657610177565b80635dbe47e81161012f578063693ec85e11610114578063693ec85e146103da578063715018a6146104805780637284e4161461048857610177565b80635dbe47e81461037a5780635fd4b08a146103b457610177565b806342ad9b891161016057806342ad9b891461021d5780634d853ee51461024357806351335b501461024b57610177565b806306fdde031461017c5780633df4ddf4146101f9575b600080fd5b610184610753565b6040805160208082528351818301528351919283929083019185019080838360005b838110156101be5781810151838201526020016101a6565b50505050905090810190601f1680156101eb5780820380516001836020036101000a031916815260200191505b509250505060405180910390f35b6102016107e1565b604080516001600160a01b039092168252519081900360200190f35b6101846004803603602081101561023357600080fd5b50356001600160a01b03166107f1565b610201610859565b6103786004803603604081101561026157600080fd5b81019060208101813564010000000081111561027c57600080fd5b82018360208201111561028e57600080fd5b803590602001918460018302840111640100000000831117156102b057600080fd5b91908080601f016020809104026020016040519081016040528093929190818152602001838380828437600092019190915250929594936020810193503591505064010000000081111561030357600080fd5b82018360208201111561031557600080fd5b8035906020019184600183028401116401000000008311171561033757600080fd5b91908080601f016020809104026020016040519081016040528093929190818152602001838380828437600092019190915250929550610868945050505050565b005b6103a06004803603602081101561039057600080fd5b50356001600160a01b03166108ed565b604080519115158252519081900360200190f35b610184600480360360208110156103ca57600080fd5b50356001600160a01b0316610906565b610201600480360360208110156103f057600080fd5b81019060208101813564010000000081111561040b57600080fd5b82018360208201111561041d57600080fd5b8035906020019184600183028401116401000000008311171561043f57600080fd5b91908080601f0160208091040260200160405190810160405280939291908181526020018383808284376000920191909152509295506109b1945050505050565b6103786109c4565b610184610a74565b610378600480360360208110156104a657600080fd5b8101906020810181356401000000008111156104c157600080fd5b8201836020820111156104d357600080fd5b803590602001918460018302840111640100000000831117156104f557600080fd5b91908080601f016020809104026020016040519081016040528093929190818152602001838380828437600092019190915250929550610acf945050505050565b610378610c4a565b6103a06004803603602081101561055457600080fd5b81019060208101813564010000000081111561056f57600080fd5b82018360208201111561058157600080fd5b803590602001918460018302840111640100000000831117156105a357600080fd5b91908080601f016020809104026020016040519081016040528093929190818152602001838380828437600092019190915250929550610d28945050505050565b610201610db3565b6103a0610dc2565b6105fc610de8565b60408051918252519081900360200190f35b6103786004803603606081101561062457600080fd5b81019060208101813564010000000081111561063f57600080fd5b82018360208201111561065157600080fd5b8035906020019184600183028401116401000000008311171561067357600080fd5b91908080601f016020809104026020016040519081016040528093929190818152602001838380828437600092019190915250929550506001600160a01b0383351693505050602001351515610df9565b6103a0600480360360208110156106da57600080fd5b50356110cd565b610201600480360360208110156106f757600080fd5b50356001600160a01b03166110e2565b6103786004803603602081101561071d57600080fd5b50356001600160a01b03166110f5565b6103786004803603602081101561074357600080fd5b50356001600160a01b03166111f4565b6066805460408051602060026001851615610100026000190190941693909304601f810184900484028201840190925281815292918301828280156107d95780601f106107ae576101008083540402835291602001916107d9565b820191906000526020600020905b8154815290600101906020018083116107bc57829003601f168201915b505050505081565b606b546001600160a01b03165b90565b60726020908152600091825260409182902080548351601f6002600019610100600186161502019093169290920491820184900484028101840190945280845290918301828280156107d95780601f106107ae576101008083540402835291602001916107d9565b6068546001600160a01b031681565b610870610dc2565b6108c1576040805162461bcd60e51b815260206004820181905260248201527f4f776e61626c653a2063616c6c6572206973206e6f7420746865206f776e6572604482015290519081900360640190fd5b81516108d4906066906020850190611d56565b5080516108e8906067906020840190611d56565b505050565b6000610900606b8363ffffffff61125616565b92915050565b6001600160a01b0381166000908152606a602090815260409182902080548351601f60026000196101006001861615020190931692909204918201849004840281018401909452808452606093928301828280156109a55780601f1061097a576101008083540402835291602001916109a5565b820191906000526020600020905b81548152906001019060200180831161098857829003601f168201915b50505050509050919050565b600061090060698363ffffffff61127816565b6109cc610dc2565b610a1d576040805162461bcd60e51b815260206004820181905260248201527f4f776e61626c653a2063616c6c6572206973206e6f7420746865206f776e6572604482015290519081900360640190fd5b6033546040516000916001600160a01b0316907f8be0079c531659141344cd1fd0a4f28419497f9722a3daafe3b4186f6b6457e0908390a36033805473ffffffffffffffffffffffffffffffffffffffff19169055565b6067805460408051602060026001851615610100026000190190941693909304601f810184900484028201840190925281815292918301828280156107d95780601f106107ae576101008083540402835291602001916107d9565b610ad7610dc2565b610b28576040805162461bcd60e51b815260206004820181905260248201527f4f776e61626c653a2063616c6c6572206973206e6f7420746865206f776e6572604482015290519081900360640190fd5b610b3181610d28565b15610b83576040805162461bcd60e51b815260206004820152601f60248201527f506f6f6c3a206d6f64756c652063616e206e6f742062652072656d6f76656400604482015290519081900360640190fd5b610b9460698263ffffffff61127816565b6001600160a01b03167fc7c2b7fdd6075949e44c7daeedba58fd5c0449ad0f224c27fd4a4135d7c919da826040518080602001828103825283818151815260200191508051906020019080838360005b83811015610bfc578181015183820152602001610be4565b50505050905090810190601f168015610c295780820380516001836020036101000a031916815260200191505b509250505060405180910390a2610c4760698263ffffffff61130c16565b50565b600054610100900460ff1680610c635750610c63611407565b80610c71575060005460ff16155b610cac5760405162461bcd60e51b815260040180806020018281038252602e815260200180611e15602e913960400191505060405180910390fd5b600054610100900460ff16158015610cd7576000805460ff1961ff0019909116610100171660011790555b610cdf61140d565b610ce76114be565b6068805473ffffffffffffffffffffffffffffffffffffffff19166001600160a01b03929092169190911790558015610c47576000805461ff001916905550565b600060716000836040516020018082805190602001908083835b60208310610d615780518252601f199092019160209182019101610d42565b51815160209384036101000a60001901801990921691161790526040805192909401828103601f1901835284528151918101919091208652850195909552929092016000205460ff1695945050505050565b6033546001600160a01b031690565b6033546000906001600160a01b0316610dd96114be565b6001600160a01b031614905090565b6000610df460696114c2565b905090565b610e01610dc2565b610e52576040805162461bcd60e51b815260206004820181905260248201527f4f776e61626c653a2063616c6c6572206973206e6f7420746865206f776e6572604482015290519081900360640190fd5b610e5b83610d28565b15610e975760405162461bcd60e51b8152600401808060200182810382526028815260200180611e436028913960400191505060405180910390fd5b6000610eaa60698563ffffffff61127816565b6001600160a01b031614610f7a576001600160a01b038216610ed360698563ffffffff61127816565b6001600160a01b03167f23a55454d9664d45d077cf9ea443f238337d1fecc92ddc03fd58d78413276b9b856040518080602001828103825283818151815260200191508051906020019080838360005b83811015610f3b578181015183820152602001610f23565b50505050905090810190601f168015610f685780820380516001836020036101000a031916815260200191505b509250505060405180910390a361101e565b816001600160a01b03167fb857c29f328a6af5a05e6da681a34d36fe28b9d9b5e333c5668d1448b2431ed0846040518080602001828103825283818151815260200191508051906020019080838360005b83811015610fe3578181015183820152602001610fcb565b50505050905090810190601f1680156110105780820380516001836020036101000a031916815260200191505b509250505060405180910390a25b6110306069848463ffffffff6114c916565b8060716000856040516020018082805190602001908083835b602083106110685780518252601f199092019160209182019101611049565b6001836020036101000a03801982511681845116808217855250505050505090500191505060405160208183030381529060405280519060200120815260200190815260200160002060006101000a81548160ff021916908315150217905550505050565b60716020526000908152604090205460ff1681565b6000610900606b8363ffffffff6115e016565b600054610100900460ff168061110e575061110e611407565b8061111c575060005460ff16155b6111575760405162461bcd60e51b815260040180806020018281038252602e815260200180611e15602e913960400191505060405180910390fd5b600054610100900460ff16158015611182576000805460ff1961ff0019909116610100171660011790555b6033805473ffffffffffffffffffffffffffffffffffffffff19166001600160a01b0384811691909117918290556040519116906000907f8be0079c531659141344cd1fd0a4f28419497f9722a3daafe3b4186f6b6457e0908290a380156111f0576000805461ff00191690555b5050565b6111fc610dc2565b61124d576040805162461bcd60e51b815260206004820181905260248201527f4f776e61626c653a2063616c6c6572206973206e6f7420746865206f776e6572604482015290519081900360640190fd5b610c4781611603565b6001600160a01b03166000908152600391909101602052604090205460ff1690565b6000826000016000836040516020018082805190602001908083835b602083106112b35780518252601f199092019160209182019101611294565b51815160209384036101000a60001901801990921691161790526040805192909401828103601f190183528452815191810191909120865285019590955292909201600020546001600160a01b03169695505050505050565b60006113188383611278565b905061132d600284018263ffffffff6116b116565b6000836000016000846040516020018082805190602001908083835b602083106113685780518252601f199092019160209182019101611349565b51815160209384036101000a60001901801990921691161790526040805192909401828103601f190183528452815191810191909120865285810196909652509283016000908120805473ffffffffffffffffffffffffffffffffffffffff19166001600160a01b039788161790558351808601808652828252968816825260018a019095529290922092516114019492509050611d56565b50505050565b303b1590565b600054610100900460ff16806114265750611426611407565b80611434575060005460ff16155b61146f5760405162461bcd60e51b815260040180806020018281038252602e815260200180611e15602e913960400191505060405180910390fd5b600054610100900460ff1615801561149a576000805460ff1961ff0019909116610100171660011790555b6114aa6114a56114be565b6110f5565b8015610c47576000805461ff001916905550565b3390565b6004015490565b60006114d58484611278565b90506001600160a01b038116156114ff576114fa60028501828463ffffffff61186a16565b611512565b611512600285018363ffffffff611ae816565b81846000016000856040516020018082805190602001908083835b6020831061154c5780518252601f19909201916020918201910161152d565b51815160209384036101000a60001901801990921691161790526040805192909401828103601f190183528452815191810191909120865285810196909652509283016000908120805473ffffffffffffffffffffffffffffffffffffffff19166001600160a01b039788161790559487168552505060018701825290912084516115d992860190611d56565b5050505050565b6001600160a01b0380821660009081526004840160205260409020541692915050565b6001600160a01b0381166116485760405162461bcd60e51b8152600401808060200182810382526026815260200180611def6026913960400191505060405180910390fd5b6033546040516001600160a01b038084169216907f8be0079c531659141344cd1fd0a4f28419497f9722a3daafe3b4186f6b6457e090600090a36033805473ffffffffffffffffffffffffffffffffffffffff19166001600160a01b0392909216919091179055565b6001600160a01b038116600090815260038301602052604090205460ff16611720576040805162461bcd60e51b815260206004820152601560248201527f4974656d206973206e6f7420636f6e7461696e65640000000000000000000000604482015290519081900360640190fd5b6001600160a01b038082166000908152600584016020908152604080832054600487019092529091205490821691168115611797576001600160a01b0382811660009081526004860160205260409020805473ffffffffffffffffffffffffffffffffffffffff19169183169190911790556117be565b835473ffffffffffffffffffffffffffffffffffffffff19166001600160a01b0382161784555b6001600160a01b0381161561180f576001600160a01b0381811660009081526005860160205260409020805473ffffffffffffffffffffffffffffffffffffffff191691841691909117905561183a565b60018401805473ffffffffffffffffffffffffffffffffffffffff19166001600160a01b0384161790555b50506001600160a01b031660009081526003820160205260409020805460ff191690556002018054600019019055565b6001600160a01b038216600090815260038401602052604090205460ff166118d9576040805162461bcd60e51b815260206004820152601960248201527f4f6c6420656c656d656e74206e6f7420636f6e7461696e656400000000000000604482015290519081900360640190fd5b6001600160a01b038116600090815260038401602052604090205460ff1615611949576040805162461bcd60e51b815260206004820181905260248201527f4e657720656c656d656e7420697320616c726561647920636f6e7461696e6564604482015290519081900360640190fd5b6001600160a01b0380831660009081526005850160209081526040808320546004880190925290912054908216911681156119c0576001600160a01b0382811660009081526004870160205260409020805473ffffffffffffffffffffffffffffffffffffffff19169185169190911790556119e7565b845473ffffffffffffffffffffffffffffffffffffffff19166001600160a01b0384161785555b6001600160a01b03811615611a38576001600160a01b0381811660009081526005870160205260409020805473ffffffffffffffffffffffffffffffffffffffff1916918516919091179055611a63565b60018501805473ffffffffffffffffffffffffffffffffffffffff19166001600160a01b0385161790555b6001600160a01b0392831660008181526005870160209081526040808320805496881673ffffffffffffffffffffffffffffffffffffffff199788161790556004890182528083208054958816959096169490941790945594909316845260039094019052828220805460ff1990811690915590825291902080549091166001179055565b60018201546111f090839083906001600160a01b03166001600160a01b038216600090815260038401602052604090205460ff1615611b6e576040805162461bcd60e51b815260206004820181905260248201527f556e61626c6520746f20636f6e7461696e20646f75626c6520656c656d656e74604482015290519081900360640190fd5b82546001600160a01b0316611bb6576001830180546001600160a01b03841673ffffffffffffffffffffffffffffffffffffffff199182168117909255845416178355611d20565b6001600160a01b038116600090815260038401602052604090205460ff16611c25576040805162461bcd60e51b815260206004820152601b60248201527f417070656e6420746172676574206e6f7420636f6e7461696e65640000000000604482015290519081900360640190fd5b6001600160a01b038082166000908152600485016020526040902054168015611c8a576001600160a01b0381811660009081526005860160205260409020805473ffffffffffffffffffffffffffffffffffffffff1916918516919091179055611cb5565b60018401805473ffffffffffffffffffffffffffffffffffffffff19166001600160a01b0385161790555b6001600160a01b03808316600081815260048701602081815260408084208054878b1673ffffffffffffffffffffffffffffffffffffffff19918216811790925590855260058b01835281852080548216909617909555919052902080549390921692169190911790555b506001600160a01b031660009081526003820160205260409020805460ff19166001908117909155600290910180549091019055565b828054600181600116156101000203166002900490600052602060002090601f016020900481019282601f10611d9757805160ff1916838001178555611dc4565b82800160010185558215611dc4579182015b82811115611dc4578251825591602001919060010190611da9565b50611dd0929150611dd4565b5090565b6107ee91905b80821115611dd05760008155600101611dda56fe4f776e61626c653a206e6577206f776e657220697320746865207a65726f2061646472657373436f6e747261637420696e7374616e63652068617320616c7265616479206265656e20696e697469616c697a6564506f6f6c3a206d6f64756c6520616464726573732063616e206e6f74206265207265706c61636564a265627a7a72315820cdd7413489becab2051ef37bcd29f30ef46d5ca6225419516a39213da7d2bf9b64736f6c63430005110032",
  "source": "pragma solidity ^0.5.12;\n\nimport \"../common/Base.sol\";\nimport \"../interfaces/core/CoreInterface.sol\";\nimport \"../utils/AddressMap.sol\";\n\ncontract Pool is Base, CoreInterface {\n\n    /* Short description */\n    string  public name;\n    string  public description;\n    address public founder;\n\n    /* Modules map */\n    AddressMap.Data modules;\n\n    using AddressList for AddressList.Data;\n    using AddressMap for AddressMap.Data;\n\n    /* Module constant mapping */\n    mapping(bytes32 => bool) public is_constant;\n\n    /**\n     * @dev Contract ABI storage\n     *      the contract interface contains source URI\n     */\n    mapping(address => string) public abiOf;\n    \n    function initialize() public initializer {\n        Base.initialize();\n        founder = _msgSender();\n    }\n\n    function setMetadata(string memory _name, string  memory _description) public onlyOwner {\n        name = _name;\n        description = _description;\n    }\n      \n    /**\n     * @dev Set new module for given name\n     * @param _name infrastructure node name\n     * @param _module infrastructure node address\n     * @param _constant have a `true` value when you create permanent name of module\n     */\n    function set(string memory _name, address _module, bool _constant) public onlyOwner {\n        \n        require(!isConstant(_name), \"Pool: module address can not be replaced\");\n\n        // Notify\n        if (modules.get(_name) != ZERO_ADDRESS)\n            emit ModuleReplaced(_name, modules.get(_name), _module);\n        else\n            emit ModuleAdded(_name, _module);\n \n        // Set module in the map\n        modules.set(_name, _module);\n\n        // Register constant flag \n        is_constant[keccak256(abi.encodePacked(_name))] = _constant;\n    }\n\n     /**\n     * @dev Remove module by name\n     * @param _name module name\n     */\n    function remove(string memory _name)  public onlyOwner {\n        require(!isConstant(_name), \"Pool: module can not be removed\");\n\n        // Notify\n        emit ModuleRemoved(_name, modules.get(_name));\n\n        // Remove module\n        modules.remove(_name);\n    }\n\n    /**\n     * @dev Fast module exist check\n     * @param _module is a module address\n     * @return `true` wnen core contains module\n     */\n    function contains(address _module) public view returns (bool)\n    {\n        return modules.items.contains(_module);\n    }\n\n    /**\n     * @dev Modules counter\n     * @return count of modules in core\n     */\n    function size() public view returns (uint)\n    {\n        return modules.size();\n    }\n\n    /**\n     * @dev Check for module have permanent name\n     * @param _name is a module name\n     * @return `true` when module have permanent name\n     */\n    function isConstant(string memory _name) public view returns (bool)\n    {\n        return is_constant[keccak256(abi.encodePacked(_name))];\n    }\n\n    /**\n     * @dev Get module by name\n     * @param _name is module name\n     * @return module address\n     */\n    function get(string memory _name) public view returns (address)\n    {\n        return modules.get(_name);\n    }\n\n    /**\n     * @dev Get module name by address\n     * @param _module is a module address\n     * @return module name\n     */\n    function getName(address _module) public view returns (string memory)\n    {\n        return modules.keyOf[_module];\n    }\n\n    /**\n     * @dev Get first module\n     * @return first address\n     */\n    function first() public view returns (address)\n    {\n        return modules.items.head;\n    }\n\n    /**\n     * @dev Get next module\n     * @param _current is an current address\n     * @return next address\n     */\n    function next(address _current) public view returns (address)\n    {\n        return modules.items.next(_current);\n    }\n\n}\n",
  "sourcePath": "/Users/ilya/Documents/Akropolis/dca-strategy-bot/contracts/core/Pool.sol",
  "compiler": {
    "name": "solc",
    "version": "0.5.17+commit.d19bba13.Emscripten.clang"
  },
  "schemaVersion": "3.2.3",
  "updatedAt": "2020-08-07T11:30:42.837Z",
  "devdoc": {
    "methods": {
      "contains(address)": {
        "details": "Fast module exist check",
        "params": {
          "_module": "is a module address"
        },
        "return": "`true` wnen core contains module"
      },
      "first()": {
        "details": "Get first module",
        "return": "first address"
      },
      "get(string)": {
        "details": "Get module by name",
        "params": {
          "_name": "is module name"
        },
        "return": "module address"
      },
      "getName(address)": {
        "details": "Get module name by address",
        "params": {
          "_module": "is a module address"
        },
        "return": "module name"
      },
      "initialize(address)": {
        "details": "Initializes the contract setting the deployer as the initial owner."
      },
      "isConstant(string)": {
        "details": "Check for module have permanent name",
        "params": {
          "_name": "is a module name"
        },
        "return": "`true` when module have permanent name"
      },
      "isOwner()": {
        "details": "Returns true if the caller is the current owner."
      },
      "next(address)": {
        "details": "Get next module",
        "params": {
          "_current": "is an current address"
        },
        "return": "next address"
      },
      "owner()": {
        "details": "Returns the address of the current owner."
      },
      "remove(string)": {
        "details": "Remove module by name",
        "params": {
          "_name": "module name"
        }
      },
      "renounceOwnership()": {
        "details": "Leaves the contract without owner. It will not be possible to call `onlyOwner` functions anymore. Can only be called by the current owner.     * > Note: Renouncing ownership will leave the contract without an owner, thereby removing any functionality that is only available to the owner."
      },
      "set(string,address,bool)": {
        "details": "Set new module for given name",
        "params": {
          "_constant": "have a `true` value when you create permanent name of module",
          "_module": "infrastructure node address",
          "_name": "infrastructure node name"
        }
      },
      "size()": {
        "details": "Modules counter",
        "return": "count of modules in core"
      },
      "transferOwnership(address)": {
        "details": "Transfers ownership of the contract to a new account (`newOwner`). Can only be called by the current owner."
      }
    }
  },
  "userdoc": {
    "methods": {}
  }
}