{
  "contractName": "PoolToken",
  "abi": [
    {
      "anonymous": false,
      "inputs": [
        {
          "indexed": true,
          "internalType": "address",
          "name": "owner",
          "type": "address"
        },
        {
          "indexed": true,
          "internalType": "address",
          "name": "spender",
          "type": "address"
        },
        {
          "indexed": false,
          "internalType": "uint256",
          "name": "value",
          "type": "uint256"
        }
      ],
      "name": "Approval",
      "type": "event"
    },
    {
      "anonymous": false,
      "inputs": [
        {
          "indexed": false,
          "internalType": "uint256",
          "name": "amount",
          "type": "uint256"
        }
      ],
      "name": "DistributionAccumulatorIncreased",
      "type": "event"
    },
    {
      "anonymous": false,
      "inputs": [
        {
          "indexed": false,
          "internalType": "uint256",
          "name": "amount",
          "type": "uint256"
        },
        {
          "indexed": false,
          "internalType": "uint256",
          "name": "totalSupply",
          "type": "uint256"
        }
      ],
      "name": "DistributionCreated",
      "type": "event"
    },
    {
      "anonymous": false,
      "inputs": [
        {
          "indexed": false,
          "internalType": "address",
          "name": "account",
          "type": "address"
        },
        {
          "indexed": false,
          "internalType": "uint256",
          "name": "amount",
          "type": "uint256"
        },
        {
          "indexed": false,
          "internalType": "uint256",
          "name": "fromDistribution",
          "type": "uint256"
        },
        {
          "indexed": false,
          "internalType": "uint256",
          "name": "toDistribution",
          "type": "uint256"
        }
      ],
      "name": "DistributionsClaimed",
      "type": "event"
    },
    {
      "anonymous": false,
      "inputs": [
        {
          "indexed": true,
          "internalType": "address",
          "name": "account",
          "type": "address"
        }
      ],
      "name": "MinterAdded",
      "type": "event"
    },
    {
      "anonymous": false,
      "inputs": [
        {
          "indexed": true,
          "internalType": "address",
          "name": "account",
          "type": "address"
        }
      ],
      "name": "MinterRemoved",
      "type": "event"
    },
    {
      "anonymous": false,
      "inputs": [
        {
          "indexed": true,
          "internalType": "address",
          "name": "previousOwner",
          "type": "address"
        },
        {
          "indexed": true,
          "internalType": "address",
          "name": "newOwner",
          "type": "address"
        }
      ],
      "name": "OwnershipTransferred",
      "type": "event"
    },
    {
      "anonymous": false,
      "inputs": [
        {
          "indexed": false,
          "internalType": "address",
          "name": "newPool",
          "type": "address"
        }
      ],
      "name": "PoolAddressChanged",
      "type": "event"
    },
    {
      "anonymous": false,
      "inputs": [
        {
          "indexed": true,
          "internalType": "address",
          "name": "from",
          "type": "address"
        },
        {
          "indexed": true,
          "internalType": "address",
          "name": "to",
          "type": "address"
        },
        {
          "indexed": false,
          "internalType": "uint256",
          "name": "value",
          "type": "uint256"
        }
      ],
      "name": "Transfer",
      "type": "event"
    },
    {
      "constant": true,
      "inputs": [],
      "name": "DISTRIBUTION_AGGREGATION_PERIOD",
      "outputs": [
        {
          "internalType": "uint256",
          "name": "",
          "type": "uint256"
        }
      ],
      "payable": false,
      "stateMutability": "view",
      "type": "function"
    },
    {
      "constant": false,
      "inputs": [
        {
          "internalType": "address",
          "name": "account",
          "type": "address"
        }
      ],
      "name": "addMinter",
      "outputs": [],
      "payable": false,
      "stateMutability": "nonpayable",
      "type": "function"
    },
    {
      "constant": true,
      "inputs": [
        {
          "internalType": "address",
          "name": "owner",
          "type": "address"
        },
        {
          "internalType": "address",
          "name": "spender",
          "type": "address"
        }
      ],
      "name": "allowance",
      "outputs": [
        {
          "internalType": "uint256",
          "name": "",
          "type": "uint256"
        }
      ],
      "payable": false,
      "stateMutability": "view",
      "type": "function"
    },
    {
      "constant": false,
      "inputs": [
        {
          "internalType": "address",
          "name": "spender",
          "type": "address"
        },
        {
          "internalType": "uint256",
          "name": "amount",
          "type": "uint256"
        }
      ],
      "name": "approve",
      "outputs": [
        {
          "internalType": "bool",
          "name": "",
          "type": "bool"
        }
      ],
      "payable": false,
      "stateMutability": "nonpayable",
      "type": "function"
    },
    {
      "constant": true,
      "inputs": [
        {
          "internalType": "address",
          "name": "account",
          "type": "address"
        }
      ],
      "name": "balanceOf",
      "outputs": [
        {
          "internalType": "uint256",
          "name": "",
          "type": "uint256"
        }
      ],
      "payable": false,
      "stateMutability": "view",
      "type": "function"
    },
    {
      "constant": false,
      "inputs": [
        {
          "internalType": "uint256",
          "name": "amount",
          "type": "uint256"
        }
      ],
      "name": "burn",
      "outputs": [],
      "payable": false,
      "stateMutability": "nonpayable",
      "type": "function"
    },
    {
      "constant": true,
      "inputs": [
        {
          "internalType": "uint256",
          "name": "fromDistribution",
          "type": "uint256"
        },
        {
          "internalType": "uint256",
          "name": "toDistribution",
          "type": "uint256"
        },
        {
          "internalType": "uint256",
          "name": "initialBalance",
          "type": "uint256"
        }
      ],
      "name": "calculateDistributedAmount",
      "outputs": [
        {
          "internalType": "uint256",
          "name": "",
          "type": "uint256"
        }
      ],
      "payable": false,
      "stateMutability": "view",
      "type": "function"
    },
    {
      "constant": true,
      "inputs": [
        {
          "internalType": "address",
          "name": "account",
          "type": "address"
        }
      ],
      "name": "calculateUnclaimedDistributions",
      "outputs": [
        {
          "internalType": "uint256",
          "name": "",
          "type": "uint256"
        }
      ],
      "payable": false,
      "stateMutability": "view",
      "type": "function"
    },
    {
      "constant": false,
      "inputs": [
        {
          "internalType": "address",
          "name": "account",
          "type": "address"
        }
      ],
      "name": "claimDistributions",
      "outputs": [
        {
          "internalType": "uint256",
          "name": "",
          "type": "uint256"
        }
      ],
      "payable": false,
      "stateMutability": "nonpayable",
      "type": "function"
    },
    {
      "constant": false,
      "inputs": [
        {
          "internalType": "address[]",
          "name": "accounts",
          "type": "address[]"
        },
        {
          "internalType": "uint256",
          "name": "toDistribution",
          "type": "uint256"
        }
      ],
      "name": "claimDistributions",
      "outputs": [],
      "payable": false,
      "stateMutability": "nonpayable",
      "type": "function"
    },
    {
      "constant": false,
      "inputs": [
        {
          "internalType": "address[]",
          "name": "accounts",
          "type": "address[]"
        }
      ],
      "name": "claimDistributions",
      "outputs": [],
      "payable": false,
      "stateMutability": "nonpayable",
      "type": "function"
    },
    {
      "constant": false,
      "inputs": [
        {
          "internalType": "address",
          "name": "account",
          "type": "address"
        },
        {
          "internalType": "uint256",
          "name": "toDistribution",
          "type": "uint256"
        }
      ],
      "name": "claimDistributions",
      "outputs": [
        {
          "internalType": "uint256",
          "name": "",
          "type": "uint256"
        }
      ],
      "payable": false,
      "stateMutability": "nonpayable",
      "type": "function"
    },
    {
      "constant": false,
      "inputs": [],
      "name": "createDistribution",
      "outputs": [],
      "payable": false,
      "stateMutability": "nonpayable",
      "type": "function"
    },
    {
      "constant": true,
      "inputs": [],
      "name": "decimals",
      "outputs": [
        {
          "internalType": "uint8",
          "name": "",
          "type": "uint8"
        }
      ],
      "payable": false,
      "stateMutability": "view",
      "type": "function"
    },
    {
      "constant": false,
      "inputs": [
        {
          "internalType": "address",
          "name": "spender",
          "type": "address"
        },
        {
          "internalType": "uint256",
          "name": "subtractedValue",
          "type": "uint256"
        }
      ],
      "name": "decreaseAllowance",
      "outputs": [
        {
          "internalType": "bool",
          "name": "",
          "type": "bool"
        }
      ],
      "payable": false,
      "stateMutability": "nonpayable",
      "type": "function"
    },
    {
      "constant": false,
      "inputs": [
        {
          "internalType": "uint256",
          "name": "amount",
          "type": "uint256"
        }
      ],
      "name": "distribute",
      "outputs": [],
      "payable": false,
      "stateMutability": "nonpayable",
      "type": "function"
    },
    {
      "constant": true,
      "inputs": [],
      "name": "distributionAccumulator",
      "outputs": [
        {
          "internalType": "uint256",
          "name": "",
          "type": "uint256"
        }
      ],
      "payable": false,
      "stateMutability": "view",
      "type": "function"
    },
    {
      "constant": true,
      "inputs": [
        {
          "internalType": "address",
          "name": "account",
          "type": "address"
        }
      ],
      "name": "distributionBalanceOf",
      "outputs": [
        {
          "internalType": "uint256",
          "name": "",
          "type": "uint256"
        }
      ],
      "payable": false,
      "stateMutability": "view",
      "type": "function"
    },
    {
      "constant": true,
      "inputs": [],
      "name": "distributionTotalSupply",
      "outputs": [
        {
          "internalType": "uint256",
          "name": "",
          "type": "uint256"
        }
      ],
      "payable": false,
      "stateMutability": "view",
      "type": "function"
    },
    {
      "constant": true,
      "inputs": [
        {
          "internalType": "uint256",
          "name": "",
          "type": "uint256"
        }
      ],
      "name": "distributions",
      "outputs": [
        {
          "internalType": "uint256",
          "name": "amount",
          "type": "uint256"
        },
        {
          "internalType": "uint256",
          "name": "totalSupply",
          "type": "uint256"
        }
      ],
      "payable": false,
      "stateMutability": "view",
      "type": "function"
    },
    {
      "constant": true,
      "inputs": [
        {
          "internalType": "address",
          "name": "account",
          "type": "address"
        }
      ],
      "name": "fullBalanceOf",
      "outputs": [
        {
          "internalType": "uint256",
          "name": "",
          "type": "uint256"
        }
      ],
      "payable": false,
      "stateMutability": "view",
      "type": "function"
    },
    {
      "constant": true,
      "inputs": [
        {
          "internalType": "string",
          "name": "module",
          "type": "string"
        }
      ],
      "name": "getModuleAddress",
      "outputs": [
        {
          "internalType": "address",
          "name": "",
          "type": "address"
        }
      ],
      "payable": false,
      "stateMutability": "view",
      "type": "function"
    },
    {
      "constant": false,
      "inputs": [
        {
          "internalType": "address",
          "name": "spender",
          "type": "address"
        },
        {
          "internalType": "uint256",
          "name": "addedValue",
          "type": "uint256"
        }
      ],
      "name": "increaseAllowance",
      "outputs": [
        {
          "internalType": "bool",
          "name": "",
          "type": "bool"
        }
      ],
      "payable": false,
      "stateMutability": "nonpayable",
      "type": "function"
    },
    {
      "constant": true,
      "inputs": [
        {
          "internalType": "address",
          "name": "account",
          "type": "address"
        }
      ],
      "name": "isMinter",
      "outputs": [
        {
          "internalType": "bool",
          "name": "",
          "type": "bool"
        }
      ],
      "payable": false,
      "stateMutability": "view",
      "type": "function"
    },
    {
      "constant": true,
      "inputs": [],
      "name": "isOwner",
      "outputs": [
        {
          "internalType": "bool",
          "name": "",
          "type": "bool"
        }
      ],
      "payable": false,
      "stateMutability": "view",
      "type": "function"
    },
    {
      "constant": false,
      "inputs": [
        {
          "internalType": "address",
          "name": "account",
          "type": "address"
        },
        {
          "internalType": "uint256",
          "name": "amount",
          "type": "uint256"
        }
      ],
      "name": "mint",
      "outputs": [
        {
          "internalType": "bool",
          "name": "",
          "type": "bool"
        }
      ],
      "payable": false,
      "stateMutability": "nonpayable",
      "type": "function"
    },
    {
      "constant": true,
      "inputs": [],
      "name": "name",
      "outputs": [
        {
          "internalType": "string",
          "name": "",
          "type": "string"
        }
      ],
      "payable": false,
      "stateMutability": "view",
      "type": "function"
    },
    {
      "constant": true,
      "inputs": [],
      "name": "nextDistribution",
      "outputs": [
        {
          "internalType": "uint256",
          "name": "",
          "type": "uint256"
        }
      ],
      "payable": false,
      "stateMutability": "view",
      "type": "function"
    },
    {
      "constant": true,
      "inputs": [],
      "name": "nextDistributionTimestamp",
      "outputs": [
        {
          "internalType": "uint256",
          "name": "",
          "type": "uint256"
        }
      ],
      "payable": false,
      "stateMutability": "view",
      "type": "function"
    },
    {
      "constant": true,
      "inputs": [
        {
          "internalType": "address",
          "name": "",
          "type": "address"
        }
      ],
      "name": "nextDistributions",
      "outputs": [
        {
          "internalType": "uint256",
          "name": "",
          "type": "uint256"
        }
      ],
      "payable": false,
      "stateMutability": "view",
      "type": "function"
    },
    {
      "constant": true,
      "inputs": [],
      "name": "owner",
      "outputs": [
        {
          "internalType": "address",
          "name": "",
          "type": "address"
        }
      ],
      "payable": false,
      "stateMutability": "view",
      "type": "function"
    },
    {
      "constant": true,
      "inputs": [],
      "name": "pool",
      "outputs": [
        {
          "internalType": "address",
          "name": "",
          "type": "address"
        }
      ],
      "payable": false,
      "stateMutability": "view",
      "type": "function"
    },
    {
      "constant": false,
      "inputs": [],
      "name": "renounceMinter",
      "outputs": [],
      "payable": false,
      "stateMutability": "nonpayable",
      "type": "function"
    },
    {
      "constant": false,
      "inputs": [],
      "name": "renounceOwnership",
      "outputs": [],
      "payable": false,
      "stateMutability": "nonpayable",
      "type": "function"
    },
    {
      "constant": false,
      "inputs": [
        {
          "internalType": "address",
          "name": "_pool",
          "type": "address"
        }
      ],
      "name": "setPool",
      "outputs": [],
      "payable": false,
      "stateMutability": "nonpayable",
      "type": "function"
    },
    {
      "constant": true,
      "inputs": [],
      "name": "symbol",
      "outputs": [
        {
          "internalType": "string",
          "name": "",
          "type": "string"
        }
      ],
      "payable": false,
      "stateMutability": "view",
      "type": "function"
    },
    {
      "constant": true,
      "inputs": [],
      "name": "totalSupply",
      "outputs": [
        {
          "internalType": "uint256",
          "name": "",
          "type": "uint256"
        }
      ],
      "payable": false,
      "stateMutability": "view",
      "type": "function"
    },
    {
      "constant": false,
      "inputs": [
        {
          "internalType": "address",
          "name": "recipient",
          "type": "address"
        },
        {
          "internalType": "uint256",
          "name": "amount",
          "type": "uint256"
        }
      ],
      "name": "transfer",
      "outputs": [
        {
          "internalType": "bool",
          "name": "",
          "type": "bool"
        }
      ],
      "payable": false,
      "stateMutability": "nonpayable",
      "type": "function"
    },
    {
      "constant": false,
      "inputs": [
        {
          "internalType": "address",
          "name": "newOwner",
          "type": "address"
        }
      ],
      "name": "transferOwnership",
      "outputs": [],
      "payable": false,
      "stateMutability": "nonpayable",
      "type": "function"
    },
    {
      "constant": false,
      "inputs": [
        {
          "internalType": "string",
          "name": "name",
          "type": "string"
        },
        {
          "internalType": "string",
          "name": "symbol",
          "type": "string"
        },
        {
          "internalType": "uint8",
          "name": "decimals",
          "type": "uint8"
        }
      ],
      "name": "initialize",
      "outputs": [],
      "payable": false,
      "stateMutability": "nonpayable",
      "type": "function"
    },
    {
      "constant": false,
      "inputs": [],
      "name": "initialize",
      "outputs": [],
      "payable": false,
      "stateMutability": "nonpayable",
      "type": "function"
    },
    {
      "constant": false,
      "inputs": [
        {
          "internalType": "address",
          "name": "_pool",
          "type": "address"
        },
        {
          "internalType": "string",
          "name": "poolName",
          "type": "string"
        },
        {
          "internalType": "string",
          "name": "poolSymbol",
          "type": "string"
        }
      ],
      "name": "initialize",
      "outputs": [],
      "payable": false,
      "stateMutability": "nonpayable",
      "type": "function"
    },
    {
      "constant": false,
      "inputs": [
        {
          "internalType": "address",
          "name": "sender",
          "type": "address"
        }
      ],
      "name": "initialize",
      "outputs": [],
      "payable": false,
      "stateMutability": "nonpayable",
      "type": "function"
    },
    {
      "constant": false,
      "inputs": [
        {
          "internalType": "address",
          "name": "from",
          "type": "address"
        },
        {
          "internalType": "address",
          "name": "to",
          "type": "address"
        },
        {
          "internalType": "uint256",
          "name": "value",
          "type": "uint256"
        }
      ],
      "name": "transferFrom",
      "outputs": [
        {
          "internalType": "bool",
          "name": "",
          "type": "bool"
        }
      ],
      "payable": false,
      "stateMutability": "nonpayable",
      "type": "function"
    },
    {
      "constant": false,
      "inputs": [
        {
          "internalType": "address",
          "name": "account",
          "type": "address"
        },
        {
          "internalType": "uint256",
          "name": "amount",
          "type": "uint256"
        }
      ],
      "name": "burnFrom",
      "outputs": [],
      "payable": false,
      "stateMutability": "nonpayable",
      "type": "function"
    }
  ],
  "bytecode": "0x60806040526131d2806100136000396000f3fe608060405234801561001057600080fd5b50600436106102ff5760003560e01c806379cc67901161019c578063a9059cbb116100ee578063d08153fd11610097578063e6b1474411610071578063e6b1474414610be5578063f238cd2214610bed578063f2fde38b14610bf5576102ff565b8063d08153fd14610b83578063d63b500414610baf578063dd62ed3e14610bb7576102ff565b8063c2a6d891116100c8578063c2a6d89114610ae5578063c4d66de814610b55578063ce3e4dd214610b7b576102ff565b8063a9059cbb14610a23578063aa271e1a14610a4f578063c12460f414610a75576102ff565b80639065714711610150578063983b2d561161012a578063983b2d56146109c957806398650275146109ef578063a457c2d7146109f7576102ff565b8063906571471461086757806391c05b0b146109a457806395d89b41146109c1576102ff565b80638129fc1c116101815780638129fc1c1461084f5780638da5cb5b146108575780638f32d59b1461085f576102ff565b806379cc6790146107fa5780637f4442e914610826576102ff565b806340c10f191161025557806360b6364811610209578063715018a6116101e3578063715018a61461072657806371dc760f1461072e578063780fa8cf146107d4576102ff565b806360b63648146106b457806370898f78146106da57806370a0823114610700576102ff565b80634437152a1161023a5780634437152a146106325780634487d3df1461065857806358b5dd721461068e576102ff565b806340c10f19146105e957806342966c6814610615576102ff565b80631d4ba2d2116102b7578063313ce56711610291578063313ce5671461059757806338b0789d146105b557806339509351146105bd576102ff565b80631d4ba2d21461053357806323b872dd1461055957806329b05c6f1461058f576102ff565b80631624f6c6116102e85780631624f6c6146103c157806316f0115b146104f557806318160ddd14610519576102ff565b806306fdde0314610304578063095ea7b314610381575b600080fd5b61030c610c1b565b6040805160208082528351818301528351919283929083019185019080838360005b8381101561034657818101518382015260200161032e565b50505050905090810190601f1680156103735780820380516001836020036101000a031916815260200191505b509250505060405180910390f35b6103ad6004803603604081101561039757600080fd5b506001600160a01b038135169060200135610cd0565b604080519115158252519081900360200190f35b6104f3600480360360608110156103d757600080fd5b8101906020810181356401000000008111156103f257600080fd5b82018360208201111561040457600080fd5b8035906020019184600183028401116401000000008311171561042657600080fd5b91908080601f016020809104026020016040519081016040528093929190818152602001838380828437600092019190915250929594936020810193503591505064010000000081111561047957600080fd5b82018360208201111561048b57600080fd5b803590602001918460018302840111640100000000831117156104ad57600080fd5b91908080601f0160208091040260200160405190810160405280939291908181526020018383808284376000920191909152509295505050903560ff169150610cee9050565b005b6104fd610dca565b604080516001600160a01b039092168252519081900360200190f35b610521610dd9565b60408051918252519081900360200190f35b6105216004803603602081101561054957600080fd5b50356001600160a01b0316610ddf565b6103ad6004803603606081101561056f57600080fd5b506001600160a01b03813581169160208101359091169060400135610df2565b610521610e81565b61059f610e90565b6040805160ff9092168252519081900360200190f35b610521610e99565b6103ad600480360360408110156105d357600080fd5b506001600160a01b038135169060200135610ea0565b6103ad600480360360408110156105ff57600080fd5b506001600160a01b038135169060200135610ef9565b6104f36004803603602081101561062b57600080fd5b5035610f50565b6104f36004803603602081101561064857600080fd5b50356001600160a01b0316610f64565b6106756004803603602081101561066e57600080fd5b503561106e565b6040805192835260208301919091528051918290030190f35b610521600480360360208110156106a457600080fd5b50356001600160a01b031661109a565b610521600480360360208110156106ca57600080fd5b50356001600160a01b03166110e7565b610521600480360360208110156106f057600080fd5b50356001600160a01b0316611114565b6105216004803603602081101561071657600080fd5b50356001600160a01b0316611127565b6104f3611142565b6104fd6004803603602081101561074457600080fd5b81019060208101813564010000000081111561075f57600080fd5b82018360208201111561077157600080fd5b8035906020019184600183028401116401000000008311171561079357600080fd5b91908080601f0160208091040260200160405190810160405280939291908181526020018383808284376000920191909152509295506111fd945050505050565b610521600480360360208110156107ea57600080fd5b50356001600160a01b0316611478565b6104f36004803603604081101561081057600080fd5b506001600160a01b038135169060200135611483565b6105216004803603606081101561083c57600080fd5b5080359060208101359060400135611504565b6104f3611591565b6104fd611642565b6103ad611651565b6104f36004803603606081101561087d57600080fd5b6001600160a01b0382351691908101906040810160208201356401000000008111156108a857600080fd5b8201836020820111156108ba57600080fd5b803590602001918460018302840111640100000000831117156108dc57600080fd5b91908080601f016020809104026020016040519081016040528093929190818152602001838380828437600092019190915250929594936020810193503591505064010000000081111561092f57600080fd5b82018360208201111561094157600080fd5b8035906020019184600183028401116401000000008311171561096357600080fd5b91908080601f016020809104026020016040519081016040528093929190818152602001838380828437600092019190915250929550611677945050505050565b6104f3600480360360208110156109ba57600080fd5b5035611740565b61030c6117d9565b6104f3600480360360208110156109df57600080fd5b50356001600160a01b0316611858565b6104f36118a7565b6103ad60048036036040811015610a0d57600080fd5b506001600160a01b0381351690602001356118b9565b6103ad60048036036040811015610a3957600080fd5b506001600160a01b038135169060200135611927565b6103ad60048036036020811015610a6557600080fd5b50356001600160a01b031661193b565b6104f360048036036040811015610a8b57600080fd5b810190602081018135640100000000811115610aa657600080fd5b820183602082011115610ab857600080fd5b80359060200191846020830284011164010000000083111715610ada57600080fd5b91935091503561194e565b6104f360048036036020811015610afb57600080fd5b810190602081018135640100000000811115610b1657600080fd5b820183602082011115610b2857600080fd5b80359060200191846020830284011164010000000083111715610b4a57600080fd5b5090925090506119f7565b6104f360048036036020811015610b6b57600080fd5b50356001600160a01b0316611a57565b610521611b03565b61052160048036036040811015610b9957600080fd5b506001600160a01b038135169060200135611b0a565b610521611bc3565b61052160048036036040811015610bcd57600080fd5b506001600160a01b0381358116916020013516611bca565b6104f3611bf5565b610521611c85565b6104f360048036036020811015610c0b57600080fd5b50356001600160a01b0316611c8c565b609c8054604080516020601f60027fffffffffffffffffffffffffffffffffffffffffffffffffffffffffffffffff610100600188161502019095169490940493840181900481028201810190925282815260609390929091830182828015610cc55780601f10610c9a57610100808354040283529160200191610cc5565b820191906000526020600020905b815481529060010190602001808311610ca857829003601f168201915b505050505090505b90565b6000610ce4610cdd611cee565b8484611cf2565b5060015b92915050565b600054610100900460ff1680610d075750610d07611dde565b80610d15575060005460ff16155b610d505760405162461bcd60e51b815260040180806020018281038252602e815260200180612fea602e913960400191505060405180910390fd5b600054610100900460ff16158015610d7b576000805460ff1961ff0019909116610100171660011790555b8351610d8e90609c906020870190612d91565b508251610da290609d906020860190612d91565b50609e805460ff191660ff84161790558015610dc4576000805461ff00191690555b50505050565b6066546001600160a01b031681565b60695490565b6000610dea82611de4565b90505b919050565b600080610e336040518060400160405280600781526020017f736176696e6773000000000000000000000000000000000000000000000000008152506111fd565b9050806001600160a01b0316610e47611cee565b6001600160a01b03161415610e6b57610e61858585611e20565b6001915050610e7a565b610e76858585611e59565b9150505b9392505050565b6000610e8b610dd9565b905090565b609e5460ff1690565b6101685490565b6000610ce4610ead611cee565b84610ef48560686000610ebe611cee565b6001600160a01b03908116825260208083019390935260409182016000908120918c16815292529020549063ffffffff611ee116565b611cf2565b6000610f0b610f06611cee565b61193b565b610f465760405162461bcd60e51b8152600401808060200182810382526030815260200180612f2e6030913960400191505060405180910390fd5b610ce48383611f3b565b610f61610f5b611cee565b82611f60565b50565b610f6c611651565b610fbd576040805162461bcd60e51b815260206004820181905260248201527f4f776e61626c653a2063616c6c6572206973206e6f7420746865206f776e6572604482015290519081900360640190fd5b6001600160a01b0381166110025760405162461bcd60e51b8152600401808060200182810382526022815260200180612f0c6022913960400191505060405180910390fd5b606680546001600160a01b0383167fffffffffffffffffffffffff0000000000000000000000000000000000000000909116811790915560408051918252517f5b36800c27524690807962bd42525a44e68b3f860e8f9e0204f27e777d2f46059181900360200190a150565b610168818154811061107c57fe5b60009182526020909120600290910201805460019091015490915082565b60006001600160a01b0382163014156110b557506000610ded565b60006110c083611478565b905060006110cd84611de4565b90506110df828263ffffffff611ee116565b949350505050565b60006110f1611f7c565b60006111038361016880549050611f8d565b90508015610dea57610dea83612055565b6101696020526000908152604090205481565b6001600160a01b031660009081526067602052604090205490565b61114a611651565b61119b576040805162461bcd60e51b815260206004820181905260248201527f4f776e61626c653a2063616c6c6572206973206e6f7420746865206f776e6572604482015290519081900360640190fd5b6033546040516000916001600160a01b0316907f8be0079c531659141344cd1fd0a4f28419497f9722a3daafe3b4186f6b6457e0908390a3603380547fffffffffffffffffffffffff0000000000000000000000000000000000000000169055565b6066546000906001600160a01b031661125d576040805162461bcd60e51b815260206004820152600f60248201527f4d6f64756c653a206e6f20706f6f6c0000000000000000000000000000000000604482015290519081900360640190fd5b6066546040516020602482018181528551604484015285516000946060946001600160a01b03909116938893928392606401918501908083838b5b838110156112b0578181015183820152602001611298565b50505050905090810190601f1680156112dd5780820380516001836020036101000a031916815260200191505b50604080517fffffffffffffffffffffffffffffffffffffffffffffffffffffffffffffffe08184030181529181526020820180517bffffffffffffffffffffffffffffffffffffffffffffffffffffffff167f693ec85e00000000000000000000000000000000000000000000000000000000178152905182519295509350839250908083835b602083106113a257805182527fffffffffffffffffffffffffffffffffffffffffffffffffffffffffffffffe09092019160209182019101611365565b6001836020036101000a038019825116818451168082178552505050505050905001915050600060405180830381855afa9150503d8060008114611402576040519150601f19603f3d011682016040523d82523d6000602084013e611407565b606091505b509150915081611418578060208201fd5b600081806020019051602081101561142f57600080fd5b505190506001600160a01b0381166110df5760405162461bcd60e51b81526004018080602001828103825260228152602001806130db6022913960400191505060405180910390fd5b6000610dea82611127565b60006114c36040518060400160405280600781526020017f736176696e6773000000000000000000000000000000000000000000000000008152506111fd565b9050806001600160a01b03166114d7611cee565b6001600160a01b031614156114f5576114f08383611f60565b6114ff565b6114ff838361210b565b505050565b60008284106115445760405162461bcd60e51b81526004018080602001828103825260308152602001806131216030913960400191505060405180910390fd5b610168548311156115865760405162461bcd60e51b815260040180806020018281038252602f815260200180612edd602f913960400191505060405180910390fd5b6110df848484612115565b600054610100900460ff16806115aa57506115aa611dde565b806115b8575060005460ff16155b6115f35760405162461bcd60e51b815260040180806020018281038252602e815260200180612fea602e913960400191505060405180910390fd5b600054610100900460ff1615801561161e576000805460ff1961ff0019909116610100171660011790555b61162e611629611cee565b6121cc565b8015610f61576000805461ff001916905550565b6033546001600160a01b031690565b6033546000906001600160a01b0316611668611cee565b6001600160a01b031614905090565b600054610100900460ff16806116905750611690611dde565b8061169e575060005460ff16155b6116d95760405162461bcd60e51b815260040180806020018281038252602e815260200180612fea602e913960400191505060405180910390fd5b600054610100900460ff16158015611704576000805460ff1961ff0019909116610100171660011790555b61170d846122d5565b61171983836012610cee565b611729611724611cee565b611a57565b8015610dc4576000805461ff001916905550505050565b61174b610f06611cee565b6117865760405162461bcd60e51b8152600401808060200182810382526030815260200180612f2e6030913960400191505060405180910390fd5b61016b5461179a908263ffffffff611ee116565b61016b556040805182815290517f28947a1b8cd1d9d78a7b045465f8a2fa6daa21bc522412d192a532aee396e9279181900360200190a1610f61611f7c565b609d8054604080516020601f60027fffffffffffffffffffffffffffffffffffffffffffffffffffffffffffffffff610100600188161502019095169490940493840181900481028201810190925282815260609390929091830182828015610cc55780601f10610c9a57610100808354040283529160200191610cc5565b611863610f06611cee565b61189e5760405162461bcd60e51b8152600401808060200182810382526030815260200180612f2e6030913960400191505060405180910390fd5b610f6181612373565b6118b76118b2611cee565b6123bb565b565b6000610ce46118c6611cee565b84610ef48560405180606001604052806025815260200161317960259139606860006118f0611cee565b6001600160a01b03908116825260208083019390935260409182016000908120918d1681529252902054919063ffffffff61240316565b6000610ce4611934611cee565b8484611e20565b6000610dea60d18363ffffffff61249a16565b610168548111156119905760405162461bcd60e51b815260040180806020018281038252602d8152602001806130ae602d913960400191505060405180910390fd5b60005b82811015610dc45760006119c28585848181106119ac57fe5b905060200201356001600160a01b031684611f8d565b905080156119ee576119ee8585848181106119d957fe5b905060200201356001600160a01b0316612055565b50600101611993565b6119ff611f7c565b60005b818110156114ff576000611a37848484818110611a1b57fe5b905060200201356001600160a01b031661016880549050611f8d565b90508015611a4e57611a4e8484848181106119d957fe5b50600101611a02565b600054610100900460ff1680611a705750611a70611dde565b80611a7e575060005460ff16155b611ab95760405162461bcd60e51b815260040180806020018281038252602e815260200180612fea602e913960400191505060405180910390fd5b600054610100900460ff16158015611ae4576000805460ff1961ff0019909116610100171660011790555b611aed82612501565b8015611aff576000805461ff00191690555b5050565b61016a5481565b61016854600090821115611b4f5760405162461bcd60e51b815260040180806020018281038252602d8152602001806130ae602d913960400191505060405180910390fd5b6001600160a01b038316600090815261016960205260409020548211611ba65760405162461bcd60e51b815260040180806020018281038252602c81526020018061303c602c913960400191505060405180910390fd5b6000611bb28484611f8d565b90508015610e7a57610e7a84612055565b61016b5481565b6001600160a01b03918216600090815260686020908152604080832093909416825291909152205490565b611c00610f06611cee565b611c3b5760405162461bcd60e51b8152600401808060200182810382526030815260200180612f2e6030913960400191505060405180910390fd5b600061016b5411611c7d5760405162461bcd60e51b81526004018080602001828103825260288152602001806131516028913960400191505060405180910390fd5b6118b76125a4565b6201518081565b611c94611651565b611ce5576040805162461bcd60e51b815260206004820181905260248201527f4f776e61626c653a2063616c6c6572206973206e6f7420746865206f776e6572604482015290519081900360640190fd5b610f61816126a5565b3390565b6001600160a01b038316611d375760405162461bcd60e51b81526004018080602001828103825260248152602001806130fd6024913960400191505060405180910390fd5b6001600160a01b038216611d7c5760405162461bcd60e51b8152600401808060200182810382526022815260200180612e956022913960400191505060405180910390fd5b6001600160a01b03808416600081815260686020908152604080832094871680845294825291829020859055815185815291517f8c5be1e5ebec7d5bd14f71427d1e84f3dd0314c0f7b2291e5b200ac8c7c3b9259281900390910190a3505050565b303b1590565b610168546001600160a01b03821660009081526101696020526040812054909111611e1157506000610ded565b61016854610dea90839061275e565b611e28611f7c565b611e318361279b565b50611e3b8261279b565b50611e478383836127ad565b611e5083612055565b6114ff82612055565b6000611e66848484611e20565b611ed784611e72611cee565b610ef485604051806060016040528060288152602001612fa0602891396001600160a01b038a16600090815260686020526040812090611eb0611cee565b6001600160a01b03168152602081019190915260400160002054919063ffffffff61240316565b5060019392505050565b600082820183811015610e7a576040805162461bcd60e51b815260206004820152601b60248201527f536166654d6174683a206164646974696f6e206f766572666c6f770000000000604482015290519081900360640190fd5b611f43611f7c565b611f4c8261279b565b50611f57828261290b565b611aff82612055565b611f68611f7c565b611f718261279b565b50611f5782826129fd565b611f84612af9565b611c7d576118b7565b6001600160a01b03821660009081526101696020526040812054828110611fb8576000915050610ce8565b6000611fc4858561275e565b6001600160a01b038616600090815261016960205260409020859055905080611ff257600092505050610ce8565b611ffd3086836127ad565b604080516001600160a01b0387168152602081018390528082018490526060810186905290517fe61468ba7ef06e2d4e4f2ae88303bb4d1fdbe6001ad2fe0782cbd4f7dffca8579181900360800190a1949350505050565b60006120956040518060400160405280600781526020017f736176696e6773000000000000000000000000000000000000000000000000008152506111fd565b9050806001600160a01b031663c9b0d081836040518263ffffffff1660e01b815260040180826001600160a01b03166001600160a01b03168152602001915050600060405180830381600087803b1580156120ef57600080fd5b505af1158015612103573d6000803e3d6000fd5b505050505050565b611aff8282612b13565b600083828061212957600092505050610e7a565b848210156121b2576000612191610168848154811061214457fe5b906000526020600020906002020160010154612185610168868154811061216757fe5b6000918252602090912060029091020154859063ffffffff612b6716565b9063ffffffff612bc016565b90506121a3828263ffffffff611ee116565b60019093019291506121299050565b6121c2818563ffffffff612c0216565b9695505050505050565b600054610100900460ff16806121e557506121e5611dde565b806121f3575060005460ff16155b61222e5760405162461bcd60e51b815260040180806020018281038252602e815260200180612fea602e913960400191505060405180910390fd5b600054610100900460ff16158015612259576000805460ff1961ff0019909116610100171660011790555b603380547fffffffffffffffffffffffff0000000000000000000000000000000000000000166001600160a01b0384811691909117918290556040519116906000907f8be0079c531659141344cd1fd0a4f28419497f9722a3daafe3b4186f6b6457e0908290a38015611aff576000805461ff00191690555050565b600054610100900460ff16806122ee57506122ee611dde565b806122fc575060005460ff16155b6123375760405162461bcd60e51b815260040180806020018281038252602e815260200180612fea602e913960400191505060405180910390fd5b600054610100900460ff16158015612362576000805460ff1961ff0019909116610100171660011790555b61236a611591565b611aed82610f64565b61238460d18263ffffffff612c4416565b6040516001600160a01b038216907f6ae172837ea30b801fbfcdd4108aa1d5bf8ff775444fd70256b44e6bf3dfc3f690600090a250565b6123cc60d18263ffffffff612cc516565b6040516001600160a01b038216907fe94479a9f7e1952cc78f2d6baab678adc1b772d936c6583def489e524cb6669290600090a250565b600081848411156124925760405162461bcd60e51b81526004018080602001828103825283818151815260200191508051906020019080838360005b8381101561245757818101518382015260200161243f565b50505050905090810190601f1680156124845780820380516001836020036101000a031916815260200191505b509250505060405180910390fd5b505050900390565b60006001600160a01b0382166124e15760405162461bcd60e51b8152600401808060200182810382526022815260200180612fc86022913960400191505060405180910390fd5b506001600160a01b03166000908152602091909152604090205460ff1690565b600054610100900460ff168061251a575061251a611dde565b80612528575060005460ff16155b6125635760405162461bcd60e51b815260040180806020018281038252602e815260200180612fea602e913960400191505060405180910390fd5b600054610100900460ff1615801561258e576000805460ff1961ff0019909116610100171660011790555b6125978261193b565b611aed57611aed82612373565b60006125ae610e81565b6040805180820190915261016b8054825260208201838152610168805460018101825560009190915292517f8077777ae4769de06cbfd1c0b8b1f653b51ec156d91a9aca16a4102f19e03d9e600290940293840155517f8077777ae4769de06cbfd1c0b8b1f653b51ec156d91a9aca16a4102f19e03d9f909201919091555490915061263b90309061290b565b61016b54604080519182526020820183905280517f6aecc0a97ed8436da25295877eadc9bdfcb38d8d2cd93ce7b51765d2eaac9ff29281900390910190a1600061016b5561269e6201518061269242828106612c02565b9063ffffffff611ee116565b61016a5550565b6001600160a01b0381166126ea5760405162461bcd60e51b8152600401808060200182810382526026815260200180612e6f6026913960400191505060405180910390fd5b6033546040516001600160a01b038084169216907f8be0079c531659141344cd1fd0a4f28419497f9722a3daafe3b4186f6b6457e090600090a3603380547fffffffffffffffffffffffff0000000000000000000000000000000000000000166001600160a01b0392909216919091179055565b6101685460009082111561276e57fe5b6001600160a01b03831660009081526101696020526040902054610e7a908361279686611478565b612115565b6000610dea8261016880549050611f8d565b6001600160a01b0383166127f25760405162461bcd60e51b81526004018080602001828103825260258152602001806130896025913960400191505060405180910390fd5b6001600160a01b0382166128375760405162461bcd60e51b8152600401808060200182810382526023815260200180612e2a6023913960400191505060405180910390fd5b61287a81604051806060016040528060268152602001612eb7602691396001600160a01b038616600090815260676020526040902054919063ffffffff61240316565b6001600160a01b0380851660009081526067602052604080822093909355908416815220546128af908263ffffffff611ee116565b6001600160a01b0380841660008181526067602090815260409182902094909455805185815290519193928716927fddf252ad1be2c89b69c2b068fc378daa952ba7f163c4a11628f55a4df523b3ef92918290030190a3505050565b6001600160a01b038216612966576040805162461bcd60e51b815260206004820152601f60248201527f45524332303a206d696e7420746f20746865207a65726f206164647265737300604482015290519081900360640190fd5b606954612979908263ffffffff611ee116565b6069556001600160a01b0382166000908152606760205260409020546129a5908263ffffffff611ee116565b6001600160a01b03831660008181526067602090815260408083209490945583518581529351929391927fddf252ad1be2c89b69c2b068fc378daa952ba7f163c4a11628f55a4df523b3ef9281900390910190a35050565b6001600160a01b038216612a425760405162461bcd60e51b81526004018080602001828103825260218152602001806130686021913960400191505060405180910390fd5b612a8581604051806060016040528060228152602001612e4d602291396001600160a01b038516600090815260676020526040902054919063ffffffff61240316565b6001600160a01b038316600090815260676020526040902055606954612ab1908263ffffffff612c0216565b6069556040805182815290516000916001600160a01b038516917fddf252ad1be2c89b69c2b068fc378daa952ba7f163c4a11628f55a4df523b3ef9181900360200190a35050565b60008061016b54118015610e8b57505061016a5442101590565b612b1d8282611f60565b611aff82612b29611cee565b610ef484604051806060016040528060248152602001613018602491396001600160a01b038816600090815260686020526040812090611eb0611cee565b600082612b7657506000610ce8565b82820282848281612b8357fe5b0414610e7a5760405162461bcd60e51b8152600401808060200182810382526021815260200180612f7f6021913960400191505060405180910390fd5b6000610e7a83836040518060400160405280601a81526020017f536166654d6174683a206469766973696f6e206279207a65726f000000000000815250612d2c565b6000610e7a83836040518060400160405280601e81526020017f536166654d6174683a207375627472616374696f6e206f766572666c6f770000815250612403565b612c4e828261249a565b15612ca0576040805162461bcd60e51b815260206004820152601f60248201527f526f6c65733a206163636f756e7420616c72656164792068617320726f6c6500604482015290519081900360640190fd5b6001600160a01b0316600090815260209190915260409020805460ff19166001179055565b612ccf828261249a565b612d0a5760405162461bcd60e51b8152600401808060200182810382526021815260200180612f5e6021913960400191505060405180910390fd5b6001600160a01b0316600090815260209190915260409020805460ff19169055565b60008183612d7b5760405162461bcd60e51b815260206004820181815283516024840152835190928392604490910191908501908083836000831561245757818101518382015260200161243f565b506000838581612d8757fe5b0495945050505050565b828054600181600116156101000203166002900490600052602060002090601f016020900481019282601f10612dd257805160ff1916838001178555612dff565b82800160010185558215612dff579182015b82811115612dff578251825591602001919060010190612de4565b50612e0b929150612e0f565b5090565b610ccd91905b80821115612e0b5760008155600101612e1556fe45524332303a207472616e7366657220746f20746865207a65726f206164647265737345524332303a206275726e20616d6f756e7420657863656564732062616c616e63654f776e61626c653a206e6577206f776e657220697320746865207a65726f206164647265737345524332303a20617070726f766520746f20746865207a65726f206164647265737345524332303a207472616e7366657220616d6f756e7420657863656564732062616c616e6365446973747269627574696f6e546f6b656e3a206e657874446973747269627574696f6e20697320746f6f20686967684d6f64756c653a20706f6f6c20616464726573732063616e2774206265207a65726f4d696e746572526f6c653a2063616c6c657220646f6573206e6f74206861766520746865204d696e74657220726f6c65526f6c65733a206163636f756e7420646f6573206e6f74206861766520726f6c65536166654d6174683a206d756c7469706c69636174696f6e206f766572666c6f7745524332303a207472616e7366657220616d6f756e74206578636565647320616c6c6f77616e6365526f6c65733a206163636f756e7420697320746865207a65726f2061646472657373436f6e747261637420696e7374616e63652068617320616c7265616479206265656e20696e697469616c697a656445524332303a206275726e20616d6f756e74206578636565647320616c6c6f77616e6365446973747269627574696f6e546f6b656e3a206e6f20646973747269627574696f6e7320746f20636c61696d45524332303a206275726e2066726f6d20746865207a65726f206164647265737345524332303a207472616e736665722066726f6d20746865207a65726f2061646472657373446973747269627574696f6e546f6b656e3a206c617374446973747269627574696f6e20746f6f2068696768744d6f64756c653a20726571756573746564206d6f64756c65206e6f7420666f756e6445524332303a20617070726f76652066726f6d20746865207a65726f2061646472657373446973747269627574696f6e546f6b656e3a207374617274446973747269627574696f6e20697320746f6f2068696768446973747269627574696f6e546f6b656e3a206e6f7468696e6720746f206469737472696275746545524332303a2064656372656173656420616c6c6f77616e63652062656c6f77207a65726fa265627a7a72315820bf2577c96a8a0837b473ce9be98428a0a4ddbc71fff536bdec91f1e73be50e4764736f6c63430005110032",
  "source": "pragma solidity ^0.5.12;\n\nimport \"@openzeppelin/contracts-ethereum-package/contracts/token/ERC20/ERC20.sol\";\nimport \"@openzeppelin/contracts-ethereum-package/contracts/token/ERC20/ERC20Detailed.sol\";\nimport \"@openzeppelin/contracts-ethereum-package/contracts/token/ERC20/ERC20Mintable.sol\";\nimport \"@openzeppelin/contracts-ethereum-package/contracts/token/ERC20/ERC20Burnable.sol\";\nimport \"../../interfaces/token/IPoolTokenBalanceChangeRecipient.sol\";\nimport \"../../common/Module.sol\";\nimport \"./DistributionToken.sol\";\n\ncontract PoolToken is Module, ERC20, ERC20Detailed, ERC20Mintable, ERC20Burnable, DistributionToken {\n\n    function initialize(address _pool, string memory poolName, string memory poolSymbol) public initializer {\n        Module.initialize(_pool);\n        ERC20Detailed.initialize(poolName, poolSymbol, 18);\n        ERC20Mintable.initialize(_msgSender());\n    }\n\n    /**\n     * @dev Overrides ERC20 transferFrom to allow unlimited transfers by SavingsModule\n     */\n    function transferFrom(address from, address to, uint256 value) public returns (bool) {\n        address savingsModule = getModuleAddress(MODULE_SAVINGS);\n        if (_msgSender() == savingsModule) {\n            _transfer(from, to, value);\n            return true;\n        } else {\n            return super.transferFrom(from, to, value);\n        }\n    }\n\n    /**\n     * @dev Overrides ERC20Burnable burnFrom to allow unlimited burn by SavingsModule\n     */\n    function burnFrom(address account, uint256 amount) public {\n        address savingsModule = getModuleAddress(MODULE_SAVINGS);\n        if (_msgSender() == savingsModule) {\n            _burn(account, amount);\n        } else {\n            super.burnFrom(account, amount);\n        }\n    }\n\n    function userBalanceChanged(address account) internal {\n        IPoolTokenBalanceChangeRecipient savings = IPoolTokenBalanceChangeRecipient(getModuleAddress(MODULE_SAVINGS));\n        savings.poolTokenBalanceChanged(account);\n    }\n\n}",
  "sourcePath": "/Users/ilya/Documents/Akropolis/dca-strategy-bot/contracts/modules/token/PoolToken.sol",
  "compiler": {
    "name": "solc",
    "version": "0.5.17+commit.d19bba13.Emscripten.clang"
  },
  "schemaVersion": "3.2.3",
  "updatedAt": "2020-08-11T09:46:30.964Z",
  "devdoc": {
    "methods": {
      "allowance(address,address)": {
        "details": "See {IERC20-allowance}."
      },
      "approve(address,uint256)": {
        "details": "See {IERC20-approve}.     * Requirements:     * - `spender` cannot be the zero address."
      },
      "balanceOf(address)": {
        "details": "See {IERC20-balanceOf}."
      },
      "burn(uint256)": {
        "details": "Destroys `amount` tokens from the caller.     * See {ERC20-_burn}."
      },
      "burnFrom(address,uint256)": {
        "details": "Overrides ERC20Burnable burnFrom to allow unlimited burn by SavingsModule"
      },
      "calculateDistributedAmount(uint256,uint256,uint256)": {
        "params": {
          "fromDistribution": "index of first Distribution to start calculations",
          "initialBalance": "amount of tokens before startDistribution",
          "toDistribution": "index of distribuition next to the last processed"
        },
        "return": "amount of tokens distributed"
      },
      "calculateUnclaimedDistributions(address)": {
        "params": {
          "account": "Account to check"
        },
        "return": "Amount of tokens available to claim"
      },
      "decimals()": {
        "details": "Returns the number of decimals used to get its user representation. For example, if `decimals` equals `2`, a balance of `505` tokens should be displayed to a user as `5,05` (`505 / 10 ** 2`).     * Tokens usually opt for a value of 18, imitating the relationship between Ether and Wei.     * NOTE: This information is only used for _display_ purposes: it in no way affects any of the arithmetic of the contract, including {IERC20-balanceOf} and {IERC20-transfer}."
      },
      "decreaseAllowance(address,uint256)": {
        "details": "Atomically decreases the allowance granted to `spender` by the caller.     * This is an alternative to {approve} that can be used as a mitigation for problems described in {IERC20-approve}.     * Emits an {Approval} event indicating the updated allowance.     * Requirements:     * - `spender` cannot be the zero address. - `spender` must have allowance for the caller of at least `subtractedValue`."
      },
      "distributionBalanceOf(address)": {
        "details": "This function should be overloaded to include balance of tokens stored in proposals"
      },
      "distributionTotalSupply()": {
        "details": "This function should be overloaded to exclude tokens locked in loans"
      },
      "increaseAllowance(address,uint256)": {
        "details": "Atomically increases the allowance granted to `spender` by the caller.     * This is an alternative to {approve} that can be used as a mitigation for problems described in {IERC20-approve}.     * Emits an {Approval} event indicating the updated allowance.     * Requirements:     * - `spender` cannot be the zero address."
      },
      "initialize(string,string,uint8)": {
        "details": "Sets the values for `name`, `symbol`, and `decimals`. All three of these values are immutable: they can only be set once during construction."
      },
      "isOwner()": {
        "details": "Returns true if the caller is the current owner."
      },
      "mint(address,uint256)": {
        "details": "See {ERC20-_mint}.     * Requirements:     * - the caller must have the {MinterRole}."
      },
      "name()": {
        "details": "Returns the name of the token."
      },
      "owner()": {
        "details": "Returns the address of the current owner."
      },
      "renounceOwnership()": {
        "details": "Leaves the contract without owner. It will not be possible to call `onlyOwner` functions anymore. Can only be called by the current owner.     * > Note: Renouncing ownership will leave the contract without an owner, thereby removing any functionality that is only available to the owner."
      },
      "symbol()": {
        "details": "Returns the symbol of the token, usually a shorter version of the name."
      },
      "totalSupply()": {
        "details": "See {IERC20-totalSupply}."
      },
      "transfer(address,uint256)": {
        "details": "See {IERC20-transfer}.     * Requirements:     * - `recipient` cannot be the zero address. - the caller must have a balance of at least `amount`."
      },
      "transferFrom(address,address,uint256)": {
        "details": "Overrides ERC20 transferFrom to allow unlimited transfers by SavingsModule"
      },
      "transferOwnership(address)": {
        "details": "Transfers ownership of the contract to a new account (`newOwner`). Can only be called by the current owner."
      }
    }
  },
  "userdoc": {
    "methods": {
      "calculateDistributedAmount(uint256,uint256,uint256)": {
        "notice": "Calculates amount of tokens distributed to inital amount between startDistribution and nextDistribution"
      },
      "calculateUnclaimedDistributions(address)": {
        "notice": "How many tokens are not yet claimed from distributions"
      },
      "claimDistributions(address,uint256)": {
        "notice": "Claims distributions and allows to specify how many distributions to process. This allows limit gas usage. One can do this for others"
      },
      "distributionBalanceOf(address)": {
        "notice": "Balance of account, which is counted for distributions It only represents already distributed balance."
      },
      "distributionTotalSupply()": {
        "notice": "Total supply which is counted for distributions It only represents already distributed tokens"
      },
      "fullBalanceOf(address)": {
        "notice": "Full balance of account includes: - balance of tokens account holds himself (0 for addresses of locking contracts) - balance of tokens locked in contracts - tokens not yet claimed from distributions"
      }
    }
  }
}