{
  "contractName": "RAYProtocol",
  "abi": [
    {
      "anonymous": false,
      "inputs": [
        {
          "indexed": true,
          "internalType": "address",
          "name": "account",
          "type": "address"
        }
      ],
      "name": "DefiOperatorAdded",
      "type": "event"
    },
    {
      "anonymous": false,
      "inputs": [
        {
          "indexed": true,
          "internalType": "address",
          "name": "account",
          "type": "address"
        }
      ],
      "name": "DefiOperatorRemoved",
      "type": "event"
    },
    {
      "anonymous": false,
      "inputs": [
        {
          "indexed": true,
          "internalType": "address",
          "name": "previousOwner",
          "type": "address"
        },
        {
          "indexed": true,
          "internalType": "address",
          "name": "newOwner",
          "type": "address"
        }
      ],
      "name": "OwnershipTransferred",
      "type": "event"
    },
    {
      "anonymous": false,
      "inputs": [
        {
          "indexed": false,
          "internalType": "address",
          "name": "newPool",
          "type": "address"
        }
      ],
      "name": "PoolAddressChanged",
      "type": "event"
    },
    {
      "anonymous": false,
      "inputs": [
        {
          "indexed": true,
          "internalType": "address",
          "name": "token",
          "type": "address"
        },
        {
          "indexed": false,
          "internalType": "uint256",
          "name": "amount",
          "type": "uint256"
        }
      ],
      "name": "RewardTokenClaimed",
      "type": "event"
    },
    {
      "constant": false,
      "inputs": [
        {
          "internalType": "address",
          "name": "account",
          "type": "address"
        }
      ],
      "name": "addDefiOperator",
      "outputs": [],
      "payable": false,
      "stateMutability": "nonpayable",
      "type": "function"
    },
    {
      "constant": false,
      "inputs": [],
      "name": "claimRewards",
      "outputs": [
        {
          "internalType": "address[]",
          "name": "tokens",
          "type": "address[]"
        },
        {
          "internalType": "uint256[]",
          "name": "amounts",
          "type": "uint256[]"
        }
      ],
      "payable": false,
      "stateMutability": "nonpayable",
      "type": "function"
    },
    {
      "constant": true,
      "inputs": [
        {
          "internalType": "string",
          "name": "module",
          "type": "string"
        }
      ],
      "name": "getModuleAddress",
      "outputs": [
        {
          "internalType": "address",
          "name": "",
          "type": "address"
        }
      ],
      "payable": false,
      "stateMutability": "view",
      "type": "function"
    },
    {
      "constant": true,
      "inputs": [
        {
          "internalType": "address",
          "name": "account",
          "type": "address"
        }
      ],
      "name": "isDefiOperator",
      "outputs": [
        {
          "internalType": "bool",
          "name": "",
          "type": "bool"
        }
      ],
      "payable": false,
      "stateMutability": "view",
      "type": "function"
    },
    {
      "constant": true,
      "inputs": [],
      "name": "isOwner",
      "outputs": [
        {
          "internalType": "bool",
          "name": "",
          "type": "bool"
        }
      ],
      "payable": false,
      "stateMutability": "view",
      "type": "function"
    },
    {
      "constant": true,
      "inputs": [],
      "name": "owner",
      "outputs": [
        {
          "internalType": "address",
          "name": "",
          "type": "address"
        }
      ],
      "payable": false,
      "stateMutability": "view",
      "type": "function"
    },
    {
      "constant": true,
      "inputs": [],
      "name": "pool",
      "outputs": [
        {
          "internalType": "address",
          "name": "",
          "type": "address"
        }
      ],
      "payable": false,
      "stateMutability": "view",
      "type": "function"
    },
    {
      "constant": false,
      "inputs": [],
      "name": "renounceDefiOperator",
      "outputs": [],
      "payable": false,
      "stateMutability": "nonpayable",
      "type": "function"
    },
    {
      "constant": false,
      "inputs": [],
      "name": "renounceOwnership",
      "outputs": [],
      "payable": false,
      "stateMutability": "nonpayable",
      "type": "function"
    },
    {
      "constant": false,
      "inputs": [
        {
          "internalType": "address",
          "name": "_pool",
          "type": "address"
        }
      ],
      "name": "setPool",
      "outputs": [],
      "payable": false,
      "stateMutability": "nonpayable",
      "type": "function"
    },
    {
      "constant": false,
      "inputs": [
        {
          "internalType": "address",
          "name": "newOwner",
          "type": "address"
        }
      ],
      "name": "transferOwnership",
      "outputs": [],
      "payable": false,
      "stateMutability": "nonpayable",
      "type": "function"
    },
    {
      "constant": false,
      "inputs": [
        {
          "internalType": "address",
          "name": "token",
          "type": "address"
        },
        {
          "internalType": "address",
          "name": "user",
          "type": "address"
        },
        {
          "internalType": "uint256",
          "name": "amount",
          "type": "uint256"
        }
      ],
      "name": "withdrawReward",
      "outputs": [],
      "payable": false,
      "stateMutability": "nonpayable",
      "type": "function"
    },
    {
      "constant": false,
      "inputs": [
        {
          "internalType": "address",
          "name": "_pool",
          "type": "address"
        },
        {
          "internalType": "address",
          "name": "_token",
          "type": "address"
        },
        {
          "internalType": "bytes32",
          "name": "_portfolioId",
          "type": "bytes32"
        }
      ],
      "name": "initialize",
      "outputs": [],
      "payable": false,
      "stateMutability": "nonpayable",
      "type": "function"
    },
    {
      "constant": false,
      "inputs": [],
      "name": "initialize",
      "outputs": [],
      "payable": false,
      "stateMutability": "nonpayable",
      "type": "function"
    },
    {
      "constant": false,
      "inputs": [
        {
          "internalType": "address",
          "name": "_pool",
          "type": "address"
        }
      ],
      "name": "initialize",
      "outputs": [],
      "payable": false,
      "stateMutability": "nonpayable",
      "type": "function"
    },
    {
      "constant": true,
      "inputs": [
        {
          "internalType": "address",
          "name": "",
          "type": "address"
        },
        {
          "internalType": "address",
          "name": "",
          "type": "address"
        },
        {
          "internalType": "uint256",
          "name": "",
          "type": "uint256"
        },
        {
          "internalType": "bytes",
          "name": "",
          "type": "bytes"
        }
      ],
      "name": "onERC721Received",
      "outputs": [
        {
          "internalType": "bytes4",
          "name": "",
          "type": "bytes4"
        }
      ],
      "payable": false,
      "stateMutability": "view",
      "type": "function"
    },
    {
      "constant": false,
      "inputs": [
        {
          "internalType": "address",
          "name": "token",
          "type": "address"
        },
        {
          "internalType": "uint256",
          "name": "amount",
          "type": "uint256"
        }
      ],
      "name": "handleDeposit",
      "outputs": [],
      "payable": false,
      "stateMutability": "nonpayable",
      "type": "function"
    },
    {
      "constant": false,
      "inputs": [
        {
          "internalType": "address[]",
          "name": "tokens",
          "type": "address[]"
        },
        {
          "internalType": "uint256[]",
          "name": "amounts",
          "type": "uint256[]"
        }
      ],
      "name": "handleDeposit",
      "outputs": [],
      "payable": false,
      "stateMutability": "nonpayable",
      "type": "function"
    },
    {
      "constant": false,
      "inputs": [
        {
          "internalType": "address",
          "name": "beneficiary",
          "type": "address"
        },
        {
          "internalType": "uint256[]",
          "name": "amounts",
          "type": "uint256[]"
        }
      ],
      "name": "withdraw",
      "outputs": [],
      "payable": false,
      "stateMutability": "nonpayable",
      "type": "function"
    },
    {
      "constant": false,
      "inputs": [
        {
          "internalType": "address",
          "name": "beneficiary",
          "type": "address"
        },
        {
          "internalType": "address",
          "name": "token",
          "type": "address"
        },
        {
          "internalType": "uint256",
          "name": "amount",
          "type": "uint256"
        }
      ],
      "name": "withdraw",
      "outputs": [],
      "payable": false,
      "stateMutability": "nonpayable",
      "type": "function"
    },
    {
      "constant": false,
      "inputs": [
        {
          "internalType": "address",
          "name": "token",
          "type": "address"
        }
      ],
      "name": "balanceOf",
      "outputs": [
        {
          "internalType": "uint256",
          "name": "",
          "type": "uint256"
        }
      ],
      "payable": false,
      "stateMutability": "nonpayable",
      "type": "function"
    },
    {
      "constant": false,
      "inputs": [],
      "name": "balanceOfAll",
      "outputs": [
        {
          "internalType": "uint256[]",
          "name": "",
          "type": "uint256[]"
        }
      ],
      "payable": false,
      "stateMutability": "nonpayable",
      "type": "function"
    },
    {
      "constant": false,
      "inputs": [],
      "name": "normalizedBalance",
      "outputs": [
        {
          "internalType": "uint256",
          "name": "",
          "type": "uint256"
        }
      ],
      "payable": false,
      "stateMutability": "nonpayable",
      "type": "function"
    },
    {
      "constant": true,
      "inputs": [
        {
          "internalType": "address",
          "name": "token",
          "type": "address"
        }
      ],
      "name": "canSwapToToken",
      "outputs": [
        {
          "internalType": "bool",
          "name": "",
          "type": "bool"
        }
      ],
      "payable": false,
      "stateMutability": "view",
      "type": "function"
    },
    {
      "constant": true,
      "inputs": [],
      "name": "supportedTokens",
      "outputs": [
        {
          "internalType": "address[]",
          "name": "",
          "type": "address[]"
        }
      ],
      "payable": false,
      "stateMutability": "view",
      "type": "function"
    },
    {
      "constant": true,
      "inputs": [],
      "name": "supportedTokensCount",
      "outputs": [
        {
          "internalType": "uint256",
          "name": "",
          "type": "uint256"
        }
      ],
      "payable": false,
      "stateMutability": "view",
      "type": "function"
    },
    {
      "constant": true,
      "inputs": [],
      "name": "supportedRewardTokens",
      "outputs": [
        {
          "internalType": "address[]",
          "name": "",
          "type": "address[]"
        }
      ],
      "payable": false,
      "stateMutability": "view",
      "type": "function"
    },
    {
      "constant": true,
      "inputs": [
        {
          "internalType": "address",
          "name": "",
          "type": "address"
        }
      ],
      "name": "isSupportedRewardToken",
      "outputs": [
        {
          "internalType": "bool",
          "name": "",
          "type": "bool"
        }
      ],
      "payable": false,
      "stateMutability": "view",
      "type": "function"
    }
  ],
  "bytecode": "0x6080604052612e3e806100136000396000f3fe608060405234801561001057600080fd5b50600436106101c45760003560e01c80638293744b116100f9578063c662ff2411610097578063e49fba6b11610071578063e49fba6b14610855578063f2fde38b1461085d578063f64f329e14610883578063f7384d50146108a9576101c4565b8063c662ff24146107f1578063d9180a0014610817578063d9caed121461081f576101c4565b80639b861780116100d35780639b86178014610767578063b002249d1461078d578063b9c3da0f14610795578063c4d66de8146107cb576101c4565b80638293744b146106905780638da5cb5b146107435780638f32d59b1461074b576101c4565b80636133f9851161016657806370a082311161014057806370a08231146105b4578063715018a6146105da57806371dc760f146105e25780638129fc1c14610688576101c4565b80636133f9851461043d578063628cb95e146104735780636c6874d91461048d576101c4565b8063372500ab116101a2578063372500ab1461034057806343cdf1f7146103e15780634437152a146103eb57806359e8dc9714610411576101c4565b8063150b7a02146101c957806316f0115b146102c4578063208e509f146102e8575b600080fd5b61028f600480360360808110156101df57600080fd5b6001600160a01b0382358116926020810135909116916040820135919081019060808101606082013564010000000081111561021a57600080fd5b82018360208201111561022c57600080fd5b8035906020019184600183028401116401000000008311171561024e57600080fd5b91908080601f0160208091040260200160405190810160405280939291908181526020018383808284376000920191909152509295506108cf945050505050565b604080517fffffffff000000000000000000000000000000000000000000000000000000009092168252519081900360200190f35b6102cc610a10565b604080516001600160a01b039092168252519081900360200190f35b6102f0610a1f565b60408051602080825283518183015283519192839290830191858101910280838360005b8381101561032c578181015183820152602001610314565b505050509050019250505060405180910390f35b610348610a77565b604051808060200180602001838103835285818151815260200191508051906020019060200280838360005b8381101561038c578181015183820152602001610374565b50505050905001838103825284818151815260200191508051906020019060200280838360005b838110156103cb5781810151838201526020016103b3565b5050505090500194505050505060405180910390f35b6103e9610d2f565b005b6103e96004803603602081101561040157600080fd5b50356001600160a01b0316610d41565b6103e96004803603604081101561042757600080fd5b506001600160a01b038135169060200135610e4b565b6103e96004803603606081101561045357600080fd5b506001600160a01b0381358116916020810135909116906040013561101b565b61047b611210565b60408051918252519081900360200190f35b6103e9600480360360408110156104a357600080fd5b8101906020810181356401000000008111156104be57600080fd5b8201836020820111156104d057600080fd5b803590602001918460208302840111640100000000831117156104f257600080fd5b919080806020026020016040519081016040528093929190818152602001838360200280828437600092019190915250929594936020810193503591505064010000000081111561054257600080fd5b82018360208201111561055457600080fd5b8035906020019184602083028401116401000000008311171561057657600080fd5b919080806020026020016040519081016040528093929190818152602001838360200280828437600092019190915250929550611236945050505050565b61047b600480360360208110156105ca57600080fd5b50356001600160a01b03166112ff565b6103e96113bd565b6102cc600480360360208110156105f857600080fd5b81019060208101813564010000000081111561061357600080fd5b82018360208201111561062557600080fd5b8035906020019184600183028401116401000000008311171561064757600080fd5b91908080601f016020809104026020016040519081016040528093929190818152602001838380828437600092019190915250929550611478945050505050565b6103e96116fb565b6103e9600480360360408110156106a657600080fd5b6001600160a01b0382351691908101906040810160208201356401000000008111156106d157600080fd5b8201836020820111156106e357600080fd5b8035906020019184602083028401116401000000008311171561070557600080fd5b9190808060200260200160405190810160405280939291908181526020018383602002808284376000920191909152509295506117ad945050505050565b6102cc61191c565b61075361192b565b604080519115158252519081900360200190f35b6107536004803603602081101561077d57600080fd5b50356001600160a01b0316611951565b6102f0611965565b6103e9600480360360608110156107ab57600080fd5b506001600160a01b038135811691602081013590911690604001356119c1565b6103e9600480360360208110156107e157600080fd5b50356001600160a01b0316611ab7565b6103e96004803603602081101561080757600080fd5b50356001600160a01b0316611b72565b6102f0611bc1565b6103e96004803603606081101561083557600080fd5b506001600160a01b03813581169160208101359091169060400135611bd3565b61047b611db6565b6103e96004803603602081101561087357600080fd5b50356001600160a01b0316611dbb565b6107536004803603602081101561089957600080fd5b50356001600160a01b0316611e1d565b610753600480360360208110156108bf57600080fd5b50356001600160a01b0316611e36565b6000806108da611e3c565b604080517f524159546f6b656e436f6e747261637400000000000000000000000000000000815281519081900360100181207f0d2020dd000000000000000000000000000000000000000000000000000000008252600482015290516001600160a01b039290921691630d2020dd91602480820192602092909190829003018186803b15801561096957600080fd5b505afa15801561097d573d6000803e3d6000fd5b505050506040513d602081101561099357600080fd5b505190506001600160a01b0381166109a9611e7c565b6001600160a01b0316146109ee5760405162461bcd60e51b815260040180806020018281038252602a815260200180612c1b602a913960400191505060405180910390fd5b60405180602f612bc5823960405190819003602f019020979650505050505050565b6066546001600160a01b031681565b6040805160018082528183019092526060918291906020808301908038833901905050606954909150610a5a906001600160a01b03166112ff565b81600081518110610a6757fe5b6020908102919091010152905090565b606080610a8a610a85611e7c565b611e1d565b610ac55760405162461bcd60e51b815260040180806020018281038252603c815260200180612d6e603c913960400191505060405180910390fd5b610acd610d3f565b6060610ad7611bc1565b905060608151604051908082528060200260200182016040528015610b06578160200160208202803883390190505b5090506000805b8351811015610c28576000848281518110610b2457fe5b602002602001015190506000816001600160a01b03166370a08231306040518263ffffffff1660e01b815260040180826001600160a01b03166001600160a01b0316815260200191505060206040518083038186803b158015610b8657600080fd5b505afa158015610b9a573d6000803e3d6000fd5b505050506040513d6020811015610bb057600080fd5b50516001600160a01b038316600090815260686020526040902054909150811115610c1e576001600160a01b038216600090815260686020526040902054600190940193610c0590829063ffffffff611e8016565b858481518110610c1157fe5b6020026020010181815250505b5050600101610b0d565b5080604051908082528060200260200182016040528015610c53578160200160208202803883390190505b50945080604051908082528060200260200182016040528015610c80578160200160208202803883390190505b5093506000805b8451811015610d26576000848281518110610c9e57fe5b60200260200101511115610d1e57848181518110610cb857fe5b6020026020010151878381518110610ccc57fe5b60200260200101906001600160a01b031690816001600160a01b031681525050838181518110610cf857fe5b6020026020010151868381518110610d0c57fe5b60209081029190910101526001909101905b600101610c87565b50505050509091565b610d3f610d3a611e7c565b611ec9565b565b610d4961192b565b610d9a576040805162461bcd60e51b815260206004820181905260248201527f4f776e61626c653a2063616c6c6572206973206e6f7420746865206f776e6572604482015290519081900360640190fd5b6001600160a01b038116610ddf5760405162461bcd60e51b8152600401808060200182810382526022815260200180612c986022913960400191505060405180910390fd5b606680546001600160a01b0383167fffffffffffffffffffffffff0000000000000000000000000000000000000000909116811790915560408051918252517f5b36800c27524690807962bd42525a44e68b3f860e8f9e0204f27e777d2f46059181900360200190a150565b610e56610a85611e7c565b610e915760405162461bcd60e51b815260040180806020018281038252603c815260200180612d6e603c913960400191505060405180910390fd5b6069546001600160a01b03838116911614610ef3576040805162461bcd60e51b815260206004820181905260248201527f52415950726f746f636f6c3a20746f6b656e206e6f7420737570706f72746564604482015290519081900360640190fd5b6000610efd611f11565b606b54909150610fad57606a54604080517f7ed9db59000000000000000000000000000000000000000000000000000000008152600481019290925230602483015260448201849052516001600160a01b03831691637ed9db599160648083019260209291908290030181600087803b158015610f7957600080fd5b505af1158015610f8d573d6000803e3d6000fd5b505050506040513d6020811015610fa357600080fd5b5051606b55611016565b806001600160a01b0316631de26e16606b54846040518363ffffffff1660e01b81526004018083815260200182815260200192505050600060405180830381600087803b158015610ffd57600080fd5b505af1158015611011573d6000803e3d6000fd5b505050505b505050565b600054610100900460ff16806110345750611034611f23565b80611042575060005460ff16155b61107d5760405162461bcd60e51b815260040180806020018281038252602e815260200180612d1e602e913960400191505060405180910390fd5b600054610100900460ff161580156110a8576000805460ff1961ff0019909116610100171660011790555b6110b184611ab7565b606980547fffffffffffffffffffffffff0000000000000000000000000000000000000000166001600160a01b038516908117909155606a839055604080517f313ce567000000000000000000000000000000000000000000000000000000008152905163313ce56791600480820192602092909190829003018186803b15801561113b57600080fd5b505afa15801561114f573d6000803e3d6000fd5b505050506040513d602081101561116557600080fd5b50516069805460ff90921674010000000000000000000000000000000000000000027fffffffffffffffffffffff00ffffffffffffffffffffffffffffffffffffffff90921691909117905560006111bb611f11565b90506111f76001600160a01b038516827fffffffffffffffffffffffffffffffffffffffffffffffffffffffffffffffff63ffffffff611f2916565b50801561120a576000805461ff00191690555b50505050565b606954600090611231906001600160a01b031661122c816112ff565b612083565b905090565b611241610a85611e7c565b61127c5760405162461bcd60e51b815260040180806020018281038252603c815260200180612d6e603c913960400191505060405180910390fd5b8151600114801561128e575080516001145b6112c95760405162461bcd60e51b815260040180806020018281038252602d815260200180612c45602d913960400191505060405180910390fd5b6112fb826000815181106112d957fe5b6020026020010151826000815181106112ee57fe5b6020026020010151610e4b565b5050565b6069546000906001600160a01b0383811691161461131f575060006113b8565b606b5461132e575060006113b8565b60006113386121a4565b6001600160a01b0316632cc7b6f7606a54606b546040518363ffffffff1660e01b815260040180838152602001828152602001925050506040805180830381600087803b15801561138857600080fd5b505af115801561139c573d6000803e3d6000fd5b505050506040513d60408110156113b257600080fd5b50519150505b919050565b6113c561192b565b611416576040805162461bcd60e51b815260206004820181905260248201527f4f776e61626c653a2063616c6c6572206973206e6f7420746865206f776e6572604482015290519081900360640190fd5b6033546040516000916001600160a01b0316907f8be0079c531659141344cd1fd0a4f28419497f9722a3daafe3b4186f6b6457e0908390a3603380547fffffffffffffffffffffffff0000000000000000000000000000000000000000169055565b6066546000906001600160a01b03166114d8576040805162461bcd60e51b815260206004820152600f60248201527f4d6f64756c653a206e6f20706f6f6c0000000000000000000000000000000000604482015290519081900360640190fd5b6066546040516020602482018181528551604484015285516000946060946001600160a01b03909116938893928392606401918501908083838b5b8381101561152b578181015183820152602001611513565b50505050905090810190601f1680156115585780820380516001836020036101000a031916815260200191505b50604080517fffffffffffffffffffffffffffffffffffffffffffffffffffffffffffffffe08184030181529181526020820180517bffffffffffffffffffffffffffffffffffffffffffffffffffffffff167f693ec85e00000000000000000000000000000000000000000000000000000000178152905182519295509350839250908083835b6020831061161d57805182527fffffffffffffffffffffffffffffffffffffffffffffffffffffffffffffffe090920191602091820191016115e0565b6001836020036101000a038019825116818451168082178552505050505050905001915050600060405180830381855afa9150503d806000811461167d576040519150601f19603f3d011682016040523d82523d6000602084013e611682565b606091505b509150915081611693578060208201fd5b60008180602001905160208110156116aa57600080fd5b505190506001600160a01b0381166116f35760405162461bcd60e51b8152600401808060200182810382526022815260200180612d4c6022913960400191505060405180910390fd5b949350505050565b600054610100900460ff16806117145750611714611f23565b80611722575060005460ff16155b61175d5760405162461bcd60e51b815260040180806020018281038252602e815260200180612d1e602e913960400191505060405180910390fd5b600054610100900460ff16158015611788576000805460ff1961ff0019909116610100171660011790555b611798611793611e7c565b6121b6565b80156117aa576000805461ff00191690555b50565b6117b8610a85611e7c565b6117f35760405162461bcd60e51b815260040180806020018281038252603c815260200180612d6e603c913960400191505060405180910390fd5b80516001146118335760405162461bcd60e51b8152600401808060200182810382526027815260200180612bf46027913960400191505060405180910390fd5b61183b611f11565b6001600160a01b031663112ad90b606b548360008151811061185957fe5b602002602001015160006040518463ffffffff1660e01b815260040180848152602001838152602001826001600160a01b03166001600160a01b031681526020019350505050602060405180830381600087803b1580156118b957600080fd5b505af11580156118cd573d6000803e3d6000fd5b505050506040513d60208110156118e357600080fd5b505080516112fb90839083906000906118f857fe5b60209081029190910101516069546001600160a01b0316919063ffffffff6122bf16565b6033546001600160a01b031690565b6033546000906001600160a01b0316611942611e7c565b6001600160a01b031614905090565b6069546001600160a01b0390811691161490565b60408051600180825281830190925260609182919060208083019080388339505060695482519293506001600160a01b0316918391506000906119a457fe5b6001600160a01b0390921660209283029190910190910152905090565b6119cc610a85611e7c565b611a075760405162461bcd60e51b815260040180806020018281038252603c815260200180612d6e603c913960400191505060405180910390fd5b611a1083611e36565b611a61576040805162461bcd60e51b815260206004820152601e60248201527f50726f746f636f6c426173653a206e6f742072657761726420746f6b656e0000604482015290519081900360640190fd5b6001600160a01b038316600090815260686020526040902054611a8a908263ffffffff611e8016565b6001600160a01b03841660008181526068602052604090209190915561101690838363ffffffff6122bf16565b600054610100900460ff1680611ad05750611ad0611f23565b80611ade575060005460ff16155b611b195760405162461bcd60e51b815260040180806020018281038252602e815260200180612d1e602e913960400191505060405180910390fd5b600054610100900460ff16158015611b44576000805460ff1961ff0019909116610100171660011790555b611b4d8261233f565b611b5d611b58611e7c565b6123dd565b80156112fb576000805461ff00191690555050565b611b7d610a85611e7c565b611bb85760405162461bcd60e51b815260040180806020018281038252603c815260200180612d6e603c913960400191505060405180910390fd5b6117aa8161247c565b60408051600081526020810190915290565b611bde610a85611e7c565b611c195760405162461bcd60e51b815260040180806020018281038252603c815260200180612d6e603c913960400191505060405180910390fd5b6069546001600160a01b03838116911614611c7b576040805162461bcd60e51b815260206004820181905260248201527f52415950726f746f636f6c3a20746f6b656e206e6f7420737570706f72746564604482015290519081900360640190fd5b611c83611f11565b6001600160a01b031663112ad90b606b548360006040518463ffffffff1660e01b815260040180848152602001838152602001826001600160a01b03166001600160a01b031681526020019350505050602060405180830381600087803b158015611ced57600080fd5b505af1158015611d01573d6000803e3d6000fd5b505050506040513d6020811015611d1757600080fd5b5050604080517fa9059cbb0000000000000000000000000000000000000000000000000000000081526001600160a01b0385811660048301526024820184905291519184169163a9059cbb916044808201926020929091908290030181600087803b158015611d8557600080fd5b505af1158015611d99573d6000803e3d6000fd5b505050506040513d6020811015611daf57600080fd5b5050505050565b600190565b611dc361192b565b611e14576040805162461bcd60e51b815260206004820181905260248201527f4f776e61626c653a2063616c6c6572206973206e6f7420746865206f776e6572604482015290519081900360640190fd5b6117aa816124c4565b6000611e3060678363ffffffff61257d16565b92915050565b50600090565b60006112316040518060400160405280600381526020017f7261790000000000000000000000000000000000000000000000000000000000815250611478565b3390565b6000611ec283836040518060400160405280601e81526020017f536166654d6174683a207375627472616374696f6e206f766572666c6f7700008152506125e4565b9392505050565b611eda60678263ffffffff61267b16565b6040516001600160a01b038216907f626bf7c6846fdc6e3f94a7c861b91118b5c0506bc3dc892b70f7d42bd619118790600090a250565b6000611231611f1e611e3c565b6126e2565b303b1590565b801580611fc85750604080517fdd62ed3e0000000000000000000000000000000000000000000000000000000081523060048201526001600160a01b03848116602483015291519185169163dd62ed3e91604480820192602092909190829003018186803b158015611f9a57600080fd5b505afa158015611fae573d6000803e3d6000fd5b505050506040513d6020811015611fc457600080fd5b5051155b6120035760405162461bcd60e51b8152600401808060200182810382526036815260200180612dd46036913960400191505060405180910390fd5b604080516001600160a01b038416602482015260448082018490528251808303909101815260649091019091526020810180517bffffffffffffffffffffffffffffffffffffffffffffffffffffffff167f095ea7b3000000000000000000000000000000000000000000000000000000001790526110169084906127a4565b60695460009074010000000000000000000000000000000000000000900460ff16601214156120b3575080611e30565b60695460127401000000000000000000000000000000000000000090910460ff16111561212f5760695461212890839074010000000000000000000000000000000000000000900460ff167fffffffffffffffffffffffffffffffffffffffffffffffffffffffffffffffee01600a0a61297a565b9050611e30565b60695460127401000000000000000000000000000000000000000090910460ff161115611e305760695461212890839074010000000000000000000000000000000000000000900460ff167fffffffffffffffffffffffffffffffffffffffffffffffffffffffffffffffee01600a0a6129bc565b60006112316121b1611e3c565b612a15565b600054610100900460ff16806121cf57506121cf611f23565b806121dd575060005460ff16155b6122185760405162461bcd60e51b815260040180806020018281038252602e815260200180612d1e602e913960400191505060405180910390fd5b600054610100900460ff16158015612243576000805460ff1961ff0019909116610100171660011790555b603380547fffffffffffffffffffffffff0000000000000000000000000000000000000000166001600160a01b0384811691909117918290556040519116906000907f8be0079c531659141344cd1fd0a4f28419497f9722a3daafe3b4186f6b6457e0908290a380156112fb576000805461ff00191690555050565b604080516001600160a01b038416602482015260448082018490528251808303909101815260649091019091526020810180517bffffffffffffffffffffffffffffffffffffffffffffffffffffffff167fa9059cbb000000000000000000000000000000000000000000000000000000001790526110169084906127a4565b600054610100900460ff16806123585750612358611f23565b80612366575060005460ff16155b6123a15760405162461bcd60e51b815260040180806020018281038252602e815260200180612d1e602e913960400191505060405180910390fd5b600054610100900460ff161580156123cc576000805460ff1961ff0019909116610100171660011790555b6123d46116fb565b611b5d82610d41565b600054610100900460ff16806123f657506123f6611f23565b80612404575060005460ff16155b61243f5760405162461bcd60e51b815260040180806020018281038252602e815260200180612d1e602e913960400191505060405180910390fd5b600054610100900460ff1615801561246a576000805460ff1961ff0019909116610100171660011790555b61247382611e1d565b611b5d57611b5d825b61248d60678263ffffffff612aa516565b6040516001600160a01b038216907fd2a1587d372a888fc8427f6f206845b51ddf76976073d43f23e512ad1f22483590600090a250565b6001600160a01b0381166125095760405162461bcd60e51b8152600401808060200182810382526026815260200180612c726026913960400191505060405180910390fd5b6033546040516001600160a01b038084169216907f8be0079c531659141344cd1fd0a4f28419497f9722a3daafe3b4186f6b6457e090600090a3603380547fffffffffffffffffffffffff0000000000000000000000000000000000000000166001600160a01b0392909216919091179055565b60006001600160a01b0382166125c45760405162461bcd60e51b8152600401808060200182810382526022815260200180612cfc6022913960400191505060405180910390fd5b506001600160a01b03166000908152602091909152604090205460ff1690565b600081848411156126735760405162461bcd60e51b81526004018080602001828103825283818151815260200191508051906020019080838360005b83811015612638578181015183820152602001612620565b50505050905090810190601f1680156126655780820380516001836020036101000a031916815260200191505b509250505060405180910390fd5b505050900390565b612685828261257d565b6126c05760405162461bcd60e51b8152600401808060200182810382526021815260200180612cba6021913960400191505060405180910390fd5b6001600160a01b0316600090815260209190915260409020805460ff19169055565b604080517f506f7274666f6c696f4d616e61676572436f6e74726163740000000000000000815281519081900360180181207f0d2020dd000000000000000000000000000000000000000000000000000000008252600482015290516000916001600160a01b03841691630d2020dd91602480820192602092909190829003018186803b15801561277257600080fd5b505afa158015612786573d6000803e3d6000fd5b505050506040513d602081101561279c57600080fd5b505192915050565b6127b6826001600160a01b0316612b26565b612807576040805162461bcd60e51b815260206004820152601f60248201527f5361666545524332303a2063616c6c20746f206e6f6e2d636f6e747261637400604482015290519081900360640190fd5b60006060836001600160a01b0316836040518082805190602001908083835b6020831061286357805182527fffffffffffffffffffffffffffffffffffffffffffffffffffffffffffffffe09092019160209182019101612826565b6001836020036101000a0380198251168184511680821785525050505050509050019150506000604051808303816000865af19150503d80600081146128c5576040519150601f19603f3d011682016040523d82523d6000602084013e6128ca565b606091505b509150915081612921576040805162461bcd60e51b815260206004820181905260248201527f5361666545524332303a206c6f772d6c6576656c2063616c6c206661696c6564604482015290519081900360640190fd5b80511561120a5780806020019051602081101561293d57600080fd5b505161120a5760405162461bcd60e51b815260040180806020018281038252602a815260200180612daa602a913960400191505060405180910390fd5b6000611ec283836040518060400160405280601a81526020017f536166654d6174683a206469766973696f6e206279207a65726f000000000000815250612b5f565b6000826129cb57506000611e30565b828202828482816129d857fe5b0414611ec25760405162461bcd60e51b8152600401808060200182810382526021815260200180612cdb6021913960400191505060405180910390fd5b604080517f4e415643616c63756c61746f72436f6e74726163740000000000000000000000815281519081900360150181207f0d2020dd000000000000000000000000000000000000000000000000000000008252600482015290516000916001600160a01b03841691630d2020dd91602480820192602092909190829003018186803b15801561277257600080fd5b612aaf828261257d565b15612b01576040805162461bcd60e51b815260206004820152601f60248201527f526f6c65733a206163636f756e7420616c72656164792068617320726f6c6500604482015290519081900360640190fd5b6001600160a01b0316600090815260209190915260409020805460ff19166001179055565b6000813f7fc5d2460186f7233c927e7db2dcc703c0e500b653ca82273b7bfad8045d85a4708181148015906116f3575050151592915050565b60008183612bae5760405162461bcd60e51b8152602060048201818152835160248401528351909283926044909101919085019080838360008315612638578181015183820152602001612620565b506000838581612bba57fe5b049594505050505056fe6f6e455243373231526563656976656428616464726573732c616464726573732c75696e743235362c62797465732952415950726f746f636f6c3a2077726f6e6720616d6f756e7473206172726179206c656e6774685241594d6f64756c653a206f6e6c79206163636570742052415920546f6b656e207472616e736665727352415950726f746f636f6c3a2077726f6e6720636f756e74206f6620746f6b656e73206f7220616d6f756e74734f776e61626c653a206e6577206f776e657220697320746865207a65726f20616464726573734d6f64756c653a20706f6f6c20616464726573732063616e2774206265207a65726f526f6c65733a206163636f756e7420646f6573206e6f74206861766520726f6c65536166654d6174683a206d756c7469706c69636174696f6e206f766572666c6f77526f6c65733a206163636f756e7420697320746865207a65726f2061646472657373436f6e747261637420696e7374616e63652068617320616c7265616479206265656e20696e697469616c697a65644d6f64756c653a20726571756573746564206d6f64756c65206e6f7420666f756e64446566694f70657261746f72526f6c653a2063616c6c657220646f6573206e6f7420686176652074686520446566694f70657261746f7220726f6c655361666545524332303a204552433230206f7065726174696f6e20646964206e6f7420737563636565645361666545524332303a20617070726f76652066726f6d206e6f6e2d7a65726f20746f206e6f6e2d7a65726f20616c6c6f77616e6365a265627a7a723158207ec2d8f986a608926d994df74cd90b25db8e9056fd07dbe76e48b7c4e707e65b64736f6c63430005110032",
  "source": "pragma solidity ^0.5.12;\n\nimport \"@openzeppelin/contracts-ethereum-package/contracts/token/ERC20/IERC20.sol\";\nimport \"@openzeppelin/contracts-ethereum-package/contracts/token/ERC20/ERC20Detailed.sol\";\nimport \"@openzeppelin/contracts-ethereum-package/contracts/token/ERC20/SafeERC20.sol\";\nimport \"@openzeppelin/contracts-ethereum-package/contracts/token/ERC721/IERC721Receiver.sol\";\nimport \"@openzeppelin/contracts-ethereum-package/contracts/math/SafeMath.sol\";\nimport \"../../interfaces/defi/IDefiProtocol.sol\";\nimport \"../../interfaces/defi/IRAYStorage.sol\";\nimport \"../../interfaces/defi/IRAYPortfolioManager.sol\";\nimport \"../../interfaces/defi/IRAYNAVCalculator.sol\";\nimport \"./ProtocolBase.sol\";\n\n/**\n * RAY Protocol support module which works with only one base token\n */\ncontract RAYProtocol is ProtocolBase {\n    bytes32 internal constant PORTFOLIO_MANAGER_CONTRACT = keccak256(\"PortfolioManagerContract\");\n    bytes32 internal constant NAV_CALCULATOR_CONTRACT = keccak256(\"NAVCalculatorContract\");\n    bytes32 internal constant RAY_TOKEN_CONTRACT = keccak256(\"RAYTokenContract\");\n    bytes4 internal constant ERC721_RECEIVER = bytes4(keccak256(\"onERC721Received(address,address,uint256,bytes)\"));\n    uint256 constant MAX_UINT256 = uint256(-1);\n\n    using SafeMath for uint256;\n    using SafeERC20 for IERC20;\n\n    IERC20 baseToken;\n    uint8 decimals;\n    bytes32 portfolioId;\n    bytes32 rayTokenId;\n\n    function initialize(address _pool, address _token, bytes32 _portfolioId) public initializer {\n        ProtocolBase.initialize(_pool);\n        baseToken = IERC20(_token);\n        portfolioId = _portfolioId;\n        decimals = ERC20Detailed(_token).decimals();\n\n        IRAYPortfolioManager pm = rayPortfolioManager();\n        IERC20(_token).safeApprove(address(pm), MAX_UINT256);\n    }\n\n    function onERC721Received(address, address, uint256, bytes memory) public view returns (bytes4) {\n        address rayTokenContract = rayStorage().getContractAddress(RAY_TOKEN_CONTRACT);\n        require(_msgSender() == rayTokenContract, \"RAYModule: only accept RAY Token transfers\");\n        return ERC721_RECEIVER;\n    }\n\n    function handleDeposit(address token, uint256 amount) public onlyDefiOperator {\n        require(token == address(baseToken), \"RAYProtocol: token not supported\");\n        IRAYPortfolioManager pm = rayPortfolioManager();\n        if (rayTokenId == 0x0) {\n            rayTokenId = pm.mint(portfolioId, address(this), amount);\n        } else {\n            pm.deposit(rayTokenId, amount);\n        }\n    }\n\n    function handleDeposit(address[] memory tokens, uint256[] memory amounts) public onlyDefiOperator {\n        require(tokens.length == 1 && amounts.length == 1, \"RAYProtocol: wrong count of tokens or amounts\");\n        handleDeposit(tokens[0], amounts[0]);\n    }\n\n    function withdraw(address beneficiary, address token, uint256 amount) public onlyDefiOperator {\n        require(token == address(baseToken), \"RAYProtocol: token not supported\");\n        rayPortfolioManager().redeem(rayTokenId, amount, address(0));\n        IERC20(token).transfer(beneficiary, amount);\n    }\n\n    function withdraw(address beneficiary, uint256[] memory amounts) public onlyDefiOperator {\n        require(amounts.length == 1, \"RAYProtocol: wrong amounts array length\");\n        rayPortfolioManager().redeem(rayTokenId, amounts[0], address(0));\n        IERC20(baseToken).safeTransfer(beneficiary, amounts[0]);\n    }\n\n    function balanceOf(address token) public returns(uint256) {\n        if (token != address(baseToken)) return 0;\n        if (rayTokenId == 0x0) return 0;\n        (uint256 amount,) = rayNAVCalculator().getTokenValue(portfolioId, rayTokenId);\n        return amount;\n    }\n    \n    function balanceOfAll() public returns(uint256[] memory) {\n        uint256[] memory balances = new uint256[](1);\n        balances[0] = balanceOf(address(baseToken));\n        return balances;\n    }\n\n    function normalizedBalance() public returns(uint256) {\n        return normalizeAmount(address(baseToken), balanceOf(address(baseToken)));\n    }\n\n    function canSwapToToken(address token) public view returns(bool) {\n        return (token == address(baseToken));\n    }    \n\n    function supportedTokens() public view returns(address[] memory){\n        address[] memory tokens = new address[](1);\n        tokens[0] = address(baseToken);\n        return tokens;\n    }\n\n    function supportedTokensCount() public view returns(uint256) {\n        return 1;\n    }\n\n    function supportedRewardTokens() public view returns(address[] memory) {\n        address[] memory rtokens = new address[](0);\n        return rtokens;\n    }\n\n    function isSupportedRewardToken(address) public view returns(bool) {\n        return false;\n    }\n\n    function cliamRewardsFromProtocol() internal {\n        this; //do nothing\n    }\n\n    function normalizeAmount(address, uint256 amount) internal view returns(uint256) {\n        if (decimals == 18) {\n            return amount;\n        } else if (decimals > 18) {\n            return amount.div(10**(uint256(decimals)-18));\n        } else if (decimals > 18) {\n            return amount.mul(10**(uint256(decimals)-18));\n        }\n    }\n\n    function denormalizeAmount(address, uint256 amount) internal view returns(uint256) {\n        if (decimals == 18) {\n            return amount;\n        } else if (decimals > 18) {\n            return amount.mul(10**(uint256(decimals)-18));\n        } else if (decimals > 18) {\n            return amount.div(10**(uint256(decimals)-18));\n        }\n    }\n\n    function rayPortfolioManager() private view returns(IRAYPortfolioManager){\n        return rayPortfolioManager(rayStorage());\n    }\n\n    function rayPortfolioManager(IRAYStorage rayStorage) private view returns(IRAYPortfolioManager){\n        return IRAYPortfolioManager(rayStorage.getContractAddress(PORTFOLIO_MANAGER_CONTRACT));\n    }\n\n    function rayNAVCalculator() private view returns(IRAYNAVCalculator){\n        return rayNAVCalculator(rayStorage());\n    }\n\n    function rayNAVCalculator(IRAYStorage rayStorage) private view returns(IRAYNAVCalculator){\n        return IRAYNAVCalculator(rayStorage.getContractAddress(NAV_CALCULATOR_CONTRACT));\n    }\n\n    function rayStorage() private view returns(IRAYStorage){\n        return IRAYStorage(getModuleAddress(CONTRACT_RAY));\n    }\n}\n",
  "sourcePath": "/Users/ilya/Documents/Akropolis/dca-strategy-bot/contracts/modules/defi/RAYProtocol.sol",
  "compiler": {
    "name": "solc",
    "version": "0.5.17+commit.d19bba13.Emscripten.clang"
  },
  "schemaVersion": "3.2.3",
  "updatedAt": "2020-08-10T19:11:24.281Z",
  "devdoc": {
    "methods": {
      "isOwner()": {
        "details": "Returns true if the caller is the current owner."
      },
      "owner()": {
        "details": "Returns the address of the current owner."
      },
      "renounceOwnership()": {
        "details": "Leaves the contract without owner. It will not be possible to call `onlyOwner` functions anymore. Can only be called by the current owner.     * > Note: Renouncing ownership will leave the contract without an owner, thereby removing any functionality that is only available to the owner."
      },
      "transferOwnership(address)": {
        "details": "Transfers ownership of the contract to a new account (`newOwner`). Can only be called by the current owner."
      }
    }
  },
  "userdoc": {
    "methods": {},
    "notice": "RAY Protocol support module which works with only one base token"
  }
}