{
  "contractName": "SavingsModule",
  "abi": [
    {
      "anonymous": false,
      "inputs": [
        {
          "indexed": true,
          "internalType": "address",
          "name": "protocol",
          "type": "address"
        },
        {
          "indexed": true,
          "internalType": "address",
          "name": "user",
          "type": "address"
        },
        {
          "indexed": false,
          "internalType": "uint256",
          "name": "nAmount",
          "type": "uint256"
        },
        {
          "indexed": false,
          "internalType": "uint256",
          "name": "nFee",
          "type": "uint256"
        }
      ],
      "name": "Deposit",
      "type": "event"
    },
    {
      "anonymous": false,
      "inputs": [
        {
          "indexed": true,
          "internalType": "address",
          "name": "protocol",
          "type": "address"
        },
        {
          "indexed": true,
          "internalType": "address",
          "name": "token",
          "type": "address"
        },
        {
          "indexed": false,
          "internalType": "uint256",
          "name": "dnAmount",
          "type": "uint256"
        }
      ],
      "name": "DepositToken",
      "type": "event"
    },
    {
      "anonymous": false,
      "inputs": [
        {
          "indexed": true,
          "internalType": "address",
          "name": "previousOwner",
          "type": "address"
        },
        {
          "indexed": true,
          "internalType": "address",
          "name": "newOwner",
          "type": "address"
        }
      ],
      "name": "OwnershipTransferred",
      "type": "event"
    },
    {
      "anonymous": false,
      "inputs": [
        {
          "indexed": false,
          "internalType": "address",
          "name": "newPool",
          "type": "address"
        }
      ],
      "name": "PoolAddressChanged",
      "type": "event"
    },
    {
      "anonymous": false,
      "inputs": [
        {
          "indexed": false,
          "internalType": "address",
          "name": "protocol",
          "type": "address"
        },
        {
          "indexed": false,
          "internalType": "address",
          "name": "poolToken",
          "type": "address"
        }
      ],
      "name": "ProtocolRegistered",
      "type": "event"
    },
    {
      "anonymous": false,
      "inputs": [
        {
          "indexed": true,
          "internalType": "address",
          "name": "poolToken",
          "type": "address"
        },
        {
          "indexed": true,
          "internalType": "address",
          "name": "rewardRoken",
          "type": "address"
        },
        {
          "indexed": false,
          "internalType": "uint256",
          "name": "amount",
          "type": "uint256"
        },
        {
          "indexed": false,
          "internalType": "uint256",
          "name": "totalShares",
          "type": "uint256"
        }
      ],
      "name": "RewardDistribution",
      "type": "event"
    },
    {
      "anonymous": false,
      "inputs": [
        {
          "indexed": true,
          "internalType": "address",
          "name": "user",
          "type": "address"
        },
        {
          "indexed": true,
          "internalType": "address",
          "name": "rewardToken",
          "type": "address"
        },
        {
          "indexed": false,
          "internalType": "uint256",
          "name": "amount",
          "type": "uint256"
        }
      ],
      "name": "RewardWithdraw",
      "type": "event"
    },
    {
      "anonymous": false,
      "inputs": [
        {
          "indexed": true,
          "internalType": "address",
          "name": "protocol",
          "type": "address"
        },
        {
          "indexed": true,
          "internalType": "address",
          "name": "user",
          "type": "address"
        },
        {
          "indexed": false,
          "internalType": "uint256",
          "name": "nAmount",
          "type": "uint256"
        },
        {
          "indexed": false,
          "internalType": "uint256",
          "name": "nFee",
          "type": "uint256"
        }
      ],
      "name": "Withdraw",
      "type": "event"
    },
    {
      "anonymous": false,
      "inputs": [
        {
          "indexed": true,
          "internalType": "address",
          "name": "protocol",
          "type": "address"
        },
        {
          "indexed": true,
          "internalType": "address",
          "name": "token",
          "type": "address"
        },
        {
          "indexed": false,
          "internalType": "uint256",
          "name": "dnAmount",
          "type": "uint256"
        }
      ],
      "name": "WithdrawToken",
      "type": "event"
    },
    {
      "anonymous": false,
      "inputs": [
        {
          "indexed": true,
          "internalType": "address",
          "name": "poolToken",
          "type": "address"
        },
        {
          "indexed": false,
          "internalType": "uint256",
          "name": "amount",
          "type": "uint256"
        }
      ],
      "name": "YeldDistribution",
      "type": "event"
    },
    {
      "constant": true,
      "inputs": [],
      "name": "DISTRIBUTION_AGGREGATION_PERIOD",
      "outputs": [
        {
          "internalType": "uint256",
          "name": "",
          "type": "uint256"
        }
      ],
      "payable": false,
      "stateMutability": "view",
      "type": "function"
    },
    {
      "constant": true,
      "inputs": [
        {
          "internalType": "string",
          "name": "module",
          "type": "string"
        }
      ],
      "name": "getModuleAddress",
      "outputs": [
        {
          "internalType": "address",
          "name": "",
          "type": "address"
        }
      ],
      "payable": false,
      "stateMutability": "view",
      "type": "function"
    },
    {
      "constant": true,
      "inputs": [],
      "name": "isOwner",
      "outputs": [
        {
          "internalType": "bool",
          "name": "",
          "type": "bool"
        }
      ],
      "payable": false,
      "stateMutability": "view",
      "type": "function"
    },
    {
      "constant": true,
      "inputs": [],
      "name": "owner",
      "outputs": [
        {
          "internalType": "address",
          "name": "",
          "type": "address"
        }
      ],
      "payable": false,
      "stateMutability": "view",
      "type": "function"
    },
    {
      "constant": true,
      "inputs": [],
      "name": "pool",
      "outputs": [
        {
          "internalType": "address",
          "name": "",
          "type": "address"
        }
      ],
      "payable": false,
      "stateMutability": "view",
      "type": "function"
    },
    {
      "constant": false,
      "inputs": [
        {
          "internalType": "address",
          "name": "user",
          "type": "address"
        }
      ],
      "name": "poolTokenBalanceChanged",
      "outputs": [],
      "payable": false,
      "stateMutability": "nonpayable",
      "type": "function"
    },
    {
      "constant": false,
      "inputs": [],
      "name": "renounceOwnership",
      "outputs": [],
      "payable": false,
      "stateMutability": "nonpayable",
      "type": "function"
    },
    {
      "constant": true,
      "inputs": [
        {
          "internalType": "address",
          "name": "user",
          "type": "address"
        },
        {
          "internalType": "address",
          "name": "poolToken",
          "type": "address"
        },
        {
          "internalType": "address",
          "name": "rewardToken",
          "type": "address"
        }
      ],
      "name": "rewardBalanceOf",
      "outputs": [
        {
          "internalType": "uint256",
          "name": "amounts",
          "type": "uint256"
        }
      ],
      "payable": false,
      "stateMutability": "view",
      "type": "function"
    },
    {
      "constant": true,
      "inputs": [
        {
          "internalType": "address",
          "name": "user",
          "type": "address"
        },
        {
          "internalType": "address[]",
          "name": "rewardTokens",
          "type": "address[]"
        }
      ],
      "name": "rewardBalanceOf",
      "outputs": [
        {
          "internalType": "uint256[]",
          "name": "",
          "type": "uint256[]"
        }
      ],
      "payable": false,
      "stateMutability": "view",
      "type": "function"
    },
    {
      "constant": true,
      "inputs": [
        {
          "internalType": "address",
          "name": "user",
          "type": "address"
        },
        {
          "internalType": "address",
          "name": "poolToken",
          "type": "address"
        },
        {
          "internalType": "address[]",
          "name": "rewardTokens",
          "type": "address[]"
        }
      ],
      "name": "rewardBalanceOf",
      "outputs": [
        {
          "internalType": "uint256[]",
          "name": "",
          "type": "uint256[]"
        }
      ],
      "payable": false,
      "stateMutability": "view",
      "type": "function"
    },
    {
      "constant": false,
      "inputs": [
        {
          "internalType": "address",
          "name": "_pool",
          "type": "address"
        }
      ],
      "name": "setPool",
      "outputs": [],
      "payable": false,
      "stateMutability": "nonpayable",
      "type": "function"
    },
    {
      "constant": false,
      "inputs": [
        {
          "internalType": "address",
          "name": "newOwner",
          "type": "address"
        }
      ],
      "name": "transferOwnership",
      "outputs": [],
      "payable": false,
      "stateMutability": "nonpayable",
      "type": "function"
    },
    {
      "constant": false,
      "inputs": [
        {
          "internalType": "address",
          "name": "user",
          "type": "address"
        },
        {
          "internalType": "uint256",
          "name": "toDistribution",
          "type": "uint256"
        }
      ],
      "name": "updateRewardBalance",
      "outputs": [],
      "payable": false,
      "stateMutability": "nonpayable",
      "type": "function"
    },
    {
      "constant": false,
      "inputs": [
        {
          "internalType": "address",
          "name": "user",
          "type": "address"
        }
      ],
      "name": "updateRewardBalance",
      "outputs": [],
      "payable": false,
      "stateMutability": "nonpayable",
      "type": "function"
    },
    {
      "constant": false,
      "inputs": [
        {
          "internalType": "address",
          "name": "poolToken",
          "type": "address"
        },
        {
          "internalType": "address",
          "name": "rewardToken",
          "type": "address"
        }
      ],
      "name": "withdrawReward",
      "outputs": [
        {
          "internalType": "uint256",
          "name": "",
          "type": "uint256"
        }
      ],
      "payable": false,
      "stateMutability": "nonpayable",
      "type": "function"
    },
    {
      "constant": false,
      "inputs": [
        {
          "internalType": "address",
          "name": "rewardToken",
          "type": "address"
        }
      ],
      "name": "withdrawReward",
      "outputs": [
        {
          "internalType": "uint256",
          "name": "",
          "type": "uint256"
        }
      ],
      "payable": false,
      "stateMutability": "nonpayable",
      "type": "function"
    },
    {
      "constant": false,
      "inputs": [],
      "name": "withdrawReward",
      "outputs": [
        {
          "internalType": "uint256[]",
          "name": "",
          "type": "uint256[]"
        }
      ],
      "payable": false,
      "stateMutability": "nonpayable",
      "type": "function"
    },
    {
      "constant": false,
      "inputs": [
        {
          "internalType": "address[]",
          "name": "rewardTokens",
          "type": "address[]"
        }
      ],
      "name": "withdrawReward",
      "outputs": [
        {
          "internalType": "uint256[]",
          "name": "",
          "type": "uint256[]"
        }
      ],
      "payable": false,
      "stateMutability": "nonpayable",
      "type": "function"
    },
    {
      "constant": false,
      "inputs": [],
      "name": "initialize",
      "outputs": [],
      "payable": false,
      "stateMutability": "nonpayable",
      "type": "function"
    },
    {
      "constant": false,
      "inputs": [
        {
          "internalType": "address",
          "name": "_pool",
          "type": "address"
        }
      ],
      "name": "initialize",
      "outputs": [],
      "payable": false,
      "stateMutability": "nonpayable",
      "type": "function"
    },
    {
      "constant": false,
      "inputs": [
        {
          "internalType": "contract IDefiProtocol",
          "name": "protocol",
          "type": "address"
        },
        {
          "internalType": "contract PoolToken",
          "name": "poolToken",
          "type": "address"
        }
      ],
      "name": "registerProtocol",
      "outputs": [],
      "payable": false,
      "stateMutability": "nonpayable",
      "type": "function"
    },
    {
      "constant": false,
      "inputs": [
        {
          "internalType": "address",
          "name": "_protocol",
          "type": "address"
        },
        {
          "internalType": "address[]",
          "name": "_tokens",
          "type": "address[]"
        },
        {
          "internalType": "uint256[]",
          "name": "_dnAmounts",
          "type": "uint256[]"
        }
      ],
      "name": "deposit",
      "outputs": [
        {
          "internalType": "uint256",
          "name": "",
          "type": "uint256"
        }
      ],
      "payable": false,
      "stateMutability": "nonpayable",
      "type": "function"
    },
    {
      "constant": false,
      "inputs": [
        {
          "internalType": "address[]",
          "name": "_protocols",
          "type": "address[]"
        },
        {
          "internalType": "address[]",
          "name": "_tokens",
          "type": "address[]"
        },
        {
          "internalType": "uint256[]",
          "name": "_dnAmounts",
          "type": "uint256[]"
        }
      ],
      "name": "deposit",
      "outputs": [
        {
          "internalType": "uint256[]",
          "name": "",
          "type": "uint256[]"
        }
      ],
      "payable": false,
      "stateMutability": "nonpayable",
      "type": "function"
    },
    {
      "constant": false,
      "inputs": [
        {
          "internalType": "address",
          "name": "_protocol",
          "type": "address"
        },
        {
          "internalType": "uint256",
          "name": "nAmount",
          "type": "uint256"
        }
      ],
      "name": "withdrawAll",
      "outputs": [
        {
          "internalType": "uint256",
          "name": "",
          "type": "uint256"
        }
      ],
      "payable": false,
      "stateMutability": "nonpayable",
      "type": "function"
    },
    {
      "constant": false,
      "inputs": [
        {
          "internalType": "address",
          "name": "_protocol",
          "type": "address"
        },
        {
          "internalType": "address",
          "name": "token",
          "type": "address"
        },
        {
          "internalType": "uint256",
          "name": "dnAmount",
          "type": "uint256"
        },
        {
          "internalType": "uint256",
          "name": "maxNAmount",
          "type": "uint256"
        }
      ],
      "name": "withdraw",
      "outputs": [
        {
          "internalType": "uint256",
          "name": "",
          "type": "uint256"
        }
      ],
      "payable": false,
      "stateMutability": "nonpayable",
      "type": "function"
    },
    {
      "constant": false,
      "inputs": [],
      "name": "distributeYeld",
      "outputs": [],
      "payable": false,
      "stateMutability": "nonpayable",
      "type": "function"
    },
    {
      "constant": false,
      "inputs": [],
      "name": "distributeRewards",
      "outputs": [],
      "payable": false,
      "stateMutability": "nonpayable",
      "type": "function"
    },
    {
      "constant": true,
      "inputs": [
        {
          "internalType": "address",
          "name": "_protocol",
          "type": "address"
        }
      ],
      "name": "poolTokenByProtocol",
      "outputs": [
        {
          "internalType": "address",
          "name": "",
          "type": "address"
        }
      ],
      "payable": false,
      "stateMutability": "view",
      "type": "function"
    },
    {
      "constant": true,
      "inputs": [
        {
          "internalType": "address",
          "name": "_protocol",
          "type": "address"
        }
      ],
      "name": "protocolByPoolToken",
      "outputs": [
        {
          "internalType": "address",
          "name": "",
          "type": "address"
        }
      ],
      "payable": false,
      "stateMutability": "view",
      "type": "function"
    },
    {
      "constant": true,
      "inputs": [
        {
          "internalType": "address",
          "name": "_protocol",
          "type": "address"
        }
      ],
      "name": "rewardTokensByProtocol",
      "outputs": [
        {
          "internalType": "address[]",
          "name": "",
          "type": "address[]"
        }
      ],
      "payable": false,
      "stateMutability": "view",
      "type": "function"
    },
    {
      "constant": true,
      "inputs": [],
      "name": "registeredPoolTokens",
      "outputs": [
        {
          "internalType": "address[]",
          "name": "poolTokens",
          "type": "address[]"
        }
      ],
      "payable": false,
      "stateMutability": "view",
      "type": "function"
    },
    {
      "constant": true,
      "inputs": [],
      "name": "supportedRewardTokens",
      "outputs": [
        {
          "internalType": "address[]",
          "name": "",
          "type": "address[]"
        }
      ],
      "payable": false,
      "stateMutability": "view",
      "type": "function"
    }
  ],
  "bytecode": "0x60806040526144e5806100136000396000f3fe608060405234801561001057600080fd5b50600436106101f05760003560e01c8063913dceb21161010f578063c8992e01116100a2578063d2d2127811610071578063d2d2127814610a07578063d9180a0014610ac3578063f238cd2214610acb578063f2fde38b14610ad3576101f0565b8063c8992e01146108ec578063c9b0d08114610912578063cc6dbc2714610938578063d212a64214610964576101f0565b8063b86e321c116100de578063b86e321c14610872578063c4d66de814610898578063c7055e0b146108be578063c885bc58146108e4576101f0565b8063913dceb21461066d578063984a94bb14610693578063a17826eb1461069b578063b11092c2146106c7576101f0565b80636ded1f1d116101875780637bfe950c116101565780637bfe950c146106055780638129fc1c146106415780638da5cb5b146106495780638f32d59b14610651576101f0565b80636ded1f1d146105475780636f4a2cd01461054f578063715018a61461055757806371dc760f1461055f576101f0565b80634df864a8116101c35780634df864a8146102b95780634eba0383146103bc578063536108c3146103e2578063562fa0df14610410576101f0565b806316f0115b146101f557806328a09ba014610219578063298da420146102495780634437152a14610293575b600080fd5b6101fd610af9565b604080516001600160a01b039092168252519081900360200190f35b6102476004803603604081101561022f57600080fd5b506001600160a01b0381358116916020013516610b08565b005b6102816004803603606081101561025f57600080fd5b506001600160a01b0381358116916020810135821691604090910135166113af565b60408051918252519081900360200190f35b610247600480360360208110156102a957600080fd5b50356001600160a01b03166114ad565b61036c600480360360408110156102cf57600080fd5b6001600160a01b0382351691908101906040810160208201356401000000008111156102fa57600080fd5b82018360208201111561030c57600080fd5b8035906020019184602083028401116401000000008311171561032e57600080fd5b9190808060200260200160405190810160405280939291908181526020018383602002808284376000920191909152509295506115b7945050505050565b60408051602080825283518183015283519192839290830191858101910280838360005b838110156103a8578181015183820152602001610390565b505050509050019250505060405180910390f35b61036c600480360360208110156103d257600080fd5b50356001600160a01b0316611699565b610281600480360360408110156103f857600080fd5b506001600160a01b0381358116916020013516611713565b6102816004803603606081101561042657600080fd5b6001600160a01b03823516919081019060408101602082013564010000000081111561045157600080fd5b82018360208201111561046357600080fd5b8035906020019184602083028401116401000000008311171561048557600080fd5b91908080602002602001604051908101604052809392919081815260200183836020028082843760009201919091525092959493602081019350359150506401000000008111156104d557600080fd5b8201836020820111156104e757600080fd5b8035906020019184602083028401116401000000008311171561050957600080fd5b91908080602002602001604051908101604052809392919081815260200183836020028082843760009201919091525092955061173c945050505050565b61036c611907565b6102476119b4565b6102476119f6565b6101fd6004803603602081101561057557600080fd5b81019060208101813564010000000081111561059057600080fd5b8201836020820111156105a257600080fd5b803590602001918460018302840111640100000000831117156105c457600080fd5b91908080601f016020809104026020016040519081016040528093929190818152602001838380828437600092019190915250929550611ab1945050505050565b6102816004803603608081101561061b57600080fd5b506001600160a01b03813581169160208101359091169060408101359060600135611cf0565b610247611ee2565b6101fd611f93565b610659611fa3565b604080519115158252519081900360200190f35b6101fd6004803603602081101561068357600080fd5b50356001600160a01b0316611fc9565b610247611fe7565b610247600480360360408110156106b157600080fd5b506001600160a01b038135169060200135612027565b61036c600480360360608110156106dd57600080fd5b8101906020810181356401000000008111156106f857600080fd5b82018360208201111561070a57600080fd5b8035906020019184602083028401116401000000008311171561072c57600080fd5b919080806020026020016040519081016040528093929190818152602001838360200280828437600092019190915250929594936020810193503591505064010000000081111561077c57600080fd5b82018360208201111561078e57600080fd5b803590602001918460208302840111640100000000831117156107b057600080fd5b919080806020026020016040519081016040528093929190818152602001838360200280828437600092019190915250929594936020810193503591505064010000000081111561080057600080fd5b82018360208201111561081257600080fd5b8035906020019184602083028401116401000000008311171561083457600080fd5b919080806020026020016040519081016040528093929190818152602001838360200280828437600092019190915250929550612035945050505050565b6102816004803603602081101561088857600080fd5b50356001600160a01b03166121b4565b610247600480360360208110156108ae57600080fd5b50356001600160a01b03166121db565b610247600480360360208110156108d457600080fd5b50356001600160a01b0316612286565b61036c612294565b6101fd6004803603602081101561090257600080fd5b50356001600160a01b03166122ab565b6102476004803603602081101561092857600080fd5b50356001600160a01b03166122c9565b6102816004803603604081101561094e57600080fd5b506001600160a01b0381351690602001356123e0565b61036c6004803603602081101561097a57600080fd5b81019060208101813564010000000081111561099557600080fd5b8201836020820111156109a757600080fd5b803590602001918460208302840111640100000000831117156109c957600080fd5b91908080602002602001604051908101604052809392919081815260200183836020028082843760009201919091525092955061255f945050505050565b61036c60048036036060811015610a1d57600080fd5b6001600160a01b038235811692602081013590911691810190606081016040820135640100000000811115610a5157600080fd5b820183602082011115610a6357600080fd5b80359060200191846020830284011164010000000083111715610a8557600080fd5b9190808060200260200160405190810160405280939291908181526020018383602002808284376000920191909152509295506125f6945050505050565b61036c612663565b6102816126c5565b61024760048036036020811015610ae957600080fd5b50356001600160a01b03166126cc565b6066546001600160a01b031681565b610b10611fa3565b610b61576040805162461bcd60e51b815260206004820181905260248201527f4f776e61626c653a2063616c6c6572206973206e6f7420746865206f776e6572604482015290519081900360640190fd5b60005b606a54811015610bdf57826001600160a01b0316606a8281548110610b8557fe5b6000918252602090912001546001600160a01b03161415610bd75760405162461bcd60e51b815260040180806020018281038252602a8152602001806143a9602a913960400191505060405180910390fd5b600101610b64565b606a805460018101825560009182527f116fea137db6e131133e7f2bab296045d8f41cc5607279db17b218cab0929a510180547fffffffffffffffffffffffff0000000000000000000000000000000000000000166001600160a01b0386811691821790925560408051608081018252928616835280517f628cb95e0000000000000000000000000000000000000000000000000000000081529051929360208086019463628cb95e93600480820194918390030190829087803b158015610ca657600080fd5b505af1158015610cba573d6000803e3d6000fd5b505050506040513d6020811015610cd057600080fd5b50518152600060208201819052604080517fd9180a00000000000000000000000000000000000000000000000000000000008152815191909301926001600160a01b0388169263d9180a0092600480840193829003018186803b158015610d3657600080fd5b505afa158015610d4a573d6000803e3d6000fd5b505050506040513d6000823e601f3d908101601f191682016040526020811015610d7357600080fd5b8101908080516040519392919084640100000000821115610d9357600080fd5b908301906020820185811115610da857600080fd5b8251866020820283011164010000000082111715610dc557600080fd5b82525081516020918201928201910280838360005b83811015610df2578181015183820152602001610dda565b50505050919091016040908152949095525050506001600160a01b038681166000908152606d602090815290839020855181547fffffffffffffffffffffffff000000000000000000000000000000000000000016931692909217825584810151600183015591840151600282015560608401518051919350610e7c9260038501929101906141a7565b506000925050505b6001600160a01b0383166000908152606d6020526040902060030154811015610f84576001600160a01b0383166000908152606d60205260408120600301805483908110610ece57fe5b60009182526020808320909101546001600160a01b0316808352606f90915260409091205490915060ff16610f7b576001600160a01b0381166000818152606f60205260408120805460ff19166001908117909155606b805491820181559091527fbd43cb8ece8cd1863bcd6082d65c5b0d25665b1ce17980f0da43c0ed545f98b40180547fffffffffffffffffffffffff00000000000000000000000000000000000000001690911790555b50600101610e84565b6001600160a01b038281166000908152606e602052604080822080547fffffffffffffffffffffffff000000000000000000000000000000000000000016938716938417905580517fb002249d00000000000000000000000000000000000000000000000000000000815290516060939263b002249d9260048082019391829003018186803b15801561101657600080fd5b505afa15801561102a573d6000803e3d6000fd5b505050506040513d6000823e601f3d908101601f19168201604052602081101561105357600080fd5b810190808051604051939291908464010000000082111561107357600080fd5b90830190602082018581111561108857600080fd5b82518660208202830111640100000000821117156110a557600080fd5b82525081516020918201928201910280838360005b838110156110d25781810151838201526020016110ba565b505050509050016040525050509050600091505b805182101561122b5760008183815181106110fd57fe5b602002602001015190506111108161272e565b61121f57606980546001810182556000919091527f7fb4302e8e91f9110a6554c2c0a24601252c2a42c2220ca988efcfe3999143080180547fffffffffffffffffffffffff0000000000000000000000000000000000000000166001600160a01b038316908117909155604080517f313ce567000000000000000000000000000000000000000000000000000000008152905163313ce56791600480820192602092909190829003018186803b1580156111c957600080fd5b505afa1580156111dd573d6000803e3d6000fd5b505050506040513d60208110156111f357600080fd5b50516001600160a01b0382166000908152606c60205260409020805460ff191660ff9092169190911790555b506001909101906110e6565b6001600160a01b0384166000908152606d60205260409020600101548015611363576000846001600160a01b03166318160ddd6040518163ffffffff1660e01b815260040160206040518083038186803b15801561128857600080fd5b505afa15801561129c573d6000803e3d6000fd5b505050506040513d60208110156112b257600080fd5b505190508181101561136157846001600160a01b03166340c10f196112d5612789565b6112e5858563ffffffff61278d16565b6040518363ffffffff1660e01b815260040180836001600160a01b03166001600160a01b0316815260200182815260200192505050602060405180830381600087803b15801561133457600080fd5b505af1158015611348573d6000803e3d6000fd5b505050506040513d602081101561135e57600080fd5b50505b505b604080516001600160a01b0380881682528616602082015281517fd6c91941062a66dc4c4344f6b10af4b565b256816a2f9080ba7f83e1d6a2bdc6929181900390910190a15050505050565b6001600160a01b03808416600090815260686020908152604080832086851684526002810183528184209486168452918490528220548154929391925b6067548110156114a25760006067828154811061140557fe5b60009182526020808320600490920290910180546001600160a01b0316835260018801909152604090912054909150806114405750506113ec565b6001600160a01b038816600090815260038301602052604090205460018301546114919061148490611478848663ffffffff6127cf16565b9063ffffffff61282816565b869063ffffffff61286a16565b945050600190920191506113ec9050565b509695505050505050565b6114b5611fa3565b611506576040805162461bcd60e51b815260206004820181905260248201527f4f776e61626c653a2063616c6c6572206973206e6f7420746865206f776e6572604482015290519081900360640190fd5b6001600160a01b03811661154b5760405162461bcd60e51b81526004018080602001828103825260228152602001806143036022913960400191505060405180910390fd5b606680546001600160a01b0383167fffffffffffffffffffffffff0000000000000000000000000000000000000000909116811790915560408051918252517f5b36800c27524690807962bd42525a44e68b3f860e8f9e0204f27e777d2f46059181900360200190a150565b60608082516040519080825280602002602001820160405280156115e5578160200160208202803883390190505b50905060606115f2611907565b905060005b845181101561168d5760005b8251811015611684576116626116408885848151811061161f57fe5b602002602001015189868151811061163357fe5b60200260200101516113af565b85848151811061164c57fe5b602002602001015161286a90919063ffffffff16565b84838151811061166e57fe5b6020908102919091010152600190910190611603565b506001016115f7565b50909150505b92915050565b6001600160a01b0381166000908152606d602090815260409182902060030180548351818402810184019094528084526060939283018282801561170657602002820191906000526020600020905b81546001600160a01b031681526001909101906020018083116116e8575b505050505090505b919050565b60008061171e612789565b905061172981612286565b6117348185856128c4565b949350505050565b600061174784612a4e565b600061175285612a87565b905061175f858585612be3565b600061176a86612d79565b6001600160a01b038088166000908152606d602052604081205492935091169061179a838563ffffffff61278d16565b9050816001600160a01b03166340c10f196117b3612789565b836040518363ffffffff1660e01b815260040180836001600160a01b03166001600160a01b0316815260200182815260200192505050602060405180830381600087803b15801561180357600080fd5b505af1158015611817573d6000803e3d6000fd5b505050506040513d602081101561182d57600080fd5b5060009050805b88518110156118875761187d6118708a838151811061184f57fe5b60200260200101518a848151811061186357fe5b6020026020010151612e09565b839063ffffffff61286a16565b9150600101611834565b5060008282116118985760006118a8565b6118a8828463ffffffff61278d16565b90506118b2612789565b604080518481526020810184905281516001600160a01b03938416938e16927fdcbc1c05240f31ff3ad067ef1ee35ce4997762752e3a095284754544f4c709d7928290030190a3509098975050505050505050565b606a546040805182815260208084028201019091526060918015611935578160200160208202803883390190505b50905060005b81518110156119b057606d6000606a838154811061195557fe5b60009182526020808320909101546001600160a01b039081168452908301939093526040909101902054835191169083908390811061199057fe5b6001600160a01b039092166020928302919091019091015260010161193b565b5090565b60005b606a548110156119f3576119eb606a82815481106119d157fe5b6000918252602090912001546001600160a01b0316612a4e565b6001016119b7565b50565b6119fe611fa3565b611a4f576040805162461bcd60e51b815260206004820181905260248201527f4f776e61626c653a2063616c6c6572206973206e6f7420746865206f776e6572604482015290519081900360640190fd5b6033546040516000916001600160a01b0316907f8be0079c531659141344cd1fd0a4f28419497f9722a3daafe3b4186f6b6457e0908390a3603380547fffffffffffffffffffffffff0000000000000000000000000000000000000000169055565b6066546000906001600160a01b0316611b11576040805162461bcd60e51b815260206004820152600f60248201527f4d6f64756c653a206e6f20706f6f6c0000000000000000000000000000000000604482015290519081900360640190fd5b6066546040516020602482018181528551604484015285516000946060946001600160a01b03909116938893928392606401918501908083838b5b83811015611b64578181015183820152602001611b4c565b50505050905090810190601f168015611b915780820380516001836020036101000a031916815260200191505b5060408051601f198184030181529181526020820180517bffffffffffffffffffffffffffffffffffffffffffffffffffffffff167f693ec85e00000000000000000000000000000000000000000000000000000000178152905182519295509350839250908083835b60208310611c1a5780518252601f199092019160209182019101611bfb565b6001836020036101000a038019825116818451168082178552505050505050905001915050600060405180830381855afa9150503d8060008114611c7a576040519150601f19603f3d011682016040523d82523d6000602084013e611c7f565b606091505b509150915081611c90578060208201fd5b6000818060200190516020811015611ca757600080fd5b505190506001600160a01b0381166117345760405162461bcd60e51b81526004018080602001828103825260228152602001806144276022913960400191505060405180910390fd5b6000611cfb85612a4e565b6000611d0686612a87565b9050611d1b611d13612789565b878787612ea4565b6000611d2687612d79565b90506000611d3a838363ffffffff61278d16565b9050841580611d495750848111155b611d845760405162461bcd60e51b815260040180806020018281038252602e815260200180614257602e913960400191505060405180910390fd5b6001600160a01b038089166000908152606d602052604090205416806379cc6790611dad612789565b846040518363ffffffff1660e01b815260040180836001600160a01b03166001600160a01b0316815260200182815260200192505050600060405180830381600087803b158015611dfd57600080fd5b505af1158015611e11573d6000803e3d6000fd5b505050506000611e218989612f35565b90506000818411611e33576000611e37565b8184035b9050896001600160a01b03168b6001600160a01b03167f037238854fe57fbf51f09946f854fc3916fe83938d6521f09bd05463839f13048b6040518082815260200191505060405180910390a3611e8c612789565b604080518681526020810184905281516001600160a01b03938416938f16927ff341246adaac6f497bc2a656f546ab9e182111d630394f0c57c710a59a2cb567928290030190a350919998505050505050505050565b600054610100900460ff1680611efb5750611efb612fc1565b80611f09575060005460ff16155b611f445760405162461bcd60e51b815260040180806020018281038252602e81526020018061437b602e913960400191505060405180910390fd5b600054610100900460ff16158015611f6f576000805460ff1961ff0019909116610100171660011790555b611f7f611f7a612789565b612fc7565b80156119f3576000805461ff001916905550565b6033546001600160a01b03165b90565b6033546000906001600160a01b0316611fba612789565b6001600160a01b031614905090565b6001600160a01b039081166000908152606d60205260409020541690565b60005b606a548110156119f35761201e606a828154811061200457fe5b6000918252602090912001546001600160a01b0316612a87565b50600101611fea565b61203182826130d0565b5050565b606082518451148015612049575081518351145b6120845760405162461bcd60e51b815260040180806020018281038252602c8152602001806143d3602c913960400191505060405180910390fd5b606084516040519080825280602002602001820160405280156120b1578160200160208202803883390190505b50905060005b85518110156121ab57604080516001808252818301909252606091602080830190803883390190505090508582815181106120ee57fe5b60200260200101518160008151811061210357fe5b6001600160a01b039092166020928302919091019091015260408051600180825281830190925260609181602001602082028038833901905050905085838151811061214b57fe5b60200260200101518160008151811061216057fe5b60200260200101818152505061218a88848151811061217b57fe5b6020026020010151838361173c565b84848151811061219657fe5b602090810291909101015250506001016120b7565b50949350505050565b6000806121bf612789565b90506121ca81612286565b6121d4818461326e565b9392505050565b600054610100900460ff16806121f457506121f4612fc1565b80612202575060005460ff16155b61223d5760405162461bcd60e51b815260040180806020018281038252602e81526020018061437b602e913960400191505060405180910390fd5b600054610100900460ff16158015612268576000805460ff1961ff0019909116610100171660011790555b6122718261345f565b8015612031576000805461ff00191690555050565b6067546119f39082906130d0565b60606122a66122a1612663565b61255f565b905090565b6001600160a01b039081166000908152606e60205260409020541690565b60006122d3612789565b90506122de816134fd565b6123195760405162461bcd60e51b81526004018080602001828103825260308152602001806142ad6030913960400191505060405180910390fd5b6067546123279083906130d0565b6000816001600160a01b031663780fa8cf846040518263ffffffff1660e01b815260040180826001600160a01b03166001600160a01b0316815260200191505060206040518083038186803b15801561237f57600080fd5b505afa158015612393573d6000803e3d6000fd5b505050506040513d60208110156123a957600080fd5b50516001600160a01b0393841660009081526068602090815260408083209590961682526001909401909352929091209190915550565b60006123eb83612a4e565b6001600160a01b038084166000908152606d60205260408120549091169061241285612a87565b905061242761241f612789565b868684613563565b600061243286612d79565b90506000612446838363ffffffff61278d16565b9050858111156124875760405162461bcd60e51b81526004018080602001828103825260288152602001806143ff6028913960400191505060405180910390fd5b836001600160a01b03166379cc679061249e612789565b836040518363ffffffff1660e01b815260040180836001600160a01b03166001600160a01b0316815260200182815260200192505050600060405180830381600087803b1580156124ee57600080fd5b505af1158015612502573d6000803e3d6000fd5b5050505061250e612789565b604080518381526000602082015281516001600160a01b03938416938b16927ff341246adaac6f497bc2a656f546ab9e182111d630394f0c57c710a59a2cb567928290030190a39695505050505050565b6060600061256b612789565b90506060835160405190808252806020026020018201604052801561259a578160200160208202803883390190505b5090506125a682612286565b60005b84518110156125ee576125cf838683815181106125c257fe5b602002602001015161326e565b8282815181106125db57fe5b60209081029190910101526001016125a9565b509392505050565b6060808251604051908082528060200260200182016040528015612624578160200160208202803883390190505b50905060005b83518110156121ab57612644868686848151811061163357fe5b82828151811061265057fe5b602090810291909101015260010161262a565b6060606b8054806020026020016040519081016040528092919081815260200182805480156126bb57602002820191906000526020600020905b81546001600160a01b0316815260019091019060200180831161269d575b5050505050905090565b6201518081565b6126d4611fa3565b612725576040805162461bcd60e51b815260206004820181905260248201527f4f776e61626c653a2063616c6c6572206973206e6f7420746865206f776e6572604482015290519081900360640190fd5b6119f381613935565b6000805b60695481101561278057826001600160a01b03166069828154811061275357fe5b6000918252602090912001546001600160a01b0316141561277857600191505061170e565b600101612732565b50600092915050565b3390565b60006121d483836040518060400160405280601e81526020017f536166654d6174683a207375627472616374696f6e206f766572666c6f7700008152506139ee565b6000826127de57506000611693565b828202828482816127eb57fe5b04146121d45760405162461bcd60e51b815260040180806020018281038252602181526020018061435a6021913960400191505060405180910390fd5b60006121d483836040518060400160405280601a81526020017f536166654d6174683a206469766973696f6e206279207a65726f000000000000815250613a85565b6000828201838110156121d4576040805162461bcd60e51b815260206004820152601b60248201527f536166654d6174683a206164646974696f6e206f766572666c6f770000000000604482015290519081900360640190fd5b6001600160a01b03808416600090815260686020908152604080832086851684526002018252808320938516835292905290812054806129355760405162461bcd60e51b81526004018080602001828103825260288152602001806142856028913960400191505060405180910390fd5b6001600160a01b038086166000908152606860209081526040808320888516845260020182528083209387168352929052908120819055612975856122ab565b604080517fb9c3da0f0000000000000000000000000000000000000000000000000000000081526001600160a01b03878116600483015289811660248301526044820186905291519293509083169163b9c3da0f9160648082019260009290919082900301818387803b1580156129eb57600080fd5b505af11580156129ff573d6000803e3d6000fd5b50506040805185815290516001600160a01b0380891694508a1692507fe7062738465eeb94a11a1c866287066f7856dc0f5456df494663dfd4483b4c599181900360200190a350949350505050565b612a5781613aea565b612a60576119f3565b6001600160a01b0381166000908152606d6020526040902042600282015561203182613b23565b600080826001600160a01b031663628cb95e6040518163ffffffff1660e01b8152600401602060405180830381600087803b158015612ac557600080fd5b505af1158015612ad9573d6000803e3d6000fd5b505050506040513d6020811015612aef57600080fd5b50516001600160a01b038085166000908152606d60205260409020805460018201549394509092911690831115612bda576000612b3983600101548561278d90919063ffffffff16565b9050816001600160a01b03166391c05b0b826040518263ffffffff1660e01b815260040180828152602001915050600060405180830381600087803b158015612b8157600080fd5b505af1158015612b95573d6000803e3d6000fd5b50506040805184815290516001600160a01b03861693507f5c0b6e5d37b64faf9320ee08f233af605535651d8fa9e3e3b206b27ebc94f53392509081900360200190a2505b50909392505050565b8051825114612c235760405162461bcd60e51b815260040180806020018281038252603e815260200180614449603e913960400191505060405180910390fd5b60005b8251811015612d73576000838281518110612c3d57fe5b60200260200101519050612c81612c52612789565b86858581518110612c5f57fe5b6020026020010151846001600160a01b0316613cfd909392919063ffffffff16565b846001600160a01b03166359e8dc9782858581518110612c9d57fe5b60200260200101516040518363ffffffff1660e01b815260040180836001600160a01b03166001600160a01b0316815260200182815260200192505050600060405180830381600087803b158015612cf457600080fd5b505af1158015612d08573d6000803e3d6000fd5b50505050806001600160a01b0316856001600160a01b03167f4b3f81827ede20c81afbf1bb77b954afcdcae24d391d99042310cb1d9210dd57858581518110612d4d57fe5b60200260200101516040518082815260200191505060405180910390a350600101612c26565b50505050565b600080826001600160a01b031663628cb95e6040518163ffffffff1660e01b8152600401602060405180830381600087803b158015612db757600080fd5b505af1158015612dcb573d6000803e3d6000fd5b505050506040513d6020811015612de157600080fd5b50516001600160a01b0384166000908152606d60205260409020600101819055915050919050565b6001600160a01b0382166000908152606c602052604081205460ff166012811415612e375782915050611693565b6012811115612e7d57612e75837fffffffffffffffffffffffffffffffffffffffffffffffffffffffffffffffee8301600a0a63ffffffff61282816565b915050611693565b6012811015612e9d57612e75836012839003600a0a63ffffffff6127cf16565b5092915050565b604080517fd9caed120000000000000000000000000000000000000000000000000000000081526001600160a01b03868116600483015284811660248301526044820184905291519185169163d9caed129160648082019260009290919082900301818387803b158015612f1757600080fd5b505af1158015612f2b573d6000803e3d6000fd5b5050505050505050565b6001600160a01b0382166000908152606c602052604081205460ff166012811415612f635782915050611693565b6012811115612fa157612e75837fffffffffffffffffffffffffffffffffffffffffffffffffffffffffffffffee8301600a0a63ffffffff6127cf16565b6012811015612e9d57612e75836012839003600a0a63ffffffff61282816565b303b1590565b600054610100900460ff1680612fe05750612fe0612fc1565b80612fee575060005460ff16155b6130295760405162461bcd60e51b815260040180806020018281038252602e81526020018061437b602e913960400191505060405180910390fd5b600054610100900460ff16158015613054576000805460ff1961ff0019909116610100171660011790555b603380547fffffffffffffffffffffffff0000000000000000000000000000000000000000166001600160a01b0384811691909117918290556040519116906000907f8be0079c531659141344cd1fd0a4f28419497f9722a3daafe3b4186f6b6457e0908290a38015612031576000805461ff00191690555050565b6067548111156131115760405162461bcd60e51b81526004018080602001828103825260358152602001806143256035913960400191505060405180910390fd5b6001600160a01b03821660009081526068602052604090208054828110613139575050612031565b828110156132685760006067828154811061315057fe5b60009182526020808320600490920290910180546001600160a01b03168352600186019091526040909120549091508061318b575050613139565b81546001600160a01b031660009081526002850160205260408120905b60028401548110156132585760008460020182815481106131c557fe5b60009182526020808320909101546001600160a01b0316808352600388019091526040909120546001870154919250906132329061320d90611478848963ffffffff6127cf16565b6001600160a01b0384166000908152602087905260409020549063ffffffff61286a16565b6001600160a01b03909216600090815260208590526040902091909155506001016131a8565b5050600190920191506131399050565b90555050565b6000606061327a611907565b90506000805b82518110156133cc57600083828151811061329757fe5b6020908102919091018101516001600160a01b03808a16600090815260688452604080822083851683526002018552808220928b168252919093529091205490915080156133c2576132ef848263ffffffff61286a16565b6001600160a01b03808a16600090815260686020908152604080832087851684526002018252808320938c168352929052908120819055909450613332836122ab565b604080517fb9c3da0f0000000000000000000000000000000000000000000000000000000081526001600160a01b038b811660048301528c811660248301526044820189905291519293509083169163b9c3da0f9160648082019260009290919082900301818387803b1580156133a857600080fd5b505af11580156133bc573d6000803e3d6000fd5b50505050505b5050600101613280565b506000811161340c5760405162461bcd60e51b81526004018080602001828103825260288152602001806142856028913960400191505060405180910390fd5b836001600160a01b0316856001600160a01b03167fe7062738465eeb94a11a1c866287066f7856dc0f5456df494663dfd4483b4c59836040518082815260200191505060405180910390a3949350505050565b600054610100900460ff16806134785750613478612fc1565b80613486575060005460ff16155b6134c15760405162461bcd60e51b815260040180806020018281038252602e81526020018061437b602e913960400191505060405180910390fd5b600054610100900460ff161580156134ec576000805460ff1961ff0019909116610100171660011790555b6134f4611ee2565b612271826114ad565b6000805b606a54811015612780576000606a828154811061351a57fe5b60009182526020808320909101546001600160a01b03908116808452606d9092526040909220549092508116908516141561355a5760019250505061170e565b50600101613501565b6060836001600160a01b031663208e509f6040518163ffffffff1660e01b8152600401600060405180830381600087803b1580156135a057600080fd5b505af11580156135b4573d6000803e3d6000fd5b505050506040513d6000823e601f3d908101601f1916820160405260208110156135dd57600080fd5b81019080805160405193929190846401000000008211156135fd57600080fd5b90830190602082018581111561361257600080fd5b825186602082028301116401000000008211171561362f57600080fd5b82525081516020918201928201910280838360005b8381101561365c578181015183820152602001613644565b50505050905001604052505050905060608151604051908082528060200260200182016040528015613698578160200160208202803883390190505b5090506060856001600160a01b031663b002249d6040518163ffffffff1660e01b815260040160006040518083038186803b1580156136d657600080fd5b505afa1580156136ea573d6000803e3d6000fd5b505050506040513d6000823e601f3d908101601f19168201604052602081101561371357600080fd5b810190808051604051939291908464010000000082111561373357600080fd5b90830190602082018581111561374857600080fd5b825186602082028301116401000000008211171561376557600080fd5b82525081516020918201928201910280838360005b8381101561379257818101518382015260200161377a565b50505050905001604052505050905060008090505b825181101561386b576137da85611478888785815181106137c457fe5b60200260200101516127cf90919063ffffffff16565b8382815181106137e657fe5b6020026020010181815250508181815181106137fe57fe5b60200260200101516001600160a01b0316876001600160a01b03167f037238854fe57fbf51f09946f854fc3916fe83938d6521f09bd05463839f130485848151811061384657fe5b60200260200101516040518082815260200191505060405180910390a36001016137a7565b50604080517f8293744b0000000000000000000000000000000000000000000000000000000081526001600160a01b038981166004830190815260248301938452855160448401528551918a1693638293744b938c9388939291606401906020808601910280838360005b838110156138ee5781810151838201526020016138d6565b505050509050019350505050600060405180830381600087803b15801561391457600080fd5b505af1158015613928573d6000803e3d6000fd5b5050505050505050505050565b6001600160a01b03811661397a5760405162461bcd60e51b81526004018080602001828103825260268152602001806142dd6026913960400191505060405180910390fd5b6033546040516001600160a01b038084169216907f8be0079c531659141344cd1fd0a4f28419497f9722a3daafe3b4186f6b6457e090600090a3603380547fffffffffffffffffffffffff0000000000000000000000000000000000000000166001600160a01b0392909216919091179055565b60008184841115613a7d5760405162461bcd60e51b81526004018080602001828103825283818151815260200191508051906020019080838360005b83811015613a42578181015183820152602001613a2a565b50505050905090810190601f168015613a6f5780820380516001836020036101000a031916815260200191505b509250505060405180910390fd5b505050900390565b60008183613ad45760405162461bcd60e51b8152602060048201818152835160248401528351909283926044909101919085019080838360008315613a42578181015183820152602001613a2a565b506000838581613ae057fe5b0495945050505050565b6001600160a01b0381166000908152606d60205260408120600201546201518090613b1c90429063ffffffff61278d16565b1192915050565b606080826001600160a01b031663372500ab6040518163ffffffff1660e01b8152600401600060405180830381600087803b158015613b6157600080fd5b505af1158015613b75573d6000803e3d6000fd5b505050506040513d6000823e601f3d908101601f191682016040908152811015613b9e57600080fd5b8101908080516040519392919084640100000000821115613bbe57600080fd5b908301906020820185811115613bd357600080fd5b8251866020820283011164010000000082111715613bf057600080fd5b82525081516020918201928201910280838360005b83811015613c1d578181015183820152602001613c05565b5050505090500160405260200180516040519392919084640100000000821115613c4657600080fd5b908301906020820185811115613c5b57600080fd5b8251866020820283011164010000000082111715613c7857600080fd5b82525081516020918201928201910280838360005b83811015613ca5578181015183820152602001613c8d565b505050509050016040525050509150915060008251118015613cdb5750600081600081518110613cd157fe5b6020026020010151115b15613cf8576000613ceb84611fc9565b9050612d73818484613d85565b505050565b604080516001600160a01b0385811660248301528416604482015260648082018490528251808303909101815260849091019091526020810180517bffffffffffffffffffffffffffffffffffffffffffffffffffffffff167f23b872dd00000000000000000000000000000000000000000000000000000000179052612d73908590613fb6565b60676040518060600160405280856001600160a01b03168152602001856001600160a01b03166329b05c6f6040518163ffffffff1660e01b815260040160206040518083038186803b158015613dda57600080fd5b505afa158015613dee573d6000803e3d6000fd5b505050506040513d6020811015613e0457600080fd5b50518152602090810185905282546001808201808655600095865294839020845160049093020180547fffffffffffffffffffffffff0000000000000000000000000000000000000000166001600160a01b039093169290921782558383015190820155604083015180519192613e83926002850192909101906141a7565b5050606780547fffffffffffffffffffffffffffffffffffffffffffffffffffffffffffffffff810193506000925083908110613ebc57fe5b60009182526020822060049091020191505b8451811015613fae57838181518110613ee357fe5b6020026020010151826003016000878481518110613efd57fe5b60200260200101516001600160a01b03166001600160a01b0316815260200190815260200160002081905550848181518110613f3557fe5b60200260200101516001600160a01b0316866001600160a01b03167f32e8bfe23f496c1b2d343899dcf994defa422887b247f106fa478c9ae68f8993868481518110613f7d57fe5b60200260200101518560010154604051808381526020018281526020019250505060405180910390a3600101613ece565b505050505050565b613fc8826001600160a01b031661416e565b614019576040805162461bcd60e51b815260206004820152601f60248201527f5361666545524332303a2063616c6c20746f206e6f6e2d636f6e747261637400604482015290519081900360640190fd5b60006060836001600160a01b0316836040518082805190602001908083835b602083106140575780518252601f199092019160209182019101614038565b6001836020036101000a0380198251168184511680821785525050505050509050019150506000604051808303816000865af19150503d80600081146140b9576040519150601f19603f3d011682016040523d82523d6000602084013e6140be565b606091505b509150915081614115576040805162461bcd60e51b815260206004820181905260248201527f5361666545524332303a206c6f772d6c6576656c2063616c6c206661696c6564604482015290519081900360640190fd5b805115612d735780806020019051602081101561413157600080fd5b5051612d735760405162461bcd60e51b815260040180806020018281038252602a815260200180614487602a913960400191505060405180910390fd5b6000813f7fc5d2460186f7233c927e7db2dcc703c0e500b653ca82273b7bfad8045d85a470818114801590611734575050151592915050565b828054828255906000526020600020908101928215614214579160200282015b8281111561421457825182547fffffffffffffffffffffffff0000000000000000000000000000000000000000166001600160a01b039091161782556020909201916001909101906141c7565b506119b092611fa09250905b808211156119b05780547fffffffffffffffffffffffff000000000000000000000000000000000000000016815560010161422056fe536176696e67734d6f64756c653a2070726f7669646564206d61784e416d6f756e7420697320746f6f2068696768526577617264446973747269627574696f6e733a206e6f7468696e6720746f207769746864726177526577617264446973747269627574696f6e733a20506f6f6c546f6b656e206973206e6f7420726567697374657265644f776e61626c653a206e6577206f776e657220697320746865207a65726f20616464726573734d6f64756c653a20706f6f6c20616464726573732063616e2774206265207a65726f526577617264446973747269627574696f6e733a20746f446973747269627574696f6e20696e64657820697320746f6f2068696768536166654d6174683a206d756c7469706c69636174696f6e206f766572666c6f77436f6e747261637420696e7374616e63652068617320616c7265616479206265656e20696e697469616c697a6564536176696e67734d6f64756c653a2070726f746f636f6c20616c72656164792072656769737465726564536176696e67734d6f64756c653a2073697a65206f662061727261797320646f6573206e6f74206d61746368536176696e67734d6f64756c653a20756e6578706563746564207769746864726177616c206665654d6f64756c653a20726571756573746564206d6f64756c65206e6f7420666f756e64536176696e67734d6f64756c653a20636f756e74206f6620746f6b656e7320646f6573206e6f74206d6174636820636f756e74206f6620616d6f756e74735361666545524332303a204552433230206f7065726174696f6e20646964206e6f742073756363656564a265627a7a72315820d22d395c358729706ab01c39b77a0524600ed7e23b1da1faec47d3fe23108aaa64736f6c63430005110032",
  "source": "pragma solidity ^0.5.12;\n\nimport \"@openzeppelin/contracts-ethereum-package/contracts/math/SafeMath.sol\";\nimport \"@openzeppelin/contracts-ethereum-package/contracts/token/ERC20/IERC20.sol\";\nimport \"@openzeppelin/contracts-ethereum-package/contracts/token/ERC20/ERC20Detailed.sol\";\nimport \"@openzeppelin/contracts-ethereum-package/contracts/token/ERC20/SafeERC20.sol\";\nimport \"../../interfaces/defi/IDefiProtocol.sol\";\nimport \"../../common/Module.sol\";\nimport \"../token/PoolToken.sol\";\nimport \"./RewardDistributions.sol\";\n\ncontract SavingsModule is Module, RewardDistributions {\n    uint256 constant MAX_UINT256 = uint256(-1);\n    uint256 public constant DISTRIBUTION_AGGREGATION_PERIOD = 24*60*60;\n\n    event ProtocolRegistered(address protocol, address poolToken);\n    event YeldDistribution(address indexed poolToken, uint256 amount);\n    event DepositToken(address indexed protocol, address indexed token, uint256 dnAmount);\n    event Deposit(address indexed protocol, address indexed user, uint256 nAmount, uint256 nFee);\n    event WithdrawToken(address indexed protocol, address indexed token, uint256 dnAmount);\n    event Withdraw(address indexed protocol, address indexed user, uint256 nAmount, uint256 nFee);\n\n    using SafeERC20 for IERC20;\n    using SafeMath for uint256;\n\n    struct ProtocolInfo {\n        PoolToken poolToken;\n        uint256 previousBalance;\n        uint256 lastRewardDistribution;\n        address[] supportedRewardTokens;\n    }\n\n    struct TokenData {\n        uint8 decimals;\n    }\n\n    address[] registeredTokens;\n    IDefiProtocol[] registeredProtocols;\n    address[] registeredRewardTokens;\n    mapping(address => TokenData) tokens;\n    mapping(address => ProtocolInfo) protocols; //Mapping of protocol to data we need to calculate APY and do distributions\n    mapping(address => address) poolTokenToProtocol;    //Mapping of pool tokens to protocols\n    mapping(address => bool) private rewardTokenRegistered;     //marks registered reward tokens\n\n    function initialize(address _pool) public initializer {\n        Module.initialize(_pool);\n    }\n\n    function registerProtocol(IDefiProtocol protocol, PoolToken poolToken) public onlyOwner {\n        uint256 i;\n        for (i = 0; i < registeredProtocols.length; i++){\n            if (address(registeredProtocols[i]) == address(protocol)) revert(\"SavingsModule: protocol already registered\");\n        }\n        registeredProtocols.push(protocol);\n        protocols[address(protocol)] = ProtocolInfo({\n            poolToken: poolToken,\n            previousBalance: protocol.normalizedBalance(),\n            lastRewardDistribution: 0,\n            supportedRewardTokens: protocol.supportedRewardTokens()\n        });\n        for(i=0; i < protocols[address(protocol)].supportedRewardTokens.length; i++) {\n            address rtkn = protocols[address(protocol)].supportedRewardTokens[i];\n            if(!rewardTokenRegistered[rtkn]){\n                rewardTokenRegistered[rtkn] = true;\n                registeredRewardTokens.push(rtkn);\n            }\n        }\n        poolTokenToProtocol[address(poolToken)] = address(protocol);\n        address[] memory supportedTokens = protocol.supportedTokens();\n        for (i = 0; i < supportedTokens.length; i++) {\n            address tkn = supportedTokens[i];\n            if (!isTokenRegistered(tkn)){\n                registeredTokens.push(tkn);\n                tokens[tkn].decimals = ERC20Detailed(tkn).decimals();\n            }\n        }\n        uint256 normalizedBalance= protocols[address(protocol)].previousBalance;\n        if(normalizedBalance > 0) {\n            uint256 ts = poolToken.totalSupply();\n            if(ts < normalizedBalance) {\n                poolToken.mint(_msgSender(), normalizedBalance.sub(ts));\n            }\n        }\n        emit ProtocolRegistered(address(protocol), address(poolToken));\n    }\n\n    /**\n     * @notice Deposit tokens to several protocols\n     * @param _protocols Array of protocols to deposit tokens (each protocol only once)\n     * @param _tokens Array of tokens to deposit\n     * @param _dnAmounts Array of amounts (denormalized to token decimals)\n     */\n    function deposit(address[] memory _protocols, address[] memory _tokens, uint256[] memory _dnAmounts) public returns(uint256[] memory) {\n        require(_protocols.length == _tokens.length && _tokens.length == _dnAmounts.length, \"SavingsModule: size of arrays does not match\");\n        uint256[] memory ptAmounts = new uint256[](_protocols.length);\n        for (uint256 i=0; i < _protocols.length; i++) {\n            address[] memory tkns = new address[](1);\n            tkns[0] = _tokens[i];\n            uint256[] memory amnts = new uint256[](1);\n            amnts[0] = _dnAmounts[i];\n            ptAmounts[i] = deposit(_protocols[i], tkns, amnts);\n        }\n        return ptAmounts;\n    }\n\n    /**\n     * @notice Deposit tokens to a protocol\n     * @param _protocol Protocol to deposit tokens\n     * @param _tokens Array of tokens to deposit\n     * @param _dnAmounts Array of amounts (denormalized to token decimals)\n     */\n    function deposit(address _protocol, address[] memory _tokens, uint256[] memory _dnAmounts) public returns(uint256) {\n        distributeRewardIfRequired(_protocol);\n\n        uint256 nBalanceBefore = distributeYeldInternal(_protocol);\n        depositToProtocol(_protocol, _tokens, _dnAmounts);\n        uint256 nBalanceAfter = updateProtocolBalance(_protocol);\n\n        PoolToken poolToken = PoolToken(protocols[_protocol].poolToken);\n        uint256 nDeposit = nBalanceAfter.sub(nBalanceBefore);\n        poolToken.mint(_msgSender(), nDeposit);\n\n        uint256 nAmount;\n        for (uint256 i=0; i < _tokens.length; i++) {\n            nAmount = nAmount.add(normalizeTokenAmount(_tokens[i], _dnAmounts[i]));\n        }\n        uint256 fee = (nAmount > nDeposit)?nAmount.sub(nDeposit):0;\n        emit Deposit(_protocol, _msgSender(), nAmount, fee);\n        return nDeposit;\n    }\n\n    function depositToProtocol(address _protocol, address[] memory _tokens, uint256[] memory _dnAmounts) internal {\n        require(_tokens.length == _dnAmounts.length, \"SavingsModule: count of tokens does not match count of amounts\");\n        for (uint256 i=0; i < _tokens.length; i++) {\n            address tkn = _tokens[i];\n            IERC20(tkn).safeTransferFrom(_msgSender(), _protocol, _dnAmounts[i]);\n            IDefiProtocol(_protocol).handleDeposit(tkn, _dnAmounts[i]);\n            emit DepositToken(_protocol, tkn, _dnAmounts[i]);\n        }\n    }\n\n    /**\n     * Withdraw tokens from protocol (all underlying tokens proportiaonally)\n     * @param _protocol Protocol to withdraw from\n     * @param nAmount Normalized (to 18 decimals) amount to withdraw\n     * @return Amount of PoolToken burned from user\n     */\n    function withdrawAll(address _protocol, uint256 nAmount) public returns(uint256) {\n        distributeRewardIfRequired(_protocol);\n\n        PoolToken poolToken = PoolToken(protocols[_protocol].poolToken);\n\n        uint256 nBalanceBefore = distributeYeldInternal(_protocol);\n        withdrawFromProtocolProportionally(_msgSender(), IDefiProtocol(_protocol), nAmount, nBalanceBefore);\n        uint256 nBalanceAfter = updateProtocolBalance(_protocol);\n\n        uint256 actualAmount = nBalanceBefore.sub(nBalanceAfter);\n        require(actualAmount <= nAmount, \"SavingsModule: unexpected withdrawal fee\");\n        poolToken.burnFrom(_msgSender(), actualAmount);\n        emit Withdraw(_protocol, _msgSender(), actualAmount, 0);\n        return actualAmount;\n    }\n\n    /**\n     * Withdraw token from protocol\n     * @param _protocol Protocol to withdraw from\n     * @param token Token to withdraw\n     * @param dnAmount Amount to withdraw (denormalized)\n     * @param maxNAmount Max amount of PoolToken to burn\n     * @return Amount of PoolToken burned from user\n     */\n    function withdraw(address _protocol, address token, uint256 dnAmount, uint256 maxNAmount) public returns(uint256){\n        distributeRewardIfRequired(_protocol);\n\n        uint256 nBalanceBefore = distributeYeldInternal(_protocol);\n        withdrawFromProtocolOne(_msgSender(), IDefiProtocol(_protocol), token, dnAmount);\n        uint256 nBalanceAfter = updateProtocolBalance(_protocol);\n\n        uint256 nAmount = nBalanceBefore.sub(nBalanceAfter);\n        require(maxNAmount == 0 || nAmount <= maxNAmount, \"SavingsModule: provided maxNAmount is too high\");\n        PoolToken poolToken = PoolToken(protocols[_protocol].poolToken);\n        poolToken.burnFrom(_msgSender(), nAmount);\n\n        uint256 nAmountWithoutFee = denormalizeTokenAmount(token, dnAmount);\n        uint256 fee = (nAmount > nAmountWithoutFee)?(nAmount-nAmountWithoutFee):0;\n        emit WithdrawToken(_protocol, token, dnAmount);\n        emit Withdraw(_protocol, _msgSender(), nAmount, fee);\n        return nAmount;\n    }\n\n    /** \n     * @notice Distributes yeld. May be called by bot, if there was no deposits/withdrawals\n     */\n    function distributeYeld() public {\n        for(uint256 i=0; i<registeredProtocols.length; i++) {\n            distributeYeldInternal(address(registeredProtocols[i]));\n        }\n    }\n\n    /** \n     * @notice Distributes reward tokens. May be called by bot, if there was no deposits/withdrawals\n     */\n    function distributeRewards() public {\n        for(uint256 i=0; i<registeredProtocols.length; i++) {\n            distributeRewardIfRequired(address(registeredProtocols[i]));\n        }\n    }\n\n    function poolTokenByProtocol(address _protocol) public view returns(address) {\n        return address(protocols[_protocol].poolToken);\n    }\n\n    function protocolByPoolToken(address _protocol) public view returns(address) {\n        return poolTokenToProtocol[_protocol];\n    }\n\n    function rewardTokensByProtocol(address _protocol) public view returns(address[] memory) {\n        return protocols[_protocol].supportedRewardTokens;\n    }\n\n    function registeredPoolTokens() public view returns(address[] memory poolTokens) {\n        poolTokens = new address[](registeredProtocols.length);\n        for(uint256 i=0; i<poolTokens.length; i++){\n            poolTokens[i] = address(protocols[address(registeredProtocols[i])].poolToken);\n        }\n    }\n\n    function supportedRewardTokens() public view returns(address[] memory) {\n        return registeredRewardTokens;\n    }\n\n    function withdrawFromProtocolProportionally(address beneficiary, IDefiProtocol protocol, uint256 nAmount, uint256 currentProtocolBalance) internal {\n        uint256[] memory balances = protocol.balanceOfAll();\n        uint256[] memory amounts = new uint256[](balances.length);\n        address[] memory _tokens = protocol.supportedTokens();\n        for (uint256 i = 0; i < amounts.length; i++) {\n            amounts[i] = balances[i].mul(nAmount).div(currentProtocolBalance);\n            emit WithdrawToken(address(protocol), _tokens[i], amounts[i]);\n        }\n        protocol.withdraw(beneficiary, amounts);\n    }\n\n    function withdrawFromProtocolOne(address beneficiary, IDefiProtocol protocol, address token, uint256 dnAmount) internal {\n        protocol.withdraw(beneficiary, token, dnAmount);\n    }\n\n    /**\n     * @notice Calculates difference from previous action with a protocol and distributes yeld\n     * @dev MUST call this BEFORE deposit/withdraw from protocol\n     * @param _protocol to check\n     * @return Current balance of the protocol\n     */\n    function distributeYeldInternal(address _protocol) internal returns(uint256){\n        uint256 currentBalance = IDefiProtocol(_protocol).normalizedBalance();\n        ProtocolInfo storage pi = protocols[_protocol];\n        PoolToken poolToken = PoolToken(pi.poolToken);\n        if(currentBalance > pi.previousBalance) {\n            uint256 yeld = currentBalance.sub(pi.previousBalance);\n            poolToken.distribute(yeld);\n            emit YeldDistribution(address(poolToken), yeld);\n        }\n        return currentBalance;\n    }\n\n    function distributeRewardIfRequired(address _protocol) internal {\n        if(!isRewardDistributionRequired(_protocol)) return;\n        ProtocolInfo storage pi = protocols[_protocol];\n        pi.lastRewardDistribution = now;\n        distributeReward(_protocol);\n    }\n\n    /**\n     * @notice Updates balance with result of deposit/withdraw\n     * @dev MUST call this AFTER deposit/withdraw from protocol\n     * @param _protocol to update\n     * @return Current balance of the protocol\n     */\n    function updateProtocolBalance(address _protocol) internal returns(uint256){\n        uint256 currentBalance = IDefiProtocol(_protocol).normalizedBalance();\n        protocols[_protocol].previousBalance = currentBalance;\n        return currentBalance;\n    }\n\n    function isTokenRegistered(address token) private view returns(bool) {\n        for (uint256 i = 0; i < registeredTokens.length; i++){\n            if (registeredTokens[i] == token) return true;\n        }\n        return false;\n    }\n\n    function isPoolToken(address token) internal view returns(bool) {\n        for (uint256 i = 0; i < registeredProtocols.length; i++){\n            IDefiProtocol protocol = registeredProtocols[i];\n            if (address(protocols[address(protocol)].poolToken) == token) return true;\n        }\n        return false;\n    }\n\n    function isRewardDistributionRequired(address _protocol) internal view returns(bool) {\n        return now.sub(protocols[_protocol].lastRewardDistribution) > DISTRIBUTION_AGGREGATION_PERIOD;\n    }\n\n    function normalizeTokenAmount(address token, uint256 amount) private view returns(uint256) {\n        uint256 decimals = tokens[token].decimals;\n        if (decimals == 18) {\n            return amount;\n        } else if (decimals > 18) {\n            return amount.div(10**(decimals-18));\n        } else if (decimals < 18) {\n            return amount.mul(10**(18 - decimals));\n        }\n    }\n\n    function denormalizeTokenAmount(address token, uint256 amount) private view returns(uint256) {\n        uint256 decimals = tokens[token].decimals;\n        if (decimals == 18) {\n            return amount;\n        } else if (decimals > 18) {\n            return amount.mul(10**(decimals-18));\n        } else if (decimals < 18) {\n            return amount.div(10**(18 - decimals));\n        }\n    }\n\n}\n",
  "sourcePath": "/Users/ilya/Documents/Akropolis/dca-strategy-bot/contracts/modules/savings/SavingsModule.sol",
  "compiler": {
    "name": "solc",
    "version": "0.5.17+commit.d19bba13.Emscripten.clang"
  },
  "schemaVersion": "3.2.3",
  "updatedAt": "2020-08-07T09:48:50.067Z",
  "devdoc": {
    "methods": {
      "deposit(address,address[],uint256[])": {
        "params": {
          "_dnAmounts": "Array of amounts (denormalized to token decimals)",
          "_protocol": "Protocol to deposit tokens",
          "_tokens": "Array of tokens to deposit"
        }
      },
      "deposit(address[],address[],uint256[])": {
        "params": {
          "_dnAmounts": "Array of amounts (denormalized to token decimals)",
          "_protocols": "Array of protocols to deposit tokens (each protocol only once)",
          "_tokens": "Array of tokens to deposit"
        }
      },
      "isOwner()": {
        "details": "Returns true if the caller is the current owner."
      },
      "owner()": {
        "details": "Returns the address of the current owner."
      },
      "renounceOwnership()": {
        "details": "Leaves the contract without owner. It will not be possible to call `onlyOwner` functions anymore. Can only be called by the current owner.     * > Note: Renouncing ownership will leave the contract without an owner, thereby removing any functionality that is only available to the owner."
      },
      "transferOwnership(address)": {
        "details": "Transfers ownership of the contract to a new account (`newOwner`). Can only be called by the current owner."
      },
      "updateRewardBalance(address)": {
        "params": {
          "user": "User address "
        }
      },
      "updateRewardBalance(address,uint256)": {
        "params": {
          "toDistribution": "Index of distribution next to the last one, which should be processed",
          "user": "User address "
        }
      },
      "withdraw(address,address,uint256,uint256)": {
        "params": {
          "_protocol": "Protocol to withdraw from",
          "dnAmount": "Amount to withdraw (denormalized)",
          "maxNAmount": "Max amount of PoolToken to burn",
          "token": "Token to withdraw"
        },
        "return": "Amount of PoolToken burned from user"
      },
      "withdrawAll(address,uint256)": {
        "params": {
          "_protocol": "Protocol to withdraw from",
          "nAmount": "Normalized (to 18 decimals) amount to withdraw"
        },
        "return": "Amount of PoolToken burned from user"
      },
      "withdrawReward(address)": {
        "params": {
          "rewardToken": "Token to withdraw"
        }
      },
      "withdrawReward(address[])": {
        "params": {
          "rewardTokens": "Array of tokens to withdraw"
        }
      }
    }
  },
  "userdoc": {
    "methods": {
      "deposit(address,address[],uint256[])": {
        "notice": "Deposit tokens to a protocol"
      },
      "deposit(address[],address[],uint256[])": {
        "notice": "Deposit tokens to several protocols"
      },
      "distributeRewards()": {
        "notice": "Distributes reward tokens. May be called by bot, if there was no deposits/withdrawals"
      },
      "distributeYeld()": {
        "notice": "Distributes yeld. May be called by bot, if there was no deposits/withdrawals"
      },
      "updateRewardBalance(address)": {
        "notice": "Updates user balance"
      },
      "updateRewardBalance(address,uint256)": {
        "notice": "Updates user balance"
      },
      "withdraw(address,address,uint256,uint256)": {
        "notice": "Withdraw token from protocol"
      },
      "withdrawAll(address,uint256)": {
        "notice": "Withdraw tokens from protocol (all underlying tokens proportiaonally)"
      },
      "withdrawReward(address)": {
        "notice": "Withdraw reward tokens for user"
      },
      "withdrawReward(address[])": {
        "notice": "Withdraw reward tokens for user"
      }
    }
  }
}