{
  "contractName": "StakingPool",
  "abi": [
    {
      "anonymous": false,
      "inputs": [
        {
          "indexed": true,
          "internalType": "address",
          "name": "previousOwner",
          "type": "address"
        },
        {
          "indexed": true,
          "internalType": "address",
          "name": "newOwner",
          "type": "address"
        }
      ],
      "name": "OwnershipTransferred",
      "type": "event"
    },
    {
      "anonymous": false,
      "inputs": [
        {
          "indexed": false,
          "internalType": "address",
          "name": "newPool",
          "type": "address"
        }
      ],
      "name": "PoolAddressChanged",
      "type": "event"
    },
    {
      "anonymous": false,
      "inputs": [
        {
          "indexed": true,
          "internalType": "address",
          "name": "user",
          "type": "address"
        },
        {
          "indexed": false,
          "internalType": "uint256",
          "name": "amount",
          "type": "uint256"
        },
        {
          "indexed": false,
          "internalType": "uint256",
          "name": "total",
          "type": "uint256"
        },
        {
          "indexed": false,
          "internalType": "bytes",
          "name": "data",
          "type": "bytes"
        }
      ],
      "name": "Staked",
      "type": "event"
    },
    {
      "anonymous": false,
      "inputs": [
        {
          "indexed": true,
          "internalType": "address",
          "name": "user",
          "type": "address"
        },
        {
          "indexed": false,
          "internalType": "uint256",
          "name": "amount",
          "type": "uint256"
        },
        {
          "indexed": false,
          "internalType": "uint256",
          "name": "total",
          "type": "uint256"
        },
        {
          "indexed": false,
          "internalType": "bytes",
          "name": "data",
          "type": "bytes"
        }
      ],
      "name": "Unstaked",
      "type": "event"
    },
    {
      "constant": true,
      "inputs": [],
      "name": "defaultLockInDuration",
      "outputs": [
        {
          "internalType": "uint256",
          "name": "",
          "type": "uint256"
        }
      ],
      "payable": false,
      "stateMutability": "view",
      "type": "function"
    },
    {
      "constant": true,
      "inputs": [
        {
          "internalType": "string",
          "name": "module",
          "type": "string"
        }
      ],
      "name": "getModuleAddress",
      "outputs": [
        {
          "internalType": "address",
          "name": "",
          "type": "address"
        }
      ],
      "payable": false,
      "stateMutability": "view",
      "type": "function"
    },
    {
      "constant": true,
      "inputs": [],
      "name": "isOwner",
      "outputs": [
        {
          "internalType": "bool",
          "name": "",
          "type": "bool"
        }
      ],
      "payable": false,
      "stateMutability": "view",
      "type": "function"
    },
    {
      "constant": true,
      "inputs": [],
      "name": "owner",
      "outputs": [
        {
          "internalType": "address",
          "name": "",
          "type": "address"
        }
      ],
      "payable": false,
      "stateMutability": "view",
      "type": "function"
    },
    {
      "constant": true,
      "inputs": [],
      "name": "pool",
      "outputs": [
        {
          "internalType": "address",
          "name": "",
          "type": "address"
        }
      ],
      "payable": false,
      "stateMutability": "view",
      "type": "function"
    },
    {
      "constant": false,
      "inputs": [],
      "name": "renounceOwnership",
      "outputs": [],
      "payable": false,
      "stateMutability": "nonpayable",
      "type": "function"
    },
    {
      "constant": false,
      "inputs": [
        {
          "internalType": "address",
          "name": "_pool",
          "type": "address"
        }
      ],
      "name": "setPool",
      "outputs": [],
      "payable": false,
      "stateMutability": "nonpayable",
      "type": "function"
    },
    {
      "constant": true,
      "inputs": [
        {
          "internalType": "address",
          "name": "",
          "type": "address"
        }
      ],
      "name": "stakeHolders",
      "outputs": [
        {
          "internalType": "uint256",
          "name": "totalStakedFor",
          "type": "uint256"
        },
        {
          "internalType": "uint256",
          "name": "personalStakeIndex",
          "type": "uint256"
        },
        {
          "internalType": "bool",
          "name": "exists",
          "type": "bool"
        }
      ],
      "payable": false,
      "stateMutability": "view",
      "type": "function"
    },
    {
      "constant": false,
      "inputs": [
        {
          "internalType": "address",
          "name": "newOwner",
          "type": "address"
        }
      ],
      "name": "transferOwnership",
      "outputs": [],
      "payable": false,
      "stateMutability": "nonpayable",
      "type": "function"
    },
    {
      "constant": false,
      "inputs": [
        {
          "internalType": "address",
          "name": "_pool",
          "type": "address"
        },
        {
          "internalType": "contract ERC20",
          "name": "_stakingToken",
          "type": "address"
        }
      ],
      "name": "initialize",
      "outputs": [],
      "payable": false,
      "stateMutability": "nonpayable",
      "type": "function"
    },
    {
      "constant": false,
      "inputs": [],
      "name": "initialize",
      "outputs": [],
      "payable": false,
      "stateMutability": "nonpayable",
      "type": "function"
    },
    {
      "constant": false,
      "inputs": [
        {
          "internalType": "address",
          "name": "_pool",
          "type": "address"
        }
      ],
      "name": "initialize",
      "outputs": [],
      "payable": false,
      "stateMutability": "nonpayable",
      "type": "function"
    },
    {
      "constant": true,
      "inputs": [
        {
          "internalType": "address",
          "name": "_address",
          "type": "address"
        }
      ],
      "name": "getPersonalStakeUnlockedTimestamps",
      "outputs": [
        {
          "internalType": "uint256[]",
          "name": "",
          "type": "uint256[]"
        }
      ],
      "payable": false,
      "stateMutability": "view",
      "type": "function"
    },
    {
      "constant": true,
      "inputs": [
        {
          "internalType": "address",
          "name": "_address",
          "type": "address"
        }
      ],
      "name": "getPersonalStakeActualAmounts",
      "outputs": [
        {
          "internalType": "uint256[]",
          "name": "",
          "type": "uint256[]"
        }
      ],
      "payable": false,
      "stateMutability": "view",
      "type": "function"
    },
    {
      "constant": true,
      "inputs": [
        {
          "internalType": "address",
          "name": "_address",
          "type": "address"
        }
      ],
      "name": "getPersonalStakeForAddresses",
      "outputs": [
        {
          "internalType": "address[]",
          "name": "",
          "type": "address[]"
        }
      ],
      "payable": false,
      "stateMutability": "view",
      "type": "function"
    },
    {
      "constant": false,
      "inputs": [
        {
          "internalType": "uint256",
          "name": "_amount",
          "type": "uint256"
        },
        {
          "internalType": "bytes",
          "name": "_data",
          "type": "bytes"
        }
      ],
      "name": "stake",
      "outputs": [],
      "payable": false,
      "stateMutability": "nonpayable",
      "type": "function"
    },
    {
      "constant": false,
      "inputs": [
        {
          "internalType": "address",
          "name": "_user",
          "type": "address"
        },
        {
          "internalType": "uint256",
          "name": "_amount",
          "type": "uint256"
        },
        {
          "internalType": "bytes",
          "name": "_data",
          "type": "bytes"
        }
      ],
      "name": "stakeFor",
      "outputs": [],
      "payable": false,
      "stateMutability": "nonpayable",
      "type": "function"
    },
    {
      "constant": false,
      "inputs": [
        {
          "internalType": "uint256",
          "name": "_amount",
          "type": "uint256"
        },
        {
          "internalType": "bytes",
          "name": "_data",
          "type": "bytes"
        }
      ],
      "name": "unstake",
      "outputs": [],
      "payable": false,
      "stateMutability": "nonpayable",
      "type": "function"
    },
    {
      "constant": true,
      "inputs": [
        {
          "internalType": "address",
          "name": "_address",
          "type": "address"
        }
      ],
      "name": "totalStakedFor",
      "outputs": [
        {
          "internalType": "uint256",
          "name": "",
          "type": "uint256"
        }
      ],
      "payable": false,
      "stateMutability": "view",
      "type": "function"
    },
    {
      "constant": true,
      "inputs": [],
      "name": "totalStaked",
      "outputs": [
        {
          "internalType": "uint256",
          "name": "",
          "type": "uint256"
        }
      ],
      "payable": false,
      "stateMutability": "view",
      "type": "function"
    },
    {
      "constant": true,
      "inputs": [],
      "name": "token",
      "outputs": [
        {
          "internalType": "address",
          "name": "",
          "type": "address"
        }
      ],
      "payable": false,
      "stateMutability": "view",
      "type": "function"
    },
    {
      "constant": true,
      "inputs": [],
      "name": "supportsHistory",
      "outputs": [
        {
          "internalType": "bool",
          "name": "",
          "type": "bool"
        }
      ],
      "payable": false,
      "stateMutability": "pure",
      "type": "function"
    },
    {
      "constant": true,
      "inputs": [
        {
          "internalType": "address",
          "name": "_address",
          "type": "address"
        }
      ],
      "name": "getPersonalStakes",
      "outputs": [
        {
          "internalType": "uint256[]",
          "name": "",
          "type": "uint256[]"
        },
        {
          "internalType": "uint256[]",
          "name": "",
          "type": "uint256[]"
        },
        {
          "internalType": "address[]",
          "name": "",
          "type": "address[]"
        }
      ],
      "payable": false,
      "stateMutability": "view",
      "type": "function"
    }
  ],
  "bytecode": "0x6080604052611d0e806100136000396000f3fe608060405234801561001057600080fd5b506004361061018d5760003560e01c806371dc760f116100e3578063c4d66de81161008c578063e8297da211610066578063e8297da214610775578063f2fde38b1461077d578063fc0c546a146107a35761018d565b8063c4d66de81461065c578063c8fd6ed014610682578063e26ff10a1461072f5761018d565b8063817b1cd2116100bd578063817b1cd2146106445780638da5cb5b1461064c5780638f32d59b146106545761018d565b806371dc760f146105705780638033f6bc146106165780638129fc1c1461063c5761018d565b80634437152a1161014557806366e6360d1161011f57806366e6360d146105265780637033e4a61461054c578063715018a6146105685761018d565b80634437152a1461049a578063485cc955146104c05780634b341aed146104ee5761018d565b806316f0115b1161017657806316f0115b146102fc578063201d3be71461032057806320bf9620146103965761018d565b80630e89439b146101925780630ef9635614610241575b600080fd5b61023f600480360360408110156101a857600080fd5b813591908101906040810160208201356401000000008111156101ca57600080fd5b8201836020820111156101dc57600080fd5b803590602001918460018302840111640100000000831117156101fe57600080fd5b91908080601f0160208091040260200160405190810160405280939291908181526020018383808284376000920191909152509295506107ab945050505050565b005b61023f6004803603606081101561025757600080fd5b6001600160a01b038235169160208101359181019060608101604082013564010000000081111561028757600080fd5b82018360208201111561029957600080fd5b803590602001918460018302840111640100000000831117156102bb57600080fd5b91908080601f0160208091040260200160405190810160405280939291908181526020018383808284376000920191909152509295506107c4945050505050565b6103046107d7565b604080516001600160a01b039092168252519081900360200190f35b6103466004803603602081101561033657600080fd5b50356001600160a01b03166107e6565b60408051602080825283518183015283519192839290830191858101910280838360005b8381101561038257818101518382015260200161036a565b505050509050019250505060405180910390f35b6103bc600480360360208110156103ac57600080fd5b50356001600160a01b03166107fc565b60405180806020018060200180602001848103845287818151815260200191508051906020019060200280838360005b838110156104045781810151838201526020016103ec565b50505050905001848103835286818151815260200191508051906020019060200280838360005b8381101561044357818101518382015260200161042b565b50505050905001848103825285818151815260200191508051906020019060200280838360005b8381101561048257818101518382015260200161046a565b50505050905001965050505050505060405180910390f35b61023f600480360360208110156104b057600080fd5b50356001600160a01b03166109b8565b61023f600480360360408110156104d657600080fd5b506001600160a01b0381358116916020013516610ac2565b6105146004803603602081101561050457600080fd5b50356001600160a01b0316610bbf565b60408051918252519081900360200190f35b6103466004803603602081101561053c57600080fd5b50356001600160a01b0316610bda565b610554610bef565b604080519115158252519081900360200190f35b61023f610bf4565b6103046004803603602081101561058657600080fd5b8101906020810181356401000000008111156105a157600080fd5b8201836020820111156105b357600080fd5b803590602001918460018302840111640100000000831117156105d557600080fd5b91908080601f016020809104026020016040519081016040528093929190818152602001838380828437600092019190915250929550610caf945050505050565b6103466004803603602081101561062c57600080fd5b50356001600160a01b0316610f32565b61023f610f47565b610514611017565b6103046110ac565b6105546110bb565b61023f6004803603602081101561067257600080fd5b50356001600160a01b03166110e1565b61023f6004803603604081101561069857600080fd5b813591908101906040810160208201356401000000008111156106ba57600080fd5b8201836020820111156106cc57600080fd5b803590602001918460018302840111640100000000831117156106ee57600080fd5b91908080601f0160208091040260200160405190810160405280939291908181526020018383808284376000920191909152509295506111b2945050505050565b6107556004803603602081101561074557600080fd5b50356001600160a01b03166111bc565b604080519384526020840192909252151582820152519081900360600190f35b6105146111e0565b61023f6004803603602081101561079357600080fd5b50356001600160a01b03166111e6565b610304611248565b6107c06107b6611257565b836068548461125b565b5050565b6107d283836068548461125b565b505050565b6066546001600160a01b031681565b6060806107f2836107fc565b5090949350505050565b6001600160a01b038116600090815260696020908152604091829020600181015460028201548451919003808252808402820190930190935260609283928392918390828015610856578160200160208202803883390190505b509050606082604051908082528060200260200182016040528015610885578160200160208202803883390190505b5090506060836040519080825280602002602001820160405280156108b4578160200160208202803883390190505b5060018601549091505b60028601548110156109a85760008660010154820390508660020182815481106108e457fe5b90600052602060002090600302016000015485828151811061090257fe5b60200260200101818152505086600201828154811061091d57fe5b90600052602060002090600302016001015484828151811061093b57fe5b60200260200101818152505086600201828154811061095657fe5b906000526020600020906003020160020160009054906101000a90046001600160a01b031683828151811061098757fe5b6001600160a01b0390921660209283029190910190910152506001016108be565b5091989097509095509350505050565b6109c06110bb565b610a11576040805162461bcd60e51b815260206004820181905260248201527f4f776e61626c653a2063616c6c6572206973206e6f7420746865206f776e6572604482015290519081900360640190fd5b6001600160a01b038116610a565760405162461bcd60e51b8152600401808060200182810382526022815260200180611c106022913960400191505060405180910390fd5b606680546001600160a01b0383167fffffffffffffffffffffffff0000000000000000000000000000000000000000909116811790915560408051918252517f5b36800c27524690807962bd42525a44e68b3f860e8f9e0204f27e777d2f46059181900360200190a150565b600054610100900460ff1680610adb5750610adb6115a3565b80610ae9575060005460ff16155b610b245760405162461bcd60e51b815260040180806020018281038252602e815260200180611c57602e913960400191505060405180910390fd5b600054610100900460ff16158015610b6d57600080547fffffffffffffffffffffffffffffffffffffffffffffffffffffffffffffff0061ff0019909116610100171660011790555b606780547fffffffffffffffffffffffff0000000000000000000000000000000000000000166001600160a01b038416179055610ba9836110e1565b80156107d2576000805461ff0019169055505050565b6001600160a01b031660009081526069602052604090205490565b606080610be6836107fc565b50949350505050565b600090565b610bfc6110bb565b610c4d576040805162461bcd60e51b815260206004820181905260248201527f4f776e61626c653a2063616c6c6572206973206e6f7420746865206f776e6572604482015290519081900360640190fd5b6033546040516000916001600160a01b0316907f8be0079c531659141344cd1fd0a4f28419497f9722a3daafe3b4186f6b6457e0908390a3603380547fffffffffffffffffffffffff0000000000000000000000000000000000000000169055565b6066546000906001600160a01b0316610d0f576040805162461bcd60e51b815260206004820152600f60248201527f4d6f64756c653a206e6f20706f6f6c0000000000000000000000000000000000604482015290519081900360640190fd5b6066546040516020602482018181528551604484015285516000946060946001600160a01b03909116938893928392606401918501908083838b5b83811015610d62578181015183820152602001610d4a565b50505050905090810190601f168015610d8f5780820380516001836020036101000a031916815260200191505b50604080517fffffffffffffffffffffffffffffffffffffffffffffffffffffffffffffffe08184030181529181526020820180517bffffffffffffffffffffffffffffffffffffffffffffffffffffffff167f693ec85e00000000000000000000000000000000000000000000000000000000178152905182519295509350839250908083835b60208310610e5457805182527fffffffffffffffffffffffffffffffffffffffffffffffffffffffffffffffe09092019160209182019101610e17565b6001836020036101000a038019825116818451168082178552505050505050905001915050600060405180830381855afa9150503d8060008114610eb4576040519150601f19603f3d011682016040523d82523d6000602084013e610eb9565b606091505b509150915081610eca578060208201fd5b6000818060200190516020811015610ee157600080fd5b505190506001600160a01b038116610f2a5760405162461bcd60e51b8152600401808060200182810382526022815260200180611cb86022913960400191505060405180910390fd5b949350505050565b606080610f3e836107fc565b95945050505050565b600054610100900460ff1680610f605750610f606115a3565b80610f6e575060005460ff16155b610fa95760405162461bcd60e51b815260040180806020018281038252602e815260200180611c57602e913960400191505060405180910390fd5b600054610100900460ff16158015610ff257600080547fffffffffffffffffffffffffffffffffffffffffffffffffffffffffffffff0061ff0019909116610100171660011790555b611002610ffd611257565b6115a9565b8015611014576000805461ff00191690555b50565b606754604080517f70a0823100000000000000000000000000000000000000000000000000000000815230600482015290516000926001600160a01b0316916370a08231916024808301926020929190829003018186803b15801561107b57600080fd5b505afa15801561108f573d6000803e3d6000fd5b505050506040513d60208110156110a557600080fd5b5051905090565b6033546001600160a01b031690565b6033546000906001600160a01b03166110d2611257565b6001600160a01b031614905090565b600054610100900460ff16806110fa57506110fa6115a3565b80611108575060005460ff16155b6111435760405162461bcd60e51b815260040180806020018281038252602e815260200180611c57602e913960400191505060405180910390fd5b600054610100900460ff1615801561118c57600080547fffffffffffffffffffffffffffffffffffffffffffffffffffffffffffffff0061ff0019909116610100171660011790555b611194610f47565b61119d826109b8565b80156107c0576000805461ff00191690555050565b6107c082826116d0565b60696020526000908152604090208054600182015460039092015490919060ff1683565b60685481565b6111ee6110bb565b61123f576040805162461bcd60e51b815260206004820181905260248201527f4f776e61626c653a2063616c6c6572206973206e6f7420746865206f776e6572604482015290519081900360640190fd5b611014816119fb565b6067546001600160a01b031690565b3390565b611263611257565b606754604080517f23b872dd0000000000000000000000000000000000000000000000000000000081526001600160a01b038481166004830152306024830152604482018890529151879392909216916323b872dd916064808201926020929091908290030181600087803b1580156112db57600080fd5b505af11580156112ef573d6000803e3d6000fd5b505050506040513d602081101561130557600080fd5b5051611358576040805162461bcd60e51b815260206004820152600e60248201527f5374616b65207265717569726564000000000000000000000000000000000000604482015290519081900360640190fd5b60696000611364611257565b6001600160a01b0316815260208101919091526040016000206003015460ff166113e057600160696000611396611257565b6001600160a01b03168152602081019190915260400160002060030180547fffffffffffffffffffffffffffffffffffffffffffffffffffffffffffffff00169115159190911790555b6001600160a01b038616600090815260696020526040902054611409908663ffffffff611ab416565b6001600160a01b038716600090815260696020819052604082209290925561142f611257565b6001600160a01b03166001600160a01b0316815260200190815260200160002060020160405180606001604052806114708742611ab490919063ffffffff16565b815260208082018990526001600160a01b038a81166040938401819052855460018082018855600097885296849020865160039092020190815592850151958301959095559290910151600290910180547fffffffffffffffffffffffff000000000000000000000000000000000000000016919092161790557fc65e53b88159e7d2c0fc12a0600072e28ae53ff73b4c1715369c30f1609351428661151589610bbf565b866040518084815260200183815260200180602001828103825283818151815260200191508051906020019080838360005b8381101561155f578181015183820152602001611547565b50505050905090810190601f16801561158c5780820380516001836020036101000a031916815260200191505b5094505050505060405180910390a2505050505050565b303b1590565b600054610100900460ff16806115c257506115c26115a3565b806115d0575060005460ff16155b61160b5760405162461bcd60e51b815260040180806020018281038252602e815260200180611c57602e913960400191505060405180910390fd5b600054610100900460ff1615801561165457600080547fffffffffffffffffffffffffffffffffffffffffffffffffffffffffffffff0061ff0019909116610100171660011790555b603380547fffffffffffffffffffffffff0000000000000000000000000000000000000000166001600160a01b0384811691909117918290556040519116906000907f8be0079c531659141344cd1fd0a4f28419497f9722a3daafe3b4186f6b6457e0908290a380156107c0576000805461ff00191690555050565b6000606960006116de611257565b6001600160a01b03166001600160a01b031681526020019081526020016000206002016069600061170d611257565b6001600160a01b03166001600160a01b03168152602001908152602001600020600101548154811061173b57fe5b90600052602060002090600302019050428160000154111561178e5760405162461bcd60e51b8152600401808060200182810382526025815260200180611c326025913960400191505060405180910390fd5b828160010154146117d05760405162461bcd60e51b8152600401808060200182810382526033815260200180611c856033913960400191505060405180910390fd5b6067546001600160a01b031663a9059cbb6117e9611257565b856040518363ffffffff1660e01b815260040180836001600160a01b03166001600160a01b0316815260200182815260200192505050602060405180830381600087803b15801561183957600080fd5b505af115801561184d573d6000803e3d6000fd5b505050506040513d602081101561186357600080fd5b50516118b6576040805162461bcd60e51b815260206004820152601860248201527f556e61626c6520746f207769746864726177207374616b650000000000000000604482015290519081900360640190fd5b600181015460028201546001600160a01b03166000908152606960205260409020546118e79163ffffffff611b1516565b60028201546001600160a01b0316600090815260696020819052604082209290925560018301819055611918611257565b6001600160a01b03908116825260208201929092526040016000206001908101805490910190556002820154167faf01bfc8475df280aca00b578c4a948e6d95700f0db8c13365240f7f973c87548461197083610bbf565b856040518084815260200183815260200180602001828103825283818151815260200191508051906020019080838360005b838110156119ba5781810151838201526020016119a2565b50505050905090810190601f1680156119e75780820380516001836020036101000a031916815260200191505b5094505050505060405180910390a2505050565b6001600160a01b038116611a405760405162461bcd60e51b8152600401808060200182810382526026815260200180611bea6026913960400191505060405180910390fd5b6033546040516001600160a01b038084169216907f8be0079c531659141344cd1fd0a4f28419497f9722a3daafe3b4186f6b6457e090600090a3603380547fffffffffffffffffffffffff0000000000000000000000000000000000000000166001600160a01b0392909216919091179055565b600082820183811015611b0e576040805162461bcd60e51b815260206004820152601b60248201527f536166654d6174683a206164646974696f6e206f766572666c6f770000000000604482015290519081900360640190fd5b9392505050565b6000611b0e83836040518060400160405280601e81526020017f536166654d6174683a207375627472616374696f6e206f766572666c6f77000081525060008184841115611be15760405162461bcd60e51b81526004018080602001828103825283818151815260200191508051906020019080838360005b83811015611ba6578181015183820152602001611b8e565b50505050905090810190601f168015611bd35780820380516001836020036101000a031916815260200191505b509250505060405180910390fd5b50505090039056fe4f776e61626c653a206e6577206f776e657220697320746865207a65726f20616464726573734d6f64756c653a20706f6f6c20616464726573732063616e2774206265207a65726f5468652063757272656e74207374616b65206861736e277420756e6c6f636b656420796574436f6e747261637420696e7374616e63652068617320616c7265616479206265656e20696e697469616c697a656454686520756e7374616b6520616d6f756e7420646f6573206e6f74206d61746368207468652063757272656e74207374616b654d6f64756c653a20726571756573746564206d6f64756c65206e6f7420666f756e64a265627a7a7231582087e88f3e395f8a06e8220a950e7c9454b99f84b9d47faae731eebc873d37ce0b64736f6c63430005110032",
  "source": "pragma solidity ^0.5.12;\n\nimport \"@openzeppelin/contracts-ethereum-package/contracts/token/ERC20/ERC20.sol\";\nimport \"@openzeppelin/contracts-ethereum-package/contracts/math/SafeMath.sol\";\n\nimport \"./IERC900.sol\";\nimport \"../../common/Module.sol\";\n\n/**\n * @title ERC900 Simple Staking Interface basic implementation\n * @dev See https://github.com/ethereum/EIPs/blob/master/EIPS/eip-900.md\n */\ncontract StakingPool is Module, IERC900 {\n  // @TODO: deploy this separately so we don't have to deploy it multiple times for each contract\n  using SafeMath for uint256;\n\n  // Token used for staking\n  ERC20 stakingToken;\n\n  // The default duration of stake lock-in (in seconds)\n  uint256 public defaultLockInDuration;\n\n  // To save on gas, rather than create a separate mapping for totalStakedFor & personalStakes,\n  //  both data structures are stored in a single mapping for a given addresses.\n  //\n  // It's possible to have a non-existing personalStakes, but have tokens in totalStakedFor\n  //  if other users are staking on behalf of a given address.\n  mapping (address => StakeContract) public stakeHolders;\n\n  // Struct for personal stakes (i.e., stakes made by this address)\n  // unlockedTimestamp - when the stake unlocks (in seconds since Unix epoch)\n  // actualAmount - the amount of tokens in the stake\n  // stakedFor - the address the stake was staked for\n  struct Stake {\n    uint256 unlockedTimestamp;\n    uint256 actualAmount;\n    address stakedFor;\n  }\n\n  // Struct for all stake metadata at a particular address\n  // totalStakedFor - the number of tokens staked for this address\n  // personalStakeIndex - the index in the personalStakes array.\n  // personalStakes - append only array of stakes made by this address\n  // exists - whether or not there are stakes that involve this address\n  struct StakeContract {\n    uint256 totalStakedFor;\n\n    uint256 personalStakeIndex;\n\n    Stake[] personalStakes;\n\n    bool exists;\n  }\n\n  /**\n   * @dev Modifier that checks that this contract can transfer tokens from the\n   *  balance in the stakingToken contract for the given address.\n   * @dev This modifier also transfers the tokens.\n   * @param _address address to transfer tokens from\n   * @param _amount uint256 the number of tokens\n   */\n  modifier canStake(address _address, uint256 _amount) {\n    require(\n      stakingToken.transferFrom(_address, address(this), _amount),\n      \"Stake required\");\n\n    _;\n  }\n\n\n  function initialize(address _pool, ERC20 _stakingToken) public initializer {\n        stakingToken = _stakingToken;\n        Module.initialize(_pool);\n    }\n\n  /**\n   * @dev Returns the timestamps for when active personal stakes for an address will unlock\n   * @dev These accessors functions are needed until https://github.com/ethereum/web3.js/issues/1241 is solved\n   * @param _address address that created the stakes\n   * @return uint256[] array of timestamps\n   */\n  function getPersonalStakeUnlockedTimestamps(address _address) external view returns (uint256[] memory) {\n    uint256[] memory timestamps;\n    (timestamps,,) = getPersonalStakes(_address);\n\n    return timestamps;\n  }\n\n  /**\n   * @dev Returns the stake actualAmount for active personal stakes for an address\n   * @dev These accessors functions are needed until https://github.com/ethereum/web3.js/issues/1241 is solved\n   * @param _address address that created the stakes\n   * @return uint256[] array of actualAmounts\n   */\n  function getPersonalStakeActualAmounts(address _address) external view returns (uint256[] memory) {\n    uint256[] memory actualAmounts;\n    (,actualAmounts,) = getPersonalStakes(_address);\n\n    return actualAmounts;\n  }\n\n  /**\n   * @dev Returns the addresses that each personal stake was created for by an address\n   * @dev These accessors functions are needed until https://github.com/ethereum/web3.js/issues/1241 is solved\n   * @param _address address that created the stakes\n   * @return address[] array of amounts\n   */\n  function getPersonalStakeForAddresses(address _address) external view returns (address[] memory) {\n    address[] memory stakedFor;\n    (,,stakedFor) = getPersonalStakes(_address);\n\n    return stakedFor;\n  }\n\n  /**\n   * @notice Stakes a certain amount of tokens, this MUST transfer the given amount from the user\n   * @notice MUST trigger Staked event\n   * @param _amount uint256 the amount of tokens to stake\n   * @param _data bytes optional data to include in the Stake event\n   */\n  function stake(uint256 _amount, bytes memory _data) public {\n    createStake(\n      _msgSender(),\n      _amount,\n      defaultLockInDuration,\n      _data);\n  }\n\n  /**\n   * @notice Stakes a certain amount of tokens, this MUST transfer the given amount from the caller\n   * @notice MUST trigger Staked event\n   * @param _user address the address the tokens are staked for\n   * @param _amount uint256 the amount of tokens to stake\n   * @param _data bytes optional data to include in the Stake event\n   */\n  function stakeFor(address _user, uint256 _amount, bytes memory _data) public {\n    createStake(\n      _user,\n      _amount,\n      defaultLockInDuration,\n      _data);\n  }\n\n  /**\n   * @notice Unstakes a certain amount of tokens, this SHOULD return the given amount of tokens to the user, if unstaking is currently not possible the function MUST revert\n   * @notice MUST trigger Unstaked event\n   * @dev Unstaking tokens is an atomic operationeither all of the tokens in a stake, or none of the tokens.\n   * @dev Users can only unstake a single stake at a time, it is must be their oldest active stake. Upon releasing that stake, the tokens will be\n   *  transferred back to their account, and their personalStakeIndex will increment to the next active stake.\n   * @param _amount uint256 the amount of tokens to unstake\n   * @param _data bytes optional data to include in the Unstake event\n   */\n  function unstake(uint256 _amount, bytes memory _data) public {\n    withdrawStake(\n      _amount,\n      _data);\n  }\n\n  /**\n   * @notice Returns the current total of tokens staked for an address\n   * @param _address address The address to query\n   * @return uint256 The number of tokens staked for the given address\n   */\n  function totalStakedFor(address _address) public view returns (uint256) {\n    return stakeHolders[_address].totalStakedFor;\n  }\n\n  /**\n   * @notice Returns the current total of tokens staked\n   * @return uint256 The number of tokens staked in the contract\n   */\n  function totalStaked() public view returns (uint256) {\n    return stakingToken.balanceOf(address(this));\n  }\n\n  /**\n   * @notice Address of the token being used by the staking interface\n   * @return address The address of the ERC20 token used for staking\n   */\n  function token() public view returns (address) {\n    return address(stakingToken);\n  }\n\n  /**\n   * @notice MUST return true if the optional history functions are implemented, otherwise false\n   * @dev Since we don't implement the optional interface, this always returns false\n   * @return bool Whether or not the optional history functions are implemented\n   */\n  function supportsHistory() public pure returns (bool) {\n    return false;\n  }\n\n  /**\n   * @dev Helper function to get specific properties of all of the personal stakes created by an address\n   * @param _address address The address to query\n   * @return (uint256[], uint256[], address[])\n   *  timestamps array, actualAmounts array, stakedFor array\n   */\n  function getPersonalStakes(\n    address _address\n  )\n    public view\n    returns(uint256[] memory, uint256[] memory, address[] memory)\n  {\n    StakeContract storage stakeContract = stakeHolders[_address];\n\n    uint256 arraySize = stakeContract.personalStakes.length - stakeContract.personalStakeIndex;\n    uint256[] memory unlockedTimestamps = new uint256[](arraySize);\n    uint256[] memory actualAmounts = new uint256[](arraySize);\n    address[] memory stakedFor = new address[](arraySize);\n\n    for (uint256 i = stakeContract.personalStakeIndex; i < stakeContract.personalStakes.length; i++) {\n      uint256 index = i - stakeContract.personalStakeIndex;\n      unlockedTimestamps[index] = stakeContract.personalStakes[i].unlockedTimestamp;\n      actualAmounts[index] = stakeContract.personalStakes[i].actualAmount;\n      stakedFor[index] = stakeContract.personalStakes[i].stakedFor;\n    }\n\n    return (\n      unlockedTimestamps,\n      actualAmounts,\n      stakedFor\n    );\n  }\n\n  /**\n   * @dev Helper function to create stakes for a given address\n   * @param _address address The address the stake is being created for\n   * @param _amount uint256 The number of tokens being staked\n   * @param _lockInDuration uint256 The duration to lock the tokens for\n   * @param _data bytes optional data to include in the Stake event\n   */\n  function createStake(\n    address _address,\n    uint256 _amount,\n    uint256 _lockInDuration,\n    bytes memory _data)\n    internal\n    canStake(_msgSender(), _amount)\n  {\n    if (!stakeHolders[_msgSender()].exists) {\n      stakeHolders[_msgSender()].exists = true;\n    }\n\n    stakeHolders[_address].totalStakedFor = stakeHolders[_address].totalStakedFor.add(_amount);\n    stakeHolders[_msgSender()].personalStakes.push(\n      Stake(\n        block.timestamp.add(_lockInDuration),\n        _amount,\n        _address)\n      );\n\n    emit Staked(\n      _address,\n      _amount,\n      totalStakedFor(_address),\n      _data);\n  }\n\n  /**\n   * @dev Helper function to withdraw stakes for the _msgSender()\n   * @param _amount uint256 The amount to withdraw. MUST match the stake amount for the\n   *  stake at personalStakeIndex.\n   * @param _data bytes optional data to include in the Unstake event\n   */\n  function withdrawStake(\n    uint256 _amount,\n    bytes memory _data)\n    internal\n  {\n    Stake storage personalStake = stakeHolders[_msgSender()].personalStakes[stakeHolders[_msgSender()].personalStakeIndex];\n\n    // Check that the current stake has unlocked & matches the unstake amount\n    require(\n      personalStake.unlockedTimestamp <= block.timestamp,\n      \"The current stake hasn't unlocked yet\");\n\n    require(\n      personalStake.actualAmount == _amount,\n      \"The unstake amount does not match the current stake\");\n\n    // Transfer the staked tokens from this contract back to the sender\n    // Notice that we are using transfer instead of transferFrom here, so\n    //  no approval is needed beforehand.\n    require(\n      stakingToken.transfer(_msgSender(), _amount),\n      \"Unable to withdraw stake\");\n\n    stakeHolders[personalStake.stakedFor].totalStakedFor = stakeHolders[personalStake.stakedFor]\n      .totalStakedFor.sub(personalStake.actualAmount);\n\n    personalStake.actualAmount = 0;\n    stakeHolders[_msgSender()].personalStakeIndex++;\n\n    emit Unstaked(\n      personalStake.stakedFor,\n      _amount,\n      totalStakedFor(personalStake.stakedFor),\n      _data);\n  }\n}\n",
  "sourcePath": "/Users/ilya/Documents/Akropolis/dca-strategy-bot/contracts/modules/staking/StakingPool.sol",
  "compiler": {
    "name": "solc",
    "version": "0.5.17+commit.d19bba13.Emscripten.clang"
  },
  "schemaVersion": "3.2.3",
  "updatedAt": "2020-08-10T19:11:24.356Z",
  "devdoc": {
    "details": "See https://github.com/ethereum/EIPs/blob/master/EIPS/eip-900.md",
    "methods": {
      "getPersonalStakeActualAmounts(address)": {
        "details": "Returns the stake actualAmount for active personal stakes for an addressThese accessors functions are needed until https://github.com/ethereum/web3.js/issues/1241 is solved",
        "params": {
          "_address": "address that created the stakes"
        },
        "return": "uint256[] array of actualAmounts"
      },
      "getPersonalStakeForAddresses(address)": {
        "details": "Returns the addresses that each personal stake was created for by an addressThese accessors functions are needed until https://github.com/ethereum/web3.js/issues/1241 is solved",
        "params": {
          "_address": "address that created the stakes"
        },
        "return": "address[] array of amounts"
      },
      "getPersonalStakeUnlockedTimestamps(address)": {
        "details": "Returns the timestamps for when active personal stakes for an address will unlockThese accessors functions are needed until https://github.com/ethereum/web3.js/issues/1241 is solved",
        "params": {
          "_address": "address that created the stakes"
        },
        "return": "uint256[] array of timestamps"
      },
      "getPersonalStakes(address)": {
        "details": "Helper function to get specific properties of all of the personal stakes created by an address",
        "params": {
          "_address": "address The address to query"
        },
        "return": "(uint256[], uint256[], address[]) timestamps array, actualAmounts array, stakedFor array"
      },
      "isOwner()": {
        "details": "Returns true if the caller is the current owner."
      },
      "owner()": {
        "details": "Returns the address of the current owner."
      },
      "renounceOwnership()": {
        "details": "Leaves the contract without owner. It will not be possible to call `onlyOwner` functions anymore. Can only be called by the current owner.     * > Note: Renouncing ownership will leave the contract without an owner, thereby removing any functionality that is only available to the owner."
      },
      "stake(uint256,bytes)": {
        "params": {
          "_amount": "uint256 the amount of tokens to stake",
          "_data": "bytes optional data to include in the Stake event"
        }
      },
      "stakeFor(address,uint256,bytes)": {
        "params": {
          "_amount": "uint256 the amount of tokens to stake",
          "_data": "bytes optional data to include in the Stake event",
          "_user": "address the address the tokens are staked for"
        }
      },
      "supportsHistory()": {
        "details": "Since we don't implement the optional interface, this always returns false",
        "return": "bool Whether or not the optional history functions are implemented"
      },
      "token()": {
        "return": "address The address of the ERC20 token used for staking"
      },
      "totalStaked()": {
        "return": "uint256 The number of tokens staked in the contract"
      },
      "totalStakedFor(address)": {
        "params": {
          "_address": "address The address to query"
        },
        "return": "uint256 The number of tokens staked for the given address"
      },
      "transferOwnership(address)": {
        "details": "Transfers ownership of the contract to a new account (`newOwner`). Can only be called by the current owner."
      },
      "unstake(uint256,bytes)": {
        "details": "Unstaking tokens is an atomic operationeither all of the tokens in a stake, or none of the tokens.Users can only unstake a single stake at a time, it is must be their oldest active stake. Upon releasing that stake, the tokens will be transferred back to their account, and their personalStakeIndex will increment to the next active stake.",
        "params": {
          "_amount": "uint256 the amount of tokens to unstake",
          "_data": "bytes optional data to include in the Unstake event"
        }
      }
    },
    "title": "ERC900 Simple Staking Interface basic implementation"
  },
  "userdoc": {
    "methods": {
      "stake(uint256,bytes)": {
        "notice": "Stakes a certain amount of tokens, this MUST transfer the given amount from the userMUST trigger Staked event"
      },
      "stakeFor(address,uint256,bytes)": {
        "notice": "Stakes a certain amount of tokens, this MUST transfer the given amount from the callerMUST trigger Staked event"
      },
      "supportsHistory()": {
        "notice": "MUST return true if the optional history functions are implemented, otherwise false"
      },
      "token()": {
        "notice": "Address of the token being used by the staking interface"
      },
      "totalStaked()": {
        "notice": "Returns the current total of tokens staked"
      },
      "totalStakedFor(address)": {
        "notice": "Returns the current total of tokens staked for an address"
      },
      "unstake(uint256,bytes)": {
        "notice": "Unstakes a certain amount of tokens, this SHOULD return the given amount of tokens to the user, if unstaking is currently not possible the function MUST revertMUST trigger Unstaked event"
      }
    }
  }
}